:100000000C94B6050C94D3050C94D3050C94F131E3
:100010000C94D3050C94D3050C94D3050C94D30500
:100020000C94D3050C94D3050C947C170C943817BE
:100030000C9465260C94D3050C94D3050C94D3052D
:100040000C94D3050C94D3050C94D3050C94D305D0
:100050000C94D3050C9459180C94D3050C94D30527
:100060000C94D3050C94D3050C94D3050C94D305B0
:100070000C94D3050C94D3050C94D3050C94D305A0
:100080000C94D3050C94D3050C94D3050C94D30590
:100090000C94D3050C94D3050C94D3050C94D30580
:1000A0000C94D3050C94D3050C94D305E1003132A4
:1000B00000003A003B0000000F0018001C00000088
:1000C0002A00343131320000400041004200430038
:1000D00000002C41282800000B003600000017000B
:1000E0000A00000008000C00000018001C000000BE
:1000F0003600370000001200343100003800313281
:1001000000003700380000001D24070000001B001D
:10011000190000001B000700000006000700000097
:100120001B00060000001D241B0000000900130036
:1001300000001A00090000000A0037000000160045
:1001400037000000090037000000040037000000FD
:100150001B00370000001500370000001A003700B0
:1001600000001400370000000700370000001700EF
:100170003700000013003700000008000D000000E9
:100180001000110000000D000F00000022002700E9
:100190003C5441473E3C2F5441473E003C696D670B
:1001A000207372633D22696D6167655F736F75725D
:1001B00063655F6F725F6C696E6B5F676F65735FBE
:1001C000686572652220616C743D226E616D655FA9
:1001D00069665F63616E745F6C6F6164222077692A
:1001E0006474683D226E756D5F706978656C73220A
:1001F000206865696768743D226E756D5F70697807
:10020000656C73223E003C6120687265663D226C1D
:10021000696E6B5F676F65735F68657265223E6EBE
:10022000616D655F6F665F6C696E6B5F676F65734D
:100230005F686572653C2F613E003C666F6F746558
:10024000723E3C2F666F6F7465723E003C626F6455
:10025000793E3C2F626F64793E003C686561643E84
:100260003C2F686561643E003C68746D6C206C6175
:100270006E673D22656E223E3C2F68746D6C3E00B9
:100280003C7374796C653E3C2F7374796C653E00E9
:100290003C7469746C653E3C2F7469746C653E00F7
:1002A0003C703E3C2F703E003C6469763E3C2F64BF
:1002B00069763E0031313120486967687669657733
:1002C0002047617465205345006172696340636F24
:1002D0006C6C656769756D6275696C742E636F6DA2
:1002E00000636F6E74616374406172696363622E50
:1002F0006465760035013A003B003C003D003E005D
:10030000292F14001A000900130005002B2D0443A7
:100310001500160017000A00E1001D241B0006004E
:10032000070019000000562428282C41E000AE00E8
:10033000440043004200410040003F002A003300D7
:100340001C0018000F000D00343112430C0008008F
:100350001100100031323800370036000B000E005B
:100360000000A8004C422C41C30035241B701E0025
:100370001F0020002100220035001E023602370235
:100380002E0023022B0220022F002602270230001B
:10039000E100350221022F0230022202000001009A
:1003A0000100010001002708450027002600250064
:1003B000240023002A003302260025002400250201
:1003C000570056002300220021002402310254006D
:1003D00020001F001E00310200000D7E37002700A4
:1003E0002C0035021B701E001F002000210022007F
:1003F0001C70D300D200CD00D100A8000100010084
:10040000CF00CE00D000A9000100DB00D900DA0047
:10041000DC00AA00000001002808010001000D7E98
:100420004500270026002500240023002A0033026F
:100430005300D3000100010034020100D200077E06
:10044000D1000A7E31021E02087E077E097E01006D
:1004500000000D7E0100D300D10001001B703A00A6
:100460003B003C003D003E001C7001004200430088
:1004700044004500010001003E243F224028412164
:10048000010001003A003B003C003D00000001007B
:100490000100010001000D7E450047004F08520C8D
:1004A00050084B014C0053004D0052004A004E01D1
:1004B00039000100510051005000010049004F086F
:1004C0004E00510C4B00010000000D7E01000100A8
:1004D0000B7E0C7E00DA0281FFD9F1DB20A4A62E70
:1004E000AF00A0C000A1C800AED580A81FD30040B7
:1004F0008D1420000000000000008080000080803B
:10050000C0C0CCDEDECCC0C0800000008080000017
:1005100000000000C0F0F81C0E0703F9FCFF0F07F5
:1005200003E1F1F1F1F1E103070FFFFCF903070E1D
:100530001CF8F0C0C0E3E7CE1C3870630F1F3C7896
:10054000F0E1E30303E3E1F0783C1F0F6770381C30
:10055000CEE7E3C0000101000000387860C0C0C0F1
:10056000607F3F00003F7F60C0C0C06078380000FF
:10057000000101003E0100383C3C3C3C3C3C3C3C22
:100580003C3C3C3C3C3C3C3C3C3C3C3C3C7CF8F1FA
:10059000E20408F0001C1C1C00007F0408107F000F
:1005A0007C1211127C001F2040201F00000000FF61
:1005B000FF0000FF3E40404E4E4E4E4E4E4E4E4EC1
:1005C0004E4E8E1E3E7E7E46467E46467E46467F8A
:1005D0007F0000FF000606367660E6C0C08000009F
:1005E0000000000102020202020212E20212E20212
:1005F00012E202010000000000808080B9BBBB83D2
:1006000080B8808080808080808080BF8080BF8034
:1006100080BF8000F00804E2F1F8FCFCFCFCFCFC6C
:10062000FCFCFCFCFCFCFCFCFCFCFCFCFCFCFCFC0A
:10063000FC0000FFFF0000FFFFFFFFFFFFFFFFFFC9
:10064000FFFFFFFFFFFFFFFFFFFFFFFFFFFFFFFFBA
:10065000FF0000FFFF0000FFFFFFFFFFFFFFFFFFA6
:10066000FFFFFFFFFFFFFFFFFFFFFFFFFFFFFFFF9A
:10067000FF0000FFFF0000FFFFFFFFFFFFFFFFFF86
:10068000FFFFFFFFFFFFFFFFFFFFFFFFFFFFFFFF7A
:10069000FF0000FFFF0000FFFFFFFFFFFFFFFFFF66
:1006A000FFFFFFFFFFFFFFFFFFFFFFFFFFFFFFFF5A
:1006B000FF0000FF7F80809F9F9F9F9F9F9F9F9F26
:1006C0009F9F9F9F9F9F9F9F9F9F9F9F9F9F9F9F3A
:1006D0009F80807F000000000000423A12120E004E
:1006E0000C4447241C002424147F0400423F0222AF
:1006F0001E000A0A7F0A0A00024742221F00211533
:100700000915630044443F040400221A027F1200CA
:100710002222120A0600084742221E0010525430BC
:100720001600403A023E42005E5252525E000427DA
:1007300044443C0000000000000077007700770090
:1007400014227F2214005F5F005F5F0006097F01B3
:100750007F00006689956A0060606060600094A216
:10076000FFA2940008047E04080010207E201000E0
:100770000000000000000000000000000000000079
:100780000000001C1C1C000000081C0800000000E9
:100790000800000000000000000000005F000000F2
:1007A000000700070000147F147F1400242A7F2A0A
:1007B00012002313086462003649562050000008D6
:1007C00007030000001C224100000041221C000021
:1007D0002A1C7F1C2A0008083E0808000080703090
:1007E00000000808080808000000606000002010F1
:1007F000080402003E5149453E0000427F4000008F
:100800007249494946002141494D33001814127F6D
:1008100010002745454539003C4A494931004121EE
:1008200011090700364949493600464949291E0041
:1008300000001400000000403400000000081422F2
:100840004100141414141400004122140800020181
:10085000590906003E415D594E007C1211127C0080
:100860007F49494936003E41414122007F41414193
:100870003E007F49494941007F09090901003E4185
:10088000415173007F0808087F0000417F4100004C
:100890002040413F01007F08142241007F4040403A
:1008A00040007F021C027F007F0408107F003E4151
:1008B00041413E007F09090906003E4151215E0089
:1008C0007F091929460026494949320003017F0161
:1008D00003003F4040403F001F2040201F003F409A
:1008E00038403F00631408146300030478040300D5
:1008F0006159494D4300007F414141000204081005
:100900002000004141417F000402010204004040F8
:100910004040400000030708000020545478400085
:100920007F2844443800384444442800384444284C
:100930007F0038545454180000087E09020018241F
:10094000241C78007F080404780000447D400000E7
:100950002040403D00007F102844000000417F40BF
:1009600000007C04780478007C0804047800384493
:10097000444438007C1824241800182424187C00CF
:100980007C080404080048545454240004043F44E0
:1009900024003C4040207C001C2040201C003C40A7
:1009A00030403C004428102844004C9090907C003B
:1009B0004464544C440000083641000000007700B5
:1009C00000000041360800000201020402003C263B
:1009D00023263C0000AF00AE05010906A1018501F8
:1009E000050719E029E71500250195087501810221
:1009F0009501750881010507190029FF150026FFDB
:100A000000950675088100050819012905950575E9
:100A1000019102950175039101C005010980A101B1
:100A2000850319012AB700150126B7009501751035
:100A30008100C0050C0901A101850419012AA00249
:100A4000150126A002950175108100C0090222003F
:100A5000010100A0FA0904000001030101000921BD
:100A60001101000122740007058103200001120119
:100A700000020000000813402220130001020001C0
:100A80000E034C00650065006C006F006F000000F5
:100A9000260343006C00690063006B00650074006E
:100AA00079002000530070006C0069007400200081
:100AB0004C007400640000000403090400000000FE
:100AC0000000000000000000000000000000000026
:100AD0000000000000000000000000000000000016
:100AE0007E0F00D4FFFFFFC7000000780000000069
:100AF000000000002A2B2800000000000000000079
:100B00000000000000000029000000002C1E34201E
:100B1000212224342627252E362D3738271E1F2044
:100B20002122232425263333362E37381F04050689
:100B30000708090A0B0C0D0E0F10111213141516CD
:100B40001718191A1B1C1D2F3130232D35040506CB
:100B50000708090A0B0C0D0E0F10111213141516AD
:100B60001718191A1B1C1D2F3130354C11241FBEAC
:100B7000CFEFDAE0DEBFCDBF12E0A0E0B1E0EEEBF8
:100B8000FDE602C005900D92AA3FB107D9F727E014
:100B9000AAEFB2E001C01D92A531B207E1F70E94B1
:100BA00088260C9483360C940000E8EDF0E08081F8
:100BB0008E7F80831092E2001092DA001092E100A2
:100BC000A0EEB0E08C9181608C9380818F778083E0
:100BD00019BCA7EDB0E08C918E7F8C9380818F7EC5
:100BE00080831092F70608952091E4003091E5008B
:100BF00095E6A9012091EC00822F817020FF06C0AC
:100C00008091E80080FF06C080E008952091E80010
:100C100022FD1AC080911407882389F0853089F05D
:100C20008091EB0085FD0FC02091E4003091E5003C
:100C300042175307F9F29150E1F684E0089582E0FB
:100C4000089583E0089581E0089580910C0787FF5F
:100C500013C08091E80082FF06C08091E8008B7786
:100C60008093E80004C0809114078111F2CF0895A9
:100C7000809114078823D9F38091E80080FFF8CF92
:100C80008091E8008E77ECCF982F9093E900242F85
:100C9000762F50E0891731F07091EC002091ED0033
:100CA0005091F00021FD07C09F5F973071F780934E
:100CB000E90081E008953091EB003E7F3093EB0036
:100CC0003091ED003D7F3093ED003091EB003160CD
:100CD0003093EB007093EC002093ED005093F00004
:100CE0002091EE0027FDE0CF80E00895B0E0A0E085
:100CF000ECE7F6E00C942B33C8EDD0E088818F7ED2
:100D00008883E7EDF0E080818160808384E082BFAA
:100D100081E08093F70688818E7F888302EE10E061
:100D2000F80110821092DA0081EEC82ED12CF60163
:100D3000108288818F778883888180688883888102
:100D40008F7D888319BC1092140710920B071092A4
:100D500004071092030790EEE92EF12CF701808131
:100D60008B7F808388818160888342E060E080E0BF
:100D70000E944406F60180818E7F8083F801808185
:100D800081608083808188608083F70180818E7F8D
:100D90008083888180618883CDB7DEB7E8E00C94DA
:100DA0004733FC018091120790911307861797072C
:100DB000A0F06115710529F49091E8009E77909359
:100DC000E80090E06115710551F4911108C080911F
:100DD000E80082FF34C080E00895BC01F2CF80912A
:100DE00014078823C1F18530C1F18091E80083FDAB
:100DF00030C08091E80082FDEACF8091E80080FF5A
:100E0000E1CF8091F3002091F200382F6115710538
:100E100019F02830310558F091E02830310509F0FB
:100E200090E02091E8002E772093E800CBCF8191CD
:100E30008093F100615071092F5F3F4FE7CF8091A0
:100E40001407882341F0853041F08091E80083FF4A
:100E5000BECF81E0089582E0089583E0089508956B
:100E60008091F9060895CF92DF92EF92FF922FB70B
:100E7000F894C090F306D090F406E090F506F09058
:100E8000F6062FBFA7019601261B370B480B590BFF
:100E9000CA01B901FF90EF90DF90CF9008952FB76E
:100EA000F8946091F3067091F4068091F5069091A4
:100EB000F6062FBF08959C01FC0133969FEF80E05A
:100EC0004191461751F09F3F19F4411101C0982FED
:100ED0008F5F8630A9F79F3F09F40895290F311DD0
:100EE00097FD3A95F90163830895A3E0B0E0EBE73D
:100EF000F7E00C9431332091F1063091F206281777
:100F00003907A1F09093F2068093F106E091EF0685
:100F1000F091F006309751F024E029839B838A8377
:100F20000680F781E02DCE01019609952396E2E037
:100F30000C944D33A3E0B0E0E0EAF7E00C943133D9
:100F40002091ED063091EE0628173907A1F0909315
:100F5000EE068093ED06E091EF06F091F0063097F3
:100F600051F023E029839B838A830680F781E02D5B
:100F7000CE01019609952396E2E00C944D33DC01F5
:100F80006091E9068091EA06962F891301C00895C1
:100F9000292F30E0F901EE0FFF1FEF51F94F40818B
:100FA00051814A175B07A1F487E08A9FA0018B9FBC
:100FB000500D112445595E4F81E0FA018483961348
:100FC000E6CF2F5F3F4F237033272093E906089524
:100FD0002F5F3F4F922F9370D8CF109285061092BB
:100FE0008406EBE6F1E08581811102C0148216824D
:100FF000379682E0E736F807B1F70895CF93DF938D
:10100000209178063091790628573440A901460F7F
:10101000571F4130524020F060E072E0621B730BBA
:101020004091760450917704FC01C901620F731F4F
:10103000C1E0D0E08617970738F0509377044093CB
:101040007604DF91CF9108952491DC01A858BB4F1D
:101050003C91321781F02C939C01A5E036952795A1
:10106000AA95E1F7DE0102C0AA0FBB1F2A95E2F79D
:101070009D014A2B532B01963196DCCF309175049C
:101080008317A0F590E0262F269526952695239F79
:10109000800D911D1124811522E092073CF5FC0181
:1010A000E858FB4F5081677021E030E001C0220F0B
:1010B0006A95EAF74423D9F0252B2517B9F0208348
:1010C00025E0969587952A95E1F721E030E002C06A
:1010D000220F331F8A95E2F780917604909177046E
:1010E000822B932B90937704809376040895209518
:1010F0002523E3CF613092E0790710F060E072E0E1
:10110000FB01E858FB4F90819817B9F0808385E088
:10111000769567958A95E1F721E030E002C0220FCD
:10112000331F6A95E2F78091760490917704822BC1
:10113000932B9093770480937604089520917504FF
:1011400036E0839FC0011124629F800D911D112400
:10115000811522E0920714F090E080E088589B4FC0
:1011600090937906809378060895FC01680F791FA3
:101170008FEF91E32191822728E030E087FF09C0BB
:10118000880F892721503109C9F7E617F70791F72A
:101190000895880FF7CF80E0089563E070E08AE556
:1011A00093E00E94B50890915903891318C0E0910B
:1011B0005A03EA30A4F488E0E802F0011124E55E65
:1011C000FE4F0680F781E02D309749F02DE733E0A0
:1011D00040915C036DE573E080915B030995089590
:1011E000EDE4F3E0868580934B01878580935E0173
:1011F0000895F894E82FE295EF70F0E031A1282FE0
:101200002F7081E090E001C0880F2A95EAF7982FAF
:101210009095932391A392A1892B82A3789408950A
:10122000972F7A30B8F46630A8F4843098F470E0E0
:1012300026E0929F600D711D1124FB019CE3899FA4
:10124000E00DF11D1124EE0FFF1FEC50FD4F8591B5
:101250009491089580E090E008958238910591F18D
:10126000E8F58133910509F497C028F58932910595
:1012700009F487C08A32910509F495C0811520E5EB
:10128000920708F0AEC0811530E4930708F02EC134
:10129000843C910508F08EC0883A910508F01BC186
:1012A000853A910508F00EC18430910528F581300A
:1012B000910511F141C08533910509F45DC0893371
:1012C0009105E1F62091B003237009F064C12091EB
:1012D000B10323FF11C089E290E00895833E910598
:1012E00071F158F4803E9105E9F0823E910531F6A6
:1012F0002091B00322FD1EC00895863E910551F154
:10130000873E910571F1843E910509F0B7CF209198
:10131000B10321FFF1CF8091B00384FD0DC087EEB2
:1013200090E008952091B00320FD33C03091B103C7
:1013300030FFE2CF24FF29C190E080E0DDCF209193
:10134000B00322FD25C13091B10330FD24C124FF3B
:10135000D3CFF2CF2091B00323FFCECF24FDECCF2B
:10136000DECF2091B00323FD19C13091B10331FFCD
:10137000EECF84EE90E008952091B00325FFBCCF1E
:10138000AACF2091B00325FD0CC12091B10323FF0A
:10139000B3CF89E390E008952091B00326FFACCF4E
:1013A0008AE290E008952091B00326FFA5CF81E363
:1013B00090E00895883E910568F4813E910508F01B
:1013C0009BCF9C012D5C31092331310508F0B4CF4E
:1013D000906508959C013A9521153F4108F48CCF02
:1013E000ABCF803422E5920708F041C0803232E56D
:1013F000930708F092C0811542E5940708F079C080
:10140000282F2F714091B00342FF08C0582F587108
:10141000583009F099C0282F2771246043FF07C076
:10142000322F3871383109F098C0277E246130910D
:10143000B10330FF07C0522F5871583009F095C0E2
:10144000277F216031FF07C0322F3871383109F012
:1014500094C0277E216144FD277E35E096958795CF
:101460003A95E1F78F70982F822F90690895803810
:1014700022E59207C8F4282F26952695482F437019
:101480008036924508F450C0277030E2239FC00197
:10149000112421E030E002C0220F331F4A95E2F709
:1014A000822B932B9A6808959C01205C3245203250
:1014B000310508F041CF982F882788279F71806FCA
:1014C000906A0895855AE82FF0E0E957FD4F808132
:1014D00090E090640895885AE82FF0E0EE0FFF1F27
:1014E000E657FD4F80819181946408959F70906AC2
:1014F0000895282F2695269540E2249F90011124D7
:10150000482F437081E090E002C0880F991F4A95F0
:10151000E2F7822B932B9D6808958F7190E0982FAE
:101520008827816F906A0895277030E2239FC00159
:10153000112421E030E002C0220F331F4A95E2F768
:10154000822B932B9C680895582F5471543009F0C6
:1015500065CF282F2B71286061CF322F3471343141
:1015600009F065CF2B7E286162CF522F5171513027
:1015700009F068CF2E7F286065CF322F317131316D
:1015800009F069CF2E7E286166CF83EE90E0089542
:1015900082EE90E0089580EE90E0089586EE90E06F
:1015A000089585E390E008950E944F070895909173
:1015B0008606892B809386060895B0E0A0E0E3EECE
:1015C000FAE00C942A337C01009142041091430408
:1015D0008091440490914504082B192BCFE0D0E072
:1015E000CC24C394D12CBC2EC6010C2E02C0880F73
:1015F000991F0A94E2F780239123892B49F42197BC
:1016000090F7B12C8B2DCDB7DEB7E9E00C944633C3
:10161000B7018C2F0E9410090E942D09019779F3C0
:10162000F1CF9A3078F5863068F5E82FF0E086E063
:10163000989FE00DF11D11249E2F977083E0F69581
:10164000E7958A95E1F7EE0FFF1FEE0FFF1FED5DA7
:10165000FC4F50E040E080E0219130E0092E02C0D4
:10166000369527950A94E2F721703327042E01C09E
:10167000220F0A94EAF7822B4F5F5F4F44305105E7
:1016800059F7089580E008959A3098F5863088F5E6
:10169000E82FF0E086E0989FE00DF11D11248E2FD9
:1016A000877041E001C0440F8A95EAF783E0F69520
:1016B000E7958A95E1F7EE0FFF1FEE0FFF1FED5D37
:1016C000FC4F30E020E070E05191DF011197CB0139
:1016D000022E02C0969587950A94E2F78170819553
:1016E0008527842385278C932F5F3F4F2430310536
:1016F00059F7089590934504809344040895CF9238
:10170000DF92EF92FF92C72ED82EE92EFF2420E021
:10171000C114D104E104F10419F0C701B60128E0B5
:101720006B017C0154E0F694E794D794C7945A95E2
:10173000D1F7C114D104E104F10419F02C5FC70101
:10174000B6016B017C0142E0F694E794D794C7940C
:101750004A95D1F7C114D104E104F10419F02E5FC8
:10176000C701B6019695879577956795672B682B86
:10177000692B09F02F5F822FFF90EF90DF90CF90C1
:101780000895292F332740E02115310511F0C901B3
:1017900048E09C0164E0369527956A95E1F72115AC
:1017A000310511F04C5FC9019C013695279536959E
:1017B00027952115310511F04E5FC9019695879542
:1017C000892B09F04F5F842F0895A5E0B0E0EBEE80
:1017D000FBE00C9430339C01FC01858196810097DD
:1017E000E1F485E0DE01119601900D928A95E1F712
:1017F000F901228189819A81222399F0662389F057
:101800000E94DD0A182F682F89819A810E94440B5B
:1018100069817A81812F0E9410092596E3E00C945A
:101820004C330E94110B182FF3CF9C019A95811510
:101830009F4140F4832F817031FD826033FF03C0EC
:101840008860089580E00895A6E1B0E0EAE2FCE057
:101850000C942133F82E862E298399249394E01634
:1018600008F0912C2E2D302FE01610F43095209595
:10187000D12C84E690E0B6010E947433FB01B601DE
:101880006150710984E690E00E9474337B836A831F
:10189000832F90E030E0281B390B642E712CD12C63
:1018A000C12CA301072C000C660B770B4C835D83C6
:1018B0006E837F83AF01FF0F660B770B48875987D5
:1018C0006A877B87A901330F660B770B4C875D878F
:1018D0006E877F879C01990F440B550B288B398BA2
:1018E0004A8B5B8BCC8A6C147D0421F46696E2E112
:1018F0000C943D336C817D818E819F810E94663581
:101900009B01AC0160E070E088EC92E40E94BC3482
:101910001B012C01B6010D2C000C880B990B0E94A9
:1019200066359B01AC01C201B1010E94163620E070
:1019300030E0A9010E944B340E942E35072E000C86
:10194000880B990B0E9466351B012C0168857985EF
:101950008A859B850E9466359B01AC01C201B1015D
:101960000E94BC340E942E354A815B81469F500103
:10197000479FB00C569FB00C11246C857D858E85D9
:101980009F850E9466351B012C01B5010B2C000CB4
:10199000880B990B0E9466359B01AC01C201B10115
:1019A0000E94163620E030E048EC52E40E94BC343D
:1019B0001B012C01688979898A899B890E94663577
:1019C000A20191010E944B341B012C0110E05C89A3
:1019D000537084E0589FB001112469587D4F7E8B6D
:1019E0006D8B9981191305C02FEFC21AD20AF39497
:1019F00079CFE12FE3708D899E898E0F911DFC01B7
:101A0000608170E090E080E00E946635A201910163
:101A10000E94B734492D87FF04C041E0E01608F466
:101A200040E04170612F680D8F2D0E943E081F5FBE
:101A3000D8CF0F931F93CF93DF93EC0161157105FE
:101A400019F1813022E0920710F080E092E088588E
:101A50009B4FFC0100816C0F7D1F142F1095CB0153
:101A60006130F2E07F0710F080E092E088589B4FF1
:101A7000FC01808181234023842B0E947A08BE01CF
:101A8000802F81230E947A08DF91CF911F910F91BF
:101A90000895B0E0A0E0EFE4FDE00C942B33182FA4
:101AA000F62E442399F1011103C02223A1F1141B46
:101AB000842F8695942F9170980FCFEFC90FC42E65
:101AC000C694C694C394D42FD91B222331F1C10FDD
:101AD000D12C082F010F4E2D6F2D802F8D0D0E94C0
:101AE0003E084E2D6F2D8C2F0E943E084E2D6F2DDF
:101AF000812F8D0D0E943E084E2D6F2D8D2F8C0F46
:101B00000E943E08D394C150DC1428F3CDB7DEB751
:101B1000E8E00C944733F41ACBCFCF0DD12C082F2B
:101B20000F0D602F6D0D4E2D812F0E943E084E2D02
:101B30006C2F812F0E943E086F2D6D0D4E2D812F31
:101B40000E943E086D2F6C0F4E2D812F0E943E0883
:101B5000D394C150DC1428F3D9CFEF920F9360389F
:101B60007105D8F4481759072CF4382F292FCA01CA
:101B7000432F522F8032910514F08FE190E097FDB2
:101B800080E04032510514F04FE150E0481BEE2454
:101B9000E39401E021E00E94490D0F91EF90089538
:101BA000B0E0A0E0E6EDFDE00C942B337C01EB010E
:101BB0006A01022F10E0B8016C0F7D1F0E94AD0D6D
:101BC000BE01601B710BA601C7010E94AD0DCDB710
:101BD000DEB7E8E00C944733B0E0A0E0E2EFFDE0D0
:101BE0000C942833EC017B01942E042F10E06C013F
:101BF000C01AD10A5801A80EB91EA501C6010E943B
:101C0000AD0DB8016E0D7F1D603871051CF4C0323A
:101C1000D1056CF1B701601B710B6038710538F4A8
:101C2000C032D10524F441E08C2F0E943E0821E00F
:101C3000A501B701C6010E94D00DAE014F5F5F4FF5
:101C4000292DB701CE0101970E94D00D0150110935
:101C5000AE01400F511F22E0B701CE01801B910B56
:101C60000E94D00DCDB7DEB7EBE00C94443341E0D9
:101C70008C2F0E943E08CECFEF920F93E22E01E010
:101C800021E00E94490D0F91EF9008950F931F934B
:101C9000CF93DF93182FC62F042FD62FD20F20E01B
:101CA000402F6C2F812F0E943C0ECF5FCD13F7CFBA
:101CB000DF91CF911F910F910895FF920F931F9382
:101CC000CF93DF93F82ED0E0C0E0062F10E06F2D09
:101CD0006C1B21E049E183E00E943C0E6C2F6F0DEC
:101CE00021E049E183E00E943C0E2196C017D10714
:101CF00074F3CDB7DEB7E5E00C944A3320910F03BF
:101D00003091100340911103509112036DEF73E471
:101D100083E090E00E9458336D537146894D9F4F88
:101D200060930F0370931003809311039093120339
:101D30009F770895CF92DF92EF92FF9260911903FF
:101D400070911A0380911B0390911C030E9433072A
:101D50006C3271408105910590F1C0901503D090CF
:101D60001603E0901703F0901803C701B6010E9414
:101D70003307613A7F408105910548F0C701B601FC
:101D80000E9433076031774281059105D0F0C70189
:101D9000B6010E9433076031774281059105A8F0B2
:101DA000C701B6010E94330760357644810591056D
:101DB00060F485E0FF90EF90DF90CF90089580E091
:101DC000F9CF81E0F7CF83E0F5CFC701B6010E94DC
:101DD00033076035764481059105A8F382E0EACFA8
:101DE000EF920F9328E74CE162E583E00E94460EF4
:101DF00021E040E26FE781E00E943C0EEE24E39494
:101E000000E020E04AE26EE780E00E94490D20E019
:101E10004FE26EE78FE10E94490D0F91EF90089518
:101E2000B0E0A0E0E6E1FFE00C942B336C017B0115
:101E300064E670E088E70E946B30EC0197FD12C009
:101E400010E000E0F601E00FF11F849164E670E01D
:101E50000E94D730EC01892B29F40F5F1F4F0E151C
:101E60001F0581F70E944D31CE01CDB7DEB7E8E006
:101E70000C94473380917E0690917F06911103C0A8
:101E800091E089270895882369F062E070E086ED8B
:101E900099E00E94100F892B19F080917E06089519
:101EA00010927E0680917E06EBCFCF93C0917E0686
:101EB00080917F068823D1F00E944F07605A7541B8
:101EC0008F4F9F4F60937A0670937B0680937C06BA
:101ED00090937D06C11108C062E070E084ED99E046
:101EE0000E94100F892B29F0C0917E068C2FCF9174
:101EF000089581E080937E06F7CF0F931F93CF93D1
:101F0000DF938C01EB0180911407843069F581E047
:101F10008093E9008FEF9091E800815095FD06C015
:101F200095ED9A95F1F700008111F5CF8091E800C9
:101F300085FF1AC00E94F405811111C08091E8004C
:101F400085FD06C08091E8008E778093E800F2CF8F
:101F5000F80181918F018093F100219779F78091A9
:101F6000E8008E778093E800DF91CF911F910F9169
:101F7000089563E070E00E947D0F0895CF93DF9392
:101F8000EC0180916802811111C068E070E0CE011F
:101F900001960E947D0F89E0FE01AAEFB6E0019054
:101FA0000D928A95E1F7DF91CF91089569E070E095
:101FB000CE01EFCFB0E0A0E0E0EEFFE00C942933DB
:101FC0007C015B016A0180916B0401E010E08A30C2
:101FD00010F40AE010E0C1E0D0E0B501C701F6015D
:101FE0000995811104C021960C171D072CF4CDB75B
:101FF000DEB7EAE00C944533CC9F9001CD9F300DC5
:10200000300D112490E080E045E34A95F1F700009F
:10201000019682179307C1F7E0CF80914C0381119D
:1020200010C08091D80080618093D8008AE18A95A1
:10203000F1F700C08091D90080FF0AC081E0809351
:102040004C0381E090914C03913009F080E00895B9
:1020500082E080934C030E94D50510921407F1CFC3
:102060000E940D10882359F0E091EF06F091F006E0
:10207000309729F00190F081E02D0995089580E0D6
:1020800008958091800690918606892B8093FD02A9
:1020900049E050E063E473E08CEF92E00E94F23399
:1020A000892BC1F089E0ECEFF2E0A3E4B3E001900A
:1020B0000D928A95E1F7E091EF06F091F0063097E6
:1020C00049F081E08093FC020280F381E02D8CEFE7
:1020D00092E009950895882341F0809590918606B5
:1020E0008923809386060E9441100895809183067B
:1020F000882329F082E20E946B10109283060895D3
:10210000882321F00E94D70A0E9441100895882355
:1021100041F08095909180068923809380060E94EB
:1021200041100895882339F090918006982B909360
:1021300080060E94411008958823C1F19CEF980FFA
:10214000913A78F4EFEFF2E09191891303C0DF0147
:1021500011971C9243E0E530F407B1F70E9441105B
:10216000089590E2980F983088F4877021E030E06D
:10217000A90102C0440F551F8A95E2F7CA01809554
:1021800090918006892380938006E8CF9BE5980F85
:10219000933028F490E080E00E949A070895885ACE
:1021A000893120F490E080E00E9475070895CF9374
:1021B000DF93EC010E949C10CE010E94150CC05EC2
:1021C000D109289728F40E948710DF91CF910895B4
:1021D0000E946B10FACFCF93C82F8823B1F08CEFF9
:1021E0008C0F813A00F5EFEFF2E085E093E0DF013C
:1021F0002D91C21761F08A179B07D1F76C2F8CEFD6
:1022000092E00E945B070E944110CF9108952191B6
:10221000C21303C0DF0111971C928E179F07B9F7F5
:102220000E944110EBCF80E28C0F883068F4C770B9
:1022300021E030E001C0220FCA95EAF780918006C4
:10224000822B80938006DFCFEBE5EC0FE33040F488
:10225000F0E0E957FD4F808190E00E949A07D5CFCA
:10226000C85AC93190F6EC2FF0E0EE0FFF1FE65789
:10227000FD4F808191810E947507C7CF1F93CF9337
:10228000DF93182FEB010E94EB10209739F4812F78
:102290000E949C10DF91CF911F9108958FE99FE0DC
:1022A0000197F1F700C000002197EFCF70E060E0E8
:1022B000893311F460E570E00E943E110895B0E0AA
:1022C000A0E0E5E6F1E10C942933EC018AE0A82EC8
:1022D000FE012491222309F497C0213009F03EC069
:1022E00031968491813031F42296FE0184910E94CE
:1022F000561107C0823039F42296FE0184910E9463
:10230000EB102196E5CF833031F42296FE018491C3
:102310000E949C10F6CF843009F074C02296FE0112
:10232000249190E080E0FE0131962053330B2A3057
:10233000310548F0019728F3EFE9FFE03197F1F715
:1023400000C00000F7CFA89EA001A99E500D112447
:10235000C901840F951F2491EF01E5CFE22FF0E032
:10236000E451F54FB490822F86958695869590E03E
:10237000FC01E452F54FE4902770F12C022E02C0CC
:10238000F594E7940A94E2F731E0E322FF24FC019C
:10239000E453F54FC490D12C022E02C0D594C794BB
:1023A0000A94E2F7E1E0CE22DD24FC01E454F54F8B
:1023B000049110E002C0159507952A95E2F7017087
:1023C0001127E114F10419F081EE0E94EB10C11401
:1023D000D10419F086EE0E94EB108B2D0E9456114D
:1023E000C114D10419F086EE0E949C10E114F1048E
:1023F00019F081EE0E949C100115110509F481CF9E
:102400008CE275CFEF017DCFCDB7DEB7EAE00C945B
:102410004533CF93DF93EC010E94150C9E01205EA3
:1024200031092830310540F40E9492108C2F0E940F
:10243000EB10DF91CF9108950E948010F7CF0F939A
:102440001F93CF93DF938C01D0E0C0E0C99711F4C4
:10245000C0E5D0E0C8010E940912209741F4C801EC
:102460000E94D710DF91CF911F910F9108958FE9AE
:102470009FE00197F1F700C000002197EECF1F9376
:10248000CF93DF93162F8A3039F481E00E94D01267
:10249000DF91CF911F9108958D3011F480E0F6CF38
:1024A000C0917806D091790696E0FE01AFE6B4E0DF
:1024B00001900D929A95E1F78E3790F186E0FE013A
:1024C00011928A95E9F7C0917806D0917906111199
:1024D00033C046E050E0BE018FE694E00E94F23344
:1024E0009E0128573440892B91F52A5F3F4F409138
:1024F0007504642F70E0C9010E940D33481B4630FB
:1025000010F4240F311D211572E0370710F030E070
:1025100020E028583B4F3093790620937806B8CFB7
:10252000F6E08F9FB00111246C52794F46E050E0E5
:10253000CE010E94E933C7CF9E012A5F3F4FFE01C3
:102540002E173F0731F2808180958193F9CFC90121
:1025500045E0969587954A95E1F741E050E0BA014C
:1025600002C0660F771F8A95E2F7CB01609176046F
:1025700070917704862B972BB9016B5F7F4FE5E055
:1025800076956795EA95E1F702C0440F551F6A9565
:10259000E2F7842B952B9093770480937604A5CF54
:1025A000CF93382FE0917806F0917906E857F44000
:1025B00020917504622F70E0CF010E940D33281B1B
:1025C000822F332369F066E00E946833C82FC15020
:1025D00010F4CF91089560E080E20E943F12F7CF9F
:1025E0009F01280F311D2115324018F080E0F0E0E6
:1025F000E0E08E0F9F2F911D88589B4F9093790696
:1026000080937806E6CFE8E7F4E080E092E0DF012F
:102610009C011D9221503040E1F7F0937906E09340
:1026200078068FEF9FEF9093770480937604089558
:1026300010928006EFEFF2E086E0DF011D928A95AE
:10264000E9F790E080E00E949A0790E080E00E9425
:102650007507109286060E9441100895AAE2B0E024
:10266000E4E3F3E10C9430338CE097E02091F10047
:10267000FC012193CF01F7E084319F07B9F78091E6
:102680000D07833009F470C0B8F4813009F447C0F5
:10269000823009F4B1C08091E80083FF39C1809194
:1026A0000C0790910D079A3008F032C1E92FF0E045
:1026B000EB57F94C0C94A7338A3009F48CC08B305B
:1026C00009F46FC0893039F780910C07813219F70E
:1026D0008091100790911107892BE9F68091E8000D
:1026E000877F8093E8008091E80082FF38C0909156
:1026F000F3008091F200029731F48091F100813073
:1027000011F0863021F48091F1008093F9068091D8
:10271000E8008B778093E8000E942506BCCF80916B
:102720000C07813A09F0B7CF8091E800877F80934A
:10273000E8008091100790911107892B61F469E0FE
:102740008AEF96E070E00E94D1068091E8008B77D6
:102750008093E800A0CF60E090E080E0F3CF80912C
:1027600014078111C0CF97CF80910C07813A09F0EF
:1027700092CF8091100790911107892B09F08BCF90
:102780008091E800877F8093E8008091E80080FFD7
:10279000FCCF809168028093F1008091E8008E77F1
:1027A000B9CF80910C07813209F075CF8091100765
:1027B00090911107892B09F06ECF8091E800877FF7
:1027C0008093E8000E94250680910E07809368029E
:1027D0000E94181360CF80910C07813209F05BCF03
:1027E0008091E800877F8093E8000E942506809111
:1027F0000F078093F8064FCF80910C07813A09F0BC
:102800004ACF8091E800877F8093E8008091E800BC
:1028100080FFFCCF8091F806BECF803899F08238D7
:1028200009F076C0809110078F70873008F070C073
:102830008093E9008091EB0085FB882780F9109256
:10284000E90006C08091030790910407911182600E
:102850009091E800977F9093E8008093F1001092A8
:10286000F1008091E8008E77B6C1882309F4A3C1F6
:10287000823009F04DC080910E078111A7C180916F
:1028800010078F702FEF280F263008F041C080937B
:10289000E9002091EB0020FF99C1933031F4809141
:1028A000EB0080628093EB0091C19091EB0090610E
:1028B0009093EB0021E030E001C0220F8A95EAF707
:1028C0002093EA001092EA008091EB008860EACF42
:1028D00081111EC010910E071F778091E300807850
:1028E000812B8093E3008091E800877F8093E8004C
:1028F0000E9425068091E80080FFFCCF8091E300D4
:1029000080688093E30082E0111183E080931407D4
:102910008091E80083FF0AC08091E800877F809360
:10292000E8008091EB0080628093EB00AA96E3E0E0
:102930000C944C338058823058F780910E07909158
:102940000F078C3D23E09207A1F583E08A838AE29A
:1029500089834FB7F894DE01139620E03EE051E200
:10296000E32FF0E050935700E49120FF03C0E2957D
:10297000EF703F5FEF708E2F90E0EA30C0F0C796A7
:102980008D939D932F5F243159F74FBF8091E800BD
:10299000877F8093E8006AE270E0CE0101960E9492
:1029A000D1068091E8008B778093E800B1CFC09684
:1029B000E7CF4091100750911107292F332723307B
:1029C000310509F440C078F52130310509F48EC095
:1029D00082E290E0ECE4FAE02230310509F098CF91
:1029E0002091E800277F2093E80020911207309182
:1029F00013078217930708F49C0140E02115310565
:102A000009F079C0411177C08091E80082FDC9CFFB
:102A100080911407882329F2853019F28091E8000B
:102A200083FFF2CFBECF2132310509F457C02232E5
:102A3000310509F06DCF452B09F06ACF84E790E0AE
:102A4000E8EDF9E0CDCF20911207309113074091C6
:102A500005074F5F4093050730930A072093090746
:102A600022303105B1F4209106072F5F209306072D
:102A700099278130910551F10097E9F0029709F00B
:102A800047CFE0E8FAE0E4918E2F90E0E0E8FAE04A
:102A900019C02430310531F4209107072F5F2093AE
:102AA0000707E6CF2F3F310519F7209108072F5F61
:102AB00020930807DDCFE8EBFAE0E4918E2F90E059
:102AC000E8EBFAE0009709F08BCF22CFE0E9FAE0DB
:102AD000E4918E2F90E0E0E9FAE0F4CF452B09F085
:102AE00017CF89E090E0EEE5FAE07ACF82E190E05E
:102AF000EEE6FAE075CF80911407882309F451CFF0
:102B0000853009F44ECF8091E80083FD4ACF809153
:102B1000E80082FD79CF8091E80080FF6FCF90912F
:102B2000F3008091F2002115310519F088309105EC
:102B300050F041E0089709F040E08091E8008E777E
:102B40008093E8005BCF44914093F100319621508F
:102B500031090196E8CF803809F0DACE8091E8009B
:102B6000877F8093E80080910B078093F10079CEF6
:102B70008111CECE10910E07123008F0C9CE80918F
:102B8000E800877F8093E80010930B070E942506DA
:102B9000112311F084E005C08091E30087FDFACF96
:102BA00081E08093140742E261EC81E00E944406D8
:102BB00080911407ADCE80910E07813009F0A8CE28
:102BC00081E0933009F080E0809304071092E900DF
:102BD0008091E800877F8093E8000E94250698CEC8
:102BE0000E9418132FEF84E39CE021508040904016
:102BF000E1F700C0000087E797E790930108809312
:102C0000000888E19AE00FB6F894A89580936000D8
:102C10000FBE90936000FFCF0E9418132FEF84E344
:102C20009CE0215080409040E1F700C0000088E126
:102C30009AE00FB6F894A895809360000FBE909329
:102C40006000FFCFB0E0A0E0E8E2F6E10C942C33A6
:102C50007901C82F880FDD0B41155105A9F0FE0140
:102C600093E0EE0FFF1F9A95E1F7E55EFE4F81813D
:102C70009281835B9C4F208130E04217530708F418
:102C80009A01A9010E94FF33CE010E949732D82EEB
:102C90008823D1F001151105B9F083E0CC0FDD1FB9
:102CA0008A95E1F7FE01E55EFE4F438150E004178F
:102CB000150708F4A801C55EDE4F6C817D81635B5A
:102CC0007C4FC7010E94FF338D2DCDB7DEB7E7E003
:102CD0000C944833A4E0B0E0E0E7F6E10C942F3325
:102CE0006091AA037091AB038091AC039091AD0306
:102CF0000E94330711E0643671058105910538F1B2
:102D00000E940D10882341F10E944F076E5F7F4F94
:102D10008F4F9F4F69837A838B839C8310E000E001
:102D200030E020E044E050E0BE016F5F7F4F84E080
:102D30000E942216182F882351F00E944F0760939B
:102D4000AA037093AB038093AC039093AD03812FE0
:102D50002496E4E00C944B330E944F070091C90382
:102D60001091CA032091CB033091CC03600F711FE7
:102D7000821F931FCBCFA1E0B0E0E1ECF6E10C9411
:102D80002633762E4A015901680101E010E09E01C8
:102D90002F5F3F4F50E040E070E060E00E9422165D
:102DA000182F882399F1F4016081718182819381C8
:102DB0000E943307643671058105910538F4B70127
:102DC000C6010E94B5089981891701F18701950113
:102DD00050E040E070E060E0872D0E942216B82E9F
:102DE000B701C6010E94B50811E09981981310E05F
:102DF0001B2139F00E944F07F401608371838283A5
:102E00009383812F2196EDE00C944233A701B60104
:102E1000C5010E94FF33F5CFA5E0B0E0E2E1F7E1A4
:102E20000C942B336B0185E0E82EF12C0EE413E0BB
:102E30009E012F5F3F4F42EA53E061E080E00E9435
:102E4000BB16882349F095E0FE013196ADE9B3E069
:102E500001900D929A95E1F795E0EDE9F3E0D60146
:102E600001900D929A95E1F72596E8E00C9447338E
:102E70001F920F920FB60F9211242F933F934F93EF
:102E80005F936F937F938F939F93AF93BF93CF93F2
:102E9000DF93EF93FF93D091E900DF708091EC0016
:102EA000C82FC17080FDC0E81092E9008091F00049
:102EB000877F8093F00078940E942E131092E9008F
:102EC0008091F00088608093F000CD2BCF70C0938C
:102ED000E900FF91EF91DF91CF91BF91AF919F9169
:102EE0008F917F916F915F914F913F912F910F90B3
:102EF0000FBE0F901F9018951F920F920FB60F9252
:102F000011242F933F934F935F936F937F938F93EE
:102F10009F93AF93BF93EF93FF938091E10082FF64
:102F200009C08091E20082FF05C08091E1008B7FA3
:102F30008093E1008091DA0080FF24C08091D80066
:102F400080FF20C08091DA008E7F8093DA0080912C
:102F5000D90080FFA1C080E189BD82E189BD09B4AB
:102F600000FEFDCF81E0809314078091F706811168
:102F700009C00E94D5050E9476068091E200846017
:102F80008093E2008091E10080FF17C08091E20011
:102F900080FF13C08091E2008E7F8093E2008091D9
:102FA000E20080618093E2008091D800806280938B
:102FB000D80019BC85E0809314078091E10084FF5C
:102FC0002FC08091E20084FF2BC080E189BD82E1A7
:102FD00089BD89B5982F917080FFFBCF8091D80073
:102FE0008F7D8093D8008091E1008F7E8093E100F7
:102FF0008091E2008F7E8093E2008091E200816008
:103000008093E20080910B07882309F44BC084E091
:10301000809314070E9418130E94301080911407A7
:103020008091E10083FF27C08091E20083FF23C0ED
:103030008091E100877F8093E10082E08093140714
:1030400010920B078091E1008E7F8093E1008091C8
:10305000E2008E7F8093E2008091E20080618093A5
:10306000E20042E060E080E00E9444068091F000CF
:1030700088608093F000FF91EF91BF91AF919F9195
:103080008F917F916F915F914F913F912F910F9011
:103090000FBE0F901F90189519BC10921407109234
:1030A000F70670CF8091E30087FD93E090931407BB
:1030B000B1CF78941F921FB61F9211248F939F93C4
:1030C000AF93BF938091F3069091F406A091F5061B
:1030D000B091F6060196A11DB11D8093F306909361
:1030E000F406A093F506B093F606BF91AF919F91B9
:1030F0008F911F901FBE1F9018959C014FB7F89499
:103100008091F3069091F406A091F506B091F60631
:103110004FBF821B930B08952FB7F8948091F3064D
:103120009091F406A091F506B091F6062FBF089590
:103130008091830681110DC0109280060E948C1828
:1031400088579C4E909382068093810681E08093FD
:1031500083060895CF93DF93D82FC62F0E948C1833
:103160002091130330911403821B930BC29708F430
:103170007EC00E948C189093140380931303D11186
:1031800092C0609142047091430490E080E00E94FC
:103190007F0B8130B1F0833071F1D091BF03C11149
:1031A0006AC00E948C189093BE038093BD03D11116
:1031B00006C080EE0E94EB1081E08093BF038BE29B
:1031C00054C0D09180068D2F8272C1F08D2F0E9445
:1031D00087102FEF81EE94E0215080409040E1F77E
:1031E00000C000008EEBC11101C08DEB0E94561192
:1031F0008D2F0E949210C11106C020C0CC23D9F09F
:103200008AEA0E9456110E948C189093C103809301
:10321000C0038091C20381110CC083EE0E94EB10A9
:103220008BE20E94EB108BE20E949C1081E0809365
:10323000C20380E51AC089EA0E9456110E948C18C8
:103240009093C1038093C0038091C20381110CC08D
:1032500083EE0E94EB108BE20E94EB108BE20E9447
:103260009C1081E08093C2038FE40E94561180E09D
:10327000DF91CF9108950E948C189093BE038093A4
:10328000BD03D11106C080EE0E94EB1081E0809357
:10329000BF0381EE0E94EB108BE20E94561181EE7B
:1032A0000E949C10E4CFD13011F7609142047091DC
:1032B000430490E080E00E947F0B823069F083300D
:1032C00091F08130B9F486E598E0CC2311F087E5E0
:1032D00098E00E941F12CBCF8DE198E0CC23C9F378
:1032E0008DE19AE0F6CF80E590E0CC2391F38FE476
:1032F00090E0EFCF82E590E0CC2359F381E590E0B8
:10330000E8CFA1E0B0E0E7E8F9E10C942A33EE243D
:10331000E394F12C04E513E09E012F5F3F4F46EA52
:1033200053E063E082E00E94BB16C82E882339F187
:1033300000E080E01DC0D090AF03D00E2D2D30E016
:10334000A9014B505C4F7A01E1E0F0E0EC0FFD1F6A
:10335000E00FF11D1081FA019081191BB12E1B1491
:103360009CF0912F17FD90E0191B111118C00F5FF1
:103370009091AE030917F8F281110E94D40A8C2DA6
:103380002196E9E00C944633BA94F70180818F5F6F
:10339000808360E08D2D0E94AA188C2DE0CF1F5FE6
:1033A000F70180818150808361E08D2D0E94AA18F1
:1033B0008C2DDBCFCF93DF93EC010E948C18909380
:1033C000030480930204CE010E94C10B8093010488
:1033D000811105C010920F01DF91CF91089587E010
:1033E00080930F01F9CFCF93DF93EC010E94DA199C
:1033F000D0934304C0934204DF91CF9108950F937B
:103400001F93CF93DF93C1E0D0E002C0CC0FDD1F4C
:103410008A95E2F70091BB031091BC0380914204AE
:103420009091430498012C233D23232BC9F48C2B2A
:103430009D2B0E94F3190E944F076093B70370936E
:10344000B8038093B9039093BA03C027D127D093D0
:10345000BC03C093BB03DF91CF911F910F910895DF
:103460009E0120953095822393230E94F319EDCF7E
:10347000CF93DF93EC018432910548F4FC01E157CE
:10348000F94C0C94A73381EE92E0611107C0DF91F3
:10349000CF9108956623D9F389EC92E00E945F11E1
:1034A000F6CF84EB92E0662391F3F8CF662379F3AD
:1034B00088EA92E00E945F11C6E0D0E080E590E0EB
:1034C0000E941F122197D1F7E2CF662301F380EA11
:1034D00092E00E945F1180E590E00E941F1280E55B
:1034E00090E00E941F1280E590E00E941F1280E58C
:1034F00090E00E941F12CBCF662349F280E992E050
:103500000E945F11C8E0D0E080E590E00E941F12A9
:103510002197D1F7BCCF662309F4B9CF80E892E0B8
:103520000E945F11C8E0D0E080E590E00E941F1289
:103530002197D1F7ACCF662309F4A9CF88E692E0B2
:103540000E945F11C7E0D0E080E590E00E941F126A
:103550002197D1F79CCF662309F499CF8AE592E0B1
:103560000E945F1180E590E00E941F122197D1F721
:103570008ECF662309F48BCF8CE492E00E945F111A
:10358000C7E0D0E080E590E00E941F122197D1F7BC
:103590007ECF662309F47BCF8AE392E00E945F111D
:1035A00080E590E00E941F122197D1F770CF66232B
:1035B00009F46DCF86E092E00E945F118AE490E00A
:1035C0000E941F128FE490E00E941F122197D1F7F2
:1035D0005ECF662309F45BCF8CE991E00E945F1116
:1035E0008AE490E00E941F128FE490E00E941F1274
:1035F0002197D1F74CCF662309F449CF80E991E0B8
:103600000E945F1189E290E00E941F12C9E0D0E0A1
:1036100080E590E00E941F122197D1F787E098E0A3
:103620000E941F1287E098E00E941F128AE290E039
:1036300060CF662309F42BCF83EE0E94EB108DE15F
:103640000E94EB1083EE0E949C108DE10E949C1062
:103650001ECF662309F41BCF83EE0E94EB1081EE90
:103660000E94EB108DE10E94EB1083EE0E949C10F3
:1036700081EEE9CF662309F40ACF83EE0E94EB10B6
:103680008BE10E94EB1083EE0E949C108BE1DECF59
:10369000662309F4FCCE83EE0E94EB1086E00E94C4
:1036A000EB1083EE0E949C1086E0D0CF662309F4D5
:1036B000EECE83EE0E94EB1089E10E94EB1083EEC8
:1036C0000E949C1089E1C2CF662309F4E0CE82EE0D
:1036D0000E94EB1081EE0E94EB1083EE0E94EB1033
:1036E0008CE20E94EB1083EE0E949C1081EE0E94FF
:1036F0009C1083EE0E949C108CE2A8CF662309F4F4
:10370000C6CE81EE0E94EB1083EE0E94EB1089E1A1
:103710000E94EB1081EE0E949C1083EE0E949C1090
:1037200089E10E949C1089E193E0E3CE662309F4CD
:10373000AECE83EE0E94EB1084E00E94EB1083EE8D
:103740000E949C1084E082CF88E392E0662309F413
:103750009ECECFCE8EE192E0662309F498CEC9CEFC
:1037600084E392E0662309F492CEC3CE8DE292E028
:10377000662309F48CCEBDCE86E590E0662309F47D
:1037800086CEB7CE8EE290E0662309F480CEB1CE2D
:103790008FE192E0662309F47ACEABCE662309F47A
:1037A00076CEC0918006109280068C2F827239F0FE
:1037B0008EE891E00E945F11C093800668CE8CE88D
:1037C00091E0F8CF662309F462CE80914204909193
:1037D000430422E082270E94F31959CE86EA90E042
:1037E000662309F454CE85CE662309F450CE0E9498
:1037F000F01583E590E0662309F449CE7ACE66237E
:1038000009F445CE85E490E074CE0E9498183FCE2E
:10381000B0E0A0E0EEE0FCE10C942533C0910E0393
:10382000D0911301CD13DEC0609115037091160382
:1038300080911703909118030E9433074B015C019C
:10384000609108037091090380910A0390910B0322
:103850000E94330720910001309101018901330F4B
:10386000220B330B061717072807390708F048C043
:103870000E944F07609308037093090380930A0323
:1038800090930B030E947E0E68EC70E00E940D3353
:103890008A569F4F90930101809300010E947E0EF3
:1038A00064E670E00E947433EC01B401092C000C52
:1038B000880B990B0E94663520E030E04AE755E41A
:1038C0000E944A3429E838E848E85CE30E9416364A
:1038D00020E030E0A9010E944B340E942E3577276A
:1038E000C617D7072CF0109207030E94F00E0EC0E7
:1038F0000E947E0E62E070E00E94743380930703A2
:1039000080910703882389F3813029F0CDB7DEB792
:10391000EEE00C94413380910503909106030E94E0
:103920007D18CD9798F30E948C189093060380938E
:1039300005030E94F00E24E0D22E36E0832E912C57
:1039400044E1A42EB12CC3E1D0E054E6652E712CE5
:103950000E947E0EB4010E94743314E0180F0E947E
:103960007E0E7C010E947E0EFC01C701B5010E9403
:10397000743335E5380FCF01BE010E94743394E0F3
:10398000C92EEE24EA940FEF212F412F632F8D5F74
:103990000E94240C0E947E0EB4010E947433182FE2
:1039A0000E947E0EB3010E94743304E6080F0E9449
:1039B0007E0E7C010E947E0E9C01C701B5010E9413
:1039C0007433E4E6E80FC901BE010E947433E02EAF
:1039D000212F412F6E2F8D5F0E94240CDA94D1107D
:1039E000B7CF94CF80910C0390910D030E947D1866
:1039F0000C2F10E0F801E359FD4F2081281719061C
:103A000008F084CF0E948C1890930D0380930C03D0
:103A10000E94F00ECA3048F4F801ED54F94C0C94B1
:103A2000A73361E188E60E945D0ECD1708F07FC0E4
:103A3000CF5FC0930E036ACF6CE0F4CF65E0F2CFA6
:103A400063E0F0CF62E088E60E945D0E43E068E646
:103A500070E08FE090E00E94EC0DE7CF21E049E1BB
:103A600068E683E00E943C0E42E0F1CF21E042E0B4
:103A700069E68FE00E943C0E21E042E067E68FE0BD
:103A80000E943C0E21E049E168E683E00E943C0E82
:103A9000CCCF21E042E069E68FE00E943C0E21E0BD
:103AA00042E067E68FE00E943C0E21E042E168E6DA
:103AB00087E00E943C0E41E068E684E00E943E08F8
:103AC00041E068E68BE10E943E08AFCF21E042E092
:103AD00069E68FE00E943C0E21E042E067E68FE05D
:103AE0000E943C0E21E044E068E68DE00E943C0E1E
:103AF00021E042E068E688E00E943C0E21E043E0DD
:103B000068E685E10E943C0E41E068E686E00E949E
:103B10003E0841E068E68BE10E943E0841E068E62D
:103B20008DE1D1CF21E042E068E68FE0AFCFC15018
:103B300080CF0E948C1890930D0380930C0389E032
:103B400080930E031092130108958F929F92AF926B
:103B5000BF92CF92DF92EF92FF92809106049091F4
:103B60000704009709F43FC00E947D18C090080424
:103B7000D09009049C0150E040E060E67AEE80E0DD
:103B800090E00E948833CA01B90125E030E040E0AE
:103B900050E00E9488330D2C000CEE08FF08CA018B
:103BA000B9016C197D098E099F090E94663527EAC3
:103BB00039E747E45DE30E9416364B015C01C7011B
:103BC000B6010E9466359B01AC01C501B4010E949B
:103BD0004B340E942E35673971050CF04AC0709342
:103BE0000904609308040E948C1890930704809342
:103BF000060480910404909105040E947D18853F7D
:103C000021E09207E8F188E290E090930B04809322
:103C10000A040E948C1890930504809304040E9467
:103C20009A0E8130E9F50E94991D0E949A0E9FEF2D
:103C3000980F923008F03FC00E944F07609319031D
:103C400070931A0380931B0390931C030E944F07E9
:103C500060931503709316038093170390931803D2
:103C6000FF90EF90DF90CF90BF90AF909F908F909C
:103C7000089586E990E09093090480930804B3CFF7
:103C800044E6489F9001499F300D1124C90164EF1B
:103C900071E00E940D3384E690E0861B970BB5CF50
:103CA0009CEF980F923018F40E940313BCCF82301F
:103CB00009F0BBCFF9CF8450823008F4BDCFC6CF16
:103CC000FB01808191810E94A51D0895B0E0A0E0D4
:103CD000ECE6FEE10C942A338C01FC018381948193
:103CE000892B31F08081918189238F3F09F0BBC4FA
:103CF000CDB7DEB7E9E00C944633C032F2E5DF071A
:103D0000F8F0C03422E5D20728F0CE01805C92455D
:103D10008097B0F481E090E00C2E02C0880F991FCC
:103D20000A94E2F72091BB033091BC0382239323D2
:103D3000892B31F0F80182818823D1F28C2FC3C402
:103D4000CE018B7F813E910509F464C0C730FEE748
:103D5000DF0709F043C0F8018281882309F43EC0DF
:103D6000C09180068C2F8272B9F482EE0E94EB1013
:103D700080911D03811106C08FE40E94561180E5D9
:103D80000E94561181EE0E94EB108FE40E94EB100E
:103D900082E080931D03ACCF80911D03811119C077
:103DA0001092800684E091E00E94091284E091E084
:103DB0000E94D7108DE492E00E941F128AE40E94B4
:103DC00056118DE492E00E941F12C093800683E09A
:103DD000E0CF81E50E94EB1084E0DBCF80911D03F2
:103DE000823061F028F48130D9F110921D0312C0A5
:103DF000833069F08430C9F781E507C08FE40E9401
:103E00009C1081EE0E949C1082EE0E949C1081E02A
:103E100080931D03F801C280CC2009F46DC0B090DE
:103E200080068B2D8D7D29F1D0936D04C0936C0499
:103E300081E080936E04CE010E94A51DC337FCE78C
:103E4000DF0709F05EC0F8018281882309F450CFB2
:103E500080918306882309F485C10E94761048CF9B
:103E6000C932D10511F68FE40E94561110921D033C
:103E70003FCF6091C5037091C6038091C7039091B5
:103E8000C8030E9433077E016E357140810591059C
:103E9000E0F4FF248091C3039091C4038331910522
:103EA00009F402C108F0A9C08730910509F443C1A3
:103EB00008F07AC08530910509F418C108F0EBC00C
:103EC000892B09F4D4C0B0928006B0921E03F09200
:103ED000C403E092C3030E944F076093C50370932D
:103EE000C6038093C7039093C803CC2009F400CF86
:103EF000F8018281811198CFC337FCE7DF0709F40D
:103F0000F7CEF090800680918306811131C1F2E2F4
:103F1000FF1202C00E949818F8018281882331F1B3
:103F2000C13ED10529F0C23AF2E5DF0709F01DC113
:103F300080912103882371F0F8018381948120917D
:103F40001F0330912003821B930B8F3F9F4710F07C
:103F50000E94981881E080932103F8018381948165
:103F600088539F4F9093200380931F03F801928101
:103F7000992309F40DC29E0130572332310508F010
:103F8000A5C384E090E00E9410349093B103809325
:103F9000B003FE01E150F047E232F10508F03BC109
:103FA000E354F94C0C94A7338930910509F485C08A
:103FB00008F48AC08D30910509F464C00F9709F0A8
:103FC00082CF809183069DE0E916F10409F051C08B
:103FD000AEE0DA2EC0908306CC2009F4B6C082E0B1
:103FE0000E94D70A80E00E94561182E00E94D70A00
:103FF0008D2D0E945611C12C68CF8E32910509F487
:104000007FC0A0F48831910509F48BC08A319105F5
:1040100009F463C0469709F056CF80918306F9E111
:10402000EF16F10431F5E6E0DE2ED4CF85359105AB
:1040300009F470C060F48435910509F044CF809193
:10404000830697E2E916F10409F461C012C08635CF
:10405000910509F45FC08735910509F034CF80914F
:10406000830627E2E216F10409F451C002C08091F0
:104070008306882319F082E00E94D70A80E00E941C
:10408000561121CF80918306EFE0EE16F10489F7F7
:10409000F8E1DF2E9FCF809183062BE1E216F10439
:1040A00041F766E1D62E96CF8091830699E0E91616
:1040B000F104F9F677E1D72E8DCF80918306EAE1FE
:1040C000EE16F10471F3D5CF80918306F8E3EF1675
:1040D000F10479F656E3D52E7DCF8091830623E156
:1040E000E216F10431F645E1D42E74CF80918306B7
:1040F0009AE1E916F10409F0BCCF37E0D32E6ACF7C
:1041000080918306F7E2EF16F10409F0B2CF2CE2BA
:10411000D22E60CF80918306E7E2EE16F104B9F368
:10412000A8CF80918306FCE1EF16F10409F0A1CF3E
:1041300098E0D92E4FCF809183062BE1E216F1044F
:1041400009F097CF8AE0D82E45CF80911E03809347
:10415000800680E00E945611109280068D2D0E94EC
:104160005611B3CE0E949818C3CD10922103FECEF3
:104170000E948C1888579C4E9093820680938106EB
:10418000F8018281882309F4F1CE8F2D8D79B1F564
:10419000C03AF2E5DF07F8F4C03622E5D20708F0AE
:1041A000E5CEC63ED10509F4E1CE30F0CE01925500
:1041B0008034910508F4DACE10928606C832D10513
:1041C000B0F4CE31D10520F5C430D105B8F082E08D
:1041D0000E94D70A1DC0C43B82E5D80709F4C6CEA9
:1041E00058F3CE01805C9245809730F7BFCECD3238
:1041F000D10569F330F4CA32D10551F00E9476102E
:10420000B5CECC34D10521F0CD32E2E0DE07B1F7F6
:104210000E944110ABCE8091B00381608093B003C7
:1042200095C08091B10388608093B1038FC0809165
:10423000B0038260F3CF8091B0038460EFCF8091B0
:10424000B0038860EBCF8091B1038160EDCF8091A6
:10425000B1038260E9CF8091B0038061DFCF8091AC
:10426000B0038062DBCF8091B0038064D7CF0E941F
:1042700018138091B0038068D1CF8091B0038C6017
:10428000CDCF8091B1038360CFCF8091B0038E7F7B
:10429000C5CF8091B103877FC7CF8091B0038D7F59
:1042A000BDCF8091B0038B7FB9CF8091B003877F62
:1042B000B5CF8091B1038E7FB7CF8091B1038D7F51
:1042C000B3CF8091B0038F7EA9CF8091B0038F7D53
:1042D000A5CF8091B0038F7BA1CF0E94181380914E
:1042E000B0038F779BCF8091B003837F97CF80916E
:1042F000B1038C7F99CF8091B00382FB992790F90D
:1043000021E0922790FB82F990FB83F987CF80917F
:10431000B103982F909591708E7F892B90FB81F936
:1043200083CF9091B003892F8F7B96FF806476CFE7
:104330000E9418139091B003892F97FB87F980583A
:104340006DCF61E08EE090E00E9416346091B00382
:104350007091B10384E090E00E9434340E941813FD
:10436000C7CC60E0EFCF9091B003892F8F7E94FF90
:10437000806154CF9091B003892F8E7F90FF816030
:104380004DCF9091B103892F877F93FF88604CCFE9
:10439000C631DC4751F58091220381110FC089E2BB
:1043A000EFEFF2E025E033E09191891303C0DF01E4
:1043B00011971C922E173F07B9F79CC185E3F0CFE8
:1043C000C1302CE7D20779F0C3308CE7D80729F049
:1043D000C115DC4751F40E94F0156FEF7FEF90E0BC
:1043E00080E00E9434340E940C16F8012581368149
:1043F00021153105E1F0C9010E942D09D82FF82EB1
:10440000292FF8013281C92FC295CF70C43009F429
:104410007BC018F5C230F0F1C850DD0B229710F4C4
:104420000E94301060E0C8010E94E50B61CCC081A1
:10443000D181992369F0CE010E94DD0AF82E682F00
:10444000CE010E94440BBE018F2D0E941009D4CFD3
:10445000CE010E94110BF82EF6CFC83009F46FC0C0
:10446000C930D1F62F7081E090E07C0102C0EE0CE3
:10447000FF1C2A95E2F7332309F4E9C08091420436
:10448000909143048E299F290E94F3198D2F0E9439
:104490009210C2CFD92FDF70207F11F0D295D07F3C
:1044A0003323B9F0DD2369F080E28F0D883010F0FE
:1044B000F1100BC080918006D82BD09380060E940B
:1044C00041108F2D0E94EB10A7CF8D2F0E94D70A8D
:1044D000F6CF8F2D0E949C10DD2309F49DCFD0953F
:1044E00080E28F0D883010F0F11008C080918006B6
:1044F000D823D09380060E9441108ECF80918606EB
:10450000D823D0938606F7CF96959695937069F049
:10451000913009F081CF8D2F922F9370311102C00D
:1045200080E090E00E94750777CF8D2F922F9370D7
:10453000311102C080E090E00E949A076DCF892F70
:10454000837009F03FC0311167CF3D2F329536950A
:104550003770330F330F4D2F4F7050E0032E02C0D2
:10456000440F551F0A94E2F790E080E0D4FF09C0A1
:104570008FE090E002C0880F991F3A95E2F780958E
:104580009095269526952370223099F078F46091C5
:10459000440470914504213039F0842B952B8623F7
:1045A00097230E947A0B38CF462B572B842B952BC1
:1045B000F8CF842B952B2091440430914504822719
:1045C0009327EFCF8695332311F0892F81708823AD
:1045D00009F422CF3F2D329536953770330F330FC4
:1045E0004F2D4F7050E0032E02C0440F551F0A9408
:1045F000E2F790E080E0F4FE09C08FE090E002C0B6
:10460000880F991F3A95E2F7809590952695269503
:104610002370223099F078F4609142047091430441
:10462000213039F0842B952B862397230E94F31990
:10463000F3CE462B572B842B952BF8CF842B952B21
:10464000209142043091430482279327EFCF8D2F8E
:104650000E948710E094F09480914204909143046A
:104660008E219F21E3CF61E0C8010E94E50BEC01A0
:104670000E944F076093B7037093B8038093B90308
:104680009093BA0380914204909143042091BB031C
:104690003091BC03AC014095509542235323452BE8
:1046A00031F0282339233093BC032093BB03CD3052
:1046B000FEE7DF0709F021CBF8012281222309F46C
:1046C00017CB0E94C10B0E94FF1912CBC6312CE7F9
:1046D000D20709F075CE809180068A7A91E009F4BC
:1046E00090E09093220369E2811165E38CEF92E000
:1046F0000E945B070E944110FBCA0F931F93CF9348
:10470000DF9380918806E09187061BE081111AC033
:10471000DF91CF911F910F91089501E00E0F00934B
:104720008706CE2FD0E0E19FF0011124E757F94F23
:1047300083819481892B29F08081918189238F3F06
:10474000F9F4E02F80918806E81738F31092880674
:1047500010928706DDCF17968D919C918F3F980719
:10476000E1F061E00E94381A1C9FF0011D9FF00DDE
:104770001124E757F94F1482138210928606E1CF75
:104780001C9FD0011D9FB00D1124A757B94F15963E
:104790008D919C911697892BF1F2CF010E94661E94
:1047A000E3CF1092EC061092EB0610926702809114
:1047B000EA068093E9060E94ED070E947D23089592
:1047C000B0E0A0E0E6EEF3E20C942133C091E906FC
:1047D000E7E0FE2E01E010E0FBE02F2EAEEFEA2E28
:1047E0008091EA068C1309C00E947D230E94ED0788
:1047F000CDB7DEB7E2E10C943D33D0E0FE01EE0F21
:10480000FF1FEF51F94F80819181F89EF001F99ED1
:10481000F00D1124E559FE4F2481211159C030902B
:104820008806A9E8B6E030E020E0412C5F012315BE
:1048300008F04CC019966D907C901A97F501808015
:1048400091804FEF5FEF512CC52CD12CF601EE0F6C
:10485000FF1FE80DF91D659174916616770609F43E
:10486000A601672B11F05394EFCF4F3F5407B9F1D6
:10487000B80102C0660F771F4A95E2F7462AA801E1
:10488000052C02C0440F551F0A94E2F7415051090C
:104890004416150601F5229EF001239EF00D112409
:1048A000E757F94FF89ED001F99EB00D1124A55994
:1048B000BE4F12962D913C91139736832583E0824B
:1048C000E1829087878371E015967C930E94BF07F1
:1048D0002196C37085CF14961C921E9213972F5F5A
:1048E0003F4F1B96A4CFA7E1B0E0E9E7F4E20C94B8
:1048F00021334F87588B698B7A8B8B8B6111109288
:1049000086061C861D861E8685E0FE013F96DE011A
:10491000189601900D928A95E1F78B859C85892BDD
:1049200031F08885998589238F3F09F0BCC1CE017C
:1049300008960E94661EC7C081352CE7920731F4A5
:104940008A85882371F00E94D123F1CF82359C475C
:1049500041F48A85882329F0809167028111F3CF81
:10496000B0C16885798580E00E9410095C010BE682
:1049700011E0612CF12CE12CCC24C394D12C9EEFBE
:10498000592E44244394F8016081718188248A94CB
:10499000982C20E0422F50E0FA01EE0FFF1FE60FA7
:1049A000F71F85919491A816B90609F44A01892B3D
:1049B00011F02F5FEFCF712CFFEF8F169F0609F4D8
:1049C00044C0F801448170906702872D411180E056
:1049D000F82FF1707F2EF801258086819A85992322
:1049E00009F4F2C0772009F4EFC0211014C0A60129
:1049F000082C01C0440F0A94EAF7842B8683809127
:104A0000840690918506889730F448E250E05093F0
:104A1000850640938406C60102C0880F991F2A9517
:104A2000E2F70197F80126812817190671F48091A1
:104A3000EB069091EC06009709F449C00E947D189E
:104A4000899708F444C0F80144826728FFEFEF1A01
:104A5000FF0A095F1F4F24E2E216F10409F093CF29
:104A60008A85882309F40AC1662009F407C10E94D7
:104A70008C189093EC068093EB0680918806883022
:104A800010F591E0980F9093880697E0FE01389614
:104A9000DE01119601900D929A95E1F73BE0839F1C
:104AA000C00111248757994F27E0FE013196DC01A0
:104AB00001900D922A95E1F72FEF3FEFFC0130872F
:104AC0002783B286A1866796E2E10C943D338091FC
:104AD000E9068090EA06982FF0E0E0E0881114C023
:104AE0009093E9060E171F0709F4AFCF90E0FC0181
:104AF000EE0FFF1FEF51F94FF182E08201968370B4
:104B000099278093EA06A1CF282E312CF101EE0FD0
:104B1000FF1FEF51F94F20813181F7E0F29FD00163
:104B2000F39FB00D1124A559BE4F2D913C911197C3
:104B30003F8B2E8B912C60E070E0E72FF0E0EE0FC2
:104B4000FF1F2E893F89E20FF31F25913491211514
:104B50003105E1F0F8010190F081E02DFD8BEC8B47
:104B600060E005C02417350709F4972C6F5FE62F26
:104B7000F0E0EE0FFF1F4C895D89E40FF51F4591B2
:104B800054914115510571F77F5FD7CF9920C9F036
:104B9000F801671708F0FD0144820E171F0721F482
:104BA0009093E906792C51CF891305C0AE17BF0742
:104BB00011F49F5F937091012F5F3F4F822F83709D
:104BC0008DCFF0E0E0E0F7CF90E0211020C0B601FB
:104BD00002C0660F771F2A95E2F79B012150310929
:104BE0002817390731F4442309F446C0C7010E944D
:104BF000BF07C601082C01C0880F0A94EAF7982F56
:104C00009095F801868189238683722C1ECF9C01A2
:104C1000082C02C0359527950A94E2F7A901417046
:104C20005527BC016150710986239723892B01F513
:104C3000452BF1F0F80182819381892BA1F05982F3
:104C40005A821B820E948C1881609D838C83F8019C
:104C5000828193819F838E83CE0101960E94661E7E
:104C6000F8011582C6CF60E0C7010E94381AF8CF5C
:104C7000F22FF1702F2EBDCF272CBBCF9091E906DC
:104C80008091EA06981731F00E94E023662009F42B
:104C90004ECE19CF0E947D231092EC061092EB06A7
:104CA0000E94ED07F3CF61E0CE0108960E94E50B6C
:104CB0008035FCE79F0709F03FCE8A85882309F4F9
:104CC00050CE81E08093670232CE1F921FB61F92B2
:104CD00011248F939F93AF93BF938091F30690918C
:104CE000F406A091F506B091F6064196A11DB11DFE
:104CF0008093F3069093F406A093F506B093F6061E
:104D0000BF91AF919F918F911F901FBE1F901895DB
:104D1000CDB7DEB7A5970FB6F894DEBF0FBECDBFF7
:104D200085B7806885BF85B7806885BF84B7877F72
:104D300084BF0FB6F894A895809160008861809335
:104D40006000109260000FBE80E890E00FB6F8940B
:104D500080936100909361000FBE8BEC98E090937C
:104D6000FB028093FA020E94D5050E94760680918C
:104D7000E20084608093E200789480911407882395
:104D8000A1F01091E9001F709091EC00892F8170C3
:104D900090FD80E8182B1092E9008091E80083FDD7
:104DA0000E942E131F701093E90082E084BD93E0EF
:104DB00095BD9AEF97BD80936E001092C903109233
:104DC000CA031092CB031092CC030E940D10809363
:104DD00002010E940D1081110E94AB3190910201DD
:104DE00081E098279093F903782E791A7092AF0397
:104DF000909102018093FA03909102018093AE0397
:104E000080910201811106C084EF80930E0185EF2D
:104E100080930D0182E080930C0180910E01E82FB8
:104E2000E295EF70F0E061A18F7021E030E0A90120
:104E300001C0440F8A95EAF7942F9095962391A389
:104E400082A1842B82A390910D01E92FE295EF704E
:104E5000F0E041A19F70B90102C0660F771F9A95DB
:104E6000E2F7CB01962F9095942391A392A1892BE1
:104E700082A38FE891E00197F1F700C00000109144
:104E8000FA036BEF73E04EE051E08DE0E82E81E035
:104E9000F82EFB0128C0DA012D91AD01822F8295F9
:104EA0008F7090E0DC0190968C9190E02F7002C0A2
:104EB000959587952A95E2F78170D7019D917D019F
:104EC000292F22952F7030E0D90190962C9130E057
:104ED0009F7002C0359527959A95E2F790E020FDE6
:104EE00092E0892B81938E2F861B8117A0F28091EF
:104EF00002018091020195E0811190E09093D3032B
:104F000085E0891B8093D20302EC12E0F8018191C5
:104F10008F018F3F11F00E94F908F2E0073C1F0754
:104F2000A9F74DECE42E42E0F42E07EC12E0D80194
:104F30008D918D018F3F11F00E94F908E016F10666
:104F4000B1F78AE0E0EEF3E0DF01782E1D927A946B
:104F5000E9F7E4EDF3E0DF011D928A95E9F790E0CF
:104F600080E00E941034873E9E4F09F45EC067EED9
:104F70007EEF90E080E00E94343460E082E090E0D8
:104F80000E94163460E083E090E00E941634109294
:104F900045041092440460E074E184E090E00E94D3
:104FA000343460E086E090E00E9416346FEF87E0D2
:104FB00090E00E94163440E050E0BA0188E090E0B2
:104FC0000E94283460E08DE090E00E94163440E0BA
:104FD00050E0BA0188E190E00E94283460E087E167
:104FE00090E00E94163440E050E0BA018CE190E07D
:104FF0000E94283470E060E080E290E00E94343447
:1050000040E050E0BA0188E190E00E94283440E09E
:1050100050E0BA018FE090E00E94283440E050E078
:10502000BA0183E190E00E94283482E090E00E947F
:1050300008348093EA0384E090E00E941034909357
:10504000B1038093B00383E090E00E94083490E0C5
:105050000E947A0B80914204909143040E94DA19D5
:105060000E940D1083E08093660480E280937504B3
:105070000E9465306DE070E087EE94E00E94100FB2
:10508000892B59F58091660463E070E081FDE7C0EB
:1050900084EE94E00E94100F892BF9F46DE070E02B
:1050A00084ED94E00E94100F892BB9F40E944F0701
:1050B000605A75418F4F9F4F60937A0670937B06BD
:1050C00080937C0690937D060E94031381E0809379
:1050D0007F0680937E06109267040E940D10811156
:1050E00002C00E94AE3180E69EE190936A018093F7
:1050F000690180E190E0909365018093640180E311
:1051000090E0909368018093670183E091E0909331
:10511000F0068093EF06FE013196FC8FEB8F9E0127
:10512000205F3F4F19018AE0AB8DBC8D1D928A959F
:10513000E9F7FE0131967F0102EC12E0D8018D9172
:105140008D018F3F09F443C0F894E82FE295EF708A
:10515000F0E021A18F70CC24C394D12C02C0CC0CE0
:10516000DD1C8A95E2F7C601922F982B91A392A19C
:105170008095892382A3789400C0E7ECF2E0D12CDB
:1051800031E021912F3F09F46DC0A22FA295AF709D
:10519000B0E090968C9190E02F7002C09595879525
:1051A0002A95E2F780FD5EC0832FD82A330F22E0D4
:1051B000ED3CF20731F7F801319780818F3F11F014
:1051C0000E94F90830EA3A95F1F7D701DC92BFEF77
:1051D000EB1AFB0AE2E0073C1E0709F0AFCF4AE0FA
:1051E00050E0BE016F5F7F4F84ED93E00E94F23389
:1051F000009749F02AE0FE013196A4EDB3E001905A
:105200000D922A95E1F70091D303892B69F181E092
:105210008093B4030E948C189093B3038093B203DD
:105220008091B2039091B3030E947D18059700F11D
:1052300010E000521C4F45E050E064ED73E0C801FF
:105240000E94F233892B41F085E0E4EDF3E0D801D0
:1052500001900D928A95E1F71092B40309C081EE96
:1052600094E018CF80E0A1CF8091B4038111D8CF12
:105270000E940D10E091D303882309F42AC185E030
:10528000D1011D928A95E9F70E2F10E000521C4FB4
:1052900080916B048A3008F0E9C04CE057E1B1011D
:1052A000C8010E94DA0F882309F402C141E859E1DC
:1052B000B101C8010E94DA0F882309F4F9C04AE657
:1052C00056E1B101C8010E94DA0F882309F4F0C049
:1052D00010926B048091D20390E045E050E0B10160
:1052E00080529C4F0E94F23321E02093D103892BFE
:1052F00009F0D2C00091BB031091BC030115110548
:1053000039F16091B7037091B8038091B90390911E
:10531000BA030E943307613C744D81409105C0F08F
:10532000009510958091420490914304802391232D
:105330000E94F3191092BC031092BB030E944F0706
:105340006093B7037093B8038093B9039093BA0343
:105350006091C5037091C6038091C7039091C80303
:105360000E9433076E3571408105910570F00E94EF
:105370004F076093C5037093C6038093C703909350
:10538000C8031092C4031092C3038091C203882300
:1053900071F08091C0039091C1030E947D18813209
:1053A000934028F083EE0E949C101092C2038091DB
:1053B000BF03882371F08091BD039091BE030E94CA
:1053C0007D188132934028F080EE0E949C1010924C
:1053D000BF030BEE13E090EEE92E93E0F92E25EFDC
:1053E00033E0D701F80191918D912E173F0709F411
:1053F000C8C09817C1F30E940D10882ED12CD70178
:10540000CD907D01F80191908F019C1429F19C248D
:10541000B12CAA24A394892D8A21B1F08820A1F06F
:10542000BD8ADE8A91E08A2D8C2109F490E09F8B61
:105430000E948C188160782F998F888F4D895E89A2
:105440006F89898D0E947324B394AA0CF6E0BF1271
:10545000E2CFF8013197C082D3948AE0782ED7103A
:10546000CECF0E944F0721E02E8FACC08091B503B4
:105470009091B6030E947D18843F914008F00DCFB3
:105480008091D103882309F435CF85E0F101119291
:105490008A95E9F71092D103A091D203B0E0A0520F
:1054A000BC4F85E0F10101900D928A95E1F722CF82
:1054B00080916B048F3F31F08F5F80936B048A3053
:1054C00008F408CF0E948C189093B6038093B5031C
:1054D000D7CFF0E0E052FC4F85E0AEE4B3E00190BE
:1054E0000D928A95E1F765E070E08EE493E00E940A
:1054F000B50880934D034091FA0350E06091F903A1
:1055000070E06B507C4FC1010E94FF33888980930B
:10551000540361E070E0C1010E94B5088093530319
:10552000C0905503D0905603E0905703F090580375
:105530008091CD039091CE03A091CF03B091D00381
:10554000C816D906EA06FB0609F443CFC092CD037C
:10555000D092CE03E092CF03F092D0030E940D10C0
:10556000811137CF0E944F07C61AD70AE80AF90AF5
:10557000C092C903D092CA03E092CB03F092CC034D
:1055800028CF981338CF0E948C188C018091DE03AD
:105590009091DF0308171907A1F08FEF8B878C8795
:1055A0001D860E948C188160782F9F878E874B857F
:1055B0005C856D858F850E9473241093DF030093B3
:1055C000DE031E8E0E940D108823A1F180916702D8
:1055D0008823F9F08091EB069091EC060097C9F0D2
:1055E0000E947D182091840630918506281739077E
:1055F00080F49091E9068091EA069817F1F00E94F4
:10560000E02310928506109284061092EC06109208
:10561000EB0680918306882369F00E948C18209104
:10562000810630918206821B930B8F3F9F4710F4B7
:105630000E947610B12C1D8E94C00E947D23109282
:10564000EC061092EB060E94ED07E3CF0B2D10E065
:10565000F801E25FFE4F8081E82FE295EF70F0E005
:10566000E0A1F0E08F7002C0F595E7958A95E2F72A
:10567000E170D801A35FBE4F2C91A22FA295AF700D
:10568000B0E090968C9190E02F7002C09595879530
:105690002A95E2F780FD16C180E08E2BD801A55037
:1056A000BC4FEC919E2F9370891709F459C0EE0FEF
:1056B000EE0FE82BEC93D801A55FBE4FEC90C090A5
:1056C000F903CB0CEF70F0E0E153FD4F09501C4F94
:1056D0008081D8019C91890F8C93F12C082E000CAD
:1056E000990BD12C8E159F058CF0EC2DF0E0EB5032
:1056F000FC4F80818F5F80830E940D10D82E8823FD
:1057000009F4E2C060E08C2D0E94AA18F8018081A3
:10571000082E000C990B222733272E193F09281732
:1057200039078CF0EC2DF0E0EB50FC4F808181507C
:1057300080830E940D10D82E882309F4C8C061E030
:105740008C2D0E94AA18D8018C91082E000C990B60
:10575000B7010E947433F80180837D8C7D287D8E93
:10576000B3948091FA03B81608F470CFDD8CD11091
:105770000E94D40A80917F068823D1F18091680429
:10578000909169040E947D18C29790F00E948C1835
:10579000909369048093680460E080E00E949E0812
:1057A0000E949A0E182F823009F094C00E943A0F7E
:1057B0008091760490917704892B09F0ACC3809195
:1057C0007E068823A9F00E944F0700917A06109167
:1057D0007B0620917C0630917D06601B710B820B4D
:1057E000930B6F3F7F4F8F4F9F4710F40E943A0FEC
:1057F0007E8C711002C0DD8CD1100E94550F0E946A
:10580000301090916A04891721F080936A040E94F5
:105810004F070E940D10882309F485CC80916E04F7
:10582000882309F480CC89E08A8F90916B049A30A8
:1058300008F079CC1A8219828A8312E01B831C82B9
:1058400063E070E0CE0102960E94B5088983109350
:105850004B0110925E0110E000E030E020E044E0F7
:1058600050E0BE016F5F7F4F85E00E9422168823C3
:1058700009F459CC30E020E042E050E06CE674E0FE
:1058800086E00E942216882309F44DCC30E020E007
:1058900041E050E0BE01665E7F4F87E00E94221625
:1058A000882309F440CC30E020E050E040E070E094
:1058B00060E088E00E942216882309F434CC10921C
:1058C0006E0431CC82E0E9CEDD24D3941FCFDD24F9
:1058D000D39439CF0E94550F153009F047C18091FC
:1058E000FD039091FE030E947D18C89708F460CFD5
:1058F0000E948C189093FE038093FD03F12CE12C01
:1059000003E010E067012FE1C20ED11C0032110547
:1059100040F445E56DEF7FEFC8018E0D9F1D0E949D
:10592000190D4AEA63E070E0C601801B910B0E94EA
:10593000190D0F5F1F4F0332110541F730E2E30EDF
:10594000F11CE11442E0F406D9F656E05F8F0E94A4
:105950007E0E8C010E947E0E7C01C8016CE170E01D
:105960000E947433B4E0BB2EB80E0E947E0E6C0110
:105970006EE16B1530F47F8D71507F8F7111E7CF21
:1059800017CFC70160E870E00E9474339C018F3725
:1059900090F7C80164E170E00E94743307E0080FDB
:1059A000EB2DF0E0CF01800F911D81970CF481C0A9
:1059B00000E20B19C7016AE070E00E94743343E013
:1059C000480FC901840F911D8038910514F04FE7ED
:1059D000421B423080F2C60164E170E00E947433E1
:1059E0007C01AAE0EA1AF108CF01800F911D8E0D0B
:1059F0009F1D80970CF00E19822F877068E070E071
:105A0000681B7109842F820F582F5770AA24AA94FB
:105A1000B12C062E02C0B694A7940A94E2F7A09483
:105A2000A22FA695A695A69590E2A99FD001112434
:105A30006D01CE0EDF1ED9A2C8A2260F269526958F
:105A4000269590E2299F900111246901CE0EDF1E58
:105A5000DBA2CAA286958695869520E2829FC00128
:105A600011246C01CE0EDF1EDDA2CCA2442E512CDF
:105A7000461A570A451A510829EF42162FEF5206C7
:105A8000E4F08FEF90E001C0880F5A95EAF7B82E46
:105A9000B09457FE03C037E0430E511C43E05594C9
:105AA00047944A95E1F710E0F7FE50C0D12CC12C85
:105AB00024C0023008F45FCF7DCF512C412CB12C93
:105AC000F2CF4A2DB70188A199A18C0D9D1D0E948E
:105AD000190D4B2DB7018CA19DA18C0D9D1D0E9410
