:100000000C94B6050C94D3050C94D3050C94C6310E
:100010000C94D3050C94D3050C94D3050C94D30500
:100020000C94D3050C94D3050C9470170C942C17D6
:100030000C94F2280C94D3050C94D3050C94D3059E
:100040000C94D3050C94D3050C94D3050C94D305D0
:100050000C94D3050C9449180C94D3050C94D30537
:100060000C94D3050C94D3050C94D3050C94D305B0
:100070000C94D3050C94D3050C94D3050C94D305A0
:100080000C94D3050C94D3050C94D3050C94D30590
:100090000C94D3050C94D3050C94D3050C94D30580
:1000A0000C94D3050C94D3050C94D305E1003132A4
:1000B00000003A003B0000000F0018001C00000088
:1000C0002A00343131320000400041004200430038
:1000D00000002C41282800000B003600000017000B
:1000E0000A00000008000C00000018001C000000BE
:1000F0003600370000001200343100003800313281
:1001000000003700380000001D24070000001B001D
:10011000190000001B000700000006000700000097
:100120001B00060000001D241B0000000900130036
:1001300000001A00090000000A0037000000160045
:1001400037000000090037000000040037000000FD
:100150001B00370000001500370000001A003700B0
:1001600000001400370000000700370000001700EF
:100170003700000013003700000008000D000000E9
:100180001000110000000D000F00000022002700E9
:100190003C5441473E3C2F5441473E003C696D670B
:1001A000207372633D22696D6167655F736F75725D
:1001B00063655F6F725F6C696E6B5F676F65735FBE
:1001C000686572652220616C743D226E616D655FA9
:1001D00069665F63616E745F6C6F6164222077692A
:1001E0006474683D226E756D5F706978656C73220A
:1001F000206865696768743D226E756D5F70697807
:10020000656C73223E003C6120687265663D226C1D
:10021000696E6B5F676F65735F68657265223E6EBE
:10022000616D655F6F665F6C696E6B5F676F65734D
:100230005F686572653C2F613E003C666F6F746558
:10024000723E3C2F666F6F7465723E003C626F6455
:10025000793E3C2F626F64793E003C686561643E84
:100260003C2F686561643E003C68746D6C206C6175
:100270006E673D22656E223E3C2F68746D6C3E00B9
:100280003C7374796C653E3C2F7374796C653E00E9
:100290003C7469746C653E3C2F7469746C653E00F7
:1002A0003C703E3C2F703E003C6469763E3C2F64BF
:1002B00069763E0031313120486967687669657733
:1002C0002047617465205345006172696340636F24
:1002D0006C6C656769756D6275696C742E636F6DA2
:1002E00000636F6E74616374406172696363622E50
:1002F0006465760035013A003B003C003D003E005D
:10030000292F14001A000900130005002B2D0443A7
:100310001500160017000A00E1001D241B0006004E
:10032000070019000000562428282C41E000AE00E8
:10033000440043004200410040003F002A003300D7
:100340001C0018000F000D00343112430C0008008F
:100350001100100031323800370036000B000E005B
:100360000000A8004C422C41C30035241B701E0025
:100370001F0020002100220035001E023602370235
:100380002E0023022B0220022F002602270230001B
:10039000E100350221022F0230022202000001009A
:1003A0000100010001002708450027002600250064
:1003B000240023002A003302260025002400250201
:1003C000570056002300220021002402310254006D
:1003D00020001F001E00310200000D7E37002700A4
:1003E0002C0035021B701E001F002000210022007F
:1003F0001C70D300D200CD00D100A8000100010084
:10040000CF00CE00D000A9000100DB00D900DA0047
:10041000DC00AA00000001002808010001000D7E98
:100420004500270026002500240023002A0033026F
:100430005300D3000100010034020100D200077E06
:10044000D1000A7E31021E02087E077E097E01006D
:1004500000000D7E0100D300D10001001B703A00A6
:100460003B003C003D003E001C7001004200430088
:1004700044004500010001003E243F224028412164
:10048000010001003A003B003C003D00000001007B
:100490000100010001000D7E450047004F08520C8D
:1004A00050084B014C0053004D0052004A004E01D1
:1004B00039000100510051005000010049004F086F
:1004C0004E00510C4B00010000000D7E01000100A8
:1004D0000B7E0C7E00DA0281FFD9F1DB20A4A62E70
:1004E000AF00A0C000A1C800AED580A81FD30040B7
:1004F0008D1420000000000000008080000080803B
:10050000C0C0CCDEDECCC0C0800000008080000017
:1005100000000000C0F0F81C0E0703F9FCFF0F07F5
:1005200003E1F1F1F1F1E103070FFFFCF903070E1D
:100530001CF8F0C0C0E3E7CE1C3870630F1F3C7896
:10054000F0E1E30303E3E1F0783C1F0F6770381C30
:10055000CEE7E3C0000101000000387860C0C0C0F1
:10056000607F3F00003F7F60C0C0C06078380000FF
:10057000000101003E0100383C3C3C3C3C3C3C3C22
:100580003C3C3C3C3C3C3C3C3C3C3C3C3C7CF8F1FA
:10059000E20408F0001C1C1C00007F0408107F000F
:1005A0007C1211127C001F2040201F00000000FF61
:1005B000FF0000FF3E40404E4E4E4E4E4E4E4E4EC1
:1005C0004E4E8E1E3E7E7E46467E46467E46467F8A
:1005D0007F0000FF000606367660E6C0C08000009F
:1005E0000000000102020202020212E20212E20212
:1005F00012E202010000000000808080B9BBBB83D2
:1006000080B8808080808080808080BF8080BF8034
:1006100080BF8000F00804E2F1F8FCFCFCFCFCFC6C
:10062000FCFCFCFCFCFCFCFCFCFCFCFCFCFCFCFC0A
:10063000FC0000FFFF0000FFFFFFFFFFFFFFFFFFC9
:10064000FFFFFFFFFFFFFFFFFFFFFFFFFFFFFFFFBA
:10065000FF0000FFFF0000FFFFFFFFFFFFFFFFFFA6
:10066000FFFFFFFFFFFFFFFFFFFFFFFFFFFFFFFF9A
:10067000FF0000FFFF0000FFFFFFFFFFFFFFFFFF86
:10068000FFFFFFFFFFFFFFFFFFFFFFFFFFFFFFFF7A
:10069000FF0000FFFF0000FFFFFFFFFFFFFFFFFF66
:1006A000FFFFFFFFFFFFFFFFFFFFFFFFFFFFFFFF5A
:1006B000FF0000FF7F80809F9F9F9F9F9F9F9F9F26
:1006C0009F9F9F9F9F9F9F9F9F9F9F9F9F9F9F9F3A
:1006D0009F80807F000000000000423A12120E004E
:1006E0000C4447241C002424147F0400423F0222AF
:1006F0001E000A0A7F0A0A00024742221F00211533
:100700000915630044443F040400221A027F1200CA
:100710002222120A0600084742221E0010525430BC
:100720001600403A023E42005E5252525E000427DA
:1007300044443C0000000000000077007700770090
:1007400014227F2214005F5F005F5F0006097F01B3
:100750007F00006689956A0060606060600094A216
:10076000FFA2940008047E04080010207E201000E0
:100770000000000000000000000000000000000079
:100780000000001C1C1C000000081C0800000000E9
:100790000800000000000000000000005F000000F2
:1007A000000700070000147F147F1400242A7F2A0A
:1007B00012002313086462003649562050000008D6
:1007C00007030000001C224100000041221C000021
:1007D0002A1C7F1C2A0008083E0808000080703090
:1007E00000000808080808000000606000002010F1
:1007F000080402003E5149453E0000427F4000008F
:100800007249494946002141494D33001814127F6D
:1008100010002745454539003C4A494931004121EE
:1008200011090700364949493600464949291E0041
:1008300000001400000000403400000000081422F2
:100840004100141414141400004122140800020181
:10085000590906003E415D594E007C1211127C0080
:100860007F49494936003E41414122007F41414193
:100870003E007F49494941007F09090901003E4185
:10088000415173007F0808087F0000417F4100004C
:100890002040413F01007F08142241007F4040403A
:1008A00040007F021C027F007F0408107F003E4151
:1008B00041413E007F09090906003E4151215E0089
:1008C0007F091929460026494949320003017F0161
:1008D00003003F4040403F001F2040201F003F409A
:1008E00038403F00631408146300030478040300D5
:1008F0006159494D4300007F414141000204081005
:100900002000004141417F000402010204004040F8
:100910004040400000030708000020545478400085
:100920007F2844443800384444442800384444284C
:100930007F0038545454180000087E09020018241F
:10094000241C78007F080404780000447D400000E7
:100950002040403D00007F102844000000417F40BF
:1009600000007C04780478007C0804047800384493
:10097000444438007C1824241800182424187C00CF
:100980007C080404080048545454240004043F44E0
:1009900024003C4040207C001C2040201C003C40A7
:1009A00030403C004428102844004C9090907C003B
:1009B0004464544C440000083641000000007700B5
:1009C00000000041360800000201020402003C263B
:1009D00023263C0000AF00AE05010906A1018501F8
:1009E000050719E029E71500250195087501810221
:1009F0009501750881010507190029FF150026FFDB
:100A000000950675088100050819012905950575E9
:100A1000019102950175039101C005010980A101B1
:100A2000850319012AB700150126B7009501751035
:100A30008100C0050C0901A101850419012AA00249
:100A4000150126A002950175108100C0090222003F
:100A5000010100A0FA0904000001030101000921BD
:100A60001101000122740007058103200001120119
:100A700000020000000813402220130001020001C0
:100A80000E034C00650065006C006F006F000000F5
:100A9000260343006C00690063006B00650074006E
:100AA00079002000530070006C0069007400200081
:100AB0004C007400640000000403090400000000FE
:100AC0000000000000000000000000000000000026
:100AD0000000000000000000000000000000000016
:100AE0007E0F00D4FFFFFFC7000000780000000069
:100AF000000000002A2B2800000000000000000079
:100B00000000000000000029000000002C1E34201E
:100B1000212224342627252E362D3738271E1F2044
:100B20002122232425263333362E37381F04050689
:100B30000708090A0B0C0D0E0F10111213141516CD
:100B40001718191A1B1C1D2F3130232D35040506CB
:100B50000708090A0B0C0D0E0F10111213141516AD
:100B60001718191A1B1C1D2F3130354C11241FBEAC
:100B7000CFEFDAE0DEBFCDBF12E0A0E0B1E0EEE7FC
:100B8000FDE602C005900D92A63DB107D9F727E01A
:100B9000A6EDB2E001C01D92A832B207E1F70E94B3
:100BA00019290C9458360C940000E8EDF0E080818F
:100BB0008E7F80831092E2001092DA001092E100A2
:100BC000A0EEB0E08C9181608C9380818F778083E0
:100BD00019BCA7EDB0E08C918E7F8C9380818F7EC5
:100BE000808310920A0708952091E4003091E50077
:100BF00095E6A9012091EC00822F817020FF06C0AC
:100C00008091E80080FF06C080E008952091E80010
:100C100022FD1AC080912707882389F0853089F04A
:100C20008091EB0085FD0FC02091E4003091E5003C
:100C300042175307F9F29150E1F684E0089582E0FB
:100C4000089583E0089581E0089580911F0787FF4C
:100C500013C08091E80082FF06C08091E8008B7786
:100C60008093E80004C0809127078111F2CF089596
:100C7000809127078823D9F38091E80080FFF8CF7F
:100C80008091E8008E77ECCF982F9093E900242F85
:100C9000762F50E0891731F07091EC002091ED0033
:100CA0005091F00021FD07C09F5F973071F780934E
:100CB000E90081E008953091EB003E7F3093EB0036
:100CC0003091ED003D7F3093ED003091EB003160CD
:100CD0003093EB007093EC002093ED005093F00004
:100CE0002091EE0027FDE0CF80E00895B0E0A0E085
:100CF000ECE7F6E00C940033C8EDD0E088818F7EFD
:100D00008883E7EDF0E080818160808384E082BFAA
:100D100081E080930A0788818E7F888302EE10E04D
:100D2000F80110821092DA0081EEC82ED12CF60163
:100D3000108288818F778883888180688883888102
:100D40008F7D888319BC1092270710921E0710927E
:100D500017071092160790EEE92EF12CF70180810B
:100D60008B7F808388818160888342E060E080E0BF
:100D70000E944406F60180818E7F8083F801808185
:100D800081608083808188608083F70180818E7F8D
:100D90008083888180618883CDB7DEB7E8E00C94DA
:100DA0001C33FC0180912507909126078617970731
:100DB000A0F06115710529F49091E8009E77909359
:100DC000E80090E06115710551F4911108C080911F
:100DD000E80082FF34C080E00895BC01F2CF80912A
:100DE00027078823C1F18530C1F18091E80083FD98
:100DF00030C08091E80082FDEACF8091E80080FF5A
:100E0000E1CF8091F3002091F200382F6115710538
:100E100019F02830310558F091E02830310509F0FB
:100E200090E02091E8002E772093E800CBCF8191CD
:100E30008093F100615071092F5F3F4FE7CF8091A0
:100E40002707882341F0853041F08091E80083FF37
:100E5000BECF81E0089582E0089583E0089508956B
:100E600080910C070895CF92DF92EF92FF922FB7F7
:100E7000F894C0900607D0900707E0900807F0901C
:100E800009072FBFA7019601261B370B480B590BEB
:100E9000CA01B901FF90EF90DF90CF9008952FB76E
:100EA000F894609106077091070780910807909168
:100EB00009072FBF08959C01FC0133969FEF80E046
:100EC0004191461751F09F3F19F4411101C0982FED
:100ED0008F5F8630A9F79F3F09F40895290F311DD0
:100EE00097FD3A95F90163830895A3E0B0E0EBE73D
:100EF000F7E00C940633209103073091040728177C
:100F00003907A1F09093040780930307E09101074C
:100F1000F0910207309751F024E029839B838A8364
:100F20000680F781E02DCE01019609952396E2E037
:100F30000C942233A3E0B0E0E0EAF7E00C9406332F
:100F40002091FF063091000728173907A1F09093F0
:100F500000078093FF06E0910107F09102073097A8
:100F600051F023E029839B838A830680F781E02D5B
:100F7000CE01019609952396E2E00C942233DC0120
:100F80006091FB068091FC06962F891301C008959D
:100F9000292F30E0F901EE0FFF1FED50F94F40818E
:100FA00051814A175B07A1F487E08A9FA0018B9FBC
:100FB000500D1124495A5E4F81E0FA018483961343
:100FC000E6CF2F5F3F4F237033272093FB06089512
:100FD0002F5F3F4F922F9370D8CF10928F061092B1
:100FE0008E06E7E5F1E08581811102C01482168248
:100FF000379682E0E335F807B1F70895CF93DF9392
:10100000209186063091870626583440A901460F64
:10101000571F4130524020F060E072E0621B730BBA
:101020004091840450918504FC01C901620F731F33
:10103000C1E0D0E08617970738F0509385044093BD
:101040008404DF91CF9108952491DC01AA57BB4F0E
:101050003C91321781F02C939C01A5E036952795A1
:10106000AA95E1F7DE0102C0AA0FBB1F2A95E2F79D
:101070009D014A2B532B01963196DCCF309183048E
:101080008317A0F590E0262F269526952695239F79
:10109000800D911D1124811522E092073CF5FC0181
:1010A000EA57FB4F5081677021E030E001C0220F0A
:1010B0006A95EAF74423D9F0252B2517B9F0208348
:1010C00025E0969587952A95E1F721E030E002C06A
:1010D000220F331F8A95E2F7809184049091850452
:1010E000822B932B909385048093840408952095FC
:1010F0002523E3CF613092E0790710F060E072E0E1
:10110000FB01EA57FB4F90819817B9F0808385E087
:10111000769567958A95E1F721E030E002C0220FCD
:10112000331F6A95E2F78091840490918504822BA5
:10113000932B9093850480938404089520918304D5
:1011400036E0839FC0011124629F800D911D112400
:10115000811522E0920714F090E080E08A579B4FBF
:1011600090938706809386060895FC01680F791F87
:101170008FEF91E32191822728E030E087FF09C0BB
:10118000880F892721503109C9F7E617F70791F72A
:101190000895880FF7CF80E0089563E070E081E95B
:1011A00093E00E94B50890919003891318C0E091D4
:1011B0009103E830A4F488E0E802F0011124E95E2C
:1011C000FE4F0680F781E02D309749F024EB33E0A5
:1011D0004091930364E973E0809192030995089527
:1011E000E7E1F1E0A6E8B3E01C968C911C9780A3A0
:1011F0001D968C9183AB0895F894E82FE295EF70DB
:10120000F0E031A1282F2F7081E090E001C0880F1D
:101210002A95EAF7982F9095932391A392A1892B71
:1012200082A3789408959091F10392FF06C0282F2D
:1012300028712830F9F4877F846093FF06C0282F37
:1012400028712831F1F4877E84612091F20320FF18
:1012500006C0382F38713830D9F4877F816021FF7C
:1012600006C0282F28712831D1F4877E816194FD32
:10127000877E0895282F24712430F9F68B7F8860AB
:10128000DCCF282F2471243101F78B7E8861DDCFDC
:10129000382F3171313019F78E7F8860E0CF282FD9
:1012A0002171213121F78E7E8861E1CF972F7A302D
:1012B000B8F46630A8F4843098F470E026E0929F89
:1012C000600D711D1124FB019CE3899FE00DF11D50
:1012D0001124EE0FFF1FEC50FD4F8591949108955E
:1012E00080E090E00895CF93DF93EC018238910580
:1012F00081F1D8F58133910509F498C020F5893240
:10130000910509F488C08A9709F497C0C11520E4B3
:10131000D20708F0ACC0C11530E2D30708F033C1E2
:10132000C43CD10508F090C0C83AD10508F0F2C01D
:10133000C53AD10508F0E6C0C430D10520F5C1306A
:10134000D10509F145C08533910509F45FC0C997FE
:10135000E9F68091F103837009F026C18091F203D0
:1013600083FF11C0C9E2D0E00EC0833E910599F120
:1013700070F4803E910501F1823E910539F680912D
:10138000F10382FD21C0CE01DF91CF910895863E09
:10139000910561F1873E910571F1843E910509F057
:1013A000B5CF8091F20381FFEECF8091F103C7EEBC
:1013B000D0E084FD0DC0E7CF8091F10380FD33C004
:1013C0009091F20390FFDFCFC3EED0E084FFDBCF3C
:1013D000D0E0C0E0D8CF8091F10382FDE2C09091CF
:1013E000F20390FDE1C084FFCECFF2CF8091F103F4
:1013F00083FDDDCFC8CF8091F10383FDD8C09091EC
:10140000F20391FFF0CFC4EED0E0BDCF8091F103A5
:1014100085FFB9CFA7CF8091F10385FDCBC0809127
:10142000F20383FFB0CFC9E3D0E0ADCF8091F103E9
:1014300086FFA9CFCAE2D0E0A6CF8091F10386FF54
:10144000A2CFC1E3D0E09FCFC83ED10550F4C03E4B
:10145000D10508F098CFCD3CD10508F4B9CFD065BF
:1014600092CFC11541E0D40708F08DCFB1CFC03481
:1014700082E5D807E8F4C03292E5D90708F06CC0DD
:10148000C11522E5D20708F053C0C11530E5D307D6
:1014900008F44BC08C2F8F710E94130935E0D6954C
:1014A000C7953A95E1F7CF709C2FEC01D0696BCFCF
:1014B000C03842E5D407C8F48C2F869586952C2F2A
:1014C0002370C036D24508F44EC0877030E2839F47
:1014D000E001112481E090E002C0880F991F2A9555
:1014E000E2F7C82BD92BDA684ECFCE01805C92454B
:1014F000809708F06DCFDC2FCC27CC27DF71C06F31
:10150000D06A41CFC55AD0E0CD58DD4FC881D0E078
:10151000D06439CFC85AD0E0CC0FDD1FCA58DD4F98
:101520000990D881C02DD4642ECFDF70D06A2BCF24
:101530002C2F2695269540E2249F900111248C2F74
:101540008370C1E0D0E002C0CC0FDD1F8A95E2F7C6
:10155000C22BD32BDD6817CFCF71D0E0DC2FCC2787
:10156000C16FD06A10CF877090E2899FE00111248B
:1015700081E090E002C0880F991F2A95E2F7C82BFE
:10158000D92BDC6800CF8D2F8F710E94130990E05A
:10159000982F882788279F719C012C2BE901D06206
:1015A000F2CEC2EED0E0EFCEC0EED0E0ECCEC6EE92
:1015B000D0E0E9CEC5E3D0E0E6CE80916303909120
:1015C0002203981301C008958F5F8770FACFB0E0AF
:1015D000A0E0EDEEFAE00C94FF327C0100915004A3
:1015E000109151048091520490915304082B192BAF
:1015F000CFE0D0E0CC24C394D12CBC2EC6010C2E5D
:1016000002C0880F991F0A94E2F780239123892B47
:1016100049F4219790F7B12C8B2DCDB7DEB7E9E0D7
:101620000C941B33B7018C2F0E9456090E9473093A
:10163000019779F3F1CFCF93DF93EC010E94E70A92
:10164000BE010E9456090E947309DF91CF9108954F
:101650009A3078F5863068F5E82FF0E086E0989FBC
:10166000E00DF11D11249E2F977083E0F695E7950C
:101670008A95E1F7EE0FFF1FEE0FFF1FE650FD4FBB
:1016800050E040E080E0219130E0092E02C0369524
:1016900027950A94E2F721703327042E01C0220F08
:1016A0000A94EAF7822B4F5F5F4F4430510559F798
:1016B000089580E008959A3098F5863088F5E82FEF
:1016C000F0E086E0989FE00DF11D11248E2F8770C9
:1016D00041E001C0440F8A95EAF783E0F695E7956B
:1016E0008A95E1F7EE0FFF1FEE0FFF1FE650FD4F4B
:1016F00030E020E070E05191DF011197CB01022E24
:1017000002C0969587950A94E2F7817081958527A6
:10171000842385278C932F5F3F4F2430310559F761
:10172000089590935304809352040895FC0183819B
:101730009481892B29F08081918189238F3FF1F455
:1017400080E008950E94730992959F70963089F009
:1017500058F4925F9F70923098F7803F19F030F400
:10176000883E70F781E008959A5FF4CF843F41F797
:10177000F9CF883EB8F3813F19F7F4CF868197817E
:10178000009701F7808191810E941B0BDDCF292FEB
:10179000332740E02115310511F0C90148E09C01D3
:1017A00064E0369527956A95E1F72115310511F02A
:1017B0004C5FC9019C0136952795369527952115D3
:1017C000310511F04E5FC90196958795892B09F077
:1017D0004F5F842F0895A5E0B0E0E1EFFBE00C94AB
:1017E00005339C01FC01868197810097E1F485E037
:1017F000DE01119601900D928A95E1F7F90122819F
:1018000089819A81222399F0662389F00E94E70A50
:10181000182F682F89819A810E945B0B69817A81D8
:10182000812F0E9456092596E3E00C9421330E94F3
:10183000280B182FF3CF9C019A9581159F4140F4F6
:10184000832F817031FD826033FF03C0886008956B
:1018500080E00895A6E1B0E0E0E3FCE00C94F6320D
:10186000F82E862E298399249394E01608F0912C63
:101870002E2D302FE01610F430952095D12C84E6D3
:1018800090E0B6010E944933FB01B6016150710935
:1018900084E690E00E9449337B836A83832F90E043
:1018A00030E0281B390B642E712CD12CC12CA301E4
:1018B000072C000C660B770B4C835D836E837F8354
:1018C000AF01FF0F660B770B488759876A877B87C5
:1018D000A901330F660B770B4C875D876E877F8777
:1018E0009C01990F440B550B288B398B4A8B5B8BD2
:1018F000CC8A6C147D0421F46696E2E10C941233D8
:101900006C817D818E819F810E943B359B01AC0162
:1019100060E070E088EC92E40E9491341B012C019D
:10192000B6010D2C000C880B990B0E943B359B01D6
:10193000AC01C201B1010E94EB3520E030E0A90109
:101940000E9420340E940335072E000C880B990B4F
:101950000E943B351B012C01688579858A859B8512
:101960000E943B359B01AC01C201B1010E94913440
:101970000E9403354A815B81469F5001479FB00C0E
:10198000569FB00C11246C857D858E859F850E94A5
:101990003B351B012C01B5010B2C000C880B990B5E
:1019A0000E943B359B01AC01C201B1010E94EB35A5
:1019B00020E030E048EC52E40E9491341B012C01FD
:1019C000688979898A899B890E943B35A2019101A6
:1019D0000E9420341B012C0110E05C89537084E0CC
:1019E000589FB00111246D597D4F7E8B6D8B99816D
:1019F000191305C02FEFC21AD20AF39479CFE12F41
:101A0000E3708D899E898E0F911DFC01608170E0CD
:101A100090E080E00E943B35A20191010E948C344D
:101A2000492D87FF04C041E0E01608F440E0417012
:101A3000612F680D8F2D0E943E081F5FD8CF0F9336
:101A40001F93CF93DF93EC016115710519F181307C
:101A500022E0920710F080E092E08A579B4FFC0151
:101A600000816C0F7D1F142F1095CB016130F2E0C7
:101A70007F0710F080E092E08A579B4FFC01808145
:101A800081234023842B0E947A08BE01802F81236A
:101A90000E947A08DF91CF911F910F910895B0E0D5
:101AA000A0E0E5E5FDE00C940033182FF62E44236A
:101AB00099F1011103C02223A1F1141B842F8695F3
:101AC000942F9170980FCFEFC90FC42EC694C6946F
:101AD000C394D42FD91B222331F1C10FD12C082F4D
:101AE000010F4E2D6F2D802F8D0D0E943E084E2D23
:101AF0006F2D8C2F0E943E084E2D6F2D812F8D0D46
:101B00000E943E084E2D6F2D8D2F8C0F0E943E0897
:101B1000D394C150DC1428F3CDB7DEB7E8E00C94C1
:101B20001C33F41ACBCFCF0DD12C082F0F0D602F03
:101B30006D0D4E2D812F0E943E084E2D6C2F812F52
:101B40000E943E086F2D6D0D4E2D812F0E943E0884
:101B50006D2F6C0F4E2D812F0E943E08D394C150E3
:101B6000DC1428F3D9CFEF920F9360387105D8F4C5
:101B7000481759072CF4382F292FCA01432F522F09
:101B80008032910514F08FE190E097FD80E04032C3
:101B9000510514F04FE150E0481BEE24E39401E0BE
:101BA00021E00E944F0D0F91EF900895B0E0A0E06A
:101BB000ECEDFDE00C9400337C01EB016A01022F97
:101BC00010E0B8016C0F7D1F0E94B30DBE01601BB9
:101BD000710BA601C7010E94B30DCDB7DEB7E8E0D7
:101BE0000C941C33B0E0A0E0E8EFFDE00C94FD3273
:101BF000EC017B01942E042F10E06C01C01AD10A75
:101C00005801A80EB91EA501C6010E94B30DB80166
:101C10006E0D7F1D603871051CF4C032D1056CF16A
:101C2000B701601B710B6038710538F4C032D10503
:101C300024F441E08C2F0E943E0821E0A501B70169
:101C4000C6010E94D60DAE014F5F5F4F292DB7012F
:101C5000CE0101970E94D60D01501109AE01400F2F
:101C6000511F22E0B701CE01801B910B0E94D60DBF
:101C7000CDB7DEB7EBE00C94193341E08C2F0E9416
:101C80003E08CECFEF920F93E22E01E021E00E94BA
:101C90004F0D0F91EF9008950F931F93CF93DF9304
:101CA000182FC62F042FD62FD20F20E0402F6C2FD5
:101CB000812F0E94420ECF5FCD13F7CFDF91CF91DE
:101CC0001F910F910895FF920F931F93CF93DF936E
:101CD000F82ED0E0C0E0062F10E06F2D6C1B21E045
:101CE00049E183E00E94420E6C2F6F0D21E049E133
:101CF00083E00E94420E2196C017D10774F3CDB73E
:101D0000DEB7E5E00C941F332091EB023091EC023A
:101D10004091ED025091EE026DEF73E483E090E0AC
:101D20000E942D336D537146894D9F4F6093EB0296
:101D30007093EC028093ED029093EE029F770895EA
:101D4000CF92DF92EF92FF926091F3027091F402D2
:101D50008091F5029091F6020E9433076C32714037
:101D60008105910590F1C090EF02D090F002E090D3
:101D7000F102F090F202C701B6010E943307613A06
:101D80007F408105910548F0C701B6010E943307E5
:101D90006031774281059105D0F0C701B6010E94FC
:101DA00033076031774281059105A8F0C701B6017C
:101DB0000E943307603576448105910560F485E023
:101DC000FF90EF90DF90CF90089580E0F9CF81E011
:101DD000F7CF83E0F5CFC701B6010E943307603526
:101DE000764481059105A8F382E0EACFEF920F9344
:101DF00028E74CE162E583E00E944C0E21E040E2DE
:101E00006FE781E00E94420EEE24E39400E020E0C0
:101E10004AE26EE780E00E944F0D20E04FE26EE75D
:101E20008FE10E944F0D0F91EF900895B0E0A0E078
:101E3000ECE1FFE00C9400336C017B0164E670E0A0
:101E400088E70E944030EC0197FD12C010E000E0EE
:101E5000F601E00FF11F849164E670E00E94AC305F
:101E6000EC01892B29F40F5F1F4F0E151F0581F719
:101E70000E942231CE01CDB7DEB7E8E00C941C33CE
:101E800080918C0690918D06911103C091E0892775
:101E90000895882369F062E070E086ED99E00E9481
:101EA000160F892B19F080918C06089510928C06DC
:101EB00080918C06EBCFCF93C0918C0680918D06DC
:101EC0008823D1F00E944F07605A75418F4F9F4F72
:101ED000609388067093890680938A0690938B0698
:101EE000C11108C062E070E084ED99E00E94160F15
:101EF000892B29F0C0918C068C2FCF91089581E019
:101F000080938C06F7CF0F931F93CF93DF938C01B1
:101F1000EB0180912707843069F581E08093E90027
:101F20008FEF9091E800815095FD06C095ED9A9550
:101F3000F1F700008111F5CF8091E80085FF1AC00C
:101F40000E94F405811111C08091E80085FD06C052
:101F50008091E8008E778093E800F2CFF8018191BC
:101F60008F018093F100219779F78091E8008E77B7
:101F70008093E800DF91CF911F910F91089563E066
:101F800070E00E94830F0895CF93DF93EC0180915E
:101F90005402811111C068E070E0CE0101960E94E8
:101FA000830F89E0FE01ADE0B7E001900D928A95C4
:101FB000E1F7DF91CF91089569E070E0CE01EFCFB6
:101FC000B0E0A0E0E6EEFFE00C94FE327C015B01A5
:101FD0006A018091790401E010E08A3010F40AE08F
:101FE00010E0C1E0D0E0B501C701F601099581110B
:101FF00004C021960C171D072CF4CDB7DEB7EAE01C
:102000000C941A33CC9F9001CD9F300D300D1124CC
:1020100090E080E045E34A95F1F7000001968217D1
:102020009307C1F7E0CF80918503811110C08091A3
:10203000D80080618093D8008AE18A95F1F700C0CA
:102040008091D90080FF0AC081E08093850381E000
:1020500090918503913009F080E0089582E08093AB
:1020600085030E94D50510922707F1CF0E94131017
:10207000882359F0E0910107F0910207309729F089
:102080000190F081E02D0995089580E008958091F8
:102090004F0490919006892B8093D90249E050E03B
:1020A00064E673E088ED92E00E94C733892BC1F0AB
:1020B00089E0E8EDF2E0A4E6B3E001900D928A95A4
:1020C000E1F7E0910107F0910207309749F081E0D4
:1020D0008093D8020280F381E02D88ED92E009958B
:1020E0000895882341F080959091900689238093EC
:1020F00090060E9447100895882339F09091900629
:10210000982B909390060E9447100895882341F0E1
:10211000809590914F04892380934F040E9447102B
:102120000895882339F090914F04982B90934F0491
:102130000E94471008958823C1F19CEF980F913AAF
:1021400078F4EBEDF2E09191891303C0DF01119770
:102150001C9242E0E13EF407B1F70E944710089557
:1021600090E2980F983088F4877021E030E0A90160
:1021700002C0440F551F8A95E2F7CA0180959091DD
:102180004F04892380934F04E8CF9BE5980F933049
:1021900028F490E080E00E949A070895885A8931D7
:1021A00020F490E080E00E9475070895CF93DF93BC
:1021B000EC010E949B10CE010E941B0CC05ED10955
:1021C000289728F40E948610DF91CF9108950E94ED
:1021D0007110FACFCF93C82F8823B1F08CEF8C0FFA
:1021E000813A00F5EBEDF2E081EE92E0DF012D9116
:1021F000C21761F08A179B07D1F76C2F88ED92E028
:102200000E945B070E944710CF9108952191C2134D
:1022100003C0DF0111971C928E179F07B9F70E9428
:102220004710EBCF80E28C0F883068F4C77021E054
:1022300030E001C0220FCA95EAF780914F04822B4B
:1022400080934F04DFCFEBE5EC0FE33040F4F0E098
:10225000ED58FD4F808190E00E949A07D5CFC85A73
:10226000C93190F6EC2FF0E0EE0FFF1FEA58FD4F5A
:10227000808191810E947507C7CF1F93CF93DF9311
:10228000182FD0E0C0E0893311F4C0E5D0E0812FF1
:102290000E94EA10209739F4812F0E949B10DF9151
:1022A000CF911F9108958FE99FE00197F1F700C04A
:1022B00000002197EFCFB0E0A0E0E1E6F1E10C945F
:1022C000FE32EC018AE0A82EFE012491222309F4BB
:1022D00097C0213009F03EC031968491813031F4AD
:1022E0002296FE0184910E943D1107C0823039F48C
:1022F0002296FE0184910E94EA102196E5CF833058
:1023000031F42296FE0184910E949B10F6CF843016
:1023100009F074C02296FE01249190E080E0FE0155
:1023200031962053330B2A30310548F0019728F3BA
:10233000EFE9FFE03197F1F700C00000F7CFA89E6A
:10234000A001A99E500D1124C901840F951F24914D
:10235000EF01E5CFE22FF0E0E451F54FB490822F8A
:1023600086958695869590E0FC01E452F54FE490C1
:102370002770F12C022E02C0F594E7940A94E2F73C
:1023800031E0E322FF24FC01E453F54FC490D12C4B
:10239000022E02C0D594C7940A94E2F7E1E0CE225F
:1023A000DD24FC01E454F54F049110E002C01595C2
:1023B00007952A95E2F701701127E114F10419F04D
:1023C00081EE0E94EA10C114D10419F086EE0E9439
:1023D000EA108B2D0E943D11C114D10419F086EE34
:1023E0000E949B10E114F10419F081EE0E949B10F1
:1023F0000115110509F481CF8CE275CFEF017DCF76
:10240000CDB7DEB7EAE00C941A33CF93DF93EC013B
:102410000E941B0C9E01205E31092830310540F4DA
:102420000E9491108C2F0E94EA10DF91CF910895A5
:102430000E947C10F7CF0F931F93CF93DF938C01F3
:10244000D0E0C0E0C99711F4C0E5D0E0C8010E9417
:102450000512209741F4C8010E94D610DF91CF9158
:102460001F910F9108958FE99FE00197F1F700C048
:1024700000002197EECF1F93CF93DF93162F8A3062
:1024800039F481E00E94CC12DF91CF911F91089521
:102490008D3011F480E0F6CFC0918606D09187068A
:1024A00096E0FE01ADE7B4E001900D929A95E1F758
:1024B0008E3790F186E0FE0111928A95E9F7C0917E
:1024C0008606D0918706111133C046E050E0BE0168
:1024D0008DE794E00E94C7339E0126583440892B33
:1024E00091F52A5F3F4F40918304642F70E0C9014A
:1024F0000E94E232481B463010F4240F311D211592
:1025000072E0370710F030E020E02A573B4F30935D
:10251000870620938606B8CFF6E08F9FB00111247E
:102520006C52794F46E050E0CE010E94BE33C7CFD7
:102530009E012A5F3F4FFE012E173F0731F2808137
:1025400080958193F9CFC90145E0969587954A9585
:10255000E1F741E050E0BA0102C0660F771F8A95AB
:10256000E2F7CB016091840470918504862B972B50
:10257000B9016B5F7F4FE5E076956795EA95E1F7E6
:1025800002C0440F551F6A95E2F7842B952B909358
:10259000850480938404A5CFCF93382FE0918606DD
:1025A000F0918706E658F44020918304622F70E092
:1025B000CF010E94E232281B822F332369F066E0AC
:1025C0000E943D33C82FC15010F4CF91089560E0B0
:1025D00080E20E943B12F7CF9F01280F311D211589
:1025E000324018F080E0F0E0E0E08E0F9F2F911D68
:1025F0008A579B4F9093870680938606E6CFE6E83E
:10260000F4E080E092E0DF019C011D922150304017
:10261000E1F7F0938706E09386068FEF9FEF9093A4
:10262000850480938404089510924F04EBEDF2E04A
:1026300086E0DF011D928A95E9F790E080E00E9434
:102640009A0790E080E00E947507109290060E9421
:1026500047100895AAE2B0E0E0E3F3E10C940533FB
:102660008FE197E02091F100FC012193CF01F7E089
:1026700087329F07B9F780912007833009F470C033
:10268000B8F4813009F447C0823009F4B1C08091B8
:10269000E80083FF39C180911F07909120079A308D
:1026A00008F032C1E92FF0E0E65AF94C0C947C3383
:1026B0008A3009F48CC08B3009F46FC0893039F747
:1026C00080911F07813219F7809123079091240789
:1026D000892BE9F68091E800877F8093E80080915C
:1026E000E80082FF38C09091F3008091F2000297D9
:1026F00031F48091F100813011F0863021F4809125
:10270000F10080930C078091E8008B778093E800BC
:102710000E942506BCCF80911F07813A09F0B7CFF0
:102720008091E800877F8093E80080912307909153
:102730002407892B61F469E08DE097E070E00E9446
:10274000D1068091E8008B778093E800A0CF60E00D
:1027500090E080E0F3CF809127078111C0CF97CF21
:1027600080911F07813A09F092CF809123079091C1
:102770002407892B09F08BCF8091E800877F809315
:10278000E8008091E80080FFFCCF809154028093A4
:10279000F1008091E8008E77B9CF80911F078132D8
:1027A00009F075CF8091230790912407892B09F0B8
:1027B0006ECF8091E800877F8093E8000E94250615
:1027C00080912107809354020E94141360CF80915E
:1027D0001F07813209F05BCF8091E800877F8093EB
:1027E000E8000E9425068091220780930B074FCFB7
:1027F00080911F07813A09F04ACF8091E800877FD6
:102800008093E8008091E80080FFFCCF80910B0767
:10281000BECF803899F0823809F076C080912307C6
:102820008F70873008F070C08093E9008091EB00D2
:1028300085FB882780F91092E90006C08091160771
:1028400090911707911182609091E800977F909383
:10285000E8008093F1001092F1008091E8008E77FB
:10286000B6C1882309F4A3C1823009F04DC080911C
:1028700021078111A7C1809123078F702FEF280FA7
:10288000263008F041C08093E9002091EB0020FF42
:1028900099C1933031F48091EB0080628093EB001A
:1028A00091C19091EB0090619093EB0021E030E0BA
:1028B00001C0220F8A95EAF72093EA001092EA00FD
:1028C0008091EB008860EACF81111EC01091210732
:1028D0001F778091E3008078812B8093E3008091C3
:1028E000E800877F8093E8000E9425068091E80039
:1028F00080FFFCCF8091E30080688093E30082E05A
:10290000111183E0809327078091E80083FF0AC0BC
:102910008091E800877F8093E8008091EB008062DF
:102920008093EB00AA96E3E00C9421338058823028
:1029300058F780912107909122078C3D23E0920760
:10294000A1F583E08A838AE289834FB7F894DE0198
:10295000139620E03EE051E2E32FF0E05093570061
:10296000E49120FF03C0E295EF703F5FEF708E2F80
:1029700090E0EA30C0F0C7968D939D932F5F24318D
:1029800059F74FBF8091E800877F8093E8006AE2A3
:1029900070E0CE0101960E94D1068091E8008B770D
:1029A0008093E800B1CFC096E7CF409123075091C4
:1029B0002407292F33272330310509F440C078F547
:1029C0002130310509F48EC082E290E0ECE4FAE0B7
:1029D0002230310509F098CF2091E800277F20931D
:1029E000E80020912507309126078217930708F405
:1029F0009C0140E02115310509F079C0411177C0F3
:102A00008091E80082FDC9CF80912707882329F2B1
:102A1000853019F28091E80083FFF2CFBECF2132DA
:102A2000310509F457C02232310509F06DCF452B2D
:102A300009F06ACF84E790E0E8EDF9E0CDCF20918E
:102A4000250730912607409118074F5F40931807DC
:102A500030931D0720931C0722303105B1F42091DB
:102A600019072F5F2093190799278130910551F19C
:102A70000097E9F0029709F047CFE0E8FAE0E49127
:102A80008E2F90E0E0E8FAE019C02430310531F4EF
:102A900020911A072F5F20931A07E6CF2F3F3105A9
:102AA00019F720911B072F5F20931B07DDCFE8EB61
:102AB000FAE0E4918E2F90E0E8EBFAE0009709F05D
:102AC0008BCF22CFE0E9FAE0E4918E2F90E0E0E9AD
:102AD000FAE0F4CF452B09F017CF89E090E0EEE55E
:102AE000FAE07ACF82E190E0EEE6FAE075CF8091ED
:102AF0002707882309F451CF853009F44ECF809100
:102B0000E80083FD4ACF8091E80082FD79CF809173
:102B1000E80080FF6FCF9091F3008091F2002115C3
:102B2000310519F08830910550F041E0089709F01F
:102B300040E08091E8008E778093E8005BCF44917D
:102B40004093F1003196215031090196E8CF803849
:102B500009F0DACE8091E800877F8093E8008091C9
:102B60001E078093F10079CE8111CECE10912107FE
:102B7000123008F0C9CE8091E800877F8093E8008A
:102B800010931E070E942506112311F084E005C052
:102B90008091E30087FDFACF81E08093270742E22E
:102BA00061EC81E00E94440680912707ADCE8091C0
:102BB0002107813009F0A8CE81E0933009F080E050
:102BC000809317071092E9008091E800877F809337
:102BD000E8000E94250698CE0E9414132FEF84E38C
:102BE0009CE0215080409040E1F700C0000087E762
:102BF00097E7909301088093000888E19AE00FB668
:102C0000F894A895809360000FBE90936000FFCF6A
:102C10000E9414132FEF84E39CE0215080409040E9
:102C2000E1F700C0000088E19AE00FB6F894A8959B
:102C3000809360000FBE90936000FFCFB0E0A0E0F3
:102C4000E4E2F6E10C9401337901C82F880FDD0B23
:102C500041155105A9F0FE0193E0EE0FFF1F9A9573
:102C6000E1F7E95EFE4F818192818A579C4F208176
:102C700030E04217530708F49A01A9010E94D433A7
:102C8000CE010E946C32D82E8823D1F00115110597
:102C9000B9F083E0CC0FDD1F8A95E1F7FE01E95E14
:102CA000FE4F438150E00417150708F4A801C95EE0
:102CB000DE4F6C817D816A577C4FC7010E94D433FF
:102CC0008D2DCDB7DEB7E7E00C941D33A4E0B0E066
:102CD000ECE6F6E10C9404336091DD037091DE03C1
:102CE0008091DF039091E0030E94330711E0643686
:102CF00071058105910538F10E941310882341F177
:102D00000E944F076E5F7F4F8F4F9F4F69837A837B
:102D10008B839C8310E000E030E020E044E050E052
:102D2000BE016F5F7F4F82E00E941E16182F88231E
:102D300051F00E944F076093DD037093DE03809390
:102D4000DF039093E003812F2496E4E00C9420337A
:102D50000E944F070091E1031091E2032091E303E9
:102D60003091E403600F711F821F931FCBCFA6E049
:102D7000B0E0EDEBF6E10C9402337B0101E010E0F2
:102D80009E012A5F3F4F50E040E070E060E080E04D
:102D90000E941E16182F882309F446C06091D9039B
:102DA0007091DA038091DB039091DC030E9433077A
:102DB000643671058105910548F465E070E087E8A7
:102DC00093E00E94B5089E81891771F105E010E03B
:102DD0009E012F5F3F4F50E040E070E060E081E0F7
:102DE0000E941E16082F65E070E087E893E00E94BD
:102DF000B50811E09E81981310E0102301F10E94A4
:102E00004F076093D9037093DA038093DB039093A9
:102E1000DC0385E0FE013196A4EDB3E001900D9254
:102E20008A95E1F711E00BC085E0E7E8F3E0DE0109
:102E3000119601900D928A95E1F71111EACF85E084
:102E4000E4EDF3E0D70101900D928A95E1F7812F2F
:102E50002696E6E00C941E331F920F920FB60F9247
:102E600011242F933F934F935F936F937F938F938F
:102E70009F93AF93BF93CF93DF93EF93FF93D09143
:102E8000E900DF708091EC00C82FC17080FDC0E8C0
:102E90001092E9008091F000877F8093F000789491
:102EA0000E942A131092E9008091F00088608093BC
:102EB000F000CD2BCF70C093E900FF91EF91DF912F
:102EC000CF91BF91AF919F918F917F916F915F91C2
:102ED0004F913F912F910F900FBE0F901F9018951B
:102EE0001F920F920FB60F9211242F933F934F937F
:102EF0005F936F937F938F939F93AF93BF93EF9362
:102F0000FF938091E10082FF09C08091E20082FF7F
:102F100005C08091E1008B7F8093E1008091DA0011
:102F200080FF24C08091D80080FF20C08091DA000B
:102F30008E7F8093DA008091D90080FF9DC080E170
:102F400089BD82E189BD09B400FEFDCF81E0809397
:102F5000270780910A07811109C00E94D5050E94A8
:102F600076068091E20084608093E2008091E10027
:102F700080FF17C08091E20080FF13C08091E200C3
:102F80008E7F8093E2008091E20080618093E20076
:102F90008091D80080628093D80019BC85E080932E
:102FA00027078091E10084FF2BC08091E20084FF1D
:102FB00027C080E189BD82E189BD89B5982F9170D4
:102FC00080FFFBCF8091D8008F7D8093D8008091C7
:102FD000E1008F7E8093E1008091E2008F7E8093FC
:102FE000E2008091E20081608093E20080911E0700
:102FF000882309F447C084E080932707809127073E
:103000008091E10083FF27C08091E20083FF23C00D
:103010008091E100877F8093E10082E08093270721
:1030200010921E078091E1008E7F8093E1008091D5
:10303000E2008E7F8093E2008091E20080618093C5
:10304000E20042E060E080E00E9444068091F000EF
:1030500088608093F000FF91EF91BF91AF919F91B5
:103060008F917F916F915F914F913F912F910F9031
:103070000FBE0F901F90189519BC10922707109241
:103080000A0774CF8091E30087FD93E090932707B0
:10309000B5CF78941F921FB61F9211248F939F93E0
:1030A000AF93BF938091060790910707A0910807FF
:1030B000B09109070196A11DB11D80930607909359
:1030C0000707A0930807B0930907BF91AF919F919D
:1030D0008F911F901FBE1F9018959C014FB7F894B9
:1030E0008091060790910707A0910807B091090702
:1030F0004FBF821B930B08952FB7F894809106075A
:1031000090910707A0910807B09109072FBF089574
:10311000CF93DF93EC010E947C189093100480936E
:103120000F04CE010E94C70B80930E04811105C0CD
:1031300010920B01DF91CF91089587E080930B01EE
:10314000F9CFCF93DF93EC010E948818D0935104FC
:10315000C0935004DF91CF910895AFE0B0E0E3EB6E
:10316000F8E10C94FB328E010F5F1F4F8AE0D8010B
:103170001D928A95E9F780EBC82E82E0D82EF12CBB
:10318000E12CAA24A394B12C2BEB822E22E0922EC8
:10319000F60181916F018F3F09F442C0F894E82F46
:1031A000E295EF70F0E021A18F70A50102C0440FFD
:1031B000551F8A95E2F7CA01922F982B91A392A1ED
:1031C0008095892382A3789400C0E5EBF2E0712C0E
:1031D00031E021912F3F09F46BC0A22FA295AF706F
:1031E000B0E090968C9190E02F7002C095958795F5
:1031F0002A95E2F780FD5CC0832F782A330F8E1664
:103200009F0639F7F601319780818F3F11F00E94B8
:10321000FC0850EA5A95F1F7F801EE0DFF1D708297
:103220008FEFE81AF80AA5E0EA16F10409F0B0CF2A
:103230004AE050E0B80185EE93E00E94C733009762
:1032400041F02AE0F801A5EEB3E001900D922A9535
:10325000E1F70091F003892B69F181E080936F031E
:103260000E947C1890936E0380936D0380916D0390
:1032700090916E030E946D18059700F110E00B50BD
:103280001C4F45E050E065EE73E0C8010E94C73373
:10329000B12C892B51F085E0E5EEF3E0D8010190E7
:1032A0000D928A95E1F7BB24B39410926F0307C087
:1032B00080E0A3CF80916F038111D8CFB12C0E9401
:1032C0001310F82EE091F003882309F4DDC06E019D
:1032D000BBE0CB0ED11C85E0D6011D928A95E9F7A3
:1032E0000E2F10E00B501C4F809179048A3008F0AB
:1032F00097C047EB56E1B601C8010E94E00F882352
:1033000009F4B1C046E656E1B601C8010E94E00FDB
:10331000882309F4A8C0109279048091EF0390E00B
:1033200045E050E0B6018B509C4F0E94C73321E02E
:1033300020938403892B09F089C0F12C0091760336
:10334000109177030115110539F1609172037091A5
:10335000730380917403909175030E943307613C5D
:10336000744D81409105C0F00095109580915004F6
:1033700090915104802391230E94A1181092770309
:10338000109276030E944F07609372037093730349
:10339000809374039093750360917C0370917D0317
:1033A00080917E0390917F030E9433076E357140B8
:1033B0008105910570F00E944F0760937C03709324
:1033C0007D0380937E0390937F0310927B03109282
:1033D0007A0380917903882361F090E080E00E9475
:1033E0006D188132934028F083EE0E949B1010925A
:1033F000790380917803882361F090E080E00E9457
:103400006D188132934028F080EE0E949B1010923C
:1034100078031F2D812F8B292F96EDE00C94173305
:1034200080917003909171030E946D18843F9140C8
:1034300008F05FCF80918403882309F47ECF85E074
:10344000F60111928A95E9F710928403A091EF0397
:10345000B0E0AB50BC4F85E0FE013B9601900D9271
:103460008A95E1F76BCF809179048F3F31F08F5FC0
:10347000809379048A3008F450CF0E947C1890938E
:10348000710380937003D6CFF0E0EB50FC4F85E0E2
:10349000A7E8B3E001900D928A95E1F765E070E04E
:1034A00087E893E00E94B50880938603C0908C0360
:1034B000D0908D03E0908E03F0908F038091800375
:1034C00090918103A0918203B0918303C816D9061D
:1034D000EA06FB0611F410E09DCFC0928003D09263
:1034E0008103E0928203F09283030E941310182F4D
:1034F0008111F1CF0E944F07C61AD70AE80AF90ACC
:10350000C092E103D092E203E092E303F092E4037D
:1035100081CF21E030E002C0220F331F8A95E2F70D
:1035200020953095809150049091510482239323EB
:103530000E94A118089521E030E002C0220F331F3D
:103540008A95E2F78091500490915104822B932B3D
:103550000E94A11808950F931F93CF93DF9301E06A
:1035600010E0082E02C0000F111F0A94E2F7C0916C
:103570007603D09177039E0120233123232BB9F4C6
:103580000E949B1A0E944F0760937203709373030B
:103590008093740390937503C027D127D09377034A
:1035A000C0937603DF91CF911F910F9108950E94F0
:1035B000891AF2CFCF93DF93EC018332910548F45F
:1035C000FC01EC59F94C0C947C3381EE92E06111D2
:1035D00007C0DF91CF9108956623D9F389EC92E07B
:1035E0000E945B11F6CF84EB92E0662391F3F8CF53
:1035F000662379F388EA92E00E945B11C6E0D0E08E
:1036000080E590E00E941B122197D1F7E2CF66235C
:1036100001F380EA92E00E945B1180E590E00E9455
:103620001B1280E590E00E941B1280E590E00E9452
:103630001B1280E590E00E941B12CBCF662349F25B
:1036400080E992E00E945B11C8E0D0E080E590E064
:103650000E941B122197D1F7BCCF662309F4B9CF82
:1036600080E892E00E945B11C8E0D0E080E590E045
:103670000E941B122197D1F7ACCF662309F4A9CF82
:1036800088E692E00E945B11C7E0D0E080E590E020
:103690000E941B122197D1F79CCF662309F499CF82
:1036A0008AE592E00E945B1180E590E00E941B1287
:1036B0002197D1F78ECF662309F48BCF8CE492E06B
:1036C0000E945B11C7E0D0E080E590E00E941B12F1
:1036D0002197D1F77ECF662309F47BCF8AE392E06E
:1036E0000E945B1180E590E00E941B122197D1F7A8
:1036F00070CF662309F46DCF86E092E00E945B11E3
:103700008AE490E00E941B128FE490E00E941B125A
:103710002197D1F75ECF662309F45BCF8CE991E066
:103720000E945B118AE490E00E941B128FE490E0FB
:103730000E941B122197D1F74CCF662309F449CF81
:1037400080E991E00E945B1189E290E00E941B12E7
:10375000C9E0D0E080E590E00E941B122197D1F7EC
:1037600087E098E00E941B1287E098E00E941B12FD
:103770008AE290E060CF662309F42BCF83EE0E94AB
:10378000EA108DE10E94EA1083EE0E949B108DE109
:103790000E949B101ECF662309F41BCF83EE0E946C
:1037A000EA1081EE0E94EA108DE10E94EA1083EE99
:1037B0000E949B1081EEE9CF662309F40ACF83EEC5
:1037C0000E94EA108BE10E94EA1083EE0E949B1097
:1037D0008BE1DECF662309F4FCCE83EE0E94EA1073
:1037E00086E00E94EA1083EE0E949B1086E0D0CF14
:1037F000662309F4EECE83EE0E94EA1089E10E946E
:10380000EA1083EE0E949B1089E1C2CF662309F47F
:10381000E0CE82EE0E94EA1081EE0E94EA1083EE72
:103820000E94EA108CE20E94EA1083EE0E949B1034
:1038300081EE0E949B1083EE0E949B108CE2A8CF29
:10384000662309F4C6CE81EE0E94EA1083EE0E9440
:10385000EA1089E10E94EA1081EE0E949B1083EE3B
:103860000E949B1089E10E949B1089E193E0E3CEC6
:10387000662309F4AECE83EE0E94EA1084E00E9433
:10388000EA1083EE0E949B1084E082CF88E392E0EE
:10389000662309F49ECECFCE8EE192E0662309F432
:1038A00098CEC9CE84E392E0662309F492CEC3CECB
:1038B0008DE292E0662309F48CCEBDCE86E590E0E1
:1038C000662309F486CEB7CE8EE290E0662309F433
:1038D00080CEB1CE8FE192E0662309F47ACEABCEF2
:1038E000662309F476CEC0914F0410924F048C2FBA
:1038F000827239F08EE891E00E945B11C0934F0410
:1039000068CE8CE891E0F8CF662309F462CE80910E
:1039100050049091510422E082270E94A11859CEB0
:1039200086EA90E0662309F454CE85CE662309F436
:1039300050CE0E94EC1583E590E0662309F449CE51
:103940007ACE662309F445CE85E490E074CEB0E0EB
:10395000A0E0EDEAFCE10C94FA32C091EA02D091C9
:103960000F01CD13DEC06091EF027091F0028091E3
:10397000F1029091F2020E9433074B015C016091C9
:10398000E4027091E5028091E6029091E7020E94C4
:10399000330720910001309101018901330F220B7F
:1039A000330B061717072807390708F048C00E948D
:1039B0004F076093E4027093E5028093E6029093D0
:1039C000E7020E94840E68EC70E00E94E2328A56A0
:1039D0009F4F90930101809300010E94840E64E642
:1039E00070E00E944933EC01B401092C000C880BF3
:1039F000990B0E943B3520E030E04AE755E40E94F5
:103A00001F3429E838E848E85CE30E94EB3520E001
:103A100030E0A9010E9420340E9403357727C617A1
:103A2000D7072CF01092E3020E94F60E0EC00E94FF
:103A3000840E62E070E00E9449338093E30280913B
:103A4000E302882389F3813029F0CDB7DEB7EEE0B9
:103A50000C9416338091E1029091E2020E946D185D
:103A6000CD9798F30E947C189093E2028093E10234
:103A70000E94F60E24E0D22E36E0832E912C44E1F3
:103A8000A42EB12CC3E1D0E054E6652E712C0E9427
:103A9000840EB4010E94493314E0180F0E94840E72
:103AA0007C010E94840EFC01C701B5010E944933CC
:103AB00035E5380FCF01BE010E94493394E0C92E8D
:103AC000EE24EA940FEF212F412F632F8D5F0E9488
:103AD0002A0C0E94840EB4010E944933182F0E94C0
:103AE000840EB3010E94493304E6080F0E94840E3D
:103AF0007C010E94840E9C01C701B5010E944933DC
:103B0000E4E6E80FC901BE010E944933E02E212FEF
:103B1000412F6E2F8D5F0E942A0CDA94D110B7CFFF
:103B200094CF8091E8029091E9020E946D180C2FC9
:103B300010E0F801E75AFD4F20812817190608F018
:103B400084CF0E947C189093E9028093E8020E943F
:103B5000F60ECA3048F4F801E957F94C0C947C335E
:103B600061E188E60E94630ECD1708F07FC0CF5F49
:103B7000C093EA026ACF6CE0F4CF65E0F2CF63E075
:103B8000F0CF62E088E60E94630E43E068E670E0F2
:103B90008FE090E00E94F20DE7CF21E049E168E676
:103BA00083E00E94420E42E0F1CF21E042E069E66C
:103BB0008FE00E94420E21E042E067E68FE00E9423
:103BC000420E21E049E168E683E00E94420ECCCF3C
:103BD00021E042E069E68FE00E94420E21E042E0EF
:103BE00067E68FE00E94420E21E042E168E687E04E
:103BF0000E94420E41E068E684E00E943E0841E0F7
:103C000068E68BE10E943E08AFCF21E042E069E622
:103C10008FE00E94420E21E042E067E68FE00E94C2
:103C2000420E21E044E068E68DE00E94420E21E071
:103C300042E068E688E00E94420E21E043E068E648
:103C400085E10E94420E41E068E686E00E943E085F
:103C500041E068E68BE10E943E0841E068E68DE1C4
:103C6000D1CF21E042E068E68FE0AFCFC15080CFF6
:103C70000E947C189093E9028093E80289E0809387
:103C8000EA0210920F0108958F929F92AF92BF9215
:103C9000CF92DF92EF92FF928091130490911404DF
:103CA000009709F43FC00E946D18C0901504D09091
:103CB00016049C0150E040E060E67AEE80E090E07F
:103CC0000E945D33CA01B90125E030E040E050E0D8
:103CD0000E945D330D2C000CEE08FF08CA01B901EB
:103CE0006C197D098E099F090E943B3527EA39E747
:103CF00047E45DE30E94EB354B015C01C701B6016F
:103D00000E943B359B01AC01C501B4010E942034E7
:103D10000E940335673971050CF04AC07093160490
:103D2000609315040E947C189093140480931304EC
:103D300080911104909112040E946D18853F21E03A
:103D40009207E8F188E290E09093180480931704BA
:103D50000E947C1890931204809311040E94A00E7C
:103D60008130E9F50E94381E0E94A00E9FEF980F47
:103D7000923008F03FC00E944F076093F3027093A7
:103D8000F4028093F5029093F6020E944F0760932D
:103D9000EF027093F0028093F1029093F202FF9091
:103DA000EF90DF90CF90BF90AF909F908F9008954D
:103DB00086E990E09093160480931504B3CF44E60F
:103DC000489F9001499F300D1124C90164EF71E0B3
:103DD0000E94E23284E690E0861B970BB5CF9CEF01
:103DE000980F923018F40E94FF12BCCF823009F075
:103DF000BBCFF9CF8450823008F4BDCFC6CFFB01D2
:103E0000808191810E94441E0895B0E0A0E0EBE023
:103E1000FFE10C9400338C01FC0183819481892B98
:103E200031F08081918189238F3F09F04BC4CDB758
:103E3000DEB7E8E00C941C33C034F2E5DF07C8F5C8
:103E4000C03222E5D207D0F5CE01905481159041C1
:103E500008F44CC0C13ED10509F4A2C0C53ED1054D
:103E600009F49EC0C730FEE7DF0709F07CC0F80107
:103E70008281882309F477C0C0914F048C2F82720D
:103E800009F04FC082EE0E94EA108091F702811182
:103E900006C08FE40E943D1180E50E943D1181EE35
:103EA0000E94EA108FE40E94EA1082E08093F702F9
:103EB000BECFCE01805C9245809760F681E090E0B5
:103EC0000C2E02C0880F991F0A94E2F72091760306
:103ED0003091770382239323892B09F4BBCFF80118
:103EE0008281882309F4A3CF8C2F1CC4F80185811B
:103EF000807F09F0AFCF82818111B4CF2D2F2F7039
:103F000081E090E002C0880F991F2A95E2F7209186
:103F100076033091770382239323892B09F49ACF78
:103F200086CF8091F702811119C010924F0484E06E
:103F300091E00E94051284E091E00E94D6108DE489
:103F400092E00E941B128AE40E943D118DE492E0EF
:103F50000E941B12C0934F0483E0A8CF81E50E940A
:103F6000EA1084E0A3CF8091F702823069F030F448
:103F7000813009F446C01092F70212C0833069F014
:103F80008430C9F781E507C08FE40E949B1081EE61
:103F90000E949B1082EE0E949B1081E08093F702AA
:103FA000F801D280DD2079F0C0904F048C2D8D7DFA
:103FB00091F1D0937B04C0937A0481E080937C04D8
:103FC000CE010E94441EF8019281992309F4A9C1EF
:103FD0009E0130572332310508F0A7C384E090E0FA
:103FE0000E94E5339093F2038093F103FE01E150C8
:103FF000F047E232F10508F0D7C0EF56F94C0C94C7
:104000007C33C932D10509F0B6CF8FE40E943D114F
:104010001092F7020CCF60917C0370917D03809128
:104020007E0390917F030E9433077E016E357140BD
:1040300081059105D0F4FF2480917A0390917B0350
:104040008F30910509F45EC0B8F58730910509F409
:10405000A0C018F58530910509F48DC008F071C035
:10406000892B09F49AC0C0924F04C092F802F092D2
:104070007B03E0927A030E944F0760937C03709366
:104080007D0380937E0390937F03DD2009F4CFCEE0
:10409000F801828181118DCF96CF8930910509F485
:1040A00057C008F45AC00D97F1F6F8E1DF2E8FE003
:1040B000E816F10489F12CC08A31910509F454C045
:1040C00080F486319105B1F18831910509F45AC027
:1040D000439749F677E1D72EF9E0EF16F104E1F0C6
:1040E00017C08E32910539F008F4BDCF845591097F
:1040F000049708F0B8CF2CE2D22EF7E2EF16F104C5
:1041000059F006C0AEE0DA2E2DE0E216F10421F0FF
:1041100080E00E943D11D12C8091F80280934F04E1
:1041200080E00E943D1110924F048D2D0E943D11A0
:10413000D12C9BCFE6E0DE2E99E1E916F10461F384
:10414000E7CFEBE1EE16F10419F766E1D62EE4CFE6
:104150002AE1E216F104C9F3DBCF56E3D52E88E35A
:10416000E816F104C9F2D4CF45E1D42E93E1E91663
:10417000F10491F2CDCF37E0D32EEAE1EE16F1044F
:1041800059F2C6CF98E0D92E2CE1E216F10421F2C3
:10419000BFCF8BE1E816F10421F080E00E943D11D1
:1041A00062CF8AE0D82EB8CF8091F10381608093EE
:1041B000F10395C08091F20388608093F2038FC071
:1041C0008091F1038260F3CF8091F1038460EFCF9F
:1041D0008091F1038860EBCF8091F2038160EDCF95
:1041E0008091F2038260E9CF8091F1038061DFCF9B
:1041F0008091F1038062DBCF8091F1038064D7CF9F
:104200000E9414138091F1038068D1CF8091F10353
:104210008C60CDCF8091F2038360CFCF8091F1038A
:104220008E7FC5CF8091F203877FC7CF8091F10346
:104230008D7FBDCF8091F1038B7FB9CF8091F1034A
:10424000877FB5CF8091F2038E7FB7CF8091F20345
:104250008D7FB3CF8091F1038F7EA9CF8091F10341
:104260008F7DA5CF8091F1038F7BA1CF0E94141386
:104270008091F1038F779BCF8091F103837F97CF5C
:104280008091F2038C7F99CF8091F10382FB992773
:1042900090F921E0922790FB82F990FB83F987CF78
:1042A0008091F203982F909591708E7F892B90FBCF
:1042B00081F983CF9091F103892F8F7B96FF8064E2
:1042C00076CF0E9414139091F103892F97FB87F901
:1042D00080586DCF61E08EE090E00E94EB336091FA
:1042E000F1037091F20384E090E00E9409340E948F
:1042F00014139DCD60E0EFCF9091F103892F8F7E55
:1043000094FF806154CF9091F103892F8E7F90FFAD
:1043100081604DCF9091F203892F877F93FF886052
:104320004CCFC631DC4751F58091F90281110FC0A5
:1043300089E2EBEDF2E021EE32E09191891303C0C6
:10434000DF0111971C922E173F07B9F702C285E3D0
:10435000F0CFC1302CE7D20779F0C3308CE7D80713
:1043600029F0C115DC4751F40E94EC156FEF7FEF87
:1043700090E080E00E9409340E940816F80126812E
:10438000378121153105B1F0C9010E947309C82F89
:10439000292FF8013281458142954F7092959F7087
:1043A000E92EF12C9C3008F04FC0F701ED54F94C88
:1043B0000C947C33C081D181992369F0CE010E9495
:1043C000E70AF82E682FCE010E945B0BBE018F2DED
:1043D0000E945609DACFCE010E94280BF82EF6CFA4
:1043E000D22FDF70207F11F0D295D07F3323C9F018
:1043F000DD2369F080E28C0F883010F0C1110BC012
:1044000080914F04D82BD0934F040E9447108C2FDB
:104410000E94EA1019C080919006D82BD093900684
:10442000F4CF8C2F0E949B10DD2371F0D09580E299
:104430008C0F883010F0C11115C080914F04D82323
:10444000D0934F040E94471028E0E21AF10884E05C
:10445000E816F10410F40E94361060E0C8010E94D2
:10446000EB0BE5CC80919006D823D0939006EACF51
:10447000822F8F70207F203211F08295807FC13093
:1044800061F4332329F04630F8F60E949110DCCF16
:104490004530D0F60E948610D7CF332319F044233D
:1044A000A1F3B5CF4423B1F3C93349F4FFEF27EEAD
:1044B00083E0F15020408040E1F700C000008C2FE5
:1044C0000E949B10C1CF822F86958695837069F0DC
:1044D000813009F0B9CF8C2F922F9370311102C027
:1044E00080E090E00E947507AFCF8C2F922F9370E1
:1044F000311102C080E090E00E949A07A5CF822F80
:10450000837009F03FC031119FCF3C2F3295369513
:104510003770330F330F4C2F4F7050E0032E02C013
:10452000440F551F0A94E2F790E080E0C4FF09C0F1
:104530008FE090E002C0880F991F3A95E2F78095CE
:104540009095269526952370223099F078F4609105
:10455000520470915304213039F0842B952B86231B
:1045600097230E94910B70CF462B572B842B952BB2
:10457000F8CF842B952B209152043091530482273D
:104580009327EFCF8695332311F0822F81708823F4
:1045900009F45ACF3C2F329536953770330F330FCD
:1045A0004C2F4F7050E0032E02C0440F551F0A9449
:1045B000E2F790E080E0C4FF09C08FE090E002C025
:1045C000880F991F3A95E2F7809590952695269544
:1045D0002370223099F078F4609150047091510466
:1045E000213039F0842B952B862397230E94A11824
:1045F0002BCF462B572B842B952BF8CF842B952B29
:10460000209150043091510482279327EFCFD22F6D
:10461000DF70332329F08D2F0E949B1A8C2F35CF0A
:104620008C2F0E9486108D2F0E94891A0DCFC13FBA
:1046300069F148F4C03FC1F03323A1F14111E7CE45
:10464000822F8F7127C0C23F41F1C33FA9F790E08D
:1046500080E0332359F22F7181E090E002C0880F8F
:10466000991F2A95E2F7C2CF332361F0453008F055
:10467000EBCE2F7181E090E002C0880F991F2A9540
:10468000E2F7BECF463008F0DFCEF3CF822F8F7136
:10469000332351F20E949B1AD7CE822F8F7133237E
:1046A000C9F3C2CF442359F0C93309F008CF9FEFB3
:1046B000E7EEF3E09150E040F040E1F7FECE822FCC
:1046C0008F71B2CF61E0C8010E94EB0BEC010E9438
:1046D0004F076093720370937303809374039093F6
:1046E000750380915004909151042091760330918C
:1046F0007703AC014095509542235323452B31F06D
:10470000282339233093770320937603CD30FEE7B7
:10471000DF0709F091CBF8012281222309F487CB2E
:104720000E94C70B0E94AB1A82CBC631ECE7DE07B2
:1047300009F00FCE80914F048A7A91E009F490E05D
:104740009093F90269E2811165E388ED92E00E949D
:104750005B070E9447106BCBCF93DF9380911F03C1
:10476000807F09F049C080911C03882309F444C06C
:1047700080916303D091220360911A0370911B030F
:10478000A0911D03B0911E03C62FC723D817A1F116
:1047900090E0109711F0CF3F19F401968770F6CF93
:1047A0009C0143E0220F331F4A95E1F7F901ED5DCB
:1047B000FC4F41814713F1CF40814613EECF428138
:1047C0004111EBCF438154814A1B5B0B483C51059F
:1047D00020F780911F038F70806180931F03F90180
:1047E000E85DFC4F80818F70806180838AE193E077
:1047F0000E94051F0E94DD0ADF91CF910895A5E177
:10480000B0E0E5E0F4E20C94FE328C0185E0F801C2
:10481000DE01519601900D928A95E1F7F801E28050
:104820006AE1A62E63E0B62E60911D0370911E030F
:104830006115710509F44BC190911A0340911B0356
:10484000892F84238F3F09F442C120813181C380A5
:10485000D480F0901C03F601E61BF70BFF2009F44F
:1048600011C180911F03582F507FE83CF10508F0DB
:10487000C4C0511175C0FE2C43131EC092131CC03E
:104880006091200370912103F801468157816417DC
:10489000750791F4E11010C08F70806180931F0341
:1048A000C5010E94051F80911F03F80185838F2D8C
:1048B0006596EAE00C941A33C114D10429F0822FD2
:1048C00083238F3F09F01EC180E0F82FF170DF2EA7
:1048D00080FF3CC08091630340912203841315C084
:1048E000298B3A8B89899A890E941B0B292F229543
:1048F0002F702230F8F0243020F59F70F9F0F80185
:104900009581907FD9F4D12C1FC090E0FC0153E039
:10491000EE0FFF1F5A95E1F7ED5DFC4F5181351306
:1049200006C05081251303C05281E5120FC00196C5
:104930008770D4CF9F7011F0882329F3805E883070
:1049400010F3C8010E94051FFD2CB1CFEE2009F421
:10495000AECF80911F03816080931F03F12CA7CFFE
:1049600043131BC0921319C040912003509121039F
:10497000F801268137814217530779F4E1100DC001
:104980008583C8010E94051F88E0F801AAE1B3E011
:1049900001900D928A95E1F78ACFC8010E94960B8B
:1049A000882339F1EE2029F180911F038032A0F095
:1049B00020911A0330911B033A8729871B86DD86D5
:1049C000CC868E878091200390912103988B8F87CE
:1049D000CE0109960E94051F88E0F801AAE1B3E024
:1049E00001900D928A95E1F70E94AC23FF24F39485
:1049F0005ECFC8010E94051FF9CF51110AC08AE19C
:104A000093E00E94051F88E0F50111928A95E9F76D
:104A1000A5CF431318C0921316C0409120035091A4
:104A20002103F801268137814217530761F4E11011
:104A30000AC08583C8010E94051F88E0F501119214
:104A40008A95E9F734CFC8010E94960B882389F232
:104A5000EE2079F280911F03803208F4BDCF2091BF
:104A60001A0330911B033A8329831B82DD82CC8297
:104A70008E83809120039091210398878F83CE01AC
:104A80000196A8CFE83CF105C0F6FE2CEE2009F413
:104A9000B0CF43130EC092130CC02091200330916D
:104AA0002103F801868197812817390711F488E0DE
:104AB0006DCFC8010E94960B81118ECF80911F038C
:104AC000816080931F03C8010E94051FF0CEEE2075
:104AD00009F48FCFC8010E94960BF82E882309F4A1
:104AE00088CF88E0F801AAE1B3E001900D928A95A1
:104AF000E1F780911A0390911B030E941B0B0E9407
:104B0000AC23D5CE81E08E25E0CEA0E1B0E0EBE88D
:104B1000F5E20C94063329873A874B875C876D87CB
:104B20007E878F87988BCE0109960E94FF23811183
:104B300012C088E0FE013996DE01119601900D92B7
:104B40008A95E1F78C859D85892B29F089859A8541
:104B500089238F3F81F5809163039091220389130C
:104B600017C06096E2E00C94223393E0AA0FBB1FBB
:104B70009A95E1F7AD5DBC4F98E0FE01319601904A
:104B80000D929A95E1F7809322030E94DD0AE3CF0C
:104B9000B8E08B9FC00111248D5D9C4F0E94FF23C4
:104BA0008823F9F28091630390E00196877099273A
:104BB00080936303D0CFA0912203B0E0CD01019692
:104BC00087709927209163032817190671F60E94B0
:104BD0001413109222031092630388E0EAE1F3E0D9
:104BE000DF011D928A95E9F7B6CF0F931F93CF93FC
:104BF000DF9380919206E09191061CE081111AC02A
:104C0000DF91CF911F910F91089501E00E0F009356
:104C10009106CE2FD0E0E19FF0011124ED56F94F1F
:104C200083819481892B29F08081918189238F3F11
:104C3000F9F4E02F80919206E81738F3109292066B
:104C400010929106DDCF18968D919C918F3F980719
:104C5000E1F061E00E94DA1A1C9FF0011D9FF00D47
:104C60001124ED56F94F1482138210929006E1CF71
:104C70001C9FD0011D9FB00D1124AD56B94F169643
:104C80008D919C911797892BF1F22081318142817E
:104C9000538164817581868197810E948525DCCF4F
:104CA0001092FE061092FD06109253028091FC06AF
:104CB0008093FB060E94ED070E94F5250895B0E061
:104CC000A0E0E5E6F6E20C94F632C091FB06E7E0E0
:104CD000FE2E01E010E0FCE02F2EAEEFEA2E8091D8
:104CE000FC068C1309C00E94F5250E94ED07CDB784
:104CF000DEB7E2E10C941233D0E0FE01EE0FFF1FAD
:104D0000ED50F94F80819181F89EF001F99EF00DF0
:104D10001124E95AFE4F2481211159C03090920686
:104D2000A3E9B6E030E020E0412C5F01231508F054
:104D30004CC01A966D907C901B97F50180809180F5
:104D40004FEF5FEF512CC52CD12CF601EE0FFF1F5A
:104D5000E80DF91D659174916616770609F4A601B0
:104D6000672B11F05394EFCF4F3F5407B9F1B801BF
:104D700002C0660F771F4A95E2F7462AA801052C64
:104D800002C0440F551F0A94E2F7415051094416DE
:104D9000150601F5229EF001239EF00D1124ED561B
:104DA000F94FF89ED001F99EB00D1124A95ABE4FBB
:104DB00012962D913C91139737832683E082E182EE
:104DC0009187808771E015967C930E94BF0721969A
:104DD000C37085CF14961C921E9213972F5F3F4F7E
:104DE0001C96A4CFA9E1B0E0E8EFF6E20C94F6320D
:104DF000498B5A8B6B8B7C8B8D8B6111109290063B
:104E00001D861E861F86188A85E0FE017196DE01CA
:104E1000199601900D928A95E1F78C859D85892BD5
:104E200031F089859A8589238F3F09F0C9C1298589
:104E30003A854B855C856D857E858F8598890E9436
:104E40008525C7C081352CE7920731F48B858823EF
:104E500071F00E945026EBCF82359C4741F48B8540
:104E6000882329F0809153028111F3CFB7C169855E
:104E70007A8580E00E9456094C0107E511E0E12C9B
:104E8000D12CC12CAA24A394B12C9EEF592E4424DA
:104E90004394F8016081718166246A94762C20E045
:104EA000422F50E0FA01EE0FFF1FE60FF71F85912A
:104EB00094918816990609F43A01892B11F02F5F15
:104EC000EFCFF12CFFEF6F167F0609F444C0F80115
:104ED0004481F09053028F2D411180E0F82FF17042
:104EE000FF2EF801258086819B85992309F4F2C065
:104EF000FF2009F4EFC0211014C0A501062C01C049
:104F0000440F0A94EAF7842B868380918E06909151
:104F10008F06889730F448E250E050938F06409314
:104F20008E06C50102C0880F991F2A95E2F70197E6
:104F3000F80126812817190671F48091FD069091D9
:104F4000FE06009709F449C00E946D18899708F47D
:104F500044C0F8014482EF28FFEFCF1ADF0A095F4F
:104F60001F4F24E2C216D10409F093CF8B8588230A
:104F700009F411C1EE2009F40EC10E947C1890932F
:104F8000FE068093FD0680919206883010F591E030
:104F9000980F9093920698E0FE013996DE011196E3
:104FA00001900D929A95E1F73CE0839FC001112496
:104FB0008D56994F28E0FE013196DC0101900D924B
:104FC0002A95E1F72FEF3FEFFC0131872087938689
:104FD00082866996E2E10C9412338091FB06609020
:104FE000FC06982FF0E0E0E0861114C09093FB06D9
:104FF0000E171F0709F4AFCF90E0FC01EE0FFF1F63
:10500000ED50F94FD182C082019683709927809329
:10501000FC06A1CF282E312CF101EE0FFF1FED5021
:10502000F94F20813181F7E0F29FD001F39FB00D5D
:105030001124A95ABE4F2D913C911197398F288F79
:10504000712C60E070E0E72FF0E0EE0FFF1F288D7D
:10505000398DE20FF31F2591349121153105E1F0CF
:10506000F8010190F081E02DFF8BEE8B60E005C030
:105070002417350709F47F2C6F5FE62FF0E0EE0F61
:10508000FF1F4E895F89E40FF51F4591549141152B
:10509000510571F77F5FD7CF7720C9F0F801671707
:1050A00008F0FD0144820E171F0721F49093FB06C0
:1050B000F72C51CF891305C0AE17BF0711F49F5FBE
:1050C000937091012F5F3F4F822F83708DCFF0E05F
:1050D000E0E0F7CF90E0211020C0B50102C0660FDC
:1050E000771F2A95E2F79B012150310928173907CC
:1050F00031F4442309F44DC0C6010E94BF07C50125
:10510000062C01C0880F0A94EAF7982F9095F801B1
:10511000868189238683F22C1ECF9C01062C02C037
:10512000359527950A94E2F7A90141705527BC01EE
:105130006150710986239723892B39F5452B29F175
:10514000F80182819381892BD9F01B821C821D82F8
:105150001E8259825A820E947C188160582F9D833A
:105160008C83F801828193818F83988729813A818A
:105170004B816D817E810E948525F8011582BFCF0C
:1051800060E0C6010E94DA1AF8CFF22FF1702F2EDC
:10519000B6CF2F2CB4CF9091FB068091FC069817C8
:1051A00031F00E945F26EE2009F441CE12CF0E941A
:1051B000F5251092FE061092FD060E94ED07F3CF32
:1051C00061E0CE0109960E94EB0B8035FCE79F075A
:1051D00009F038CE8B85882309F449CE81E080938D
:1051E000530225CE1F921FB61F9211248F939F93B7
:1051F000AF93BF9380910507811113C0809106077B
:1052000090910707A0910807B09109074196A11D49
:10521000B11D8093060790930707A0930807B093EA
:105220000907BF91AF919F918F911F901FBE1F9053
:105230001895CDB7DEB765970FB6F894DEBF0FBEF1
:10524000CDBF85B7806885BF85B7806885BF84B7C7
:10525000877F84BF0FB6F894A8958091600088611D
:1052600080936000109260000FBE80E890E00FB65F
:10527000F89480936100909361000FBE8BEC98E0EE
:105280009093D7028093D6020E94D5050E9476069D
:105290008091E20084608093E200789480912707F7
:1052A0008823A1F01091E9001F709091EC00892FE4
:1052B000817090FD80E8182B1092E9008091E80041
:1052C00083FD0E942A131F701093E90082E084BDC1
:1052D00093E095BD9AEF97BD80936E001092E10325
:1052E0001092E2031092E3031092E4030E94131061
:1052F000809302010E94131081110E9480318091DD
:1053000002018091020195E0811190E09093F003F9
:1053100085E0891B8093EF0300EB12E0D8018D91AB
:105320008D018F3F11F00E94FC08B2E0053B1B0786
:10533000A9F705EB12E06BEBE62E62E0F62EF80122
:1053400081918F018F3F11F00E94FC08E016F10659
:10535000B1F78AE0E5EFF3E0DF01C82E1D92CA94B1
:10536000E9F7E5EEF3E0DF011D928A95E9F790E0B9
:1053700080E00E94E533873E9E4F09F45EC067EEF1
:105380007EEF90E080E00E94093460E082E090E0EF
:105390000E94EB3360E083E090E00E94EB331092D8
:1053A00053041092520460E074E184E090E00E94A3
:1053B000093460E086E090E00E94EB336FEF87E015
:1053C00090E00E94EB3340E050E0BA0188E090E0CA
:1053D0000E94FD3360E08DE090E00E94EB3340E0FE
:1053E00050E0BA0188E190E00E94FD3360E087E17F
:1053F00090E00E94EB3340E050E0BA018CE190E095
:105400000E94FD3370E060E080E290E00E94093489
:1054100040E050E0BA0188E190E00E94FD3340E0B6
:1054200050E0BA018FE090E00E94FD3340E050E090
:10543000BA0183E190E00E94FD3382E090E00E9497
:10544000DD338093FF0384E090E00E94E533909386
:10545000F2038093F10383E090E00E94DD3390E05B
:105460000E94910B80915004909151040E948818E1
:105470000E94131083E08093740480E2809383047D
:105480000E943A306DE070E087EE94E00E94160FC3
:10549000892B59F58091740463E070E081FD98C018
:1054A00084EE94E00E94160F892BF9F46DE070E011
:1054B00084ED94E00E94160F892BB9F40E944F07E7
:1054C000605A75418F4F9F4F60938806709389068D
:1054D00080938A0690938B060E94FF1281E080934E
:1054E0008D0680938C06109275040E941310811112
:1054F00002C00E9483318FEF9EE19093560180930A
:1055000055018EE090E090935101809350018EE21E
:1055100090E0909354018093530183E091E0909345
:105520000207809301078091270700E112E185308F
:1055300009F48BC00E94AD1830E0E32E34E0F32E66
:1055400045EFC42E43E0D42ED601F70191918D9101
:1055500034E0EA30F30709F482C09817B9F30E94E7
:105560001310882E10E0D6010D916D01F701919076
:105570007F01901629F19026B12CAA24A394892D9D
:105580008A21B1F08820A1F0BE821F8391E0802F94
:105590008A2109F490E098870E947C188160782F16
:1055A0009A8789874E815F8168858A850E94F22665
:1055B000B394AA0CF6E0BF12E2CFF7013197008353
:1055C0001F5F1A3081F60E944F076624639468C0FB
:1055D00081EE94E067CF80912707843039F10E94F3
:1055E000400F10920507E8E1F0E050E4C52E0FB639
:1055F000F894A895E09360000FBEC092600083B756
:10560000817F846083BF83B7816083BF78948895EE
:1056100083B78E7F83BF0FB6F894A8958091600002
:10562000886180936000109260000FBE8091170720
:10563000882359F00E94AD18E5EFF3E081918111C4
:1056400003C523E0EF3FF207C9F7809127078530B4
:1056500009F4C1CF0E9414130E9436106BCF981327
:105660007ECF0E947C188C018091F3039091F4030B
:1056700008171907A1F08FEF89838A831B820E9484
:105680007C188160782F9D838C8349815A816B813E
:105690008D810E94F2261093F4030093F303612C92
:1056A0000E941310882321F180915302882301F175
:1056B0008091FD069091FE060097D1F00E946D1832
:1056C00020918E0630918F062817390788F4909123
:1056D000FB068091FC06981709F4AEC00E945F2675
:1056E00010928F0610928E061092FE061092FD0602
:1056F00080918D068823D1F1809176049091770472
:105700000E946D18C29790F00E947C1890937704C5
:105710008093760460E080E00E949E080E94A00EC4
:10572000182F823009F091C00E94400F80918404AC
:1057300090918504892B09F0A6C380918C0688235B
:10574000A9F00E944F0700918806109189062091C8
:105750008A0630918B06601B710B820B930B6F3F97
:105760007F4F8F4F9F4710F40E94400F61100E949F
:105770005B0F0E94361090917804891721F0809376
:1057800078040E944F070E941310882309F4CBCE9F
:1057900080917C04882309F4C6CE87E08F8790919E
:1057A00079049A3008F0BFCE1C861B868C8712E0E5
:1057B0001D871E8663E070E0CE010C960E94B5083E
:1057C0008B871093370110924A0110E000E030E01F
:1057D00020E044E050E0BE01655F7F4F83E00E941F
:1057E0001E16882309F49FCE30E020E042E050E00E
:1057F0006AE774E084E00E941E16882309F493CEC1
:1058000030E020E041E050E0BE01615F7F4F85E085
:105810000E941E16882309F486CE30E020E050E076
:1058200040E070E060E086E00E941E16882309F4E4
:105830007ACE10927C0477CE0E94F5251092FE0657
:105840001092FD060E94ED0753CF0E945B0F1530AA
:1058500009F045C180910A0490910B040E946D18D3
:10586000C89708F463CF0E947C1890930B04809330
:105870000A04D12CC12C03E010E076012FE1E20EE6
:10588000F11C0032110540F445E56DEF7FEFC801D2
:105890008C0D9D1D0E941F0D4AEA63E070E0C70158
:1058A000801B910B0E941F0D0F5F1F4F03321105CC
:1058B00041F730E2C30ED11CC11452E0D506D9F62F
:1058C00026E0A22E0E94840E8C010E94840E7C0190
:1058D000C8016CE170E00E94493394E0B92EB80E23
:1058E0000E94840E6C018EE18B1520F4AA94A11005
:1058F000E9CF1CCFC70160E870E00E9449339C01EA
:105900008F37A0F7C80164E170E00E94493307E0D7
:10591000080FEB2DF0E0CF01800F911D81970CF463
:1059200081C000E20B19C7016AE070E00E944933B0
:1059300043E0480FC901840F911D8038910514F090
:105940004FE7421B423090F2C60164E170E00E94D2
:1059500049337C01AAE0EA1AF108CF01800F911DBA
:105960008E0D9F1D80970CF00E19822F877068E0B6
:1059700070E0681B7109842F820F582F5770AFEFAA
:10598000B0E0062E02C0B695A7950A94E2F77A2EEB
:105990007094A22FA695A695A69590E2A99FD001F6
:1059A00011246D01CE0EDF1ED98AC88A260F2695D6
:1059B0002695269590E2299F900111246901CE0E2B
:1059C000DF1EDB8ACA8A86958695869520E2829FAD
:1059D000C00111246C01CE0EDF1EDD8ACC8A242E7C
:1059E000312C261A370A251A310829EF22162FEFF3
:1059F0003206E4F08FEF90E001C0880F5A95EAF785
:105A0000B82EB09437FE03C037E0230E311C13E0EC
:105A1000359427941A95E1F710E0F7FE50C0D12C89
:105A2000C12C24C0023008F461CF7DCF312C212C51
:105A3000B12CF2CF472DB701888999898C0D9D1D16
:105A40000E941F0D4B2DB7018C899D898C0D9D1DCA
:105A50000E941F0D4A885B884C0C5D1C912C812C88
:105A60008214930439F49FEFC91AD90AC016D106DB
:105A700008F33CCF4FEFB701C2010E941F0D5FEF4B
:105A8000851A950A80E2480E511CEACF472DB701CE
:105A900088899989800F911F0E941F0D4B2DB70196
:105AA0008C899D89800F911F0E941F0D8A889B8879
:105AB000800E911ED12CC12CC214D30421F40150AC
:105AC000110920F713CF4FEFB701C4010E941F0D3A
:105AD000AFEFCA1ADA0AB0E28B0E911CEDCF11308B
