:100000000C94AD030C94CA030C94CA030C94D62C24
:100010000C94CA030C94CA030C94CA030C94CA032C
:100020000C94CA030C94CA030C94A8260C9464265E
:100030000C94A5270C94CA030C94CA030C94CA030D
:100040000C94CA030C94CA030C94CA030C94CA03FC
:100050000C94CA030C9481270C94CA030C94CA0311
:100060000C94CA030C94CA030C94CA030C94CA03DC
:100070000C94CA030C94CA030C94CA030C94CA03CC
:100080000C94CA030C94CA030C94CA030C94CA03BC
:100090000C94CA030C94CA030C94CA030C94CA03AC
:1000A0000C94CA030C94CA030C94CA03E1003132C5
:1000B0000000240025002600000026002700000084
:1000C0002400250000002500260000001E001F005F
:1000D00000000F0018001C0000002A0034313132EB
:1000E0000000400041004200430000002C4328284B
:1000F00000000B003600000017000A000000080096
:100100000C00000018001C00000036003700000042
:100110001200343100003824313200003700382416
:1001200000001D24070000001B00190000001B0038
:10013000070000000600070000001B00060000008A
:100140001D241B0000000900130000001A00090014
:1001500000000A00370000001600370000000C0005
:10016000370000000900370000001B0037000000C6
:100170001500370000001A00370000001400370097
:1001800000000700370000001700370000001300D0
:10019000370000000B003700000004443700000067
:1001A000220027003C5441473E3C2F5441473E002B
:1001B0003C696D67207372633D22696D6167655F9D
:1001C000736F757263655F6F725F6C696E6B5F678B
:1001D0006F65735F686572652220616C743D226E85
:1001E000616D655F69665F63616E745F6C6F6164AA
:1001F000222077696474683D226E756D5F7069783E
:10020000656C7322206865696768743D226E756D40
:100210005F706978656C73223E003C61206872658E
:10022000663D226C696E6B5F676F65735F686572B0
:1002300065223E6E616D655F6F665F6C696E6B5FB8
:10024000676F65735F686572653C2F613E003C6651
:100250006F6F7465723E3C2F666F6F7465723E00FF
:100260003C626F64793E3C2F626F64793E003C686B
:100270006561643E3C2F686561643E003C68746D56
:100280006C206C616E673D22656E223E3C2F687467
:100290006D6C3E003C7374796C653E3C2F737479D1
:1002A0006C653E003C7469746C653E3C2F746974E7
:1002B0006C653E003C703E3C2F703E003C646976AD
:1002C0003E3C2F6469763E00636F6E736F6C652EE3
:1002D0006C6F6728272729002829203D3E207B7D39
:1002E000002829203D3E2000636F6E737420796FD3
:1002F000757246756E635661726961626C65203D08
:100300002028782C7929203D3E2078202B20792E1A
:100310006D6574686F643B005B5D007B7D00282920
:10032000003C3E0032001E001F0020002100220081
:10033000292F14001A000900130005002B2504447E
:100340001500160017000A00E1001D241B0006001E
:100350000700190000000D2428282C427321100DDD
:100360006152270026002500240023002A003300C4
:100370001C0018000F000D00343112000C000800A2
:100380001100100031323824370036000B000E0007
:100390000000AE004C432C422721352432001E00C1
:1003A0001F00200021002200292F14001A0008003D
:1003B000150017002B2504441600070009000A0049
:1003C000E1001D241B0006001900050000000D249B
:1003D00028282C427321100D60522700260025008A
:1003E000240023002A00130012000C0018001C0037
:1003F000343133000F000E000D000B003132382471
:1004000037003600100011000000AE004C432C42B3
:100410002721352432001E001F0020002100220069
:1004200035021E02360237022E0023022B02200262
:100430002F24262227283021E1001F0221022F022B
:10044000300222020000010001002C4401001405CA
:10045000117E270026002500240023002A003302F5
:100460002600250024002502570056002300220004
:10047000210024023102540020001F001E0027002A
:100480000000AB0027003744010035021C701E003D
:100490001F002000210022001B70D300D200CD00DD
:1004A000D100010001000100CF00CE00D00001000A
:1004B0000100CF00CD00CE00D000010000000100FF
:1004C00028082C4401002708117E2700260025005B
:1004D000240023002A00D300D200D300D100A800BA
:1004E000010030082F08097E087EA90001000100E4
:1004F0000C7E0A7E0B7EAA00000027080100010086
:100500000100010001003A003B003C003D003E00BC
:100510000100010042004300440045003900010091
:100520003E243F2240284121010001003A003B00C7
:100530003C003D0000000100280801000D7E010084
:10054000117E47004F08520C50084B012A005300FF
:100550004D0052004A004E01107E0F7E4F005100A8
:100560005000107E49004F084E00510C4B000D7E8C
:10057000000001000100010001000E7E05010906D6
:10058000A1018501050719E029E715002501950856
:10059000750181029501750881010507190029FF80
:1005A000150026FF00950675088100050819012928
:1005B00005950575019102950175039101C005012D
:1005C0000902A10185020901A100050919012908F3
:1005D00015002501950875018102050109300931D1
:1005E0001581257F95027508810609381581257FBB
:1005F000950175088106050C0A38021581257F953D
:100600000175088106C0C005010980A10185031993
:10061000012AB700150126B700950175108100C0A9
:10062000050C0901A101850419012AA00215012662
:10063000A002950175108100C0090222000101008D
:10064000A0FA0904000001030101000921110100C1
:100650000122BD00070581032000011201000200F4
:10066000000008134022201300010200010E034C79
:1006700000650065006C006F006F000000260343FA
:10068000006C00690063006B006500740079002055
:1006900000530070006C006900740020004C00746E
:1006A00000640000000403090400000000000000D2
:1006B000000000000000000000000000000000003A
:1006C000000000000000000000000000007E0F009D
:1006D000D4FFFFFFC700000078000000000000000A
:1006E000002A2B280000000000000000000000008D
:1006F0000000000029000000002C1E3420212224CC
:10070000342627252E362D3738271E1F2021222359
:100710002425263333362E37381F040506070809EB
:100720000A0B0C0D0E0F10111213141516171819B1
:100730001A1B1C1D2F3130232D350405060708090F
:100740000A0B0C0D0E0F1011121314151617181991
:100750001A1B1C1D2F3130354C0011241FBECFEF4A
:10076000DAE0DEBFCDBF12E0A0E0B1E0EEE8F2E6F5
:1007700002C005900D92A43AB107D9F724E0A4EA8B
:10078000B2E001C01D92AA35B207E1F70E94CC2762
:100790000C94E6300C940000E8EDF0E080818E7F50
:1007A00080831092E2001092DA001092E100A0EE35
:1007B000B0E08C9181608C9380818F77808319BCAD
:1007C000A7EDB0E08C918E7F8C9380818F7E8083AB
:1007D00010923C0408952091E4003091E50095E6E4
:1007E000A9012091EC00822F817020FF06C080912A
:1007F000E80080FF06C080E008952091E80022FD17
:100800001AC080915904882389F0853089F080913D
:10081000EB0085FD0FC02091E4003091E500421708
:100820005307F9F29150E1F684E0089582E00895CB
:1008300083E0089581E008958091510487FF13C0FB
:100840008091E80082FF06C08091E8008B7780935A
:10085000E80004C0809159048111F2CF089580917D
:1008600059048823D9F38091E80080FFF8CF809164
:10087000E8008E77ECCF982F9093E900242F762F05
:1008800050E0891731F07091EC002091ED0050910B
:10089000F00021FD07C09F5F973071F78093E9005A
:1008A00081E008953091EB003E7F3093EB00309172
:1008B000ED003D7F3093ED003091EB0031603093DF
:1008C000EB007093EC002093ED005093F00020912A
:1008D000EE0027FDE0CF80E00895B0E0A0E0E3E780
:1008E000F4E00C94FC2DC8EDD0E088818F7E8883E5
:1008F000E7EDF0E080818160808384E082BF81E069
:1009000080933C0488818E7F888302EE10E0F8019A
:1009100010821092DA0081EEC82ED12CF6011082DE
:1009200088818F77888388818068888388818F7D9C
:10093000888319BC109259041092500410924904F3
:100940001092480490EEE92EF12CF70180818B7F04
:10095000808388818160888342E060E080E00E943B
:100960003B04F60180818E7F8083F8018081816065
:100970008083808188608083F70180818E7F80837F
:10098000888180618883CDB7DEB7E8E00C94182EAB
:10099000FC01809157049091580486179707A0F0A6
:1009A0006115710529F49091E8009E779093E80015
:1009B00090E06115710551F4911108C08091E80033
:1009C00082FF34C080E00895BC01F2CF80915904C9
:1009D0008823C1F18530C1F18091E80083FD30C0EA
:1009E0008091E80082FDEACF8091E80080FFE1CFAE
:1009F0008091F3002091F200382F6115710519F0F4
:100A00002830310558F091E02830310509F090E0A8
:100A10002091E8002E772093E800CBCF819180933E
:100A2000F100615071092F5F3F4FE7CF809159046A
:100A3000882341F0853041F08091E80083FFBECFEC
:100A400081E0089582E0089583E0089580913E0456
:100A500008959C014FB7F89480913804909139041F
:100A6000A0913A04B0913B044FBF821B930B0895B1
:100A70002FB7F894609138047091390480913A044A
:100A800090913B042FBF08952FB7F89480913804BC
:100A900090913904A0913A04B0913B042FBF08957E
:100AA0009C01FC0133969FEF80E04191461751F085
:100AB0009F3F19F4411101C0982F8F5F8630A9F72D
:100AC0009F3F09F40895290F311D97FD3A95F901CB
:100AD00063830895A3E0B0E0E0E7F5E00C94022E14
:100AE000209135043091360428173907A1F09093EE
:100AF000360480933504E0913304F0913404309748
:100B000051F024E029839B838A830680F781E02DBE
:100B1000CE01019609952396E2E00C941E2EA3E0E7
:100B2000B0E0E5E9F5E00C94022E2091310430911B
:100B3000320428173907A1F09093320480933104CE
:100B4000E0913304F0913404309751F023E029838D
:100B50009B838A830680F781E02DCE01019609955B
:100B60002396E2E00C941E2EDC0160912D0480910E
:100B70002E04962F891301C00895292F30E0F90122
:100B8000EE0FFF1FEB5DFB4F408151814A175B0762
:100B9000A1F487E08A9FA0018B9F500D1124475C30
:100BA0005E4F81E0FA0184839613E6CF2F5F3F4FBB
:100BB0002370332720932D0408952F5F3F4F922FEA
:100BC0009370D8CF1092C1031092C003E9E3F1E013
:100BD0008581811102C014821682379682E0EA3440
:100BE000F807B1F70895FC01680F791F8FEF91E3C3
:100BF0002191822728E030E087FF09C0880F8927EC
:100C000021503109C9F7E617F70791F70895880FC2
:100C1000F7CF0E9444059C019091B8038091B903DD
:100C2000982B21F03093B5032093B4039091BA032D
:100C30008091BB03982B21F03093B3032093B20330
:100C4000E0913304F0913404309749F082E08093CE
:100C5000B6030480F581E02D86EB93E009950895B5
:100C60008F929F92AF92BF92CF92DF92EF92FF92BC
:100C70008091B103982F957071F0C12CD12C20E494
:100C8000E22E22E4F22E82FD52C0C12CD12CE12CA6
:100C900091E4F92E4CC08091B0038823B1F3E09029
:100CA000AE03F090AF03E114F10479F320E030E0FB
:100CB00048EC51E460913501709136018091370123
:100CC000909138010E94062F8823F9F2C7010E94F3
:100CD000290562E370E00E94292E90E080E00E94E6
:100CE000AC2F6B017C0120E030E040E05FE30E942C
:100CF0006330A70196010E9463304B015C0120E044
:100D000030E040E051E4C701B6010E949A2E9B01F9
:100D1000AC01C501B4010E949A2E6B017C0120E058
:100D200030E048EC51E40E945E3018160CF1A70147
:100D3000960160E070E08AE794E40E940B2F6093D4
:100D40003501709336018093370190933801C701C4
:100D5000B6010E947D2F81E0693008F082E0FF90AB
:100D6000EF90DF90CF90BF90AF909F908F900895BD
:100D7000C12CD12C88ECE82E81E4F82ED8CF8F92AC
:100D80009F92AF92BF92CF92DF92EF92FF928091AB
:100D9000B103982F957081F0C12CD12C38ECE32E43
:100DA00033E4F32E82FF4AC0C12C20E8D22E2BE37D
:100DB000E22E25E4F22E42C08091AD03882309F48F
:100DC0005DC08091AE039091AF03009709F456C0C7
:100DD0000E94290562E370E00E94292E90E080E0E5
:100DE0000E94AC2F6B017C0120E030E040E851E430
:100DF0000E94633020E030E048EC52E40E949A2EDA
:100E00004B015C0120E030E040E051E4C701B60155
:100E10000E946330A70196010E9463309B01AC01E0
:100E2000C501B4010E949A2E6B017C0120E030E0E4
:100E300046E954E40E945E3018163CF120E030E0B0
:100E40004AEF52E4C701B6010E940B2F0E947D2F8A
:100E5000662311F18FE767FD08C070E090E080E045
:100E60000E94AC2F0E947D2F862FFF90EF90DF9085
:100E7000CF90BF90AF909F908F900895C12CD12CB0
:100E800098ECE92E92E4F92ED9CFC12CD12C86E929
:100E9000E82E84E4F82ED2CF60E070E080E89FE393
:100EA000E1CF80E00895F894E82FE295EF70F0E04C
:100EB00031A1282F2F7081E090E001C0880F2A9582
:100EC000EAF7982F9095932391A392A1892B82A35F
:100ED0007894089590918B0392FF06C0282F287173
:100EE0002830F9F4877F846093FF06C0282F28718B
:100EF0002831F1F4877E846120918C0320FF06C0A5
:100F0000382F38713830D9F4877F816021FF06C0CF
:100F1000282F28712831D1F4877E816194FD877E46
:100F20000895282F24712430F9F68B7F8860DCCF58
:100F3000282F2471243101F78B7E8861DDCF382F73
:100F40003171313019F78E7F8860E0CF282F217101
:100F5000213121F78E7E8861E1CF972F7A30B8F466
:100F60006630A8F4853098F470E026E0929F600D1A
:100F7000711D1124FB019CE3899FE00DF11D1124DB
:100F8000EE0FFF1FEC5DFC4F85919491089580E07A
:100F900090E00895CF93DF93EC0182389105B9F189
:100FA00008F041C08133910509F49FC050F58932A2
:100FB000910509F48FC08A9709F49EC0C11520E5F8
:100FC000D20708F0BDC0C11530E4D30708F00AC14C
:100FD000C03ED10508F0A5C0CD3CD10508F000C148
:100FE000C83AD10508F08FC0C53AD10508F0F0C065
:100FF000C130D10539F1209729F1C430D10510F560
:1010000046C08533910509F460C0C997B9F680914F
:101010008B03837009F044C180918C0383FF12C05D
:10102000C9E2D0E00FC0833E9105A1F178F4803E83
:10103000910509F1823E910509F0C0CF80918B03A3
:1010400082FD21C0CE01DF91CF910895863E9105AA
:1010500061F1873E910571F1843E910509F0AECFB3
:1010600080918C0381FFEECF80918B03C7EED0E09F
:1010700084FD0DC0E7CF80918B0380FD33C090913C
:101080008C0390FFDFCFC3EED0E084FFDBCFD0E056
:10109000C0E0D8CF80918B0382FDFFC090918C037C
:1010A00090FDFEC084FFCECFF2CF80918B0383FDF5
:1010B000DDCFC8CF80918B0383FDF5C090918C0369
:1010C00091FFF0CFC4EED0E0BDCF80918B0385FFC0
:1010D000B9CFA6CF80918B0385FDE8C080918C03AA
:1010E00083FFB0CFC9E3D0E0ADCF80918B0386FF03
:1010F000A9CFCAE2D0E0A6CF80918B0386FFA2CF12
:10110000C1E3D0E09FCFC43CD10508F6C85AD0E077
:10111000CC0FDD1FC15BDD4F0990D881C02DD46499
:1011200091CFC11540E2D40708F0AAC0C11581E0F3
:10113000D80708F087CFC83ED10508F483CFA7CFE2
:10114000C03622E5D20718F5C03432E5D30708F0DF
:1011500053C0C03242E5D40708F047C0C11582E54C
:10116000D80708F47FC02C2F2695269540E2249FAF
:10117000900111248C2F8370C1E0D0E002C0CC0F0D
:10118000DD1F8A95E2F7C22BD32BDD685BCFC03A17
:1011900022E5D20760F4C03832E5D30708F441C035
:1011A000CF71D0E0DC2FCC27C46FD06A4BCFC03CCE
:1011B00042E5D40708F44AC0C03E82E5D80708F0EB
:1011C00066CFDC2FCC27CC27DF71C06FD06A3ACF37
:1011D000C55AD0E0C45BDD4FC881D0E0D06432CFC7
:1011E000D06530CFDF70D06A2DCFCF71D0E0DC2F4B
:1011F000CC27C16FD06A26CF2C2F26952695277035
:1012000080E2289F900111248C2F8370C1E0D0E0F0
:1012100002C0CC0FDD1F8A95E2F7C22BD32BDC680E
:1012200011CF2C2F26952695277040E2249F900100
:1012300011248C2F8370C1E0D0E002C0CC0FDD1FE1
:101240008A95E2F7C22BD32BDA68FCCE8C2F8F71F4
:101250000E946A07C82FD0E0DC2FCC27CC27DF7193
:10126000D062F0CE8C2F8F710E946A0735E0D69540
:10127000C7953A95E1F7CF709C2FEC01D069E2CE8B
:101280008D2F8F710E946A0790E0982F88278827FA
:101290009F719C012C2BE901E3CFC2EED0E0D2CEAE
:1012A000C0EED0E0CFCEC6EED0E0CCCEC5E3D0E0ED
:1012B000C9CE0E943805089580913903882331F002
:1012C00010923903109238031092370308958091D9
:1012D000BF0381110FC01092BC030E945C090E94E1
:1012E000440588579C4E9093BE038093BD0381E0D4
:1012F0008093BF030895CF93C82F80918C0382FF02
:101300000CC0809139038C1741F00E9444059093E2
:10131000380380933703C0933903CF910895909198
:10132000C203892B8093C203089580959091BC03DA
:1013300098239093BC03089580912A039091E90229
:10134000981301C008958F5F8770FACFB0E0A0E0D6
:10135000ECEAF9E00C94FB2D7C01009189031091DB
:101360008A038091870390918803082B192BCFE083
:10137000D0E0CC24C394D12CBC2EC6010C2E02C0CC
:10138000880F991F0A94E2F780239123892B49F44F
:10139000219790F7B12C8B2DCDB7DEB7E9E00C94F7
:1013A000172EB7018C2F0E94AD070E94CA07019724
:1013B00079F3F1CFCF93DF93EC010E94A609BE0130
:1013C0000E94AD070E94CA07DF91CF9108959A301D
:1013D00078F5863068F5E82FF0E086E0989FE00D1C
:1013E000F11D11249E2F977083E0F695E7958A955D
:1013F000E1F7EE0FFF1FEE0FFF1FEF53FD4F50E021
:1014000040E080E0219130E0092E02C0369527951A
:101410000A94E2F721703327042E01C0220F0A94A8
:10142000EAF7822B4F5F5F4F4430510559F708951B
:1014300080E008959A3098F5863088F5E82FF0E03E
:1014400086E0989FE00DF11D11248E2F877041E0FA
:1014500001C0440F8A95EAF783E0F695E7958A95EF
:10146000E1F7EE0FFF1FEE0FFF1FEF53FD4F30E0D0
:1014700020E070E05191DF011197CB01022E02C0F4
:10148000969587950A94E2F7817081958527842344
:1014900085278C932F5F3F4F2430310559F70895EE
:1014A00090938A0380938903089521E030E002C07D
:1014B000220F331F8A95E2F720953095809189039A
:1014C00090918A03822393230E94500A0895909159
:1014D0002D038095892380932D03282F2770B1F445
:1014E000282F082E000C330B9217130679F09091D9
:1014F0008C0392FF0BC08595859585950E94550AB2
:1015000010922D0310922C0310922B03089521E0CA
:1015100030E002C0220F331F8A95E2F780918903E1
:1015200090918A03822B932B0E94500A08959093E6
:101530008803809387030895FC0183819481892B1C
:1015400029F08081918189238F3FF1F480E0089513
:101550000E94CA0792959F70963089F058F4925F66
:101560009F70923098F7803F19F030F4883E70F702
:1015700081E008959A5FF4CF843F41F7F9CF883E28
:10158000B8F3813F19F7F4CF86819781009701F76F
:10159000808191810E94DA09DDCFCF93DF93C82F3C
:1015A000662309F469C08091AE039091AF03892B43
:1015B00031F40E9444059093AF038093AE03CD3C79
:1015C00051F40E94BF0681958093B9030E940906D9
:1015D000DF91CF910895CE3C19F40E94BF06F4CF5D
:1015E000CF3C31F40E94BF0681958093B803EECFC3
:1015F000C03D19F40E94BF06F8CFC93D29F40E94EE
:1016000030068093BA03E2CFCA3D21F40E9430062F
:101610008195F7CFCB3D31F40E94300681958093C0
:10162000BB03D4CFCC3D19F40E943006F8CF8FE233
:101630008C0F883070F4C15DDD0B21E030E001C01B
:10164000220FCA95EAF78091B703822B8093B703E4
:10165000BDCF8091B1038160CD3D59F08091B10340
:101660008260CE3D31F0CF3D09F0B0CF8091B10323
:1016700084608093B103AACF4091B8038D3C79F484
:101680008091B90387FF11C01092B90341110FC0B7
:101690001092AD031092AF031092AE0308C08E3CBF
:1016A00081F48091B90318167CF3442381F0809172
:1016B000BA039091BB03892B09F088CF1092B00335
:1016C00085CF8F3C49F447FFF0CF1092B80380914B
:1016D000B9038111ECCFDCCF803D19F41416ACF3C3
:1016E000E4CF8091BA03C93D29F41816F4F610929C
:1016F000BA03DBCFCA3D19F487FFD7CFF8CF80916B
:10170000BB03CB3D29F487FFD0CF1092BB03CDCFD5
:10171000CC3D19F41816CCF3C8CF8FE28C0F88306B
:1017200078F4C15DDD0B81E090E001C0880FCA95BF
:10173000EAF780959091B70389238093B703B5CFDB
:101740008091B1038E7FCD3D59F08091B1038D7FA3
:10175000CE3D31F0CF3D09F0A8CF8091B1038B7F12
:101760008093B103A2CFA5E0B0E0E9EBFBE00C94DD
:10177000012E9C01FC01868197810097E1F485E0B0
:10178000DE01119601900D928A95E1F7F90122810F
:1017900089819A81222399F0662389F00E94A60903
:1017A000182F682F89819A810E941A0A69817A818B
:1017B000812F0E94AD072596E3E00C941D2E0E9418
:1017C000E709182FF3CF9C013A9521153F4150F5B9
:1017D000FC01EE27F170BC0166277270AC01442752
:1017E00054709C012227387094FF0EC080E1EF2BCB
:1017F00009F480E0672B09F08062452B09F08064D2
:10180000232B89F08068089581E0EF2B09F480E0B4
:10181000672B09F08260452B09F08460232B19F0B7
:101820008860089580E008950F931F93CF93DF930E
:1018300001E010E0082E02C0000F111F0A94E2F729
:10184000C0914303D09144039E0120233123232BD5
:1018500021F590912D03959595959595891306C041
:1018600010922D0310922C0310922B030E94870AD2
:101870000E94380560933F037093400380934103B7
:1018800090934203C027D127D0934403C0934303CE
:10189000DF91CF911F910F9108950E94550AF2CFC9
:1018A0000F931F93CF93DF938C01EB018091590429
:1018B000843069F581E08093E9008FEF9091E80032
:1018C000815095FD06C095ED9A95F1F700008111C4
:1018D000F5CF8091E80085FF1AC00E94EB038111CB
:1018E00011C08091E80085FD06C08091E8008E77E8
:1018F0008093E800F2CFF80181918F018093F1008D
:10190000219779F78091E8008E778093E800DF9146
:10191000CF911F910F91089563E070E00E94500CE9
:10192000089566E070E00E94500C0895CF93DF9315
:10193000EC0180914B02811111C068E070E0CE0192
:1019400001960E94500C89E0FE01AFE3B4E00190E3
:101950000D928A95E1F7DF91CF91089569E070E0EB
:10196000CE01EFCFB0E0A0E0E8EBFCE00C94FA2D64
:101970007C015B016A018091740301E010E08A3010
:1019800010F40AE010E0C1E0D0E0B501C701F601B3
:101990000995811104C021960C171D072CF4CDB7B1
:1019A000DEB7EAE00C94162ECC9F9001CD9F300D4F
:1019B000300D112490E080E045E34A95F1F70000F6
:1019C000019682179307C1F7E0CF809156038111EA
:1019D00010C08091D80080618093D8008AE18A95F8
:1019E000F1F700C08091D90080FF0AC081E08093A8
:1019F000560381E090915603913009F080E00895FC
:101A000082E0809356030E94CC0310925904F1CFD8
:101A10000E94E50C882359F0E0913304F0913404DE
:101A2000309729F00190F081E02D0995089580E02C
:101A300008958091BC039091C203892B8093A702E3
:101A400080913903882319F10E94440520913703BE
:101A500030913803821B930B883E934010F00E9414
:101A60005C098091A70290913903892B8093A7028A
:101A700020E089EA92E0FC013191CF0131112F5F22
:101A8000F2E08F3A9F07B9F721110E945C0949E003
:101A900050E06EE273E086EA92E00E94D030892B3B
:101AA000C1F089E0E6EAF2E0AEE2B3E001900D9227
:101AB0008A95E1F7E0913304F0913404309749F0CE
:101AC00081E08093A6020280F381E02D86EA92E015
:101AD00009950895882341F080959091C203892348
:101AE0008093C2030E94190D08958091BF0388233B
:101AF00029F082E20E946A0D1092BF0308958823A4
:101B000021F00E948F090E94190D0895882321F069
:101B10000E9495090E94190D0895882339F090912B
:101B2000BC03982B9093BC030E94190D0895882341
:101B3000D1F19CEF980F913A78F4E9EAF2E09191B3
:101B4000891303C0DF0111971C9292E0EF3AF90765
:101B5000B1F70E94190D089590E2980F983050F453
:101B6000877091E001C0990F8A95EAF7892F0E944A
:101B70009509EFCF9BE5980F933028F490E080E033
:101B80000E948F05089598E5980F993128F490E008
:101B900080E00E946A05089593E3980F933118F44A
:101BA00060E00E94CD0A0895CF93DF93EC010E947C
:101BB000970DCE010E94E30BC05ED109289728F44F
:101BC0000E94860DDF91CF9108950E946A0DFACF91
:101BD000CF93C82F8823A9F08CEF8C0F813A00F5A2
:101BE000E9EAF2E0DF018D91C81769F082E0AF3ACF
:101BF000B807C9F76C2F86EA92E00E9450050E9450
:101C0000190DCF9108958191C81303C0DF01119779
:101C10001C9282E0EF3AF807B1F70E94190DEACF63
:101C200080E28C0F883068F4C77021E030E001C09A
:101C3000220FCA95EAF78091BC03822B8093BC03E4
:101C4000DECFEBE5EC0FE33040F4F0E0E45BFD4F7A
:101C5000808190E00E948F05D4CFE8E5EC0FE93158
:101C600050F4F0E0EE0FFF1FE15BFD4F80819181AA
:101C70000E946A05C6CF83E38C0F833110F661E0C2
:101C80008C2F0E94CD0ABDCF1F93CF93DF93182FC7
:101C9000EB010E94E80D209739F4812F0E94970DE7
:101CA000DF91CF911F9108958FE99FE00197F1F7A0
:101CB00000C000002197EFCF70E060E0893311F49D
:101CC00060E570E00E94440E0895B0E0A0E0EBE60D
:101CD000FEE00C94FA2DEC018AE0A82EFE0124917E
:101CE000222309F497C0213009F03EC03196849137
:101CF000813031F42296FE0184910E945C0E07C06F
:101D0000823039F42296FE0184910E94E80D2196DA
:101D1000E5CF833031F42296FE0184910E94970D25
:101D2000F6CF843009F074C02296FE01249190E031
:101D300080E0FE0131962053330B2A30310548F004
:101D4000019728F3EFE9FFE03197F1F700C00000B9
:101D5000F7CFA89EA001A99E500D1124C901840FA0
:101D6000951F2491EF01E5CFE22FF0E0E752F94F04
:101D7000B490822F86958695869590E0FC01E75376
:101D8000F94FE4902770F12C022E02C0F594E794ED
:101D90000A94E2F731E0E322FF24FC01E754F94F13
:101DA000C490D12C022E02C0D594C7940A94E2F7B5
:101DB000E1E0CE22DD24FC01E755F94F049110E06B
:101DC00002C0159507952A95E2F701701127E114D5
:101DD000F10419F081EE0E94E80DC114D10419F04C
:101DE00086EE0E94E80D8B2D0E945C0EC114D1047A
:101DF00019F086EE0E94970DE114F10419F081EEBE
:101E00000E94970D0115110509F481CF8CE275CF61
:101E1000EF017DCFCDB7DEB7EAE00C94162ECF935D
:101E2000DF93EC010E94E30B9E01205E3109283014
:101E3000310540F40E948D0D8C2F0E94E80DDF913A
:101E4000CF9108950E947F0DF7CF0F931F93CF93EB
:101E5000DF938C01D0E0C0E0C99711F4C0E5D0E079
:101E6000C8010E940F0F209741F4C8010E94D40DB1
:101E7000DF91CF911F910F9108958FE99FE0019716
:101E8000F1F700C000002197EECFCF93DF93D82F5A
:101E9000C62F0E9444052091AF023091B002821BF0
:101EA000930BC29708F46AC00E9444059093B00255
:101EB0008093AF028091890390918A03B0E0A0E003
:101EC000492F5A2F6B2F772720E0411551056105C7
:101ED000710519F0DB01CA0128E0AC01BD01F4E095
:101EE0007695679557954795FA95D1F74115510520
:101EF0006105710519F02C5FDB01CA01AC01BD0160
:101F0000E2E07695679557954795EA95D1F74115A3
:101F100051056105710519F02E5FDB01CA01B69507
:101F2000A79597958795892B8A2B8B2B09F02F5F87
:101F3000233009F44EC02430D1F1223009F052C0D0
:101F4000D1112AC0D091BC038D2F8272D9F08D2F70
:101F50000E94860D2FEF81EE94E02150804090404A
:101F6000E1F700C0000086E395E0C11102C087E3FD
:101F700095E00E94250F8D2F0E948D0D80E0DF914E
:101F8000CF9108958D2F0E94860D8EEBC11101C057
:101F90008DEB0E945C0EEFCFD13081F78DE198E0A0
:101FA000CC2311F08DE19AE00E94250FE7CFD111EB
:101FB00007C08EE09EE7C111F7CF8DE09EE7F4CF1A
:101FC000D130E1F68FE49BE0CC2371F380E59BE018
:101FD000EBCFD13099F686E598E0CC2329F387E55D
:101FE00098E0E2CFD11107C08BE29AE0C111DCCFBB
:101FF0008BE298E0D9CFD13009F68AEA90E0CC2381
:1020000099F289EA90E0D0CF90918C0392FB22273D
:1020100020F9281779F080FB92F990938C03609156
:102020008B0370918C0384E090E00E94832E82E009
:102030000E94670A0895CF931092BC03C6E0E9EAB4
:10204000F2E0DF018C2F1D928A95E9F790E080E0A5
:102050000E948F0590E080E00E946A051092C20302
:102060000E94190DE6EBF3E0DF011D92CA95E9F736
:102070001092AD031092B0031092B1030E940906B2
:10208000CF910895AAE2B0E0E8E4F0E10C94012ECB
:1020900081E594E02091F100FC012193CF01F4E06F
:1020A00089359F07B9F780915204833009F470C0D5
:1020B000B8F4813009F447C0823009F4B1C080918E
:1020C000E80083FF39C180915104909152049A3005
:1020D00008F032C1E92FF0E0E851FF4C0C94512E8A
:1020E0008A3009F48CC08B3009F46FC0893039F71D
:1020F00080915104813219F78091550490915604D2
:10210000892BE9F68091E800877F8093E800809131
:10211000E80082FF38C09091F3008091F2000297AE
:1021200031F48091F100813011F0863021F48091FA
:10213000F10080933E048091E8008B778093E80063
:102140000E941C04BCCF80915104813A09F0B7CFA2
:102150008091E800877F8093E800809155049091FA
:102160005604892B61F469E08FE394E070E00E94EB
:10217000C8048091E8008B778093E800A0CF60E0EE
:1021800090E080E0F3CF809159048111C0CF97CFC8
:1021900080915104813A09F092CF80915504909139
:1021A0005604892B09F08BCF8091E800877F8093BC
:1021B000E8008091E80080FFFCCF80914B02809383
:1021C000F1008091E8008E77B9CF8091510481327F
:1021D00009F075CF8091550490915604892B09F030
:1021E0006ECF8091E800877F8093E8000E941C04F6
:1021F0008091530480934B020E941B1060CF80910A
:102200005104813209F05BCF8091E800877F809391
:10221000E8000E941C048091540480933D044FCF39
:1022200080915104813A09F04ACF8091E800877F7C
:102230008093E8008091E80080FFFCCF80913D040E
:10224000BECF803899F0823809F076C0809155046D
:102250008F70873008F070C08093E9008091EB00A8
:1022600085FB882780F91092E90006C08091480418
:1022700090914904911182609091E800977F90932A
:10228000E8008093F1001092F1008091E8008E77D1
:10229000B6C1882309F4A3C1823009F04DC08091F2
:1022A00053048111A7C1809155048F702FEF280F1F
:1022B000263008F041C08093E9002091EB0020FF18
:1022C00099C1933031F48091EB0080628093EB00F0
:1022D00091C19091EB0090619093EB0021E030E090
:1022E00001C0220F8A95EAF72093EA001092EA00D3
:1022F0008091EB008860EACF81111EC010915304D9
:102300001F778091E3008078812B8093E300809198
:10231000E800877F8093E8000E941C048091E80019
:1023200080FFFCCF8091E30080688093E30082E02F
:10233000111183E0809359048091E80083FF0AC063
:102340008091E800877F8093E8008091EB008062B5
:102350008093EB00AA96E3E00C941D2E8058823007
:1023600058F780915304909154048C3D23E09207D8
:10237000A1F583E08A838AE289834FB7F894DE016E
:10238000139620E03EE051E2E32FF0E05093570037
:10239000E49120FF03C0E295EF703F5FEF708E2F56
:1023A00090E0EA30C0F0C7968D939D932F5F243163
:1023B00059F74FBF8091E800877F8093E8006AE279
:1023C00070E0CE0101960E94C8048091E8008B77EE
:1023D0008093E800B1CFC096E7CF4091550450916B
:1023E0005604292F33272330310509F440C078F5EE
:1023F0002130310509F48EC082E290E0E9E3F6E095
:102400002230310509F098CF2091E800277F2093F2
:10241000E80020915704309158048217930708F47C
:102420009C0140E02115310509F079C0411177C0C8
:102430008091E80082FDC9CF80915904882329F258
:10244000853019F28091E80083FFF2CFBECF2132B0
:10245000310509F457C02232310509F06DCF452B03
:1024600009F06ACF8DEB90E0ECE7F5E0CDCF20915D
:1024700057043091580440914A044F5F40934A04F6
:1024800030934F0420934E0422303105B1F4209153
:102490004B042F5F20934B0499278130910551F114
:1024A0000097E9F0029709F047CFEDE6F6E0E491F6
:1024B0008E2F90E0EDE6F6E019C02430310531F4BE
:1024C00020914C042F5F20934C04E6CF2F3F310521
:1024D00019F720914D042F5F20934D04DDCFE5EADD
:1024E000F6E0E4918E2F90E0E5EAF6E0009709F03F
:1024F0008BCF22CFEDE7F6E0E4918E2F90E0EDE771
:10250000F6E0F4CF452B09F017CF89E090E0EBE43B
:10251000F6E07ACF82E190E0EBE5F6E075CF8091CE
:102520005904882309F451CF853009F44ECF8091A6
:10253000E80083FD4ACF8091E80082FD79CF809149
:10254000E80080FF6FCF9091F3008091F200211599
:10255000310519F08830910550F041E0089709F0F5
:1025600040E08091E8008E778093E8005BCF449153
:102570004093F1003196215031090196E8CF80381F
:1025800009F0DACE8091E800877F8093E80080919F
:1025900050048093F10079CE8111CECE1091530476
:1025A000123008F0C9CE8091E800877F8093E80060
:1025B000109350040E941C04112311F084E005C004
:1025C0008091E30087FDFACF81E08093590442E2D5
:1025D00061EC81E00E943B0480915904ADCE809172
:1025E0005304813009F0A8CE81E0933009F080E0F7
:1025F000809349041092E9008091E800877F8093DE
:10260000E8000E941C0498CE0E941B102FEF84E368
:102610009CE0215080409040E1F700C0000087E737
:1026200097E7909301088093000888E19AE00FB63D
:10263000F894A895809360000FBE90936000FFCF40
:10264000CF93DF93EC018732910598F4FC01EE50B3
:10265000FF4C0C94512E662361F088ED92E00E94AD
:10266000650EC8E0D0E080E590E00E94250F21973C
:10267000D1F7DF91CF9108956623D9F388EC92E0EA
:102680000E94650EC8E0D0E080E590E00E94250F32
:102690002197D1F7EECF662361F38CEB92E00E9495
:1026A000650EC6E0D0E080E590E00E94250F2197FE
:1026B000D1F7DFCF6623E9F284EB92E00E94650E4A
:1026C00080E590E00E94250F80E590E00E94250FB4
:1026D00080E590E00E94250F80E590E00E94250FA4
:1026E000C8CF662331F284EA92E00E94650EC8E00A
:1026F000D0E080E590E00E94250F2197D1F7B9CF77
:10270000662309F4B6CF84E992E00E94650EC8E022
:10271000D0E080E590E00E94250F2197D1F7A9CF66
:10272000662309F4A6CF8CE792E00E94650EC7E00D
:10273000D0E080E590E00E94250F2197D1F799CF56
:10274000662309F496CF8EE692E00E94650EC7E0FC
:10275000D0E080E590E00E94250F2197D1F789CF46
:10276000662309F486CF80E692E00E94650E80E53C
:1027700090E00E94250F2197D1F77BCF662309F4C3
:1027800078CF8EE492E00E94650EC9E0D0E080E54B
:1027900090E00E94250F2197D1F76BCF662309F4B3
:1027A00068CF8AE192E00E94650E8AE490E00E9480
:1027B000250FCAE0D0E08FE490E00E94250F21971A
:1027C000D1F757CF662309F454CF80EB91E00E94F4
:1027D000650E8AE490E00E94250FCBE0D0E08FE404
:1027E00090E00E94250F2197D1F743CF662309F48B
:1027F00040CF84EA91E00E94650E89E290E00E9459
:10280000250FC9E0D0E080E590E00E94250F2197D8
:10281000D1F787E098E00E94250F87E098E00E94BA
:10282000250F8AE290E05ACF662309F422CF83EE87
:102830000E94E80D8DE10E94E80D83EE0E94970D45
:102840008DE10E94970D15CF662309F412CF83EE18
:102850000E94E80D81EE0E94E80D8DE10E94E80DD6
:1028600083EE0E94970D81EEE9CF662309F401CF34
:1028700083EE0E94E80D8BE10E94E80D83EE0E943A
:10288000970D8BE1DECF662309F4F3CE83EE0E9431
:10289000E80D86E00E94E80D83EE0E94970D86E029
:1028A000D0CF662309F4E5CE83EE0E94E80D89E1DE
:1028B0000E94E80D83EE0E94970D89E1C2CF662346
:1028C00009F4D7CE82EE0E94E80D81EE0E94E80D59
:1028D00083EE0E94E80D8CE20E94E80D83EE0E94D8
:1028E000970D81EE0E94970D83EE0E94970D8CE26A
:1028F000A8CF662309F4BDCE81EE0E94E80D83EED9
:102900000E94E80D89E10E94E80D81EE0E94970D7A
:1029100083EE0E94970D89E10E94970D89E193E073
:10292000DDCE662309F4A5CE83EE0E94E80D84E097
:102930000E94E80D83EE0E94970D84E082CF88E329
:1029400092E0662309F495CEC9CE8EE192E066232B
:1029500009F48FCEC3CE84E392E0662309F489CED6
:10296000BDCE8DE292E0662309F483CEB7CE86E534
:1029700090E0662309F47DCEB1CE8EE290E066232E
:1029800009F477CEABCE8FE192E0662309F471CEE5
:10299000A5CE662309F46DCED091BC03C091390356
:1029A0001092BC030E945C09CD2BC27282EA91E0B6
:1029B00011F480EA91E00E94650ED093BC0359CED9
:1029C000662309F456CE8091890390918A0324E00E
:1029D00082270E94500A4DCE86EA90E0662309F4D1
:1029E00048CE7CCE662309F444CE0E94041383E5CE
:1029F00090E0662309F43DCE71CE85E490E0662335
:102A000009F437CE6BCE85E391E0662309F431CE2D
:102A100065CE8FE29AE0662309F42BCE5FCE80E389
:102A20009AE0662309F425CE59CE85E393E0662328
:102A300009F41FCE53CE662309F41BCE0E9467090A
:102A400018CE0E941B102FEF84E39CE021508040A1
:102A50009040E1F700C0000088E19AE00FB6F894DA
:102A6000A895809360000FBE90936000FFCFA8E010
:102A7000B0E0EDE3F5E10C94F92D7C01FC018381DC
:102A80009481892B31F08081918189238F3F09F0D6
:102A900089C72896EBE00C94152E80E0B7C7003468
:102AA000F2E51F07D8F5003222E51207E0F5C8016C
:102AB00090548115904108F44EC0013E110509F46F
:102AC000A6C0053E110509F4A2C00930FEE71F07A4
:102AD00009F080C0F7018281882309F47BC010913E
:102AE000BC0380913903812B827209F04FC082EEC2
:102AF0000E94E80D8091B102811106C08FE40E940E
:102B00005C0E80E50E945C0E81EE0E94E80D8FE471
:102B10000E94E80D82E08093B10294C7C801805CF6
:102B20009245809750F681E090E0002E02C0880F19
:102B3000991F0A94E2F720914303309144038223C2
:102B40009323892B09F4B9CFF7018281882309F4F3
:102B500079C7802F75C7F7018581807F09F0ADCFD8
:102B600082818111AECF212F2F7081E090E002C0D1
:102B7000880F991F2A95E2F720914303309144036F
:102B800082239323892B09F498CF5CC78091B102EB
:102B900081111BC01092BC030E945C0984E091E08B
:102BA0000E940F0F84E091E00E94D40D8DE492E02A
:102BB0000E94250F8AE40E945C0E8DE492E00E9440
:102BC000250F1093BC0383E0A6CF81E50E94E80D9A
:102BD00084E0A1CF8091B102823069F030F481307D
:102BE00009F444C01092B10212C0833069F08430FD
:102BF000C9F781E507C08FE40E94970D81EE0E941E
:102C0000970D82EE0E94970D81E08093B102F7014B
:102C1000A280A11035C0F7018281811166C1C090E8
:102C2000BC03D09039030B303EE7130709F40DC203
:102C300008F08CC10337E1E21E0709F47FC208F0F7
:102C400067C1073221E2120709F4C5C10337FCE767
:102C50001F0709F081C2882309F4F4C68091BF03DD
:102C6000882309F476C20E94750DECC6093211055D
:102C700009F0B8CF8FE40E945C0E1092B102E2C658
:102C80009090BC03892D8D7D31F640914D0350917C
:102C90004E0360914F03709150032FB7F8948091C9
:102CA000380490913904A0913A04B0913B042FBFAD
:102CB000841B950BA60BB70B68018E359140A105BF
:102CC000B105D8F4DD2480914B0390914C038331FE
:102CD000910509F4A5C008F04CC08730910509F4AE
:102CE000EDC0F8F48530910509F4BCC008F08FC040
:102CF000892B09F478C09092BC039092B202D092D2
:102D00004C03C0924B030E94380560934D037093AF
:102D10004E0380934F0390935003AA2009F492C668
:102D20007ACF8930910509F484C008F489C08D30C8
:102D3000910509F463C00F97F1F68091BF032DE070
:102D4000C216D10409F051C02EE0B22EA090BF03EC
:102D5000AA2009F4BDC082E00E948F0980E00E9491
:102D60005C0E82E00E948F098B2D0E945C0EA12CCC
:102D7000C4CF8E32910509F489C0A0F48831910541
:102D800009F492C08A31910509F463C0469709F0AD
:102D9000B2CF8091BF0399E1C916D10431F586E025
:102DA000B82ED4CF8535910509F477C060F4843509
:102DB000910509F0A0CF8091BF0397E2C916D10415
:102DC00009F461C012C08635910509F455C08735F4
:102DD000910509F090CF8091BF0337E2C316D1046B
:102DE00009F451C002C08091BF03882319F082E02A
:102DF0000E948F0980E00E945C0E7DCF8091BF030E
:102E00003FE0C316D10489F798E1B92E9FCF809196
:102E1000BF03EBE1CE16D10441F7A6E1BA2E96CF5F
:102E20008091BF03F9E0CF16D104F9F6B7E1BB2ECC
:102E30008DCF8091BF032AE1C216D10471F3D5CFA3
:102E40008091BF0338E3C316D10479F6F6E3BF2EB1
:102E50007DCF8091BF0393E1C916D10431F6E5E13E
:102E6000BE2E74CF8091BF03EAE1CE16D10409F0E3
:102E7000BCCF77E0B72E6ACF8091BF03F7E2CF16C1
:102E8000D10409F0B2CF6CE2B62E60CF8091BF03BF
:102E900027E2C216D104B9F3A8CF8091BF03E7E2BD
:102EA000CE16D10481F3A1CF8091BF03FCE1CF16F0
:102EB000D10409F09ACF58E0B52E48CF8091BF03D6
:102EC0002BE1C216D10409F090CF4AE0B42E3ECFD8
:102ED0008091B2028093BC0380E00E945C0E10924D
:102EE000BC038B2D0E945C0E08CF98012450310941
:102EF0002A31310508F093CE1093BC020093BB0237
:102F000098E0A3EBB2E001900D929A95E1F787CE9D
:102F100008303EE7130709F480C00A309EE719071E
:102F200009F094CE882309F48DC51092BC030E9449
:102F30005C098D2D8C29827209F484C081E293E0B2
:102F40000E94650E80E50E945C0E76C00E30EEE7B2
:102F50001E0709F4C7C008F50C302EE7120709F464
:102F600085C00D303EE7130709F070CE882309F4C1
:102F700069C50E9444059093460380934503809160
:102F80004703811106C080EE0E94E80D81E0809326
:102F900047038BE20E945C0E55C50F309EE7190770
:102FA00009F4B8C00031EEE71E0709F04FCE8823C0
:102FB00009F448C50E94440590934903809348034F
:102FC00080914A038111A1C083EE0E94E80D81E047
:102FD00080934A039AC0F7018581807F09F4BCC0C1
:102FE0008091BB029091BC02892B09F42BC588E02B
:102FF000E3EBF2E0DE01119601900D928A95E1F784
:1030000085E0F701DE01119601900D928A95E1F7B6
:10301000CE0101960E94371515C5882309F412C503
:103020001092BC030E945C098D2D8C29827239F0AC
:1030300080E597E00E94250FC092BC0303C58FE492
:1030400097E0F8CF8EE193E07BCF882309F4FAC4B0
:103050001092BC030E945C098D2D8C29827219F09C
:103060008BE193E06DCF88E193E06ACF882309F488
:10307000E9C48D2D8C29827221F182E20E9495098A
:103080008D2D827261F08D2D8D7D80933903882383
:10309000A9F00E944405909338038093370388EE8B
:1030A00092E00E94650E09E110E080E50E945C0E4E
:1030B00001501109D1F780E596E0BCCF90E080E0A7
:1030C000EACF81EE92E00E94650E80E50E945C0EE0
:1030D00080E50E945C0E80E50E945C0E80E50E9407
:1030E0005C0E30CF882309F4ADC40E944405909350
:1030F00046038093450380914703811106C080EE0B
:103100000E94E80D81E0809347038BE292E00E94E9
:10311000250F98C4882309F495C40E944405909310
:1031200049038093480380914A03811132CF83EE93
:103130000E94E80D81E080934A032BCFF70195812F
:10314000907F51F0882309F47DC482E00E947B09BE
:1031500079C40E94670976C4DC288091BF0381117D
:103160004EC022E2D21202C00E946709F70182819A
:10317000882329F1013E110521F0023AF2E51F07EB
:10318000D9F58091BF02882371F0F7018381948182
:103190002091BD023091BE02821B930B8F3F9F474F
:1031A00010F00E94670981E08093BF02F7018381DC
:1031B000948188539F4F9093BE028093BD02F70184
:1031C0008281882309F453C1C8019057839708F07E
:1031D0004FC484E090E00E945F2E90938C03809314
:1031E0008B03F801E150F047E232F10508F082C0AC
:1031F000E75EFE4C0C94512E1092BF02E0CF0E946D
:10320000440588579C4E9093BE038093BD03F701FD
:1032100082818823A1F2FD2DFD79DF2E09F04FC0B8
:10322000003422E5120758F5011532E5130738F688
:10323000011580E4180750F4011590E21907A0F574
:10324000063E110509F4BBCFC8010BC00115E0E52E
:103250001E07D0F7F7018581807F09F4B0CFC80140
:1032600099271092C20388329105A0F58E319105FD
:10327000B8F5049720F182E00E948F0931C0043B29
:10328000F2E51F0709F49BCFC801053B22E51207B1
:1032900030F48056924580349105B0F690CF805C32
:1032A0009245809788F68BCFF7018581807FB9F6AC
:1032B000812F8F71823159F028F4823041F00E94C1
:1032C000750D7DCF843109F47ACF8631C1F7109224
:1032D000C203F5CF8D32910571F228F48A9779F700
:1032E0000E94190D6CCF8C349105D1F38D32924030
:1032F000B9F3E5CF80918B03816080938B0395C0F8
:1033000080918C03886080938C038FC080918B03A5
:103310008260F3CF80918B038460EFCF80918B0329
:103320008860EBCF80918C038160EDCF80918C031E
:103330008260E9CF80918B038061DFCF80918B0326
:103340008062DBCF80918B038064D7CF0E941B10FB
:1033500080918B038068D1CF80918B038C60CDCF1F
:1033600080918C038360CFCF80918B038E7FC5CFFC
:1033700080918C03877FC7CF80918B038D7FBDCFDA
:1033800080918B038B7FB9CF80918B03877FB5CFE3
:1033900080918C038E7FB7CF80918C038D7FB3CFCC
:1033A00080918B038F7EA9CF80918B038F7DA5CFDA
:1033B00080918B038F7BA1CF0E941B1080918B0388
:1033C0008F779BCF80918B03837F97CF80918C03E6
:1033D0008C7F99CF80918B0382FB992790F921E014
:1033E000922790FB82F990FB83F987CF80918C0321
:1033F000982F909591708E7F892B90FB81F983CFC8
:1034000090918B03892F8F7B96FF806476CF0E94EB
:103410001B1090918B03892F97FB87F980586DCFF4
:1034200061E08EE090E00E94652E60918B037091C8
:103430008C0384E090E00E94832E0E941B1002C344
:1034400060E0EFCF90918B03892F8F7E94FF806196
:1034500054CF90918B03892F8E7F90FF81604DCF49
:1034600090918C03892F877F93FF88604CCF063122
:10347000FCE71F0729F58091C00281110FC089E286
:10348000E9EAF2E02FEA32E09191891303C0DF010B
:1034900011971C922E173F07B9F7FEC285E3F0CFB4
:1034A00003302CE7120709F455C008F043C001159A
:1034B0008CE7180709F44CC001301C4709F450C0D0
:1034C000F70186819781009709F458C00E94CA07C6
:1034D0008C01F701D280B580B2943FE0B322809195
:1034E0002D038770C1F0AD2CDD20B1F0812F807FDE
:1034F000803421F080E2800F883068F080918C0366
:1035000082FF09C082E00E94670A80912D038770C4
:10351000AA24A3948111A12C912E92942FE092229F
:10352000FBE0F91508F49FC0E92DF0E0E55CFE4CE6
:103530000C94512E0B35ECE71E07F1F00C35FCE72F
:103540001F0781F00A351C4709F0BACF81E011C08E
:103550000E9404136FEF7FEF90E080E00E94832EC3
:103560000E94211580918C0382FB882780F991E0CD
:1035700089270E940410A4CF80E0FBCF82810081C4
:103580001181882369F0C8010E94A609D82E682FEE
:10359000C8010E941A0AB8018D2D0E94AD0796CF6E
:1035A000C8010E94E709D82EF6CF212F2F70C22E16
:1035B000107F19F0C29490EFC922DD20A9F0CC2031
:1035C00069F080E2800F883010F0011109C080910D
:1035D000BC03C82AC092BC030E94190D802F41C0B1
:1035E0008C2D0E948F09F8CF802F0E94970DCC2040
:1035F000D1F180E2800F883010F0011104C08C2DD1
:103600000E94950906C0C0948091C203C822C0924E
:10361000C2030E94190D27C0312F3F70C32E107FA7
:10362000103219F0C29480EFC822002351F001300B
:1036300009F465C0DD2009F46FC0BB2009F465C042
:10364000CDCF80918C0382FD38C0DD2081F1CC206C
:1036500039F08091BC03C82AC092BC030E94190DA6
:1036600080E00E94E80D292D2850330B24303105CD
:1036700010F40E94080DAA20A9F080912D0380FD6E
:1036800011C0F70112828595859585950E94870A5C
:10369000C7010E94371580912D03859585958595E5
:1036A0000E94550A60E0C7010E94B30BF2C980E096
:1036B0000E94970DCC20B9F2A2CFDD2071F080914D
:1036C00039038C29B11003C00E948D0DCCCF91E03D
:1036D000B912FACF0E947B09C6CFB11006C00E9472
:1036E0005C098C2D0E94860DBECFE1E0BE1609F468
:1036F000BACF8C2D0E94860D0E945C09B4CFDD20CC
:1037000031F0F5E0FB1508F4AECF8C2DDDCF24E0D1
:103710002B1508F4A8CFE5CFBB2019F3093349F4E2
:103720003FEF87EE93E0315080409040E1F700C0DA
:103730000000802F0E94970D96CF812F8695869549
:10374000837061F0813009F08ECFC8019370D11081
:1037500002C080E090E00E946A0585CFC8019370A6
:10376000D11002C080E090E00E948F057CCF6D2DCB
:10377000802F0E94CD0A77CF812F837009F03FC040
:10378000D11071CF402F429546954770440F440F9A
:10379000802F8F7090E0042E02C0880F991F0A942A
:1037A000E2F730E020E004FF09C02FE030E002C083
:1037B000220F331F4A95E2F72095309516951695FE
:1037C0001370123099F078F4409187035091880378
:1037D000113039F0822B932B842395230E94970A72
:1037E00042CF842B952B822B932BF8CF822B932BBC
:1037F000209187033091880382279327EFCF869506
:10380000DD2011F0812F8170882309F42CCF402F07
:10381000429546954770440F440F802F8F7090E07B
:10382000042E02C0880F991F0A94E2F730E020E0CE
:1038300004FF09C02FE030E002C0220F331F4A9579
:10384000E2F720953095169516951370123099F081
:1038500078F44091890350918A03113039F0822B1A
:10386000932B842395230E94500AFDCE842B952B05
:10387000822B932BF8CF822B932B209189033091AD
:103880008A0382279327EFCF1F70DD2029F0812F35
:103890000E94870A802F18CF802F0E94860D812FCB
:1038A0000E94550AE0CE023F79F160F4003FB9F082
:1038B000013F81F0DD2009F465C0B1108FCE812F6A
:1038C0008F7126C0033F39F1043FA1F780918C032B
:1038D00082FD30C0812F8F71DD2011F319C0DD20F2
:1038E00071F0E4E0EB1508F4BECE1F7181E090E0CA
:1038F000012E02C0880F991F0A94E2F7BECFF5E0AF
:10390000FB1508F4B0CEF1CF812F8F71D110C8CF45
:103910000E94870AA8CE90E080E0DD2009F4A3CFC2
:103920001F7181E090E0012E02C0880F991F0A9458
:10393000E2F799CFDD20D9F01F71812F0E94870A0D
:1039400080918C0382FF11C028E0129FC0011124D6
:10395000836080932D03812F0E94870A0E94440573
:1039600090932C0380932B037ECE812FD1CF81E0C7
:103970000E94670A31E03B1508F075CE82E00E9494
:10398000670A71CEBB2059F0093309F0D2CE8FEF10
:1039900097EEE3E081509040E040E1F7C8CE812F00
:1039A0008F717ECF61E0C7010E94B30B8C010E9432
:1039B000380560933F0370934003809341039093D5
:1039C00042032091890330918A03809143039091AF
:1039D0004403A9014095509548235923452B31F0C4
:1039E0008223932390934403809343030131FEE7A2
:1039F0001F0709F054C8F7018281882319F1832F2A
:103A00009927009709F449C89C0188E0A90174E04E
:103A1000569547957A95E1F74115510511F08C5F60
:103A20009A01A90156954795569547954115510517
:103A300011F08E5F9A0136952795232B09F08F5F41
:103A40000E94140C80912D03877009F422C8F7019D
:103A50008281882311F40C94491580918C0382FD96
:103A600002C00C94491582E00E94670A0C94491523
:103A70000631FCE71F0709F013CD8091BC038A7A59
:103A800091E009F490E09093C00269E2811165E34E
:103A900086EA92E00E9450050E94190DD3CFCF9381
:103AA000DF938091E602807F09F049C08091E302B4
:103AB000882309F444C080912A03D091E9026091DF
:103AC000E1027091E202A091E402B091E502C62FFA
:103AD000C723D817A1F190E0109711F0CF3F19F448
:103AE00001968770F6CF9C0143E0220F331F4A9561
:103AF000E1F7F901E651FD4F41814713F1CF4081D4
:103B00004613EECF42814111EBCF438154814A1BD2
:103B10005B0B483C510520F78091E6028F70806175
:103B20008093E602F901E151FD4F80818F70806141
:103B3000808381EE92E00E9437150E949C09DF91FC
:103B4000CF910895A5E1B0E0E8EAFDE10C94FA2DEB
:103B50008C0185E0F801DE01519601900D928A9565
:103B6000E1F7F801E28061EEA62E62E0B62E6091E8
:103B7000E4027091E5026115710509F44BC1909161
:103B8000E1024091E202892F84238F3F09F442C170
:103B900020813181C380D480F090E302F601E61BDE
:103BA000F70BFF2009F411C18091E602582F507FD6
:103BB000E83CF10508F0C4C0511175C0FE2C431358
:103BC0001EC092131CC06091E7027091E802F801D8
:103BD000468157816417750791F4E11010C08F700A
:103BE00080618093E602C5010E9437158091E6024C
:103BF000F80185838F2D6596EAE00C94162EC1148A
:103C0000D10429F0822F83238F3F09F01EC180E069
:103C1000F82FF170DF2E80FF3CC080912A03409185
:103C2000E902841315C0298B3A8B89899A890E94ED
:103C3000DA09292F22952F702230F8F0243020F550
:103C40009F70F9F0F8019581907FD9F4D12C1FC0B5
:103C500090E0FC0153E0EE0FFF1F5A95E1F7E651AB
:103C6000FD4F5181351306C05081251303C0528189
:103C7000E5120FC001968770D4CF9F7011F0882392
:103C800029F3805E883010F3C8010E943715FD2C9F
:103C9000B1CFEE2009F4AECF8091E602816080932F
:103CA000E602F12CA7CF43131BC0921319C0409119
:103CB000E7025091E802F801268137814217530745
:103CC00079F4E1100DC08583C8010E94371588E0A2
:103CD000F801A1EEB2E001900D928A95E1F78ACF4A
:103CE000C8010E949C0A882339F1EE2029F18091B5
:103CF000E6028032A0F02091E1023091E2023A87A0
:103D000029871B86DD86CC868E878091E70290917D
:103D1000E802988B8F87CE0109960E94371588E0BC
:103D2000F801A1EEB2E001900D928A95E1F70E94B0
:103D30004F1DFF24F3945ECFC8010E943715F9CFC1
:103D400051110AC081EE92E00E94371588E0F5011A
:103D500011928A95E9F7A5CF431318C0921316C0A4
:103D60004091E7025091E802F8012681378142171D
:103D7000530761F4E1100AC08583C8010E9437151A
:103D800088E0F50111928A95E9F734CFC8010E94C5
:103D90009C0A882389F2EE2079F28091E602803233
:103DA00008F4BDCF2091E1023091E2023A832983E9
:103DB0001B82DD82CC828E838091E7029091E802A3
:103DC00098878F83CE010196A8CFE83CF105C0F615
:103DD000FE2CEE2009F4B0CF43130EC092130CC09A
:103DE0002091E7023091E802F80186819781281737
:103DF000390711F488E06DCFC8010E949C0A811137
:103E00008ECF8091E60281608093E602C8010E9415
:103E10003715F0CEEE2009F48FCFC8010E949C0A1E
:103E2000F82E882309F488CF88E0F801A1EEB2E0EB
:103E300001900D928A95E1F78091E1029091E20262
:103E40000E94DA090E944F1DD5CE81E08E25E0CE7A
:103E5000A0E1B0E0EEE2FFE10C94022E29873A8760
:103E60004B875C876D877E878F87988BCE010996FD
:103E70000E94A21D811112C088E0FE013996DE0168
:103E8000119601900D928A95E1F78C859D85892B7D
:103E900029F089859A8589238F3F81F580912A03AE
:103EA0009091E902891317C06096E2E00C941E2EEF
:103EB00093E0AA0FBB1F9A95E1F7A651BD4F98E07A
:103EC000FE01319601900D929A95E1F78093E902F7
:103ED0000E949C09E3CFB8E08B9FC001112486515A
:103EE0009D4F0E94A21D8823F9F280912A0390E041
:103EF00001968770992780932A03D0CFA091E90279
:103F0000B0E0CD0101968770992720912A032817E8
:103F1000190671F60E941B101092E90210922A03F2
:103F200088E0E1EEF2E0DF011D928A95E9F7B6CF75
:103F30000F931F93CF93DF938091C403E091C3034A
:103F40001CE081111AC0DF91CF911F910F9108954C
:103F500001E00E0F0093C303CE2FD0E0E19FF001EC
:103F60001124EB53FC4F83819481892B29F08081AC
:103F7000918189238F3FF9F4E02F8091C403E817E2
:103F800038F31092C4031092C303DDCF18968D91BD
:103F90009C918F3F9807E1F061E00E9420131C9FE5
:103FA000F0011D9FF00D1124EB53FC4F148213827E
:103FB0001092C203E1CF1C9FD0011D9FB00D1124B0
:103FC000AB53BC4F16968D919C911797892BF1F2AC
:103FD00020813181428153816481758186819781FD
:103FE0000E94281FDCCF1092300410922F041092F0
:103FF0004A0280912E0480932D040E94E2050E94C3
:10400000981F0895B0E0A0E0E8E0F0E20C94F22DF3
:10401000C0912D04E7E0FE2E01E010E0FCE02F2E21
:10402000AEEFEA2E80912E048C1309C00E94981FD7
:104030000E94E205CDB7DEB7E2E10C940E2ED0E08F
:10404000FE01EE0FFF1FEB5DFB4F80819181F89E1B
:10405000F001F99EF00D1124E75CFE4F248121113F
:1040600059C03090C403A5ECB3E030E020E0412C0F
:104070005F01231508F04CC01A966D907C901B9739
:10408000F501808091804FEF5FEF512CC52CD12C32
:10409000F601EE0FFF1FE80DF91D6591749166168C
:1040A000770609F4A601672B11F05394EFCF4F3F29
:1040B0005407B9F1B80102C0660F771F4A95E2F7BD
:1040C000462AA801052C02C0440F551F0A94E2F7A6
:1040D000415051094416150601F5229EF001239E18
:1040E000F00D1124EB53FC4FF89ED001F99EB00D5A
:1040F0001124A75CBE4F12962D913C9113973783E4
:104100002683E082E1829187808771E015967C9317
:104110000E94B4052196C37085CF14961C921E92FE
:1041200013972F5F3F4F1C96A4CFA9E1B0E0EBE9B6
:10413000F0E20C94F22D498B5A8B6B8B7C8B8D8B20
:1041400061111092C2031D861E861F86188A85E0A3
:10415000FE017196DE01199601900D928A95E1F7A4
:1041600080918C0382FF1CC00E94440520912B0388
:1041700030912C03821B930B883E934020F080915A
:104180002D0382FFF2C10E94440520913703309134
:104190003803821B930B883E934010F00E945C0909
:1041A0008C859D85892B31F089859A8589238F3F60
:1041B00009F0C9C129853A854B855C856D857E8569
:1041C0008F8598890E94281FC7C081354CE79407C6
:1041D00031F48B85882371F00E94F31FEBCF823579
:1041E0009C4741F48B85882329F080914A028111F4
:1041F000F3CFB7C169857A8580E00E94AD074C0195
:1042000009E311E0E12CD12CC12CAA24A394B12CF8
:104210009EEF592E44244394F801608171816624F5
:104220006A94762C20E0422F50E0FA01EE0FFF1F37
:10423000E60FF71F859194918816990609F43A01C3
:10424000892B11F02F5FEFCFF12CFFEF6F167F0658
:1042500009F444C0F8014481F0904A028F2D4111C5
:1042600080E0F82FF170FF2EF801258086819B8574
:10427000992309F4F2C0FF2009F4EFC0211014C003
:10428000A501062C01C0440F0A94EAF7842B86830B
:104290008091C0039091C103889730F448E250E0C8
:1042A0005093C1034093C003C50102C0880F991FFA
:1042B0002A95E2F70197F80126812817190671F46B
:1042C00080912F0490913004009709F449C00E9416
:1042D0002905899708F444C0F8014482EF28FFEFCC
:1042E000CF1ADF0A095F1F4F27E2C216D10409F077
:1042F00093CF8B85882309F411C1EE2009F40EC1F8
:104300000E9444059093300480932F048091C4034D
:10431000883010F591E0980F9093C40398E0FE0167
:104320003996DE01119601900D929A95E1F73CE0E5
:10433000839FC00111248B539C4F28E0FE013196CE
:10434000DC0101900D922A95E1F72FEF3FEFFC0180
:1043500031872087938682866996E2E10C940E2E3F
:1043600080912D0460902E04982FF0E0E0E08611FB
:1043700014C090932D040E171F0709F4AFCF90E0DF
:10438000FC01EE0FFF1FEB5DFB4FD182C082019657
:104390008370992780932E04A1CF282E312CF10110
:1043A000EE0FFF1FEB5DFB4F20813181F7E0F29FA5
:1043B000D001F39FB00D1124A75CBE4F2D913C910D
:1043C0001197398F288F712C60E070E0E72FF0E0B3
:1043D000EE0FFF1F288D398DE20FF31F25913491C9
:1043E00021153105E1F0F8010190F081E02DFF8BFE
:1043F000EE8B60E005C02417350709F47F2C6F5F52
:10440000E62FF0E0EE0FFF1F4E895F89E40FF51FE6
:10441000459154914115510571F77F5FD7CF7720B2
:10442000C9F0F801671708F0FD014482E017F107B1
:1044300021F490932D04F72C51CF891305C0EA176E
:10444000FB0711F49F5F937091012F5F3F4F822F05
:1044500083708DCFF0E0E0E0F7CF90E0211020C036
:10446000B50102C0660F771F2A95E2F79B01215024
:1044700031092817390731F4442309F44DC0C60126
:104480000E94B405C501062C01C0880F0A94EAF702
:10449000982F9095F801868189238683F22C1ECF70
:1044A0009C01062C02C0359527950A94E2F7A901D4
:1044B00041705527BC016150710986239723892BD0
:1044C00039F5452B29F1F80182819381892BD9F0A7
:1044D0001B821C821D821E8259825A820E944405C0
:1044E0008160582F9D838C83F801828193818F8313
:1044F000988729813A814B816D817E810E94281F96
:10450000F8011582BFCF60E0C6010E942013F8CFEA
:10451000F22FF1702F2EB6CF2F2CB4CF90912D0407
:1045200080912E04981731F00E940220EE2009F4A9
:1045300041CE12CF0E94981F1092300410922F0487
:104540000E94E205F3CF61E0CE0109960E94B30B11
:104550008035FCE79F0709F038CE8B85882309F466
:1045600049CE81E080934A0225CE82E00E94670A0C
:104570000ACEAFE0B0E0EFEBF2E20C94F72D8E0143
:104580000F5F1F4F8AE0D8011D928A95E9F789E8ED
:10459000C82E82E0D82EF12CE12CAA24A394B12CB1
:1045A00024E9822E22E0922EF60181916F018F3F45
:1045B00009F442C0F894E82FE295EF70F0E021A1F1
:1045C0008F70A50102C0440F551F8A95E2F7CA01FA
:1045D000922F982B91A392A18095892382A37894FE
:1045E00000C0EEE8F2E0712C31E021912F3F09F498
:1045F0006BC0A22FA295AF70B0E090968C9190E026
:104600002F7002C0959587952A95E2F780FD5CC0D2
:10461000832F782A330F8E169F0639F7F6013197CC
:1046200080818F3F11F00E94530750EA5A95F1F7AD
:10463000F801EE0DFF1D70828FEFE81AF80A95E081
:10464000E916F10409F0B0CF4AE050E0B8018BE779
:1046500093E00E94D030009741F02AE0F801ABE7E8
:10466000B3E001900D922A95E1F700918603892B22
:1046700069F181E080933C030E94440590933B03E1
:1046800080933A0380913A0390913B030E9429055D
:10469000059700F110E001571C4F45E050E06BE733
:1046A00073E0C8010E94D030C12C892B51F085E005
:1046B000EBE7F3E0D80101900D928A95E1F7CC2465
:1046C000C39410923C0307C080E0A3CF80913C03C9
:1046D0008111D8CFC12C0E94E50CD82EE091860321
:1046E000DE011B967D01882309F401C185E01D923E
:1046F0008A95E9F70E2F10E001571C4F8091740343
:104700008A3008F0C0C048E356E2B701C8010E94F1
:10471000B20C882309F4DAC04FED55E2B701C801A5
:104720000E94B20C882309F4D1C041ED54E2B701D4
:10473000C8010E94B20C882309F4C8C01092740307
:104740008091850390E045E050E0B70181579C4F90
:104750000E94D03021E020935503892B09F0A9C095
:10476000D12C8091430390914403892BC1F1409156
:104770003F035091400360914103709142032FB772
:10478000F8948091380490913904A0913A04B09142
:104790003B042FBF841B950BA60BB70B813C944D9C
:1047A000A140B105E0F080914303909144038095CE
:1047B00090952091890330918A03822393230E944C
:1047C000500A10924403109243030E9438056093EC
:1047D0003F037093400380934103909342034091C1
:1047E0004D0350914E0360914F03709150032FB7CA
:1047F000F8948091380490913904A0913A04B091D2
:104800003B042FBF841B950BA60BB70B8E35914035
:10481000A105B10570F00E94380560934D037093B7
:104820004E0380934F039093500310924C031092C9
:104830004B0380914A03882371F080914803909143
:1048400049030E9429058132934028F083EE0E949B
:10485000970D10924A0380914703882371F080914D
:104860004503909146030E9429058132934028F028
:1048700080EE0E94970D109247038D2D8C292F9664
:10488000EDE00C94132E80913D0390913E030E9425
:104890002905843F914008F036CF80915503882345
:1048A00009F45ECF85E0F70111928A95E9F710923D
:1048B0005503A0918503B0E0A157BC4F85E0FE01F0
:1048C0003B9601900D928A95E1F74BCF809174034E
:1048D0008F3F31F08F5F809374038A3008F430CFBC
:1048E0000E94440590933E0380933D03D6CFF0E0B1
:1048F000E157FC4F85E0A5E6B3E001900D928A9563
:10490000E1F765E070E085E693E00E94F3058093AF
:1049100064034091A90350E06091A80370E06C55D6
:104920007C4FC7010E94DD308B8580936B0361E073
:1049300070E0C7010E94F30580936A0380906C03C6
:1049400090906D03A0906E03B0906F03809151031F
:1049500090915203A0915303B09154038816990685
:10496000AA06BB0611F4D12C88CF809251039092F5
:104970005203A0925303B09254030E94E50CD82E28
:104980008111F1CF0E943805861A970AA80AB90A40
:104990008092750390927603A0927703B092780389
:1049A0006CCFA4E0B0E0E7EDF4E20C94002E40916F
:1049B00070035091710360917203709173032FB76C
:1049C000F8948091380490913904A0913A04B09100
:1049D0003B042FBF841B950BA60BB70B11E084364D
:1049E0009105A105B10590F10E94E50C882399F18C
:1049F0000E9438056E5F7F4F8F4F9F4F69837A8388
:104A00008B839C8380912101909122018C599C4F32
:104A10004091200150E04530510510F044E050E055
:104A2000BE016F5F7F4F0E94DD3084E090E00E9406
:104A30007C2D182F882351F00E9438056093700355
:104A4000709371038093720390937303812F249664
:104A5000E4E00C941C2E0E9438050091750310911F
:104A600076032091770330917803600F711F821FC6
:104A7000931FC0CF4F925F927F928F929F92AF927F
:104A8000BF92CF92DF92EF92FF920F931F93CF933B
:104A9000DF930F92CDB7DEB7C62E4A015901482EDB
:104AA000880F5508C2010E947C2D782E882309F4B6
:104AB00080C0C20133E0880F991F3A95E1F7FC01ED
:104AC000E050FF4F438150E04115510511F041E0A6
:104AD00050E080509F4FFC01648175816C597C4F80
:104AE000CE0101960E94DD30F40140815181628146
:104AF00073812FB7F8948091380490913904A09174
:104B00003A04B0913B042FBF841B950BA60BB70B47
:104B100084369105A105B10540F4B701C8010E9492
:104B2000F3059981891709F444C00C2C000CDD08A9
:104B3000C6010E947C2D782E811113C0712C872D07
:104B40000F90DF91CF911F910F91FF90EF90DF9029
:104B5000CF90BF90AF909F908F907F905F904F903D
:104B60000895C60123E0880F991F2A95E1F7FC01FB
:104B7000E050FF4F438150E0E416F50608F4A7012A
:104B800080509F4FFC01648175816C597C4FC50139
:104B90000E94DD30B701C8010E94F3059981891395
:104BA000CDCF0E943805F4016083718382839383A3
:104BB000C6CFA701B801C5010E94DD30C0CFA1E07A
:104BC000B0E0E5EEF5E20C94FB2DEE24E394F12C3D
:104BD0000BE613E09E012F5F3F4F40E653E063E09A
:104BE00082E00E943A25C82E882339F100E080E057
:104BF0001DC0D0907A03D00E2D2D30E0A9014C5568
:104C00005C4F7A01E1E0F0E0EC0FFD1FE00FF11DD9
:104C10001081FA019081191BB12E1B149CF0912F69
:104C200017FD90E0191B111118C00F5F90917903C7
:104C30000917F8F281110E9459098C2D2196E9E09B
:104C40000C94172EBA94F70180818F5F808360E007
:104C50008D2D0E94450F8C2DE0CF1F5FF7018081C5
:104C60008150808361E08D2D0E94450F8C2DDBCF1C
:104C7000A5E0B0E0EEE3F6E20C94FC2D6B0185E0DC
:104C8000E82EF12C05E613E09E012F5F3F4F4CE527
:104C900053E061E080E00E943A25882349F095E0E6
:104CA000FE013196A7E5B3E001900D929A95E1F7E8
:104CB00095E0E7E5F3E0D60101900D929A95E1F7D2
:104CC0002596E8E00C94182E1F920F920FB60F92C3
:104CD00011242F933F934F935F936F937F938F9301
:104CE0009F93AF93BF93CF93DF93EF93FF93D091B5
:104CF000E900DF708091EC00C82FC17080FDC0E832
:104D00001092E9008091F000877F8093F000789402
:104D10000E9442101092E9008091F0008860809318
:104D2000F000CD2BCF70C093E900FF91EF91DF91A0
:104D3000CF91BF91AF919F918F917F916F915F9133
:104D40004F913F912F910F900FBE0F901F9018958C
:104D50001F920F920FB60F9211242F933F934F93F0
:104D60005F936F937F938F939F93AF93BF93EF93D3
:104D7000FF938091E10082FF09C08091E20082FFF1
:104D800005C08091E1008B7F8093E1008091DA0083
:104D900080FF24C08091D80080FF20C08091DA007D
:104DA0008E7F8093DA008091D90080FF9DC080E1E2
:104DB00089BD82E189BD09B400FEFDCF81E0809309
:104DC000590480913C04811109C00E94CC030E94C7
:104DD0006D048091E20084608093E2008091E100A4
:104DE00080FF17C08091E20080FF13C08091E20035
:104DF0008E7F8093E2008091E20080618093E200E8
:104E00008091D80080628093D80019BC85E080939F
:104E100059048091E10084FF2BC08091E20084FF5F
:104E200027C080E189BD82E189BD89B5982F917045
:104E300080FFFBCF8091D8008F7D8093D800809138
:104E4000E1008F7E8093E1008091E2008F7E80936D
:104E5000E2008091E20081608093E2008091500442
:104E6000882309F447C084E0809359048091590451
:104E70008091E10083FF27C08091E20083FF23C07F
:104E80008091E100877F8093E10082E08093590464
:104E9000109250048091E1008E7F8093E100809118
:104EA000E2008E7F8093E2008091E2008061809337
:104EB000E20042E060E080E00E943B048091F0006C
:104EC00088608093F000FF91EF91BF91AF919F9127
:104ED0008F917F916F915F914F913F912F910F90A3
:104EE0000FBE0F901F90189519BC10925904109284
:104EF0003C0474CF8091E30087FD93E090935904C4
:104F0000B5CF78941F921FB61F9211248F939F9351
:104F1000AF93BF938091380490913904A0913A04E3
:104F2000B0913B040196A11DB11D8093380490936C
:104F30003904A0933A04B0933B04BF91AF919F9181
:104F40008F911F901FBE1F9018951F921FB61F9222
:104F500011248F939F93AF93BF9380913704811156
:104F600013C08091380490913904A0913A04B09113
:104F70003B044196A11DB11D8093380490933904E0
:104F8000A0933A04B0933B04BF91AF919F918F914E
:104F90001F901FBE1F901895CDB7DEB760970FB654
:104FA000F894DEBF0FBECDBF85B7806885BF85B7DB
:104FB000806885BF84B7877F84BF0FB6F894A895B3
:104FC00080916000886180936000109260000FBE45
:104FD00080E890E00FB6F8948093610090936100B0
:104FE0000FBE81E597E09093A5028093A4020E94F2
:104FF000CC030E946D048091E20084608093E20003
:105000007894809159048823A1F01091E9001F70D1
:105010009091EC00892F817090FD80E8182B109200
:10502000E9008091E80083FD0E9442101F701093F8
:10503000E90082E084BD93E095BD9AEF97BD80932F
:105040006E001092750310927603109277031092FF
:1050500078030E94E50C809328010E94E50C8111E1
:105060000E94902C9091280181E098279093A803AA
:10507000282F291B20937A03909128018093A9035C
:10508000909128018093790380912801811106C0B5
:1050900084EF8093340185EF8093330182E0809325
:1050A000320120913401E22FE295EF70F0E061A12E
:1050B0002F7081E090E0AC0101C0440F2A95EAF71F
:1050C000342F3095362331A322A1242B22A3209103
:1050D0003301E22FE295EF70F0E031A12F7001C0B3
:1050E000880F2A95EAF7982F9095932391A392A180
:1050F000892B82A38FE891E00197F1F700C00000AF
:105100001091A9036AEA73E044E351E083E3E82ED7
:1051100081E0F82EFB0128C0DA012D91AD01822F2C
:1051200082958F7090E0DC0190968C9190E02F70CA
:1051300002C0959587952A95E2F78170D7019D91D8
:105140007D01292F22952F7030E0D90190962C9166
:1051500030E09F7002C0359527959A95E2F790E070
:1051600020FD92E0892B81938E2F861B8117A0F260
:10517000809128018091280195E0811190E0909321
:10518000860385E0891B8093850309E812E06EE8B9
:10519000E62E62E0F62EF80181918F018F3F11F02B
:1051A0000E945307E016F106B1F70EE812E054E949
:1051B000E52E52E0F52ED8018D918D018F3F11F033
:1051C0000E945307E016F106B1F78AE0EFE8F3E03A
:1051D000DF01282F1D922A95E9F7EBE7F3E0DF01C5
:1051E0001D928A95E9F790E080E00E945F2E873E4D
:1051F0009E4F09F45EC067EE7EEF90E080E00E9473
:10520000832E60E082E090E00E94652E60E083E003
:1052100090E00E94652E109288031092870360E050
:1052200074E184E090E00E94832E60E086E090E0EC
:105230000E94652E6FEF87E090E00E94652E40E0AF
:1052400050E0BA0188E090E00E94772E60E08DE0A7
:1052500090E00E94652E40E050E0BA0188E190E0C5
:105260000E94772E60E087E190E00E94652E40E08A
:1052700050E0BA018CE190E00E94772E70E060E08F
:1052800080E290E00E94832E40E050E0BA0188E185
:1052900090E00E94772E40E050E0BA018FE090E06D
:1052A0000E94772E40E050E0BA0183E190E00E9436
:1052B000772E82E090E00E94572E8093990384E03D
:1052C00090E00E945F2E90938C0380938B0383E089
:1052D00090E00E94572E90E00E94970A0E94E50CF1
:1052E000811102C00E94932C89E291E090933404D2
:1052F0008093330438E1C32ED12C49E9A42E43E036
:10530000B42E24EA822E23E0922E8091590400E1EB
:1053100012E1853009F47EC00E94B9220AE913E047
:105320009FE8E92E93E0F92ED701F80191918D9134
:105330008E169F0609F478C09817C1F30E94E50CF9
:10534000282E712CD7016D907D01F80131908F01CD
:10535000361429F13624512C44244394832D84217E
:10536000B1F02220A1F05C867D8691E0862D84211B
:1053700009F490E09E870E9444058160782F988B05
:105380008F874C855D856E8588890E949520539412
:10539000440CF6E05F12E2CFF8013197608273941B
:1053A0002AE07212CFCF0E9438055EC08091590466
:1053B000843011F110923704E0E40FB6F894A89508
:1053C000C09260000FBEE093600083B7817F84606D
:1053D00083BF83B7816083BF7894889583B78E7FBE
:1053E00083BF0FB6F894A895809160008861809380
:1053F0006000109260000FBE80914904882351F034
:105400000E94B922EFE8F3E08191811111C2AE163A
:10541000BF06D1F780915904853009F4C7CF0E94A7
:105420001B100E94080D78CF981388CF0E94440566
:105430008C0180918D0390918E0308171907A1F0BC
:105440008FEF8F83888719860E9444058160782FAB
:105450009B878A874F81588569858B850E94952017
:1054600010938E0300938D030E94E50C8823A9F10D
:1054700080914A02882301F180912F049091300499
:105480000097D1F00E9429052091C0033091C103FB
:105490002817390788F490912D0480912E049817CD
:1054A00009F415C10E9402201092C1031092C0039A
:1054B0001092300410922F048091BF03882369F06A
:1054C0000E9444052091BD033091BE03821B930BC3
:1054D0008F3F9F4710F40E94750D612C512C8091D5
:1054E000A903681608F4FCC051100E94590986E00F
:1054F000E6EBF3E0DE01119601900D928A95E1F75B
:105500001092B8031092B9031092BA031092BB0321
:105510008B819C81892B09F44DC08091B4039091BB
:10552000B5030E9429059C019091AD03992309F4CC
:1055300099C12930310508F43DC09F3F19F09F5FA4
:105540009093AD038B81882361F00E94BF069B81FD
:1055500019160CF455C19FEF899F802D112480935B
:10556000B8038C81882361F00E94BF069C811916C4
:105570000CF448C19FEF899F802D11248093B903BB
:105580003091B8033323B1F02091B903222391F075
:1055900045EB3403C0011124992309F435C19093DC
:1055A000B80345EB240390011124332309F430C1DF
:1055B0003093B9038D819E81892B09F45AC0809163
:1055C000B2039091B3030E9429051091B0031123F7
:1055D00009F444C1BC0190E080E00E94AC2F20910E
:1055E00035013091360140913701509138010E94C8
:1055F0005E3018160CF03DC01F3F19F01F5F10936E
:10560000B0038D81882361F00E9430069D811916B8
:105610000CF402C19FEF899F802D11248093BA035F
:105620008E81882361F00E9430069E8119160CF449
:10563000F5C09FEF899F802D11248093BB0330918B
:10564000BA033323B1F02091BB03222391F045EB41
:105650003403C0011124992309F4E2C09093BA03E2
:1056600045EB240390011124332309F4DDC030936A
:10567000BB0346E050E0BE016F5F7F4F86EB93E0D7
:105680000E94D030892B61F48091B8039091B903C6
:10569000892B9091BA03892B9091BB03892B11F030
:1056A0000E94090686E0FE013196A6EBB3E0019068
:1056B0000D928A95E1F70E94080D9091AC0389172D
:1056C00009F423CE8093AC030E9438051ACE0E94C1
:1056D000981F1092300410922F040E94E205ECCE25
:1056E000062D10E0F801EC5CFE4F8081E82FE2957A
:1056F000EF70F0E0E0A1F0E08F7002C0F595E79563
:105700008A95E2F7E170D801AD5CBE4F2C91A22FD3
:10571000A295AF70B0E090968C9190E02F7002C08F
:10572000959587952A95E2F780FD62C080E08E2BE3
:10573000D801A655BC4FEC919E2F9370891709F4A0
:1057400055C0EE0FEE0FE82BEC93D801AF5CBE4FC7
:10575000EC907090A803760CEF70F0E0EC56FD4FE3
:105760000A551C4F8081D8019C91890F8C93F12C94
:10577000082E000C990B412C8E159F0584F0E72D07
:10578000F0E0EC55FC4F80818F5F80830E94E50C38
:10579000482E882379F160E0872D0E94450FF8019B
:1057A0008081082E000C990B222733272E193F09E0
:1057B0002817390784F0E72DF0E0EC55FC4F808185
:1057C000815080830E94E50C482E8823B1F061E06F
:1057D000872D0E94450FD8018C91082E000C990B43
:1057E000B7010E943D2EF80180835428639477CE40
:1057F00082E09DCF44244394D2CF44244394EBCF02
:1058000091E0AACE91E0B7CE81E08093B803C9CEF3
:1058100081E08093B903CECE91E0FDCE91E00ACF36
:1058200081E08093BA031CCF81E08093BB0321CF3A
:1058300009BD19BD09B400FEFDCF8091D8008F7D50
:105840008093D8008091E00082608093E000809196
:10585000E00081FDFCCF0E941B10DCCD0B9708F00F
:10586000CDCE07CF232B09F06ACEA4CE8EE14A9B82
:1058700002C08150E1F74A9BFECF08955A9880E21A
:105880008A95F1F75A9A0895FC013BE03A95F1F7B1
:1058900098E020E080E031E040E14A95F1F7880FA0
:1058A0004A9B02C08160232742E04A95F1F700003D
:1058B00040E14A95F1F7915079F790E19A95F1F727
:1058C00099B132E03A95F1F7000040E14A95F1F7DD
:1058D00092FB992790F992272081920F9083089547
:1058E000A1E0B0E0E6E7FCE20C94FE2D19828C0109
:1058F0007C01E60EF11C0E151F0541F481E0998133
:10590000911180E02196E6E00C941A2E0E94362C2C
:10591000CE0101960E94442CF80181938F01EBCFB8
:10592000529A5A9A089552985A9AEA9AE9E6F0E0F9
:1059300080818F7C808308956150770B91E001C056
:10594000990F6A95EAF720E031E0911108C022230F
:1059500091F05A9A80E28A95F1F75A980895492F62
:10596000482339F05A9A232740E24A95F1F7969551
:10597000ECCF5A98F9CF5A98EDCFFF920F931F931F
:10598000CF93DF93EC018C01060F111DC017D107D7
:1059900029F4CDB7DEB7E5E00C941B2EF9900E94F8
:1059A0003E2C68E08F2D0E949C2CF0CF1F920F920E
:1059B0000FB60F9211240F931F932F933F934F9382
:1059C0005F936F937F938F939F93AF93BF93EF9367
:1059D000FF93CF93DF930F92CDB7DEB719820E946A
:1059E000362CCE0101960E94442C082F0695069570
:1059F0000695282F22952570902F9570290F922FAC
:105A0000937026952695920F982797708981982BE9
:105A100009F05CC0063008F059C080E18A95F1F7C2
:105A20005A9A529A82E08A95F1F700C05A9888E013
:105A3000089F80011124D801A050BF4F1696ED9108
:105A4000FC9117973097A9F06091870270918802B6
:105A500014962D913C911597260F371F11968D9115
:105A60009C911297680F791F13964C9113978C9104
:105A70000995F801E050FF4F6381662351F02091B2
:105A800087023091880284819581820F931F0E9442
:105A9000BD2C0E943E2C80E18A95F1F75A985298CD
:105AA0005A9A80E18A95F1F7F801E050FF4F608142
:105AB000662351F020918702309188028181928182
:105AC000820F931F0E94702C0E94362C0F90DF9142
:105AD000CF91FF91EF91BF91AF919F918F917F9166
