:100000000C94F8030C9415040C9415040C94062E0F
:100010000C9415040C9415040C9415040C941504FC
:100020000C9415040C9415040C94BD270C9479279A
:100030000C94BA280C9415040C9415040C94150413
:100040000C9415040C9415040C9415040C941504CC
:100050000C9415040C9496280C9415040C94150417
:100060000C9415040C9415040C9415040C941504AC
:100070000C9415040C9415040C9415040C9415049C
:100080000C9415040C9415040C9415040C9415048C
:100090000C9415040C9415040C9415040C9415047C
:1000A0000C9415040C9415040C941504E1003132E1
:1000B0000000240025002600000026002700000084
:1000C0002400250000002500260000004200430017
:1000D00000003A003B0000000F0018001C00000068
:1000E0002A00343131320000400041004200430018
:1000F00000002C44282800000B00360000001700E8
:100100000A00000008000C00000018001C0000009D
:10011000360037000000120034310000382431323C
:1001200000003700382400001D24070000001B00D9
:10013000190000001B000700000006000700000077
:100140001B00060000001D241B0000000900130016
:1001500000001A00090000000A0037000000160025
:10016000370000000C0037000000090037000000D5
:100170001B00370000001500370000001A00370090
:1001800000001400370000000700370000001700CF
:10019000370000001300370000000B00370000009C
:1001A000044537000000220027003C5441473E3CF4
:1001B0002F5441473E003C696D67207372633D22B6
:1001C000696D6167655F736F757263655F6F725F9D
:1001D0006C696E6B5F676F65735F6865726522201F
:1001E000616C743D226E616D655F69665F63616E0F
:1001F000745F6C6F6164222077696474683D226E5D
:10020000756D5F706978656C7322206865696768D1
:10021000743D226E756D5F706978656C73223E0067
:100220003C6120687265663D226C696E6B5F676F2A
:1002300065735F68657265223E6E616D655F6F66AE
:100240005F6C696E6B5F676F65735F686572653C55
:100250002F613E003C666F6F7465723E3C2F666F87
:100260006F7465723E003C626F64793E3C2F626F32
:1002700064793E003C686561643E3C2F686561645A
:100280003E003C68746D6C206C616E673D22656E4B
:10029000223E3C2F68746D6C3E003C7374796C6533
:1002A0003E3C2F7374796C653E003C7469746C65D8
:1002B0003E3C2F7469746C653E003C703E3C2F7070
:1002C0003E003C6469763E3C2F6469763E00636F75
:1002D0006E736F6C652E6C6F67282727290028299D
:1002E000203D3E207B7D002829203D3E2000636F7D
:1002F0006E737420796F757246756E63566172699C
:1003000061626C65203D2028782C7929203D3E20B3
:1003100078202B20792E6D6574686F643B005B5DDF
:10032000007B7D002829003C3E0043616E617279AC
:100330000051574552545900436F6C656D616B2DE8
:1003400044480032003A003B003C003D003E00299A
:100350002F14001A000900130005002B2504451571
:1003600000160017000A00E1001D241B000600070C
:1003700000190000000E2428282C437321100D01C1
:100380007E43004200410040003F002A0033001C31
:100390000018000F000D00343112000C000800118D
:1003A00000100031323824370036000B000E0000F8
:1003B00000AE004C442C432721352432003A003B48
:1003C000003C003D003E00292F14001A00080015D3
:1003D0000017002B2504451600070009000A00E15C
:1003E000001D241B0006001900050000000E242833
:1003F000282C437321100D027E430042004100402F
:10040000003F002A00130012000C0018001C0034EA
:100410003133000F000E000D000B0031323824374D
:10042000003600100011000000AE004C442C4327A1
:1004300021352432003A003B003C003D003E0029BB
:100440002F14000F001C00130005002B2506451576
:1004500000160017000A00E1001A240D0019000719
:10046000000E0000000E2428282C437321100D00DC
:100470007E43004200410040003F002A0033001844
:1004800000120009001D00343104000C00080011A6
:1004900000100031323824370036000B001B0000FA
:1004A00000AE004C442C432721352432001E001F8F
:1004B0000020002100220035021E02360237022EE3
:1004C0000023022B0220022F24005701573021E184
:1004D000001F0221022F023002220200000100014F
:1004E000002C4501001405127E270026002500245B
:1004F0000023002A0033022600250024002502578D
:100500000056002300220021002402310254002062
:10051000001F001E0027000000AB00270027450138
:100520000035021C701E001F002000210022001B4D
:1005300070D300D200CD00D100010001000100CF36
:1005400000CE00D00001000100CF00CD00CE00D0D1
:100550000001000000010028082C450100270812B6
:100560007E270026002500240023002A00D300D285
:1005700000D300D100A800010030082F080A7E092E
:100580007EA900010001000D7E0B7E0C7EAA0000FA
:10059000002708010001000100010001003A003BB2
:1005A000003C003D003E00010001004200430044C9
:1005B000004500390001003E243F2240284121012E
:1005C0000001003A003B003C003D00000001002813
:1005D0000801000E7E0100127E47004F08520C50A9
:1005E000084B012A0053004D0052004A004E0111F1
:1005F0007E107E4F0051005000117E49004F084E82
:1006000000510C4B000E7E000001000100010001B2
:10061000000F7E05010906A1018501050719E029E2
:10062000E71500250195087501810295017508817E
:10063000010507190029FF150026FF00950675081A
:10064000810005081901290595057501910295019B
:1006500075039101C005010902A10185020901A1EB
:100660000005091901290815002501950875018162
:10067000020501093009311581257F950275088130
:100680000609381581257F950175088106050C0A34
:1006900038021581257F950175088106C0C00501C6
:1006A0000980A101850319012AB700150126B700A9
:1006B000950175108100C0050C0901A1018504197F
:1006C000012AA002150126A002950175108100C023
:1006D00009022200010100A0FA090400000103013F
:1006E000010009211101000122BD0007058103203D
:1006F0000001120100020000000813402220130034
:10070000010200010E034C00650065006C006F00E3
:100710006F000000260343006C00690063006B005B
:100720006500740079002000530070006C006900BF
:10073000740020004C0074006400000004030904ED
:1007400000000000000000000000000000000000A9
:100750000000000000000000000000000000000099
:10076000000000007E0F00D4FFFFFFC700000078EC
:1007700000000000000000002A2B280000000000FC
:100780000000000000000000000000290000000040
:100790002C1E3420212224342627252E362D3738AE
:1007A000271E1F202122232425263333362E3738B7
:1007B0001F0405060708090A0B0C0D0E0F10111275
:1007C000131415161718191A1B1C1D2F3130232D41
:1007D000350405060708090A0B0C0D0E0F1011123F
:1007E000131415161718191A1B1C1D2F3130354CF0
:1007F00011241FBECFEFDAE0DEBFCDBF12E0A0E0D4
:10080000B1E0E0EFF4E602C005900D92A83CB1071C
:10081000D9F724E0A8ECB2E001C01D92A438B207D9
:10082000E1F70E94E1280C9416320C940000E8EDE8
:10083000F0E080818E7F80831092E2001092DA00D7
:100840001092E100A0EEB0E08C9181608C938081E9
:100850008F77808319BCA7EDB0E08C918E7F8C934D
:1008600080818F7E80831092660408952091E40039
:100870003091E50095E6A9012091EC00822F81706E
:1008800020FF06C08091E80080FF06C080E0089548
:100890002091E80022FD1AC080918304882389F00A
:1008A000853089F08091EB0085FD0FC02091E40038
:1008B0003091E50042175307F9F29150E1F684E0D8
:1008C000089582E0089583E0089581E0089580917D
:1008D0007B0487FF13C08091E80082FF06C08091EF
:1008E000E8008B778093E80004C080918304811135
:1008F000F2CF0895809183048823D9F38091E80092
:1009000080FFF8CF8091E8008E77ECCF982F9093FE
:10091000E900242F762F50E0891731F07091EC0018
:100920002091ED005091F00021FD07C09F5F9730AE
:1009300071F78093E90081E008953091EB003E7FEC
:100940003093EB003091ED003D7F3093ED0030911E
:10095000EB0031603093EB007093EC002093ED00DE
:100960005093F0002091EE0027FDE0CF80E0089545
:10097000B0E0A0E0EEEBF4E00C942C2FC8EDD0E05A
:1009800088818F7E8883E7EDF0E0808181608083BD
:1009900084E082BF81E08093660488818E7F8883B3
:1009A00002EE10E0F80110821092DA0081EEC82EFB
:1009B000D12CF601108288818F77888388818068A6
:1009C000888388818F7D888319BC1092830410925C
:1009D0007A04109273041092720490EEE92EF12CB6
:1009E000F70180818B7F808388818160888342E0EA
:1009F00060E080E00E948604F60180818E7F808323
:100A0000F801808181608083808188608083F70124
:100A100080818E7F8083888180618883CDB7DEB7B7
:100A2000E8E00C94482FFC018091810490918204AD
:100A300086179707A0F06115710529F49091E800D9
:100A40009E779093E80090E06115710551F4911143
:100A500008C08091E80082FF34C080E00895BC01A6
:100A6000F2CF809183048823C1F18530C1F1809158
:100A7000E80083FD30C08091E80082FDEACF8091DC
:100A8000E80080FFE1CF8091F3002091F200382F41
:100A90006115710519F02830310558F091E02830C2
:100AA000310509F090E02091E8002E772093E800CE
:100AB000CBCF81918093F100615071092F5F3F4F3F
:100AC000E7CF80918304882341F0853041F0809105
:100AD000E80083FFBECF81E0089582E0089583E0BF
:100AE00008958091680408959C014FB7F89480910F
:100AF000620490916304A0916404B09165044FBFB7
:100B0000821B930B08952FB7F89460916204709143
:100B1000630480916404909165042FBF08952FB7FA
:100B2000F8948091620490916304A0916404B09160
:100B300065042FBF08959C01FC0133969FEF80E070
:100B40004191461751F09F3F19F4411101C0982F70
:100B50008F5F8630A9F79F3F09F40895290F311D53
:100B600097FD3A95F90163830895A3E0B0E0EBEBBC
:100B7000F5E00C94322F20915F0430916004281727
:100B80003907A1F09093600480935F04E0915D04C5
:100B9000F0915E04309751F024E029839B838A838F
:100BA0000680F781E02DCE01019609952396E2E0BB
:100BB0000C944E2FA3E0B0E0E0EEF5E00C94322F61
:100BC00020915B0430915C0428173907A1F09093C1
:100BD0005C0480935B04E0915D04F0915E043097C7
:100BE00051F023E029839B838A830680F781E02DDF
:100BF000CE01019609952396E2E00C944E2FDC017C
:100C00006091530480915404962F891301C0089574
:100C1000292F30E0F901EE0FFF1FE55BFB4F40810C
:100C200051814A175B07A1F487E08A9FA0018B9F3F
:100C3000500D11244B5A5E4F81E0FA0184839613C4
:100C4000E6CF2F5F3F4F237033272093530408953F
:100C50002F5F3F4F922F9370D8CF1092E8031092DE
:100C6000E703E5E5F1E08581811102C01482168277
:100C7000379682E0ED36F807B1F70895FC01680F6A
:100C8000791F8FEF91E32191822728E030E087FFE1
:100C900009C0880F892721503109C9F7E617F707DE
:100CA00091F70895880FF7CF0E948F059C019091CE
:100CB000E0038091E103982B21F03093DD03209332
:100CC000DC039091E2038091E303982B21F03093B1
:100CD000DB032093DA03E0915D04F0915E0430972A
:100CE00049F082E08093DE030480F581E02D8EEDF3
:100CF00093E0099508958F929F92AF92BF92CF9201
:100D0000DF92EF92FF928091D903982F957071F046
:100D1000C12CD12C20E4E22E22E4F22E82FD52C01E
:100D2000C12CD12CE12C91E4F92E4CC08091D80338
:100D30008823B1F3E090D603F090D703E114F104D7
:100D400079F320E030E048EC51E46091510170917A
:100D5000520180915301909154010E9436308823B2
:100D6000F9F2C7010E94740562E370E00E94592FF6
:100D700090E080E00E94DC306B017C0120E030E0FC
:100D800040E05FE30E949331A70196010E949331F6
:100D90004B015C0120E030E040E051E4C701B601C6
:100DA0000E94CA2F9B01AC01C501B4010E94CA2F49
:100DB0006B017C0120E030E048EC51E40E948E3170
:100DC00018160CF1A701960160E070E08AE794E440
:100DD0000E943B3060935101709352018093530104
:100DE00090935401C701B6010E94AD3081E0693093
:100DF00008F082E0FF90EF90DF90CF90BF90AF902F
:100E00009F908F900895C12CD12C88ECE82E81E41E
:100E1000F82ED8CF8F929F92AF92BF92CF92DF924F
:100E2000EF92FF928091D903982F957081F0C12C99
:100E3000D12C38ECE32E33E4F32E82FF4AC0C12CD0
:100E400020E8D22E2BE3E22E25E4F22E42C0809140
:100E5000D503882309F45DC08091D6039091D70310
:100E6000009709F456C00E94740562E370E00E9486
:100E7000592F90E080E00E94DC306B017C0120E083
:100E800030E040E851E40E94933120E030E048EC4B
:100E900052E40E94CA2F4B015C0120E030E040E0A8
:100EA00051E4C701B6010E949331A70196010E9447
:100EB00093319B01AC01C501B4010E94CA2F6B01A3
:100EC0007C0120E030E046E954E40E948E3118169F
:100ED0003CF120E030E04AEF52E4C701B6010E9445
:100EE0003B300E94AD30662311F18FE767FD08C0EB
:100EF00070E090E080E00E94DC300E94AD30862FF0
:100F0000FF90EF90DF90CF90BF90AF909F908F9029
:100F10000895C12CD12C98ECE92E92E4F92ED9CF6A
:100F2000C12CD12C86E9E82E84E4F82ED2CF60E0E3
:100F300070E080E89FE3E1CF80E00895F894E82F27
:100F4000E295EF70F0E031A1282F2F7081E090E062
:100F500001C0880F2A95EAF7982F9095932391A3C3
:100F600092A1892B82A3789408959091B10392FF66
:100F700006C0282F28712830F9F4877F846093FFFA
:100F800006C0282F28712831F1F4877E84612091D2
:100F9000B20320FF06C0382F38713830D9F4877F6C
:100FA000816021FF06C0282F28712831D1F4877E67
:100FB000816194FD877E0895282F24712430F9F6ED
:100FC0008B7F8860DCCF282F2471243101F78B7E42
:100FD0008861DDCF382F3171313019F78E7F88600D
:100FE000E0CF282F2171213121F78E7E8861E1CF5A
:100FF000972F7A30B8F46630A8F4863098F470E011
:1010000026E0929F600D711D1124FB019CE3899FD6
:10101000E00DF11D1124EE0FFF1FED5BFC4F8591DC
:101020009491089580E090E00895CF93DF93EC01D0
:1010300082389105B9F108F041C08133910509F476
:101040009FC050F58932910509F48FC08A9709F441
:101050009EC0C11520E5D20708F0BDC0C11530E41F
:10106000D30708F00AC1C03ED10508F0A5C0CD3CA9
:10107000D10508F000C1C83AD10508F08FC0C53AC3
:10108000D10508F0F0C0C130D10539F1209729F120
:10109000C430D10510F546C08533910509F460C010
:1010A000C997B9F68091B103837009F044C180916A
:1010B000B20383FF12C0C9E2D0E00FC0833E9105A6
:1010C000A1F178F4803E910509F1823E910509F085
:1010D000C0CF8091B10382FD21C0CE01DF91CF91BD
:1010E0000895863E910561F1873E910571F1843E38
:1010F000910509F0AECF8091B20381FFEECF8091D0
:10110000B103C7EED0E084FD0DC0E7CF8091B103FD
:1011100080FD33C09091B20390FFDFCFC3EED0E0EB
:1011200084FFDBCFD0E0C0E0D8CF8091B10382FD57
:10113000FFC09091B20390FDFEC084FFCECFF2CFEE
:101140008091B10383FDDDCFC8CF8091B10383FDD2
:10115000F5C09091B20391FFF0CFC4EED0E0BDCFC7
:101160008091B10385FFB9CFA6CF8091B10385FDF2
:10117000E8C08091B20383FFB0CFC9E3D0E0ADCF28
:101180008091B10386FFA9CFCAE2D0E0A6CF8091BB
:10119000B10386FFA2CFC1E3D0E09FCFC43CD1050D
:1011A00008F6C85AD0E0CC0FDD1FCE58DD4F0990AD
:1011B000D881C02DD46491CFC11540E2D40708F086
:1011C000AAC0C11581E0D80708F087CFC83ED10575
:1011D00008F483CFA7CFC03622E5D20718F5C03474
:1011E00032E5D30708F053C0C03242E5D40708F017
:1011F00047C0C11582E5D80708F47FC02C2F26957B
:10120000269540E2249F900111248C2F8370C1E029
:10121000D0E002C0CC0FDD1F8A95E2F7C22BD32BA2
:10122000DD685BCFC03A22E5D20760F4C03832E512
:10123000D30708F441C0CF71D0E0DC2FCC27C46FB6
:10124000D06A4BCFC03C42E5D40708F44AC0C03E48
:1012500082E5D80708F066CFDC2FCC27CC27DF71DA
:10126000C06FD06A3ACFC55AD0E0C159DD4FC881AE
:10127000D0E0D06432CFD06530CFDF70D06A2DCFD0
:10128000CF71D0E0DC2FCC27C16FD06A26CF2C2FB6
:1012900026952695277080E2289F900111248C2F97
:1012A0008370C1E0D0E002C0CC0FDD1F8A95E2F769
:1012B000C22BD32BDC6811CF2C2F269526952770B7
:1012C00040E2249F900111248C2F8370C1E0D0E074
:1012D00002C0CC0FDD1F8A95E2F7C22BD32BDA6850
:1012E000FCCE8C2F8F710E94B507C82FD0E0DC2F69
:1012F000CC27CC27DF71D062F0CE8C2F8F710E946B
:10130000B50735E0D695C7953A95E1F7CF709C2F94
:10131000EC01D069E2CE8D2F8F710E94B50790E06D
:10132000982F882788279F719C012C2BE901E3CFF8
:10133000C2EED0E0D2CEC0EED0E0CFCEC6EED0E04E
:10134000CCCEC5E3D0E0C9CE0E948305089580913C
:101350005C03882331F010925C0310925B031092BF
:101360005A0308958091E60381110FC0109258042A
:101370000E94A7090E948F0588579C4E9093E50311
:101380008093E40381E08093E6030895CF93C82F10
:101390008091B20382FF0CC080915C038C1741F0F6
:1013A0000E948F0590935B0380935A03C0935C0364
:1013B000CF91089580959091570498239093570466
:1013C0000895809590915804982390935804089517
:1013D00080914D0390910C03981301C008958F5F85
:1013E0008770FACFB0E0A0E0E8EFF9E00C942B2F83
:1013F0007C010091AF031091B0038091AD039091F7
:10140000AE03082B192BCFE0D0E0CC24C394D12C11
:10141000BC2EC6010C2E02C0880F991F0A94E2F759
:1014200080239123892B49F4219790F7B12C8B2DA0
:10143000CDB7DEB7E9E00C94472FB7018C2F0E949F
:10144000F8070E941508019779F3F1CFCF93DF9346
:10145000EC010E94F209BE010E94F8070E941508E3
:10146000DF91CF9108959A3078F5863068F5E82FAE
:10147000F0E086E0989FE00DF11D11249E2F9770FB
:1014800083E0F695E7958A95E1F7EE0FFF1FEE0FE3
:10149000FF1FEC51FD4F50E040E080E0219130E033
:1014A000092E02C0369527950A94E2F7217033275A
:1014B000042E01C0220F0A94EAF7822B4F5F5F4F80
:1014C0004430510559F7089580E008959A3098F511
:1014D000863088F5E82FF0E086E0989FE00DF11D5A
:1014E00011248E2F877041E001C0440F8A95EAF7DE
:1014F00083E0F695E7958A95E1F7EE0FFF1FEE0F73
:10150000FF1FEC51FD4F30E020E070E05191DF0112
:101510001197CB01022E02C0969587950A94E2F7A7
:10152000817081958527842385278C932F5F3F4F7A
:101530002430310559F708959093B0038093AF0399
:10154000089521E030E002C0220F331F8A95E2F7B0
:10155000209530958091AF039091B003822393231F
:101560000E949C0A0895909150038095892380934E
:101570005003282F2770B1F4282F082E000C330BAE
:101580009217130679F09091B20392FF0BC08595E4
:10159000859585950E94A10A1092500310924F03E1
:1015A00010924E03089521E030E002C0220F331F55
:1015B0008A95E2F78091AF039091B003822B932B31
:1015C0000E949C0A08959093AE038093AD03089502
:1015D000FC0183819481892B29F080819181892369
:1015E0008F3FF1F480E008950E94150892959F7056
:1015F000963089F058F4925F9F70923098F7803F50
:1016000019F030F4883E70F781E008959A5FF4CFC6
:10161000843F41F7F9CF883EB8F3813F19F7F4CF03
:1016200086819781009701F7808191810E94260A27
:10163000DDCFCF93DF93C82F662309F469C0809173
:10164000D6039091D703892B31F40E948F05909394
:10165000D7038093D603CD3C51F40E940A078195AD
:101660008093E1030E945406DF91CF910895CE3C10
:1016700019F40E940A07F4CFCF3C31F40E940A0704
:1016800081958093E003EECFC03D19F40E940A07D4
:10169000F8CFC93D29F40E947B068093E203E2CF94
:1016A000CA3D21F40E947B068195F7CFCB3D31F4F2
:1016B0000E947B0681958093E303D4CFCC3D19F43F
:1016C0000E947B06F8CF8FE28C0F883070F4C15DEA
:1016D000DD0B21E030E001C0220FCA95EAF78091CE
:1016E000DF03822B8093DF03BDCF8091D90381601C
:1016F000CD3D59F08091D9038260CE3D31F0CF3D90
:1017000009F0B0CF8091D90384608093D903AACF28
:101710004091E0038D3C79F48091E10387FF11C093
:101720001092E10341110FC01092D5031092D7031C
:101730001092D60308C08E3C81F48091E103181604
:101740007CF3442381F08091E2039091E303892BA1
:1017500009F088CF1092D80385CF8F3C49F447FF1A
:10176000F0CF1092E0038091E1038111ECCFDCCF48
:10177000803D19F41416ACF3E4CF8091E203C93D27
:1017800029F41816F4F61092E203DBCFCA3D19F4DF
:1017900087FFD7CFF8CF8091E303CB3D29F487FFB4
:1017A000D0CF1092E303CDCFCC3D19F41816CCF373
:1017B000C8CF8FE28C0F883078F4C15DDD0B81E0FB
:1017C00090E001C0880FCA95EAF780959091DF03F9
:1017D00089238093DF03B5CF8091D9038E7FCD3DE0
:1017E00059F08091D9038D7FCE3D31F0CF3D09F086
:1017F000A8CF8091D9038B7F8093D903A2CFA5E096
:10180000B0E0E5E0FCE00C94312F9C01FC01868106
:1018100097810097E1F485E0DE01119601900D9229
:101820008A95E1F7F901228189819A81222399F031
:10183000662389F00E94F209182F682F89819A8106
:101840000E94660A69817A81812F0E94F807259695
:10185000E3E00C944D2F0E94330A182FF3CF9C0124
:101860003A9521153F4150F5FC01EE27F170BC017E
:1018700066277270AC01442754709C01222738708F
:1018800094FF0EC080E1EF2B09F480E0672B09F094
:101890008062452B09F08064232B89F080680895CD
:1018A00081E0EF2B09F480E0672B09F08260452B83
:1018B00009F08460232B19F08860089580E0089572
:1018C0000F931F93CF93DF9301E010E0082E02C027
:1018D000000F111F0A94E2F7C0916603D0916703CD
:1018E0009E0120233123232B21F5909150039595C0
:1018F00095959595891306C01092500310924F0349
:1019000010924E030E94D30A0E94830560936203E3
:10191000709363038093640390936503C027D1277A
:10192000D0936703C0936603DF91CF911F910F910E
:1019300008950E94A10AF2CF0F931F93CF93DF93D4
:101940008C01EB0180918304843069F581E0809300
:10195000E9008FEF9091E800815095FD06C095ED6C
:101960009A95F1F700008111F5CF8091E80085FF8D
:101970001AC00E943604811111C08091E80085FDD3
:1019800006C08091E8008E778093E800F2CFF801DE
:1019900081918F018093F100219779F78091E80080
:1019A0008E778093E800DF91CF911F910F9108957A
:1019B00063E070E00E949C0C089566E070E00E9475
:1019C0009C0C0895CF93DF93EC0180916E028111FE
:1019D00011C068E070E0CE0101960E949C0C89E085
:1019E000FE01A9E6B4E001900D928A95E1F7DF913E
:1019F000CF91089569E070E0CE01EFCFB0E0A0E0B4
:101A0000E4E0FDE00C942A2F7C015B016A018091E7
:101A10009A0301E010E08A3010F40AE010E0C1E01F
:101A2000D0E0B501C701F6010995811104C02196E6
:101A30000C171D072CF4CDB7DEB7EAE00C94462F47
:101A4000CC9F9001CD9F300D300D112490E080E0AF
:101A500045E34A95F1F70000019682179307C1F715
:101A6000E0CF80917C03811110C08091D80080610B
:101A70008093D8008AE18A95F1F700C08091D9005F
:101A800080FF0AC081E080937C0381E090917C0319
:101A9000913009F080E0089582E080937C030E94F9
:101AA000170410928304F1CF0E94310D882359F05E
:101AB000E0915D04F0915E04309729F00190F0818F
:101AC000E02D0995089580E0089580915804909143
:101AD0005704892B8093CB0280915C03882319F1F2
:101AE0000E948F0520915A0330915B03821B930B58
:101AF000883E934010F00E94A7098091CB029091FC
:101B00005C03892B8093CB0220E08DEC92E0FC01FA
:101B10003191CF0131112F5FF2E0833D9F07B9F77B
:101B200021110E94A70949E050E061E573E08AECC9
:101B300092E00E940032892BC1F089E0EAECF2E0E9
:101B4000A1E5B3E001900D928A95E1F7E0915D0483
:101B5000F0915E04309749F081E08093CA020280E0
:101B6000F381E02D8AEC92E009950895CF93DF93FD
:101B7000EC01EA85FB85309719F06C857D85099528
:101B80008B810E94DA098C810E94E1090E94650D17
:101B900086E0FE0111928A95E9F7DF91CF910895D1
:101BA000CF93DF93EC018D8181FD18C082608D831E
:101BB000809157049B81892B80935704809158040E
:101BC0009C81892B809358040E94650DE885F985D6
:101BD000309721F06C857D85CE01099510925A04CD
:101BE000109259048D8180FD03C0CE010E94B60D74
:101BF000DF91CF910895882321F00E94DA090E9495
:101C0000650D08958091E603882329F082E20E9401
:101C1000FB0D1092E6030895882339F09091570444
:101C2000982B909357040E94650D0895882321F006
:101C30000E94E1090E94650D0895882339F0909172
:101C40005804982B909358040E94650D089588239A
:101C5000D1F19CEF980F913A78F4EDECF2E091918C
:101C6000891303C0DF0111971C9292E0E33DF9074D
:101C7000B1F70E94650D089590E2980F983050F4E6
:101C8000877091E001C0990F8A95EAF7892F0E9429
:101C9000E109EFCF9BE5980F933028F490E080E0C6
:101CA0000E94DA05089598E5980F993128F490E09C
:101CB00080E00E94B505089593E3980F933118F4DE
:101CC00060E00E94190B0895CF93DF93EC010E940E
:101CD000270ECE010E942F0CC05ED109289728F450
:101CE0000E94160EDF91CF9108950E94FB0DFACF4E
:101CF000FC012281213031F4858180FF03C083EE15
:101D00000E94270E0895FC012281213031F4858143
:101D100080FF03C081EE0E94270E089580916A0320
:101D2000882329F083EE0E94270E10926A030895FB
:101D3000CF93C82F8823A9F08CEF8C0F813A00F540
:101D4000EDECF2E0DF018D91C81769F082E0A33D70
:101D5000B807C9F76C2F8AEC92E00E949B050E949D
:101D6000650DCF9108958191C81303C0DF011197CC
:101D70001C9282E0E33DF807B1F70E94650DEACFBF
:101D800080E28C0F883068F4C77021E030E001C039
:101D9000220FCA95EAF780915804822B8093580449
:101DA000DECFEBE5EC0FE33040F4F0E0E159FD4F1E
:101DB000808190E00E94DA05D4CFE8E5EC0FE931AC
:101DC00050F4F0E0EE0FFF1FEE58FD4F808191813F
:101DD0000E94B505C6CF83E38C0F833110F661E016
:101DE0008C2F0E94190BBDCF1F93CF93DF93182F19
:101DF000EB010E94980E209739F4812F0E94270E44
:101E0000DF91CF911F9108958FE99FE00197F1F73E
:101E100000C000002197EFCF70E060E0893311F43B
:101E200060E570E00E94F40E0895B0E0A0E0EBE100
:101E3000FFE00C942A2FEC018AE0A82EFE012491E9
:101E4000222309F497C0213009F03EC031968491D5
:101E5000813031F42296FE0184910E940C0F07C05C
:101E6000823039F42296FE0184910E94980E2196C8
:101E7000E5CF833031F42296FE0184910E94270E33
:101E8000F6CF843009F074C02296FE01249190E0D0
:101E900080E0FE0131962053330B2A30310548F0A3
:101EA000019728F3EFE9FFE03197F1F700C0000058
:101EB000F7CFA89EA001A99E500D1124C901840F3F
:101EC000951F2491EF01E5CFE22FF0E0E059F84FA4
:101ED000B490822F86958695869590E0FC01E05A15
:101EE000F84FE4902770F12C022E02C0F594E7948D
:101EF0000A94E2F731E0E322FF24FC01E05BF84FB3
:101F0000C490D12C022E02C0D594C7940A94E2F753
:101F1000E1E0CE22DD24FC01E05CF84F049110E00A
:101F200002C0159507952A95E2F701701127E11473
:101F3000F10419F081EE0E94980EC114D10419F039
:101F400086EE0E94980E8B2D0E940C0FC114D104B6
:101F500019F086EE0E94270EE114F10419F081EECB
:101F60000E94270E0115110509F481CF8CE275CF6F
:101F7000EF017DCFCDB7DEB7EAE00C94462FCF93CB
:101F8000DF93EC010E942F0C9E01205E3109283066
:101F9000310540F40E941D0E8C2F0E94980EDF9197
:101FA000CF9108950E940C0EF7CF0F931F93CF93FC
:101FB000DF938C01D0E0C0E0C99711F4C0E5D0E018
:101FC000C8010E94BF0F209741F4C8010E94640E0F
:101FD000DF91CF911F910F9108958FE99FE00197B5
:101FE000F1F700C000002197EECFFC0122812130E3
:101FF00099F4858180FF04C083EE0E94980E0895B5
:1020000081EE0E94980E87E20E94980E87E20E945D
:10201000270E81EE0E94270E0895FC0122812130B7
:1020200099F4858180FF04C081EE0E94980E089586
:1020300081EE0E94980E86E20E94980E86E20E942F
:10204000270E81EE0E94270E089580916A03811168
:1020500006C083EE0E94980E81E080936A030E947E
:102060008F0590936903809368030895CF93DF935E
:10207000D82FC62F0E948F052091D3023091D40211
:10208000821B930BC29708F46AC00E948F0590933D
:10209000D4028093D3028091AF039091B003B0E05B
:1020A000A0E0492F5A2F6B2F772720E041155105CB
:1020B0006105710519F0DB01CA0128E0AC01BD0121
:1020C000F4E07695679557954795FA95D1F74115C0
:1020D00051056105710519F02C5FDB01CA01AC01E6
:1020E000BD01E2E07695679557954795EA95D1F75A
:1020F000411551056105710519F02E5FDB01CA011B
:10210000B695A79597958795892B8A2B8B2B09F0E8
:102110002F5F243009F44EC02530D1F1233009F06F
:1021200052C0D1112AC0D09158048D2F8272D9F09B
:102130008D2F0E94160E2FEF81EE94E021508040EB
:102140009040E1F700C0000086E395E0C11102C0B5
:1021500087E395E00E94D50F8D2F0E941D0E80E031
:10216000DF91CF9108958D2F0E94160E8EEBC11135
:1021700001C08DEB0E940C0FEFCFD13081F78DE1C4
:1021800098E0CC2311F08DE19AE00E94D50FE7CFC3
:10219000D11107C08FE09EE7C111F7CF8EE09EE717
:1021A000F4CFD130E1F68FE49BE0CC2371F380E5EE
:1021B0009BE0EBCFD13099F686E598E0CC2329F36C
:1021C00087E598E0E2CFD1110DC0C11106C00E9491
:1021D00025108BE20E940C0FC2CF0E9425108BE2CB
:1021E00092E0D3CFD13009F0BACF8AEA90E0CC2385
:1021F00061F289EA90E0C9CF9091B20392FB222765
:1022000020F9281779F080FB92F99093B20360913E
:10221000B1037091B20384E090E00E94B32F82E09A
:102220000E94B30A0895CF9310925804C6E0EDECD3
:10223000F2E0DF018C2F1D928A95E9F790E080E0B3
:102240000E94DA0590E080E00E94B50510925704E4
:102250000E94650DEEEDF3E0DF011D92CA95E9F7EE
:102260001092D5031092D8031092D9030E945406FD
:10227000CF910895AAE2B0E0E0E4F1E10C94312FAF
:102280008BE794E02091F100FC012193CF01F4E071
:1022900083389F07B9F780917C04833009F470C0BC
:1022A000B8F4813009F447C0823009F4B1C080919C
:1022B000E80083FF39C180917B0490917C049A30BF
:1022C00008F032C1E92FF0E0E85EFD4C0C94812F5C
:1022D0008A3009F48CC08B3009F46FC0893039F72B
:1022E00080917B04813219F780917F049091800462
:1022F000892BE9F68091E800877F8093E800809140
:10230000E80082FF38C09091F3008091F2000297BC
:1023100031F48091F100813011F0863021F4809108
:10232000F100809368048091E8008B778093E80047
:102330000E946704BCCF80917B04813A09F0B7CF3B
:102340008091E800877F8093E80080917F049091DE
:102350008004892B61F469E089E694E070E00E94D2
:1023600013058091E8008B778093E800A0CF60E0B0
:1023700090E080E0F3CF809183048111C0CF97CFAC
:1023800080917B04813A09F092CF80917F049091F3
:102390008004892B09F08BCF8091E800877F8093A0
:1023A000E8008091E80080FFFCCF80916E0280936E
:1023B000F1008091E8008E77B9CF80917B04813263
:1023C00009F075CF80917F0490918004892B09F0EA
:1023D0006ECF8091E800877F8093E8000E946704B9
:1023E00080917D0480936E020E94131160CF8091D2
:1023F0007B04813209F05BCF8091E800877F809376
:10240000E8000E94670480917E04809367044FCFA8
:1024100080917B04813A09F04ACF8091E800877F60
:102420008093E8008091E80080FFFCCF80916704F2
:10243000BECF803899F0823809F076C080917F0451
:102440008F70873008F070C08093E9008091EB00B6
:1024500085FB882780F91092E90006C080917204FC
:1024600090917304911182609091E800977F90930E
:10247000E8008093F1001092F1008091E8008E77DF
:10248000B6C1882309F4A3C1823009F04DC0809100
:102490007D048111A7C180917F048F702FEF280FD9
:1024A000263008F041C08093E9002091EB0020FF26
:1024B00099C1933031F48091EB0080628093EB00FE
:1024C00091C19091EB0090619093EB0021E030E09E
:1024D00001C0220F8A95EAF72093EA001092EA00E1
:1024E0008091EB008860EACF81111EC010917D04BD
:1024F0001F778091E3008078812B8093E3008091A7
:10250000E800877F8093E8000E9467048091E800DC
:1025100080FFFCCF8091E30080688093E30082E03D
:10252000111183E0809383048091E80083FF0AC047
:102530008091E800877F8093E8008091EB008062C3
:102540008093EB00AA96E3E00C944D2F80588230E4
:1025500058F780917D0490917E048C3D23E0920792
:10256000A1F583E08A838AE289834FB7F894DE017C
:10257000139620E03EE051E2E32FF0E05093570045
:10258000E49120FF03C0E295EF703F5FEF708E2F64
:1025900090E0EA30C0F0C7968D939D932F5F243171
:1025A00059F74FBF8091E800877F8093E8006AE287
:1025B00070E0CE0101960E9413058091E8008B77B0
:1025C0008093E800B1CFC096E7CF40917F0450914F
:1025D0008004292F33272330310509F440C078F5D2
:1025E0002130310509F48EC082E290E0E0EDF6E0A2
:1025F0002230310509F098CF2091E800277F209301
:10260000E80020918104309182048217930708F436
:102610009C0140E02115310509F079C0411177C0D6
:102620008091E80082FDC9CF80918304882329F23C
:10263000853019F28091E80083FFF2CFBECF2132BE
:10264000310509F457C02232310509F06DCF452B11
:1026500009F06ACF8DEB90E0E3E1F6E0CDCF209179
:10266000810430918204409174044F5F409374045C
:10267000309379042093780422303105B1F420910D
:1026800075042F5F2093750499278130910551F1CE
:102690000097E9F0029709F047CFE4E0F7E0E49112
:1026A0008E2F90E0E4E0F7E019C02430310531F4DA
:1026B000209176042F5F20937604E6CF2F3F3105DB
:1026C00019F7209177042F5F20937704DDCFECE397
:1026D000F7E0E4918E2F90E0ECE3F7E0009709F04B
:1026E0008BCF22CFE4E1F7E0E4918E2F90E0E4E19C
:1026F000F7E0F4CF452B09F017CF89E090E0E2EE48
:10270000F6E07ACF82E190E0E2EFF6E075CF8091DB
:102710008304882309F451CF853009F44ECF80918A
:10272000E80083FD4ACF8091E80082FD79CF809157
:10273000E80080FF6FCF9091F3008091F2002115A7
:10274000310519F08830910550F041E0089709F003
:1027500040E08091E8008E778093E8005BCF449161
:102760004093F1003196215031090196E8CF80382D
:1027700009F0DACE8091E800877F8093E8008091AD
:102780007A048093F10079CE8111CECE10917D0430
:10279000123008F0C9CE8091E800877F8093E8006E
:1027A00010937A040E946704112311F084E005C09D
:1027B0008091E30087FDFACF81E08093830442E2B9
:1027C00061EC81E00E94860480918304ADCE80910B
:1027D0007D04813009F0A8CE81E0933009F080E0DB
:1027E000809373041092E9008091E800877F8093C2
:1027F000E8000E94670498CE0E9413112FEF84E333
:102800009CE0215080409040E1F700C0000087E745
:1028100097E7909301088093000888E19AE00FB64B
:10282000F894A895809360000FBE90936000FFCF4E
:10283000CF93DF93EC018832910598F4FC01EE5DB3
:10284000FD4C0C94812F662361F08EED92E00E9486
:10285000150FC8E0D0E080E590E00E94D50F2197E9
:10286000D1F7DF91CF9108956623D9F38EEC92E0F2
:102870000E94150FC8E0D0E080E590E00E94D50FDF
:102880002197D1F7EECF662361F382EC92E00E94AC
:10289000150FC6E0D0E080E590E00E94D50F2197AB
:1028A000D1F7DFCF6623E9F28AEB92E00E94150FA1
:1028B00080E590E00E94D50F80E590E00E94D50F62
:1028C00080E590E00E94D50F80E590E00E94D50F52
:1028D000C8CF662331F28AEA92E00E94150FC8E061
:1028E000D0E080E590E00E94D50F2197D1F7B9CFD5
:1028F000662309F4B6CF8AE992E00E94150FC8E07A
:10290000D0E080E590E00E94D50F2197D1F7A9CFC4
:10291000662309F4A6CF82E892E00E94150FC7E073
:10292000D0E080E590E00E94D50F2197D1F799CFB4
:10293000662309F496CF84E792E00E94150FC7E062
:10294000D0E080E590E00E94D50F2197D1F789CFA4
:10295000662309F486CF86E692E00E94150F80E593
:1029600090E00E94D50F2197D1F77BCF662309F421
:1029700078CF84E592E00E94150FC9E0D0E080E5B1
:1029800090E00E94D50F2197D1F76BCF662309F411
:1029900068CF80E292E00E94150F8AE490E00E94E6
:1029A000D50FCAE0D0E08FE490E00E94D50F2197C8
:1029B000D1F757CF662309F454CF86EB91E00E94FC
:1029C000150F8AE490E00E94D50FCBE0D0E08FE4B1
:1029D00090E00E94D50F2197D1F743CF662309F4E9
:1029E00040CF8AEA91E00E94150F89E290E00E94B0
:1029F000D50FC9E0D0E080E590E00E94D50F219787
:102A0000D1F787E098E00E94D50F87E098E00E9418
:102A1000D50F8AE290E05ACF662309F422CF83EEE5
:102A20000E94980E8DE10E94980E83EE0E94270E60
:102A30008DE10E94270E15CF662309F412CF83EE95
:102A40000E94980E81EE0E94980E8DE10E94980ED1
:102A500083EE0E94270E81EEE9CF662309F401CFB1
:102A600083EE0E94980E8BE10E94980E83EE0E94E6
:102A7000270E8BE1DECF662309F4F3CE83EE0E94AE
:102A8000980E86E00E94980E83EE0E94270E86E044
:102A9000D0CF662309F4E5CE83EE0E94980E89E13B
:102AA0000E94980E83EE0E94270E89E1C2CF662312
:102AB00009F4D7CE82EE0E94980E81EE0E94980E05
:102AC00083EE0E94980E8CE20E94980E83EE0E9484
:102AD000270E81EE0E94270E83EE0E94270E8CE2C5
:102AE000A8CF662309F4BDCE81EE0E94980E83EE36
:102AF0000E94980E89E10E94980E81EE0E94270E96
:102B000083EE0E94270E89E10E94270E89E193E05F
:102B1000DDCE662309F4A5CE83EE0E94980E84E0F4
:102B20000E94980E83EE0E94270E84E082CF88E3F5
:102B300092E0662309F495CEC9CE8EE192E0662339
:102B400009F48FCEC3CE84E392E0662309F489CEE4
:102B5000BDCE8DE292E0662309F483CEB7CE86E542
:102B600090E0662309F47DCEB1CE8EE290E066233C
:102B700009F477CEABCE8FE192E0662309F471CEF3
:102B8000A5CE662309F46DCED0915804C0915C03A4
:102B9000109258040E94A709CD2BC27288EA91E0D6
:102BA00011F486EA91E00E94150FD093580459CE93
:102BB000662309F456CE8091AF039091B00328E0CC
:102BC00082270E949C0A4DCE86EA90E0662309F493
:102BD00048CE7CCE662309F444CE0E94FC1383E5E4
:102BE00090E0662309F43DCE71CE85E490E0662343
:102BF00009F437CE6BCE84E490E0662309F431CE3D
:102C000065CE85E391E0662309F42BCE5FCE8FE29B
:102C10009AE0662309F425CE59CE80E39AE0662334
:102C200009F41FCE53CE85E393E0662309F419CE51
:102C30004DCE662309F415CE0E94B20912CE0E9431
:102C400013112FEF84E39CE0215080409040E1F786
:102C500000C0000088E19AE00FB6F894A895809330
:102C600060000FBE90936000FFCFA8E0B0E0EBE300
:102C7000F6E10C94282F7C01DC0113968D919C9138
:102C80001497892B39F08C9111969C9189238F3F51
:102C900009F068C72896ECE00C94442F80E0BCC78C
:102CA0000034B2E51B0780F50032E2E51E0788F527
:102CB000C80190548115904108F443C0013E1105AC
:102CC00009F059C0F7018281882309F410C1D0901E
:102CD00058048D2D8D7D09F4C5C0C80104974A970D
:102CE00008F49FC180916A03882309F400C1C801D8
:102CF000895A9109029708F4FAC00E3A110509F4AD
:102D0000F6C00E948E0EF3C0C801805C9245809789
:102D1000A8F681E090E0002E02C0880F991F0A9467
:102D2000E2F7209166033091670382239323892B76
:102D300029F2D70112968C91882309F489C7802F34
:102D400085C7F7018581807F09F0B8CF8281811125
:102D500016C0212F2F7081E090E002C0880F991FCC
:102D60002A95E2F72091660330916703822393232B
:102D7000892B09F06DC7053E110509F4A3CF0A3070
:102D8000FEE71F0709F048C0D70112968C918823EF
:102D900009F442C01091580480915C03812B827227
:102DA000B9F482EE0E94980E8091D502811106C07E
:102DB0008FE40E940C0F80E50E940C0F81EE0E94B0
:102DC000980E8FE40E94980E82E08093D50240C74F
:102DD0008091D50281111BC0109258040E94A7094E
:102DE00084E091E00E94BF0F84E091E00E94640EB5
:102DF0008DE492E00E94D50F8AE40E940C0F8DE4CE
:102E000092E00E94D50F1093580483E0DECF81E555
:102E10000E94980E84E0D9CF8091D502823061F073
:102E200028F48130B1F01092D5024CCF833069F094
:102E30008430C9F781E507C08FE40E94270E81EE38
:102E40000E94270E82EE0E94270E81E08093D50219
:102E500039CF0932110539F78FE40E940C0F109217
:102E6000D502F6C6409173035091740360917503C7
:102E7000709176032FB7F894809162049091630467
:102E8000A0916404B09165042FBF841B950BA60B21
:102E9000B70B58018E359140A105B105A8F4BB24AC
:102EA0008091710390917203892B61F48091E60304
:102EB000882329F08091570482608093570480E032
:102EC0000E940C0FD0925804B0927203A09271032A
:102ED0000E9483056093730370937403809375035A
:102EE00090937603D70112968C918111F6CEC09003
:102EF0005804D0905C030B30BEE71B0709F47BC17C
:102F000008F0BDC00115FEE71F0709F43AC108F03B
:102F100095C0073231E2130709F411C1033781E28A
:102F2000180709F4F2C1C80197558F3F910511F0B8
:102F300008F003C2480199242EE0029FF0011124F9
:102F4000CF018F5C9E4F5C01D70112968C91EA5C99
:102F5000FE4F908180FB90F99083882309F4E5C1AE
:102F60000E948F059093CB038093CA03F501828161
:102F70008F5F828380915704C82AC382D4820680DF
:102F8000F781E02D309731F0D5011C966D917C9141
:102F9000C50109958EE0889DF001899DF00D1124F1
:102FA000EF5CFE4F858181FFBDC190E080E0909392
:102FB000590480935A04D0905C0380915804D82A15
:102FC0008091E603882309F4CDC10E948F058857BC
:102FD0009C4E9093E5038093E403D70112968C9165
:102FE000882309F4EEC18D2D8D7909F044C2003497
:102FF000B2E51B0708F01FC20115E2E51E0708F045
:10300000E0C10115F0E41F0708F0FCC1011520E242
:10301000120708F024C2063E110509F4D2C1C80106
:10302000FCC11093DF020093DE0288E0F701A6EDF9
:10303000B2E001900D928A95E1F754CE02309EE7FE
:10304000190709F4C3C008F4B0C00930BEE71B0774
:1030500009F069CFF7018281882309F4F9C510923C
:1030600058040E94A7098D2D8C29827209F4C0C0D2
:1030700080E597E00E94D50FC0925804E9C50E3054
:10308000EEE71E0709F4F7C0B8F50C302EE712077B
:1030900009F4CAC00D303EE7130709F044CFD70149
:1030A00012968C91882309F4D3C58D2D8C298272B8
:1030B00009F4D0C082E20E94E1098D2D827269F08C
:1030C0008D2D8D7D80935C03882309F4C0C00E9400
:1030D0008F0590935B0380935A038EEE92E00E94DB
:1030E000150F09E110E080E50E940C0F0150110955
:1030F000D1F780E596E0BECF00318EE7180709F4DE
:10310000EEC008F4D1C00131AEE71A0709F00BCFC9
:10311000D70112968C91882309F49AC50E948F05D5
:1031200090936F0380936E03809170038111D2C0DE
:1031300083EE0E94980E81E080937003CBC0F7016C
:103140008581807F09F4EFCE8091DE029091DF02CD
:10315000892B09F47DC588E0E6EDF2E0DE011196E9
:1031600001900D928A95E1F785E0F701DE01119655
:1031700001900D928A95E1F7CE0101960E943516D5
:1031800067C5D70112968C91882309F461C561E067
:1031900083E090E00E94952F81E090E00E94E30A96
:1031A00088E393E00E94150F53C5F70182818823BD
:1031B00009F44EC562E083E090E00E94952F82E022
:1031C00090E00E94E30A81E393E0ECCFD7011296EE
:1031D0008C91882309F43CC564E083E090E00E9470
:1031E000952F84E090E00E94E30A8AE293E0DACF30
:1031F0008FE497E03FCFD70112968C91882309F492
:1032000027C5109258040E94A7098D2D8C2982721F
:1032100041F087E293E00E94150F80E50E940C0FB9
:103220002BCF84E293E0F7CFF7018281882309F462
:103230000FC5109258040E94A7098D2D8C29827207
:1032400019F081E293E0E7CF8EE193E0E4CF90E0E4
:1032500080E03FCF87EE92E00E94150F80E50E944C
:103260000C0F80E50E940C0F80E50E940C0F80E59A
:103270000E940C0FD2CFF7018281882309F4E8C4A1
:103280000E948F0590936C0380936B0380916D0374
:10329000811106C080EE0E94980E81E080936D033C
:1032A0008BE20E940C0FD4C4D70112968C91882314
:1032B00009F4CEC40E948F0590936C0380936B0336
:1032C00080916D03811106C080EE0E94980E81E00E
:1032D00080936D038BE292E00E94D50FB9C4F70191
:1032E0008281882309F4B4C40E948F0590936F03F0
:1032F00080936E03809170038111D2CF83EE0E9480
:10330000980E81E080937003CBCFF7018581807F99
:1033100009F409CE8281882309F49AC482E00E94CC
:10332000C60996C4902F812F42CEF501858181FF79
:1033300042CEC5010E94B60D3ECE0337FCE71F0703
:1033400009F039CED70112968C91882309F480C4F4
:103350008091E603882319F00E94020E79C40E942E
:10336000B20976C4B2E2DB1202C00E94B209F701D0
:103370008281882331F1013E110521F0023AF2E504
:103380001F07E9F58091E202882379F0D7011396AF
:103390008D919C912091E0023091E102821B930B70
:1033A0008F3F9F4710F00E94B20981E08093E202B4
:1033B000F7018381948188539F4F9093E10280931A
:1033C000E002D70112968C91882309F42CC1C80120
:1033D0009057839708F052C484E090E00E948F2FAA
:1033E0009093B2038093B103F801E150F047E232C9
:1033F000F10508F05BC0E65BFD4C0C94812F109248
:10340000E202DFCF011530E5130708F008CEF7011F
:103410008581807FB1F2C8019927109257048832C4
:103420009105A0F58E319105B8F5049720F182E061
:103430008093570431C0043B82E5180711F240F431
:10344000C801805692458034910508F0E8CDB9CF87
:10345000C801805C9245809708F0E1CDB2CFD701DA
:1034600015968C91807FB9F6812F8F71823159F03A
:1034700028F4823041F00E94020EA3CF843109F477
:10348000A0CF8631C1F710925704F5CF8D32910548
:1034900071F228F48A9779F70E94650D92CF8C34E7
:1034A0009105D1F38D329240B9F3E5CF8091B1030C
:1034B00081608093B10395C08091B203886080934E
:1034C000B2038FC08091B1038260F3CF8091B103CA
:1034D0008460EFCF8091B1038860EBCF8091B2031D
:1034E0008160EDCF8091B2038260E9CF8091B1031A
:1034F0008061DFCF8091B1038062DBCF8091B10327
:103500008064D7CF0E9413118091B1038068D1CF1E
:103510008091B1038C60CDCF8091B2038360CFCF17
:103520008091B1038E7FC5CF8091B203877FC7CFD3
:103530008091B1038D7FBDCF8091B1038B7FB9CFD7
:103540008091B103877FB5CF8091B2038E7FB7CFD3
:103550008091B2038D7FB3CF8091B1038F7EA9CFCD
:103560008091B1038F7DA5CF8091B1038F7BA1CFD7
:103570000E9413118091B1038F779BCF8091B1038B
:10358000837F97CF8091B2038C7F99CF8091B103D5
:1035900082FB992790F921E0922790FB82F990FB1A
:1035A00083F987CF8091B203982F909591708E7F89
:1035B000892B90FB81F983CF9091B103892F8F7B69
:1035C00096FF806476CF0E9413119091B103892FEA
:1035D00097FB87F980586DCF61E08EE090E00E9404
:1035E000952F6091B1037091B20384E090E00E9446
:1035F000B32F0E9413112CC360E0EFCF9091B10361
:10360000892F8F7E94FF806154CF9091B103892FD1
:103610008E7F90FF81604DCF9091B203892F877F7D
:1036200093FF88604CCF0631BCE71B0729F58091DA
:10363000E30281110FC089E2EDECF2E023ED32E00C
:103640009191891303C0DF0111971C922E173F0738
:10365000B9F728C385E3F0CF0330ECE71E0709F480
:1036600059C008F047C001152CE7120709F450C0F3
:1036700001301C4709F454C0D70116968D919C91D6
:10368000009709F45BC00E9415088C01D7011296BF
:10369000DC9012971596BC90B2943FE0B3228091D3
:1036A00050038770C1F0AD2CDD20B1F0812F807FF9
:1036B000803421F080E2800F883068F08091B2037E
:1036C00082FF09C082E00E94B30A80915003877094
:1036D000AA24A3948111A12C912E92942FE09222DE
:1036E000BBE0B91508F49FC0E92DF0E0E459FD4CAA
:1036F0000C94812F0B358CE71807F1F00C359CE703
:10370000190781F00A351C4709F0B6CF81E011C0D6
:103710000E94FC136FEF7FEF90E080E00E94B32FD8
:103720000E941F168091B20382FB882780F991E0E6
:1037300089270E94FC10A0CF80E0FBCFF701828197
:1037400000811181882369F0C8010E94F209D82EF6
:10375000682FC8010E94660AB8018D2D0E94F807E3
:1037600092CFC8010E94330AD82EF6CFE12FEF7016
:10377000CE2E107F19F0C29490EFC922DD20B9F04F
:10378000CC2069F080E2800F883010F0011109C070
:1037900080915804C82AC09258040E94650D802F59
:1037A00040C080915704C82AC0925704F6CF802F9A
:1037B0000E94270ECC20B9F180E2800F883010F0F3
:1037C000011104C08C2D0E94E10903C08C2D0E94C0
:1037D000DA090E94650D27C0F12FFF70CF2E107FF0
:1037E000103219F0C29480EFC822002351F001304A
:1037F00009F465C0DD2009F46FC0BB2009F465C081
:10380000CECF8091B20382FD38C0DD2081F1CC2083
:1038100039F080915804C82AC09258040E94650D5E
:1038200080E00E94980EE92DE850FF0B349710F4C9
:103830000E94540DAA20B1F08091500380FD12C067
:10384000D70112961C928595859585950E94D30A7D
:10385000C7010E9435168091500385958595859501
:103860000E94A10A60E0C7010E94FF0B13CA80E01A
:103870000E94270ECC20B9F2A5CFDD2071F08091F7
:103880005C038C29B11003C00E941D0ECCCF21E037
:10389000B212FACF0E94C609C6CFB11006C00E946C
:1038A000A7098C2D0E94160EBECF31E0B31609F485
:1038B000BACF8C2D0E94160E0E94A709B4CFDD202E
:1038C00031F085E08B1508F4AECF8C2DDDCF94E080
:1038D0009B1508F4A8CFE5CFBB2019F3093349F4B1
:1038E000AFEFB7EEE3E0A150B040E040E1F700C039
:1038F0000000802F0E94270E96CF812F86958695F7
:10390000837061F0813009F08ECFC8019370D110BF
:1039100002C080E090E00E94B50585CFC801937099
:10392000D11002C080E090E00E94DA057CCF6D2DBE
:10393000802F0E94190B77CF812F837009F03FC031
:10394000D11071CF402F429546954770440F440FD8
:10395000802F8F7090E0042E02C0880F991F0A9468
:10396000E2F730E020E004FF09C02FE030E002C0C1
:10397000220F331F4A95E2F720953095169516953C
:103980001370123099F078F44091AD035091AE036A
:10399000113039F0822B932B842395230E94E30A64
:1039A00042CF842B952B822B932BF8CF822B932BFA
:1039B0002091AD033091AE0382279327EFCF8695F8
:1039C000DD2011F0812F8170882309F42CCF402F46
:1039D000429546954770440F440F802F8F7090E0BA
:1039E000042E02C0880F991F0A94E2F730E020E00D
:1039F00004FF09C02FE030E002C0220F331F4A95B8
:103A0000E2F720953095169516951370123099F0BF
:103A100078F44091AF035091B003113039F0822B0C
:103A2000932B842395230E949C0AFDCE842B952BF7
:103A3000822B932BF8CF822B932B2091AF033091C5
:103A4000B00382279327EFCF1F70DD2029F0812F4D
:103A50000E94D30A802F18CF802F0E94160E812F2C
:103A60000E94A10AE0CE023F79F160F4003FB9F074
:103A7000013F81F0DD2009F465C0B11090CE812FA7
:103A80008F7126C0033F39F1043FA1F78091B20343
:103A900082FD30C0812F8F71DD2011F319C0DD2030
:103AA00071F0F4E0FB1508F4BECE1F7181E090E0E8
:103AB000012E02C0880F991F0A94E2F7BECF25E0BD
:103AC0002B1508F4B0CEF1CF812F8F71D110C8CF54
:103AD0000E94D30AA8CE90E080E0DD2009F4A3CFB5
:103AE0001F7181E090E0012E02C0880F991F0A9497
:103AF000E2F799CFDD20D9F01F71812F0E94D30A00
:103B00008091B20382FF11C038E0139FC0011124DD
:103B1000836080935003812F0E94D30A0E948F05F7
:103B200090934F0380934E037ECE812FD1CF81E0BF
:103B30000E94B30A81E08B1508F075CE82E00E94E6
:103B4000B30A71CEBB2059F0093309F0D2CE9FEFF2
:103B5000A7EEB3E09150A040B040E1F7C8CE812F6E
:103B60008F717ECF61E0C7010E94FF0B8C01F701CE
:103B70008281882309F18091590490915A04009719
:103B8000D9F008171907C1F0BEE08B9FC0011124BE
:103B9000FC01EA5CFE4F2081246020838F5C9E4FF5
:103BA000FC01118300830E94D00D1092570461E044
:103BB000C7010E94FF0B8C010E9483056093620382
:103BC0007093630380936403909365032091AF0324
:103BD0003091B0038091660390916703A9014095ED
:103BE000509548235923452B31F0822393239093FA
:103BF0006703809366030231FEE71F0709F050C890
:103C0000D70112968C91882319F1832F9927009759
:103C100009F444C89C0188E0A90174E056954795D1
:103C20007A95E1F74115510511F08C5F9A01A901D0
:103C300056954795569547954115510511F08E5F5C
:103C40009A0136952795232B09F08F5F0E94600C0F
:103C500080915003877009F41DC8F7018281882381
:103C600011F40C944A168091B20382FD02C00C94A8
:103C70004A1682E00E94B30A0C944A160631FCE709
:103C80001F0709F0E9CC809158048A7A91E009F481
:103C900090E09093E30269E2811165E38AEC92E09F
:103CA0000E949B050E94650DD3CFCF93DF93809137
:103CB0000903807F09F049C080910603882309F435
:103CC00044C080914D03D0910C0360910403709126
:103CD0000503A0910703B0910803C62FC723D81787
:103CE000A1F190E0109711F0CF3F19F40196877081
:103CF000F6CF9C0143E0220F331F4A95E1F7F9010B
:103D0000E35FFC4F41814713F1CF40814613EECF73
:103D100042814111EBCF438154814A1B5B0B483CEC
:103D2000510520F7809109038F708061809309030A
:103D3000F901EE5EFC4F80818F708061808384E0AA
:103D400093E00E9435160E94E809DF91CF91089513
:103D5000A5E1B0E0EEEAFEE10C942A2F8C0185E0AB
:103D6000F801DE01519601900D928A95E1F7F80174
:103D7000E28064E0A62E63E0B62E609107037091A6
:103D800008036115710509F44BC19091040340913A
:103D90000503892F84238F3F09F442C1208131819B
:103DA000C380D480F0900603F601E61BF70BFF20DA
:103DB00009F411C180910903582F507FE83CF105A7
:103DC00008F0C4C0511175C0FE2C43131EC09213DD
:103DD0001CC060910A0370910B03F8014681578162
:103DE0006417750791F4E11010C08F7080618093A3
:103DF0000903C5010E94351680910903F8018583E6
:103E00008F2D6596EAE00C94462FC114D10429F059
:103E1000822F83238F3F09F01EC180E0F82FF170BD
:103E2000DF2E80FF3CC080914D0340910C03841332
:103E300015C0298B3A8B89899A890E94260A292FD5
:103E400022952F702230F8F0243020F59F70F9F081
:103E5000F8019581907FD9F4D12C1FC090E0FC012E
:103E600053E0EE0FFF1F5A95E1F7E35FFC4F5181DE
:103E7000351306C05081251303C05281E5120FC0CF
:103E800001968770D4CF9F7011F0882329F3805E4C
:103E9000883010F3C8010E943516FD2CB1CFEE20FA
:103EA00009F4AECF80910903816080930903F12C5E
:103EB000A7CF43131BC0921319C040910A0350911E
:103EC0000B03F801268137814217530779F4E1107B
:103ED0000DC08583C8010E94351688E0F801A4E072
:103EE000B3E001900D928A95E1F78ACFC8010E9454
:103EF000E80A882339F1EE2029F180910903803204
:103F0000A0F020910403309105033A8729871B868E
:103F1000DD86CC868E8780910A0390910B03988B67
:103F20008F87CE0109960E94351688E0F801A4E03B
:103F3000B3E001900D928A95E1F70E94551EFF248F
:103F4000F3945ECFC8010E943516F9CF51110AC013
:103F500084E093E00E94351688E0F50111928A957D
:103F6000E9F7A5CF431318C0921316C040910A0376
:103F700050910B03F801268137814217530761F4F2
:103F8000E1100AC08583C8010E94351688E0F5015A
:103F900011928A95E9F734CFC8010E94E80A882374
:103FA00089F2EE2079F280910903803208F4BDCFC6
:103FB00020910403309105033A8329831B82DD821B
:103FC000CC828E8380910A0390910B0398878F8314
:103FD000CE010196A8CFE83CF105C0F6FE2CEE20FC
:103FE00009F4B0CF43130EC092130CC020910A0302
:103FF00030910B03F801868197812817390711F456
:1040000088E06DCFC8010E94E80A81118ECF8091AF
:104010000903816080930903C8010E943516F0CE20
:10402000EE2009F48FCFC8010E94E80AF82E8823F9
:1040300009F488CF88E0F801A4E0B3E001900D9284
:104040008A95E1F780910403909105030E94260A66
:104050000E94551ED5CE81E08E25E0CEA0E1B0E0D5
:10406000E4E3F0E20C94322F29873A874B875C8790
:104070006D877E878F87988BCE0109960E94A81E38
:10408000811112C088E0FE013996DE01119601907F
:104090000D928A95E1F78C859D85892B29F089857C
:1040A0009A8589238F3F81F580914D0390910C0370
:1040B000891317C06096E2E00C944E2F93E0AA0F8C
:1040C000BB1F9A95E1F7A35FBC4F98E0FE013196C4
:1040D00001900D929A95E1F780930C030E94E809F4
:1040E000E3CFB8E08B9FC0011124835F9C4F0E94F7
:1040F000A81E8823F9F280914D0390E00196877005
:10410000992780934D03D0CFA0910C03B0E0CD014F
:1041100001968770992720914D032817190671F68B
:104120000E94131110920C0310924D0388E0E4E0FA
:10413000F3E0DF011D928A95E9F7B6CF0F931F9345
:10414000CF93DF938091EA03E091E9031CE08111B2
:104150001AC0DF91CF911F910F91089501E00E0FCA
:104160000093E903CE2FD0E0E19FF0011124E55147
:10417000FC4F83819481892B29F08081918189234F
:104180008F3FF9F4E02F8091EA03E81738F310929B
:10419000EA031092E903DDCF18968D919C918F3F31
:1041A0009807E1F061E00E9418141C9FF0011D9F28
:1041B000F00D1124E551FC4F148213821092570424
:1041C000E1CF1C9FD0011D9FB00D1124A551BC4F04
:1041D00016968D919C911797892BF1F22081318150
:1041E0004281538164817581868197810E942E204E
:1041F000DCCF109256041092550410926D028091FB
:104200005404809353040E942D060E949E2008951A
:10421000B0E0A0E0EEE0F1E20C94222FC091530454
:10422000E7E0FE2E01E010E0FCE02F2EAEEFEA2EDC
:10423000809154048C1309C00E949E200E942D0678
:10424000CDB7DEB7E2E10C943E2FD0E0FE01EE0FD9
:10425000FF1FE55BFB4F80819181F89EF001F99E85
:10426000F00D1124EB5AFE4F2481211159C03090DA
:10427000EA03ABEEB3E030E020E0412C5F01231510
:1042800008F04CC01A966D907C901B97F5018080C9
:1042900091804FEF5FEF512CC52CD12CF601EE0F22
:1042A000FF1FE80DF91D659174916616770609F4F4
:1042B000A601672B11F05394EFCF4F3F5407B9F18C
:1042C000B80102C0660F771F4A95E2F7462AA80197
:1042D000052C02C0440F551F0A94E2F741505109C2
:1042E0004416150601F5229EF001239EF00D1124BF
:1042F000E551FC4FF89ED001F99EB00D1124AB5A48
:10430000BE4F12962D913C91139737832683E082FE
:10431000E1829187808771E015967C930E94FF056A
:104320002196C37085CF14961C921E9213972F5F0F
:104330003F4F1C96A4CFA9E1B0E0E1EAF1E20C9472
:10434000222F498B5A8B6B8B7C8B8D8B611110923A
:1043500057041D861E861F86188A85E0FE01719609
:10436000DE01199601900D928A95E1F78091B203D2
:1043700082FF1CC00E948F0520914E0330914F0395
:10438000821B930B883E934020F08091500382FF64
:10439000F2C10E948F0520915A0330915B03821B6A
:1043A000930B883E934010F00E94A7098C859D8551
:1043B000892B31F089859A8589238F3F09F0C9C1FE
:1043C00029853A854B855C856D857E858F859889A5
:1043D0000E942E20C7C081354CE7940731F48B85AD
:1043E000882371F00E94F920EBCF82359C4741F47D
:1043F0008B85882329F080916D028111F3CFB7C19D
:1044000069857A8580E00E94F8074C0105E511E096
:10441000E12CD12CC12CAA24A394B12C9EEF592EAF
:1044200044244394F8016081718166246A94762C57
:1044300020E0422F50E0FA01EE0FFF1FE60FF71FBA
:10444000859194918816990609F43A01892B11F007
:104450002F5FEFCFF12CFFEF6F167F0609F444C0FA
:10446000F8014481F0906D028F2D411180E0F82F0A
:10447000F170FF2EF801258086819B85992309F430
:10448000F2C0FF2009F4EFC0211014C0A501062CD2
:1044900001C0440F0A94EAF7842B86838091E703D6
:1044A0009091E803889730F448E250E05093E80395
:1044B0004093E703C50102C0880F991F2A95E2F7D0
:1044C0000197F80126812817190671F48091550487
:1044D00090915604009709F449C00E947405899789
:1044E00008F444C0F8014482EF28FFEFCF1ADF0A36
:1044F000095F1F4F28E2C216D10409F093CF8B85C4
:10450000882309F411C1EE2009F40EC10E948F0521
:1045100090935604809355048091EA03883010F5F7
:1045200091E0980F9093EA0398E0FE013996DE013E
:10453000119601900D929A95E1F73CE0839FC0019E
:10454000112485519C4F28E0FE013196DC01019039
:104550000D922A95E1F72FEF3FEFFC01318720877D
:10456000938682866996E2E10C943E2F80915304F3
:1045700060905404982FF0E0E0E0861114C090930E
:1045800053040E171F0709F4AFCF90E0FC01EE0FA4
:10459000FF1FE55BFB4FD182C08201968370992794
:1045A00080935404A1CF282E312CF101EE0FFF1F70
:1045B000E55BFB4F20813181F7E0F29FD001F39F53
:1045C000B00D1124AB5ABE4F2D913C911197398FEC
:1045D000288F712C60E070E0E72FF0E0EE0FFF1FF6
:1045E000288D398DE20FF31F259134912115310566
:1045F000E1F0F8010190F081E02DFF8BEE8B60E09F
:1046000005C02417350709F47F2C6F5FE62FF0E013
:10461000EE0FFF1F4E895F89E40FF51F45915491FE
:104620004115510571F77F5FD7CF7720C9F0F801A9
:10463000671708F0FD014482E017F10721F4909319
:104640005304F72C51CF891305C0EA17FB0711F467
:104650009F5F937091012F5F3F4F822F83708DCFAB
:10466000F0E0E0E0F7CF90E0211020C0B50102C0FB
:10467000660F771F2A95E2F79B0121503109281711
:10468000390731F4442309F44DC0C6010E94FF05E7
:10469000C501062C01C0880F0A94EAF7982F90955F
:1046A000F801868189238683F22C1ECF9C01062C7B
:1046B00002C0359527950A94E2F7A9014170552764
:1046C000BC016150710986239723892B39F5452B4D
:1046D00029F1F80182819381892BD9F01B821C82F8
:1046E0001D821E8259825A820E948F058160582F36
:1046F0009D838C83F801828193818F8398872981A0
:104700003A814B816D817E810E942E20F8011582B5
:10471000BFCF60E0C6010E941814F8CFF22FF170ED
:104720002F2EB6CF2F2CB4CF9091530480915404E8
:10473000981731F00E940821EE2009F441CE12CFE3
:104740000E949E2010925604109255040E942D063D
:10475000F3CF61E0CE0109960E94FF0B8035FCE7A4
:104760009F0709F038CE8B85882309F449CE81E074
:1047700080936D0225CE82E00E94B30A0ACEAFE09C
:10478000B0E0E5ECF3E20C94272F8E010F5F1F4F92
:104790008AE0D8011D928A95E9F78CEAC82E82E05A
:1047A000D82EF12CE12CAA24A394B12C27EB822E35
:1047B00022E0922EF60181916F018F3F09F442C0F1
:1047C000F894E82FE295EF70F0E021A18F70A50139
:1047D00002C0440F551F8A95E2F7CA01922F982B09
:1047E00091A392A18095892382A3789400C0E1EBE4
:1047F000F2E0712C31E021912F3F09F46BC0A22F20
:10480000A295AF70B0E090968C9190E02F7002C0AE
:10481000959587952A95E2F780FD5CC0832F782ACD
:10482000330F8E169F0639F7F601319780818F3F3F
:1048300011F00E949E0750EA5A95F1F7F801EE0D2B
:10484000FF1D70828FEFE81AF80A95E0E916F1046F
:1048500009F0B0CF4AE050E0B80181EA93E00E944D
:104860000032009741F02AE0F801A1EAB3E001909C
:104870000D922A95E1F70091AC03892B69F181E053
:1048800080935F030E948F0590935E0380935D0386
:1048900080915D0390915E030E947405059700F17D
:1048A00010E00B541C4F45E050E061EA73E0C80192
:1048B0000E940032C12C892B51F085E0E1EAF3E03F
:1048C000D80101900D928A95E1F7CC24C3941092FF
:1048D0005F0307C080E0A3CF80915F038111D8CF31
:1048E000C12C0E94310DD82EE091AC03DE011B9645
:1048F0007D01882309F410C185E01D928A95E9F7AE
:104900000E2F10E00B541C4F80919A038A3008F050
:10491000CFC04DE457E2B701C8010E94FE0C8823C6
:1049200009F4E9C044EF56E2B701C8010E94FE0C49
:10493000882309F4E0C046EE55E2B701C8010E94A1
:10494000FE0C882309F4D7C010929A038091AB0320
:1049500090E045E050E0B7018B549C4F0E9400323C
:1049600021E020937B03892B09F0B8C0D12C8091E2
:10497000660390916703892BC1F1409162035091C6
:10498000630360916403709165032FB7F89480917D
:10499000620490916304A0916404B09165042FBFF8
:1049A000841B950BA60BB70B813C944DA140B10520
:1049B000E0F0809166039091670380959095209137
:1049C000AF033091B003822393230E949C0A10927C
:1049D0006703109266030E948305609362037093DD
:1049E0006303809364039093650340917303509134
:1049F000740360917503709176032FB7F8948091DA
:104A0000620490916304A0916404B09165042FBF87
:104A1000841B950BA60BB70B8E359140A105B105F4
:104A200070F00E9483056093730370937403809306
:104A30007503909376031092720310927103809124
:104A40007003882371F080916E0390916F030E9430
:104A500074058132934028F083EE0E94270E109255
:104A6000700380916D03882371F080916B039091A6
:104A70006C030E9474058132934028F080EE0E94FE
:104A8000270E10926D0380916A03882359F080915C
:104A90006803909169030E947405853C994010F069
:104AA0000E948E0E8D2D8C292F96EDE00C94432FB5
:104AB00080916003909161030E947405843F91404E
:104AC00008F027CF80917B03882309F44FCF85E03E
:104AD000F70111928A95E9F710927B03A091AB033D
:104AE000B0E0AB54BC4F85E0FE013B9601900D92C7
:104AF0008A95E1F73CCF80919A038F3F31F08F5F29
:104B000080939A038A3008F421CF0E948F059093F6
:104B1000610380936003D6CFF0E0EB54FC4F85E057
:104B2000ABE8B3E001900D928A95E1F765E070E0A3
:104B30008BE893E00E943E0680938A034091D10364
:104B400050E06091D00370E064537C4FC7010E9435
:104B50000D328B858093910361E070E0C7010E9464
:104B60003E06809390038090920390909303A090D0
:104B70009403B09095038091770390917803A0916E
:104B80007903B0917A0388169906AA06BB0611F438
:104B9000D12C88CF8092770390927803A0927903EA
:104BA000B0927A030E94310DD82E8111F1CF0E946C
:104BB0008305861A970AA80AB90A80929B039092E5
:104BC0009C03A0929D03B0929E036CCFA4E0B0E042
:104BD000ECEEF5E20C94302F409196035091970340
:104BE00060919803709199032FB7F89480916204B3
:104BF00090916304A0916404B09165042FBF841B5D
:104C0000950BA60BB70B11E084369105A105B105F4
:104C100090F10E94310D882399F10E9483056E5F07
:104C20007F4F8F4F9F4F69837A838B839C838091C3
:104C300021019091220186579C4F4091200150E024
:104C40004530510510F044E050E0BE016F5F7F4FEA
:104C50000E940D3284E090E00E94AC2E182F882331
:104C600051F00E948305609396037093970380939D
:104C7000980390939903812F2496E4E00C944C2F91
:104C80000E94830500919B0310919C0320919D033A
:104C900030919E03600F711F821F931FC0CF4F92F0
:104CA0005F927F928F929F92AF92BF92CF92DF924C
:104CB000EF92FF920F931F93CF93DF930F92CDB795
:104CC000DEB7C62E4A015901482E880F5508C20189
:104CD0000E94AC2E782E882309F480C0C20133E0F4
:104CE000880F991F3A95E1F7FC01E050FF4F43818F
:104CF00050E04115510511F041E050E080509F4FC8
:104D0000FC016481758166577C4FCE0101960E943B
:104D10000D32F40140815181628173812FB7F89483
:104D20008091620490916304A0916404B091650441
:104D30002FBF841B950BA60BB70B84369105A105DD
:104D4000B10540F4B701C8010E943E069981891758
:104D500009F444C00C2C000CDD08C6010E94AC2EE6
:104D6000782E811113C0712C872D0F90DF91CF9178
:104D70001F910F91FF90EF90DF90CF90BF90AF9079
:104D80009F908F907F905F904F900895C60123E091
:104D9000880F991F2A95E1F7FC01E050FF4F4381EE
:104DA00050E0E416F50608F4A70180509F4FFC017F
:104DB0006481758166577C4FC5010E940D32B70131
:104DC000C8010E943E0699818913CDCF0E948305B8
:104DD000F4016083718382839383C6CFA701B801F6
:104DE000C5010E940D32C0CFA1E0B0E0EAEFF6E2CB
:104DF0000C942B2FEE24E394F12C01E913E09E0197
:104E00002F5F3F4F46E853E063E082E00E944F2669
:104E1000C82E882339F100E080E01DC0D090A003A7
:104E2000D00E2D2D30E0A90144535C4F7A01E1E012
:104E3000F0E0EC0FFD1FE00FF11D1081FA019081F1
:104E4000191BB12E1B149CF0912F17FD90E0191B1C
:104E5000111118C00F5F90919F030917F8F281118B
:104E60000E94A4098C2D2196E9E00C94472FBA9456
:104E7000F70180818F5F808360E08D2D0E94361066
:104E80008C2DE0CF1F5FF70180818150808361E02E
:104E90008D2D0E9436108C2DDBCFA5E0B0E0E3E530
:104EA000F7E20C942C2F6B0185E0E82EF12C0BE837
:104EB00013E09E012F5F3F4F42E853E061E080E046
:104EC0000E944F26882349F095E0FE013196ADE718
:104ED000B3E001900D929A95E1F795E0EDE7F3E0EC
:104EE000D60101900D929A95E1F72596E8E00C9491
:104EF000482F1F920F920FB60F9211242F933F93BA
:104F00004F935F936F937F938F939F93AF93BF93D1
:104F1000CF93DF93EF93FF93D091E900DF708091FF
:104F2000EC00C82FC17080FDC0E81092E9008091AC
:104F3000F000877F8093F00078940E943A111092DD
:104F4000E9008091F00088608093F000CD2BCF7055
:104F5000C093E900FF91EF91DF91CF91BF91AF91A5
:104F60009F918F917F916F915F914F913F912F9181
:104F70000F900FBE0F901F9018951F920F920FB6B3
:104F80000F9211242F933F934F935F936F937F93CF
:104F90008F939F93AF93BF93EF93FF938091E10023
:104FA00082FF09C08091E20082FF05C08091E1008C
:104FB0008B7F8093E1008091DA0080FF24C0809194
:104FC000D80080FF20C08091DA008E7F8093DA00C5
:104FD0008091D90080FF9DC080E189BD82E189BDBB
:104FE00009B400FEFDCF81E08093830480916604C4
:104FF000811109C00E9417040E94B8048091E20048
:1050000084608093E2008091E10080FF17C080916E
:10501000E20080FF13C08091E2008E7F8093E20067
:105020008091E20080618093E2008091D8008062EC
:105030008093D80019BC85E0809383048091E100BF
:1050400084FF2BC08091E20084FF27C080E189BDEE
:1050500082E189BD89B5982F917080FFFBCF809147
:10506000D8008F7D8093D8008091E1008F7E80935F
:10507000E1008091E2008F7E8093E2008091E20067
:1050800081608093E20080917A04882309F447C00C
:1050900084E080938304809183048091E10083FF06
:1050A00027C08091E20083FF23C08091E100877FC9
:1050B0008093E10082E08093830410927A048091CF
:1050C000E1008E7F8093E1008091E2008E7F8093EB
:1050D000E2008091E20080618093E20042E060E0C3
:1050E00080E00E9486048091F00088608093F00048
:1050F000FF91EF91BF91AF919F918F917F916F91B0
:105100005F914F913F912F910F900FBE0F901F9085
:10511000189519BC109283041092660474CF809184
:10512000E30087FD93E090938304B5CF78941F92BA
:105130001FB61F9211248F939F93AF93BF938091BB
:10514000620490916304A0916404B0916504019697
:10515000A11DB11D8093620490936304A093640425
:10516000B0936504BF91AF919F918F911F901FBE27
:105170001F9018951F921FB61F9211248F939F9313
:10518000AF93BF9380916104811113C08091620439
:1051900090916304A0916404B09165044196A11DAF
:1051A000B11D8093620490936304A0936404B09350
:1051B0006504BF91AF919F918F911F901FBE1F906B
:1051C0001895CDB7DEB760970FB6F894DEBF0FBE67
:1051D000CDBF85B7806885BF85B7806885BF84B738
:1051E000877F84BF0FB6F894A8958091600088618E
:1051F00080936000109260000FBE80E890E00FB6D0
:10520000F89480936100909361000FBE8CE997E061
:105210009093C9028093C8020E9417040E94B804A8
:105220008091E20084608093E2007894809183040E
:105230008823A1F01091E9001F709091EC00892F54
:10524000817090FD80E8182B1092E9008091E800B1
:1052500083FD0E943A111F701093E90082E084BD23
:1052600093E095BD9AEF97BD80936E0010929B03DB
:1052700010929C0310929D0310929E030E94310D88
:10528000809328010E94310D81110E94C02D9091C0
:10529000280181E098279093D003282F291B209381
:1052A000A003909128018093D103909128018093CD
:1052B0009F0380912801811106C084EF80935001E3
:1052C00085EF80934F0182E080934E012091500141
:1052D000E22FE295EF70F0E061A12F7081E090E0A5
:1052E000AC0101C0440F2A95EAF7342F30953623DC
:1052F00031A322A1242B22A320914F01E22FE2957A
:10530000EF70F0E031A12F7001C0880F2A95EAF705
:10531000982F9095932391A392A1892B82A38FE834
:1053200091E00197F1F700C000001091D10362ED08
:1053300073E040E551E08FE4E82E81E0F82EFB01B8
:1053400028C0DA012D91AD01822F82958F7090E0F7
:10535000DC0190968C9190E02F7002C09595879516
:105360002A95E2F78170D7019D917D01292F229521
:105370002F7030E0D90190962C9130E09F7002C0E0
:10538000359527959A95E2F790E020FD92E0892BDC
:1053900081938E2F861B8117A0F280912801809126
:1053A000280195E0811190E09093AC0385E0891B82
:1053B0008093AB030CEA12E0F80181918F018F3FDB
:1053C00011F00E949E07F2E0013B1F07A9F701EBD5
:1053D00012E057EBE52E52E0F52ED8018D918D01AC
:1053E0008F3F11F00E949E07E016F106B1F78AE0A8
:1053F000E5EBF3E0DF01282F1D922A95E9F7E1EABA
:10540000F3E0DF011D928A95E9F790E080E00E94C9
:105410008F2F873E9E4F09F45EC067EE7EEF90E0CF
:1054200080E00E94B32F60E082E090E00E94952F20
:1054300060E083E090E00E94952F1092AE031092FE
:10544000AD0360E074E184E090E00E94B32F60E07F
:1054500086E090E00E94952F6FEF87E090E00E9439
:10546000952F40E050E0BA0188E090E00E94A72F1D
:1054700060E08DE090E00E94952F40E050E0BA019E
:1054800088E190E00E94A72F60E087E190E00E9411
:10549000952F40E050E0BA018CE190E00E94A72FE8
:1054A00070E060E080E290E00E94B32F40E050E0C6
:1054B000BA0188E190E00E94A72F40E050E0BA01D5
:1054C0008FE090E00E94A72F40E050E0BA0183E116
:1054D00090E00E94A72F82E090E00E94872F8093A7
:1054E000BF0384E090E00E948F2F9093B2038093DB
:1054F000B10383E090E00E94872F90E00E94E30ACE
:105500000E94310D811102C00E94C32D89E291E0F9
:1055100090935E0480935D0438E1C32ED12C4FEB51
:10552000A42E43E0B42E2AEC822E23E0922E80910A
:10553000830400E112E1853009F47EC00E94BF239C
:1055400000EC13E095EBE92E93E0F92ED701F8017A
:1055500091918D918E169F0609F478C09817C1F32A
:105560000E94310D282E712CD7016D907D01F8011C
:1055700031908F01361429F13624512C4424439460
:10558000832D8421B1F02220A1F05C867D8691E0FC
:10559000862D842109F490E09E870E948F0581600A
:1055A000782F988B8F874C855D856E8588890E94C2
:1055B0009B215394440CF6E05F12E2CFF80131973F
:1055C000608273942AE07212CFCF0E9483055EC07E
:1055D00080918304843011F110926104E0E40FB6ED
:1055E000F894A895C09260000FBEE093600083B766
:1055F000817F846083BF83B7816083BF78948895FF
:1056000083B78E7F83BF0FB6F894A8958091600012
:10561000886180936000109260000FBE80917304D7
:10562000882351F00E94BF23E5EBF3E081918111C3
:105630002FC2AE16BF06D1F780918304853009F4DE
:10564000C7CF0E9413110E94540D78CF981388CFB2
:105650000E948F058C018091B3039091B4030817C9
:105660001907A1F08FEF8F83888719860E948F0515
:105670008160782F9B878A874F81588569858B85C4
:105680000E949B211093B4030093B3030E94310D39
:10569000882309F453C00091590410915A0401154C
:1056A0001105B9F08091CA039091CB030E94740553
:1056B000893C910570F04EE0049FC0011124FC016B
:1056C000EA5CFE4F208122FD04C08F5C9E4F0E9449
:1056D000D00D80916D02882301F180915504909145
:1056E00056040097D1F00E9474052091E703309191
:1056F000E8032817390788F49091530480915404E3
:10570000981709F415C10E9408211092E80310921D
:10571000E70310925604109255048091E603882303
:1057200069F00E948F052091E4033091E503821B0C
:10573000930B8F3F9F4710F40E94020E612C512C57
:105740008091D103681608F4FCC051100E94A4098E
:1057500086E0EEEDF3E0DE01119601900D928A9560
:10576000E1F71092E0031092E1031092E20310922D
:10577000E3038B819C81892B09F44DC08091DC036C
:105780009091DD030E9474059C019091D5039923AB
:1057900009F498C12930310508F43DC09F3F19F044
:1057A0009F5F9093D5038B81882361F00E940A0745
:1057B0009B8119160CF454C19FEF899F802D1124F1
:1057C0008093E0038C81882361F00E940A079C810A
:1057D00019160CF447C19FEF899F802D11248093E7
:1057E000E1033091E0033323B1F02091E103222360
:1057F00091F045EB3403C0011124992309F434C11D
:105800009093E00345EB240390011124332309F422
:105810002FC13093E1038D819E81892B09F45AC0F9
:105820008091DA039091DB030E9474051091D803F4
:10583000112309F443C1BC0190E080E00E94DC30F8
:1058400020915101309152014091530150915401E6
:105850000E948E3118160CF03DC01F3F19F01F5FDB
:105860001093D8038D81882361F00E947B069D816F
:1058700019160CF401C19FEF899F802D112480938C
:10588000E2038E81882361F00E947B069E811916B7
:105890000CF4F4C09FEF899F802D11248093E303C3
:1058A0003091E2033323B1F02091E303222391F0FE
:1058B00045EB3403C0011124992309F4E1C090930E
:1058C000E20345EB240390011124332309F4DCC0E7
:1058D0003093E30346E050E0BE016F5F7F4F8EEDF3
:1058E00093E00E940032892B61F48091E003909153
:1058F000E103892B9091E203892B9091E303892B9B
:1059000011F00E94540686E0FE013196AEEDB3E040
:1059100001900D928A95E1F70E94540D9091D40365
:10592000891709F404CE8093D4030E948305FBCD2C
:105930000E949E2010925604109255040E942D063B
:10594000ECCE062D10E0F801E05BFE4F8081E82FE1
:10595000E295EF70F0E0E0A1F0E08F7002C0F59505
:10596000E7958A95E2F7E170D801A15BBE4F2C91D3
:10597000A22FA295AF70B0E090968C9190E02F701E
:1059800002C0959587952A95E2F780FD61C080E079
:105990008E2BD801AE52BC4FEC919E2F937089177D
:1059A00009F454C0EE0FEE0FE82BEC93D801A35B83
:1059B000BE4FEC907090D003760CEF70F0E0E9549D
:1059C000FD4F02531C4F8081F8019081890F808325
:1059D000F12C082E000C990B412C8E159F0584F09C
:1059E000E72DF0E0E453FC4F80818F5F80830E94BD
:1059F000310D482E882371F160E0872D0E9436100A
:105A0000D8018C91082E000C990B222733272E19D0
:105A10003F092817390784F0E72DF0E0E453FC4FE5
:105A20008081815080830E94310D482E8823A9F007
:105A300061E0872D0E943610F8018081082E000C4D
:105A4000990BB7010E946D2F80835428639478CE00
:105A500082E09ECF44244394D3CF44244394ECCF9C
:105A600091E0ABCE91E0B8CE81E08093E003CACE66
:105A700081E08093E103CFCE91E0FECE91E00BCFA9
:105A800081E08093E2031DCF81E08093E30322CF86
:105A900009BD19BD09B400FEFDCF8091D8008F7DEE
:105AA0008093D8008091E00082608093E000809134
:105AB000E00081FDFCCF0E941311BECD0B9708F0D2
:105AC000CECE08CF232B09F06BCEA5CE8EE14A9B1C
:105AD00002C08150E1F74A9BFECF08955A9880E2B8
