:100000000C94F1030C940E040C940E040C94C42C68
:100010000C940E040C940E040C940E040C940E0418
:100020000C940E040C940E040C9496260C945226F8
:100030000C9493270C940E040C940E040C940E0450
:100040000C940E040C940E040C940E040C940E04E8
:100050000C940E040C946F270C940E040C940E0454
:100060000C940E040C940E040C940E040C940E04C8
:100070000C940E040C940E040C940E040C940E04B8
:100080000C940E040C940E040C940E040C940E04A8
:100090000C940E040C940E040C940E040C940E0498
:1000A0000C940E040C940E040C940E0414003300F3
:1000B0000000E100313200003A003B0000000F0078
:1000C00018001C0000002A003431313200004000CA
:1000D00041004200430000002C42282800000B0091
:1000E0003600000017000A00000008000C000000A5
:1000F00018001C00000036003700000012003431E8
:1001000000003824313200003700382400001D245C
:10011000070000001B00190000001B000700000082
:100120000600070000001B00060000001D241B0045
:1001300000000900130000001A00090000000A0076
:10014000370000001600370000000C0037000000E8
:100150000900370000001B003700000015003700C1
:1001600000001A00370000001400370000000700EC
:1001700037000000170037000000130037000000B0
:1001800004443700000008000D00000013000D00BB
:10019000000005000D0000000E000B000000100024
:1001A000110000000D000F0000004D657373656EB7
:1001B00067657273322100220027003C5441473E9C
:1001C0003C2F5441473E003C696D67207372633D8C
:1001D00022696D6167655F736F757263655F6F72CA
:1001E0005F6C696E6B5F676F65735F6865726522D0
:1001F00020616C743D226E616D655F69665F63614D
:100200006E745F6C6F6164222077696474683D224C
:100210006E756D5F706978656C73222068656967BB
:1002200068743D226E756D5F706978656C73223EEF
:10023000003C6120687265663D226C696E6B5F6789
:100240006F65735F68657265223E6E616D655F6F95
:10025000665F6C696E6B5F676F65735F686572651B
:100260003C2F613E003C666F6F7465723E3C2F66AA
:100270006F6F7465723E003C626F64793E3C2F6222
:100280006F64793E003C686561643E3C2F6865613F
:10029000643E003C68746D6C206C616E673D226545
:1002A0006E223E3C2F68746D6C3E003C7374796C1A
:1002B000653E3C2F7374796C653E003C7469746CC8
:1002C000653E3C2F7469746C653E003C703E3C2F6B
:1002D000703E003C6469763E3C2F6469763E00289F
:1002E00029203D3E207B7D003131312048696768FF
:1002F00076696577204761746520534500617269AE
:1003000063626F7577657273406F75746C6F6F6B36
:100310002E636F6D0061726963626F7577657273CA
:100320004069636C6F75642E636F6D006172696301
:100330004068656C697869726C6162732E636F6D79
:10034000006172696340636F6C6C656769756D62AB
:1003500075696C742E636F6D0061726963406172C0
:10036000696363622E646576002829203D3E200083
:10037000636F6E737420796F757246756E63566124
:10038000726961626C65203D2028782C7929203DB6
:100390003E2078202B20792E6D6574686F643B00B9
:1003A0005B5D007B7D002829003C3E0035013A0062
:1003B0003B003C003D003E00292F14001A000900BC
:1003C000130005002B2104441500160017000A0035
:1003D000E1001D241B000600070019000000C324D3
:1003E00028282C427321AE00440043004200410003
:1003F00040003F002A0033001C0018000F000D00D1
:10040000343112440C00080011001000313238243D
:10041000370036000B000E00000061524C432C42A6
:100420000C7E352435013A003B003C003D003E0087
:10043000292F14001A000800150017002B2104446E
:100440001600070009000A00E1001D241B00060039
:10045000190005000000C32428282C427321AE0097
:10046000440043004200410040003F002A001300C6
:1004700012000C0018001C00343133440F000E0031
:100480000D000B0031323824370036001000110007
:10049000000061524C432C420C7E352432001E0079
:1004A0001F0020002100220035001E023602370204
:1004B0002E0023022B0220022F00260227023000EA
:1004C000E100350221022F02300222020000010069
:1004D00001000100010027086152270026002500C5
:1004E000240023002A0033022600250024002502D0
:1004F000570056002300220021002402310254003C
:1005000020001F001E00310200000E7E3700270071
:100510002C0035021C701E001F002000210022004C
:1005200001001E02360237022E00230201002002C3
:100530002F002602270230000100350221022F027F
:100540003002220200000100280801000100AB0077
:100550001B70270026002500240023002A0001002C
:10056000D200CD00D100A8000100D300D000CE0001
:10057000CF00A90001000B7E097E0A7E087EAA003A
:1005800000000E7E0100D300D100010001003A00FE
:100590003B003C003D003E000100010042004300E2
:1005A00044004500010001003E243F224028412133
:1005B000010001003A003B003C003D00000001004A
:1005C0000100010001000100010047004F08520C2A
:1005D00050084B012A0053004D0052004A004E01C2
:1005E000390001004F00510050000D7E49004F08B6
:1005F0004E00510C4B000C7E00000E7E01000100ED
:100600000C7E0D7E05010906A1018501050719E093
:1006100029E71500250195087501810295017508E6
:1006200081010507190029FF150026FF00950675B1
:1006300008810005081901290595057501910295A4
:100640000175039101C005010902A101850209019B
:10065000A100050919012908150025019508750152
:1006600081020501093009311581257F9502750840
:10067000810609381581257F950175088106050CCD
:100680000A38021581257F950175088106C0C005CD
:10069000010980A101850319012AB700150126B7B8
:1006A00000950175108100C0050C0901A1018504A8
:1006B00019012AA002150126A002950175108100DA
:1006C000C009022200010100A0FA09040000010390
:1006D00001010009211101000122BD00070581036C
:1006E0002000011201000200000008134022201324
:1006F00000010200010E034C00650065006C006FF4
:10070000006F000000260343006C00690063006B6B
:10071000006500740079002000530070006C0069CF
:1007200000740020004C0074006400000004030901
:1007300004000000000000000000000000000000B5
:1007400000000000000000000000000000000000A9
:1007500000000000007E0F00D4FFFFFFC700000074
:100760007800000000000000002A2B280000000094
:100770000000000000000000000000002900000050
:10078000002C1E3420212224342627252E362D37F6
:1007900038271E1F202122232425263333362E37C7
:1007A000381F0405060708090A0B0C0D0E0F10115F
:1007B00012131415161718191A1B1C1D2F3130236C
:1007C0002D350405060708090A0B0C0D0E0F101134
:1007D00012131415161718191A1B1C1D2F3130353A
:1007E0004C0011241FBECFEFDAE0DEBFCDBF12E018
:1007F000A0E0B1E0EEE6F2E602C005900D92A23B69
:10080000B107D9F724E0A2EBB2E001C01D92AE35EA
:10081000B207E1F70E94BA270C94D4300C94000080
:10082000E8EDF0E080818E7F80831092E2001092EC
:10083000DA001092E100A0EEB0E08C9181608C9320
:1008400080818F77808319BCA7EDB0E08C918E7F7B
:100850008C9380818F7E8083109240040895209134
:10086000E4003091E50095E6A9012091EC00822F8B
:10087000817020FF06C08091E80080FF06C080E004
:1008800008952091E80022FD1AC080915D0488231C
:1008900089F0853089F08091EB0085FD0FC02091B3
:1008A000E4003091E50042175307F9F29150E1F668
:1008B00084E0089582E0089583E0089581E008953A
:1008C0008091550487FF13C08091E80082FF06C025
:1008D0008091E8008B778093E80004C080915D04EC
:1008E0008111F2CF089580915D048823D9F380911E
:1008F000E80080FFF8CF8091E8008E77ECCF982F4A
:100900009093E900242F762F50E0891731F07091F1
:10091000EC002091ED005091F00021FD07C09F5F99
:10092000973071F78093E90081E008953091EB00F2
:100930003E7F3093EB003091ED003D7F3093ED0032
:100940003091EB0031603093EB007093EC0020931A
:10095000ED005093F0002091EE0027FDE0CF80E005
:100960000895B0E0A0E0E7EBF4E00C94EA2DC8EDC8
:10097000D0E088818F7E8883E7EDF0E08081816020
:10098000808384E082BF81E08093400488818E7FF1
:10099000888302EE10E0F80110821092DA0081EEF6
:1009A000C82ED12CF601108288818F7788838881A8
:1009B0008068888388818F7D888319BC10925D044C
:1009C0001092540410924D0410924C0490EEE92EB3
:1009D000F12CF70180818B7F8083888181608883FF
:1009E00042E060E080E00E947F04F60180818E7F1B
:1009F0008083F8018081816080838081886080832A
:100A0000F70180818E7F8083888180618883CDB764
:100A1000DEB7E8E00C94062EFC0180915B04909117
:100A20005C0486179707A0F06115710529F4909171
:100A3000E8009E779093E80090E06115710551F40D
:100A4000911108C08091E80082FF34C080E00895D1
:100A5000BC01F2CF80915D048823C1F18530C1F1E2
:100A60008091E80083FD30C08091E80082FDEACFEC
:100A70008091E80080FFE1CF8091F3002091F200A7
:100A8000382F6115710519F02830310558F091E0C3
:100A90002830310509F090E02091E8002E7720936E
:100AA000E800CBCF81918093F100615071092F5FF5
:100AB0003F4FE7CF80915D04882341F0853041F0BE
:100AC0008091E80083FFBECF81E0089582E0089521
:100AD00083E008958091420408959C014FB7F894F3
:100AE00080913C0490913D04A0913E04B0913F045C
:100AF0004FBF821B930B08952FB7F89460913C046D
:100B000070913D0480913E0490913F042FBF089561
:100B10002FB7F89480913C0490913D04A0913E043D
:100B2000B0913F042FBF08959C01FC0133969FEFC5
:100B300080E04191461751F09F3F19F4411101C0E7
:100B4000982F8F5F8630A9F79F3F09F40895290FEA
:100B5000311D97FD3A95F90163830895A3E0B0E054
:100B6000E4EBF5E00C94F02D2091390430913A0437
:100B700028173907A1F090933A0480933904E09143
:100B80003704F0913804309751F024E029839B8397
:100B90008A830680F781E02DCE0101960995239680
:100BA000E2E00C940C2EA3E0B0E0E9EDF5E00C944B
:100BB000F02D209135043091360428173907A1F023
:100BC0009093360480933504E0913704F091380413
:100BD000309751F023E029839B838A830680F78135
:100BE000E02DCE01019609952396E2E00C940C2E9F
:100BF000DC016091310480913204962F891301C089
:100C00000895292F30E0F901EE0FFF1FE75DFB4F3C
:100C1000408151814A175B07A1F487E08A9FA001B8
:100C20008B9F500D1124475C5E4F81E0FA01848355
:100C30009613E6CF2F5F3F4F237033272093310465
:100C400008952F5F3F4F922F9370D8CF1092C50316
:100C50001092C403E9E3F1E08581811102C014829E
:100C60001682379682E0E835F807B1F70895FC015F
:100C7000680F791F8FEF91E32191822728E030E000
:100C800087FF09C0880F892721503109C9F7E61766
:100C9000F70791F70895880FF7CF0E9488059C0108
:100CA0009091BC038091BD03982B21F03093B90340
:100CB0002093B8039091BE038091BF03982B21F03D
:100CC0003093B7032093B603E0913704F0913804D2
:100CD000309749F082E08093BA030480F581E02DDB
:100CE0008AEB93E0099508958F929F92AF92BF92FD
:100CF000CF92DF92EF92FF928091B503982F95707B
:100D000071F0C12CD12C20E4E22E22E4F22E82FDDF
:100D100052C0C12CD12CE12C91E4F92E4CC0809111
:100D2000B4038823B1F3E090B203F090B303E1146D
:100D3000F10479F320E030E048EC51E460913501B2
:100D40007091360180913701909138010E94F42E04
:100D50008823F9F2C7010E946D0562E370E00E94EA
:100D6000172E90E080E00E949A2F6B017C0120E01A
:100D700030E040E05FE30E945130A70196010E94FD
:100D800051304B015C0120E030E040E051E4C7010C
:100D9000B6010E94882E9B01AC01C501B4010E94DE
:100DA000882E6B017C0120E030E048EC51E40E9489
:100DB0004C3018160CF1A701960160E070E08AE74C
:100DC00094E40E94F92E609335017093360180936C
:100DD000370190933801C701B6010E946B2F81E063
:100DE000693008F082E0FF90EF90DF90CF90BF90E5
:100DF000AF909F908F900895C12CD12C88ECE82E55
:100E000081E4F82ED8CF8F929F92AF92BF92CF926B
:100E1000DF92EF92FF928091B503982F957081F049
:100E2000C12CD12C38ECE32E33E4F32E82FF4AC0E0
:100E3000C12C20E8D22E2BE3E22E25E4F22E42C074
:100E40008091B103882309F45DC08091B203909131
:100E5000B303009709F456C00E946D0562E370E089
:100E60000E94172E90E080E00E949A2F6B017C0177
:100E700020E030E040E851E40E94513020E030E0D2
:100E800048EC52E40E94882E4B015C0120E030E0E7
:100E900040E051E4C701B6010E945130A70196011C
:100EA0000E9451309B01AC01C501B4010E94882E03
:100EB0006B017C0120E030E046E954E40E944C30B4
:100EC00018163CF120E030E04AEF52E4C701B601C9
:100ED0000E94F92E0E946B2F662311F18FE767FDA8
:100EE00008C070E090E080E00E949A2F0E946B2F73
:100EF000862FFF90EF90DF90CF90BF90AF909F90A4
:100F00008F900895C12CD12C98ECE92E92E4F92E03
:100F1000D9CFC12CD12C86E9E82E84E4F82ED2CF8B
:100F200060E070E080E89FE3E1CF80E00895F8940E
:100F3000E82FE295EF70F0E031A1282F2F7081E0CB
:100F400090E001C0880F2A95EAF7982F9095932397
:100F500091A392A1892B82A37894089590918F03F5
:100F600092FF06C0282F28712830F9F4877F84600B
:100F700093FF06C0282F28712831F1F4877E846101
:100F80002091900320FF06C0382F38713830D9F4F3
:100F9000877F816021FF06C0282F28712831D1F476
:100FA000877E816194FD877E0895282F24712430E7
:100FB000F9F68B7F8860DCCF282F2471243101F76C
:100FC0008B7E8861DDCF382F3171313019F78E7FFC
:100FD0008860E0CF282F2171213121F78E7E886132
:100FE000E1CF972F7A30B8F46630A8F4853098F4C2
:100FF00070E026E0929F600D711D1124FB019CE3BF
:10100000899FE00DF11D1124EE0FFF1FE455FC4FE9
:1010100085919491089580E090E00895CF93DF93B7
:10102000EC0182389105B9F108F041C08133910596
:1010300009F49FC050F58932910509F48FC08A9751
:1010400009F49EC0C11520E5D20708F0BDC0C11546
:1010500030E4D30708F00AC1C03ED10508F0A5C0AE
:10106000CD3CD10508F000C1C83AD10508F08FC0C9
:10107000C53AD10508F0F0C0C130D10539F120974B
:1010800029F1C430D10510F546C08533910509F426
:1010900060C0C997B9F680918F03837009F044C18D
:1010A0008091900383FF12C0C9E2D0E00FC0833E5D
:1010B0009105A1F178F4803E910509F1823E9105F8
:1010C00009F0C0CF80918F0382FD21C0CE01DF9156
:1010D000CF910895863E910561F1873E910571F1AA
:1010E000843E910509F0AECF8091900381FFEECF51
:1010F00080918F03C7EED0E084FD0DC0E7CF8091D3
:101100008F0380FD33C09091900390FFDFCFC3EE3B
:10111000D0E084FFDBCFD0E0C0E0D8CF80918F0358
:1011200082FDFFC09091900390FDFEC084FFCECF62
:10113000F2CF80918F0383FDDDCFC8CF80918F03E5
:1011400083FDF5C09091900391FFF0CFC4EED0E005
:10115000BDCF80918F0385FFB9CFA6CF80918F033C
:1011600085FDE8C08091900383FFB0CFC9E3D0E054
:10117000ADCF80918F0386FFA9CFCAE2D0E0A6CF82
:1011800080918F0386FFA2CFC1E3D0E09FCFC43C04
:10119000D10508F6C85AD0E0CC0FDD1FC35ADD4F89
:1011A0000990D881C02DD46491CFC11540E2D407F5
:1011B00008F0AAC0C11581E0D80708F087CFC83E63
:1011C000D10508F483CFA7CFC03622E5D20718F5A2
:1011D000C03432E5D30708F053C0C03242E5D4072B
:1011E00008F047C0C11582E5D80708F47FC02C2F4E
:1011F0002695269540E2249F900111248C2F837020
:10120000C1E0D0E002C0CC0FDD1F8A95E2F7C22B0F
:10121000D32BDD685BCFC03A22E5D20760F4C0383B
:1012200032E5D30708F441C0CF71D0E0DC2FCC27E2
:10123000C46FD06A4BCFC03C42E5D40708F44AC023
:10124000C03E82E5D80708F066CFDC2FCC27CC273C
:10125000DF71C06FD06A3ACFC55AD0E0C65ADD4FB1
:10126000C881D0E0D06432CFD06530CFDF70D06A93
:101270002DCFCF71D0E0DC2FCC27C16FD06A26CF25
:101280002C2F26952695277080E2289F9001112407
:101290008C2F8370C1E0D0E002C0CC0FDD1F8A9597
:1012A000E2F7C22BD32BDC6811CF2C2F2695269585
:1012B000277040E2249F900111248C2F8370C1E09D
:1012C000D0E002C0CC0FDD1F8A95E2F7C22BD32BF2
:1012D000DA68FCCE8C2F8F710E94AE07C82FD0E049
:1012E000DC2FCC27CC27DF71D062F0CE8C2F8F7112
:1012F0000E94AE0735E0D695C7953A95E1F7CF70D5
:101300009C2FEC01D069E2CE8D2F8F710E94AE0729
:1013100090E0982F882788279F719C012C2BE9014A
:10132000E3CFC2EED0E0D2CEC0EED0E0CFCEC6EE5C
:10133000D0E0CCCEC5E3D0E0C9CE0E947C050895B4
:1013400080913D03882331F010923D0310923C03BD
:1013500010923B0308958091C30381110FC0109236
:10136000C0030E94A0090E94880588579C4E909354
:10137000C2038093C10381E08093C3030895CF9398
:10138000C82F8091900382FF0CC080913D038C1781
:1013900041F00E94880590933C0380933B03C093E7
:1013A0003D03CF9108959091C603892B8093C60386
:1013B000089580959091C00398239093C003089559
:1013C00080912E039091ED02981301C008958F5FD4
:1013D0008770FACFB0E0A0E0E0EFF9E00C94E92DDF
:1013E0007C0100918D0310918E0380918B0390916D
:1013F0008C03082B192BCFE0D0E0CC24C394D12C44
:10140000BC2EC6010C2E02C0880F991F0A94E2F769
:1014100080239123892B49F4219790F7B12C8B2DB0
:10142000CDB7DEB7E9E00C94052EB7018C2F0E94F2
:10143000F1070E940E08019779F3F1CFCF93DF9364
:10144000EC010E94EA09BE010E94F1070E940E0809
:10145000DF91CF9108959A3078F5863068F5E82FBE
:10146000F0E086E0989FE00DF11D11249E2F97700B
:1014700083E0F695E7958A95E1F7EE0FFF1FEE0FF3
:10148000FF1FEB53FD4F50E040E080E0219130E042
:10149000092E02C0369527950A94E2F7217033276A
:1014A000042E01C0220F0A94EAF7822B4F5F5F4F90
:1014B0004430510559F7089580E008959A3098F521
:1014C000863088F5E82FF0E086E0989FE00DF11D6A
:1014D00011248E2F877041E001C0440F8A95EAF7EE
:1014E00083E0F695E7958A95E1F7EE0FFF1FEE0F83
:1014F000FF1FEB53FD4F30E020E070E05191DF0122
:101500001197CB01022E02C0969587950A94E2F7B7
:10151000817081958527842385278C932F5F3F4F8A
:101520002430310559F7089590938E0380938D03ED
:10153000089521E030E002C0220F331F8A95E2F7C0
:101540002095309580918D0390918E038223932373
:101550000E94940A08959091310380958923809385
:101560003103282F2770B1F4282F082E000C330BDD
:101570009217130679F09091900392FF0BC0859516
:10158000859585950E94990A109231031092300337
:1015900010922F03089521E030E002C0220F331F84
:1015A0008A95E2F780918D0390918E03822B932B85
:1015B0000E94940A089590938C0380938B0308955E
:1015C000FC0183819481892B29F080819181892379
:1015D0008F3FF1F480E008950E940E0892959F706D
:1015E000963089F058F4925F9F70923098F7803F60
:1015F00019F030F4883E70F781E008959A5FF4CFD7
:10160000843F41F7F9CF883EB8F3813F19F7F4CF13
:1016100086819781009701F7808191810E941E0A3F
:10162000DDCFCF93DF93C82F662309F469C0809183
:10163000B2039091B303892B31F40E9488059093F3
:10164000B3038093B203CD3C51F40E94030781950C
:101650008093BD030E944D06DF91CF910895CE3C4B
:1016600019F40E940307F4CFCF3C31F40E94030722
:1016700081958093BC03EECFC03D19F40E9403070F
:10168000F8CFC93D29F40E9474068093BE03E2CFCF
:10169000CA3D21F40E9474068195F7CFCB3D31F409
:1016A0000E94740681958093BF03D4CFCC3D19F47A
:1016B0000E947406F8CF8FE28C0F883070F4C15D01
:1016C000DD0B21E030E001C0220FCA95EAF78091DE
:1016D000BB03822B8093BB03BDCF8091B503816098
:1016E000CD3D59F08091B5038260CE3D31F0CF3DC4
:1016F00009F0B0CF8091B50384608093B503AACF81
:101700004091BC038D3C79F48091BD0387FF11C0EB
:101710001092BD0341110FC01092B1031092B30398
:101720001092B20308C08E3C81F48091BD0318165C
:101730007CF3442381F08091BE039091BF03892BF9
:1017400009F088CF1092B40385CF8F3C49F447FF4E
:10175000F0CF1092BC038091BD038111ECCFDCCFA0
:10176000803D19F41416ACF3E4CF8091BE03C93D5B
:1017700029F41816F4F61092BE03DBCFCA3D19F413
:1017800087FFD7CFF8CF8091BF03CB3D29F487FFE8
:10179000D0CF1092BF03CDCFCC3D19F41816CCF3A7
:1017A000C8CF8FE28C0F883078F4C15DDD0B81E00B
:1017B00090E001C0880FCA95EAF780959091BB032D
:1017C00089238093BB03B5CF8091B5038E7FCD3D38
:1017D00059F08091B5038D7FCE3D31F0CF3D09F0BA
:1017E000A8CF8091B5038B7F8093B503A2CFCF9212
:1017F000DF92EF92FF92C72ED82EE92EFF2420E031
:10180000C114D104E104F10419F0C701B60128E0C4
:101810006B017C0154E0F694E794D794C7945A95F1
:10182000D1F7C114D104E104F10419F02C5FC70110
:10183000B6016B017C0142E0F694E794D794C7941B
:101840004A95D1F7C114D104E104F10419F02E5FD7
:10185000C701B6019695879577956795672B682B95
:10186000692B09F02F5F822FFF90EF90DF90CF90D0
:101870000895A5E0B0E0EFE3FCE00C94EF2D9C01AF
:10188000FC01868197810097E1F485E0DE011196E5
:1018900001900D928A95E1F7F901228189819A815F
:1018A000222399F0662389F00E94EA09182F682FF5
:1018B00089819A810E945E0A69817A81812F0E94C2
:1018C000F1072596E3E00C940B2E0E942B0A182FAB
:1018D000F3CF9C019A9581159F4150F4832F81701D
:1018E00031FD826032FD846033FF03C0886008955B
:1018F00080E008950F931F93CF93DF9301E010E0F2
:10190000082E02C0000F111F0A94E2F7C09147038E
:10191000D09148039E0120233123232B21F5909160
:101920003103959595959595891306C010923103CD
:101930001092300310922F030E94CB0A0E947C0564
:10194000609343037093440380934503909346034D
:10195000C027D127D0934803C0934703DF91CF918D
:101960001F910F9108950E94990AF2CF0F931F9330
:10197000CF93DF938C01EB0180915D04843069F596
:1019800081E08093E9008FEF9091E800815095FD10
:1019900006C095ED9A95F1F700008111F5CF809181
:1019A000E80085FF1AC00E942F04811111C08091A8
:1019B000E80085FD06C08091E8008E778093E800FE
:1019C000F2CFF80181918F018093F100219779F78F
:1019D0008091E8008E778093E800DF91CF911F918E
:1019E0000F91089563E070E00E94B60C089566E0E0
:1019F00070E00E94B60C0895CF93DF93EC018091C4
:101A00005902811111C068E070E0CE0101960E9478
:101A1000B60C89E0FE01A3E4B4E001900D928A9532
:101A2000E1F7DF91CF91089569E070E0CE01EFCF4B
:101A3000B0E0A0E0EEE1FDE00C94E82D7C015B015C
:101A40006A018091780301E010E08A3010F40AE026
:101A500010E0C1E0D0E0B501C701F60109958111A0
:101A600004C021960C171D072CF4CDB7DEB7EAE0B1
:101A70000C94042ECC9F9001CD9F300D300D11247D
:101A800090E080E045E34A95F1F700000196821767
:101A90009307C1F7E0CF80915A03811110C0809164
:101AA000D80080618093D8008AE18A95F1F700C060
:101AB0008091D90080FF0AC081E080935A0381E0C1
:101AC00090915A03913009F080E0089582E080936C
:101AD0005A030E94100410925D04F1CF0E944B0D36
:101AE000882359F0E0913704F0913804309729F0B9
:101AF0000190F081E02D0995089580E0089580918E
:101B0000C0039091C603892B8093B50280913D0359
:101B1000882319F10E94880520913B0330913C03F2
:101B2000821B930B883E934010F00E94A009809185
:101B3000B50290913D03892B8093B50220E087EB9D
:101B400092E0FC013191CF0131112F5FF2E08D3B2A
:101B50009F07B9F721110E94A00949E050E062E314
:101B600073E084EB92E00E94BE30892BC1F089E0E3
:101B7000E4EBF2E0A2E3B3E001900D928A95E1F785
:101B8000E0913704F0913804309749F081E0809378
:101B9000B4020280F381E02D84EB92E00995089570
:101BA000882341F080959091C60389238093C603D2
:101BB0000E947F0D08958091C303882329F082E25B
:101BC0000E94D00D1092C3030895882321F00E9433
:101BD000D3090E947F0D0895882321F00E94D9091E
:101BE0000E947F0D0895882339F09091C003982BAF
:101BF0009093C0030E947F0D08958823D1F19CEF3C
:101C0000980F913A78F4E7EBF2E09191891303C0D1
:101C1000DF0111971C9292E0ED3BF907B1F70E94AA
:101C20007F0D089590E2980F983050F4877091E0FE
:101C300001C0990F8A95EAF7892F0E94D909EFCF41
:101C40009BE5980F933028F490E080E00E94D30544
:101C5000089598E5980F993128F490E080E00E946B
:101C6000AE05089593E3980F933118F460E00E9455
:101C7000110B0895CF93DF93EC010E94FD0DCE016F
:101C80000E94690CC05ED109289728F40E94EC0DCF
:101C9000DF91CF9108950E94D00DFACFCF93C82F36
:101CA0008823A9F08CEF8C0F813A00F5E7EBF2E086
:101CB000DF018D91C81769F082E0AD3BB807C9F725
:101CC0006C2F84EB92E00E9494050E947F0DCF91CF
:101CD00008958191C81303C0DF0111971C9282E01F
:101CE000ED3BF807B1F70E947F0DEACF80E28C0F41
:101CF000883068F4C77021E030E001C0220FCA9537
:101D0000EAF78091C003822B8093C003DECFEBE51E
:101D1000EC0FE33040F4F0E0E65AFD4F808190E0B4
:101D20000E94D305D4CFE8E5EC0FE93150F4F0E0A0
:101D3000EE0FFF1FE35AFD4F808191810E94AE0597
:101D4000C6CF83E38C0F833110F661E08C2F0E94A5
:101D5000110BBDCF1F93CF93DF93182FEB010E9480
:101D60004E0E209739F4812F0E94FD0DDF91CF9107
:101D70001F9108958FE99FE00197F1F700C00000DF
:101D80002197EFCF70E060E0893311F460E570E0F7
:101D90000E94AA0E0895B0E0A0E0E1EDFEE00C94F0
:101DA000E82DEC018AE0A82EFE012491222309F4FB
:101DB00097C0213009F03EC031968491813031F4D2
:101DC0002296FE0184910E94C20E07C0823039F42F
:101DD0002296FE0184910E944E0E2196E5CF83301B
:101DE00031F42296FE0184910E94FD0DF6CF8430DD
:101DF00009F074C02296FE01249190E080E0FE017B
:101E000031962053330B2A30310548F0019728F3DF
:101E1000EFE9FFE03197F1F700C00000F7CFA89E8F
:101E2000A001A99E500D1124C901840F951F249172
:101E3000EF01E5CFE22FF0E0EF59F84FB490822F99
:101E400086958695869590E0FC01EF5AF84FE490D0
:101E50002770F12C022E02C0F594E7940A94E2F761
:101E600031E0E322FF24FC01EF5BF84FC490D12C5A
:101E7000022E02C0D594C7940A94E2F7E1E0CE2284
:101E8000DD24FC01EF5CF84F049110E002C01595D1
:101E900007952A95E2F701701127E114F10419F072
:101EA00081EE0E944E0EC114D10419F086EE0E94FC
:101EB0004E0E8B2D0E94C20EC114D10419F086EE75
:101EC0000E94FD0DE114F10419F081EE0E94FD0D58
:101ED0000115110509F481CF8CE275CFEF017DCF9B
:101EE000CDB7DEB7EAE00C94042ECF93DF93EC017C
:101EF0000E94690C9E01205E31092830310540F4B2
:101F00000E94F30D8C2F0E944E0EDF91CF91089509
:101F10000E94E50DF7CF0F931F93CF93DF938C01B2
:101F2000D0E0C0E0C99711F4C0E5D0E0C8010E943C
:101F3000750F209741F4C8010E943A0EDF91CF91AE
:101F40001F910F9108958FE99FE00197F1F700C06D
:101F500000002197EECFCF93DF93D82FC62F0E949A
:101F600088052091BD023091BE02821B930BC2975F
:101F700008F45DC00E9488059093BE028093BD0264
:101F8000D1118FC060918D0370918E0390E080E03D
:101F90000E94F70B8230B1F0843071F1D0914B0385
:101FA000C11167C00E94880590934A03809349033A
:101FB000D11106C080EE0E944E0E81E080934B034B
:101FC0008BE233C0D091C0038D2F8272A1F18D2F8F
:101FD0000E94EC0D2FEF81EE94E021508040904064
:101FE000E1F700C000008EEBC11101C08DEB0E9433
:101FF000C20E8D2F0E94F30DD0914E03C11123C04C
:102000000E94880590934D0380934C03D1110CC01E
:1020100083EE0E944E0E8BE20E944E0E8BE20E94D7
:10202000FD0D81E080934E038FE40E94C20E80E09C
:10203000DF91CF9108958D2F0E94EC0D8AEAC11196
:10204000D6CF89EAD4CF0E94880590934D03809320
:102050004C03D1110CC083EE0E944E0E8BE20E9405
:102060004E0E8BE20E94FD0D81E080934E0380E5D1
:10207000DCCF0E94880590934A0380934903D111D5
:1020800006C080EE0E944E0E81E080934B0381EEED
:102090000E944E0E8BE20E94C20E81EE0E94FD0D48
:1020A000C6CFD13021F660918D0370918E0390E000
:1020B00080E00E94F70B833069F0843091F0823029
:1020C000B9F486E598E0CC2311F087E598E00E940A
:1020D0008B0FADCF8DE198E0CC23C9F38DE19AE071
:1020E000F6CF8BED90E0CC2391F38CED90E0EFCF29
:1020F00089ED90E0CC2359F38AED90E0E8CF909100
:10210000900392FB222720F9281779F080FB92F99F
:102110009093900360918F037091900384E090E01E
:102120000E94712E82E00E94AB0A0895CF93109214
:10213000C003C6E0E7EBF2E0DF018C2F1D928A9529
:10214000E9F790E080E00E94D30590E080E00E94F3
:10215000AE051092C6030E947F0DEAEBF3E0DF01AB
:102160001D92CA95E9F71092B1031092B403109230
:10217000B5030E944D06CF910895AAE2B0E0E3ECCA
:10218000F0E10C94EF2D85E594E02091F100FC0145
:102190002193CF01F4E08D359F07B9F78091560464
:1021A000833009F470C0B8F4813009F447C082303C
:1021B00009F4B1C08091E80083FF39C180915504D2
:1021C000909156049A3008F032C1E92FF0E0EA52BB
:1021D000FF4C0C943F2E8A3009F48CC08B3009F4EC
:1021E0006FC0893039F780915504813219F7809199
:1021F000590490915A04892BE9F68091E800877F71
:102200008093E8008091E80082FF38C09091F3004D
:102210008091F200029731F48091F100813011F049
:10222000863021F48091F100809342048091E8008F
:102230008B778093E8000E946004BCCF80915504A6
:10224000813A09F0B7CF8091E800877F8093E8005A
:102250008091590490915A04892B61F469E083E4D8
:1022600094E070E00E940C058091E8008B778093E9
:10227000E800A0CF60E090E080E0F3CF80915D04C3
:102280008111C0CF97CF80915504813A09F092CF48
:102290008091590490915A04892B09F08BCF809139
:1022A000E800877F8093E8008091E80080FFFCCF02
:1022B000809159028093F1008091E8008E77B9CF28
:1022C00080915504813209F075CF80915904909125
:1022D0005A04892B09F06ECF8091E800877F8093A4
:1022E000E8000E94600480915704809359020E9484
:1022F000961060CF80915504813209F05BCF8091B8
:10230000E800877F8093E8000E9460048091580471
:10231000809341044FCF80915504813A09F04ACF10
:102320008091E800877F8093E8008091E80080FF3B
:10233000FCCF80914104BECF803899F0823809F0FB
:1023400076C0809159048F70873008F070C08093F8
:10235000E9008091EB0085FB882780F91092E90065
:1023600006C080914C0490914D049111826090912F
:10237000E800977F9093E8008093F1001092F100BD
:102380008091E8008E77B6C1882309F4A3C182301A
:1023900009F04DC0809157048111A7C18091590463
:1023A0008F702FEF280F263008F041C08093E9008E
:1023B0002091EB0020FF99C1933031F48091EB0024
:1023C00080628093EB0091C19091EB0090619093BB
:1023D000EB0021E030E001C0220F8A95EAF720935C
:1023E000EA001092EA008091EB008860EACF811148
:1023F0001EC0109157041F778091E3008078812BD5
:102400008093E3008091E800877F8093E8000E943A
:1024100060048091E80080FFFCCF8091E300806839
:102420008093E30082E0111183E080935D0480914A
:10243000E80083FF0AC08091E800877F8093E8006E
:102440008091EB0080628093EB00AA96E3E00C940D
:102450000B2E8058823058F7809157049091580481
:102460008C3D23E09207A1F583E08A838AE2898389
:102470004FB7F894DE01139620E03EE051E2E32FDF
:10248000F0E050935700E49120FF03C0E295EF7015
:102490003F5FEF708E2F90E0EA30C0F0C7968D93CB
:1024A0009D932F5F243159F74FBF8091E800877FBC
:1024B0008093E8006AE270E0CE0101960E940C056C
:1024C0008091E8008B778093E800B1CFC096E7CF8A
:1024D0004091590450915A04292F33272330310554
:1024E00009F440C078F52130310509F48EC082E24C
:1024F00090E0E1ECF6E02230310509F098CF209130
:10250000E800277F2093E80020915B0430915C0471
:102510008217930708F49C0140E02115310509F06A
:1025200079C0411177C08091E80082FDC9CF8091C8
:102530005D04882329F2853019F28091E80083FF39
:10254000F2CFBECF2132310509F457C02232310516
:1025500009F06DCF452B09F06ACF8DEB90E0E4E0F8
:10256000F6E0CDCF20915B0430915C0440914E04A5
:102570004F5F40934E043093530420935204223013
:102580003105B1F420914F042F5F20934F04992718
:102590008130910551F10097E9F0029709F047CF9A
:1025A000E5EFF6E0E4918E2F90E0E5EFF6E019C05C
:1025B0002430310531F4209150042F5F20935004D2
:1025C000E6CF2F3F310519F7209151042F5F20935B
:1025D0005104DDCFEDE2F7E0E4918E2F90E0EDE2E3
:1025E000F7E0009709F08BCF22CFE5E0F7E0E49128
:1025F0008E2F90E0E5E0F7E0F4CF452B09F017CF00
:1026000089E090E0E3EDF6E07ACF82E190E0E3EE5E
:10261000F6E075CF80915D04882309F451CF8530B1
:1026200009F44ECF8091E80083FD4ACF8091E80005
:1026300082FD79CF8091E80080FF6FCF9091F30009
:102640008091F2002115310519F08830910550F084
:1026500041E0089709F040E08091E8008E77809390
:10266000E8005BCF44914093F1003196215031094D
:102670000196E8CF803809F0DACE8091E800877FB4
:102680008093E800809154048093F10079CE811109
:10269000CECE10915704123008F0C9CE8091E800D8
:1026A000877F8093E800109354040E9460041123F4
:1026B00011F084E005C08091E30087FDFACF81E04E
:1026C00080935D0442E261EC81E00E947F0480918E
:1026D0005D04ADCE80915704813009F0A8CE81E031
:1026E000933009F080E080934D041092E9008091CE
:1026F000E800877F8093E8000E94600498CE0E94E3
:1027000096102FEF84E39CE0215080409040E1F749
:1027100000C0000087E797E79093010880930008C6
:1027200088E19AE00FB6F894A895809360000FBEF8
:1027300090936000FFCFCF93DF93EC018932910536
:1027400048F4FC01E052FF4C0C943F2E89E593E0E5
:10275000611107C0DF91CF91089581E493E0662372
:10276000C9F30E94CB0EF6CF8CE293E0662391F37F
:10277000F8CF85E193E0662369F3F3CF8DEF92E024
:10278000662341F3EECF88EE92E0662319F3E9CF9A
:10279000662301F38FED92E00E94CB0EC8E0D0E0FB
:1027A00080E590E00E948B0F2197D1F7D3CF66236D
:1027B00089F283ED92E00E94CB0EC6E0D0E080E586
:1027C00090E00E948B0F2197D1F7C4CF662309F4C4
:1027D000C1CF8BEC92E00E94CB0E80E590E00E948E
:1027E0008B0F80E590E00E948B0F80E590E00E94C7
:1027F0008B0F80E590E00E948B0FACCF662309F42D
:10280000A9CF8BEB92E00E94CB0E80E590E00E9476
:102810008B0F2197D1F79ECF662309F49BCF8BEACC
:1028200092E00E94CB0EC8E0D0E080E590E00E94EC
:102830008B0F2197D1F78ECF662309F48BCF83E9D5
:1028400092E00E94CB0EC7E0D0E080E590E00E94CD
:102850008B0F2197D1F77ECF662309F47BCF85E8D4
:1028600092E00E94CB0EC7E0D0E080E590E00E94AD
:102870008B0F2197D1F76ECF662309F46BCF87E7D3
:1028800092E00E94CB0EC7E0D0E080E590E00E948D
:102890008B0F2197D1F75ECF662309F45BCF85E6D6
:1028A00092E00E94CB0EC9E0D0E080E590E00E946B
:1028B0008B0F2197D1F74ECF662309F44BCF81E3DD
:1028C00092E00E94CB0E8AE490E00E948B0FCAE057
:1028D000D0E08FE490E00E948B0F2197D1F73ACFA0
:1028E000662309F437CF87EC91E00E94CB0E8AE48F
:1028F00090E00E948B0FCBE0D0E08FE490E00E944C
:102900008B0F2197D1F726CF662309F423CF8BEBCA
:1029100091E00E94CB0E89E290E00E948B0FC9E00B
:10292000D0E080E590E00E948B0F2197D1F787E0FF
:1029300098E00E948B0F87E098E00E948B0F8AE25C
:1029400090E059CF662309F405CF83EE0E944E0E26
:102950008DE10E944E0E83EE0E94FD0D8DE10E94DE
:10296000FD0DF8CE662309F4F5CE83EE0E944E0EDF
:1029700081EE0E944E0E8DE10E944E0E83EE0E946B
:10298000FD0D81EEE9CF662309F4E4CE83EE0E94CB
:102990004E0E8BE10E944E0E83EE0E94FD0D8BE1E8
:1029A000DECF662309F4D6CE83EE0E944E0E86E07B
:1029B0000E944E0E83EE0E94FD0D86E0D0CF66236E
:1029C00009F4C8CE83EE0E944E0E89E10E944E0E9D
:1029D00083EE0E94FD0D89E1C2CF662309F4BACED1
:1029E00082EE0E944E0E81EE0E944E0E83EE0E94F9
:1029F0004E0E8CE20E944E0E83EE0E94FD0D81EE83
:102A00000E94FD0D83EE0E94FD0D8CE2A8CF66238F
:102A100009F4A0CE81EE0E944E0E83EE0E944E0E6F
:102A200089E10E944E0E81EE0E94FD0D83EE0E9410
:102A3000FD0D89E10E94FD0D89E193E0DCCE662366
:102A400009F488CE83EE0E944E0E84E00E944E0E62
:102A500083EE0E94FD0D84E082CF88E392E066233E
:102A600009F478CEC8CE8EE192E0662309F472CEE6
:102A7000C2CE84E392E0662309F46CCEBCCE8DE234
:102A800092E0662309F466CEB6CE86E590E0662332
:102A900009F460CEB0CE8EE290E0662309F45ACEFF
:102AA000AACE8FE192E0662309F454CEA4CE662329
:102AB00009F450CED091C003C0913D031092C003E1
:102AC0000E94A009CD2BC27289EB91E011F487EB33
:102AD00091E00E94CB0ED093C0033CCE662309F454
:102AE00039CE80918D0390918E0324E082270E943D
:102AF000940A30CE86EA90E0662309F42BCE7BCE92
:102B0000662309F427CE0E947F1383E590E06623B5
:102B100009F420CE70CE662309F41CCE85E490E043
:102B20006ACE0E94AB0916CE662309F413CE8AEA58
:102B300091E017CE0E9496102FEF84E39CE0215085
:102B400080409040E1F700C0000088E19AE00FB6B5
:102B5000F894A895809360000FBE90936000FFCF1B
:102B6000B0E0A0E0E6EBF5E10C94E92D8C01FC016E
:102B700083819481892B31F08081918189238F3FDA
:102B800009F002C7CDB7DEB7E9E00C94052E80E06E
:102B90002FC7C034F2E5DF07C8F5C03222E5D207FF
:102BA000D0F5CE0190548115904108F44CC0CE016F
:102BB0008B7F813E910509F4A2C0C830FEE7DF0794
:102BC00009F080C0F8018281882309F47BC0C0919C
:102BD000C00380913D038C2B827209F04FC082EEBE
:102BE0000E944E0E8091BF02811106C08FE40E94A8
:102BF000C20E80E50E94C20E81EE0E944E0E8FE44E
:102C00000E944E0E82E08093BF020EC7CE01805C10
:102C10009245809760F681E090E00C2E02C0880F0C
:102C2000991F0A94E2F720914703309148038223C9
:102C30009323892B09F4BBCFF8018281882309F4FF
:102C4000F3C68C2FEFC6F8018581807F09F0AFCFE6
:102C500082818111ACCF2D2F2F7081E090E002C0D6
:102C6000880F991F2A95E2F7209147033091480376
:102C700082239323892B09F49ACFD6C68091BF0271
:102C800081111BC01092C0030E94A00984E091E052
:102C90000E94750F84E091E00E943A0E8DE492E06C
:102CA0000E948B0F8AE40E94C20E8DE492E00E9483
:102CB0008B0FC093C00383E0A6CF81E50E944E0E28
:102CC00084E0A1CF8091BF02823069F030F481307E
:102CD00009F43FC01092BF0212C0833069F0843003
:102CE000C9F781E507C08FE40E94FD0D81EE0E94C7
:102CF000FD0D82EE0E94FD0D81E08093BF02F80180
:102D0000C280C11051C0E090C003F0903D03CA30B2
:102D1000FEE7DF0709F496C130F5C33731E2D30788
:102D200009F4FDC1C9308EE7D80709F473C1C33770
:102D3000FCE7DF0709F002C2F8018281882309F469
:102D400073C68091C303882309F4F5C10E94DB0D8B
:102D50006BC6C932D10509F0BDCF8FE40E94C20E07
:102D60001092BF0261C6CC309EE7D90709F4BEC1FC
:102D700008F47BC1CD30FEE7DF07C9F6F801828198
:102D8000882309F451C60E94880590934D038093CF
:102D90004C0380914E038111BEC183EE0E944E0E02
:102DA00081E080934E03B7C1B090C0038B2D8D7D21
:102DB00009F0A9CF40915103509152036091530300
:102DC000709154032FB7F89480913C0490913D0486
:102DD000A0913E04B0913F042FBF841B950BA60B1E
:102DE000B70B7E018E359140A105B105D8F4FF24C3
:102DF00080914F03909150038331910509F4A5C050
:102E000008F04CC08730910509F4EDC0F8F4853026
:102E1000910509F4BCC008F08FC0892B09F478C073
:102E2000B092C003B092C002F0925003E0924F0300
:102E30000E947C0560935103709352038093530367
:102E400090935403CC2009F4EFC55DCF89309105F0
:102E500009F484C008F489C08D30910509F463C079
:102E60000F97F1F68091C3033DE0E316F10409F0FA
:102E700051C02EE0D22EC090C303CC2009F4BDC0B7
:102E800082E00E94D30980E00E94C20E82E00E948C
:102E9000D3098D2D0E94C20EC12CC4CF8E32910554
:102EA00009F489C0A0F48831910509F492C08A31EF
:102EB000910509F463C0469709F0B2CF8091C3032E
:102EC000E9E1EE16F10431F586E0D82ED4CF853550
:102ED000910509F477C060F48435910509F0A0CF1D
:102EE0008091C303E7E2EE16F10409F461C012C059
:102EF0008635910509F455C08735910509F090CFC5
:102F00008091C30397E2E916F10409F451C002C0AD
:102F10008091C303882319F082E00E94D30980E0E6
:102F20000E94C20E7DCF8091C3039FE0E916F10499
:102F300089F798E1D92E9FCF8091C303FBE1EF166B
:102F4000F10441F7A6E1DA2E96CF8091C30329E080
:102F5000E216F104F9F6B7E1DB2E8DCF8091C303C1
:102F60003AE1E316F10471F3D5CF8091C30398E3FE
:102F7000E916F10479F6F6E3DF2E7DCF8091C303E5
:102F8000E3E1EE16F10431F6E5E1DE2E74CF809137
:102F9000C303FAE1EF16F10409F0BCCF77E0D72EB6
:102FA0006ACF8091C30327E2E216F10409F0B2CFA1
:102FB0006CE2D62E60CF8091C30337E2E316F104B2
:102FC000B9F3A8CF8091C303F7E2EF16F10481F3C0
:102FD000A1CF8091C3032CE1E216F10409F09ACF4E
:102FE00058E0D52E48CF8091C3033BE1E316F104AE
:102FF00009F090CF4AE0D42E3ECF8091C00280935A
:10300000C00380E00E94C20E1092C0038D2D0E946A
:10301000C20E08CFF8018281882309F405C51092F9
:10302000C0030E94A0098F2D8E29827241F089EA87
:1030300093E00E94CB0E80E50E94C20E40C086EA5B
:1030400093E0F7CFF8018281882309F4EDC4109250
:10305000C0030E94A0098F2D8E29827219F083EA85
:1030600093E0E7CF80EA93E0E4CFF8018281882300
:1030700009F4DAC48F2D8E29827239F182E20E941E
:10308000D9098F2D827261F08F2D8D7D80933D0344
:103090008823C1F00E94880590933C0380933B03F2
:1030A00080E793E00E94CB0EC9E1D0E080E50E946A
:1030B000C20E2197D9F780E596E00E948B0FE0922F
:1030C000C003B2C490E080E0E7CF89E693E00E94BD
:1030D000CB0E80E50E94C20E80E50E94C20E80E504
:1030E0000E94C20E80E50E94C20EA5CFF801828127
:1030F000882309F499C40E94880590934A03809319
:10310000490380914B03811106C080EE0E944E0E50
:1031100081E080934B038BE20E94C20E85C4F801CC
:103120008581807F59F08281882309F47DC482E003
:103130000E94BF0979C40E94AB0976C4FE28809121
:10314000C30381114EC0F2E2FF1202C00E94AB091C
:10315000F8018281882329F1C13ED10521F0C23ACC
:10316000F2E5DF07D9F58091C302882371F0F801F9
:10317000838194812091C1023091C202821B930B02
:103180008F3F9F4710F00E94AB0981E08093C302FC
:10319000F8018381948188539F4F9093C20280935A
:1031A000C102F8018281882309F453C1CE019057EE
:1031B000839708F04BC484E090E00E944D2E9093DA
:1031C000900380938F03FE01E150F047E232F10556
:1031D00008F082C0E75FFE4C0C943F2E1092C302B1
:1031E000E0CF0E94880588579C4E9093C20380933D
:1031F000C103F80182818823A1F2FF2DFD79FF2E02
:1032000009F04FC0C03422E5D20758F5C11532E5A8
:10321000D30738F6C11580E4D80750F4C11590E201
:10322000D907A0F5C63ED10509F4BBCFCE010BC02E
:10323000C115E0E5DE07D0F7F8018581807F09F44C
:10324000B0CFCE0199271092C60388329105A0F520
:103250008E319105B8F5049720F182E00E94D309E0
:1032600031C0C43BF2E5DF0709F49BCFCE01C53B7B
:1032700022E5D20730F48056924580349105B0F6AD
:1032800090CF805C9245809788F68BCFF80185813E
:10329000807FB9F68D2F8F71823159F028F48230FA
:1032A00041F00E94DB0D7DCF843109F47ACF863165
:1032B000C1F71092C603F5CF8D32910571F228F453
:1032C0008A9779F70E947F0D6CCF8C349105D1F3EA
:1032D0008D329240B9F3E5CF80918F038160809366
:1032E0008F0395C0809190038860809390038FC076
:1032F00080918F038260F3CF80918F038460EFCF42
:1033000080918F038860EBCF809190038160EDCF37
:10331000809190038260E9CF80918F038061DFCF3D
:1033200080918F038062DBCF80918F038064D7CF41
:103330000E94961080918F038068D1CF80918F0377
:103340008C60CDCF809190038360CFCF80918F032D
:103350008E7FC5CF80919003877FC7CF80918F03E9
:103360008D7FBDCF80918F038B7FB9CF80918F03ED
:10337000877FB5CF809190038E7FB7CF80919003E8
:103380008D7FB3CF80918F038F7EA9CF80918F03E4
:103390008F7DA5CF80918F038F7BA1CF0E94961048
:1033A00080918F038F779BCF80918F03837F97CFFF
:1033B000809190038C7F99CF80918F0382FB992716
:1033C00090F921E0922790FB82F990FB83F987CF57
:1033D00080919003982F909591708E7F892B90FB10
:1033E00081F983CF90918F03892F8F7B96FF806423
:1033F00076CF0E94961090918F03892F97FB87F9C3
:1034000080586DCF61E08EE090E00E94532E609175
:103410008F037091900384E090E00E94712E0E94CF
:10342000961002C360E0EFCF90918F03892F8F7EBB
:1034300094FF806154CF90918F03892F8E7F90FFEE
:1034400081604DCF90919003892F877F93FF886093
:103450004CCFC631DC4729F58091C40281110FC0E1
:1034600089E2E7EBF2E02DEB32E09191891303C0A2
:10347000DF0111971C922E173F07B9F7FBC285E3B6
:10348000F0CFC3302CE7D20709F456C008F044C08F
:10349000C1158CE7D80709F44DC0C130DC4709F4E9
:1034A00051C0F80186819781009709F459C00E94A4
:1034B0000E08D82FC92FF801F280D580D2943FE0B2
:1034C000D322809131038770C1F0CF2CFF20B1F05F
:1034D000892F807F803421F080E28D0F883068F062
:1034E0008091900382FF09C082E00E94AB0A809124
:1034F00031038770CC24C3948111C12CBC2EB294AB
:103500002FE0B222FBE0FB1508F49FC0EB2DF0E0AA
:10351000E55DFE4C0C943F2ECB35ECE7DE07F1F079
:10352000CC35FCE7DF0781F0CA35DC4709F0B9CFBD
:1035300081E011C00E947F136FEF7FEF90E080E089
:103540000E94712E0E949A158091900382FB882719
:1035500080F991E089270E947F10A3CF80E0FBCF04
:103560008281C081D181882369F0CE010E94EA095D
:10357000F82E682FCE010E945E0ABE018F2D0E9498
:10358000F10795CFCE010E942B0AF82EF6CF2C2FF3
:103590002F70E22EC07F19F0E29490EFE922FF2015
:1035A000A9F0EE2069F080E28D0F883010F0D11183
:1035B00009C08091C003E82AE092C0030E947F0DF9
:1035C0008D2F41C08E2D0E94D309F8CF8D2F0E94E0
:1035D000FD0DEE20D1F180E28D0F883010F0D11179
:1035E00004C08E2D0E94D90906C0E0948091C603C4
:1035F000E822E092C6030E947F0D27C03C2F3F7057
:10360000E32EC07FC03219F0E29480EFE822DD2380
:1036100051F0D13009F465C0FF2009F46FC0DD20FE
:1036200009F465C0CDCF8091900382FD38C0FF20A2
:1036300081F1EE2039F08091C003E82AE092C003C6
:103640000E947F0D80E00E944E0E2B2D2850330BE0
:103650002430310510F40E946E0DCC20A9F0809129
:10366000310380FD11C0F8011282859585958595FD
:103670000E94CB0AC8010E94B01580913103859544
:10368000859585950E94990A60E0C8010E94390CD1
:1036900079CA80E00E94FD0DEE20B9F2A2CFFF2092
:1036A00071F080913D038E29D11003C00E94F30D6B
:1036B000CCCF91E0D912FACF0E94BF09C6CFD1106A
:1036C00006C00E94A0098E2D0E94EC0DBECFE1E045
:1036D000DE1609F4BACF8E2D0E94EC0D0E94A009CF
:1036E000B4CFFF2031F0F5E0FD1508F4AECF8E2DFC
:1036F000DDCF24E02D1508F4A8CFE5CFDD2019F3A8
:10370000D93349F43FEF87EE93E031508040904049
:10371000E1F700C000008D2F0E94FD0D96CF8C2F89
:1037200086958695837069F0813009F08ECF8D2F54
:103730009C2F9370F11002C080E090E00E94AE05D3
:1037400084CF8D2F9C2F9370F11002C080E090E009
:103750000E94D3057ACF6F2D8D2F0E94110B75CF4C
:103760008C2F837009F03FC0F1106FCF4D2F429521
:1037700046954770440F440F2D2F2F7030E0042ED4
:1037800002C0220F331F0A94E2F790E080E0D4FFDA
:1037900009C08FE090E002C0880F991F4A95E2F7B8
:1037A00080959095C695C695C370C23099F078F40F
:1037B00040918B0350918C03C13039F0822B932BB5
:1037C000842395230E94DB0A40CF242B352B822BA8
:1037D000932BF8CF822B932B20918B0330918C036A
:1037E00082279327EFCF8695FF2011F08C2F8170D1
:1037F000882309F42ACF4D2F429546954770440FF0
:10380000440F2D2F2F7030E0042E02C0220F331FE3
:103810000A94E2F790E080E0D4FF09C08FE090E0E6
:1038200002C0880F991F4A95E2F780959095C6953A
:10383000C695C370C23099F078F440918D035091D1
:103840008E03C13039F0822B932B842395230E9461
:10385000940AFBCE242B352B822B932BF8CF822B73
:10386000932B20918D0330918E0382279327EFCFE6
:10387000CF70FF2029F08C2F0E94CB0A8D2F16CFFE
:103880008D2F0E94EC0D8C2F0E94990ADECED23F24
:1038900071F160F4D03FB9F0D13F81F0FF2009F41D
:1038A00063C0D1108DCE8C2F8F7125C0D33F31F1E5
:1038B000D43FA1F78091900382FD2EC08C2F8F7191
:1038C000FF2011F318C0FF2069F0E4E0ED1508F4C3
:1038D000BCCECF7181E090E002C0880F991FCA95DD
:1038E000E2F7BFCFF5E0FD1508F4AFCEF2CF8C2F95
:1038F0008F71F110C9CF0E94CB0AA7CE90E080E073
:10390000FF2009F4A4CFCF7181E090E002C0880FBE
:10391000991FCA95E2F79BCFFF20D9F0CF718C2F6A
:103920000E94CB0A8091900382FF11C028E0C29FC1
:10393000C00111248360809331038C2F0E94CB0A35
:103940000E9488059093300380932F037ECE8C2FA6
:10395000D2CF81E00E94AB0A31E03D1508F075CE70
:1039600082E00E94AB0A71CEDD2059F0D93309F014
:10397000D2CE8FEF97EEE3E081509040E040E1F748
:10398000C8CE8C2F8F7180CF61E0C8010E94390CA6
:10399000EC010E947C056093430370934403809381
:1039A00045039093460320918D0330918E038091BF
:1039B000470390914803A901409550954823592306
:1039C000452B31F082239323909348038093470340
:1039D000CE30FEE7DF0709F0DCC8F80182818823DA
:1039E00019F1832F9927009709F4D1C89C0188E029
:1039F000A90174E0569547957A95E1F7411551056F
:103A000011F08C5F9A01A9015695479556954795F7
:103A10004115510511F08E5F9A0136952795232B9C
:103A200009F08F5F0E947A0C80913103877009F44E
:103A3000A9C8F8018281882309F4A4C88091900361
:103A400082FFA0C882E00E94AB0A9CC8C631FCE796
:103A5000DF0709F016CD8091C0038A7A91E009F45E
:103A600090E09093C40269E2811165E384EB92E0F7
:103A70000E9494050E947F0DD7CFCF93DF93809152
:103A8000EA02807F09F049C08091E702882309F4A7
:103A900044C080912E03D091ED026091E5027091B7
:103AA000E602A091E802B091E902C62FC723D81719
:103AB000A1F190E0109711F0CF3F19F401968770B3
:103AC000F6CF9C0143E0220F331F4A95E1F7F9013D
:103AD000E251FD4F41814713F1CF40814613EECFB4
:103AE00042814111EBCF438154814A1B5B0B483C1F
:103AF000510520F78091EA028F7080618093EA027D
:103B0000F901ED50FD4F80818F708061808385EEDB
:103B100092E00E94B0150E94E009DF91CF910895D4
:103B2000A5E1B0E0E6E9FDE10C94E82D8C0185E02B
:103B3000F801DE01519601900D928A95E1F7F801A6
:103B4000E28065EEA62E62E0B62E6091E8027091EA
:103B5000E9026115710509F44BC19091E5024091AC
:103B6000E602892F84238F3F09F442C120813181ED
:103B7000C380D480F090E702F601E61BF70BFF202C
:103B800009F411C18091EA02582F507FE83CF105F9
:103B900008F0C4C0511175C0FE2C43131EC092130F
:103BA0001CC06091EB027091EC02F80146815781D4
:103BB0006417750791F4E11010C08F7080618093D5
:103BC000EA02C5010E94B0158091EA02F8018583DE
:103BD0008F2D6596EAE00C94042EC114D10429F0CF
:103BE000822F83238F3F09F01EC180E0F82FF170F0
:103BF000DF2E80FF3CC080912E034091ED028413A4
:103C000015C0298B3A8B89899A890E941E0A292F0F
:103C100022952F702230F8F0243020F59F70F9F0B3
:103C2000F8019581907FD9F4D12C1FC090E0FC0160
:103C300053E0EE0FFF1F5A95E1F7E251FD4F51811E
:103C4000351306C05081251303C05281E5120FC001
:103C500001968770D4CF9F7011F0882329F3805E7E
:103C6000883010F3C8010E94B015FD2CB1CFEE20B2
:103C700009F4AECF8091EA0281608093EA02F12CD0
:103C8000A7CF43131BC0921319C04091EB02509170
:103C9000EC02F801268137814217530779F4E110CD
:103CA0000DC08583C8010E94B01588E0F801A5EE1B
:103CB000B2E001900D928A95E1F78ACFC8010E9487
:103CC000E00A882339F1EE2029F18091EA0280325E
:103CD000A0F02091E5023091E6023A8729871B8601
:103CE000DD86CC868E878091EB029091EC02988BDA
:103CF0008F87CE0109960E94B01588E0F801A5EEE5
:103D0000B2E001900D928A95E1F70E943D1DFF24DB
:103D1000F3945ECFC8010E94B015F9CF51110AC0CB
:103D200085EE92E00E94B01588E0F50111928A9527
:103D3000E9F7A5CF431318C0921316C04091EB02C8
:103D40005091EC02F801268137814217530761F444
:103D5000E1100AC08583C8010E94B01588E0F50112
:103D600011928A95E9F734CFC8010E94E00A8823AE
:103D700089F2EE2079F28091EA02803208F4BDCF18
:103D80002091E5023091E6023A8329831B82DD828D
:103D9000CC828E838091EB029091EC0298878F8386
:103DA000CE010196A8CFE83CF105C0F6FE2CEE202E
:103DB00009F4B0CF43130EC092130CC02091EB0254
:103DC0003091EC02F801868197812817390711F4A8
:103DD00088E06DCFC8010E94E00A81118ECF8091EA
:103DE000EA0281608093EA02C8010E94B015F0CE19
:103DF000EE2009F48FCFC8010E94E00AF82E882334
:103E000009F488CF88E0F801A5EEB2E001900D92A8
:103E10008A95E1F78091E5029091E6020E941E0AE0
:103E20000E943D1DD5CE81E08E25E0CEA0E1B0E020
:103E3000ECE1FFE10C94F02D29873A874B875C87F2
:103E40006D877E878F87988BCE0109960E94901D83
:103E5000811112C088E0FE013996DE0111960190B1
:103E60000D928A95E1F78C859D85892B29F08985AE
:103E70009A8589238F3F81F580912E039091ED02E1
:103E8000891317C06096E2E00C940C2E93E0AA0F01
:103E9000BB1F9A95E1F7A251BD4F98E0FE01319604
:103EA00001900D929A95E1F78093ED020E94E0094E
:103EB000E3CFB8E08B9FC001112482519D4F0E9437
:103EC000901D8823F9F280912E0390E0019687706F
:103ED000992780932E03D0CFA091ED02B0E0CD01C1
:103EE00001968770992720912E032817190671F6DD
:103EF0000E9496101092ED0210922E0388E0E5EEDB
:103F0000F2E0DF011D928A95E9F7B6CF0F931F9378
:103F1000CF93DF938091C803E091C7031CE0811128
:103F20001AC0DF91CF911F910F91089501E00E0FFC
:103F30000093C703CE2FD0E0E19FF0011124E75397
:103F4000FC4F83819481892B29F080819181892381
:103F50008F3FF9F4E02F8091C803E81738F31092EF
:103F6000C8031092C703DDCF18968D919C918F3FA7
:103F70009807E1F061E00E949B131C9FF0011D9FD8
:103F8000F00D1124E753FC4F148213821092C603E4
:103F9000E1CF1C9FD0011D9FB00D1124A753BC4F32
:103FA00016968D919C911797892BF1F22081318182
:103FB0004281538164817581868197810E94161F99
:103FC000DCCF109234041092330410925802809186
:103FD0003204809331040E9426060E94861F0895B1
:103FE000B0E0A0E0E6EFFFE10C94E02DC0913104D9
:103FF000E7E0FE2E01E010E0FCE02F2EAEEFEA2E0F
:10400000809132048C1309C00E94861F0E942606EC
:10401000CDB7DEB7E2E10C94FC2DD0E0FE01EE0F4F
:10402000FF1FE75DFB4F80819181F89EF001F99EB3
:10403000F00D1124E75CFE4F2481211159C030900E
:10404000C803A9ECB3E030E020E0412C5F01231568
:1040500008F04CC01A966D907C901B97F5018080FB
:1040600091804FEF5FEF512CC52CD12CF601EE0F54
:10407000FF1FE80DF91D659174916616770609F426
:10408000A601672B11F05394EFCF4F3F5407B9F1BE
:10409000B80102C0660F771F4A95E2F7462AA801C9
:1040A000052C02C0440F551F0A94E2F741505109F4
:1040B0004416150601F5229EF001239EF00D1124F1
:1040C000E753FC4FF89ED001F99EB00D1124A75C78
:1040D000BE4F12962D913C91139737832683E08231
:1040E000E1829187808771E015967C930E94F805A4
:1040F0002196C37085CF14961C921E9213972F5F42
:104100003F4F1C96A4CFA9E1B0E0E9E8F0E20C949F
:10411000E02D498B5A8B6B8B7C8B8D8B61111092B0
:10412000C6031D861E861F86188A85E0FE017196CD
:10413000DE01199601900D928A95E1F78091900326
:1041400082FF1CC00E94880520912F03309130030C
:10415000821B930B883E934020F08091310382FFB5
:10416000F2C10E94880520913B0330913C03821BE1
:10417000930B883E934010F00E94A0098C859D858A
:10418000892B31F089859A8589238F3F09F0C9C130
:1041900029853A854B855C856D857E858F859889D7
:1041A0000E94161FC7C081354CE7940731F48B85F8
:1041B000882371F00E94E11FEBCF82359C4741F4C8
:1041C0008B85882329F0809158028111F3CFB7C1E4
:1041D00069857A8580E00E94F1074C0109E311E0CE
:1041E000E12CD12CC12CAA24A394B12C9EEF592EE2
:1041F00044244394F8016081718166246A94762C8A
:1042000020E0422F50E0FA01EE0FFF1FE60FF71FEC
:10421000859194918816990609F43A01892B11F039
:104220002F5FEFCFF12CFFEF6F167F0609F444C02C
:10423000F8014481F09058028F2D411180E0F82F51
:10424000F170FF2EF801258086819B85992309F462
:10425000F2C0FF2009F4EFC0211014C0A501062C04
:1042600001C0440F0A94EAF7842B86838091C4032B
:104270009091C503889730F448E250E05093C5030D
:104280004093C403C50102C0880F991F2A95E2F725
:104290000197F80126812817190671F480913304DB
:1042A00090913404009709F449C00E946D058997E4
:1042B00008F444C0F8014482EF28FFEFCF1ADF0A68
:1042C000095F1F4F29E2C216D10409F093CF8B85F5
:1042D000882309F411C1EE2009F40EC10E9488055B
:1042E00090933404809333048091C803883010F590
:1042F00091E0980F9093C80398E0FE013996DE0193
:10430000119601900D929A95E1F73CE0839FC001D0
:10431000112487539C4F28E0FE013196DC01019067
:104320000D922A95E1F72FEF3FEFFC0131872087AF
:10433000938682866996E2E10C94FC2D809131048B
:1043400060903204982FF0E0E0E0861114C0909362
:1043500031040E171F0709F4AFCF90E0FC01EE0FF8
:10436000FF1FE75DFB4FD182C082019683709927C2
:1043700080933204A1CF282E312CF101EE0FFF1FC4
:10438000E75DFB4F20813181F7E0F29FD001F39F81
:10439000B00D1124A75CBE4F2D913C911197398F20
:1043A000288F712C60E070E0E72FF0E0EE0FFF1F28
:1043B000288D398DE20FF31F259134912115310598
:1043C000E1F0F8010190F081E02DFF8BEE8B60E0D1
:1043D00005C02417350709F47F2C6F5FE62FF0E046
:1043E000EE0FFF1F4E895F89E40FF51F4591549131
:1043F0004115510571F77F5FD7CF7720C9F0F801DC
:10440000671708F0FD014482E017F10721F490934B
:104410003104F72C51CF891305C0EA17FB0711F4BB
:104420009F5F937091012F5F3F4F822F83708DCFDD
:10443000F0E0E0E0F7CF90E0211020C0B50102C02D
:10444000660F771F2A95E2F79B0121503109281743
:10445000390731F4442309F44DC0C6010E94F80520
:10446000C501062C01C0880F0A94EAF7982F909591
:10447000F801868189238683F22C1ECF9C01062CAD
:1044800002C0359527950A94E2F7A9014170552796
:10449000BC016150710986239723892B39F5452B7F
:1044A00029F1F80182819381892BD9F01B821C822A
:1044B0001D821E8259825A820E9488058160582F6F
:1044C0009D838C83F801828193818F8398872981D2
:1044D0003A814B816D817E810E94161FF801158201
:1044E000BFCF60E0C6010E949B13F8CFF22FF1709E
:1044F0002F2EB6CF2F2CB4CF90913104809132045F
:10450000981731F00E94F01FEE2009F441CE12CF2F
:104510000E94861F10923404109233040E942606D3
:10452000F3CF61E0CE0109960E94390C8035FCE79B
:104530009F0709F038CE8B85882309F449CE81E0A6
:104540008093580225CE82E00E94AB0A0ACEAFE0EB
:10455000B0E0EDEAF2E20C94E52D8E010F5F1F4F03
:104560008AE0D8011D928A95E9F787E9C82E82E092
:10457000D82EF12CE12CAA24A394B12C22EA822E6D
:1045800022E0922EF60181916F018F3F09F442C023
:10459000F894E82FE295EF70F0E021A18F70A5016B
:1045A00002C0440F551F8A95E2F7CA01922F982B3B
:1045B00091A392A18095892382A3789400C0ECE90D
:1045C000F2E0712C31E021912F3F09F46BC0A22F52
:1045D000A295AF70B0E090968C9190E02F7002C0E1
:1045E000959587952A95E2F780FD5CC0832F782A00
:1045F000330F8E169F0639F7F601319780818F3F72
:1046000011F00E94970750EA5A95F1F7F801EE0D64
:10461000FF1D70828FEFE81AF80A95E0E916F104A1
:1046200009F0B0CF4AE050E0B8018FE793E00E9474
:10463000BE30009741F02AE0F801AFE7B3E0019007
:104640000D922A95E1F700918A03892B69F181E0A7
:10465000809340030E94880590933F0380933E031C
:1046600080913E0390913F030E946D05059700F1F4
:1046700010E00D561C4F45E050E06FE773E0C801B5
:104680000E94BE30C12C892B51F085E0EFE7F3E0AA
:10469000D80101900D928A95E1F7CC24C394109231
:1046A000400307C080E0A3CF809140038111D8CFA1
:1046B000C12C0E944B0DD82EE0918A03DE011B967F
:1046C0007D01882309F401C185E01D928A95E9F7EF
:1046D0000E2F10E00D561C4F809178038A3008F0A1
:1046E000C0C046E256E2B701C8010E94180D8823F7
:1046F00009F4DAC04DEC55E2B701C8010E94180D6B
:10470000882309F4D1C04FEB54E2B701C8010E94DD
:10471000180D882309F4C8C010927803809189038A
:1047200090E045E050E0B7018D569C4F0E94BE30AE
:1047300021E020935903892B09F0A9C0D12C809145
:10474000470390914803892BC1F140914303509155
:10475000440360914503709146032FB7F89480910C
:104760003C0490913D04A0913E04B0913F042FBFC2
:10477000841B950BA60BB70B813C944DA140B10552
:10478000E0F08091470390914803809590952091A7
:104790008D0330918E03822393230E94940A1092FA
:1047A0004803109247030E947C0560934303709373
:1047B00044038093450390934603409151035091E5
:1047C000520360915303709154032FB7F894809172
:1047D0003C0490913D04A0913E04B0913F042FBF52
:1047E000841B950BA60BB70B8E359140A105B10527
:1047F00070F00E947C056093510370935203809384
:104800005303909354031092500310924F038091DE
:104810004E03882371F080914C0390914D030E94C8
:104820006D058132934028F083EE0E94FD0D1092B9
:104830004E0380914B03882371F08091490390913E
:104840004A030E946D058132934028F080EE0E9459
:10485000FD0D10924B038D2D8C292F96EDE00C94BD
:10486000012E80914103909142030E946D05843F87
:10487000914008F036CF80915903882309F45ECF28
:1048800085E0F70111928A95E9F710925903A091FA
:104890008903B0E0AD56BC4F85E0FE013B96019028
:1048A0000D928A95E1F74BCF809178038F3F31F0DD
:1048B0008F5F809378038A3008F430CF0E94880598
:1048C0009093420380934103D6CFF0E0ED56FC4F26
:1048D00085E0A9E6B3E001900D928A95E1F765E0E5
:1048E00070E089E693E00E94370680936803409168
:1048F000AD0350E06091AC0370E068557C4FC70198
:104900000E94CB308B8580936F0361E070E0C7011C
:104910000E94370680936E0380907003909071031D
:10492000A0907203B0907303809155039091560349
:10493000A0915703B091580388169906AA06BB06A2
:1049400011F4D12C88CF8092550390925603A092F7
:104950005703B09258030E944B0DD82E8111F1CF0E
:104960000E947C05861A970AA80AB90A80927903E0
:1049700090927A03A0927B03B0927C036CCFA4E068
:10498000B0E0E5ECF4E20C94EE2D4091740350910C
:10499000750360917603709177032FB7F894809137
:1049A0003C0490913D04A0913E04B0913F042FBF80
:1049B000841B950BA60BB70B11E084369105A1055E
:1049C000B10590F10E944B0D882399F10E947C055E
:1049D0006E5F7F4F8F4F9F4F69837A838B839C835A
:1049E000809121019091220188599C4F4091200192
:1049F00050E04530510510F044E050E0BE016F5FDB
:104A00007F4F0E94CB3084E090E00E946A2D182FE7
:104A1000882351F00E947C056093740370937503A2
:104A20008093760390937703812F2496E4E00C948F
:104A30000A2E0E947C050091790310917A0320913F
:104A40007B0330917C03600F711F821F931FC0CFC7
:104A50004F925F927F928F929F92AF92BF92CF922E
:104A6000DF92EF92FF920F931F93CF93DF930F92FA
:104A7000CDB7DEB7C62E4A015901482E880F55081A
:104A8000C2010E946A2D782E882309F480C0C201D9
:104A900033E0880F991F3A95E1F7FC01E050FF4F92
:104AA000438150E04115510511F041E050E0805044
:104AB0009F4FFC016481758168597C4FCE0101963E
:104AC0000E94CB30F40140815181628173812FB704
:104AD000F89480913C0490913D04A0913E04B091E3
:104AE0003F042FBF841B950BA60BB70B8436910593
:104AF000A105B10540F4B701C8010E9437069981AC
:104B0000891709F444C00C2C000CDD08C6010E9472
:104B10006A2D782E811113C0712C872D0F90DF9193
:104B2000CF911F910F91FF90EF90DF90CF90BF90AA
:104B3000AF909F908F907F905F904F900895C601A7
:104B400023E0880F991F2A95E1F7FC01E050FF4F01
:104B5000438150E0E416F50608F4A70180509F4F0A
:104B6000FC016481758168597C4FC5010E94CB307E
:104B7000B701C8010E94370699818913CDCF0E94E1
:104B80007C05F4016083718382839383C6CFA70180
:104B9000B801C5010E94CB30C0CFA1E0B0E0E3ED89
:104BA000F5E20C94E92DEE24E394F12C0FE613E0EA
:104BB0009E012F5F3F4F44E653E063E082E00E9496
:104BC0002825C82E882339F100E080E01DC0D09050
:104BD0007E03D00E2D2D30E0A90148555C4F7A019F
:104BE000E1E0F0E0EC0FFD1FE00FF11D1081FA0194
:104BF0009081191BB12E1B149CF0912F17FD90E092
:104C0000191B111118C00F5F90917D030917F8F25D
:104C100081110E949D098C2D2196E9E00C94052EAE
:104C2000BA94F70180818F5F808360E08D2D0E94B0
:104C3000AB0F8C2DE0CF1F5FF70180818150808307
:104C400061E08D2D0E94AB0F8C2DDBCFA5E0B0E095
:104C5000ECE2F6E20C94EA2D6B0185E0E82EF12CF3
:104C600009E613E09E012F5F3F4F40E653E061E00D
:104C700080E00E942825882349F095E0FE013196C6
:104C8000ABE5B3E001900D929A95E1F795E0EBE585
:104C9000F3E0D60101900D929A95E1F72596E8E0B0
:104CA0000C94062E1F920F920FB60F9211242F9381
:104CB0003F934F935F936F937F938F939F93AF93A4
:104CC000BF93CF93DF93EF93FF93D091E900DF7011
:104CD0008091EC00C82FC17080FDC0E81092E900FF
:104CE0008091F000877F8093F00078940E94BD103F
:104CF0001092E9008091F00088608093F000CD2B45
:104D0000CF70C093E900FF91EF91DF91CF91BF91F8
:104D1000AF919F918F917F916F915F914F913F9153
:104D20002F910F900FBE0F901F9018951F920F920A
:104D30000FB60F9211242F933F934F935F936F936E
:104D40007F938F939F93AF93BF93EF93FF93809144
:104D5000E10082FF09C08091E20082FF05C08091DE
:104D6000E1008B7F8093E1008091DA0080FF24C016
:104D70008091D80080FF20C08091DA008E7F8093E0
:104D8000DA008091D90080FF9DC080E189BD82E179
:104D900089BD09B400FEFDCF81E080935D04809160
:104DA0004004811109C00E9410040E94B104809146
:104DB000E20084608093E2008091E10080FF17C0F0
:104DC0008091E20080FF13C08091E2008E7F80938B
:104DD000E2008091E20080618093E2008091D8003F
:104DE00080628093D80019BC85E080935D04809137
:104DF000E10084FF2BC08091E20084FF27C080E1A6
:104E000089BD82E189BD89B5982F917080FFFBCF64
:104E10008091D8008F7D8093D8008091E1008F7EB3
:104E20008093E1008091E2008F7E8093E200809188
:104E3000E20081608093E20080915404882309F4A9
:104E400047C084E080935D0480915D048091E1001F
:104E500083FF27C08091E20083FF23C08091E1009F
:104E6000877F8093E10082E080935D041092540478
:104E70008091E1008E7F8093E1008091E2008E7F3F
:104E80008093E2008091E20080618093E20042E042
:104E900060E080E00E947F048091F0008860809351
:104EA000F000FF91EF91BF91AF919F918F917F9112
:104EB0006F915F914F913F912F910F900FBE0F9087
:104EC0001F90189519BC10925D041092400474CF85
:104ED0008091E30087FD93E090935D04B5CF7894D3
:104EE0001F921FB61F9211248F939F93AF93BF936E
:104EF00080913C0490913D04A0913E04B0913F0408
:104F00000196A11DB11D80933C0490933D04A09394
:104F10003E04B0933F04BF91AF919F918F911F903A
:104F20001FBE1F9018951F921FB61F9211248F93BA
:104F30009F93AF93BF9380913B04811113C08091E5
:104F40003C0490913D04A0913E04B0913F044196F1
:104F5000A11DB11D80933C0490933D04A0933E0499
:104F6000B0933F04BF91AF919F918F911F901FBE4F
:104F70001F901895CDB7DEB760970FB6F894DEBFD7
:104F80000FBECDBF85B7806885BF85B7806885BFF8
:104F900084B7877F84BF0FB6F894A895809160008E
:104FA000886180936000109260000FBE80E890E0FE
:104FB0000FB6F89480936100909361000FBE85E96D
:104FC00097E09093B3028093B2020E9410040E9473
:104FD000B1048091E20084608093E2007894809133
:104FE0005D048823A1F01091E9001F709091EC00FE
:104FF000892F817090FD80E8182B1092E900809134
:10500000E80083FD0E94BD101F701093E90082E04C
:1050100084BD93E095BD9AEF97BD80936E0010928A
:10502000790310927A0310927B0310927C030E9402
:105030004B0D809328010E944B0D81110E947E2C04
:105040009091280181E098279093AC03282F291B89
:1050500020937E03909128018093AD0390912801C5
:1050600080937D0380912801811106C084EF809395
:10507000340185EF8093330182E0809332012091E7
:105080003401E22FE295EF70F0E061A12F7081E032
:1050900090E0AC0101C0440F2A95EAF7342F309517
:1050A000362331A322A1242B22A320913301E22F06
:1050B000E295EF70F0E031A12F7001C0880F2A95C2
:1050C000EAF7982F9095932391A392A1892B82A31D
:1050D0008FE891E00197F1F700C000001091AD0357
:1050E0006EEA73E044E351E083E3E82E81E0F82EBA
:1050F000FB0128C0DA012D91AD01822F82958F70BE
:1051000090E0DC0190968C9190E02F7002C0959514
:1051100087952A95E2F78170D7019D917D01292F0E
:1051200022952F7030E0D90190962C9130E09F703D
:1051300002C0359527959A95E2F790E020FD92E020
:10514000892B81938E2F861B8117A0F280912801D5
:105150008091280195E0811190E090938A0385E089
:10516000891B8093890307E912E06CE9E62E62E06F
:10517000F62EF80181918F018F3F11F00E94970761
:10518000E016F106B1F70CE912E052EAE52E52E022
:10519000F52ED8018D918D018F3F11F00E94970758
:1051A000E016F106B1F78AE0E3E9F3E0DF01282F2A
:1051B0001D922A95E9F7EFE7F3E0DF011D928A954A
:1051C000E9F790E080E00E944D2E873E9E4F09F463
:1051D0005EC067EE7EEF90E080E00E94712E60E09E
:1051E00082E090E00E94532E60E083E090E00E9415
:1051F000532E10928C0310928B0360E074E184E0D4
:1052000090E00E94712E60E086E090E00E94532EB4
:105210006FEF87E090E00E94532E40E050E0BA012B
:1052200088E090E00E94652E60E08DE090E00E94B2
:10523000532E40E050E0BA0188E190E00E94652ED4
:1052400060E087E190E00E94532E40E050E0BA0118
:105250008CE190E00E94652E70E060E080E290E0DA
:105260000E94712E40E050E0BA0188E190E00E9477
:10527000652E40E050E0BA018FE090E00E94652E7C
:1052800040E050E0BA0183E190E00E94652E82E0A8
:1052900090E00E94452E80939D0384E090E00E9460
:1052A0004D2E9093900380938F0383E090E00E94B3
:1052B000452E90E00E94DB0A0E944B0D811102C036
:1052C0000E94812C89E291E0909338048093370406
:1052D00038E1C32ED12C4DE9A42E43E0B42E28EAA8
:1052E000822E23E0922E80915D0400E112E1853050
:1052F00009F47EC00E94A7220EE913E093E9E92E8B
:1053000093E0F92ED701F80191918D918E169F06A9
:1053100009F478C09817C1F30E944B0D282E712C08
:10532000D7016D907D01F80131908F01361429F17C
:105330003624512C44244394832D8421B1F022201F
:10534000A1F05C867D8691E0862D842109F490E0B1
:105350009E870E9488058160782F988B8F874C8567
:105360005D856E8588890E9483205394440CF6E005
:105370005F12E2CFF8013197608273942AE07212D3
:10538000CFCF0E947C055EC080915D04843011F116
:1053900010923B04E0E40FB6F894A895C092600028
:1053A0000FBEE093600083B7817F846083BF83B7C3
:1053B000816083BF7894889583B78E7F83BF0FB653
:1053C000F894A895809160008861809360001092A5
:1053D00060000FBE80914D04882351F00E94A722E7
:1053E000E3E9F3E08191811111C2AE16BF06D1F756
:1053F00080915D04853009F4C7CF0E9496100E9409
:105400006E0D78CF981388CF0E9488058C0180910B
:1054100091039091920308171907A1F08FEF8F83E2
:10542000888719860E9488058160782F9B878A87E4
:105430004F81588569858B850E9483201093920344
:10544000009391030E944B0D8823A9F1809158028B
:10545000882301F180913304909134040097D1F0B6
:105460000E946D052091C4033091C50328173907A8
:1054700088F49091310480913204981709F415C191
:105480000E94F01F1092C5031092C40310923404BE
:10549000109233048091C303882369F00E94880529
:1054A0002091C1033091C203821B930B8F3F9F4712
:1054B00010F40E94DB0D612C512C8091AD03681615
:1054C00008F4FCC051100E949D0986E0EAEBF3E06D
:1054D000DE01119601900D928A95E1F71092BC03BE
:1054E0001092BD031092BE031092BF038B819C816A
:1054F000892B09F44DC08091B8039091B9030E94A3
:105500006D059C019091B103992309F499C129304B
:10551000310508F43DC09F3F19F09F5F9093B103A0
:105520008B81882361F00E9403079B8119160CF47C
:1055300055C19FEF899F802D11248093BC038C81DE
:10554000882361F00E9403079C8119160CF448C15E
:105550009FEF899F802D11248093BD033091BC0360
:105560003323B1F02091BD03222391F045EB3403A6
:10557000C0011124992309F435C19093BC0345EB74
:10558000240390011124332309F430C13093BD0367
:105590008D819E81892B09F45AC08091B603909128
:1055A000B7030E946D051091B403112309F444C19F
:1055B000BC0190E080E00E949A2F2091350130914B
:1055C000360140913701509138010E944C30181635
:1055D0000CF03DC01F3F19F01F5F1093B4038D8185
:1055E000882361F00E9474069D8119160CF402C193
:1055F0009FEF899F802D11248093BE038E81882385
:1056000061F00E9474069E8119160CF4F5C09FEF9C
:10561000899F802D11248093BF033091BE033323D3
:10562000B1F02091BF03222391F045EB3403C00178
:105630001124992309F4E2C09093BE0345EB24039F
:1056400090011124332309F4DDC03093BF0346E0F9
:1056500050E0BE016F5F7F4F8AEB93E00E94BE3047
:10566000892B61F48091BC039091BD03892B9091AB
:10567000BE03892B9091BF03892B11F00E944D0628
:1056800086E0FE013196AAEBB3E001900D928A9577
:10569000E1F70E946E0D9091B003891709F423CEB3
:1056A0008093B0030E947C051ACE0E94861F109240
:1056B0003404109233040E942606ECCE062D10E02E
:1056C000F801EC5CFE4F8081E82FE295EF70F0E08E
:1056D000E0A1F0E08F7002C0F595E7958A95E2F7BA
:1056E000E170D801AD5CBE4F2C91A22FA295AF7096
:1056F000B0E090968C9190E02F7002C095958795C0
:105700002A95E2F780FD62C080E08E2BD801A25579
:10571000BC4FEC919E2F9370891709F455C0EE0F82
:10572000EE0FE82BEC93D801AF5CBE4FEC9070907D
:10573000AC03760CEF70F0E0EE55FD4F06551C4FB4
:105740008081D8019C91890F8C93F12C082E000C3C
:10575000990B412C8E159F0584F0E72DF0E0E8555C
:10576000FC4F80818F5F80830E944B0D482E8823E1
:1057700079F160E0872D0E94AB0FF8018081082E3F
:10578000000C990B222733272E193F0928173907B8
:1057900084F0E72DF0E0E855FC4F80818150808354
:1057A0000E944B0D482E8823B1F061E0872D0E94A6
:1057B000AB0FD8018C91082E000C990BB7010E94F9
:1057C0002B2EF80180835428639477CE82E09DCFFE
:1057D00044244394D2CF44244394EBCF91E0AACE07
:1057E00091E0B7CE81E08093BC03C9CE81E0809385
:1057F000BD03CECE91E0FDCE91E00ACF81E0809353
:10580000BE031CCF81E08093BF0321CF09BD19BD2A
:1058100009B400FEFDCF8091D8008F7D8093D80021
:105820008091E00082608093E0008091E00081FD43
:10583000FCCF0E949610DCCD0B9708F0CDCE07CFA1
:10584000232B09F06ACEA4CE8EE14A9B02C0815080
:10585000E1F74A9BFECF08955A9880E28A95F1F7C6
:105860005A9A0895FC013BE03A95F1F798E020E060
:1058700080E031E040E14A95F1F7880F4A9B02C091
:105880008160232742E04A95F1F7000040E14A9504
:10589000F1F7915079F790E19A95F1F799B132E0EB
:1058A0003A95F1F7000040E14A95F1F792FB99270C
:1058B00090F992272081920F90830895A1E0B0E0A3
:1058C000E4E6FCE20C94EC2D19828C017C01E60EDE
:1058D000F11C0E151F0541F481E09981911180E0C2
:1058E0002196E6E00C94082E0E94242CCE0101960D
:1058F0000E94322CF80181938F01EBCF529A5A9A71
:10590000089552985A9AEA9AE9E6F0E080818F7CED
:10591000808308956150770B91E001C0990F6A95DB
:10592000EAF720E031E0911108C0222391F05A9A61
:1059300080E28A95F1F75A980895492F482339F063
:105940005A9A232740E24A95F1F79695ECCF5A9858
:10595000F9CF5A98EDCFFF920F931F93CF93DF9318
:10596000EC018C01060F111DC017D10729F4CDB72A
:10597000DEB7E5E00C94092EF9900E942C2C68E02B
:105980008F2D0E948A2CF0CF1F920F920FB60F928C
:1059900011240F931F932F933F934F935F936F9314
:1059A0007F938F939F93AF93BF93EF93FF93CF9387
:1059B000DF930F92CDB7DEB719820E94242CCE015F
:1059C00001960E94322C082F069506950695282FE1
:1059D00022952570902F9570290F922F9370269500
:1059E0002695920F982797708981982B09F05CC0B3
:1059F000063008F059C080E18A95F1F75A9A529A18
:105A000082E08A95F1F700C05A9888E0089F8001EB
:105A10001124D801A050BF4F1696ED91FC91179715
:105A20003097A9F0609195027091960214962D918D
:105A30003C911597260F371F11968D919C911297C7
:105A4000680F791F13964C9113978C910995F80163
:105A5000E050FF4F6381662351F020919502309111
:105A6000960284819581820F931F0E94AB2C0E9425
:105A70002C2C80E18A95F1F75A9852985A9A80E135
:105A80008A95F1F7F801E050FF4F6081662351F0ED
:105A9000209195023091960281819281820F931F0D
:105AA0000E945E2C0E94242C0F90DF91CF91FF91D9
:105AB000EF91BF91AF919F918F917F916F915F9186
:105AC0004F913F912F911F910F910F900FBE0F900B
:105AD0001F9018950F931F93CF93DF93EC010697B8
