:100000000C94F4030C9411040C9411040C94DD2C46
:100010000C9411040C9411040C9411040C9411040C
:100020000C9411040C9411040C94AF260C946B26C0
:100030000C94AC270C9411040C9411040C9411042E
:100040000C9411040C9411040C9411040C941104DC
:100050000C9411040C9488270C9411040C94110432
:100060000C9411040C9411040C9411040C941104BC
:100070000C9411040C9411040C9411040C941104AC
:100080000C9411040C9411040C9411040C9411049C
:100090000C9411040C9411040C9411040C9411048C
:1000A0000C9411040C9411040C941104E1003132ED
:1000B0000000240025002600000026002700000084
:1000C0002400250000002500260000001E001F005F
:1000D00000000F0018001C0000002A0034313132EB
:1000E0000000400041004200430000002C4228284C
:1000F00000000B003600000017000A000000080096
:100100000C00000018001C00000036003700000042
:100110001200343100003824313200003700382416
:1001200000001D24070000001B00190000001B0038
:10013000070000000600070000001B00060000008A
:100140001D241B0000000900130000001A00090014
:1001500000000A00370000001600370000000C0005
:10016000370000000900370000001B0037000000C6
:100170001500370000001A00370000001400370097
:1001800000000700370000001700370000001300D0
:100190003700000004443700000008000D00000094
:1001A00013000D00000005000D0000000E000B0004
:1001B00000001000110000000D000F0000002200E0
:1001C00027003C5441473E3C2F5441473E003C6988
:1001D0006D67207372633D22696D6167655F736F40
:1001E000757263655F6F725F6C696E6B5F676F6579
:1001F000735F686572652220616C743D226E616D6B
:10020000655F69665F63616E745F6C6F6164222015
:1002100077696474683D226E756D5F706978656C8E
:100220007322206865696768743D226E756D5F7022
:100230006978656C73223E003C6120687265663D9A
:10024000226C696E6B5F676F65735F6865726522AC
:100250003E6E616D655F6F665F6C696E6B5F676F49
:1002600065735F686572653C2F613E003C666F6F29
:100270007465723E3C2F666F6F7465723E003C621F
:100280006F64793E3C2F626F64793E003C68656123
:10029000643E3C2F686561643E003C68746D6C2070
:1002A0006C616E673D22656E223E3C2F68746D6CFA
:1002B0003E003C7374796C653E3C2F7374796C65B9
:1002C0003E003C7469746C653E3C2F7469746C65C7
:1002D0003E003C703E3C2F703E003C6469763E3CE4
:1002E0002F6469763E002829203D3E207B7D003129
:1002F00031312048696768766965772047617465A0
:100300002053450061726963626F7577657273404F
:100310006F75746C6F6F6B2E636F6D0061726963C4
:10032000626F75776572734069636C6F75642E6375
:100330006F6D00617269634068656C697869726CA1
:100340006162732E636F6D006172696340636F6CED
:100350006C656769756D6275696C742E636F6D008D
:1003600061726963406172696363622E64657600DD
:100370002829203D3E2000636F6E737420796F75CD
:100380007246756E635661726961626C65203D20CC
:1003900028782C7929203D3E2078202B20792E6D3D
:1003A0006574686F643B005B5D007B7D00282900FD
:1003B0003C3E0032001E001F0020002100220029C8
:1003C0002F14001A000900130005002B2504441502
:1003D00000160017000A00E1001D241B000600079C
:1003E0000019000000C32428282C427321100D613D
:1003F00052270026002500240023002A0033001C79
:100400000018000F000D00343112000C000800111C
:1004100000100031323824370036000B000E000087
:1004200000AE004C432C420D7E352432001E001FCE
:1004300000200021002200292F14001A00080015B6
:100440000017002B2504441600070009000A00E1EC
:10045000001D241B000600190005000000C324280D
:10046000282C427321100D615227002600250024FC
:100470000023002A00130012000C0018001C003496
:100480003133000F000E000D000B003132382437DD
:10049000003600100011000000AE004C432C420D4D
:1004A0007E352432001E001F00200021002200356E
:1004B000001E02360237022E0023022B0220022FDA
:1004C00000260227023000E1001F0221022F023025
:1004D00002220200000100010001000100140511C8
:1004E0007E270026002500240023002A0033022650
:1004F0000025002400250257005600230022002179
:100500000024023102540020001F001E00310200AE
:1005100000AB00370027002C0035021C701E001FA6
:1005200000200021002200010001000100CD000197
:1005300000010001000100CF00CE00D00001000149
:10054000000100010001000100010000000100287D
:1005500008010001002708117E270026002500243D
:100560000023002A000100D200D300D100A80030EF
:10057000082F080100097E087EA9001B7001000CED
:100580007E0A7E0B7EAA00000027080100D300D15E
:1005900000010001003A003B003C003D003E00012C
:1005A0000001004200430044004500390001003EC4
:1005B000243F2240284121010001003A003B003C39
:1005C000003D0000000100010001000100010001E8
:1005D0000047004F08520C50084B012A0053004DB1
:1005E0000052004A004E01107E0F7E4F0051005015
:1005F000000E7E49004F084E00510C4B000D7E004E
:1006000000117E010001000D7E1A0505010906A1F9
:10061000018501050719E029E715002501950875F1
:100620000181029501750881010507190029FF154F
:100630000026FF00950675088100050819012905A7
:10064000950575019102950175039101C005010998
:1006500002A10185020901A1000509190129081556
:100660000025019508750181020501093009311540
:1006700081257F95027508810609381581257F95AA
:100680000175088106050C0A38021581257F950140
:1006900075088106C0C005010980A1018503190103
:1006A0002AB700150126B700950175108100C00515
:1006B0000C0901A101850419012AA002150126A037
:1006C00002950175108100C009022200010100A0FD
:1006D000FA090400000103010100092111010001D0
:1006E00022BD000705810320000112010002000065
:1006F0000008134022201300010200010E034C00E9
:10070000650065006C006F006F0000002603430069
:100710006C00690063006B006500740079002000C4
:10072000530070006C006900740020004C007400DD
:100730006400000004030904000000000000000041
:1007400000000000000000000000000000000000A9
:100750000000000000000000000000007E0F00D438
:10076000FFFFFFC70000007800000000000000004D
:100770002A2B2800000000000000000000000000FC
:1007800000000029000000002C1E34202122243407
:100790002627252E362D3738271E1F2021222324D9
:1007A00025263333362E37381F0405060708090A75
:1007B0000B0C0D0E0F101112131415161718191A11
:1007C0001B1C1D2F3130232D350405060708090A8F
:1007D0000B0C0D0E0F101112131415161718191AF1
:1007E0001B1C1D2F3130354C11241FBECFEFDAE01A
:1007F000DEBFCDBF12E0A0E0B1E0E6EAF2E602C063
:1008000005900D92A83CB107D9F724E0A8ECB2E01E
:1008100001C01D92A437B207E1F70E94D3270C94C0
:10082000ED300C940000E8EDF0E080818E7F808355
:100830001092E2001092DA001092E100A0EEB0E017
:100840008C9181608C9380818F77808319BCA7ED18
:10085000B0E08C918E7F8C9380818F7E808310920C
:10086000560408952091E4003091E50095E6A90131
:100870002091EC00822F817020FF06C08091E8005B
:1008800080FF06C080E008952091E80022FD1AC094
:1008900080917304882389F0853089F08091EB0082
:1008A00085FD0FC02091E4003091E5004217530709
:1008B000F9F29150E1F684E0089582E0089583E032
:1008C000089581E0089580916B0487FF13C08091A3
:1008D000E80082FF06C08091E8008B778093E800F3
:1008E00004C0809173048111F2CF08958091730444
:1008F0008823D9F38091E80080FFF8CF8091E80049
:100900008E77ECCF982F9093E900242F762F50E02C
:10091000891731F07091EC002091ED005091F000BA
:1009200021FD07C09F5F973071F78093E90081E058
:1009300008953091EB003E7F3093EB003091ED0055
:100940003D7F3093ED003091EB0031603093EB0050
:100950007093EC002093ED005093F0002091EE0096
:1009600027FDE0CF80E00895B0E0A0E0EAEBF4E0FE
:100970000C94032EC8EDD0E088818F7E8883E7ED4C
:10098000F0E080818160808384E082BF81E0809399
:10099000560488818E7F888302EE10E0F801108271
:1009A0001092DA0081EEC82ED12CF60110828881D7
:1009B0008F77888388818068888388818F7D88830A
:1009C00019BC1092730410926A041092630410927E
:1009D000620490EEE92EF12CF70180818B7F8083F9
:1009E00088818160888342E060E080E00E94820428
:1009F000F60180818E7F8083F80180818160808311
:100A0000808188608083F70180818E7F80838881E8
:100A100080618883CDB7DEB7E8E00C941F2EFC011F
:100A2000809171049091720486179707A0F0611568
:100A3000710529F49091E8009E779093E80090E08A
:100A40006115710551F4911108C08091E80082FF91
:100A500034C080E00895BC01F2CF809173048823F4
:100A6000C1F18530C1F18091E80083FD30C08091F3
:100A7000E80082FDEACF8091E80080FFE1CF80911D
:100A8000F3002091F200382F6115710519F028301C
:100A9000310558F091E02830310509F090E02091BF
:100AA000E8002E772093E800CBCF81918093F1006E
:100AB000615071092F5F3F4FE7CF80917304882306
:100AC00041F0853041F08091E80083FFBECF81E0A6
:100AD000089582E0089583E0089580915804089570
:100AE0009C014FB7F8948091520490915304A091C7
:100AF0005404B09155044FBF821B930B08952FB738
:100B0000F894609152047091530480915404909130
:100B100055042FBF08952FB7F894809152049091F7
:100B20005304A0915404B09155042FBF08959C0123
:100B3000FC0133969FEF80E04191461751F09F3FB3
:100B400019F4411101C0982F8F5F8630A9F79F3F9C
:100B500009F40895290F311D97FD3A95F901638332
:100B60000895A3E0B0E0E7EBF5E00C94092E2091A6
:100B70004F043091500428173907A1F09093500486
:100B800080934F04E0914D04F0914E04309751F062
:100B900024E029839B838A830680F781E02DCE01A0
:100BA000019609952396E2E00C94252EA3E0B0E08F
:100BB000ECEDF5E00C94092E20914B0430914C049F
:100BC00028173907A1F090934C0480934B04E091CF
:100BD0004D04F0914E04309751F023E029839B831C
:100BE0008A830680F781E02DCE0101960995239630
:100BF000E2E00C94252EDC016091470480914804CA
:100C0000962F891301C00895292F30E0F901EE0FC6
:100C1000FF1FE15CFB4F408151814A175B07A1F444
:100C200087E08A9FA0018B9F500D1124475C5E4F87
:100C300081E0FA0184839613E6CF2F5F3F4F237044
:100C400033272093470408952F5F3F4F922F9370CF
:100C5000D8CF1092DB031092DA03E9E3F1E085814B
:100C6000811102C014821682379682E0ED36F807B1
:100C7000B1F70895FC01680F791F8FEF91E321917F
:100C8000822728E030E087FF09C0880F892721509C
:100C90003109C9F7E617F70791F70895880FF7CFDD
:100CA0000E948B059C019091D2038091D303982BD5
:100CB00021F03093CF032093CE039091D403809101
:100CC000D503982B21F03093CD032093CC03E091F2
:100CD0004D04F0914E04309749F082E08093D003A8
:100CE0000480F581E02D80ED93E0099508958F92C1
:100CF0009F92AF92BF92CF92DF92EF92FF9280913C
:100D0000CB03982F957071F0C12CD12C20E4E22EEA
:100D100022E4F22E82FD52C0C12CD12CE12C91E4B0
:100D2000F92E4CC08091CA038823B1F3E090C80328
:100D3000F090C903E114F10479F320E030E048ECCD
:100D400051E46091350170913601809137019091A5
:100D500038010E940D2F8823F9F2C7010E94700507
:100D600062E370E00E94302E90E080E00E94B32F9A
:100D70006B017C0120E030E040E05FE30E946A30DC
:100D8000A70196010E946A304B015C0120E030E02F
:100D900040E051E4C701B6010E94A12E9B01AC01C5
:100DA000C501B4010E94A12E6B017C0120E030E05E
:100DB00048EC51E40E94653018160CF1A701960129
:100DC00060E070E08AE794E40E94122F609335019E
:100DD000709336018093370190933801C701B601B3
:100DE0000E94842F81E0693008F082E0FF90EF904C
:100DF000DF90CF90BF90AF909F908F900895C12CBF
:100E0000D12C88ECE82E81E4F82ED8CF8F929F92D7
:100E1000AF92BF92CF92DF92EF92FF928091CB037D
:100E2000982F957081F0C12CD12C38ECE32E33E44F
:100E3000F32E82FF4AC0C12C20E8D22E2BE3E22EF3
:100E400025E4F22E42C08091C703882309F45DC0D7
:100E50008091C8039091C903009709F456C00E947D
:100E6000700562E370E00E94302E90E080E00E9406
:100E7000B32F6B017C0120E030E040E851E40E9498
:100E80006A3020E030E048EC52E40E94A12E4B0191
:100E90005C0120E030E040E051E4C701B6010E946F
:100EA0006A30A70196010E946A309B01AC01C5011E
:100EB000B4010E94A12E6B017C0120E030E046E9E4
:100EC00054E40E94653018163CF120E030E04AEF0F
:100ED00052E4C701B6010E94122F0E94842F66239C
:100EE00011F18FE767FD08C070E090E080E00E949C
:100EF000B32F0E94842F862FFF90EF90DF90CF902A
:100F0000BF90AF909F908F900895C12CD12C98ECFA
:100F1000E92E92E4F92ED9CFC12CD12C86E9E82E06
:100F200084E4F82ED2CF60E070E080E89FE3E1CF68
:100F300080E00895F894E82FE295EF70F0E031A199
:100F4000282F2F7081E090E001C0880F2A95EAF7E2
:100F5000982F9095932391A392A1892B82A37894A3
:100F600008959091A50392FF06C0282F287128307C
:100F7000F9F4877F846093FF06C0282F28712831F9
:100F8000F1F4877E84612091A60320FF06C0382FEC
:100F900038713830D9F4877F816021FF06C0282F4F
:100FA00028712831D1F4877E816194FD877E089570
:100FB000282F24712430F9F68B7F8860DCCF282F0E
:100FC0002471243101F78B7E8861DDCF382F317198
:100FD000313019F78E7F8860E0CF282F21712131C1
:100FE00021F78E7E8861E1CF972F7A30B8F4663092
:100FF000A8F4853098F470E026E0929F600D711D92
:101000001124FB019CE3899FE00DF11D1124EE0FDB
:10101000FF1FED54FC4F85919491089580E090E07E
:101020000895CF93DF93EC0182389105B9F108F070
:1010300041C08133910509F49FC050F58932910573
:1010400009F48FC08A9709F49EC0C11520E5D20724
:1010500008F0BDC0C11530E4D30708F00AC1C03E96
:10106000D10508F0A5C0CD3CD10508F000C1C83AB3
:10107000D10508F08FC0C53AD10508F0F0C0C130E5
:10108000D10539F1209729F1C430D10510F546C0BA
:101090008533910509F460C0C997B9F68091A5031D
:1010A000837009F044C18091A60383FF12C0C9E296
:1010B000D0E00FC0833E9105A1F178F4803E910508
:1010C00009F1823E910509F0C0CF8091A50382FD10
:1010D00021C0CE01DF91CF910895863E910561F147
:1010E000873E910571F1843E910509F0AECF809164
:1010F000A60381FFEECF8091A503C7EED0E084FD6B
:101100000DC0E7CF8091A50380FD33C09091A60369
:1011100090FFDFCFC3EED0E084FFDBCFD0E0C0E0B4
:10112000D8CF8091A50382FDFFC09091A60390FDCA
:10113000FEC084FFCECFF2CF8091A50383FDDDCF2B
:10114000C8CF8091A50383FDF5C09091A60391FFC0
:10115000F0CFC4EED0E0BDCF8091A50385FFB9CF1D
:10116000A6CF8091A50385FDE8C08091A60383FFEB
:10117000B0CFC9E3D0E0ADCF8091A50386FFA9CF62
:10118000CAE2D0E0A6CF8091A50386FFA2CFC1E33B
:10119000D0E09FCFC43CD10508F6C85AD0E0CC0FB0
:1011A000DD1FCE58DD4F0990D881C02DD46491CF7A
:1011B000C11540E2D40708F0AAC0C11581E0D807E4
:1011C00008F087CFC83ED10508F483CFA7CFC0363B
:1011D00022E5D20718F5C03432E5D30708F053C032
:1011E000C03242E5D40708F047C0C11582E5D807F0
:1011F00008F47FC02C2F2695269540E2249F90016D
:1012000011248C2F8370C1E0D0E002C0CC0FDD1F11
:101210008A95E2F7C22BD32BDD685BCFC03A22E57B
:10122000D20760F4C03832E5D30708F441C0CF716B
:10123000D0E0DC2FCC27C46FD06A4BCFC03C42E556
:10124000D40708F44AC0C03E82E5D80708F066CF4C
:10125000DC2FCC27CC27DF71C06FD06A3ACFC55ABC
:10126000D0E0C159DD4FC881D0E0D06432CFD06525
:1012700030CFDF70D06A2DCFCF71D0E0DC2FCC27FC
:10128000C16FD06A26CF2C2F26952695277080E235
:10129000289F900111248C2F8370C1E0D0E002C000
:1012A000CC0FDD1F8A95E2F7C22BD32BDC6811CF60
:1012B0002C2F26952695277040E2249F900111241B
:1012C0008C2F8370C1E0D0E002C0CC0FDD1F8A9567
:1012D000E2F7C22BD32BDA68FCCE8C2F8F710E94E1
:1012E000B107C82FD0E0DC2FCC27CC27DF71D0622C
:1012F000F0CE8C2F8F710E94B10735E0D695C7953F
:101300003A95E1F7CF709C2FEC01D069E2CE8D2F9A
:101310008F710E94B10790E0982F882788279F71CE
:101320009C012C2BE901E3CFC2EED0E0D2CEC0EE7F
:10133000D0E0CFCEC6EED0E0CCCEC5E3D0E0C9CE73
:101340000E947F05089580915303882331F0109205
:101350005303109252031092510308958091D903C0
:1013600081110FC01092D6030E94A3090E948B0521
:1013700088579C4E9093D8038093D70381E0809345
:10138000D9030895CF93C82F8091A60382FF0CC084
:10139000809153038C1741F00E948B059093520368
:1013A00080935103C0935303CF9108959091DC0330
:1013B000892B8093DC03089580959091D603982320
:1013C0009093D6030895809144039091030398135A
:1013D00001C008958F5F8770FACFB0E0A0E0E3EF1F
:1013E000F9E00C94022E7C010091A3031091A40358
:1013F0008091A1039091A203082B192BCFE0D0E09C
:10140000CC24C394D12CBC2EC6010C2E02C0880F54
:10141000991F0A94E2F780239123892B49F421979D
:1014200090F7B12C8B2DCDB7DEB7E9E00C941E2ED2
:10143000B7018C2F0E94F4070E941108019779F3DD
:10144000F1CFCF93DF93EC010E94ED09BE010E9422
:10145000F4070E941108DF91CF9108959A3078F532
:10146000863068F5E82FF0E086E0989FE00DF11DEA
:1014700011249E2F977083E0F695E7958A95E1F702
:10148000EE0FFF1FEE0FFF1FE552FD4F50E040E053
:1014900080E0219130E0092E02C0369527950A940C
:1014A000E2F721703327042E01C0220F0A94EAF7D5
:1014B000822B4F5F5F4F4430510559F7089580E00C
:1014C00008959A3098F5863088F5E82FF0E086E0A8
:1014D000989FE00DF11D11248E2F877041E001C00F
:1014E000440F8A95EAF783E0F695E7958A95E1F748
:1014F000EE0FFF1FEE0FFF1FE552FD4F30E020E023
:1015000070E05191DF011197CB01022E02C0969538
:1015100087950A94E2F78170819585278423852732
:101520008C932F5F3F4F2430310559F708959093E6
:10153000A4038093A303089521E030E002C0220FAA
:10154000331F8A95E2F7209530958091A3039091FF
:10155000A403822393230E94970A0895909147033E
:101560008095892380934703282F2770B1F4282F73
:10157000082E000C330B9217130679F09091A603F6
:1015800092FF0BC08595859585950E949C0A1092C7
:1015900047031092460310924503089521E030E07E
:1015A00002C0220F331F8A95E2F78091A303909126
:1015B000A403822B932B0E94970A08959093A20371
:1015C0008093A1030895FC0183819481892B29F0E4
:1015D0008081918189238F3FF1F480E008950E94FA
:1015E000110892959F70963089F058F4925F9F7021
:1015F000923098F7803F19F030F4883E70F781E020
:1016000008959A5FF4CF843F41F7F9CF883EB8F34D
:10161000813F19F7F4CF86819781009701F7808188
:1016200091810E94210ADDCFCF93DF93C82F6623DB
:1016300009F469C08091C8039091C903892B31F4E2
:101640000E948B059093C9038093C803CD3C51F44D
:101650000E94060781958093D3030E945006DF9174
:10166000CF910895CE3C19F40E940607F4CFCF3CE9
:1016700031F40E94060781958093D203EECFC03DDE
:1016800019F40E940607F8CFC93D29F40E94770695
:101690008093D403E2CFCA3D21F40E94770681955E
:1016A000F7CFCB3D31F40E94770681958093D50327
:1016B000D4CFCC3D19F40E947706F8CF8FE28C0F7F
:1016C000883070F4C15DDD0B21E030E001C0220FF5
:1016D000CA95EAF78091D103822B8093D103BDCFC5
:1016E0008091CB038160CD3D59F08091CB03826026
:1016F000CE3D31F0CF3D09F0B0CF8091CB03846077
:101700008093CB03AACF4091D2038D3C79F4809192
:10171000D30387FF11C01092D30341110FC0109261
:10172000C7031092C9031092C80308C08E3C81F40D
:101730008091D30318167CF3442381F08091D40365
:101740009091D503892B09F088CF1092CA0385CFD9
:101750008F3C49F447FFF0CF1092D2038091D3031E
:101760008111ECCFDCCF803D19F41416ACF3E4CF3B
:101770008091D403C93D29F41816F4F61092D403CD
:10178000DBCFCA3D19F487FFD7CFF8CF8091D503BF
:10179000CB3D29F487FFD0CF1092D503CDCFCC3DE0
:1017A00019F41816CCF3C8CF8FE28C0F883078F478
:1017B000C15DDD0B81E090E001C0880FCA95EAF7BA
:1017C00080959091D10389238093D103B5CF8091E7
:1017D000CB038E7FCD3D59F08091CB038D7FCE3DE5
:1017E00031F0CF3D09F0A8CF8091CB038B7F809360
:1017F000CB03A2CFA5E0B0E0E0E0FCE00C94082E23
:101800009C01FC01868197810097E1F485E0DE016F
:10181000119601900D928A95E1F7F9012281898153
:101820009A81222399F0662389F00E94ED09182FEE
:10183000682F89819A810E94610A69817A81812F4A
:101840000E94F4072596E3E00C94242E0E942E0AB1
:10185000182FF3CF9C019A9581159F4150F4832F47
:10186000817031FD826032FD846033FF03C0886087
:10187000089580E008950F931F93CF93DF9301E0C5
:1018800010E0082E02C0000F111F0A94E2F7C09169
:101890005D03D0915E039E0120233123232B21F58C
:1018A00090914703959595959595891306C010924B
:1018B000470310924603109245030E94CE0A0E94ED
:1018C0007F056093590370935A0380935B03909351
:1018D0005C03C027D127D0935E03C0935D03DF91E3
:1018E000CF911F910F9108950E949C0AF2CF0F9300
:1018F0001F93CF93DF938C01EB01809173048430AD
:1019000069F581E08093E9008FEF9091E8008150C4
:1019100095FD06C095ED9A95F1F700008111F5CF80
:101920008091E80085FF1AC00E943204811111C025
:101930008091E80085FD06C08091E8008E77809355
:10194000E800F2CFF80181918F018093F100219797
:1019500079F78091E8008E778093E800DF91CF914E
:101960001F910F91089563E070E00E94770C089535
:1019700066E070E00E94770C0895CF93DF93EC014E
:1019800080916E02811111C068E070E0CE01019675
:101990000E94770C89E0FE01A9E5B4E001900D9268
:1019A0008A95E1F7DF91CF91089569E070E0CE016B
:1019B000EFCFB0E0A0E0EFEDFCE00C94012E7C0155
:1019C0005B016A0180918E0301E010E08A3010F41F
:1019D0000AE010E0C1E0D0E0B501C701F6010995C9
:1019E000811104C021960C171D072CF4CDB7DEB76A
:1019F000EAE00C941D2ECC9F9001CD9F300D300D50
:101A0000112490E080E045E34A95F1F7000001964B
:101A100082179307C1F7E0CF80917003811110C046
:101A20008091D80080618093D8008AE18A95F1F78F
:101A300000C08091D90080FF0AC081E080937003CC
:101A400081E090917003913009F080E0089582E088
:101A5000809370030E94130410927304F1CF0E94CC
:101A60000C0D882359F0E0914D04F0914E0430970D
:101A700029F00190F081E02D0995089580E0089506
:101A80008091D6039091DC03892B8093CB028091C7
:101A90005303882319F10E948B0520915103309143
:101AA0005203821B930B883E934010F00E94A309BF
:101AB0008091CB0290915303892B8093CB0220E03D
:101AC0008DEC92E0FC013191CF0131112F5FF2E0FA
:101AD000833D9F07B9F721110E94A30949E050E017
:101AE00068E473E08AEC92E00E94D730892BC1F061
:101AF00089E0EAECF2E0A8E4B3E001900D928A9567
:101B0000E1F7E0914D04F0914E04309749F081E007
:101B10008093CA020280F381E02D8AEC92E009955D
:101B20000895882341F080959091DC038923809368
:101B3000DC030E94400D08958091D903882329F089
:101B400082E20E94910D1092D9030895882321F01A
:101B50000E94D6090E94400D0895882321F00E941A
:101B6000DC090E94400D0895882339F09091D60336
:101B7000982B9093D6030E94400D08958823D1F1AD
:101B80009CEF980F913A78F4EDECF2E09191891383
:101B900003C0DF0111971C9292E0E33DF907B1F712
:101BA0000E94400D089590E2980F983050F487708D
:101BB00091E001C0990F8A95EAF7892F0E94DC090C
:101BC000EFCF9BE5980F933028F490E080E00E94DF
:101BD000D605089598E5980F993128F490E080E0B3
:101BE0000E94B105089593E3980F933118F460E0D3
:101BF0000E94140B0895CF93DF93EC010E94BE0D59
:101C0000CE010E942A0CC05ED109289728F40E94B8
:101C1000AD0DDF91CF9108950E94910DFACFCF9332
:101C2000C82F8823A9F08CEF8C0F813A00F5EDECDA
:101C3000F2E0DF018D91C81769F082E0A33DB8079B
:101C4000C9F76C2F8AEC92E00E9497050E94400D24
:101C5000CF9108958191C81303C0DF0111971C92A1
:101C600082E0E33DF807B1F70E94400DEACF80E241
:101C70008C0F883068F4C77021E030E001C0220F7B
:101C8000CA95EAF78091D603822B8093D603DECFE4
:101C9000EBE5EC0FE33040F4F0E0E159FD4F8081DB
:101CA00090E00E94D605D4CFE8E5EC0FE93150F47E
:101CB000F0E0EE0FFF1FEE58FD4F808191810E94F2
:101CC000B105C6CF83E38C0F833110F661E08C2F12
:101CD0000E94140BBDCF1F93CF93DF93182FEB01FE
:101CE0000E940F0E209739F4812F0E94BE0DDF91C4
:101CF000CF911F9108958FE99FE00197F1F700C000
:101D000000002197EFCF70E060E0893311F460E5C7
:101D100070E00E946B0E0895B0E0A0E0E2E9FEE002
:101D20000C94012EEC018AE0A82EFE0124912223BE
:101D300009F497C0213009F03EC03196849181307A
:101D400031F42296FE0184910E94830E07C08230F6
:101D500039F42296FE0184910E940F0E2196E5CF60
:101D6000833031F42296FE0184910E94BE0DF6CF9D
:101D7000843009F074C02296FE01249190E080E046
:101D8000FE0131962053330B2A30310548F001977C
:101D900028F3EFE9FFE03197F1F700C00000F7CF3B
:101DA000A89EA001A99E500D1124C901840F951F62
:101DB0002491EF01E5CFE22FF0E0E859F84FB4901D
:101DC000822F86958695869590E0FC01E85AF84F1B
:101DD000E4902770F12C022E02C0F594E7940A9447
:101DE000E2F731E0E322FF24FC01E85BF84FC49006
:101DF000D12C022E02C0D594C7940A94E2F7E1E0F8
:101E0000CE22DD24FC01E85CF84F049110E002C012
:101E1000159507952A95E2F701701127E114F10451
:101E200019F081EE0E940F0EC114D10419F086EE54
:101E30000E940F0E8B2D0E94830EC114D10419F045
:101E400086EE0E94BE0DE114F10419F081EE0E94AD
:101E5000BE0D0115110509F481CF8CE275CFEF019C
:101E60007DCFCDB7DEB7EAE00C941D2ECF93DF9384
:101E7000EC010E942A0C9E01205E310928303105B8
:101E800040F40E94B40D8C2F0E940F0EDF91CF9171
:101E900008950E94A60DF7CF0F931F93CF93DF9362
:101EA0008C01D0E0C0E0C99711F4C0E5D0E0C801D2
:101EB0000E94360F209741F4C8010E94FB0DDF916C
:101EC000CF911F910F9108958FE99FE00197F1F74E
:101ED00000C000002197EECFCF93DF93D82FC62FFD
:101EE0000E948B052091D3023091D402821B930B68
:101EF000C29708F46AC00E948B059093D402809325
:101F0000D3028091A3039091A403B0E0A0E0492FF5
:101F10005A2F6B2F772720E0411551056105710578
:101F200019F0DB01CA0128E0AC01BD01F4E07695AF
:101F3000679557954795FA95D1F741155105610574
:101F4000710519F02C5FDB01CA01AC01BD01E2E0B3
:101F50007695679557954795EA95D1F741155105BF
:101F60006105710519F02E5FDB01CA01B695A795D1
:101F700097958795892B8A2B8B2B09F02F5F233020
:101F800009F44EC02430C1F1223009F054C0D111FF
:101F90002AC0D091D6038D2F8272D9F08D2F0E9446
:101FA000AD0D2FEF81EE94E0215080409040E1F79D
:101FB00000C0000086E395E0C11102C087E395E010
:101FC0000E944C0F8D2F0E94B40D80E0DF91CF91C5
:101FD00008958D2F0E94AD0D8EEBC11101C08DEBC8
:101FE0000E94830EEFCFD13081F78DE198E0CC23B2
:101FF00059F08DE19AE008C0D11109C080E59BE05D
:10200000CC2311F08FE49BE00E944C0FDECFD13047
:10201000E1F68BED90E0CC23B9F38CED90E0F4CFBA
:10202000DD2319F3D13089F686E598E0CC2361F3FE
:1020300087E598E0E9CFD11107C080E597E0C111AD
:10204000E3CF8FE497E0E0CFD13009F0BECF8AEA4A
:1020500090E0CC23C9F289EA90E0D6CF9091A60314
:1020600092FB222720F9281779F080FB92F99093B0
:10207000A6036091A5037091A60384E090E00E94FE
:102080008A2E82E00E94AE0A0895CF931092D60362
:10209000C6E0EDECF2E0DF018C2F1D928A95E9F7A6
:1020A00090E080E00E94D60590E080E00E94B105BB
:1020B0001092DC030E94400DE0EDF3E0DF011D9281
:1020C000CA95E9F71092C7031092CA031092CB0386
:1020D0000E945006CF910895AAE2B0E0E2E7F0E155
:1020E0000C94082E8BE694E02091F100FC012193E2
:1020F000CF01F4E083379F07B9F780916C048330F8
:1021000009F470C0B8F4813009F447C0823009F492
:10211000B1C08091E80083FF39C180916B04909138
:102120006C049A3008F032C1E92FF0E0E151FF4C25
:102130000C94582E8A3009F48CC08B3009F46FC08F
:10214000893039F780916B04813219F780916F04DF
:1021500090917004892BE9F68091E800877F809345
:10216000E8008091E80082FF38C09091F3008091F0
:10217000F200029731F48091F100813011F0863045
:1021800021F48091F100809358048091E8008B77CE
:102190008093E8000E946304BCCF80916B04813A75
:1021A00009F0B7CF8091E800877F8093E8008091A5
:1021B0006F0490917004892B61F469E089E594E0E3
:1021C00070E00E940F058091E8008B778093E80013
:1021D000A0CF60E090E080E0F3CF809173048111A4
:1021E000C0CF97CF80916B04813A09F092CF809154
:1021F0006F0490917004892B09F08BCF8091E800D7
:10220000877F8093E8008091E80080FFFCCF809179
:102210006E028093F1008091E8008E77B9CF8091B3
:102220006B04813209F075CF80916F049091700436
:10223000892B09F06ECF8091E800877F8093E800BA
:102240000E94630480916D0480936E020E94451089
:1022500060CF80916B04813209F05BCF8091E80000
:10226000877F8093E8000E94630480916E048093CE
:1022700057044FCF80916B04813A09F04ACF809187
:10228000E800877F8093E8008091E80080FFFCCF22
:1022900080915704BECF803899F0823809F076C01B
:1022A00080916F048F70873008F070C08093E900D0
:1022B0008091EB0085FB882780F91092E90006C029
:1022C0008091620490916304911182609091E80082
:1022D000977F9093E8008093F1001092F100809135
:1022E000E8008E77B6C1882309F4A3C1823009F0D3
:1022F0004DC080916D048111A7C180916F048F70D2
:102300002FEF280F263008F041C08093E90020917C
:10231000EB0020FF99C1933031F48091EB00806293
:102320008093EB0091C19091EB0090619093EB0052
:1023300021E030E001C0220F8A95EAF72093EA00FD
:102340001092EA008091EB008860EACF81111EC0F4
:1023500010916D041F778091E3008078812B80932A
:10236000E3008091E800877F8093E8000E94630487
:102370008091E80080FFFCCF8091E300806880932B
:10238000E30082E0111183E0809373048091E80000
:1023900083FF0AC08091E800877F8093E8008091E6
:1023A000EB0080628093EB00AA96E3E00C94242E6D
:1023B0008058823058F780916D0490916E048C3D66
:1023C00023E09207A1F583E08A838AE289834FB7ED
:1023D000F894DE01139620E03EE051E2E32FF0E0B6
:1023E00050935700E49120FF03C0E295EF703F5FE8
:1023F000EF708E2F90E0EA30C0F0C7968D939D93DA
:102400002F5F243159F74FBF8091E800877F809379
:10241000E8006AE270E0CE0101960E940F0580910B
:10242000E8008B778093E800B1CFC096E7CF40916A
:102430006F0450917004292F33272330310509F49C
:1024400040C078F52130310509F48EC082E290E079
:10245000E8ECF6E02230310509F098CF2091E80051
:10246000277F2093E8002091710430917204821735
:10247000930708F49C0140E02115310509F079C06B
:10248000411177C08091E80082FDC9CF809173042B
:10249000882329F2853019F28091E80083FFF2CF7A
:1024A000BECF2132310509F457C02232310509F07F
:1024B0006DCF452B09F06ACF8DEB90E0EBE0F6E0B5
:1024C000CDCF2091710430917204409164044F5F2C
:1024D00040936404309369042093680422303105EA
:1024E000B1F4209165042F5F209365049927813012
:1024F000910551F10097E9F0029709F047CFECEF11
:10250000F6E0E4918E2F90E0ECEFF6E019C0243075
:10251000310531F4209166042F5F20936604E6CFE5
:102520002F3F310519F7209167042F5F209367042F
:10253000DDCFE4E3F7E0E4918E2F90E0E4E3F7E011
:10254000009709F08BCF22CFECE0F7E0E4918E2FDB
:1025500090E0ECE0F7E0F4CF452B09F017CF89E0ED
:1025600090E0EAEDF6E07ACF82E190E0EAEEF6E084
:1025700075CF80917304882309F451CF853009F415
:102580004ECF8091E80083FD4ACF8091E80082FD24
:1025900079CF8091E80080FF6FCF9091F300809118
:1025A000F2002115310519F08830910550F041E015
:1025B000089709F040E08091E8008E778093E8006A
:1025C0005BCF44914093F10031962150310901963F
:1025D000E8CF803809F0DACE8091E800877F8093D9
:1025E000E80080916A048093F10079CE8111CECE0B
:1025F00010916D04123008F0C9CE8091E800877FF9
:102600008093E80010936A040E946304112311F080
:1026100084E005C08091E30087FDFACF81E08093DC
:10262000730442E261EC81E00E94820480917304B1
:10263000ADCE80916D04813009F0A8CE81E0933059
:1026400009F080E0809363041092E9008091E80033
:10265000877F8093E8000E94630498CE0E94451013
:102660002FEF84E39CE0215080409040E1F700C0D0
:10267000000087E797E7909301088093000888E1BE
:102680009AE00FB6F894A895809360000FBE9093DF
:102690006000FFCFCF93DF93EC018C32910548F4BB
:1026A000FC01E750FF4C0C94582E80E693E061113A
:1026B00007C0DF91CF9108956623D9F388E493E0B2
:1026C0000E948C0EF6CF83E393E0662391F3F8CF5C
:1026D0008CE193E0662369F3F3CF84E093E0662313
:1026E00041F3EECF8FEE92E0662319F3E9CF662334
:1026F00001F386EE92E00E948C0EC8E0D0E080E507
:1027000090E00E944C0F2197D1F7D3CF662389F236
:102710008AED92E00E948C0EC6E0D0E080E590E069
:102720000E944C0F2197D1F7C4CF662309F4C1CF83
:1027300082ED92E00E948C0E80E590E00E944C0FAA
:1027400080E590E00E944C0F80E590E00E944C0FE5
:1027500080E590E00E944C0FACCF662309F4A9CF2E
:1027600082EC92E00E948C0E80E590E00E944C0F7B
:102770002197D1F79ECF662309F49BCF82EB92E09D
:102780000E948C0EC8E0D0E080E590E00E944C0FE3
:102790002197D1F78ECF662309F48BCF8AE992E097
:1027A0000E948C0EC7E0D0E080E590E00E944C0FC4
:1027B0002197D1F77ECF662309F47BCF8CE892E096
:1027C0000E948C0EC7E0D0E080E590E00E944C0FA4
:1027D0002197D1F76ECF662309F46BCF8EE792E095
:1027E0000E948C0EC7E0D0E080E590E00E944C0F84
:1027F0002197D1F75ECF662309F45BCF8CE692E098
:102800000E948C0EC9E0D0E080E590E00E944C0F61
:102810002197D1F74ECF662309F44BCF88E392E09E
:102820000E948C0E8AE490E00E944C0FCAE0D0E037
:102830008FE490E00E944C0F2197D1F73ACF6623A6
:1028400009F437CF8EEC91E00E948C0E8AE490E080
:102850000E944C0FCBE0D0E08FE490E00E944C0F40
:102860002197D1F726CF662309F423CF82EC91E09C
:102870000E948C0E89E290E00E944C0FC9E0D0E0EB
:1028800080E590E00E944C0F2197D1F787E098E017
:102890000E944C0F87E098E00E944C0F8AE290E083
:1028A00059CF662309F405CF83EE0E940F0E8DE108
:1028B0000E940F0E83EE0E94BE0D8DE10E94BE0DA0
:1028C000F8CE662309F4F5CE83EE0E940F0E81EE5A
:1028D0000E940F0E8DE10E940F0E83EE0E94BE0D2E
:1028E00081EEE9CF662309F4E4CE83EE0E940F0E59
:1028F0008BE10E940F0E83EE0E94BE0D8BE1DECFB6
:10290000662309F4D6CE83EE0E940F0E86E00E9465
:102910000F0E83EE0E94BE0D86E0D0CF662309F431
:10292000C8CE83EE0E940F0E89E10E940F0E83EE47
:102930000E94BE0D89E1C2CF662309F4BACE82EEB1
:102940000E940F0E81EE0E940F0E83EE0E940F0E6A
:102950008CE20E940F0E83EE0E94BE0D81EE0E945B
:10296000BE0D83EE0E94BE0D8CE2A8CF662309F453
:10297000A0CE81EE0E940F0E83EE0E940F0E89E121
:102980000E940F0E81EE0E94BE0D83EE0E94BE0DCE
:1029900089E10E94BE0D89E193E0DCCE662309F453
:1029A00088CE83EE0E940F0E84E00E940F0E83EE0D
:1029B0000E94BE0D84E082CF88E392E0662309F492
:1029C00078CEC8CE8EE192E0662309F472CEC2CEF4
:1029D00084E392E0662309F46CCEBCCE8DE292E0F3
:1029E000662309F466CEB6CE86E590E0662309F448
:1029F00060CEB0CE8EE290E0662309F45ACEAACE25
:102A00008FE192E0662309F454CEA4CE662309F444
:102A100050CED091D603C09153031092D6030E949A
:102A2000A309CD2BC27280EC91E011F48EEB91E002
:102A30000E948C0ED093D6033CCE662309F439CE87
:102A40008091A3039091A40324E082270E94970A17
:102A500030CE86EA90E0662309F42BCE7BCE662347
:102A600009F427CE0E942E1383E590E0662309F433
:102A700020CE70CE85E490E0662309F41ACE6ACEAB
:102A800085E391E0662309F414CE64CE8FE29AE0E8
:102A9000662309F40ECE5ECE80E39AE0662309F445
:102AA00008CE58CE662309F404CE85E393E052CED7
:102AB000662309F4FECD0E94AE09FBCD0E944510AD
:102AC0002FEF84E39CE0215080409040E1F700C06C
:102AD000000088E19AE00FB6F894A8958093600012
:102AE0000FBE90936000FFCFB0E0A0E0EAE7F5E111
:102AF0000C94022E8C01FC0183819481892B31F08E
:102B00008081918189238F3F09F057C7CDB7DEB708
:102B1000E9E00C941E2E80E084C7C034F2E5DF07A4
:102B2000C8F5C03222E5D207D0F5CE019054811508
:102B3000904108F44CC0CE018B7F813E910509F491
:102B4000A2C0C930FEE7DF0709F080C0F80182812A
:102B5000882309F47BC0C091D603809153038C2B4A
:102B6000827209F04FC082EE0E940F0E8091D50252
:102B7000811106C08FE40E94830E80E50E94830EBF
:102B800081EE0E940F0E8FE40E940F0E82E0809370
:102B9000D50263C7CE01805C9245809760F681E0E4
:102BA00090E00C2E02C0880F991F0A94E2F7209142
:102BB0005D0330915E0382239323892B09F4BBCFFD
:102BC000F8018281882309F448C78C2F44C7F80193
:102BD0008581807F09F0AFCF82818111ACCF2D2F0D
:102BE0002F7081E090E002C0880F991F2A95E2F7CC
:102BF00020915D0330915E0382239323892B09F496
:102C00009ACF2BC78091D50281111BC01092D60399
:102C10000E94A30984E091E00E94360F84E091E0D5
:102C20000E94FB0D8DE492E00E944C0F8AE40E940A
:102C3000830E8DE492E00E944C0FC093D60383E094
:102C4000A6CF81E50E940F0E84E0A1CF8091D5022E
:102C5000823069F030F4813009F441C01092D5021D
:102C600012C0833069F08430C9F781E507C08FE472
:102C70000E94BE0D81EE0E94BE0D82EE0E94BE0D2E
:102C800081E08093D502F801C280C11073C0E0904A
:102C9000D603F0905303CC30FEE7DF0709F4D2C12E
:102CA00008F041C0C8303EE7D30709F499C108F5E0
:102CB000C33791E2D90709F44BC2C337FCE7DF07FA
:102CC00009F055C2F8018281882309F4C6C68091B3
:102CD000D903882309F448C20E949C0DBEC6C9329C
:102CE000D10509F0BBCF8FE40E94830E1092D5026C
:102CF000B4C6CA30EEE7DE0709F489C1CB30FEE77F
:102D0000DF07D9F6F8018281882309F4A6C610925C
:102D1000D6030E94A3098F2D8E29827209F48FC1D8
:102D20008AEA93E083C1CE302EE7D20709F4E0C1EE
:102D300008F4C5C1CF308EE7D80709F4F3C1C0311C
:102D40009EE7D90709F0B9CFF8018281882309F4F9
:102D500084C60E948B0590936303809362038091E5
:102D600064038111DAC183EE0E940F0E81E080932B
:102D70006403D3C1B090D6038B2D8D7D09F087CF2E
:102D800040916703509168036091690370916A03F1
:102D90002FB7F8948091520490915304A091540459
:102DA000B09155042FBF841B950BA60BB70B7E016A
:102DB0008E359140A105B105D8F4FF2480916503BB
:102DC000909166038331910509F4A5C008F04CC0C9
:102DD0008730910509F4EDC0F8F48530910509F4C8
:102DE000BCC008F08FC0892B09F478C0B092D6031C
:102DF000B092D602F0926603E09265030E947F05CE
:102E000060936703709368038093690390936A03E8
:102E1000CC2009F422C63BCF8930910509F484C047
:102E200008F489C08D30910509F463C00F97F1F65D
:102E30008091D903FDE0EF16F10409F051C02EE0B6
:102E4000D22EC090D903CC2009F4BDC082E00E94EC
:102E5000D60980E00E94830E82E00E94D6098D2D63
:102E60000E94830EC12CC4CF8E32910509F489C013
:102E7000A0F48831910509F492C08A31910509F4D2
:102E800063C0469709F0B2CF8091D90339E1E316C8
:102E9000F10431F586E0D82ED4CF8535910509F4BB
:102EA00077C060F48435910509F0A0CF8091D903F3
:102EB00037E2E316F10409F461C012C086359105CA
:102EC00009F455C08735910509F090CF8091D90359
:102ED00027E2E216F10409F451C002C08091D9033F
:102EE000882319F082E00E94D60980E00E94830EB8
:102EF0007DCF8091D9032FE0E216F10489F798E1A4
:102F0000D92E9FCF8091D9039BE1E916F10441F7B7
:102F1000A6E1DA2E96CF8091D903E9E0EE16F1040E
:102F2000F9F6B7E1DB2E8DCF8091D903FAE1EF16E8
:102F3000F10471F3D5CF8091D90328E3E216F104AF
:102F400079F6F6E3DF2E7DCF8091D90333E1E316E6
:102F5000F10431F6E5E1DE2E74CF8091D9039AE1D8
:102F6000E916F10409F0BCCF77E0D72E6ACF809143
:102F7000D903E7E2EE16F10409F0B2CF6CE2D62EE7
:102F800060CF8091D903F7E2EF16F104B9F3A8CF2F
:102F90008091D90397E2E916F10481F3A1CF8091E2
:102FA000D903ECE1EE16F10409F09ACF58E0D52EE2
:102FB00048CF8091D903FBE1EF16F10409F090CFDF
:102FC0004AE0D42E3ECF8091D6028093D60380E093
:102FD0000E94830E1092D6038D2D0E94830E08CF7F
:102FE000F8018281882309F438C51092D6030E9423
:102FF000A3098F2D8E29827239F080E597E00E9417
:103000004C0FE092D60329C58FE497E0F8CFF80182
:103010008281882309F421C51092D6030E94A30956
:103020008F2D8E29827241F080EB93E00E948C0EEE
:1030300080E50E94830EE5CF8DEA93E0F7CF87EA23
:1030400093E0F4CFF8018281882309F406C58F2D1F
:103050008E29827219F182E20E94DC098F2D827220
:1030600061F08F2D8D7D809353038823A1F00E9402
:103070008B05909352038093510387E793E00E945E
:103080008C0EC9E1D0E080E50E94830E2197D9F72C
:1030900080E596E0B4CF90E080E0EBCF80E793E06E
:1030A0000E948C0E80E50E94830E80E50E94830EB4
:1030B00080E50E94830E80E50E94830EB9CFF8015F
:1030C0008281882309F4C9C40E948B059093600310
:1030D00080935F0380916103811106C080EE0E949E
:1030E0000F0E81E0809361038BE20E94830EB5C4D2
:1030F000F8018281882309F4B0C40E948B05909363
:10310000600380935F0380916103811106C080EEAC
:103110000E940F0E81E0809361038BE292E00E9497
:103120004C0F9BC4F8018281882309F496C40E9445
:103130008B059093630380936203809164038111F4
:10314000D3CF83EE0E940F0E81E080936403CCCF37
:10315000F8018581807F59F08281882309F47DC43C
:1031600082E00E94C20979C40E94AE0976C4FE289A
:103170008091D90381114EC0F2E2FF1202C00E9479
:10318000AE09F8018281882329F1C13ED10521F0E1
:10319000C23AF2E5DF07D9F58091D902882371F0B0
:1031A000F801838194812091D7023091D802821B4B
:1031B000930B8F3F9F4710F00E94AE0981E08093F0
:1031C000D902F8018381948188539F4F9093D8024C
:1031D0008093D702F8018281882309F453C1CE017C
:1031E0009057839708F04BC484E090E00E94662ECD
:1031F0009093A6038093A503FE01E150F047E232CD
:10320000F10508F082C0EB5DFE4C0C94582E109234
:10321000D902E0CF0E948B0588579C4E9093D8032B
:103220008093D703F80182818823A1F2FF2DFD79D5
:10323000FF2E09F04FC0C03422E5D20758F5C11562
:1032400032E5D30738F6C11580E4D80750F4C1152C
:1032500090E2D907A0F5C63ED10509F4BBCFCE0157
:103260000BC0C115E0E5DE07D0F7F8018581807F4E
:1032700009F4B0CFCE0199271092DC038832910572
:10328000A0F58E319105B8F5049720F182E00E94F7
:10329000D60931C0C43BF2E5DF0709F49BCFCE016C
:1032A000C53B22E5D20730F4805692458034910523
:1032B000B0F690CF805C9245809788F68BCFF8016E
:1032C0008581807FB9F68D2F8F71823159F028F476
:1032D000823041F00E949C0D7DCF843109F47ACF79
:1032E0008631C1F71092DC03F5CF8D32910571F272
:1032F00028F48A9779F70E94400D6CCF8C349105A1
:10330000D1F38D329240B9F3E5CF8091A50381606E
:103310008093A50395C08091A60388608093A6033F
:103320008FC08091A5038260F3CF8091A503846054
:10333000EFCF8091A5038860EBCF8091A6038160D9
:10334000EDCF8091A6038260E9CF8091A5038061D3
:10335000DFCF8091A5038062DBCF8091A5038064DD
:10336000D7CF0E9445108091A5038068D1CF80916E
:10337000A5038C60CDCF8091A6038360CFCF8091D1
:10338000A5038E7FC5CF8091A603877FC7CF80918D
:10339000A5038D7FBDCF8091A5038B7FB9CF809191
:1033A000A503877FB5CF8091A6038E7FB7CF80918D
:1033B000A6038D7FB3CF8091A5038F7EA9CF809187
:1033C000A5038F7DA5CF8091A5038F7BA1CF0E9400
:1033D00045108091A5038F779BCF8091A503837FB4
:1033E00097CF8091A6038C7F99CF8091A50382FB14
:1033F000992790F921E0922790FB82F990FB83F9BD
:1034000087CF8091A603982F909591708E7F892BFE
:1034100090FB81F983CF9091A503892F8F7B96FF35
:10342000806476CF0E9445109091A503892F97FB69
:1034300087F980586DCF61E08EE090E00E946C2E9D
:103440006091A5037091A60384E090E00E948A2E0B
:103450000E94451002C360E0EFCF9091A503892F31
:103460008F7E94FF806154CF9091A503892F8E7F2A
:1034700090FF81604DCF9091A603892F877F93FFA6
:1034800088604CCFC631DC4729F58091DA02811182
:103490000FC089E2EDECF2E023ED32E09191891367
:1034A00003C0DF0111971C922E173F07B9F7FBC22B
:1034B00085E3F0CFC3302CE7D20709F456C008F0FB
:1034C00044C0C1158CE7D80709F44DC0C130DC47B2
:1034D00009F451C0F80186819781009709F459C019
:1034E0000E941108D82FC92FF801F280D580D294FC
:1034F0003FE0D322809147038770C1F0CF2CFF209B
:10350000B1F0892F807F803421F080E28D0F8830E8
:1035100068F08091A60382FF09C082E00E94AE0A93
:10352000809147038770CC24C3948111C12CBC2E99
:10353000B2942FE0B222FBE0FB1508F49FC0EB2D04
:10354000F0E0E95BFE4C0C94582ECB35ECE7DE073F
:10355000F1F0CC35FCE7DF0781F0CA35DC4709F034
:10356000B9CF81E011C00E942E136FEF7FEF90E082
:1035700080E00E948A2E0E945E158091A60382FB45
:10358000882780F991E089270E942E10A3CF80E040
:10359000FBCF8281C081D181882369F0CE010E9456
:1035A000ED09F82E682FCE010E94610ABE018F2D11
:1035B0000E94F40795CFCE010E942E0AF82EF6CF76
:1035C0002C2F2F70E22EC07F19F0E29490EFE922A9
:1035D000FF20A9F0EE2069F080E28D0F883010F016
:1035E000D11109C08091D603E82AE092D6030E9447
:1035F000400D8D2F41C08E2D0E94D609F8CF8D2F02
:103600000E94BE0DEE20D1F180E28D0F883010F0C7
:10361000D11104C08E2D0E94DC0906C0E094809177
:10362000DC03E822E092DC030E94400D27C03C2F1F
:103630003F70E32EC07FC03219F0E29480EFE822A1
:10364000DD2351F0D13009F465C0FF2009F46FC0CB
:10365000DD2009F465C0CDCF8091A60382FD38C07E
:10366000FF2081F1EE2039F08091D603E82AE09224
:10367000D6030E94400D80E00E940F0E2B2D285093
:10368000330B2430310510F40E942F0DCC20A9F00B
:103690008091470380FD11C0F801128285958595C0
:1036A00085950E94CE0AC8010E9474158091470337
:1036B0008595859585950E949C0A60E0C8010E94C9
:1036C000FA0B24CA80E00E94BE0DEE20B9F2A2CF10
:1036D000FF2071F0809153038E29D11003C00E9406
:1036E000B40DCCCF91E0D912FACF0E94C209C6CF57
:1036F000D11006C00E94A3098E2D0E94AD0DBECF31
:10370000E1E0DE1609F4BACF8E2D0E94AD0D0E94C5
:10371000A309B4CFFF2031F0F5E0FD1508F4AECFDA
:103720008E2DDDCF24E02D1508F4A8CFE5CFDD20C8
:1037300019F3D93349F43FEF87EE93E031508040DD
:103740009040E1F700C000008D2F0E94BE0D96CF83
:103750008C2F86958695837069F0813009F08ECF25
:103760008D2F9C2F9370F11002C080E090E00E949A
:10377000B10584CF8D2F9C2F9370F11002C080E093
:1037800090E00E94D6057ACF6F2D8D2F0E94140BEA
:1037900075CF8C2F837009F03FC0F1106FCF4D2F84
:1037A000429546954770440F440F2D2F2F7030E0FF
:1037B000042E02C0220F331F0A94E2F790E080E04B
:1037C000D4FF09C08FE090E002C0880F991F4A958E
:1037D000E2F780959095C695C695C370C23099F072
:1037E00078F44091A1035091A203C13039F0822BAB
:1037F000932B842395230E94DE0A40CF242B352B64
:10380000822B932BF8CF822B932B2091A103309105
:10381000A20382279327EFCF8695FF2011F08C2FEC
:103820008170882309F42ACF4D2F42954695477021
:10383000440F440F2D2F2F7030E0042E02C0220FB2
:10384000331F0A94E2F790E080E0D4FF09C08FE0D4
:1038500090E002C0880F991F4A95E2F780959095F5
:10386000C695C695C370C23099F078F44091A30311
:103870005091A403C13039F0822B932B84239523DC
:103880000E94970AFBCE242B352B822B932BF8CF4B
:10389000822B932B2091A3033091A403822793279B
:1038A000EFCFCF70FF2029F08C2F0E94CE0A8D2FF2
:1038B00016CF8D2F0E94AD0D8C2F0E949C0ADECE5C
:1038C000D23F71F160F4D03FB9F0D13F81F0FF20D9
:1038D00009F463C0D1108DCE8C2F8F7125C0D33FDA
:1038E00031F1D43FA1F78091A60382FD2EC08C2F29
:1038F0008F71FF2011F318C0FF2069F0E4E0ED158F
:1039000008F4BCCECF7181E090E002C0880F991F0F
:10391000CA95E2F7BFCFF5E0FD1508F4AFCEF2CFC0
:103920008C2F8F71F110C9CF0E94CE0AA7CE90E0E4
:1039300080E0FF2009F4A4CFCF7181E090E002C0C5
:10394000880F991FCA95E2F79BCFFF20D9F0CF715E
:103950008C2F0E94CE0A8091A60382FF11C028E01E
:10396000C29FC00111248360809347038C2F0E9463
:10397000CE0A0E948B0590934603809345037ECE2A
:103980008C2FD2CF81E00E94AE0A31E03D1508F0C5
:1039900075CE82E00E94AE0A71CEDD2059F0D93397
:1039A00009F0D2CE8FEF97EEE3E081509040E040F7
:1039B000E1F7C8CE8C2F8F7180CF61E0C8010E94E3
:1039C000FA0BEC010E947F056093590370935A0330
:1039D00080935B0390935C032091A3033091A40335
:1039E00080915D0390915E03A90140955095482315
:1039F0005923452B31F08223932390935E038093C8
:103A00005D03C131FEE7DF0709F087C8F801828155
:103A1000882319F1832F9927009709F47CC89C010A
:103A200088E0A90174E0569547957A95E1F741152C
:103A3000510511F08C5F9A01A9015695479556954D
:103A400047954115510511F08E5F9A0136952795DE
:103A5000232B09F08F5F0E943B0C809147038770F6
:103A600009F454C8F8018281882309F44FC8809171
:103A7000A60382FF4BC882E00E94AE0A47C8C63147
:103A8000FCE7DF0709F016CD8091D6038A7A91E032
:103A900009F490E09093DA0269E2811165E38AEC1F
:103AA00092E00E9497050E94400DD7CFCF93DF93FD
:103AB00080910003807F09F049C08091FD02882336
:103AC00009F444C080914403D09103036091FB0248
:103AD0007091FC02A091FE02B091FF02C62FC72395
:103AE000D817A1F190E0109711F0CF3F19F401968B
:103AF0008770F6CF9C0143E0220F331F4A95E1F710
:103B0000F901EC5FFC4F41814713F1CF408146132F
:103B1000EECF42814111EBCF438154814A1B5B0BB5
:103B2000483C510520F7809100038F70806180939D
:103B30000003F901E75FFC4F80818F708061808313
:103B40008BEF92E00E9474150E94E309DF91CF9100
:103B50000895A5E1B0E0EFEAFDE10C94012E8C019F
:103B600085E0F801DE01519601900D928A95E1F70A
:103B7000F801E2806BEFA62E62E0B62E6091FE02A5
:103B80007091FF026115710509F44BC19091FB0220
:103B90004091FC02892F84238F3F09F442C1208188
:103BA0003181C380D480F090FD02F601E61BF70B53
:103BB000FF2009F411C180910003582F507FE83C89
:103BC000F10508F0C4C0511175C0FE2C43131EC08E
:103BD00092131CC06091010370910203F8014681A9
:103BE00057816417750791F4E11010C08F708061E0
:103BF00080930003C5010E94741580910003F801B1
:103C000085838F2D6596EAE00C941D2EC114D10496
:103C100029F0822F83238F3F09F01EC180E0F82F07
:103C2000F170DF2E80FF3CC080914403409103037C
:103C3000841315C0298B3A8B89899A890E94210A9D
:103C4000292F22952F702230F8F0243020F59F7014
:103C5000F9F0F8019581907FD9F4D12C1FC090E044
:103C6000FC0153E0EE0FFF1F5A95E1F7EC5FFC4FAC
:103C70005181351306C05081251303C05281E512CE
:103C80000FC001968770D4CF9F7011F0882329F35D
:103C9000805E883010F3C8010E947415FD2CB1CFEE
:103CA000EE2009F4AECF8091000381608093000381
:103CB000F12CA7CF43131BC0921319C040910103ED
:103CC00050910203F801268137814217530779F496
:103CD000E1100DC08583C8010E94741588E0F801C9
:103CE000ABEFB2E001900D928A95E1F78ACFC8015F
:103CF0000E94E30A882339F1EE2029F18091000324
:103D00008032A0F02091FB023091FC023A87298793
:103D10001B86DD86CC868E878091010390910203FD
:103D2000988B8F87CE0109960E94741588E0F80160
:103D3000ABEFB2E001900D928A95E1F70E94561D1B
:103D4000FF24F3945ECFC8010E947415F9CF51117E
:103D50000AC08BEF92E00E94741588E0F501119281
:103D60008A95E9F7A5CF431318C0921316C0409166
:103D7000010350910203F80126813781421753074E
:103D800061F4E1100AC08583C8010E94741588E0BF
:103D9000F50111928A95E9F734CFC8010E94E30A30
:103DA000882389F2EE2079F280910003803208F4B2
:103DB000BDCF2091FB023091FC023A8329831B8204
:103DC000DD82CC828E8380910103909102039887DB
:103DD0008F83CE010196A8CFE83CF105C0F6FE2CFA
:103DE000EE2009F4B0CF43130EC092130CC0209103
:103DF000010330910203F801868197812817390762
:103E000011F488E06DCFC8010E94E30A81118ECFC2
:103E100080910003816080930003C8010E947415A3
:103E2000F0CEEE2009F48FCFC8010E94E30AF82EED
:103E3000882309F488CF88E0F801ABEFB2E0019065
:103E40000D928A95E1F78091FB029091FC020E940D
:103E5000210A0E94561DD5CE81E08E25E0CEA0E13C
:103E6000B0E0E5E3FFE10C94092E29873A874B8700
:103E70005C876D877E878F87988BCE0109960E941D
:103E8000A91D811112C088E0FE013996DE0111964C
:103E900001900D928A95E1F78C859D85892B29F0FB
:103EA00089859A8589238F3F81F58091440390917C
:103EB0000303891317C06096E2E00C94252E93E06B
:103EC000AA0FBB1F9A95E1F7AC5FBC4F98E0FE01CB
:103ED000319601900D929A95E1F7809303030E9429
:103EE000E309E3CFB8E08B9FC00111248C5F9C4FA6
:103EF0000E94A91D8823F9F28091440390E0019665
:103F00008770992780934403D0CFA0910303B0E03A
:103F1000CD0101968770992720914403281719062F
:103F200071F60E944510109203031092440388E03A
:103F3000EBEFF2E0DF011D928A95E9F7B6CF0F9320
:103F40001F93CF93DF938091DE03E091DD031CE0AC
:103F500081111AC0DF91CF911F910F91089501E057
:103F60000E0F0093DD03CE2FD0E0E19FF00111246E
:103F7000E152FC4F83819481892B29F080819181CA
:103F800089238F3FF9F4E02F8091DE03E81738F39F
:103F90001092DE031092DD03DDCF18968D919C9177
:103FA0008F3F9807E1F061E00E944A131C9FF001E7
:103FB0001D9FF00D1124E152FC4F148213821092C8
:103FC000DC03E1CF1C9FD0011D9FB00D1124A15235
:103FD000BC4F16968D919C911797892BF1F22081F9
:103FE00031814281538164817581868197810E94EC
:103FF0002F1FDCCF10924A041092490410926D02D8
:1040000080914804809347040E9429060E949F1FC4
:104010000895B0E0A0E0EFE0F0E20C94F92DC0913B
:104020004704E7E0FE2E01E010E0FCE02F2EAEEFAB
:10403000EA2E809148048C1309C00E949F1F0E94A1
:104040002906CDB7DEB7E2E10C94152ED0E0FE01D3
:10405000EE0FFF1FE15CFB4F80819181F89EF00124
:10406000F99EF00D1124E75CFE4F2481211159C007
:104070003090DE03AFEDB3E030E020E0412C5F0193
:10408000231508F04CC01A966D907C901B97F50193
:10409000808091804FEF5FEF512CC52CD12CF60121
:1040A000EE0FFF1FE80DF91D6591749166167706F6
:1040B00009F4A601672B11F05394EFCF4F3F54073B
:1040C000B9F1B80102C0660F771F4A95E2F7462A98
:1040D000A801052C02C0440F551F0A94E2F7415075
:1040E00051094416150601F5229EF001239EF00D9C
:1040F0001124E152FC4FF89ED001F99EB00D11241D
:10410000A75CBE4F12962D913C911397378326835F
:10411000E082E1829187808771E015967C930E940E
:10412000FB052196C37085CF14961C921E9213979F
:104130002F5F3F4F1C96A4CFA9E1B0E0E2EAF0E286
:104140000C94F92D498B5A8B6B8B7C8B8D8B611169
:104150001092DC031D861E861F86188A85E0FE01EC
:104160007196DE01199601900D928A95E1F7809182
:10417000A60382FF1CC00E948B052091450330914D
:104180004603821B930B883E934020F080914703A7
:1041900082FFF2C10E948B0520915103309152039E
:1041A000821B930B883E934010F00E94A3098C85DC
:1041B0009D85892B31F089859A8589238F3F09F068
:1041C000C9C129853A854B855C856D857E858F853E
:1041D00098890E942F1FC7C081354CE7940731F49E
:1041E0008B85882371F00E94FA1FEBCF82359C47A4
:1041F00041F48B85882329F080916D028111F3CFE2
:10420000B7C169857A8580E00E94F4074C0109E313
:1042100011E0E12CD12CC12CAA24A394B12C9EEF47
:10422000592E44244394F8016081718166246A9474
:10423000762C20E0422F50E0FA01EE0FFF1FE60F30
:10424000F71F859194918816990609F43A01892BF4
:1042500011F02F5FEFCFF12CFFEF6F167F0609F4FF
:1042600044C0F8014481F0906D028F2D411180E02F
:10427000F82FF170FF2EF801258086819B85992308
:1042800009F4F2C0FF2009F4EFC0211014C0A50109
:10429000062C01C0440F0A94EAF7842B8683809190
:1042A000DA039091DB03889730F448E250E05093B2
:1042B000DB034093DA03C50102C0880F991F2A95DA
:1042C000E2F70197F80126812817190671F4809109
:1042D000490490914A04009709F449C00E9470056E
:1042E000899708F444C0F8014482EF28FFEFCF1A01
:1042F000DF0A095F1F4F2CE2C216D10409F093CFE9
:104300008B85882309F411C1EE2009F40EC10E94A7
:104310008B0590934A04809349048091DE03883092
:1043200010F591E0980F9093DE0398E0FE01399626
:10433000DE01119601900D929A95E1F73CE0839F82
:10434000C001112481529C4F28E0FE013196DC010E
:1043500001900D922A95E1F72FEF3FEFFC01318795
:104360002087938682866996E2E10C94152E8091CF
:10437000470460904804982FF0E0E0E0861114C0F4
:10438000909347040E171F0709F4AFCF90E0FC018C
:10439000EE0FFF1FE15CFB4FD182C082019683705C
:1043A000992780934804A1CF282E312CF101EE0FDC
:1043B000FF1FE15CFB4F20813181F7E0F29FD001CC
:1043C000F39FB00D1124A75CBE4F2D913C91119726
:1043D000398F288F712C60E070E0E72FF0E0EE0F4E
:1043E000FF1F288D398DE20FF31F25913491211580
:1043F0003105E1F0F8010190F081E02DFF8BEE8BAB
:1044000060E005C02417350709F47F2C6F5FE62FA5
:10441000F0E0EE0FFF1F4E895F89E40FF51F459115
:1044200054914115510571F77F5FD7CF7720C9F0BF
:10443000F801671708F0FD014482E017F10721F445
:1044400090934704F72C51CF891305C0EA17FB0757
:1044500011F49F5F937091012F5F3F4F822F837004
:104460008DCFF0E0E0E0F7CF90E0211020C0B50163
:1044700002C0660F771F2A95E2F79B012150310990
:104480002817390731F4442309F44DC0C6010E94AE
:10449000FB05C501062C01C0880F0A94EAF7982F86
:1044A0009095F801868189238683F22C1ECF9C018A
:1044B000062C02C0359527950A94E2F7A9014170B0
:1044C0005527BC016150710986239723892B39F543
:1044D000452B29F1F80182819381892BD9F01B8228
:1044E0001C821D821E8259825A820E948B05816025
:1044F000582F9D838C83F801828193818F839887C5
:1045000029813A814B816D817E810E942F1FF801A4
:104510001582BFCF60E0C6010E944A13F8CFF22F88
:10452000F1702F2EB6CF2F2CB4CF909147048091ED
:104530004804981731F00E940920EE2009F441CE7A
:1045400012CF0E949F1F10924A04109249040E94A9
:104550002906F3CF61E0CE0109960E94FA0B80355F
:10456000FCE79F0709F038CE8B85882309F449CEF4
:1045700081E080936D0225CE82E00E94AE0A0ACED1
:10458000AFE0B0E0E6ECF2E20C94FE2D8E010F5F9E
:104590001F4F8AE0D8011D928A95E9F78CEAC82E50
:1045A00082E0D82EF12CE12CAA24A394B12C27EB85
:1045B000822E22E0922EF60181916F018F3F09F445
:1045C00042C0F894E82FE295EF70F0E021A18F70DF
:1045D000A50102C0440F551F8A95E2F7CA01922F28
:1045E000982B91A392A18095892382A3789400C0EF
:1045F000E1EBF2E0712C31E021912F3F09F46BC027
:10460000A22FA295AF70B0E090968C9190E02F70A1
:1046100002C0959587952A95E2F780FD5CC0832FAF
:10462000782A330F8E169F0639F7F601319780816D
:104630008F3F11F00E949A0750EA5A95F1F7F8015E
:10464000EE0DFF1D70828FEFE81AF80A95E0E9166B
:10465000F10409F0B0CF4AE050E0B80185E993E0F9
:104660000E94D730009741F02AE0F801A5E9B3E0B5
:1046700001900D922A95E1F70091A003892B69F131
:1046800081E0809356030E948B059093550380939D
:10469000540380915403909155030E94700505972F
:1046A00000F110E007551C4F45E050E065E973E06C
:1046B000C8010E94D730C12C892B51F085E0E5E973
:1046C000F3E0D80101900D928A95E1F7CC24C394D0
:1046D0001092560307C080E0A3CF8091560381114A
:1046E000D8CFC12C0E940C0DD82EE091A003DE0182
:1046F0001B967D01882309F401C185E01D928A95EE
:10470000E9F70E2F10E007551C4F80918E038A3079
:1047100008F0C0C04FE356E2B701C8010E94D90CAF
:10472000882309F4DAC046EE55E2B701C8010E94B9
:10473000D90C882309F4D1C048ED54E2B701C8016F
:104740000E94D90C882309F4C8C010928E0380916E
:104750009F0390E045E050E0B70187559C4F0E94D1
:10476000D73021E020936F03892B09F0A9C0D12C09
:1047700080915D0390915E03892BC1F140915903B3
:1047800050915A0360915B0370915C032FB7F894CA
:104790008091520490915304A0915404B091550417
:1047A0002FBF841B950BA60BB70B813C944DA140EA
:1047B000B105E0F080915D0390915E038095909546
:1047C0002091A3033091A403822393230E94970A8C
:1047D00010925E0310925D030E947F05609359035F
:1047E00070935A0380935B0390935C03409167033B
:1047F000509168036091690370916A032FB7F89430
:104800008091520490915304A0915404B0915504A6
:104810002FBF841B950BA60BB70B8E359140A105BE
:10482000B10570F00E947F05609367037093680381
:104830008093690390936A03109266031092650354
:1048400080916403882371F08091620390916303E7
:104850000E9470058132934028F083EE0E94BE0DC5
:104860001092640380916103882371F080915F034B
:10487000909160030E9470058132934028F080EE91
:104880000E94BE0D109261038D2D8C292F96EDE0B4
:104890000C941A2E80915703909158030E94700532
:1048A000843F914008F036CF80916F03882309F44C
:1048B0005ECF85E0F70111928A95E9F710926F03B8
:1048C000A0919F03B0E0A755BC4F85E0FE013B9649
:1048D00001900D928A95E1F74BCF80918E038F3F27
:1048E00031F08F5F80938E038A3008F430CF0E94BE
:1048F0008B059093580380935703D6CFF0E0E7558C
:10490000FC4F85E0AFE7B3E001900D928A95E1F7A7
:1049100065E070E08FE793E00E943A0680937E03A3
:104920004091C30350E06091C20370E062547C4F39
:10493000C7010E94E4308B858093850361E070E0BD
:10494000C7010E943A06809384038090860390906A
:104950008703A0908803B090890380916B039091A6
:104960006C03A0916D03B0916E0388169906AA0698
:10497000BB0611F4D12C88CF80926B0390926C030C
:10498000A0926D03B0926E030E940C0DD82E81117F
:10499000F1CF0E947F05861A970AA80AB90A809269
:1049A0008F0390929003A0929103B09292036CCFE8
:1049B000A4E0B0E0EEEDF4E20C94072E40918A03FF
:1049C00050918B0360918C0370918D032FB7F894F5
:1049D0008091520490915304A0915404B0915504D5
:1049E0002FBF841B950BA60BB70B11E084369105E6
:1049F000A105B10590F10E940C0D882399F10E9448
:104A00007F056E5F7F4F8F4F9F4F69837A838B83C4
:104A10009C83809121019091220182589C4F40916A
:104A2000200150E04530510510F044E050E0BE0157
:104A30006F5F7F4F0E94E43084E090E00E94832DFE
:104A4000182F882351F00E947F0560938A0370938A
:104A50008B0380938C0390938D03812F2496E4E045
:104A60000C94232E0E947F0500918F0310919003D8
:104A70002091910330919203600F711F821F931F49
:104A8000C0CF4F925F927F928F929F92AF92BF92D0
:104A9000CF92DF92EF92FF920F931F93CF93DF930A
:104AA0000F92CDB7DEB7C62E4A015901482E880FA6
:104AB0005508C2010E94832D782E882309F480C0F6
:104AC000C20133E0880F991F3A95E1F7FC01E050ED
:104AD000FF4F438150E04115510511F041E050E096
:104AE00080509F4FFC016481758162587C4FCE01DC
:104AF00001960E94E430F40140815181628173810A
:104B00002FB7F8948091520490915304A0915404CB
:104B1000B09155042FBF841B950BA60BB70B8436A1
:104B20009105A105B10540F4B701C8010E943A06FC
:104B30009981891709F444C00C2C000CDD08C601CA
:104B40000E94832D782E811113C0712C872D0F9018
:104B5000DF91CF911F910F91FF90EF90DF90CF9059
:104B6000BF90AF909F908F907F905F904F900895EF
:104B7000C60123E0880F991F2A95E1F7FC01E05058
:104B8000FF4F438150E0E416F50608F4A70180507A
:104B90009F4FFC016481758162587C4FC5010E9462
:104BA000E430B701C8010E943A0699818913CDCF3C
:104BB0000E947F05F4016083718382839383C6CF53
:104BC000A701B801C5010E94E430C0CFA1E0B0E068
:104BD000ECEEF5E20C94022EEE24E394F12C05E8C1
:104BE00013E09E012F5F3F4F4AE753E063E082E00E
:104BF0000E944125C82E882339F100E080E01DC0C5
:104C0000D0909403D00E2D2D30E0A90142545C4F7A
:104C10007A01E1E0F0E0EC0FFD1FE00FF11D1081E3
:104C2000FA019081191BB12E1B149CF0912F17FDD6
:104C300090E0191B111118C00F5F90919303091791
:104C4000F8F281110E94A0098C2D2196E9E00C94C4
:104C50001E2EBA94F70180818F5F808360E08D2DD6
:104C60000E946C0F8C2DE0CF1F5FF7018081815077
:104C7000808361E08D2D0E946C0F8C2DDBCFA5E031
:104C8000B0E0E5E4F6E20C94032E6B0185E0E82E3B
:104C9000F12C0FE713E09E012F5F3F4F46E753E0F3
:104CA00061E080E00E944125882349F095E0FE0103
:104CB0003196A1E7B3E001900D929A95E1F795E066
:104CC000E1E7F3E0D60101900D929A95E1F7259680
:104CD000E8E00C941F2E1F920F920FB60F92112432
:104CE0002F933F934F935F936F937F938F939F93F4
:104CF000AF93BF93CF93DF93EF93FF93D091E900EE
:104D0000DF708091EC00C82FC17080FDC0E8109268
:104D1000E9008091F000877F8093F00078940E94F2
:104D20006C101092E9008091F00088608093F00090
:104D3000CD2BCF70C093E900FF91EF91DF91CF9120
:104D4000BF91AF919F918F917F916F915F914F91A3
:104D50003F912F910F900FBE0F901F9018951F92AB
:104D60000F920FB60F9211242F933F934F935F939F
:104D70006F937F938F939F93AF93BF93EF93FF9323
:104D80008091E10082FF09C08091E20082FF05C0AE
:104D90008091E1008B7F8093E1008091DA0080FFB9
:104DA00024C08091D80080FF20C08091DA008E7FDF
:104DB0008093DA008091D90080FF9DC080E189BD99
:104DC00082E189BD09B400FEFDCF81E080937304C8
:104DD00080915604811109C00E9413040E94B404FA
:104DE0008091E20084608093E2008091E10080FF86
:104DF00017C08091E20080FF13C08091E2008E7F97
:104E00008093E2008091E20080618093E2008091D3
:104E1000D80080628093D80019BC85E08093730429
:104E20008091E10084FF2BC08091E20084FF27C0C5
:104E300080E189BD82E189BD89B5982F917080FF9D
:104E4000FBCF8091D8008F7D8093D8008091E100C6
:104E50008F7E8093E1008091E2008F7E8093E2005C
:104E60008091E20081608093E20080916A0488234F
:104E700009F447C084E080937304809173048091A7
:104E8000E10083FF27C08091E20083FF23C080916F
:104E9000E100877F8093E10082E0809373041092A9
:104EA0006A048091E1008E7F8093E1008091E200AE
:104EB0008E7F8093E2008091E20080618093E20027
:104EC00042E060E080E00E9482048091F00088600F
:104ED0008093F000FF91EF91BF91AF919F918F91DF
:104EE0007F916F915F914F913F912F910F900FBEE6
:104EF0000F901F90189519BC1092730410925604CD
:104F000074CF8091E30087FD93E090937304B5CF55
:104F100078941F921FB61F9211248F939F93AF9383
:104F2000BF938091520490915304A0915404B09186
:104F300055040196A11DB11D809352049093530412
:104F4000A0935404B0935504BF91AF919F918F915A
:104F50001F901FBE1F9018951F921FB61F921124FD
:104F60008F939F93AF93BF9380915104811113C08E
:104F70008091520490915304A0915404B09155042F
:104F80004196A11DB11D8093520490935304A093A8
:104F90005404B0935504BF91AF919F918F911F908E
:104FA0001FBE1F901895CDB7DEB760970FB6F89467
:104FB000DEBF0FBECDBF85B7806885BF85B780686F
:104FC00085BF84B7877F84BF0FB6F894A89580917A
:104FD0006000886180936000109260000FBE80E8DE
:104FE00090E00FB6F89480936100909361000FBE3B
:104FF00088E997E09093C9028093C8020E94130445
:105000000E94B4048091E20084608093E20078946E
:10501000809173048823A1F01091E9001F70909192
:10502000EC00892F817090FD80E8182B1092E90028
:105030008091E80083FD0E946C101F701093E900BE
:1050400082E084BD93E095BD9AEF97BD80936E009A
:1050500010928F031092900310929103109292037A
:105060000E940C0D809328010E940C0D81110E945A
:10507000972C9091280181E098279093C203282FC4
:10508000291B20939403909128018093C30390914E
:1050900028018093930380912801811106C084EF39
:1050A0008093340185EF8093330182E08093320155
:1050B00020913401E22FE295EF70F0E061A12F70B2
:1050C00081E090E0AC0101C0440F2A95EAF7342F4B
:1050D0003095362331A322A1242B22A32091330122
:1050E000E22FE295EF70F0E031A12F7001C0880F40
:1050F0002A95EAF7982F9095932391A392A1892B53
:1051000082A38FE891E00197F1F700C000001091B1
:10511000C30364EC73E044E351E083E3E82E81E0F1
:10512000F82EFB0128C0DA012D91AD01822F829566
:105130008F7090E0DC0190968C9190E02F7002C00F
:10514000959587952A95E2F78170D7019D917D010C
:10515000292F22952F7030E0D90190962C9130E0C4
:105160009F7002C0359527959A95E2F790E020FD53
:1051700092E0892B81938E2F861B8117A0F280915C
:1051800028018091280195E0811190E09093A0037F
:1051900085E0891B80939F030CEA12E061EBE62E09
:1051A00062E0F62EF80181918F018F3F11F00E948D
:1051B0009A07E016F106B1F701EB12E057EBE52E86
:1051C00052E0F52ED8018D918D018F3F11F00E9494
:1051D0009A07E016F106B1F78AE0E9EAF3E0DF01A9
:1051E000282F1D922A95E9F7E5E9F3E0DF011D92EA
:1051F0008A95E9F790E080E00E94662E873E9E4FF8
:1052000009F45EC067EE7EEF90E080E00E948A2E97
:1052100060E082E090E00E946C2E60E083E090E02D
:105220000E946C2E1092A2031092A10360E074E120
:1052300084E090E00E948A2E60E086E090E00E9488
:105240006C2E6FEF87E090E00E946C2E40E050E003
:10525000BA0188E090E00E947E2E60E08DE090E050
:105260000E946C2E40E050E0BA0188E190E00E947C
:105270007E2E60E087E190E00E946C2E40E050E0DE
:10528000BA018CE190E00E947E2E70E060E080E246
:1052900090E00E948A2E40E050E0BA0188E190E060
:1052A0000E947E2E40E050E0BA018FE090E00E9424
:1052B0007E2E40E050E0BA0183E190E00E947E2E15
:1052C00082E090E00E945E2E8093B30384E090E041
:1052D0000E94662E9093A6038093A50383E090E03E
:1052E0000E945E2E90E00E94DE0A0E940C0D811149
:1052F00002C00E949A2C89E291E090934E04809320
:105300004D0438E1C32ED12C43EBA42E43E0B42E40
:105310002EEB822E23E0922E8091730400E112E1A5
:10532000853009F47EC00E94C02204EB13E099EAA4
:10533000E92E93E0F92ED701F80191918D918E1607
:105340009F0609F478C09817C1F30E940C0D282E0F
:10535000712CD7016D907D01F80131908F013614C9
:1053600029F13624512C44244394832D8421B1F017
:105370002220A1F05C867D8691E0862D842109F4AF
:1053800090E09E870E948B058160782F988B8F8795
:105390004C855D856E8588890E949C205394440CC1
:1053A000F6E05F12E2CFF8013197608273942AE051
:1053B0007212CFCF0E947F055EC08091730484304B
:1053C00011F110925104E0E40FB6F894A895C09240
:1053D00060000FBEE093600083B7817F846083BF6D
:1053E00083B7816083BF7894889583B78E7F83BFAE
:1053F0000FB6F894A8958091600088618093600052
:10540000109260000FBE80916304882351F00E94C7
:10541000C022E9EAF3E08191811111C2AE16BF0604
:10542000D1F780917304853009F4C7CF0E944510ED
:105430000E942F0D78CF981388CF0E948B058C0186
:105440008091A7039091A80308171907A1F08FEF87
:105450008F83888719860E948B058160782F9B87B0
:105460008A874F81588569858B850E949C2010937F
:10547000A8030093A7030E940C0D8823A9F1809133
:105480006D02882301F18091490490914A040097AC
:10549000D1F00E9470052091DA033091DB032817C8
:1054A000390788F49091470480914804981709F4CB
:1054B00015C10E9409201092DB031092DA031092AA
:1054C0004A04109249048091D903882369F00E940C
:1054D0008B052091D7033091D803821B930B8F3F0C
:1054E0009F4710F40E949C0D612C512C8091C303A6
:1054F000681608F4FCC051100E94A00986E0E0ED97
:10550000F3E0DE01119601900D928A95E1F7109279
:10551000D2031092D3031092D4031092D5038B813F
:105520009C81892B09F44DC08091CE039091CF03CB
:105530000E9470059C019091C703992309F499C1B9
:105540002930310508F43DC09F3F19F09F5F9093CB
:10555000C7038B81882361F00E9406079B8119167F
:105560000CF455C19FEF899F802D11248093D203A5
:105570008C81882361F00E9406079C8119160CF427
:1055800048C19FEF899F802D11248093D3033091D0
:10559000D2033323B1F02091D303222391F045EBC2
:1055A0003403C0011124992309F435C19093D20327
:1055B00045EB240390011124332309F430C13093C7
:1055C000D3038D819E81892B09F45AC08091CC032D
:1055D0009091CD030E9470051091CA03112309F424
:1055E00044C1BC0190E080E00E94B32F20913501BE
:1055F0003091360140913701509138010E94653059
:1056000018160CF03DC01F3F19F01F5F1093CA031E
:105610008D81882361F00E9477069D8119160CF414
:1056200002C19FEF899F802D11248093D4038E8126
:10563000882361F00E9477069E8119160CF4F5C04C
:105640009FEF899F802D11248093D5033091D4033F
:105650003323B1F02091D503222391F045EB34039D
:10566000C0011124992309F4E2C09093D40345EBBF
:10567000240390011124332309F4DDC03093D503B2
:1056800046E050E0BE016F5F7F4F80ED93E00E94E7
:10569000D730892B61F48091D2039091D303892B69
:1056A0009091D403892B9091D503892B11F00E94FE
:1056B000500686E0FE013196A0EDB3E001900D9218
:1056C0008A95E1F70E942F0D9091C603891709F47E
:1056D00023CE8093C6030E947F051ACE0E949F1F8F
:1056E00010924A04109249040E942906ECCE062D1D
:1056F00010E0F801EC5CFE4F8081E82FE295EF703E
:10570000F0E0E0A1F0E08F7002C0F595E7958A9592
:10571000E2F7E170D801AD5CBE4F2C91A22FA295AB
:10572000AF70B0E090968C9190E02F7002C095958C
:1057300087952A95E2F780FD62C080E08E2BD80124
:10574000AC53BC4FEC919E2F9370891709F455C050
:10575000EE0FEE0FE82BEC93D801AF5CBE4FEC9050
:105760007090C203760CEF70F0E0E954FD4F0054E6
:105770001C4F8081D8019C91890F8C93F12C082EAD
:10578000000C990B412C8E159F0584F0E72DF0E05D
:10579000E254FC4F80818F5F80830E940C0D482E65
:1057A000882379F160E0872D0E946C0FF8018081D9
:1057B000082E000C990B222733272E193F09281792
:1057C000390784F0E72DF0E0E254FC4F80818150EE
:1057D00080830E940C0D482E8823B1F061E0872D54
:1057E0000E946C0FD8018C91082E000C990BB70108
:1057F0000E94442EF80180835428639477CE82E07F
:105800009DCF44244394D2CF44244394EBCF91E0E2
:10581000AACE91E0B7CE81E08093D203C9CE81E0D9
:105820008093D303CECE91E0FDCE91E00ACF81E00C
:105830008093D4031CCF81E08093D50321CF09BD91
:1058400019BD09B400FEFDCF8091D8008F7D8093F3
:10585000D8008091E00082608093E0008091E000B9
:1058600081FDFCCF0E944510DCCD0B9708F0CDCE1A
:1058700007CF232B09F06ACEA4CE8EE14A9B02C04B
:105880008150E1F74A9BFECF08955A9880E28A95AD
:10589000F1F75A9A0895FC013BE03A95F1F798E048
:1058A00020E080E031E040E14A95F1F7880F4A9B23
:1058B00002C08160232742E04A95F1F7000040E1F1
:1058C0004A95F1F7915079F790E19A95F1F799B1EE
:1058D00032E03A95F1F7000040E14A95F1F792FB8A
:1058E000992790F992272081920F90830895A1E043
:1058F000B0E0EDE7FCE20C94052E19828C017C01EE
:10590000E60EF11C0E151F0541F481E099819111FD
:1059100080E02196E6E00C94212E0E943D2CCE01E1
:1059200001960E944B2CF80181938F01EBCF529A84
:105930005A9A089552985A9AEA9AE9E6F0E08081D4
:105940008F7C808308956150770B91E001C0990F9F
:105950006A95EAF720E031E0911108C0222391F026
:105960005A9A80E28A95F1F75A980895492F482368
:1059700039F05A9A232740E24A95F1F79695ECCFF1
:105980005A98F9CF5A98EDCFFF920F931F93CF9368
:10599000DF93EC018C01060F111DC017D10729F40C
:1059A000CDB7DEB7E5E00C94222EF9900E94452C8D
:1059B00068E08F2D0E94A32CF0CF1F920F920FB69C
:1059C0000F9211240F931F932F933F934F935F9345
:1059D0006F937F938F939F93AF93BF93EF93FF93B7
:1059E000CF93DF930F92CDB7DEB719820E943D2C83
:1059F000CE0101960E944B2C082F06950695069520
:105A0000282F22952570902F9570290F922F937033
:105A100026952695920F982797708981982B09F0E3
:105A20005CC0063008F059C080E18A95F1F75A9AB7
:105A3000529A82E08A95F1F700C05A9888E0089F50
:105A400080011124D801A050BF4F1696ED91FC9112
:105A500017973097A9F06091AA027091AB02149643
:105A60002D913C911597260F371F11968D919C9182
:105A70001297680F791F13964C9113978C91099583
:105A8000F801E050FF4F6381662351F02091AA0294
:105A90003091AB0284819581820F931F0E94C42CA8
:105AA0000E94452C80E18A95F1F75A9852985A9AAB
:105AB00080E18A95F1F7F801E050FF4F608166239D
:105AC00051F02091AA023091AB0281819281820F24
:105AD000931F0E94772C0E943D2C0F90DF91CF9155
