:100000000C94C3030C94E0030C94E0030C94752C43
:100010000C94E0030C94E0030C94E0030C94E003D4
:100020000C94E0030C94E0030C9447260C940326F4
:100030000C9444270C94E0030C94E0030C94E0032C
:100040000C94E0030C94E0030C94E0030C94E003A4
:100050000C94E0030C9420270C94E0030C94E00330
:100060000C94E0030C94E0030C94E0030C94E00384
:100070000C94E0030C94E0030C94E0030C94E00374
:100080000C94E0030C94E0030C94E0030C94E00364
:100090000C94E0030C94E0030C94E0030C94E00354
:1000A0000C94E0030C94E0030C94E003E100313283
:1000B00000003A003B0000000F0018001C00000088
:1000C0002A003431313200003B004200430044003A
:1000D00000002C42282100000B0036000000170011
:1000E0000A00000008000C00000018001C000000BE
:1000F0003600370000001200343100003800313281
:1001000000003700380000001D28070000001B0019
:10011000190000001B000700000006000700000097
:100120001B00060000001D281B0000000900130032
:1001300000001A00090000000A0037000000160045
:1001400037000000090037000000040037000000FD
:100150001B00370000001500370000001A003700B0
:1001600000001400370000000700370000001700EF
:100170003700000013003700000008000D000000E9
:100180001000110000000D000F00000022220027C7
:1001900027003C5441473E3C2F5441473E003C69B8
:1001A0006D67207372633D22696D6167655F736F70
:1001B000757263655F6F725F6C696E6B5F676F65A9
:1001C000735F686572652220616C743D226E616D9B
:1001D000655F69665F63616E745F6C6F6164222046
:1001E00077696474683D226E756D5F706978656CBF
:1001F0007322206865696768743D226E756D5F7053
:100200006978656C73223E003C6120687265663DCA
:10021000226C696E6B5F676F65735F6865726522DC
:100220003E6E616D655F6F665F6C696E6B5F676F79
:1002300065735F686572653C2F613E003C666F6F59
:100240007465723E3C2F666F6F7465723E003C624F
:100250006F64793E3C2F626F64793E003C68656153
:10026000643E3C2F686561643E003C68746D6C20A0
:100270006C616E673D22656E223E3C2F68746D6C2A
:100280003E003C7374796C653E3C2F7374796C65E9
:100290003E003C7469746C653E3C2F7469746C65F7
:1002A0003E003C703E3C2F703E003C6469763E3C14
:1002B0002F6469763E00313131204869676876697C
:1002C000657720476174652053450061726963401A
:1002D000636F6C6C656769756D6275696C742E63AC
:1002E0006F6D00636F6E7461637440617269636304
:1002F000622E646576002829203D3E2000636F6EE3
:10030000737420796F757246756E63566172696198
:10031000626C65203D2028782C7929203D3E20788C
:10032000202B20792E6D6574686F643B005B5D0047
:100330007B7D002829003C3E0035081E001F002060
:100340000021002200292F14001A000900130005C3
:10035000002B4404441500160017000A00E1001D9C
:10036000281B000600070019000000652428212C26
:10037000427328AE004500270026002500240023F4
:10038000002A0033001C0018000F000D0034311249
:10039000000C000800110010003132380037003620
:1003A000000B000E0000002B084C432C4235240C9F
:1003B0007E35081E001F00200021002200292F1476
:1003C000001A000800150017002B4404441600070B
:1003D0000009000A00E1001D281B000600190005A5
:1003E000000000652428212C427328AE0045002718
:1003F0000026002500240023002A00130012000C10
:100400000018001C00343133000F000E000D000BEB
:100410000031323800370036001000110000002B88
:10042000084C432C4235240C7E1B703A003B003CA8
:10043000003D003E0035001E02360237022E00232A
:10044000022B0220022F00260227023000E1003595
:100450000221022F023002220200000100010001ED
:100460000001000100440043004200410040003F01
:10047000002A0033022600250024002502570056DA
:100480000023002200210024023102540020001F1A
:10049000001E00310200000100370027002C001F61
:1004A000021B70000000000000000000001C70D360
:1004B00000D200CD00D100A80001000100CF00CE85
:1004C00000D000A9000100DB00D900DA00DC00AA9E
:1004D0000000000100010001000100010061520064
:1004E00000000053000000D2002A0033020100D3B4
:1004F000000D7E010034020100D200087ED1000B05
:100500007E31021E02097E087E0A7E097E000009F5
:10051000010100D300D10001001B700000000000A9
:1005200000440045001C703F004000410042004371
:100530000001000100E200E100E300E00001003AF8
:10054000003B003C003D003E000000010001002B8C
:10055000040C7EAB00615247004F04520550044B1F
:10056000014C0048004D0052004A004E0139000F76
:100570007E4F00510050000E7E49004F044E005146
:10058000054B0050040000050C01000100010001B2
:100590000005010902A10185020901A1000509194F
:1005A0000129081500250195087501810205010939
:1005B0003009311581257F950275088106093815A6
:1005C00081257F950175088106050C0A3802158181
:1005D000257F950175088106C0C005010980A1012C
:1005E000850319012AB700150126B700950175107A
:1005F0008100C0050C0901A101850419012AA0028E
:10060000150126A002950175108100C0050109069B
:10061000A101050719E029E71500250195087501D5
:1006200081029501750881010507190029FF150050
:1006300026FF009506750881000508190129059512
:100640000575019102950175039101C009023B00F6
:10065000020100A0FA0904000001030101000921C0
:10066000110100012240000705810308000109046F
:1006700001000103000000092111010001227B009B
:100680000705820320000112010002000000081388
:100690004022201300010200010E034C006500659A
:1006A000006C006F006F000000260343006C0069BF
:1006B0000063006B00650074007900200053007037
:1006C000006C006900740020004C0074006400009D
:1006D0000004030904000000000000000000000006
:1006E000000000000000000000000000000000000A
:1006F0000000000000000000007E0F00D4FFFFFF9C
:10070000C70000007800000000000000002A2B282D
:1007100000000000000000000000000000000000D9
:1007200029000000002C1E342021222434262725F5
:100730002E362D3738271E1F20212223242526332D
:1007400033362E37381F0405060708090A0B0C0D2F
:100750000E0F101112131415161718191A1B1C1D41
:100760002F3130232D350405060708090A0B0C0D1F
:100770000E0F101112131415161718191A1B1C1D21
:100780002F3130354C0011241FBECFEFDAE0DEBF31
:10079000CDBF12E0A0E0B1E0E6ECF1E602C00590CA
:1007A0000D92AA38B107D9F724E0AAE8B2E001C057
:1007B0001D92A333B207E1F70E946B270C9485309A
:1007C0000C940000E8EDF0E080818E7F8083109231
:1007D000E2001092DA001092E100A0EEB0E08C91FD
:1007E00081608C9380818F77808319BCA7EDB0E006
:1007F0008C918E7F8C9380818F7E808310921604E3
:1008000008952091E4003091E50095E6A90120913A
:10081000EC00822F817020FF06C08091E80080FFED
:1008200006C080E008952091E80022FD1AC0809162
:100830002904882389F0853089F08091EB0085FDBB
:100840000FC02091E4003091E50042175307F9F200
:100850009150E1F684E0089582E0089583E00895E0
:1008600081E0089580912B0487FF13C08091E800F8
:1008700082FF06C08091E8008B778093E80004C077
:10088000809129048111F2CF089580912904882351
:10089000D9F38091E80080FFF8CF8091E8008E774F
:1008A000ECCF982F9093E900242F762F50E08917F2
:1008B00031F07091EC002091ED005091F00021FD9D
:1008C00007C09F5F973071F78093E90081E008953A
:1008D0003091EB003E7F3093EB003091ED003D7F97
:1008E0003093ED003091EB0031603093EB0070936A
:1008F000EC002093ED005093F0002091EE0027FDD6
:10090000E0CF80E00895B0E0A0E0E9E8F4E00C94E6
:100910009B2DC8EDD0E088818F7E8883E7EDF0E0E5
:1009200080818160808384E082BF81E080931604AF
:1009300088818E7F888302EE10E0F8011082109289
:10094000DA0081EEC82ED12CF601108288818F77D3
:10095000888388818068888388818F7D888319BC9B
:100960001092290410922A04109222041092210459
:1009700090EEE92EF12CF70180818B7F80838881B6
:100980008160888342E060E080E00E945104F601CB
:1009900080818E7F8083F801808181608083808167
:1009A00088608083F70180818E7F80838881806169
:1009B0008883CDB7DEB7E8E00C94B72DFC018091B9
:1009C00031049091320486179707A0F061157105E4
:1009D00029F49091E8009E779093E80090E06115EB
:1009E000710551F4911108C08091E80082FF34C074
:1009F00080E00895BC01F2CF809129048823C1F1E1
:100A00008530C1F18091E80083FD30C08091E8001D
:100A100082FDEACF8091E80080FFE1CF8091F30072
:100A20002091F200382F6115710519F02830310539
:100A300058F091E02830310509F090E02091E8006D
:100A40002E772093E800CBCF81918093F100615005
:100A500071092F5F3F4FE7CF80912904882341F030
:100A6000853041F08091E80083FFBECF81E008959A
:100A700082E0089583E008958091180408959C0110
:100A80004FB7F8948091120490911304A09114042C
:100A9000B09115044FBF821B930B08952FB7F894A4
:100AA00060911204709113048091140490911504C4
:100AB0002FBF08952FB7F8948091120490911304DA
:100AC000A0911404B09115042FBF08959C01FC015E
:100AD00032969FEF80E04191461751F09F3F19F405
:100AE000411101C0982F8F5F8630A9F79F3F09F40D
:100AF0000895290F311D97FD3A95F90162830895F4
:100B0000A3E0B0E0E6E8F5E00C94A12D20910F04FD
:100B10003091100428173907A1F0909310048093A6
:100B20000F04E0910D04F0910E04309751F024E091
:100B300029839B838A830680F781E02DCE0101966D
:100B400009952396E2E00C94BD2DA3E0B0E0EBEA1A
:100B5000F5E00C94A12D20910B0430910C04281782
:100B60003907A1F090930C0480930B04E0910D04DD
:100B7000F0910E04309751F023E029839B838A8300
:100B80000680F781E02DCE01019609952396E2E0DB
:100B90000C94BD2DDC016091070480910804962F10
:100BA000891301C00895292F30E0F901EE0FFF1FCE
:100BB000E150FC4F408151814A175B07A1F487E067
:100BC0008A9FA0018B9F500D1124475C5E4F81E0EE
:100BD000FA0184839613E6CF2F5F3F4F23703327AC
:100BE0002093070408952F5F3F4F922F9370D8CF23
:100BF00010929B0310929A03E9E3F1E08581811141
:100C000002C014821682379682E0E533F807B1F706
:100C10000895FC01680F791F8FEF91E321918227DE
:100C200028E030E087FF09C0880F8927215031096B
:100C3000C9F7E617F70791F70895880FF7CF0E94D5
:100C40005A059C019091920380919303982B21F077
:100C500030938F0320938E0390919403809195039A
:100C6000982B21F030938D0320938C03E0910D0499
:100C7000F0910E04309749F082E080939003048055
:100C8000F581E02D80E993E0099508958F929F9278
:100C9000AF92BF92CF92DF92EF92FF9280918B033F
:100CA000982F957071F0C12CD12C20E4E22E22E413
:100CB000F22E82FD52C0C12CD12CE12C91E4F92EF0
:100CC0004CC080918A038823B1F3E0908803F090B0
:100CD0008903E114F10479F320E030E048EC51E4B9
:100CE0006091350170913601809137019091380102
:100CF0000E94A52E8823F9F2C7010E943F0562E3F6
:100D000070E00E94C82D90E080E00E944B2F6B01A4
:100D10007C0120E030E040E05FE30E940230A70168
:100D200096010E9402304B015C0120E030E040E07F
:100D300051E4C701B6010E94392E9B01AC01C501E7
:100D4000B4010E94392E6B017C0120E030E048ECB8
:100D500051E40E94FD2F18160CF1A701960160E0E6
:100D600070E08AE794E40E94AA2E609335017093A4
:100D700036018093370190933801C701B6010E9474
:100D80001C2F81E0693008F082E0FF90EF90DF9047
:100D9000CF90BF90AF909F908F900895C12CD12C91
:100DA00088ECE82E81E4F82ED8CF8F929F92AF92F4
:100DB000BF92CF92DF92EF92FF9280918B03982F98
:100DC000957081F0C12CD12C38ECE32E33E4F32E56
:100DD00082FF4AC0C12C20E8D22E2BE3E22E25E46C
:100DE000F22E42C080918703882309F45DC0809170
:100DF000880390918903009709F456C00E943F052B
:100E000062E370E00E94C82D90E080E00E944B2FCA
:100E10006B017C0120E030E040E851E40E940230A8
:100E200020E030E048EC52E40E94392E4B015C0196
:100E300020E030E040E051E4C701B6010E940230FA
:100E4000A70196010E9402309B01AC01C501B401CB
:100E50000E94392E6B017C0120E030E046E954E429
:100E60000E94FD2F18163CF120E030E04AEF52E4DA
:100E7000C701B6010E94AA2E0E941C2F662311F101
:100E80008FE767FD08C070E090E080E00E944B2F84
:100E90000E941C2F862FFF90EF90DF90CF90BF9085
:100EA000AF909F908F900895C12CD12C98ECE92E93
:100EB00092E4F92ED9CFC12CD12C86E9E82E84E416
:100EC000F82ED2CF60E070E080E89FE3E1CF80E0D1
:100ED0000895F894E82FE295EF70F0E031A1282F03
:100EE0002F7081E090E001C0880F2A95EAF7982FD3
:100EF0009095932391A392A1892B82A3789408952E
:100F00009091650392FF06C0282F28712830F9F4CC
:100F1000877F846093FF06C0282F28712831F1F461
:100F2000877E84612091660320FF06C0382F3871C8
:100F30003830D9F4877F816021FF06C0282F2871BF
:100F40002831D1F4877E816194FD877E0895282F12
:100F500024712430F9F68B7F8860DCCF282F247130
:100F6000243101F78B7E8861DDCF382F317131302C
:100F700019F78E7F8860E0CF282F2171213121F76A
:100F80008E7E8861E1CF972F7A30B8F46630A8F46E
:100F9000853098F470E026E0929F600D711D112459
:100FA000FB019CE3899FE00DF11D1124EE0FFF1F53
:100FB000E75CFC4F85919491089580E090E008955E
:100FC000CF93DF93EC0182389105B9F108F041C06D
:100FD0008133910509F49FC050F58932910509F4D8
:100FE0008FC08A9709F49EC0C11520E5D20708F08A
:100FF000BDC0C11530E4D30708F00AC1C03ED10519
:1010000008F0A5C0CD3CD10508F000C1C83AD10513
:1010100008F08FC0C53AD10508F0F0C0C130D10545
:1010200039F1209729F1C430D10510F546C0853338
:10103000910509F460C0C997B9F680916503837082
:1010400009F044C18091660383FF12C0C9E2D0E079
:101050000FC0833E9105A1F178F4803E910509F11E
:10106000823E910509F0C0CF8091650382FD21C0C9
:10107000CE01DF91CF910895863E910561F1873EC3
:10108000910571F1843E910509F0AECF8091660320
:1010900081FFEECF80916503C7EED0E084FD0DC0E7
:1010A000E7CF8091650380FD33C09091660390FF88
:1010B000DFCFC3EED0E084FFDBCFD0E0C0E0D8CFFD
:1010C0008091650382FDFFC09091660390FDFEC094
:1010D00084FFCECFF2CF8091650383FDDDCFC8CFF3
:1010E0008091650383FDF5C09091660391FFF0CF79
:1010F000C4EED0E0BDCF8091650385FFB9CFA6CF08
:101100008091650385FDE8C08091660383FFB0CFC1
:10111000C9E3D0E0ADCF8091650386FFA9CFCAE2D5
:10112000D0E0A6CF8091650386FFA2CFC1E3D0E0D7
:101130009FCFC13CD10508F6C85AD0E0CC0FDD1FC7
:10114000C65CDD4F0990D881C02DD46491CFC11504
:1011500040E2D40708F0AAC0C11581E0D80708F022
:1011600087CFC83ED10508F483CFA7CFC03622E58C
:10117000D20718F5C03432E5D30708F053C0C032A7
:1011800042E5D40708F047C0C11582E5D80708F446
:101190007FC02C2F2695269540E2249F9001112494
:1011A0008C2F8370C1E0D0E002C0CC0FDD1F8A9588
:1011B000E2F7C22BD32BDD685BCFC03A22E5D20722
:1011C00060F4C03832E5D30708F441C0CF71D0E0F5
:1011D000DC2FCC27C46FD06A4BCFC03C42E5D4078C
:1011E00008F44AC0C03E82E5D80708F066CFDC2F7D
:1011F000CC27CC27DF71C06FD06A3ACFC55AD0E078
:10120000C95CDD4FC881D0E0D06432CFD06530CF2B
:10121000DF70D06A2DCFCF71D0E0DC2FCC27C16F2B
:10122000D06A26CF2C2F26952695277080E2289FFE
:10123000900111248C2F8370C1E0D0E002C0CC0F4C
:10124000DD1F8A95E2F7C22BD32BDC6811CF2C2F40
:1012500026952695277040E2249F900111248C2F1B
:101260008370C1E0D0E002C0CC0FDD1F8A95E2F7A9
:10127000C22BD32BDA68FCCE8C2F8F710E94800793
:10128000C82FD0E0DC2FCC27CC27DF71D062F0CE86
:101290008C2F8F710E94800735E0D695C7953A95BF
:1012A000E1F7CF709C2FEC01D069E2CE8D2F8F71CA
:1012B0000E94800790E0982F882788279F719C01C3
:1012C0002C2BE901E3CFC2EED0E0D2CEC0EED0E0CD
:1012D000CFCEC6EED0E0CCCEC5E3D0E0C9CE0E94E2
:1012E0004E05089580911303882331F01092130363
:1012F00010921203109211030895809199038111A5
:101300000FC0109296030E9472090E945A058857D6
:101310009C4E909398038093970381E08093990368
:101320000895CF93C82F8091660382FF0CC08091EF
:1013300013038C1741F00E945A0590931203809377
:101340001103C0931303CF91089590919C03892BAF
:1013500080939C0308958095909196039823909391
:1013600096030895809105039091C402981301C0DB
:1013700008958F5F8770FACFB0E0A0E0E2ECF9E06B
:101380000C949A2D7C010091630310916403809169
:10139000610390916203082B192BCFE0D0E0CC249D
:1013A000C394D12CBC2EC6010C2E02C0880F991FED
:1013B0000A94E2F780239123892B49F4219790F72F
:1013C000B12C8B2DCDB7DEB7E9E00C94B62DB7016B
:1013D0008C2F0E94C3070E94E007019779F3F1CF99
:1013E000CF93DF93EC010E94BC09BE010E94C307AA
:1013F0000E94E007DF91CF9108959A3078F586300A
:1014000068F5E82FF0E086E0989FE00DF11D1124CB
:101410009E2F977083E0F695E7958A95E1F7EE0F9A
:10142000FF1FEE0FFF1FE456FD4F50E040E080E04D
:10143000219130E0092E02C0369527950A94E2F7F3
:1014400021703327042E01C0220F0A94EAF7822B61
:101450004F5F5F4F4430510559F7089580E008957C
:101460009A3098F5863088F5E82FF0E086E0989F6E
:10147000E00DF11D11248E2F877041E001C0440F53
:101480008A95EAF783E0F695E7958A95E1F7EE0FFE
:10149000FF1FEE0FFF1FE456FD4F30E020E070E02D
:1014A0005191DF011197CB01022E02C096958795CD
:1014B0000A94E2F7817081958527842385278C9390
:1014C0002F5F3F4F2430310559F7089590936403FF
:1014D00080936303089521E030E002C0220F331FA0
:1014E0008A95E2F72095309580916303909164038B
:1014F000822393230E94660A0895909108038095A1
:10150000892380930803282F2770B1F4282F082EF1
:10151000000C330B9217130679F09091660392FF3B
:101520000BC08595859585950E946B0A10920803DE
:101530001092070310920603089521E030E002C0E4
:10154000220F331F8A95E2F7809163039091640321
:10155000822B932B0E94660A0895909362038093D6
:1015600061030895FC0183819481892B29F0808196
:10157000918189238F3FF1F480E008950E94E00774
:1015800092959F70963089F058F4925F9F709230D8
:1015900098F7803F19F030F4883E70F781E00895A5
:1015A0009A5FF4CF843F41F7F9CF883EB8F3813F8B
:1015B00019F7F4CF86819781009701F78081918197
:1015C0000E94F009DDCFCF93DF93C82F662309F483
:1015D00069C08091880390918903892B31F40E941E
:1015E0005A059093890380938803CD3C51F40E945F
:1015F000D5068195809393030E941F06DF91CF91BA
:101600000895CE3C19F40E94D506F4CFCF3C31F4B6
:101610000E94D506819580939203EECFC03D19F4C8
:101620000E94D506F8CFC93D29F40E944606809352
:101630009403E2CFCA3D21F40E9446068195F7CF7C
:10164000CB3D31F40E944606819580939503D4CF1B
:10165000CC3D19F40E944606F8CF8FE28C0F8830FB
:1016600070F4C15DDD0B21E030E001C0220FCA95AE
:10167000EAF780919103822B80939103BDCF8091F3
:101680008B038160CD3D59F080918B038260CE3D0C
:1016900031F0CF3D09F0B0CF80918B03846080930F
:1016A0008B03AACF409192038D3C79F480919303F0
:1016B00087FF11C01092930341110FC0109287034E
:1016C000109289031092880308C08E3C81F48091A7
:1016D000930318167CF3442381F080919403909136
:1016E0009503892B09F088CF10928A0385CF8F3C10
:1016F00049F447FFF0CF1092920380919303811138
:10170000ECCFDCCF803D19F41416ACF3E4CF80911C
:101710009403C93D29F41816F4F610929403DBCF14
:10172000CA3D19F487FFD7CFF8CF80919503CB3D01
:1017300029F487FFD0CF10929503CDCFCC3D19F47B
:101740001816CCF3C8CF8FE28C0F883078F4C15DC7
:10175000DD0B81E090E001C0880FCA95EAF7809523
:1017600090919103892380939103B5CF80918B034E
:101770008E7FCD3D59F080918B038D7FCE3D31F032
:10178000CF3D09F0A8CF80918B038B7F80938B0393
:10179000A2CFCF92DF92EF92FF92C72ED82EE92EE2
:1017A000FF2420E0C114D104E104F10419F0C701C1
:1017B000B60128E06B017C0154E0F694E794D794DD
:1017C000C7945A95D1F7C114D104E104F10419F07A
:1017D0002C5FC701B6016B017C0142E0F694E794EF
:1017E000D794C7944A95D1F7C114D104E104F10408
:1017F00019F02E5FC701B601969587957795679585
:10180000672B682B692B09F02F5F822FFF90EF90D9
:10181000DF90CF900895A5E0B0E0E1E1FCE00C940A
:10182000A02D9C01FC01868197810097E1F485E061
:10183000DE01119601900D928A95E1F7F90122815E
:1018400089819A81222399F0662389F00E94BC093C
:10185000182F682F89819A810E94300A69817A81C4
:10186000812F0E94C3072596E3E00C94BC2D0E94B3
:10187000FD09182FF3CF9C019A9581159F4150F4D3
:10188000832F817031FD826032FD846033FF03C09D
:101890008860089580E008950F931F93CF93DF939E
:1018A00001E010E0082E02C0000F111F0A94E2F7B9
:1018B000C0911D03D0911E039E0120233123232BB1
:1018C00021F590910803959595959595891306C0F6
:1018D0001092080310920703109206030E949D0ABB
:1018E0000E944E056093190370931A0380931B03A3
:1018F00090931C03C027D127D0931E03C0931D03D0
:10190000DF91CF911F910F9108950E946B0AF2CF42
:101910000F931F93CF93DF938B01EA0190912904DA
:10192000943061F58093E9008FEF9091E800815049
:1019300095FD06C095ED9A95F1F700008111F5CF60
:101940008091E80085FF1AC00E940104811111C036
:101950008091E80085FD06C08091E8008E77809335
:10196000E800F2CFF80181918F018093F100219777
:1019700079F78091E8008E778093E800DF91CF912E
:101980001F910F91089543E050E0BC0182E00E9456
:10199000880C089546E050E0BC0182E00E94880C6B
:1019A0000895CF93DF93EC0148E050E0BC0181E063
:1019B0000E94880C88E0FE01A9E1B4E001900D923C
:1019C0008A95E1F7DF91CF910895B0E0A0E0EBEECA
:1019D000FCE00C94992D7C015B016A0180914E031F
:1019E00001E010E08A3010F40AE010E0C1E0D0E03D
:1019F000B501C701F6010995811104C021960C17A4
:101A00001D072CF4CDB7DEB7EAE00C94B52DCC9FC2
:101A10009001CD9F300D300D112490E080E045E322
:101A20004A95F1F70000019682179307C1F7E0CFBE
:101A300080913003811110C08091D8008061809323
:101A4000D8008AE18A95F1F700C08091D90080FF23
:101A50000AC081E08093300381E09091300391309F
:101A600009F080E0089582E0809330030E94E20351
:101A700010922904F1CF0E94180D882359F0E091AB
:101A80000D04F0910E04309729F00190F081E02DC3
:101A90000995089580E008958091960390919C03A4
:101AA000892B80938C0280911303882319F10E9463
:101AB0005A052091110330911203821B930B883E2B
:101AC000934010F00E94720980918C029091130350
:101AD000892B80938C0220E08EE892E0FC0131910A
:101AE000CF0131112F5FF2E084399F07B9F721113F
:101AF0000E94720948E050E069E073E08CE892E0EF
:101B00000E946F30892BA9F088E0ECE8F2E0A9E0B0
:101B1000B3E001900D928A95E1F7E0910D04F09108
:101B20000E04309731F00280F381E02D8CE892E0D2
:101B300009950895882341F0809590919C0389230D
:101B400080939C030E944C0D0895809199038823F3
:101B500029F082E20E949A0D109299030895882339
:101B600021F00E94A5090E944C0D0895882321F0C0
:101B70000E94AB090E944C0D0895882339F0909182
:101B80009603982B909396030E944C0D08958823FA
:101B9000D1F19CEF980F913A78F4EEE8F2E0919150
:101BA000891303C0DF0111971C9292E0E439F90711
:101BB000B1F70E944C0D089590E2980F983050F4C0
:101BC000877091E001C0990F8A95EAF7892F0E94EA
:101BD000AB09EFCF9BE5980F933028F490E080E0BD
:101BE0000E94A505089598E5980F993128F490E092
:101BF00080E00E948005089593E3980F933118F4D4
:101C000060E00E94E30A0895CF93DF93EC010E9405
:101C1000C70DCE010E943B0CC05ED109289728F465
:101C20000E94B60DDF91CF9108950E949A0DFACFD0
:101C3000CF93C82F8823B1F08CEF8C0F813A00F539
:101C4000EEE8F2E084E992E0DF012D91C21761F045
:101C50008A179B07D1F76C2F8CE892E00E946605EB
:101C60000E944C0DCF9108952191C21303C0DF0152
:101C700011971C928E179F07B9F70E944C0DEBCF5E
:101C800080E28C0F883068F4C77021E030E001C03A
:101C9000220FCA95EAF780919603822B80939603D0
:101CA000DFCFEBE5EC0FE33040F4F0E0E95CFD4F13
:101CB000808190E00E94A505D5CFE8E5EC0FE931E1
:101CC00050F4F0E0EE0FFF1FE65CFD4F8081918144
:101CD0000E948005C7CF83E38C0F833118F661E043
:101CE0008C2F0E94E30ABECF1F93CF93DF93182F50
:101CF000EB010E94180E209739F4812F0E94C70D26
:101D0000DF91CF911F9108958FE99FE00197F1F73F
:101D100000C000002197EFCF70E060E0893311F43C
:101D200060E570E00E94740E0895B0E0A0E0EBE979
:101D3000FEE00C94992DEC018AE0A82EFE0124917E
:101D4000222309F497C0213009F03EC031968491D6
:101D5000813031F42296FE0184910E948C0E07C0DE
:101D6000823039F42296FE0184910E94180E219649
:101D7000E5CF833031F42296FE0184910E94C70D95
:101D8000F6CF843009F074C02296FE01249190E0D1
:101D900080E0FE0131962053330B2A30310548F0A4
:101DA000019728F3EFE9FFE03197F1F700C0000059
:101DB000F7CFA89EA001A99E500D1124C901840F40
:101DC000951F2491EF01E5CFE22FF0E0EB5FF84F94
:101DD000B490822F86958695869590E0FC01EB5015
:101DE000F94FE4902770F12C022E02C0F594E7948D
:101DF0000A94E2F731E0E322FF24FC01EB51F94FB2
:101E0000C490D12C022E02C0D594C7940A94E2F754
:101E1000E1E0CE22DD24FC01EB52F94F049110E009
:101E200002C0159507952A95E2F701701127E11474
:101E3000F10419F081EE0E94180EC114D10419F0BA
:101E400086EE0E94180E8B2D0E948C0EC114D104B8
:101E500019F086EE0E94C70DE114F10419F081EE2D
:101E60000E94C70D0115110509F481CF8CE275CFD1
:101E7000EF017DCFCDB7DEB7EAE00C94B52DCF935F
:101E8000DF93EC010E943B0C9E01205E310928305B
:101E9000310540F40E94BD0D8C2F0E94180EDF9179
:101EA000CF9108950E94AF0DF7CF0F931F93CF935B
:101EB000DF938C01D0E0C0E0C99711F4C0E5D0E019
:101EC000C8010E943F0F209741F4C8010E94040EF0
:101ED000DF91CF911F910F9108958FE99FE00197B6
:101EE000F1F700C000002197EECFCF93DF93D82FFA
:101EF000C62F0E945A052091940230919502821BB0
:101F0000930BC29708F473C00E945A0590939502F0
:101F100080939402D1116FC0609163037091640348
:101F200090E080E00E94C90B833031F1843059F198
:101F3000823081F5C11111C089EA90E00E94550FED
:101F400089EA90E00E94550F89EA90E00E94550FBF
:101F500089EA90E00E94550F4AC08AEA90E00E9408
:101F6000550F8AEA90E00E94550F8AEA90E00E949D
:101F7000550F8AEA90E0EECF8CE191E0CC2351F34B
:101F80008DE191E0E7CF8FE499E0CC2319F380E570
:101F900099E0E0CFD0912403C11112C00E945A05EC
:101FA0009093230380932203D11106C082EE0E94F6
:101FB000180E81E0809324038BE20E948C0E17C0E0
:101FC0000E945A059093230380932203D11106C0E7
:101FD00082EE0E94180E81E08093240381EE0E941D
:101FE000180E8BE20E948C0E81EE0E94C70D80E0DD
:101FF000DF91CF910895D130D1F760916303709153
:10200000640390E080E00E94C90B833061F084306B
:1020100089F08230B9F480E596E0CC2309F49ACFB8
:102020008FE496E097CFCC2311F08CE3C6CF8CE3FE
:1020300092E090CF8BED90E0CC2309F48BCF8CED28
:1020400090E088CF80E593E0CC2309F483CF8FE440
:1020500093E080CF9091660392FB222720F9281706
:1020600079F080FB92F9909366036091650370911B
:10207000660384E090E00E94222E82E00E947D0AA6
:102080000895CF9310929603C6E0EEE8F2E0DF01E8
:102090008C2F1D928A95E9F790E080E00E94A505BB
:1020A00090E080E00E94800510929C030E944C0DFD
:1020B000E0E9F3E0DF011D92CA95E9F7109287038A
:1020C00010928A0310928B030E941F06CF910895ED
:1020D000AAE2B0E0EEE6F0E10C94A02D8BE294E0F1
:1020E0002091F100FC012193CF01F4E083339F079D
:1020F000B9F780912C04833009F470C0B8F48130B2
:1021000009F447C0823009F4B1C08091E80083FF30
:1021100039C180912B0490912C049A3008F032C17F
:10212000E92FF0E0E957FF4C0C94F02D8A3009F4C8
:102130008CC08B3009F46FC0893039F780912B0443
:10214000813219F780912F04909130040297E8F6BC
:102150008091E800877F8093E8008091E80082FF0B
:1021600038C09091F3008091F200029731F4809191
:10217000F100813011F0863021F48091F1008093DC
:1021800018048091E8008B778093E8000E94320465
:10219000BCCF80912B04813A09F0B7CF8091E80041
:1021A000877F8093E80080912F0490913004892BE1
:1021B00061F468E089E194E070E00E94DE048091BF
:1021C000E8008B778093E800A0CF60E090E080E0AB
:1021D000F3CF809129048111C0CF97CF80912B0438
:1021E000813A09F092CF80912F0490913004892B8D
:1021F00009F08BCF8091E800877F8093E800809181
:10220000E80080FFFCCF809136028093F10080913E
:10221000E8008E77B9CF80912B04813209F075CF19
:1022200080912F0490913004892B09F06ECF80911A
:10223000E800877F8093E8000E94320480912D049B
:10224000809336020E94411060CF80912B0481322E
:1022500009F05BCF8091E800877F8093E8000E94BF
:10226000320480912E04809317044FCF80912B0469
:10227000813A09F04ACF8091E800877F8093E80097
:102280008091E80080FFFCCF80911704BECF80389A
:1022900099F0823809F076C080912F048F708730D2
:1022A00008F070C08093E9008091EB0085FB8827DF
:1022B00080F91092E90006C08091210490912204D7
:1022C000911182609091E800977F9093E80080934D
:1022D000F1001092F1008091E8008E77CEC1882342
:1022E00009F4BBC1823009F04DC080912D048111E9
:1022F000BFC180912F048F702FEF280F263008F078
:1023000041C08093E9002091EB0020FFB1C19330E0
:1023100031F48091EB0080628093EB00A9C1909131
:10232000EB0090619093EB0021E030E001C0220FC0
:102330008A95EAF72093EA001092EA008091EB0078
:102340008860EACF81111EC010912D041F77809103
:10235000E3008078812B8093E3008091E800877F01
:102360008093E8000E9432048091E80080FFFCCF57
:102370008091E30080688093E30082E0111183E0A4
:10238000809329048091E80083FF0AC08091E800CF
:10239000877F8093E8008091EB0080628093EB0060
:1023A000AA96E3E00C94BC2D8058823058F78091B7
:1023B0002D0490912E048C3D23E09207A1F583E03B
:1023C0008A838AE289834FB7F894DE01139620E06E
:1023D0003EE051E2E32FF0E050935700E49120FFFC
:1023E00003C0E295EF703F5FEF708E2F90E0EA3010
:1023F000C0F0C7968D939D932F5F243159F74FBF3F
:102400008091E800877F8093E8006AE270E0CE0167
:1024100001960E94DE048091E8008B778093E800AB
:10242000B1CFC096E7CF40912F0450913004292FAF
:1024300033272330310509F445C078F521303105C3
:1024400009F497C08BE390E0ECE4F6E0223031052C
:1024500009F098CF2091E800277F2093E800209191
:102460003104309132048217930708F49C0140E054
:102470002115310509F08CC041118AC08091E80016
:1024800082FDC9CF80912904882329F2853019F271
:102490008091E80083FFF2CFBECF2132310509F4ED
:1024A0005CC02232310509F06DCF4115510509F4A8
:1024B0006AC04130510509F065CF8BE790E0E1E952
:1024C000F5E0C8CF209131043091320440912304CB
:1024D0004F5F409323043093280420932704223035
:1024E0003105B1F4209124042F5F2093240499270F
:1024F0008130910551F10097E9F0029709F042CF40
:10250000E9E9F6E0E4918E2F90E0E9E9F6E019C000
:102510002430310531F4209125042F5F20932504C8
:10252000E6CF2F3F310519F7209126042F5F209326
:102530002604DDCFE1EDF6E0E4918E2F90E0E1EDB1
:10254000F6E0009709F41ECF85CFE9EAF6E0E491C2
:102550008E2F90E0E9EAF6E0F4CF4115510571F0D5
:102560004130510509F00ECF89E090E0E7E7F6E051
:1025700071CF82E190E0E7E8F6E06CCF89E090E08F
:10258000EEE5F6E067CF80E490E0ECE0F6E062CFC5
:1025900080912904882309F43ECF853009F43BCF8C
:1025A0008091E80083FD37CF8091E80082FD66CFFF
:1025B0008091E80080FF5CCF9091F3008091F20061
:1025C0002115310519F08830910550F041E0089748
:1025D00009F040E08091E8008E778093E80048CFD2
:1025E00044914093F1003196215031090196E8CF92
:1025F000803809F0C7CE8091E800877F8093E8009B
:1026000080912A048093F10066CE8111BBCE109197
:102610002D04123008F0B6CE8091E800877F8093B9
:10262000E80010932A040E943204112311F084E080
:1026300005C08091E30087FDFACF81E080932904F3
:1026400042E061EC81E00E94510442E261EC82E0F0
:102650000E9451048091290495CE80912D048130EF
:1026600009F090CE81E0933009F080E0809322045D
:102670001092E9008091E800877F8093E8000E9433
:10268000320480CE0E9441102FEF84E39CE0215061
:1026900080409040E1F700C0000087E797E7909303
:1026A00001088093000888E19AE00FB6F894A89595
:1026B000809360000FBE90936000FFCFCF93DF93B5
:1026C000EC018432910548F4FC01EF56FF4C0C9468
:1026D000F02D83EE92E0611107C0DF91CF91089554
:1026E0006623D9F38BEC92E00E94950EF6CF86EB31
:1026F00092E0662391F3F8CF662379F38AEA92E0B9
:102700000E94950EC6E0D0E080E590E00E94550F53
:102710002197D1F7E2CF662301F382EA92E00E948B
:10272000950E80E590E00E94550F80E590E00E94B4
:10273000550F80E590E00E94550F80E590E00E94E3
:10274000550FCBCF662349F282E992E00E94950EA5
:10275000C8E0D0E080E590E00E94550F2197D1F7C6
:10276000BCCF662309F4B9CF82E892E00E94950EAF
:10277000C8E0D0E080E590E00E94550F2197D1F7A6
:10278000ACCF662309F4A9CF8AE692E00E94950EA9
:10279000C7E0D0E080E590E00E94550F2197D1F787
:1027A0009CCF662309F499CF8CE592E00E94950EA8
:1027B00080E590E00E94550F2197D1F78ECF6623D8
:1027C00009F48BCF8EE492E00E94950EC7E0D0E032
:1027D00080E590E00E94550F2197D1F77ECF6623C8
:1027E00009F47BCF8CE392E00E94950E80E590E0A7
:1027F0000E94550F2197D1F770CF662309F46DCF52
:1028000088E092E00E94950E8AE490E00E94550FC5
:102810008FE490E00E94550F2197D1F75ECF662399
:1028200009F45BCF8EE991E00E94950E8AE490E076
:102830000E94550F8FE490E00E94550F2197D1F729
:102840004CCF662309F449CF82E991E00E94950EAE
:1028500089E290E00E94550FC9E0D0E080E590E069
:102860000E94550F2197D1F787E091E00E94550F04
:1028700087E091E00E94550F8AE290E060CF8DE101
:1028800091E0662309F429CF5ACF8BE191E06623CA
:1028900009F423CF54CF86E091E0662309F41DCFDD
:1028A0004ECF89E191E0662309F417CF48CF89E143
:1028B00098E0662309F411CF42CF89E193E06623C3
:1028C00009F40BCF3CCF84E091E0662309F405CFF7
:1028D00036CF88E392E0662309F4FFCE30CF8EE155
:1028E00092E0662309F4F9CE2ACF84E392E06623CE
:1028F00009F4F3CE24CF8DE292E0662309F4EDCE05
:102900001ECF86E590E0662309F4E7CE18CF8EE26D
:1029100090E0662309F4E1CE12CF8FE192E06623C6
:1029200009F4DBCE0CCF662309F4D7CED091960301
:10293000C0911303109296030E947209CD2BC272AC
:102940008FE891E011F48CE891E00E94950E80E50B
:102950000E948C0ED0939603C0CE662309F4BDCEA0
:10296000809163039091640324E082270E94660AA9
:10297000B4CE86EA90E0662309F4AFCEE0CE6623BB
:1029800009F4ABCE0E94421383E590E0662309F47C
:10299000A4CED5CE662309F4A0CE85E490E0CFCEB8
:1029A0000E947D099ACE0E9441102FEF84E39CE0A3
:1029B000215080409040E1F700C0000088E19AE09B
:1029C0000FB6F894A895809360000FBE90936000B6
:1029D000FFCFB0E0A0E0EFEEF4E10C94982D7C0185
:1029E000FC0183819481892B31F08081918189233D
:1029F0008F3F09F04EC7CDB7DEB7EBE00C94B42D96
:102A000080E07BC7C034F2E5DF07C8F5C03222E5BD
:102A1000D207D0F5CE0190548115904108F44CC0F6
:102A2000CE018B7F813E910509F4A2C0C830FEE73C
:102A3000DF0709F080C0F7018281882309F47BC099
:102A4000C0919603809113038C2B827209F04FC0C2
:102A500082EE0E94180E80919602811106C08FE4CA
:102A60000E948C0E80E50E948C0E81EE0E94180E52
:102A70008FE40E94180E82E0809396025AC7CE011E
:102A8000805C9245809760F681E090E00C2E02C059
:102A9000880F991F0A94E2F720911D0330911E03BD
:102AA00082239323892B09F4BBCFF70182818823EA
:102AB00009F43FC78C2F3BC7F7018581807F09F060
:102AC000AFCF82818111ACCF2D2F2F7081E090E0AC
:102AD00002C0880F991F2A95E2F720911D033091BB
:102AE0001E0382239323892B09F49ACF22C7809156
:102AF000960281111BC0109296030E94720984E015
:102B000098E00E943F0F88E092E00E94550F84E019
:102B100098E00E94040E8AE40E948C0E8DE492E0FC
:102B20000E94550FC093960383E0A6CF81E50E94D3
:102B3000180E84E0A1CF80919602823069F030F4C3
:102B4000813009F441C01092960212C0833069F0BE
:102B50008430C9F781E507C08FE40E94C70D81EE7C
:102B60000E94C70D82EE0E94C70D81E080939602FD
:102B7000F701A280A11059C0009196031091130390
:102B8000CB30FEE7DF0709F4D7C140F5C9303EE797
:102B9000D30709F4AAC108F0BEC1C33792E4D9072C
:102BA00009F408C2C337FCE7DF0709F017C2F701D1
:102BB0008281882309F4BDC680919903882309F492
:102BC00046C20E94A50DB5C6C932D10509F0BBCFDA
:102BD0008FE40E948C0E10929602ABC6CE30EEE7C8
:102BE000DE0709F4F3C1CF30FEE7DF0709F428C29E
:102BF000CC302EE7D207B1F6F7018281882309F4A1
:102C000098C60E945A059093200380931F038091D9
:102C10002103811106C080EE0E94180E81E080938E
:102C200021038BE20E948C0E84C690909603892D1E
:102C30008D7D09F0A1CF4091270350912803609129
:102C4000290370912A032FB7F89480911204909170
:102C50001304A0911404B09115042FBF841B950B8D
:102C6000A60BB70B6E018E359140A105B105E8F4B6
:102C7000DD2400912503109126030331110509F489
:102C8000A1C008F050C00730110509F408C170F563
:102C90000530110509F4C9C008F08AC08091990374
:102CA00001151105B9F19092960383E1C816D1047C
:102CB00041F098E1C916D10421F0E7E0CE16D10425
:102CC00009F4A12C90929702D0922603C09225037A
:102CD0000E944E0560932703709328038093290375
:102CE00090932A03AA2009F424C646CF093011057F
:102CF00009F480C008F485C00D30110509F44EC0F8
:102D00000F30110581F6809199039DE0C916D10419
:102D100009F495C5882319F082E00E94A50980E096
:102D20000E948C0EC0CF0E32110509F492C0A8F497
:102D30000831110509F49BC00A31110509F46BC073
:102D40000631110509F0AFCF80919903F9E1CF1653
:102D5000D10401F716E0B12E74C50535110509F44B
:102D60007FC060F40435110509F09DCF809199036F
:102D700027E2C216D10409F469C0CCCF063511058B
:102D800009F45DC00735110509F08DCF80919903D5
:102D9000F7E2CF16D10409F459C0BCCF8091990352
:102DA000EFE0CE16D10409F0B5CF08E1B02E49C549
:102DB000809199032BE1C216D10409F0ABCFF6E163
:102DC000BF2E3FC53AE1C316D10409F43DC58CE2DC
:102DD000C816D10409F457C599E0C916D10409F4FD
:102DE00046C580919903882319F082E00E94A509C5
:102DF00083E196CF80919903EAE1CE16D104F9F2EE
:102E000089CF80919903F8E3CF16D10409F082CFDE
:102E1000E6E3BE2E16C58091990323E1C216D104C4
:102E200009F078CF75E1B72E0CC5809199033AE18E
:102E3000C316D10409F06ECF67E0B62E02C58091AB
:102E4000990397E2C916D10409F064CF5CE2B52E6C
:102E5000F8C480919903E7E2CE16D104B9F35ACFB2
:102E60008091990337E2C316D10481F353CF8CE2EA
:102E7000C816D10409F407C593E3C916D10409F4AF
:102E8000F9C4ECE1CE16D10409F4F7C4809199039A
:102E9000882319F082E00E94A50988E141CFFDE175
:102EA000CF16D10409F4ECC42CE2C216D10409F403
:102EB000EAC43BE1C316D10409F4E8C48091990344
:102EC000882319F082E00E94A50987E029CF82E0DB
:102ED0000E94A509802F0E948C0E82E00E94A50905
:102EE0008B2D0E948C0EA12CE0CEF70182818823CD
:102EF00009F41FC5109296030E947209102B1272DA
:102F000086E393E011F483E393E00E94950E80E55D
:102F10000E948C0E3BC0F7018281882309F409C509
:102F2000109296030E947209102B127280E393E0B4
:102F300061F78DE293E0E9CFF7018281882309F4FC
:102F4000F8C4812F802B827221F182E20E94AB09AA
:102F5000812F827261F01D7D1093130390E080E059
:102F600011110E945A0590931203809311038DEF63
:102F700092E00E94950EC9E1D0E080E50E948C0E9F
:102F80002197D9F780E593E00E94550F00939603AF
:102F9000D0C486EF92E00E94950E80E50E948C0ED0
:102FA00080E50E948C0E80E50E948C0E80E50E94D8
:102FB0008C0EADCFF7018581807F81F082818823DF
:102FC00009F4B7C482E00E949109B3C4F701828179
:102FD000882321F080E593E00E94550F10911303A0
:102FE00080919603182B80919903882399F10E9470
:102FF0005A0588579C4E9093980380939703F70146
:103000008281882309F453C01D7909F0AAC0C03415
:10301000F2E5DF0708F084C0C11522E5D20708F009
:1030200046C0C11530E4D30708F061C0C11580E285
:10303000D80708F08BC0C63ED105C9F1CE0162C0E9
:10304000F7018281882351F28FE493E0C5CF0E947B
:103050007D096FC4123211F40E947D09F70182814B
:10306000882329F1C13ED10521F0C23AF2E5DF07FC
:10307000D9F580919A02882371F0F70183819481B8
:103080002091980230919902821B930B8F3F9F47AA
:1030900010F00E947D0981E080939A02F7018381FC
:1030A000948188539F4F9093990280939802F701DF
:1030B0008281882309F42DC1CE019057839708F0AF
:1030C0004AC484E090E00E94FE2D909366038093B2
:1030D0006503FE01E150F047E232F10508F05CC003
:1030E000EB54FF4C0C94F02D10929A02E0CFC115D6
:1030F00090E5D90708F0A2CFF7018581807FB9F26A
:10310000CE01992710929C0388329105A8F58E3143
:103110009105C0F5049728F182E00E94A50932C00C
:10312000C43BE2E5DE0719F2CE01C53BF2E5DF075D
:1031300038F4805692458034910508F07FCFB7CFA0
:10314000805C9245809708F079CFB1CFF7018581F7
:10315000807FB1F68D2F8F71823159F028F4823043
:1031600041F00E94A50DA3CF843109F4A0CF863190
:10317000C1F710929C03F5CF8D32910569F228F4C6
:103180008A9779F70E944C0D92CF8C349105D1F338
:103190008D329240B9F3E5CF8091650381608093D1
:1031A000650395C0809166038860809366038FC035
:1031B000809165038260F3CF809165038460EFCFD7
:1031C000809165038860EBCF809166038160EDCFCD
:1031D000809166038260E9CF809165038061DFCFD3
:1031E000809165038062DBCF809165038064D7CFD7
:1031F0000E944110809165038068D1CF8091650362
:103200008C60CDCF809166038360CFCF80916503C2
:103210008E7FC5CF80916603877FC7CF809165037E
:103220008D7FBDCF809165038B7FB9CF8091650382
:10323000877FB5CF809166038E7FB7CF809166037D
:103240008D7FB3CF809165038F7EA9CF8091650379
:103250008F7DA5CF809165038F7BA1CF0E94411008
:10326000809165038F779BCF80916503837F97CF94
:10327000809166038C7F99CF8091650382FB9927AB
:1032800090F921E0922790FB82F990FB83F987CF98
:1032900080916603982F909591708E7F892B90FB7B
:1032A00081F983CF90916503892F8F7B96FF80648E
:1032B00076CF0E94411090916503892F97FB87F983
:1032C00080586DCF61E08EE090E00E94042E609106
:1032D00065037091660384E090E00E94222E0E94B4
:1032E000411027C360E0EFCF90916503892F8F7E57
:1032F00094FF806154CF90916503892F8E7F90FF5A
:1033000081604DCF90916603892F877F93FF8860FE
:103310004CCFC631DC4729F580919B0281110FC04B
:1033200089E2EEE8F2E024E932E09191891303C0EA
:10333000DF0111971C922E173F07B9F720C385E3D1
:10334000F0CFC3302CE7D20709F456C008F044C0D0
:10335000C1158CE7D80709F44DC0C130DC4709F42A
:1033600051C0F70186819781009709F459C00E94E6
:10337000E007D82FC92FF7011281D580D2942FE012
:10338000D222809108038770C1F0C12E1123B1F0C1
:10339000892F807F803421F080E28D0F883068F0A3
:1033A0008091660382FF09C082E00E947D0A8091BD
:1033B00008038770CC24C3948111C12CBC2EB29415
:1033C0009FE0B922FBE0FB1508F49BC0EB2DF0E079
:1033D000E952FF4C0C94F02DCB35ECE7DE07F1F011
:1033E000CC35FCE7DF0781F0CA35DC4709F0B9CFFF
:1033F00081E011C00E9442136FEF7FEF90E080E008
:103400000E94222E0E94D3148091660382FB88279B
:1034100080F991E089270E942A10A3CF80E0FBCF9A
:103420008281C081D181882369F0CE010E94BC09CC
:10343000182F682FCE010E94300ABE01812F0E94F2
:10344000C30795CFCE010E94FD09182FF6CF0C2F90
:103450000F70C07F11F00295007F1123A9F00023A7
:1034600069F080E28D0F883010F0D11109C0809191
:103470009603082B009396030E944C0D8D2F3FC09E
:10348000802F0E94A509F8CF8D2F0E94C70D002321
:10349000C1F180E28D0F883010F0D11104C0802F6F
:1034A0000E94AB0906C0009580919C0308230093FD
:1034B0009C030E944C0D25C00C2F0F70C07FC032A2
:1034C00011F00295007FDD2351F0D13009F464C082
:1034D000112309F46EC0DD2009F464C0CFCF8091C0
:1034E000660382FD37C0112379F1002339F0809102
:1034F0009603082B009396030E944C0D80E00E94D7
:10350000180EEB2DE850FF0B349710F40E943B0D82
:10351000CC20A9F08091080380FD11C0F701128230
:103520008595859585950E949D0AC7010E94E9149D
:10353000809108038595859585950E946B0A60E0CA
:10354000C7010E940B0C57CA80E00E94C70D0023E0
:10355000C1F2A5CF112371F080911303802BD110FC
:1035600003C00E94BD0DCDCF21E0D212FACF0E9440
:103570009109C7CFD11006C00E947209802F0E9406
:10358000B60DBFCF31E0D31609F4BBCF802F0E9418
:10359000B60D0E947209B5CF112331F085E08D156B
:1035A00008F4AFCF802FDDCF94E09D1508F4A9CFAC
:1035B000E5CFDD2019F3D93349F4EFEFF7EE23E03F
:1035C000E150F0402040E1F700C000008D2F0E9444
:1035D000C70D97CF8C2F86958695837069F08130C3
:1035E00009F08FCF8D2F9C2F9370111102C080E0B6
:1035F00090E00E94800585CF8D2F9C2F9370111134
:1036000002C080E090E00E94A5057BCF612F8D2F46
:103610000E94E30A76CF8C2F837009F03FC011110E
:1036200070CF4D2F429546954770440F440F2D2F74
:103630002F7030E0042E02C0220F331F0A94E2F7ED
:1036400090E080E0D4FF09C08FE090E002C0880FD6
:10365000991F4A95E2F780959095C695C695C370D7
:10366000C23099F078F44091610350916203C13007
:1036700039F0822B932B842395230E94AD0A41CFEE
:10368000242B352B822B932BF8CF822B932B20913D
:1036900061033091620382279327EFCF8695112330
:1036A00011F08C2F8170882309F42BCF4D2F429578
:1036B00046954770440F440F2D2F2F7030E0042E95
:1036C00002C0220F331F0A94E2F790E080E0D4FF9B
:1036D00009C08FE090E002C0880F991F4A95E2F779
:1036E00080959095C695C695C370C23099F078F4D0
:1036F0004091630350916403C13039F0822B932BC6
:10370000842395230E94660AFCCE242B352B822B22
:10371000932BF8CF822B932B20916303309164037A
:1037200082279327EFCFCF70112329F08C2F0E948F
:103730009D0A8D2F16CF8D2F0E94B60D8C2F0E94C3
:103740006B0ADFCED23F71F160F4D03FB9F0D13FC8
:1037500081F0112309F463C0D11090CE8C2F8F71AA
:1037600025C0D33F31F1D43FA1F78091660382FD9C
:103770002EC08C2F8F71112311F318C0112369F003
:1037800034E03D1508F4BDCECF7181E090E002C079
:10379000880F991FCA95E2F7BFCF85E08D1508F411
:1037A000B0CEF2CF8C2F8F711111C9CF0E949D0A1C
:1037B000A8CE90E080E0112309F4A4CFCF7181E07E
:1037C00090E002C0880F991FCA95E2F79BCF1123A2
:1037D000D9F0CF718C2F0E949D0A8091660382FFE1
:1037E00011C0E8E0CE9FC0011124836080930803DC
:1037F0008C2F0E949D0A0E945A0590930703809384
:1038000006037FCE8C2FD2CF81E00E947D0AF1E0AB
:10381000FD1508F076CE82E00E947D0A72CEDD2092
:1038200059F0D93309F0D2CE2FEF37EE83E0215093
:1038300030408040E1F7C8CE8C2F8F7180CF8EE072
:10384000B82E10E000E002C0B7E0BB2EA0909903B4
:10385000A1103DCB8091970280939603802F0E9408
:103860008C0E109296038B2D0E948C0E1ECAA7E11F
:10387000BA2EECCF4CE1B42EE9CF38E0B32EE6CF30
:1038800025E0B22EE3CF9CE2B92EE0CF8AE0B82E3D
:10389000DDCF61E0C7010E940B0CEC010E944E05D8
:1038A0006093190370931A0380931B0390931C0376
:1038B000209163033091640380911D0390911E0356
:1038C000A9014095509548235923452B31F0822377
:1038D000932390931E0380931D03CD30FEE7DF07F3
:1038E00009F090C8F7018281882319F1832F992765
:1038F000009709F485C89C0188E0A90174E05695F9
:1039000047957A95E1F74115510511F08C5F9A01C1
:10391000A90156954795569547954115510511F0C2
:103920008E5F9A0136952795232B09F08F5F0E94B1
:103930004C0C80910803877009F45DC8F7018281FF
:10394000882309F458C88091660382FF54C882E036
:103950000E947D0A50C8C631FCE7DF0709F0F1CCB0
:10396000809196038A7A91E009F490E090939B020B
:1039700069E2811165E38CE892E00E9466050E948D
:103980004C0DD7CFCF93DF938091C102807F09F098
:1039900049C08091BE02882309F444C08091050388
:1039A000D091C4026091BC027091BD02A091BF028F
:1039B000B091C002C62FC723D817A1F190E010978D
:1039C00011F0CF3F19F401968770F6CF9C0143E0C8
:1039D000220F331F4A95E1F7F901EB53FD4F418167
:1039E0004713F1CF40814613EECF42814111EBCF17
:1039F000438154814A1B5B0B483C510520F7809161
:103A0000C1028F7080618093C102F901E653FD4FBE
:103A100080818F70806180838CEB92E00E94E9143A
:103A20000E94B209DF91CF910895A5E1B0E0EBE1EA
:103A3000FDE10C94992D8C0185E0F801DE01519691
:103A400001900D928A95E1F7F801E2806CEBA62EC9
:103A500062E0B62E6091BF027091C00261157105DF
:103A600009F44BC19091BC024091BD02892F84237F
:103A70008F3F09F442C120813181C380D480F0900E
:103A8000BE02F601E61BF70BFF2009F411C180917D
:103A9000C102582F507FE83CF10508F0C4C0511115
:103AA00075C0FE2C43131EC092131CC06091C2024D
:103AB0007091C302F801468157816417750791F42C
:103AC000E11010C08F7080618093C102C5010E9417
:103AD000E9148091C102F80185838F2D6596EAE093
:103AE0000C94B52DC114D10429F0822F83238F3F6C
:103AF00009F01EC180E0F82FF170DF2E80FF3CC07E
:103B0000809105034091C402841315C0298B3A8B20
:103B100089899A890E94F009292F22952F702230D5
:103B2000F8F0243020F59F70F9F0F8019581907F2E
:103B3000D9F4D12C1FC090E0FC0153E0EE0FFF1F21
:103B40005A95E1F7EB53FD4F5181351306C0508173
:103B5000251303C05281E5120FC001968770D4CFA0
:103B60009F7011F0882329F3805E883010F3C8011C
:103B70000E94E914FD2CB1CFEE2009F4AECF809164
:103B8000C10281608093C102F12CA7CF43131BC0F7
:103B9000921319C04091C2025091C302F8012681CC
:103BA00037814217530779F4E1100DC08583C801AE
:103BB0000E94E91488E0F801ACEBB2E001900D92AC
:103BC0008A95E1F78ACFC8010E94B20A882339F1A9
:103BD000EE2029F18091C1028032A0F02091BC0238
:103BE0003091BD023A8729871B86DD86CC868E8779
:103BF0008091C2029091C302988B8F87CE01099663
:103C00000E94E91488E0F801ACEBB2E001900D925B
:103C10008A95E1F70E94C21CFF24F3945ECFC8018D
:103C20000E94E914F9CF51110AC08CEB92E00E9476
:103C3000E91488E0F50111928A95E9F7A5CF4313BD
:103C400018C0921316C04091C2025091C302F801ED
:103C5000268137814217530761F4E1100AC085833A
:103C6000C8010E94E91488E0F50111928A95E9F7EC
:103C700034CFC8010E94B20A882389F2EE2079F27B
:103C80008091C102803208F4BDCF2091BC023091F6
:103C9000BD023A8329831B82DD82CC828E83809190
:103CA000C2029091C30298878F83CE010196A8CF5C
:103CB000E83CF105C0F6FE2CEE2009F4B0CF43132A
:103CC0000EC092130CC02091C2023091C302F801C1
:103CD000868197812817390711F488E06DCFC801D4
:103CE0000E94B20A81118ECF8091C10281608093BF
:103CF000C102C8010E94E914F0CEEE2009F48FCF72
:103D0000C8010E94B20AF82E882309F488CF88E0FF
:103D1000F801ACEBB2E001900D928A95E1F7809149
:103D2000BC029091BD020E94F0090E94C21CD5CE37
:103D300081E08E25E0CEA0E1B0E0E1EAFEE10C9466
:103D4000A12D29873A874B875C876D877E878F8770
:103D5000988BCE0109960E94151D811112C088E032
:103D6000FE013996DE01119601900D928A95E1F7D8
:103D70008C859D85892B29F089859A8589238F3F9C
:103D800081F5809105039091C402891317C0609654
:103D9000E2E00C94BD2D93E0AA0FBB1F9A95E1F7CA
:103DA000AB53BD4F98E0FE01319601900D929A956C
:103DB000E1F78093C4020E94B209E3CFB8E08B9F81
:103DC000C00111248B539D4F0E94151D8823F9F2C9
:103DD0008091050390E001968770992780930503F1
:103DE000D0CFA091C402B0E0CD0101968770992791
:103DF000209105032817190671F60E9441101092B0
:103E0000C4021092050388E0ECEBF2E0DF011D92A2
:103E10008A95E9F7B6CF0F931F93CF93DF938091E5
:103E20009E03E0919D031CE081111AC0DF91CF91A8
:103E30001F910F91089501E00E0F00939D03CE2F67
:103E4000D0E0E19FF0011124E156FC4F8381948181
:103E5000892B29F08081918189238F3FF9F4E02F0C
:103E600080919E03E81738F310929E0310929D03F1
:103E7000DDCF18968D919C918F3F9807E1F061E01E
:103E80000E945E131C9FF0011D9FF00D1124E1564E
:103E9000FC4F1482138210929C03E1CF1C9FD0012F
:103EA0001D9FB00D1124A156BC4F16968D919C916B
:103EB0001797892BF1F220813181428153816481EE
:103EC0007581868197810E949B1EDCCF10920A0427
:103ED000109209041092350280910804809307041F
:103EE0000E94F8050E940B1F0895B0E0A0E0EBE7E8
:103EF000FFE10C94912DC0910704E7E0FE2E01E054
:103F000010E0FCE02F2EAEEFEA2E809108048C1317
:103F100009C00E940B1F0E94F805CDB7DEB7E2E191
:103F20000C94AD2DD0E0FE01EE0FFF1FE150FC4FD1
:103F300080819181F89EF001F99EF00D1124E75CDB
:103F4000FE4F2481211159C030909E03AFE9B3E0A8
:103F500030E020E0412C5F01231508F04CC01A9698
:103F60006D907C901B97F501808091804FEF5FEF03
:103F7000512CC52CD12CF601EE0FFF1FE80DF91DB9
:103F8000659174916616770609F4A601672B11F006
:103F90005394EFCF4F3F5407B9F1B80102C0660FF9
:103FA000771F4A95E2F7462AA801052C02C0440F64
:103FB000551F0A94E2F7415051094416150601F5C0
:103FC000229EF001239EF00D1124E156FC4FF89E35
:103FD000D001F99EB00D1124A75CBE4F12962D9111
:103FE0003C91139737832683E082E1829187808713
:103FF00071E015967C930E94CA052196C37085CF07
:1040000014961C921E9213972F5F3F4F1C96A4CFBD
:10401000A9E1B0E0EEE0F0E20C94912D498B5A8BCF
:104020006B8B7C8B8D8B611110929C031D861E8681
:104030001F86188A85E0FE017196DE0119960190AF
:104040000D928A95E1F78091660382FF1CC00E9461
:104050005A052091060330910703821B930B883E7B
:10406000934020F08091080382FFF2C10E945A051C
:104070002091110330911203821B930B883E9340D1
:1040800010F00E9472098C859D85892B31F08985FD
:104090009A8589238F3F09F0C9C129853A854B85C7
:1040A0005C856D857E858F8598890E949B1EC7C023
:1040B00081354CE7940731F48B85882371F00E9499
:1040C000661FEBCF82359C4741F48B85882329F00E
:1040D000809135028111F3CFB7C169857A8580E07F
:1040E0000E94C3074C0109E311E0E12CD12CC12C43
:1040F000AA24A394B12C9EEF592E44244394F80192
:104100006081718166246A94762C20E0422F50E011
:10411000FA01EE0FFF1FE60FF71F859194918816A5
:10412000990609F43A01892B11F02F5FEFCFF12C9A
:10413000FFEF6F167F0609F444C0F8014481F09048
:1041400035028F2D411180E0F82FF170FF2EF8011C
:10415000258086819B85992309F4F2C0FF2009F40C
:10416000EFC0211014C0A501062C01C0440F0A9411
:10417000EAF7842B868380919A0390919B0388971A
:1041800030F448E250E050939B0340939A03C501FA
:1041900002C0880F991F2A95E2F70197F80126813E
:1041A0002817190671F48091090490910A04009768
:1041B00009F449C00E943F05899708F444C0F801FA
:1041C0004482EF28FFEFCF1ADF0A095F1F4F24E276
:1041D000C216D10409F093CF8B85882309F411C14D
:1041E000EE2009F40EC10E945A0590930A048093B0
:1041F000090480919E03883010F591E0980F909308
:104200009E0398E0FE013996DE01119601900D9211
:104210009A95E1F73CE0839FC001112481569C4FA1
:1042200028E0FE013196DC0101900D922A95E1F71C
:104230002FEF3FEFFC0131872087938682866996B6
:10424000E2E10C94AD2D8091070460900804982F52
:10425000F0E0E0E0861114C0909307040E171F07EA
:1042600009F4AFCF90E0FC01EE0FFF1FE150FC4FCF
:10427000D182C08201968370992780930804A1CFD0
:10428000282E312CF101EE0FFF1FE150FC4F208151
:104290003181F7E0F29FD001F39FB00D1124A75CAC
:1042A000BE4F2D913C911197398F288F712C60E072
:1042B00070E0E72FF0E0EE0FFF1F288D398DE20F41
:1042C000F31F2591349121153105E1F0F80101909A
:1042D000F081E02DFF8BEE8B60E005C024173507E1
:1042E00009F47F2C6F5FE62FF0E0EE0FFF1F4E8981
:1042F0005F89E40FF51F459154914115510571F700
:104300007F5FD7CF7720C9F0F801671708F0FD016C
:104310004482E017F10721F490930704F72C51CF62
:10432000891305C0EA17FB0711F49F5F9370910191
:104330002F5F3F4F822F83708DCFF0E0E0E0F7CF0B
:1043400090E0211020C0B50102C0660F771F2A95AA
:10435000E2F79B01215031092817390731F4442332
:1043600009F44DC0C6010E94CA05C501062C01C052
:10437000880F0A94EAF7982F9095F801868189238F
:104380008683F22C1ECF9C01062C02C03595279502
:104390000A94E2F7A90141705527BC0161507109E7
:1043A00086239723892B39F5452B29F1F801828142
:1043B0009381892BD9F01B821C821D821E82598217
:1043C0005A820E945A058160582F9D838C83F80180
:1043D000828193818F83988729813A814B816D8176
:1043E0007E810E949B1EF8011582BFCF60E0C6014E
:1043F0000E945E13F8CFF22FF1702F2EB6CF2F2C24
:10440000B4CF9091070480910804981731F00E946E
:10441000751FEE2009F441CE12CF0E940B1F10929F
:104420000A04109209040E94F805F3CF61E0CE015E
:1044300009960E940B0C8035FCE79F0709F038CEE7
:104440008B85882309F449CE81E08093350225CEFF
:1044500082E00E947D0A0ACEAFE0B0E0E2E3F2E241
:104460000C94962D8E010F5F1F4F8AE0D8011D928C
:104470008A95E9F78EE6C82E82E0D82EF12CE12C41
:10448000AA24A394B12C29E7822E22E0922EF601D1
:1044900081916F018F3F09F442C0F894E82FE295B3
:1044A000EF70F0E021A18F70A50102C0440F551FED
:1044B0008A95E2F7CA01922F982B91A392A1809539
:1044C000892382A3789400C0E3E7F2E0712C31E005
:1044D00021912F3F09F46BC0A22FA295AF70B0E0DD
:1044E00090968C9190E02F7002C0959587952A95B3
:1044F000E2F780FD5CC0832F782A330F8E169F066B
:1045000039F7F601319780818F3F11F00E946907DA
:1045100050EA5A95F1F7F801EE0DFF1D70828FEF0A
:10452000E81AF80A95E0E916F10409F0B0CF4AE07C
:1045300050E0B80185E593E00E946F30009741F0AC
:104540002AE0F801A5E5B3E001900D922A95E1F784
:1045500000916003892B69F181E0809316030E942A
:104560005A0590931503809314038091140390913E
:1045700015030E943F05059700F110E007591C4FF5
:1045800045E050E065E573E0C8010E946F30C12C42
:10459000892B51F085E0E5E5F3E0D80101900D921B
:1045A0008A95E1F7CC24C3941092160307C080E0EB
:1045B000A3CF809116038111D8CFC12C0E94180D72
:1045C000D82EE0916003DE011B967D01882309F45B
:1045D0002DC185E01D928A95E9F70E2F10E007594D
:1045E0001C4F80914E038A3008F0A1C047ED55E280
:1045F000B701C8010E94E50C882309F4BBC04EE74F
:1046000055E2B701C8010E94E50C882309F4B2C045
:1046100040E754E2B701C8010E94E50C882309F481
:10462000A9C010924E0380915F0390E045E050E0F6
:10463000B70187599C4F0E946F3021E020932F03D0
:10464000892B09F08AC0D12C80911D0390911E0303
:10465000892BC1F14091190350911A0360911B03FA
:1046600070911C032FB7F894809112049091130459
:10467000A0911404B09115042FBF841B950BA60BB9
:10468000B70B813C944DA140B105E0F080911D0332
:1046900090911E038095909520916303309164035F
:1046A000822393230E94660A10921E0310921D0318
:1046B0000E944E056093190370931A0380931B03A5
:1046C00090931C0340912703509128036091290384
:1046D00070912A032FB7F8948091120490911304DB
:1046E000A0911404B09115042FBF841B950BA60B49
:1046F000B70B8E359140A105B10508F464C08091D7
:104700002503909126038331910509F444C0883133
:10471000910509F482C0079709F047C08091990379
:10472000882319F082E00E94A50987E03CC08091AF
:104730001703909118030E943F05843F914008F0B1
:1047400055CF80912F03882309F47DCF85E0F701B1
:1047500011928A95E9F710922F03A0915F03B0E0C0
:10476000A759BC4F85E0FE013B9601900D928A95BA
:10477000E1F76ACF80914E038F3F31F08F5F8093D6
:104780004E038A3008F44FCF0E945A0590931803C5
:1047900080931703D6CF80919903882319F082E084
:1047A0000E94A50983E10E948C0E0E944E05609331
:1047B0002703709328038093290390932A03109270
:1047C00026031092250380912403882371F08091A1
:1047D0002203909123030E943F058132934028F0E9
:1047E00082EE0E94C70D109224038091210388233A
:1047F00071F080911F03909120030E943F05813248
:10480000934028F080EE0E94C70D109221038D2D59
:104810008C292F96EDE00C94B22D8091990388237A
:1048200019F082E00E94A50988E1BDCFF0E0E759C8
:10483000FC4F85E0AFE3B3E001900D928A95E1F77C
:1048400065E070E08FE393E00E94090680933E03E9
:104850004091830350E06091820370E062587C4F86
:10486000C7010E947C308B858093450361E070E036
:10487000C7010E94090680934403809046039090EC
:104880004703A0904803B090490380912B03909177
:104890002C03A0912D03B0912E0388169906AA0629
:1048A000BB0611F4D12CB3CF80922B0390922C0332
:1048B000A0922D03B0922E030E94180DD82E8111C4
:1048C000F1CF0E944E05861A970AA80AB90A80926B
:1048D0004F0390925003A0925103B092520397CF8E
:1048E000A4E0B0E0E6E7F4E20C949F2D40914A0387
:1048F00050914B0360914C0370914D032FB7F89486
:104900008091120490911304A0911404B0911504A5
:104910002FBF841B950BA60BB70B11E084369105B6
:10492000A105B10590F10E94180D882399F10E940C
:104930004E056E5F7F4F8F4F9F4F69837A838B83C6
:104940009C838091210190912201825C9C4F409137
:10495000200150E04530510510F044E050E0BE0128
:104960006F5F7F4F0E947C3084E090E00E941B2D9F
:10497000182F882351F00E944E0560934A037093CC
:104980004B0380934C0390934D03812F2496E4E0D6
:104990000C94BB2D0E944E0500914F0310915003C3
:1049A0002091510330915203600F711F821F931F9A
:1049B000C0CF4F925F927F928F929F92AF92BF92A1
:1049C000CF92DF92EF92FF920F931F93CF93DF93DB
:1049D0000F92CDB7DEB7C62E4A015901482E880F77
:1049E0005508C2010E941B2D782E882309F480C02F
:1049F000C20133E0880F991F3A95E1F7FC01E050BE
:104A0000FF4F438150E04115510511F041E050E066
:104A100080509F4FFC0164817581625C7C4FCE01A8
:104A200001960E947C30F401408151816281738142
:104A30002FB7F8948091120490911304A09114045C
:104A4000B09115042FBF841B950BA60BB70B8436B2
:104A50009105A105B10540F4B701C8010E940906FE
:104A60009981891709F444C00C2C000CDD08C6019B
:104A70000E941B2D782E811113C0712C872D0F9051
:104A8000DF91CF911F910F91FF90EF90DF90CF902A
:104A9000BF90AF909F908F907F905F904F900895C0
:104AA000C60123E0880F991F2A95E1F7FC01E05029
:104AB000FF4F438150E0E416F50608F4A70180504B
:104AC0009F4FFC0164817581625C7C4FC5010E942F
:104AD0007C30B701C8010E94090699818913CDCFA6
:104AE0000E944E05F4016083718382839383C6CF55
:104AF000A701B801C5010E947C30C0CFA1E0B0E0A1
:104B0000E4E8F5E20C949A2DEE24E394F12C05E40C
:104B100013E09E012F5F3F4F4AE353E063E082E0E2
:104B20000E94D924C82E882339F100E080E01DC0FE
:104B3000D0905403D00E2D2D30E0A90142585C4F87
:104B40007A01E1E0F0E0EC0FFD1FE00FF11D1081B4
:104B5000FA019081191BB12E1B149CF0912F17FDA7
:104B600090E0191B111118C00F5F909153030917A2
:104B7000F8F281110E946F098C2D2196E9E00C94C6
:104B8000B62DBA94F70180818F5F808360E08D2D10
:104B90000E94750F8C2DE0CF1F5FF701808181503F
:104BA000808361E08D2D0E94750F8C2DDBCFA5E0F9
:104BB000B0E0EDEDF5E20C949B2D6B0185E0E82E65
:104BC000F12C0FE313E09E012F5F3F4F46E353E0CC
:104BD00061E080E00E94D924882349F095E0FE013D
:104BE0003196A1E3B3E001900D929A95E1F795E03B
:104BF000E1E3F3E0D60101900D929A95E1F7259655
:104C0000E8E00C94B72D1F920F920FB60F9211246B
:104C10002F933F934F935F936F937F938F939F93C4
:104C2000AF93BF93CF93DF93EF93FF93D091E900BE
:104C3000DF708091EC00C82FC17080FDC0E8109239
:104C4000E9008091F000877F8093F00078940E94C3
:104C500068101092E9008091F00088608093F00065
:104C6000CD2BCF70C093E900FF91EF91DF91CF91F1
:104C7000BF91AF919F918F917F916F915F914F9174
:104C80003F912F910F900FBE0F901F9018951F927C
:104C90000F920FB60F9211242F933F934F935F9370
:104CA0006F937F938F939F93AF93BF93EF93FF93F4
:104CB0008091E10082FF09C08091E20082FF05C07F
:104CC0008091E1008B7F8093E1008091DA0080FF8A
:104CD00024C08091D80080FF20C08091DA008E7FB0
:104CE0008093DA008091D90080FF9DC080E189BD6A
:104CF00082E189BD09B400FEFDCF81E080932904E3
:104D000080911604811109C00E94E2030E9483046D
:104D10008091E20084608093E2008091E10080FF56
:104D200017C08091E20080FF13C08091E2008E7F67
:104D30008093E2008091E20080618093E2008091A4
:104D4000D80080628093D80019BC85E08093290444
:104D50008091E10084FF2BC08091E20084FF27C096
:104D600080E189BD82E189BD89B5982F917080FF6E
:104D7000FBCF8091D8008F7D8093D8008091E10097
:104D80008F7E8093E1008091E2008F7E8093E2002D
:104D90008091E20081608093E20080912A04882360
:104DA00009F447C084E0809329048091290480910C
:104DB000E10083FF27C08091E20083FF23C0809140
:104DC000E100877F8093E10082E0809329041092C4
:104DD0002A048091E1008E7F8093E1008091E200BF
:104DE0008E7F8093E2008091E20080618093E200F8
:104DF00042E060E080E00E9451048091F000886011
:104E00008093F000FF91EF91BF91AF919F918F91AF
:104E10007F916F915F914F913F912F910F900FBEB6
:104E20000F901F90189519BC109229041092160427
:104E300074CF8091E30087FD93E090932904B5CF70
:104E400078941F921FB61F9211248F939F93AF9354
:104E5000BF938091120490911304A0911404B09117
:104E600015040196A11DB11D8093120490931304A3
:104E7000A0931404B0931504BF91AF919F918F91AB
:104E80001F901FBE1F9018951F921FB61F921124CE
:104E90008F939F93AF93BF9380911104811113C09F
:104EA0008091120490911304A0911404B091150400
:104EB0004196A11DB11D8093120490931304A093F9
:104EC0001404B0931504BF91AF919F918F911F90DF
:104ED0001FBE1F901895CDB7DEB760970FB6F89438
:104EE000DEBF0FBECDBF85B7806885BF85B7806840
:104EF00085BF84B7877F84BF0FB6F894A89580914B
:104F00006000886180936000109260000FBE80E8AE
:104F100090E00FB6F89480936100909361000FBE0B
:104F200087E697E090938B0280938A020E94E203C7
:104F30000E9483048091E20084608093E200789470
:104F4000809129048823A1F01091E9001F709091AD
:104F5000EC00892F817090FD80E8182B1092E900F9
:104F60008091E80083FD0E9468101F701093E90093
:104F700082E084BD93E095BD9AEF97BD80936E006B
:104F800010924F031092500310925103109252034B
:104F90000E94180D809328010E94180D81110E9413
:104FA0002F2C9091280181E0982790938203282F3D
:104FB000291B20935403909128018093830390919F
:104FC00028018093530380912801811106C084EF4A
:104FD0008093340185EF8093330182E08093320126
:104FE00020913401E22FE295EF70F0E061A12F7083
:104FF00081E090E0AC0101C0440F2A95EAF7342F1C
:105000003095362331A322A1242B22A320913301F2
:10501000E22FE295EF70F0E031A12F7001C0880F10
:105020002A95EAF7982F9095932391A392A1892B23
:1050300082A38FE891E00197F1F700C00000109182
:10504000830364E873E044E351E083E3E82E81E006
:10505000F82EFB0128C0DA012D91AD01822F829537
:105060008F7090E0DC0190968C9190E02F7002C0E0
:10507000959587952A95E2F78170D7019D917D01DD
:10508000292F22952F7030E0D90190962C9130E095
:105090009F7002C0359527959A95E2F790E020FD24
:1050A00092E0892B81938E2F861B8117A0F280912D
:1050B00028018091280195E0811190E09093600390
:1050C00085E0891B80935F030EE612E063E7E62E1E
:1050D00062E0F62EF80181918F018F3F11F00E945E
:1050E0006907E016F106B1F703E712E059E7E52E8C
:1050F00052E0F52ED8018D918D018F3F11F00E9465
:105100006907E016F106B1F78AE0E9E6F3E0DF01AE
:10511000282F1D922A95E9F7E5E5F3E0DF011D92BE
:105120008A95E9F790E080E00E94FE2D873E9E4F31
:1051300009F45EC067EE7EEF90E080E00E94222ED0
:1051400060E082E090E00E94042E60E083E090E066
:105150000E94042E109262031092610360E074E1D9
:1051600084E090E00E94222E60E086E090E00E94C1
:10517000042E6FEF87E090E00E94042E40E050E0A4
:10518000BA0188E090E00E94162E60E08DE090E089
:105190000E94042E40E050E0BA0188E190E00E94B5
:1051A000162E60E087E190E00E94042E40E050E07F
:1051B000BA018CE190E00E94162E70E060E080E27F
:1051C00090E00E94222E40E050E0BA0188E190E099
:1051D0000E94162E40E050E0BA018FE090E00E945D
:1051E000162E40E050E0BA0183E190E00E94162EB6
:1051F00082E090E00E94F62D8093730384E090E0BB
:105200000E94FE2D909366038093650383E090E0F7
:105210000E94F62D90E00E94AD0A0E94180D8111A7
:1052200002C00E94322C89E291E090930E04809398
:105230000D0438E1C32ED12C43E7A42E43E0B42E55
:105240002EE7822E23E0922E8091290400E112E1C4
:10525000853009F47EC00E942C2204E713E099E611
:10526000E92E93E0F92ED701F80191918D918E16D8
:105270009F0609F478C09817C1F30E94180D282ED4
:10528000712CD7016D907D01F80131908F0136149A
:1052900029F13624512C44244394832D8421B1F0E8
:1052A0002220A1F05C867D8691E0862D842109F480
:1052B00090E09E870E945A058160782F988B8F8797
:1052C0004C855D856E8588890E9408205394440C26
:1052D000F6E05F12E2CFF8013197608273942AE022
:1052E0007212CFCF0E944E055EC080912904843097
:1052F00011F110921104E0E40FB6F894A895C09251
:1053000060000FBEE093600083B7817F846083BF3D
:1053100083B7816083BF7894889583B78E7F83BF7E
:105320000FB6F894A8958091600088618093600022
:10533000109260000FBE80912204882351F00E94D9
:105340002C22E9E6F3E08191811111C2AE16BF066D
:10535000D1F780912904853009F4C7CF0E9441100C
:105360000E943B0D78CF981388CF0E945A058C017C
:10537000809167039091680308171907A1F08FEFD8
:105380008F83888719860E945A058160782F9B87B2
:105390008A874F81588569858B850E9408201093E4
:1053A0006803009367030E94180D8823A9F1809178
:1053B0003502882301F18091090490910A04009735
:1053C000D1F00E943F0520919A0330919B0328174A
:1053D000390788F49091070480910804981709F41C
:1053E00015C10E94751F10929B0310929A03109290
:1053F0000A041092090480919903882369F00E949D
:105400005A052091970330919803821B930B8F3F8D
:105410009F4710F40E94A50D612C512C80918303AD
:10542000681608F4FCC051100E946F0986E0E0E99C
:10543000F3E0DE01119601900D928A95E1F710924A
:1054400092031092930310929403109295038B8110
:105450009C81892B09F44DC080918E0390918F031C
:105460000E943F059C0190918703992309F499C1FB
:105470002930310508F43DC09F3F19F09F5F90939C
:1054800087038B81882361F00E94D5069B811916C2
:105490000CF455C19FEF899F802D112480939203B6
:1054A0008C81882361F00E94D5069C8119160CF42A
:1054B00048C19FEF899F802D1124809393033091E1
:1054C00092033323B1F020919303222391F045EB13
:1054D0003403C0011124992309F435C19093920338
:1054E00045EB240390011124332309F430C1309398
:1054F00093038D819E81892B09F45AC080918C037E
:1055000090918D030E943F0510918A03112309F4A5
:1055100044C1BC0190E080E00E944B2F20913501F6
:105520003091360140913701509138010E94FD2F92
:1055300018160CF03DC01F3F19F01F5F10938A032F
:105540008D81882361F00E9446069D8119160CF416
:1055500002C19FEF899F802D1124809394038E8137
:10556000882361F00E9446069E8119160CF4F5C04E
:105570009FEF899F802D1124809395033091940390
:105580003323B1F020919503222391F045EB3403AE
:10559000C0011124992309F4E2C09093940345EBD0
:1055A000240390011124332309F4DDC030939503C3
:1055B00046E050E0BE016F5F7F4F80E993E00E94BC
:1055C0006F30892B61F48091920390919303892B22
:1055D00090919403892B90919503892B11F00E944F
:1055E0001F0686E0FE013196A0E9B3E001900D921E
:1055F0008A95E1F70E943B0D90918603891709F483
:1056000023CE809386030E944E051ACE0E940B1F64
:1056100010920A04109209040E94F805ECCE062D9F
:1056200010E0F801EC5CFE4F8081E82FE295EF700E
:10563000F0E0E0A1F0E08F7002C0F595E7958A9563
:10564000E2F7E170D801AD5CBE4F2C91A22FA2957C
:10565000AF70B0E090968C9190E02F7002C095955D
:1056600087952A95E2F780FD62C080E08E2BD801F5
:10567000AC57BC4FEC919E2F9370891709F455C01D
:10568000EE0FEE0FE82BEC93D801AF5CBE4FEC9021
:1056900070908203760CEF70F0E0E758FD4F0058F1
:1056A0001C4F8081D8019C91890F8C93F12C082E7E
:1056B000000C990B412C8E159F0584F0E72DF0E02E
:1056C000E258FC4F80818F5F80830E94180D482E26
:1056D000882379F160E0872D0E94750FF8018081A1
:1056E000082E000C990B222733272E193F09281763
:1056F000390784F0E72DF0E0E258FC4F80818150BB
:1057000080830E94180D482E8823B1F061E0872D18
:105710000E94750FD8018C91082E000C990BB701CF
:105720000E94DC2DF80180835428639477CE82E0B8
:105730009DCF44244394D2CF44244394EBCF91E0B3
:10574000AACE91E0B7CE81E080939203C9CE81E0EA
:1057500080939303CECE91E0FDCE91E00ACF81E01D
:10576000809394031CCF81E08093950321CF09BDE2
:1057700019BD09B400FEFDCF8091D8008F7D8093C4
:10578000D8008091E00082608093E0008091E0008A
:1057900081FDFCCF0E944110DCCD0B9708F0CDCEEF
:1057A00007CF232B09F06ACEA4CE8EE14A9B02C01C
:1057B0008150E1F74A9BFECF08955A9880E28A957E
:1057C000F1F75A9A0895FC013BE03A95F1F798E019
:1057D00020E080E031E040E14A95F1F7880F4A9BF4
:1057E00002C08160232742E04A95F1F7000040E1C2
:1057F0004A95F1F7915079F790E19A95F1F799B1BF
:1058000032E03A95F1F7000040E14A95F1F792FB5A
:10581000992790F992272081920F90830895A1E013
:10582000B0E0E5E1FCE20C949D2D19828C017C0135
:10583000E60EF11C0E151F0541F481E099819111CE
:1058400080E02196E6E00C94B92D0E94D52BCE0184
:1058500001960E94E32BF80181938F01EBCF529ABE
:105860005A9A089552985A9AEA9AE9E6F0E08081A5
:105870008F7C808308956150770B91E001C0990F70
:105880006A95EAF720E031E0911108C0222391F0F7
:105890005A9A80E28A95F1F75A980895492F482339
:1058A00039F05A9A232740E24A95F1F79695ECCFC2
:1058B0005A98F9CF5A98EDCFFF920F931F93CF9339
:1058C000DF93EC018C01060F111DC017D10729F4DD
:1058D000CDB7DEB7E5E00C94BA2DF9900E94DD2B30
:1058E00068E08F2D0E943B2CF0CF1F920F920FB6D5
:1058F0000F9211240F931F932F933F934F935F9316
:105900006F937F938F939F93AF93BF93EF93FF9387
:10591000CF93DF930F92CDB7DEB719820E94D52BBC
:10592000CE0101960E94E32B082F06950695069559
:10593000282F22952570902F9570290F922F937004
:1059400026952695920F982797708981982B09F0B4
:105950005CC0063008F059C080E18A95F1F75A9A88
:10596000529A82E08A95F1F700C05A9888E0089F21
:1059700080011124D801A050BF4F1696ED91FC91E3
:1059800017973097A9F060916C0270916D02149690
:105990002D913C911597260F371F11968D919C9153
:1059A0001297680F791F13964C9113978C91099554
:1059B000F801E050FF4F6381662351F020916C02A3
:1059C00030916D0284819581820F931F0E945C2C1F
:1059D0000E94DD2B80E18A95F1F75A9852985A9AE5
:1059E00080E18A95F1F7F801E050FF4F608166236E
:1059F00051F020916C0230916D0281819281820F71
:105A0000931F0E940F2C0E94D52B0F90DF91CF91F6
:105A1000FF91EF91BF91AF919F918F917F916F9186
:105A20005F914F913F912F911F910F910F900FBE5A
:105A30000F901F9018950F931F93CF93DF93EC0156
:105A400006970CF04CC0F894529A5A9885E08A95C3
:105A5000F1F700009C2F969595708C2F8570980F0C
:105A6000892F83709695969523E0CC0FDD1F2A959C
:105A7000E1F7980F8E01092B0E94DD2B00C068E032
:105A8000802F0E943B2C80E18A95F1F752985A9A18
:105A90004A9B1EC087E090E04A991CC0FE01E0507E
:105AA000FF4F63816623F9F020916C0230916D0203
:105AB00084819581820F931F0E940F2C811113C046
:105AC000529A5A9A7894DF91CF911F910F9108952D
:105AD00000C0DECF019729F4529A5A9A789480E058
