:100000000C94B7030C94D4030C94D4030C94202CBC
:100010000C94D4030C94D4030C94D4030C94D40304
:100020000C94D4030C94D4030C94F2250C94AE25B8
:100030000C94EF260C94D4030C94D4030C94D403A6
:100040000C94D4030C94D4030C94D4030C94D403D4
:100050000C94D4030C94CB260C94D4030C94D403AA
:100060000C94D4030C94D4030C94D4030C94D403B4
:100070000C94D4030C94D4030C94D4030C94D403A4
:100080000C94D4030C94D4030C94D4030C94D40394
:100090000C94D4030C94D4030C94D4030C94D40384
:1000A0000C94D4030C94D4030C94D403E1003132A7
:1000B00000003A003B0000000F0018001C00000088
:1000C0002A003431313200003B004200430044003A
:1000D00000002C42282800000B003600000017000A
:1000E0000A00000008000C00000018001C000000BE
:1000F0003600370000001200343100003800313281
:1001000000003700380000001D28070000001B0019
:10011000190000001B000700000006000700000097
:100120001B00060000001D281B0000000900130032
:1001300000001A00090000000A0037000000160045
:1001400037000000090037000000040037000000FD
:100150001B00370000001500370000001A003700B0
:1001600000001400370000000700370000001700EF
:100170003700000013003700000008000D000000E9
:100180001000110000000D000F00000022220027C7
:1001900027003C5441473E3C2F5441473E003C69B8
:1001A0006D67207372633D22696D6167655F736F70
:1001B000757263655F6F725F6C696E6B5F676F65A9
:1001C000735F686572652220616C743D226E616D9B
:1001D000655F69665F63616E745F6C6F6164222046
:1001E00077696474683D226E756D5F706978656CBF
:1001F0007322206865696768743D226E756D5F7053
:100200006978656C73223E003C6120687265663DCA
:10021000226C696E6B5F676F65735F6865726522DC
:100220003E6E616D655F6F665F6C696E6B5F676F79
:1002300065735F686572653C2F613E003C666F6F59
:100240007465723E3C2F666F6F7465723E003C624F
:100250006F64793E3C2F626F64793E003C68656153
:10026000643E3C2F686561643E003C68746D6C20A0
:100270006C616E673D22656E223E3C2F68746D6C2A
:100280003E003C7374796C653E3C2F7374796C65E9
:100290003E003C7469746C653E3C2F7469746C65F7
:1002A0003E003C703E3C2F703E003C6469763E3C14
:1002B0002F6469763E00313131204869676876697C
:1002C000657720476174652053450061726963401A
:1002D000636F6C6C656769756D6275696C742E63AC
:1002E0006F6D00636F6E7461637440617269636304
:1002F000622E646576002829203D3E2000636F6EE3
:10030000737420796F757246756E63566172696198
:10031000626C65203D2028782C7929203D3E20788C
:10032000202B20792E6D6574686F643B005B5D0047
:100330007B7D002829003C3E0035013A003B003C13
:10034000003D003E00292F14001A0009001300058B
:10035000002B4404441500160017000A00E1001D9C
:10036000281B000600070019000000C32428282CC1
:10037000427321AE00440043004200410040003F70
:10038000002A0033001C0018000F000D0034311249
:10039000440C0008001100100031323800370036DC
:1003A000000B000E0000002B084C432C42C300350C
:1003B0002435013A003B003C003D003E00292F144B
:1003C000001A000800150017002B4404441600070B
:1003D0000009000A00E1001D281B000600190005A5
:1003E000000000C32428282C427321AE004400439F
:1003F000004200410040003F002A00130012000CA0
:100400000018001C00343133440F000E000D000BA7
:100410000031323800370036001000110000002B88
:10042000084C432C42C30035241B701E001F0020C3
:10043000002100220035001E02360237022E002362
:10044000022B0220022F24262227283021E100350A
:100450000221022F023002220200000100010001ED
:10046000000100010045002700260025002400238C
:10047000002A0033022600250024002502570056DA
:100480000023002200210024023102540020001F1A
:10049000001E00310200000100370027002C00354B
:1004A000021B70000000000000000000001C70D360
:1004B00000D200CD00D100A80001000100CF00CE85
:1004C00000D000A9000100DB00D900DA00DC00AA9E
:1004D0000000000100010001000100010061520064
:1004E00000000053000000D2002A0033020100D3B4
:1004F000000D7E010034020100D200087ED1000B05
:100500007E31021E02097E087E0A7E097E000009F5
:10051000080100D300D10001001B703A003B003CF1
:10052000003D003E001C70010042004300440045B5
:1005300000010001003E243F22402841210100012A
:10054000003A003B003C003D000000010001002B90
:10055000017321AB00615247004F08520C50084B09
:10056000014C0048004D0052004A004E0139000184
:10057000004F2451225028102149004F084E0051AD
:100580000C4B0050080000050C010001000C7E35EA
:100590002405010906A1018501050719E029E715D0
:1005A00000250195087501810295017508810105F5
:1005B00007190029FF150026FF0095067508810020
:1005C0000508190129059505750191029501750325
:1005D0009101C005010902A10185020901A10005DF
:1005E00009190129081500250195087501810205E1
:1005F00001093009311581257F95027508810609A9
:10060000381581257F950175088106050C0A380289
:100610001581257F950175088106C0C005010980F7
:10062000A101850319012AB700150126B70095011C
:1006300075108100C0050C0901A101850419012A6A
:10064000A002150126A002950175108100C00902C3
:100650002200010100A0FA090400000103010100C9
:1006600009211101000122BD0007058103200001BD
:1006700012010002000000081340222013000102B2
:1006800000010E034C00650065006C006F006F00F8
:100690000000260343006C00690063006B006500E6
:1006A000740079002000530070006C006900740031
:1006B00020004C00740064000000040309040000E2
:1006C000000000000000000000000000000000002A
:1006D000000000000000000000000000000000001A
:1006E00000007E0F00D4FFFFFFC70000007800006D
:1006F0000000000000002A2B28000000000000007D
:1007000000000000000000000029000000002C1E76
:100710003420212224342627252E362D3738271E33
:100720001F202122232425263333362E37381F0459
:1007300005060708090A0B0C0D0E0F1011121314F1
:1007400015161718191A1B1C1D2F3130232D3504AF
:1007500005060708090A0B0C0D0E0F1011121314D1
:1007600015161718191A1B1C1D2F3130354C112462
:100770001FBECFEFDAE0DEBFCDBF12E0A0E0B1E0F8
:10078000ECE1F1E602C005900D92A039B107D9F76E
:1007900024E0A0E9B2E001C01D92AC33B207E1F75A
:1007A0000E9416270C9430300C940000E8EDF0E025
:1007B00080818E7F80831092E2001092DA00109286
:1007C000E100A0EEB0E08C9181608C9380818F7706
:1007D000808319BCA7EDB0E08C918E7F8C938081D3
:1007E0008F7E808310921E0408952091E400309142
:1007F000E50095E6A9012091EC00822F817020FF91
:1008000006C08091E80080FF06C080E00895209136
:10081000E80022FD1AC080913B04882389F08530CE
:1008200089F08091EB0085FD0FC02091E4003091AC
:10083000E50042175307F9F29150E1F684E008957C
:1008400082E0089583E0089581E008958091330463
:1008500087FF13C08091E80082FF06C08091E80006
:100860008B778093E80004C080913B048111F2CF24
:10087000089580913B048823D9F38091E80080FF9C
:10088000F8CF8091E8008E77ECCF982F9093E90015
:10089000242F762F50E0891731F07091EC002091D1
:1008A000ED005091F00021FD07C09F5F973071F778
:1008B0008093E90081E008953091EB003E7F309312
:1008C000EB003091ED003D7F3093ED003091EB0077
:1008D00031603093EB007093EC002093ED00509367
:1008E000F0002091EE0027FDE0CF80E00895B0E019
:1008F000A0E0EDE7F4E00C94462DC8EDD0E088814F
:100900008F7E8883E7EDF0E080818160808384E0E2
:1009100082BF81E080931E0488818E7F888302EEEF
:1009200010E0F80110821092DA0081EEC82ED12C6E
:10093000F601108288818F77888388818068888318
:1009400088818F7D888319BC10923B0410923204F9
:1009500010922B0410922A0490EEE92EF12CF7014C
:1009600080818B7F808388818160888342E060E022
:1009700080E00E944504F60180818E7F8083F8012B
:10098000808181608083808188608083F70180819D
:100990008E7F8083888180618883CDB7DEB7E8E071
:1009A0000C94622DFC018091390490913A048617D1
:1009B0009707A0F06115710529F49091E8009E77E2
:1009C0009093E80090E06115710551F4911108C011
:1009D0008091E80082FF34C080E00895BC01F2CF2E
:1009E00080913B048823C1F18530C1F18091E800FA
:1009F00083FD30C08091E80082FDEACF8091E8005D
:100A000080FFE1CF8091F3002091F200382F611533
:100A1000710519F02830310558F091E02830310582
:100A200009F090E02091E8002E772093E800CBCFEA
:100A300081918093F100615071092F5F3F4FE7CFA3
:100A400080913B04882341F0853041F08091E8009B
:100A500083FFBECF81E0089582E0089583E008958A
:100A60008091200408959C014FB7F89480911A0456
:100A700090911B04A0911C04B0911D044FBF821BD8
:100A8000930B08952FB7F89460911A0470911B048A
:100A900080911C0490911D042FBF08952FB7F894E6
:100AA00080911A0490911B04A0911C04B0911D0424
:100AB0002FBF08959C01FC0133969FEF80E0419188
:100AC000461751F09F3F19F4411101C0982F8F5FD5
:100AD0008630A9F79F3F09F40895290F311D97FD2E
:100AE0003A95F90163830895A3E0B0E0EAE7F5E001
:100AF0000C944C2D209117043091180428173907B5
:100B0000A1F09093180480931704E0911504F091DC
:100B10001604309751F024E029839B838A83068052
:100B2000F781E02DCE01019609952396E2E00C9421
:100B3000682DA3E0B0E0EFE9F5E00C944C2D209196
:100B400013043091140428173907A1F0909314046A
:100B500080931304E0911504F0911604309751F03E
:100B600023E029839B838A830680F781E02DCE01D1
:100B7000019609952396E2E00C94682DDC016091C2
:100B80000F0480911004962F891301C00895292F16
:100B900030E0F901EE0FFF1FE95FFB4F408151810B
:100BA0004A175B07A1F487E08A9FA0018B9F500D35
:100BB0001124475C5E4F81E0FA0184839613E6CFEF
:100BC0002F5F3F4F2370332720930F0408952F5F2B
:100BD0003F4F922F9370D8CF1092A3031092A2038D
:100BE000E9E3F1E08581811102C014821682379613
:100BF00082E0E533F807B1F70895FC01680F791F2B
:100C00008FEF91E32191822728E030E087FF09C030
:100C1000880F892721503109C9F7E617F70791F79F
:100C20000895880FF7CF0E944E059C0190919A037A
:100C300080919B03982B21F0309397032093960388
:100C400090919C0380919D03982B21F03093950304
:100C500020939403E0911504F0911604309749F025
:100C600082E0809398030480F581E02D88E993E089
:100C7000099508958F929F92AF92BF92CF92DF9283
:100C8000EF92FF9280919303982F957071F0C12C91
:100C9000D12C20E4E22E22E4F22E82FD52C0C12C9F
:100CA000D12CE12C91E4F92E4CC080919203882341
:100CB000B1F3E0909003F0909103E114F10479F323
:100CC00020E030E048EC51E460913501709136014C
:100CD00080913701909138010E94502E8823F9F2BB
:100CE000C7010E94330562E370E00E94732D90E01B
:100CF00080E00E94F62E6B017C0120E030E040E0B5
:100D00005FE30E94AD2FA70196010E94AD2F4B011A
:100D10005C0120E030E040E051E4C701B6010E94F0
:100D2000E42D9B01AC01C501B4010E94E42D6B01CF
:100D30007C0120E030E048EC51E40E94A82F181616
:100D40000CF1A701960160E070E08AE794E40E944C
:100D5000552E60933501709336018093370190933F
:100D60003801C701B6010E94C72E81E0693008F042
:100D700082E0FF90EF90DF90CF90BF90AF909F9078
:100D80008F900895C12CD12C88ECE82E81E4F82EA8
:100D9000D8CF8F929F92AF92BF92CF92DF92EF9275
:100DA000FF9280919303982F957081F0C12CD12CE4
:100DB00038ECE32E33E4F32E82FF4AC0C12C20E846
:100DC000D22E2BE3E22E25E4F22E42C080918F0337
:100DD000882309F45DC0809190039091910300975E
:100DE00009F456C00E94330562E370E00E94732D3F
:100DF00090E080E00E94F62E6B017C0120E030E064
:100E000040E851E40E94AD2F20E030E048EC52E48D
:100E10000E94E42D4B015C0120E030E040E051E411
:100E2000C701B6010E94AD2FA70196010E94AD2F08
:100E30009B01AC01C501B4010E94E42D6B017C0152
:100E400020E030E046E954E40E94A82F18163CF157
:100E500020E030E04AEF52E4C701B6010E94552E6F
:100E60000E94C72E662311F18FE767FD08C070E06E
:100E700090E080E00E94F62E0E94C72E862FFF9001
:100E8000EF90DF90CF90BF90AF909F908F9008959C
:100E9000C12CD12C98ECE92E92E4F92ED9CFC12C9B
:100EA000D12C86E9E82E84E4F82ED2CF60E070E001
:100EB00080E89FE3E1CF80E00895F894E82FE29581
:100EC000EF70F0E031A1282F2F7081E090E001C099
:100ED000880F2A95EAF7982F9095932391A392A1D2
:100EE000892B82A37894089590916D0392FF06C098
:100EF000282F28712830F9F4877F846093FF06C07B
:100F0000282F28712831F1F4877E846120916E03A7
:100F100020FF06C0382F38713830D9F4877F8160C0
:100F200021FF06C0282F28712831D1F4877E8161E6
:100F300094FD877E0895282F24712430F9F68B7F45
:100F40008860DCCF282F2471243101F78B7E8861E3
:100F5000DDCF382F3171313019F78E7F8860E0CFC7
:100F6000282F2171213121F78E7E8861E1CF972FC3
:100F70007A30B8F46630A8F4853098F470E026E052
:100F8000929F600D711D1124FB019CE3899FE00D70
:100F9000F11D1124EE0FFF1FE75CFC4F859194912A
:100FA000089580E090E00895CF93DF93EC018238BC
:100FB0009105B9F108F041C08133910509F49FC052
:100FC00050F58932910509F48FC08A9709F49EC0C3
:100FD000C11520E5D20708F0BDC0C11530E4D30724
:100FE00008F00AC1C03ED10508F0A5C0CD3CD1052E
:100FF00008F000C1C83AD10508F08FC0C53AD10544
:1010000008F0F0C0C130D10539F1209729F1C43082
:10101000D10510F546C08533910509F460C0C99724
:10102000B9F680916D03837009F044C180916E031D
:1010300083FF12C0C9E2D0E00FC0833E9105A1F149
:1010400078F4803E910509F1823E910509F0C0CF08
:1010500080916D0382FD21C0CE01DF91CF91089573
:10106000863E910561F1873E910571F1843E9105BF
:1010700009F0AECF80916E0381FFEECF80916D03BA
:10108000C7EED0E084FD0DC0E7CF80916D0380FDF9
:1010900033C090916E0390FFDFCFC3EED0E084FFAA
:1010A000DBCFD0E0C0E0D8CF80916D0382FDFFC0E0
:1010B00090916E0390FDFEC084FFCECFF2CF809161
:1010C0006D0383FDDDCFC8CF80916D0383FDF5C037
:1010D00090916E0391FFF0CFC4EED0E0BDCF809130
:1010E0006D0385FFB9CFA6CF80916D0385FDE8C064
:1010F00080916E0383FFB0CFC9E3D0E0ADCF809184
:101100006D0386FFA9CFCAE2D0E0A6CF80916D0320
:1011100086FFA2CFC1E3D0E09FCFC43CD10508F643
:10112000C85AD0E0CC0FDD1FC65CDD4F0990D881D6
:10113000C02DD46491CFC11540E2D40708F0AAC0F5
:10114000C11581E0D80708F087CFC83ED10508F463
:1011500083CFA7CFC03622E5D20718F5C03432E5D9
:10116000D30708F053C0C03242E5D40708F047C0A7
:10117000C11582E5D80708F47FC02C2F2695269547
:1011800040E2249F900111248C2F8370C1E0D0E0B5
:1011900002C0CC0FDD1F8A95E2F7C22BD32BDD688E
:1011A0005BCFC03A22E5D20760F4C03832E5D307FE
:1011B00008F441C0CF71D0E0DC2FCC27C46FD06AD7
:1011C0004BCFC03C42E5D40708F44AC0C03E82E59C
:1011D000D80708F066CFDC2FCC27CC27DF71C06F93
:1011E000D06A3ACFC55AD0E0C95CDD4FC881D0E0A3
:1011F000D06432CFD06530CFDF70D06A2DCFCF71C1
:10120000D0E0DC2FCC27C16FD06A26CF2C2F2695BB
:101210002695277080E2289F900111248C2F8370DF
:10122000C1E0D0E002C0CC0FDD1F8A95E2F7C22BEF
:10123000D32BDC6811CF2C2F26952695277040E202
:10124000249F900111248C2F8370C1E0D0E002C054
:10125000CC0FDD1F8A95E2F7C22BD32BDA68FCCEC8
:101260008C2F8F710E947407C82FD0E0DC2FCC2701
:10127000CC27DF71D062F0CE8C2F8F710E94740763
:1012800035E0D695C7953A95E1F7CF709C2FEC01E4
:10129000D069E2CE8D2F8F710E94740790E0982F55
:1012A000882788279F719C012C2BE901E3CFC2EE90
:1012B000D0E0D2CEC0EED0E0CFCEC6EED0E0CCCEE5
:1012C000C5E3D0E0C9CE0E944205089580911B037A
:1012D000882331F010921B0310921A031092190305
:1012E00008958091A10381110FC010929E030E9466
:1012F00066090E944E0588579C4E9093A0038093E8
:101300009F0381E08093A1030895CF93C82F80911C
:101310006E0382FF0CC080911B038C1741F00E946A
:101320004E0590931A0380931903C0931B03CF912A
:1013300008959091A403892B8093A4030895809528
:1013400090919E03982390939E03089580910C039F
:101350009091CB02981301C008958F5F8770FACFE8
:10136000B0E0A0E0E6EBF9E00C94452D7C010091A3
:101370006B0310916C038091690390916A03082BB1
:10138000192BCFE0D0E0CC24C394D12CBC2EC601C5
:101390000C2E02C0880F991F0A94E2F78023912334
:1013A000892B49F4219790F7B12C8B2DCDB7DEB75F
:1013B000E9E00C94612DB7018C2F0E94B7070E94C1
:1013C000D407019779F3F1CFCF93DF93EC010E941B
:1013D000B009BE010E94B7070E94D407DF91CF91E8
:1013E00008959A3078F5863068F5E82FF0E086E0C9
:1013F000989FE00DF11D11249E2F977083E0F695C4
:10140000E7958A95E1F7EE0FFF1FEE0FFF1FED55F1
:10141000FD4F50E040E080E0219130E0092E02C015
:10142000369527950A94E2F721703327042E01C0E0
:10143000220F0A94EAF7822B4F5F5F4F4430510529
:1014400059F7089580E008959A3098F5863088F528
:10145000E82FF0E086E0989FE00DF11D11248E2F1B
:10146000877041E001C0440F8A95EAF783E0F69562
:10147000E7958A95E1F7EE0FFF1FEE0FFF1FED5581
:10148000FD4F30E020E070E05191DF011197CB017A
:10149000022E02C0969587950A94E2F78170819595
:1014A0008527842385278C932F5F3F4F2430310578
:1014B00059F7089590936C0380936B03089521E08E
:1014C00030E002C0220F331F8A95E2F72095309555
:1014D00080916B0390916C03822393230E945A0A9C
:1014E000089590910F038095892380930F03282FEF
:1014F0002770B1F4282F082E000C330B9217130617
:1015000079F090916E0392FF0BC085958595859536
:101510000E945F0A10920F0310920E0310920D03A7
:10152000089521E030E002C0220F331F8A95E2F7D0
:1015300080916B0390916C03822B932B0E945A0A2B
:10154000089590936A03809369030895FC01838151
:101550009481892B29F08081918189238F3FF1F437
:1015600080E008950E94D40792959F70963089F08C
:1015700058F4925F9F70923098F7803F19F030F4E2
:10158000883E70F781E008959A5FF4CF843F41F779
:10159000F9CF883EB8F3813F19F7F4CF8681978160
:1015A000009701F7808191810E94E409DDCFCF93FC
:1015B000DF93C82F662309F469C08091900390914E
:1015C0009103892B31F40E944E05909391038093EF
:1015D0009003CD3C51F40E94C906819580939B03F2
:1015E0000E941306DF91CF910895CE3C19F40E941A
:1015F000C906F4CFCF3C31F40E94C906819580938F
:101600009A03EECFC03D19F40E94C906F8CFC93D38
:1016100029F40E943A0680939C03E2CFCA3D21F44C
:101620000E943A068195F7CFCB3D31F40E943A06ED
:10163000819580939D03D4CFCC3D19F40E943A0646
:10164000F8CF8FE28C0F883070F4C15DDD0B21E0A4
:1016500030E001C0220FCA95EAF780919903822BEE
:1016600080939903BDCF809193038160CD3D59F064
:10167000809193038260CE3D31F0CF3D09F0B0CF31
:1016800080919303846080939303AACF40919A033F
:101690008D3C79F480919B0387FF11C010929B03CE
:1016A00041110FC010928F0310929103109290037A
:1016B00008C08E3C81F480919B0318167CF3442370
:1016C00081F080919C0390919D03892B09F088CF34
:1016D0001092920385CF8F3C49F447FFF0CF1092D0
:1016E0009A0380919B038111ECCFDCCF803D19F4EC
:1016F0001416ACF3E4CF80919C03C93D29F418166D
:10170000F4F610929C03DBCFCA3D19F487FFD7CFC4
:10171000F8CF80919D03CB3D29F487FFD0CF109265
:101720009D03CDCFCC3D19F41816CCF3C8CF8FE272
:101730008C0F883078F4C15DDD0B81E090E001C052
:10174000880FCA95EAF78095909199038923809331
:101750009903B5CF809193038E7FCD3D59F0809151
:1017600093038D7FCE3D31F0CF3D09F0A8CF80911E
:1017700093038B7F80939303A2CFCF92DF92EF925C
:10178000FF92C72ED82EE92EFF2420E0C114D104E9
:10179000E104F10419F0C701B60128E06B017C01F6
:1017A00054E0F694E794D794C7945A95D1F7C114AE
:1017B000D104E104F10419F02C5FC701B6016B01FB
:1017C0007C0142E0F694E794D794C7944A95D1F708
:1017D000C114D104E104F10419F02E5FC701B60170
:1017E0009695879577956795672B682B692B09F0F8
:1017F0002F5F822FFF90EF90DF90CF900895A5E0AC
:10180000B0E0E5E0FCE00C944B2D9C01FC018681EE
:1018100097810097E1F485E0DE01119601900D9229
:101820008A95E1F7F901228189819A81222399F031
:10183000662389F00E94B009182F682F89819A8148
:101840000E94240A69817A81812F0E94B707259618
:10185000E3E00C94672D0E94F109182FF3CF9C014F
:101860009A9581159F4150F4832F817031FD8260DC
:1018700032FD846033FF03C08860089580E00895DE
:101880000F931F93CF93DF9301E010E0082E02C067
:10189000000F111F0A94E2F7C0912503D09126038F
:1018A0009E0120233123232B21F590910F03959541
:1018B00095959595891306C010920F0310920E030B
:1018C00010920D030E94910A0E9442056093210329
:1018D000709322038093230390932403C027D1277E
:1018E000D0932603C0932503DF91CF911F910F91D1
:1018F00008950E945F0AF2CF0F931F93CF93DF9357
:101900008C01EB0180913B04843069F581E0809388
:10191000E9008FEF9091E800815095FD06C095EDAC
:101920009A95F1F700008111F5CF8091E80085FFCD
:101930001AC00E94F503811111C08091E80085FD55
:1019400006C08091E8008E778093E800F2CFF8011E
:1019500081918F018093F100219779F78091E800C0
:101960008E778093E800DF91CF911F910F910895BA
:1019700063E070E00E947C0C089566E070E00E94D5
:101980007C0C0895CF93DF93EC0180913602811196
:1019900011C068E070E0CE0101960E947C0C89E0E5
:1019A000FE01A1E2B4E001900D928A95E1F7DF918A
:1019B000CF91089569E070E0CE01EFCFB0E0A0E0F4
:1019C000E4EEFCE00C94442D7C015B016A01809103
:1019D000560301E010E08A3010F40AE010E0C1E0A4
:1019E000D0E0B501C701F6010995811104C0219627
:1019F0000C171D072CF4CDB7DEB7EAE00C94602D70
:101A0000CC9F9001CD9F300D300D112490E080E0EF
:101A100045E34A95F1F70000019682179307C1F755
:101A2000E0CF80913803811110C08091D80080618F
:101A30008093D8008AE18A95F1F700C08091D9009F
:101A400080FF0AC081E08093380381E090913803E1
:101A5000913009F080E0089582E0809338030E947D
:101A6000D60310923B04F1CF0E94110D882359F048
:101A7000E0911504F0911604309729F00190F0815F
:101A8000E02D0995089580E0089580919E0390913E
:101A9000A403892B8093930280911B03882319F15F
:101AA0000E944E052091190330911A03821B930B5B
:101AB000883E934010F00E946609809193029091B5
:101AC0001B03892B8093930220E085E992E0FC01BF
:101AD0003191CF0131112F5FF2E08B399F07B9F7B8
:101AE00021110E94660949E050E060E173E082E95B
:101AF00092E00E941A30892BC1F089E0E2E9F2E01D
:101B0000A0E1B3E001900D928A95E1F7E091150410
:101B1000F0911604309749F081E0809392020280A0
:101B2000F381E02D82E992E009950895882341F040
:101B300080959091A40389238093A4030E94450D6E
:101B400008958091A103882329F082E20E94960DD6
:101B50001092A1030895882321F00E9499090E9400
:101B6000450D0895882321F00E949F090E94450D8C
:101B70000895882339F090919E03982B90939E03AB
:101B80000E94450D08958823D1F19CEF980F913A5A
:101B900078F4E5E9F2E09191891303C0DF01119730
:101BA0001C9292E0EB39F907B1F70E94450D0895B8
:101BB00090E2980F983050F4877091E001C0990F2F
:101BC0008A95EAF7892F0E949F09EFCF9BE5980F2E
:101BD000933028F490E080E00E949905089598E5FC
:101BE000980F993128F490E080E00E9474050895E0
:101BF00093E3980F933118F460E00E94D70A089598
:101C0000CF93DF93EC010E94C30DCE010E942F0CF5
:101C1000C05ED109289728F40E94B20DDF91CF91C0
:101C200008950E94960DFACFCF93C82F8823A9F06C
:101C30008CEF8C0F813A00F5E5E9F2E0DF018D9140
:101C4000C81769F082E0AB39B807C9F76C2F82E991
:101C500092E00E945A050E94450DCF91089581910E
:101C6000C81303C0DF0111971C9282E0EB39F8071B
:101C7000B1F70E94450DEACF80E28C0F883068F4FE
:101C8000C77021E030E001C0220FCA95EAF78091C9
:101C90009E03822B80939E03DECFEBE5EC0FE330B7
:101CA00040F4F0E0E95CFD4F808190E00E949905EE
:101CB000D4CFE8E5EC0FE93150F4F0E0EE0FFF1F70
:101CC000E65CFD4F808191810E947405C6CF83E35D
:101CD0008C0F833110F661E08C2F0E94D70ABDCFA4
:101CE0001F93CF93DF93182FEB010E94140E2097C0
:101CF00039F4812F0E94C30DDF91CF911F91089578
:101D00008FE99FE00197F1F700C000002197EFCF26
:101D100070E060E0893311F460E570E00E94700EBD
:101D20000895B0E0A0E0E7E9FEE00C94442DEC015A
:101D30008AE0A82EFE012491222309F497C02130C5
:101D400009F03EC031968491813031F42296FE0133
:101D500084910E94880E07C0823039F42296FE01D9
:101D600084910E94140E2196E5CF833031F422969F
:101D7000FE0184910E94C30DF6CF843009F074C037
:101D80002296FE01249190E080E0FE0131962053DE
:101D9000330B2A30310548F0019728F3EFE9FFE0D3
:101DA0003197F1F700C00000F7CFA89EA001A99ECF
:101DB000500D1124C901840F951F2491EF01E5CF27
:101DC000E22FF0E0E251F94FB490822F869586958C
:101DD000869590E0FC01E252F94FE4902770F12CD7
:101DE000022E02C0F594E7940A94E2F731E0E32270
:101DF000FF24FC01E253F94FC490D12C022E02C003
:101E0000D594C7940A94E2F7E1E0CE22DD24FC01E8
:101E1000E254F94F049110E002C0159507952A95F8
:101E2000E2F701701127E114F10419F081EE0E942C
:101E3000140EC114D10419F086EE0E94140E8B2DDD
:101E40000E94880EC114D10419F086EE0E94C30DC1
:101E5000E114F10419F081EE0E94C30D0115110582
:101E600009F481CF8CE275CFEF017DCFCDB7DEB71E
:101E7000EAE00C94602DCF93DF93EC010E942F0CCD
:101E80009E01205E31092830310540F40E94B90DD1
:101E90008C2F0E94140EDF91CF9108950E94AB0DFC
:101EA000F7CF0F931F93CF93DF938C01D0E0C0E067
:101EB000C99711F4C0E5D0E0C8010E943B0F2097FC
:101EC00041F4C8010E94000EDF91CF911F910F9144
:101ED00008958FE99FE00197F1F700C00000219776
:101EE000EECFCF93DF93D82FC62F0E944E052091BF
:101EF0009B0230919C02821B930BC29708F473C023
:101F00000E944E0590939C0280939B02D1116FC05A
:101F100060916B0370916C0390E080E00E94BD0BB8
:101F2000833031F1843059F1823081F5C11111C013
:101F300089EA90E00E94510F89EA90E00E94510FD7
:101F400089EA90E00E94510F89EA90E00E94510FC7
:101F50004AC08AEA90E00E94510F8AEA90E00E940B
:101F6000510F8AEA90E00E94510F8AEA90E0EECF8A
:101F70008CE191E0CC2351F38DE191E0E7CF8FE448
:101F800099E0CC2319F380E599E0E0CFD0912C03C0
:101F9000C11112C00E944E0590932B0380932A0317
:101FA000D11106C082EE0E94140E81E080932C03B2
:101FB0008BE20E94880E17C00E944E0590932B035F
:101FC00080932A03D11106C083EE0E94140E81E093
:101FD00080932C0381EE0E94140E8BE20E94880EE7
:101FE00081EE0E94C30D80E0DF91CF910895D13042
:101FF000D1F760916B0370916C0390E080E00E94D8
:10200000BD0B833051F0843079F080E596E0CC232D
:1020100009F49CCF8FE496E099CFCC2311F08CE3A8
:10202000C8CF8CE392E092CF8BED90E0CC2309F403
:102030008DCF8CED90E08ACF90916E0392FB22279A
:1020400020F9281779F080FB92F990936E03609144
:102050006D0370916E0384E090E00E94CD2D82E0CC
:102060000E94710A0895CF9310929E03C6E0E5E99D
:10207000F2E0DF018C2F1D928A95E9F790E080E075
:102080000E94990590E080E00E9474051092A403DC
:102090000E94450DE8E9F3E0DF011D92CA95E9F7DA
:1020A00010928F0310929203109293030E941306D2
:1020B000CF910895AAE2B0E0E0E6F0E10C944B2D58
:1020C00083E394E02091F100FC012193CF01F4E03F
:1020D0008B339F07B9F780913404833009F470C0C3
:1020E000B8F4813009F447C0823009F4B1C080915E
:1020F000E80083FF39C180913304909134049A3011
:1021000008F032C1E92FF0E0EE5CFF4C0C949B2DFF
:102110008A3009F48CC08B3009F46FC0893039F7EC
:1021200080913304813219F78091370490913804FB
:10213000892BE9F68091E800877F8093E800809101
:10214000E80082FF38C09091F3008091F20002977E
:1021500031F48091F100813011F0863021F48091CA
:10216000F100809320048091E8008B778093E80051
:102170000E942604BCCF80913304813A09F0B7CF86
:102180008091E800877F8093E800809137049091E8
:102190003804892B61F469E081E294E070E00E94E8
:1021A000D2048091E8008B778093E800A0CF60E0B4
:1021B00090E080E0F3CF80913B048111C0CF97CFB6
:1021C00080913304813A09F092CF80913704909145
:1021D0003804892B09F08BCF8091E800877F8093AA
:1021E000E8008091E80080FFFCCF80913602809368
:1021F000F1008091E8008E77B9CF8091330481326D
:1022000009F075CF8091370490913804892B09F03B
:102210006ECF8091E800877F8093E8000E942604BB
:1022200080913504809336020E94331060CF8091F4
:102230003304813209F05BCF8091E800877F80937F
:10224000E8000E9426048091360480931F044FCF3B
:1022500080913304813A09F04ACF8091E800877F6A
:102260008093E8008091E80080FFFCCF80911F04FC
:10227000BECF803899F0823809F076C0809137045B
:102280008F70873008F070C08093E9008091EB0078
:1022900085FB882780F91092E90006C080912A0406
:1022A00090912B04911182609091E800977F909318
:1022B000E8008093F1001092F1008091E8008E77A1
:1022C000B6C1882309F4A3C1823009F04DC08091C2
:1022D00035048111A7C1809137048F702FEF280F2B
:1022E000263008F041C08093E9002091EB0020FFE8
:1022F00099C1933031F48091EB0080628093EB00C0
:1023000091C19091EB0090619093EB0021E030E05F
:1023100001C0220F8A95EAF72093EA001092EA00A2
:102320008091EB008860EACF81111EC010913504C6
:102330001F778091E3008078812B8093E300809168
:10234000E800877F8093E8000E9426048091E800DF
:1023500080FFFCCF8091E30080688093E30082E0FF
:10236000111183E080933B048091E80083FF0AC051
:102370008091E800877F8093E8008091EB00806285
:102380008093EB00AA96E3E00C94672D805882308E
:1023900058F780913504909136048C3D23E09207E4
:1023A000A1F583E08A838AE289834FB7F894DE013E
:1023B000139620E03EE051E2E32FF0E05093570007
:1023C000E49120FF03C0E295EF703F5FEF708E2F26
:1023D00090E0EA30C0F0C7968D939D932F5F243133
:1023E00059F74FBF8091E800877F8093E8006AE249
:1023F00070E0CE0101960E94D2048091E8008B77B4
:102400008093E800B1CFC096E7CF40913704509158
:102410003804292F33272330310509F440C078F5DB
:102420002130310509F48EC082E290E0EEE4F6E05E
:102430002230310509F098CF2091E800277F2093C2
:10244000E8002091390430913A048217930708F488
:102450009C0140E02115310509F079C0411177C098
:102460008091E80082FDC9CF80913B04882329F246
:10247000853019F28091E80083FFF2CFBECF213280
:10248000310509F457C02232310509F06DCF452BD3
:1024900009F06ACF8DEB90E0E1E9F5E0CDCF209136
:1024A000390430913A0440912C044F5F40932C043E
:1024B000309331042093300422303105B1F420915F
:1024C0002D042F5F20932D0499278130910551F120
:1024D0000097E9F0029709F047CFE2E8F6E0E491CF
:1024E0008E2F90E0E2E8F6E019C02430310531F497
:1024F00020912E042F5F20932E04E6CF2F3F31052D
:1025000019F720912F042F5F20932F04DDCFEAEBE2
:10251000F6E0E4918E2F90E0EAEBF6E0009709F008
:102520008BCF22CFE2E9F6E0E4918E2F90E0E2E952
:10253000F6E0F4CF452B09F017CF89E090E0E0E614
:10254000F6E07ACF82E190E0E0E7F6E075CF8091A7
:102550003B04882309F451CF853009F44ECF809194
:10256000E80083FD4ACF8091E80082FD79CF809119
:10257000E80080FF6FCF9091F3008091F200211569
:10258000310519F08830910550F041E0089709F0C5
:1025900040E08091E8008E778093E8005BCF449123
:1025A0004093F1003196215031090196E8CF8038EF
:1025B00009F0DACE8091E800877F8093E80080916F
:1025C00032048093F10079CE8111CECE1091350482
:1025D000123008F0C9CE8091E800877F8093E80030
:1025E000109332040E942604112311F084E005C0E8
:1025F0008091E30087FDFACF81E080933B0442E2C3
:1026000061EC81E00E94450480913B04ADCE809155
:102610003504813009F0A8CE81E0933009F080E0E4
:1026200080932B041092E9008091E800877F8093CB
:10263000E8000E94260498CE0E9433102FEF84E316
:102640009CE0215080409040E1F700C0000087E707
:1026500097E7909301088093000888E19AE00FB60D
:10266000F894A895809360000FBE90936000FFCF10
:10267000CF93DF93EC018432910548F4FC01E45CD4
:10268000FF4C0C949B2D83EE92E0611107C0DF910B
:10269000CF9108956623D9F38BEC92E00E94910EBE
:1026A000F6CF86EB92E0662391F3F8CF662379F3B9
:1026B0008AEA92E00E94910EC6E0D0E080E590E0C8
:1026C0000E94510F2197D1F7E2CF662301F382EAEE
:1026D00092E00E94910E80E590E00E94510F80E50B
:1026E00090E00E94510F80E590E00E94510F80E53C
:1026F00090E00E94510FCBCF662349F282E992E02D
:102700000E94910EC8E0D0E080E590E00E94510F59
:102710002197D1F7BCCF662309F4B9CF82E892E0C4
:102720000E94910EC8E0D0E080E590E00E94510F39
:102730002197D1F7ACCF662309F4A9CF8AE692E0BE
:102740000E94910EC7E0D0E080E590E00E94510F1A
:102750002197D1F79CCF662309F499CF8CE592E0BD
:102760000E94910E80E590E00E94510F2197D1F7D1
:102770008ECF662309F48BCF8EE492E00E94910EF7
:10278000C7E0D0E080E590E00E94510F2197D1F79B
:102790007ECF662309F47BCF8CE392E00E94910EFA
:1027A00080E590E00E94510F2197D1F770CF66230A
:1027B00009F46DCF88E092E00E94910E8AE490E0E7
:1027C0000E94510F8FE490E00E94510F2197D1F7A2
:1027D0005ECF662309F45BCF8EE991E00E94910EF3
:1027E0008AE490E00E94510F8FE490E00E94510F24
:1027F0002197D1F74CCF662309F449CF82E991E0C4
:102800000E94910E89E290E00E94510FC9E0D0E051
:1028100080E590E00E94510F2197D1F787E098E082
:102820000E94510F87E098E00E94510F8AE290E0E9
:1028300060CF662309F42BCF83EE0E94140E8DE146
:102840000E94140E83EE0E94C30D8DE10E94C30D01
:102850001ECF662309F41BCF83EE0E94140E81EE77
:102860000E94140E8DE10E94140E83EE0E94C30D8F
:1028700081EEE9CF662309F40ACF83EE0E94140E9D
:102880008BE10E94140E83EE0E94C30D8BE1DECF1C
:10289000662309F4FCCE83EE0E94140E86E00E94AB
:1028A000140E83EE0E94C30D86E0D0CF662309F498
:1028B000EECE83EE0E94140E89E10E94140E83EE88
:1028C0000E94C30D89E1C2CF662309F4E0CE82EEF7
:1028D0000E94140E81EE0E94140E83EE0E94140ECC
:1028E0008CE20E94140E83EE0E94C30D81EE0E94C2
:1028F000C30D83EE0E94C30D8CE2A8CF662309F4BA
:10290000C6CE81EE0E94140E83EE0E94140E89E161
:102910000E94140E81EE0E94C30D83EE0E94C30D2F
:1029200089E10E94C30D89E193E0E3CE662309F4B7
:10293000AECE83EE0E94140E84E00E94140E83EE4D
:102940000E94C30D84E082CF88E392E0662309F4FD
:102950009ECECFCE8EE192E0662309F498CEC9CE0A
:1029600084E392E0662309F492CEC3CE8DE292E036
:10297000662309F48CCEBDCE86E590E0662309F48B
:1029800086CEB7CE8EE290E0662309F480CEB1CE3B
:102990008FE192E0662309F47ACEABCE662309F488
:1029A00076CED0919E03C0911B0310929E030E948D
:1029B0006609CD2BC2728FE891E011F48CE891E0AA
:1029C0000E94910E80E50E94880ED0939E035FCEF8
:1029D000662309F45CCE80916B0390916C0324E034
:1029E00082270E945A0A53CE86EA90E0662309F4B1
:1029F0004ECE7FCE662309F44ACE0E941C1383E597
:102A000090E0662309F443CE74CE662309F43FCEEA
:102A100085E490E06ECE0E94710939CE0E94331099
:102A20002FEF84E39CE0215080409040E1F700C00C
:102A3000000088E19AE00FB6F894A89580936000B2
:102A40000FBE90936000FFCFB0E0A0E0EAE2F5E1B6
:102A50000C94452D8C01FC0183819481892B31F0EC
:102A60008081918189238F3F09F0EAC6CDB7DEB717
:102A7000E9E00C94612D80E017C7C034F2E5DF0770
:102A8000C8F5C03222E5D207D0F5CE0190548115A9
:102A9000904108F44CC0CE018B7F813E910509F432
:102AA000A2C0C830FEE7DF0709F080C0F8018281CC
:102AB000882309F47BC0C0919E0380911B038C2B5B
:102AC000827209F04FC082EE0E94140E80919D0226
:102AD000811106C08FE40E94880E80E50E94880E56
:102AE00081EE0E94140E8FE40E94140E82E0809307
:102AF0009D02F6C6CE01805C9245809760F681E02B
:102B000090E00C2E02C0880F991F0A94E2F72091E2
:102B100025033091260382239323892B09F4BBCF0D
:102B2000F8018281882309F4DBC68C2FD7C6F8010F
:102B30008581807F09F0AFCF82818111ACCF2D2FAD
:102B40002F7081E090E002C0880F991F2A95E2F76C
:102B5000209125033091260382239323892B09F4A6
:102B60009ACFBEC680919D0281111BC010929E0318
:102B70000E94660984E091E00E943B0F84E091E0AE
:102B80000E94000E8DE492E00E94510F8AE40E94A0
:102B9000880E8DE492E00E94510FC0939E0383E063
:102BA000A6CF81E50E94140E84E0A1CF80919D0202
:102BB000823069F030F4813009F43FC010929D02F8
:102BC00012C0833069F08430C9F781E507C08FE413
:102BD0000E94C30D81EE0E94C30D82EE0E94C30DC0
:102BE00081E080939D02F801C280C11052C0E09044
:102BF0009E03F0901B03CA30FEE7DF0709F497C17C
:102C000030F5C33731E2D30709F4E5C1C9308EE7A7
:102C1000D80709F474C1C337FCE7DF0709F0EAC13C
:102C2000F8018281882309F45BC68091A10388237F
:102C300009F4DDC10E94A10D53C6C932D10509F0C6
:102C4000BDCF8FE40E94880E10929D0249C6CB3002
:102C50009EE7D90709F47EC1CC30EEE7DE07D9F64E
:102C6000F8018281882309F43BC60E944E059093A7
:102C700028038093270380912903811106C083EEE6
:102C80000E94140E81E0809329038BE20E94880E3B
:102C900027C6B0909E038B2D8D7D09F0A8CF409163
:102CA0002F035091300360913103709132032FB79D
:102CB000F89480911A0490911B04A0911C04B09187
:102CC0001D042FBF841B950BA60BB70B7E018E3501
:102CD0009140A105B105D8F4FF2480912D03909176
:102CE0002E038331910509F4A5C008F04CC087304C
:102CF000910509F4EDC0F8F48530910509F4BCC0E4
:102D000008F08FC0892B09F478C0B0929E03B0926E
:102D10009E02F0922E03E0922D030E9442056093E2
:102D20002F03709330038093310390933203CC20B0
:102D300009F4D6C55CCF8930910509F484C008F444
:102D400089C08D30910509F463C00F97F1F6809129
:102D5000A1032DE0E216F10409F051C02EE0D22EBD
:102D6000C090A103CC2009F4BDC082E00E94990963
:102D700080E00E94880E82E00E9499098D2D0E94B9
:102D8000880EC12CC4CF8E32910509F489C0A0F4FD
:102D90008831910509F492C08A31910509F463C024
:102DA000469709F0B2CF8091A10399E1E916F104A9
:102DB00031F586E0D82ED4CF8535910509F477C05A
:102DC00060F48435910509F0A0CF8091A10397E2CA
:102DD000E916F10409F461C012C08635910509F4C1
:102DE00055C08735910509F090CF8091A10337E256
:102DF000E316F10409F451C002C08091A1038823B5
:102E000019F082E00E94990980E00E94880E7DCF2F
:102E10008091A1033FE0E316F10489F798E1D92EF0
:102E20009FCF8091A103EBE1EE16F10441F7A6E1FB
:102E3000DA2E96CF8091A103F9E0EF16F104F9F6AE
:102E4000B7E1DB2E8DCF8091A1032AE1E216F104D8
:102E500071F3D5CF8091A10338E3E316F10479F63D
:102E6000F6E3DF2E7DCF8091A10393E1E916F10413
:102E700031F6E5E1DE2E74CF8091A103EAE1EE1692
:102E8000F10409F0BCCF77E0D72E6ACF8091A1037F
:102E9000F7E2EF16F10409F0B2CF6CE2D62E60CF64
:102EA0008091A10327E2E216F104B9F3A8CF809143
:102EB000A103E7E2EE16F10481F3A1CF8091A10313
:102EC000FCE1EF16F10409F09ACF58E0D52E48CF77
:102ED0008091A1032BE1E216F10409F090CF4AE0C2
:102EE000D42E3ECF80919E0280939E0380E00E946C
:102EF000880E10929E038D2D0E94880E08CFF80137
:102F00008281882309F4ECC410929E030E94660912
:102F10008F2D8E29827241F086E393E00E94910EFC
:102F200080E50E94880E40C083E393E0F7CFF8016C
:102F30008281882309F4D4C410929E030E946609FA
:102F40008F2D8E29827219F080E393E0E7CF8DE216
:102F500093E0E4CFF8018281882309F4C1C48F2D66
:102F60008E29827239F182E20E949F098F2D82722E
:102F700061F08F2D8D7D80931B038823C1F00E940B
:102F80004E0590931A03809319038DEF92E00E94EF
:102F9000910EC9E1D0E080E50E94880E2197D9F713
:102FA00080E596E00E94510FE0929E0399C490E064
:102FB00080E0E7CF86EF92E00E94910E80E50E94CC
:102FC000880E80E50E94880E80E50E94880E80E5CC
:102FD0000E94880EA5CFF8018581807F59F08281FB
:102FE000882309F47DC482E00E94850979C40E9487
:102FF000710976C4FE288091A10381114EC0F2E2CE
:10300000FF1202C00E947109F8018281882329F110
:10301000C13ED10521F0C23AF2E5DF07D9F5809132
:10302000A102882371F0F8018381948120919F028D
:103030003091A002821B930B8F3F9F4710F00E949C
:10304000710981E08093A102F80183819481885302
:103050009F4F9093A00280939F02F8018281882362
:1030600009F453C1CE019057839708F04BC484E014
:1030700090E00E94A92D90936E0380936D03FE0152
:10308000E150F047E232F10508F082C0E05AFF4C0F
:103090000C949B2D1092A102E0CF0E944E05885700
:1030A0009C4E9093A00380939F03F8018281882314
:1030B000A1F2FF2DFD79FF2E09F04FC0C03422E5AB
:1030C000D20758F5C11532E5D30738F6C11580E4AB
:1030D000D80750F4C11590E2D907A0F5C63ED10536
:1030E00009F4BBCFCE010BC0C115E0E5DE07D0F778
:1030F000F8018581807F09F4B0CFCE019927109225
:10310000A40388329105A0F58E319105B8F5049796
:1031100020F182E00E94990931C0C43BF2E5DF074B
:1031200009F49BCFCE01C53B22E5D20730F480568F
:10313000924580349105B0F690CF805C924580979F
:1031400088F68BCFF8018581807FB9F68D2F8F713E
:10315000823159F028F4823041F00E94A10D7DCFD8
:10316000843109F47ACF8631C1F71092A403F5CFE8
:103170008D32910571F228F48A9779F70E94450DF6
:103180006CCF8C349105D1F38D329240B9F3E5CFF9
:1031900080916D03816080936D0395C080916E0373
:1031A000886080936E038FC080916D038260F3CF3F
:1031B00080916D038460EFCF80916D038860EBCFC9
:1031C00080916E038160EDCF80916E038260E9CFC4
:1031D00080916D038061DFCF80916D038062DBCFD2
:1031E00080916D038064D7CF0E94331080916D036E
:1031F0008068D1CF80916D038C60CDCF80916E03BC
:103200008360CFCF80916D038E7FC5CF80916E0399
:10321000877FC7CF80916D038D7FBDCF80916D0378
:103220008B7FB9CF80916D03877FB5CF80916E037F
:103230008E7FB7CF80916E038D7FB3CF80916D036A
:103240008F7EA9CF80916D038F7DA5CF80916D0377
:103250008F7BA1CF0E94331080916D038F779BCF1E
:1032600080916D03837F97CF80916E038C7F99CF80
:1032700080916D0382FB992790F921E0922790FBC2
:1032800082F990FB83F987CF80916E03982F9095F8
:1032900091708E7F892B90FB81F983CF90916D0384
:1032A000892F8F7B96FF806476CF0E943310909198
:1032B0006D03892F97FB87F980586DCF61E08EE011
:1032C00090E00E94AF2D60916D0370916E0384E0D9
:1032D00090E00E94CD2D0E94331002C360E0EFCF3A
:1032E00090916D03892F8F7E94FF806154CF9091D0
:1032F0006D03892F8E7F90FF81604DCF90916E037B
:10330000892F877F93FF88604CCFC631DC4729F532
:103310008091A20281110FC089E2E5E9F2E02BE978
:1033200032E09191891303C0DF0111971C922E178F
:103330003F07B9F7FBC285E3F0CFC3302CE7D207D4
:1033400009F456C008F044C0C1158CE7D80709F449
:103350004DC0C130DC4709F451C0F8018681978126
:10336000009709F459C00E94D407D82FC92FF8013B
:10337000F280D580D2943FE0D32280910F038770F2
:10338000C1F0CF2CFF20B1F0892F807F803421F055
:1033900080E28D0F883068F080916E0382FF09C053
:1033A00082E00E94710A80910F038770CC24C3943D
:1033B0008111C12CBC2EB2942FE0B222FBE0FB1590
:1033C00008F49FC0EB2DF0E0EE57FF4C0C949B2DC2
:1033D000CB35ECE7DE07F1F0CC35FCE7DF0781F019
:1033E000CA35DC4709F0B9CF81E011C00E941C1337
:1033F0006FEF7FEF90E080E00E94CD2D0E940E15D0
:1034000080916E0382FB882780F991E089270E94D2
:103410001C10A3CF80E0FBCF8281C081D1818823A3
:1034200069F0CE010E94B009F82E682FCE010E94EB
:10343000240ABE018F2D0E94B70795CFCE010E94AE
:10344000F109F82EF6CF2C2F2F70E22EC07F19F045
:10345000E29490EFE922FF20A9F0EE2069F080E2EB
:103460008D0F883010F0D11109C080919E03E82A99
:10347000E0929E030E94450D8D2F41C08E2D0E942B
:103480009909F8CF8D2F0E94C30DEE20D1F180E273
:103490008D0F883010F0D11104C08E2D0E949F092D
:1034A00006C0E0948091A403E822E092A4030E9465
:1034B000450D27C03C2F3F70E32EC07FC03219F06E
:1034C000E29480EFE822DD2351F0D13009F465C0A9
:1034D000FF2009F46FC0DD2009F465C0CDCF8091D5
:1034E0006E0382FD38C0FF2081F1EE2039F080911B
:1034F0009E03E82AE0929E030E94450D80E00E9410
:10350000140E2B2D2850330B2430310510F40E945B
:10351000340DCC20A9F080910F0380FD11C0F8017B
:1035200012828595859585950E94910AC8010E9411
:10353000241580910F038595859585950E945F0AD6
:1035400060E0C8010E94FF0B91CA80E00E94C30D99
:10355000EE20B9F2A2CFFF2071F080911B038E29DB
:10356000D11003C00E94B90DCCCF91E0D912FACF8F
:103570000E948509C6CFD11006C00E9466098E2D13
:103580000E94B20DBECFE1E0DE1609F4BACF8E2D57
:103590000E94B20D0E946609B4CFFF2031F0F5E021
:1035A000FD1508F4AECF8E2DDDCF24E02D1508F4E7
:1035B000A8CFE5CFDD2019F3D93349F43FEF87EEEB
:1035C00093E0315080409040E1F700C000008D2F23
:1035D0000E94C30D96CF8C2F86958695837069F0D7
:1035E000813009F08ECF8D2F9C2F9370F11002C087
:1035F00080E090E00E94740584CF8D2F9C2F937003
:10360000F11002C080E090E00E9499057ACF6F2D02
:103610008D2F0E94D70A75CF8C2F837009F03FC081
:10362000F1106FCF4D2F429546954770440F440FD0
:103630002D2F2F7030E0042E02C0220F331F0A946A
:10364000E2F790E080E0D4FF09C08FE090E002C094
:10365000880F991F4A95E2F780959095C695C69573
:10366000C370C23099F078F44091690350916A03B5
:10367000C13039F0822B932B842395230E94A10A19
:1036800040CF242B352B822B932BF8CF822B932BDF
:103690002091690330916A0382279327EFCF8695A3
:1036A000FF2011F08C2F8170882309F42ACF4D2F31
:1036B000429546954770440F440F2D2F2F7030E0F0
:1036C000042E02C0220F331F0A94E2F790E080E03C
:1036D000D4FF09C08FE090E002C0880F991F4A957F
:1036E000E2F780959095C695C695C370C23099F063
:1036F00078F440916B0350916C03C13039F0822B08
:10370000932B842395230E945A0AFBCE242B352B1E
:10371000822B932BF8CF822B932B20916B0330912C
:103720006C0382279327EFCFCF70FF2029F08C2FD7
:103730000E94910A8D2F16CF8D2F0E94B20D8C2FD3
:103740000E945F0ADECED23F71F160F4D03FB9F043
:10375000D13F81F0FF2009F463C0D1108DCE8C2FB2
:103760008F7125C0D33F31F1D43FA1F780916E0313
:1037700082FD2EC08C2F8F71FF2011F318C0FF2007
:1037800069F0E4E0ED1508F4BCCECF7181E090E083
:1037900002C0880F991FCA95E2F7BFCFF5E0FD156B
:1037A00008F4AFCEF2CF8C2F8F71F110C9CF0E94E9
:1037B000910AA7CE90E080E0FF2009F4A4CFCF715A
:1037C00081E090E002C0880F991FCA95E2F79BCF75
:1037D000FF20D9F0CF718C2F0E94910A80916E0347
:1037E00082FF11C028E0C29FC00111248360809332
:1037F0000F038C2F0E94910A0E944E0590930E0396
:1038000080930D037ECE8C2FD2CF81E00E94710A6F
:1038100031E03D1508F075CE82E00E94710A71CE4C
:10382000DD2059F0D93309F0D2CE8FEF97EEE3E0E7
:1038300081509040E040E1F7C8CE8C2F8F7180CF4F
:1038400061E0C8010E94FF0BEC010E9442056093F9
:1038500021037093220380932303909324032091E8
:103860006B0330916C038091250390912603A9018D
:103870004095509548235923452B31F082239323BB
:103880009093260380932503CD30FEE7DF0709F0F0
:10389000F4C8F8018281882319F1832F99270097B2
:1038A00009F4E9C89C0188E0A90174E056954795A0
:1038B0007A95E1F74115510511F08C5F9A01A90144
:1038C00056954795569547954115510511F08E5FD0
:1038D0009A0136952795232B09F08F5F0E94400CA3
:1038E00080910F03877009F4C1C8F8018281882391
:1038F00009F4BCC880916E0382FFB8C882E00E94C0
:10390000710AB4C8C631FCE7DF0709F016CD809113
:103910009E038A7A91E009F490E09093A20269E212
:10392000811165E382E992E00E945A050E94450DEB
:10393000D7CFCF93DF938091C802807F09F049C031
:103940008091C502882309F444C080910C03D09172
:10395000CB026091C3027091C402A091C602B091E3
:10396000C702C62FC723D817A1F190E0109711F016
:10397000CF3F19F401968770F6CF9C0143E0220FE8
:10398000331F4A95E1F7F901E453FD4F4181471395
:10399000F1CF40814613EECF42814111EBCF4381FD
:1039A00054814A1B5B0B483C510520F78091C802AB
:1039B0008F7080618093C802F901EF52FD4F8081C2
:1039C0008F708061808383EC92E00E9424150E94B6
:1039D000A609DF91CF910895A5E1B0E0E2EFFCE107
:1039E0000C94442D8C0185E0F801DE015196019084
:1039F0000D928A95E1F7F801E28063ECA62E62E071
:103A0000B62E6091C6027091C7026115710509F466
:103A10004BC19091C3024091C402892F84238F3FF0
:103A200009F442C120813181C380D480F090C50265
:103A3000F601E61BF70BFF2009F411C18091C802C3
:103A4000582F507FE83CF10508F0C4C0511175C0F3
:103A5000FE2C43131EC092131CC06091C9027091CA
:103A6000CA02F801468157816417750791F4E11085
:103A700010C08F7080618093C802C5010E94241518
:103A80008091C802F80185838F2D6596EAE00C9439
:103A9000602DC114D10429F0822F83238F3F09F0B8
:103AA0001EC180E0F82FF170DF2E80FF3CC08091B6
:103AB0000C034091CB02841315C0298B3A8B898962
:103AC0009A890E94E409292F22952F702230F8F05C
:103AD000243020F59F70F9F0F8019581907FD9F49A
:103AE000D12C1FC090E0FC0153E0EE0FFF1F5A9550
:103AF000E1F7E453FD4F5181351306C05081251382
:103B000003C05281E5120FC001968770D4CF9F7019
:103B100011F0882329F3805E883010F3C8010E94D9
:103B20002415FD2CB1CFEE2009F4AECF8091C80250
:103B300081608093C802F12CA7CF43131BC092135E
:103B400019C04091C9025091CA02F80126813781FB
:103B50004217530779F4E1100DC08583C8010E9414
:103B6000241588E0F801A3ECB2E001900D928A954B
:103B7000E1F78ACFC8010E94A60A882339F1EE2016
:103B800029F18091C8028032A0F02091C3023091C7
:103B9000C4023A8729871B86DD86CC868E87809172
:103BA000C9029091CA02988B8F87CE0109960E9414
:103BB000241588E0F801A3ECB2E001900D928A95FB
:103BC000E1F70E94991CFF24F3945ECFC8010E9484
:103BD0002415F9CF51110AC083EC92E00E942415FC
:103BE00088E0F50111928A95E9F7A5CF431318C033
:103BF000921316C04091C9025091CA02F801268161
:103C000037814217530761F4E1100AC08583C80168
:103C10000E94241588E0F50111928A95E9F734CFC6
:103C2000C8010E94A60A882389F2EE2079F28091C9
:103C3000C802803208F4BDCF2091C3023091C40283
:103C40003A8329831B82DD82CC828E838091C902D4
:103C50009091CA0298878F83CE010196A8CFE83C45
:103C6000F105C0F6FE2CEE2009F4B0CF43130EC0D0
:103C700092130CC02091C9023091CA02F8018681CA
:103C800097812817390711F488E06DCFC8010E9489
:103C9000A60A81118ECF8091C80281608093C802EC
:103CA000C8010E942415F0CEEE2009F48FCFC80180
:103CB0000E94A60AF82E882309F488CF88E0F8012C
:103CC000A3ECB2E001900D928A95E1F78091C302D6
:103CD0009091C4020E94E4090E94991CD5CE81E013
:103CE0008E25E0CEA0E1B0E0E8E7FEE10C944C2D9B
:103CF00029873A874B875C876D877E878F87988B6C
:103D0000CE0109960E94EC1C811112C088E0FE01D0
:103D10003996DE01119601900D928A95E1F78C8516
:103D20009D85892B29F089859A8589238F3F81F587
:103D300080910C039091CB02891317C06096E2E04A
:103D40000C94682D93E0AA0FBB1F9A95E1F7A4533A
:103D5000BD4F98E0FE01319601900D929A95E1F7E2
:103D60008093CB020E94A609E3CFB8E08B9FC001ED
:103D7000112484539D4F0E94EC1C8823F9F28091FA
:103D80000C0390E001968770992780930C03D0CFA5
:103D9000A091CB02B0E0CD010196877099272091C8
:103DA0000C032817190671F60E9433101092CB02EB
:103DB00010920C0388E0E3ECF2E0DF011D928A959B
:103DC000E9F7B6CF0F931F93CF93DF938091A603AC
:103DD000E091A5031CE081111AC0DF91CF911F91E2
:103DE0000F91089501E00E0F0093A503CE2FD0E0B0
:103DF000E19FF0011124E955FC4F83819481892BC7
:103E000029F08081918189238F3FF9F4E02F8091FF
:103E1000A603E81738F31092A6031092A503DDCF8E
:103E200018968D919C918F3F9807E1F061E00E9478
:103E300038131C9FF0011D9FF00D1124E955FC4F14
:103E4000148213821092A403E1CF1C9FD0011D9F06
:103E5000B00D1124A955BC4F16968D919C911797C2
:103E6000892BF1F2208131814281538164817581F6
:103E7000868197810E94721EDCCF109212041092EC
:103E80001104109235028091100480930F040E9457
:103E9000EC050E94E21E0895B0E0A0E0E2E5FFE13B
:103EA0000C943C2DC0910F04E7E0FE2E01E010E0E1
:103EB000FCE02F2EAEEFEA2E809110048C1309C087
:103EC0000E94E21E0E94EC05CDB7DEB7E2E10C9441
:103ED000582DD0E0FE01EE0FFF1FE95FFB4F808100
:103EE0009181F89EF001F99EF00D1124E75CFE4FE0
:103EF0002481211159C03090A603A7EAB3E030E035
:103F000020E0412C5F01231508F04CC01A966D90FB
:103F10007C901B97F501808091804FEF5FEF512CD3
:103F2000C52CD12CF601EE0FFF1FE80DF91D659190
:103F300074916616770609F4A601672B11F0539465
:103F4000EFCF4F3F5407B9F1B80102C0660F771F9A
:103F50004A95E2F7462AA801052C02C0440F551FD6
:103F60000A94E2F7415051094416150601F5229EC4
:103F7000F001239EF00D1124E955FC4FF89ED0016D
:103F8000F99EB00D1124A75CBE4F12962D913C9165
:103F9000139737832683E082E1829187808771E0DF
:103FA00015967C930E94BE052196C37085CF14960A
:103FB0001C921E9213972F5F3F4F1C96A4CFA9E12E
:103FC000B0E0E5EEFFE10C943C2D498B5A8B6B8BF6
:103FD0007C8B8D8B61111092A4031D861E861F861B
:103FE000188A85E0FE017196DE01199601900D9206
:103FF0008A95E1F780916E0382FF1CC00E944E05F6
:1040000020910D0330910E03821B930B883E934049
:1040100020F080910F0382FFF2C10E944E05209193
:10402000190330911A03821B930B883E934010F0C2
:104030000E9466098C859D85892B31F089859A853A
:1040400089238F3F09F0C9C129853A854B855C8555
:104050006D857E858F8598890E94721EC7C08135C7
:104060004CE7940731F48B85882371F00E943D1F43
:10407000EBCF82359C4741F48B85882329F08091D2
:1040800035028111F3CFB7C169857A8580E00E943E
:10409000B7074C0109E311E0E12CD12CC12CAA2473
:1040A000A394B12C9EEF592E44244394F8016081CF
:1040B000718166246A94762C20E0422F50E0FA0148
:1040C000EE0FFF1FE60FF71F859194918816990652
:1040D00009F43A01892B11F02F5FEFCFF12CFFEF9C
:1040E0006F167F0609F444C0F8014481F090350250
:1040F0008F2D411180E0F82FF170FF2EF8012580FF
:1041000086819B85992309F4F2C0FF2009F4EFC052
:10411000211014C0A501062C01C0440F0A94EAF72F
:10412000842B86838091A2039091A303889730F417
:1041300048E250E05093A3034093A203C50102C09C
:10414000880F991F2A95E2F70197F8012681281711
:10415000190671F48091110490911204009709F4EA
:1041600049C00E943305899708F444C0F80144828D
:10417000EF28FFEFCF1ADF0A095F1F4F24E2C216B4
:10418000D10409F093CF8B85882309F411C1EE2067
:1041900009F40EC10E944E059093120480931104FD
:1041A0008091A603883010F591E0980F9093A603B4
:1041B00098E0FE013996DE01119601900D929A95D4
:1041C000E1F73CE0839FC001112489559C4F28E012
:1041D000FE013196DC0101900D922A95E1F72FEF57
:1041E0003FEFFC0131872087938682866996E2E162
:1041F0000C94582D80910F0460901004982FF0E0DB
:10420000E0E0861114C090930F040E171F0709F405
:10421000AFCF90E0FC01EE0FFF1FE95FFB4FD182B3
:10422000C08201968370992780931004A1CF282E15
:10423000312CF101EE0FFF1FE95FFB4F208131812F
:10424000F7E0F29FD001F39FB00D1124A75CBE4FA1
:104250002D913C911197398F288F712C60E070E07F
:10426000E72FF0E0EE0FFF1F288D398DE20FF31FCF
:104270002591349121153105E1F0F8010190F0818B
:10428000E02DFF8BEE8B60E005C02417350709F4A5
:104290007F2C6F5FE62FF0E0EE0FFF1F4E895F89E6
:1042A000E40FF51F459154914115510571F77F5F5A
:1042B000D7CF7720C9F0F801671708F0FD014482D5
:1042C000E017F10721F490930F04F72C51CF8913D5
:1042D00005C0EA17FB0711F49F5F937091012F5FF0
:1042E0003F4F822F83708DCFF0E0E0E0F7CF90E07A
:1042F000211020C0B50102C0660F771F2A95E2F792
:104300009B01215031092817390731F4442309F45E
:104310004DC0C6010E94BE05C501062C01C0880F14
:104320000A94EAF7982F9095F8018681892386836D
:10433000F22C1ECF9C01062C02C0359527950A94BD
:10434000E2F7A90141705527BC016150710986232C
:104350009723892B39F5452B29F1F8018281938127
:10436000892BD9F01B821C821D821E8259825A829F
:104370000E944E058160582F9D838C83F8018281B5
:1043800093818F83988729813A814B816D817E81CA
:104390000E94721EF8011582BFCF60E0C6010E9424
:1043A0003813F8CFF22FF1702F2EB6CF2F2CB4CFB9
:1043B00090910F0480911004981731F00E944C1FC7
:1043C000EE2009F441CE12CF0E94E21E1092120498
:1043D000109211040E94EC05F3CF61E0CE01099622
:1043E0000E94FF0B8035FCE79F0709F038CE8B85D4
:1043F000882309F449CE81E08093350225CE82E0FE
:104400000E94710A0ACEAFE0B0E0E9E0F2E20C945B
:10441000412D8E010F5F1F4F8AE0D8011D928A95B2
:10442000E9F784E7C82E82E0D82EF12CE12CAA24EB
:10443000A394B12C2FE7822E22E0922EF6018191D7
:104440006F018F3F09F442C0F894E82FE295EF70B6
:10445000F0E021A18F70A50102C0440F551F8A957D
:10446000E2F7CA01922F982B91A392A180958923FC
:1044700082A3789400C0E9E7F2E0712C31E0219149
:104480002F3F09F46BC0A22FA295AF70B0E09096B9
:104490008C9190E02F7002C0959587952A95E2F750
:1044A00080FD5CC0832F782A330F8E169F0639F764
:1044B000F601319780818F3F11F00E945D0750EA2D
:1044C0005A95F1F7F801EE0DFF1D70828FEFE81A93
:1044D000F80A95E0E916F10409F0B0CF4AE050E09F
:1044E000B8018DE593E00E941A30009741F02AE070
:1044F000F801ADE5B3E001900D922A95E1F7009146
:104500006803892B69F181E080931E030E944E05A8
:1045100090931D0380931C0380911C0390911D03B5
:104520000E943305059700F110E00F581C4F45E03D
:1045300050E06DE573E0C8010E941A30C12C892B50
:1045400051F085E0EDE5F3E0D80101900D928A95F8
:10455000E1F7CC24C39410921E0307C080E0A3CFE0
:1045600080911E038111D8CFC12C0E94110DD82E2D
:10457000E0916803DE011B967D01882309F401C1E7
:1045800085E01D928A95E9F70E2F10E00F581C4F19
:10459000809156038A3008F0C0C042E855E2B70166
:1045A000C8010E94DE0C882309F4DAC049E255E212
:1045B000B701C8010E94DE0C882309F4D1C04BE189
:1045C00054E2B701C8010E94DE0C882309F4C8C078
:1045D000109256038091670390E045E050E0B701E8
:1045E0008F589C4F0E941A3021E020933703892B6B
:1045F00009F0A9C0D12C8091250390912603892B25
:10460000C1F14091210350912203609123037091E5
:1046100024032FB7F89480911A0490911B04A09161
:104620001C04B0911D042FBF841B950BA60BB70B68
:10463000813C944DA140B105E0F08091250390911B
:1046400026038095909520916B0330916C03822313
:1046500093230E945A0A10922603109225030E9467
:104660004205609321037093220380932303909368
:10467000240340912F0350913003609131037091D6
:1046800032032FB7F89480911A0490911B04A091E3
:104690001C04B0911D042FBF841B950BA60BB70BF8
:1046A0008E359140A105B10570F00E9442056093DE
:1046B0002F03709330038093310390933203109251
:1046C0002E0310922D0380912C03882371F080918A
:1046D0002A0390912B030E9433058132934028F0E6
:1046E00082EE0E94C30D10922C038091290388232F
:1046F00071F080912703909128030E943305813245
:10470000934028F080EE0E94C30D109229038D2D56
:104710008C292F96EDE00C945D2D80911F039091D4
:1047200020030E943305843F914008F036CF8091EA
:104730003703882309F45ECF85E0F70111928A954B
:10474000E9F710923703A0916703B0E0AF58BC4F70
:1047500085E0FE013B9601900D928A95E1F74BCFE3
:10476000809156038F3F31F08F5F809356038A30DC
:1047700008F430CF0E944E059093200380931F03CE
:10478000D6CFF0E0EF58FC4F85E0A7E4B3E001900E
:104790000D928A95E1F765E070E087E493E00E946E
:1047A000FD058093460340918B0350E060918A039E
:1047B00070E06A577C4FC7010E9427308B85809339
:1047C0004D0361E070E0C7010E94FD0580934C033A
:1047D00080904E0390904F03A0905003B0905103EF
:1047E0008091330390913403A0913503B091360347
:1047F00088169906AA06BB0611F4D12C88CF8092A0
:10480000330390923403A0923503B09236030E9492
:10481000110DD82E8111F1CF0E944205861A970AF8
:10482000A80AB90A8092570390925803A09259039C
:10483000B0925A036CCFA4E0B0E0E1E2F4E20C9451
:104840004A2D40915203509153036091540370914B
:1048500055032FB7F89480911A0490911B04A091EE
:104860001C04B0911D042FBF841B950BA60BB70B26
:1048700011E084369105A105B10590F10E94110D5A
:10488000882399F10E9442056E5F7F4F8F4F9F4FA3
:1048900069837A838B839C8380912101909122018B
:1048A0008A5B9C4F4091200150E04530510510F04B
:1048B00044E050E0BE016F5F7F4F0E94273084E0EC
:1048C00090E00E94C62C182F882351F00E944205C8
:1048D0006093520370935303809354039093550352
:1048E000812F2496E4E00C94662D0E9442050091ED
:1048F0005703109158032091590330915A03600FC8
:10490000711F821F931FC0CF4F925F927F928F9231
:104910009F92AF92BF92CF92DF92EF92FF920F934E
:104920001F93CF93DF930F92CDB7DEB7C62E4A0108
:104930005901482E880F5508C2010E94C62C782EB6
:10494000882309F480C0C20133E0880F991F3A958B
:10495000E1F7FC01E050FF4F438150E04115510564
:1049600011F041E050E080509F4FFC01648175815F
:104970006A5B7C4FCE0101960E942730F401408192
:104980005181628173812FB7F89480911A049091BC
:104990001B04A0911C04B0911D042FBF841B950B18
:1049A000A60BB70B84369105A105B10540F4B701FC
:1049B000C8010E94FD059981891709F444C00C2C97
:1049C000000CDD08C6010E94C62C782E811113C090
:1049D000712C872D0F90DF91CF911F910F91FF9038
:1049E000EF90DF90CF90BF90AF909F908F907F908F
:1049F0005F904F900895C60123E0880F991F2A9574
:104A0000E1F7FC01E050FF4F438150E0E416F5066A
:104A100008F4A70180509F4FFC01648175816A5B97
:104A20007C4FC5010E942730B701C8010E94FD05D7
:104A300099818913CDCF0E944205F401608371836F
:104A400082839383C6CFA701B801C5010E94273096
:104A5000C0CFA1E0B0E0EFE2F5E20C94452DEE24EA
:104A6000E394F12C0DE413E09E012F5F3F4F42E4ED
:104A700053E063E082E00E948424C82E882339F149
:104A800000E080E01DC0D0905C03D00E2D2D30E002
:104A9000A9014A575C4F7A01E1E0F0E0EC0FFD1FFD
:104AA000E00FF11D1081FA019081191BB12E1B142A
:104AB0009CF0912F17FD90E0191B111118C00F5F8A
:104AC00090915B030917F8F281110E9463098C2D04
:104AD0002196E9E00C94612DBA94F70180818F5FF3
:104AE000808360E08D2D0E94710F8C2DE0CF1F5FC1
:104AF000F70180818150808361E08D2D0E94710FCC
:104B00008C2DDBCFA5E0B0E0E8E8F5E20C94462D73
:104B10006B0185E0E82EF12C07E413E09E012F5F86
:104B20003F4F4EE353E061E080E00E9484248823FD
:104B300049F095E0FE013196A9E3B3E001900D92B2
:104B40009A95E1F795E0E9E3F3E0D60101900D9243
:104B50009A95E1F72596E8E00C94622D1F920F924A
:104B60000FB60F9211242F933F934F935F936F9340
:104B70007F938F939F93AF93BF93CF93DF93EF93E5
:104B8000FF93D091E900DF708091EC00C82FC170D5
:104B900080FDC0E81092E9008091F000877F80934B
:104BA000F00078940E945A101092E9008091F00071
:104BB00088608093F000CD2BCF70C093E900FF9107
:104BC000EF91DF91CF91BF91AF919F918F917F91A5
:104BD0006F915F914F913F912F910F900FBE0F906A
:104BE0001F9018951F920F920FB60F9211242F93BA
:104BF0003F934F935F936F937F938F939F93AF9365
:104C0000BF93EF93FF938091E10082FF09C08091F1
:104C1000E20082FF05C08091E1008B7F8093E1007C
:104C20008091DA0080FF24C08091D80080FF20C0EE
:104C30008091DA008E7F8093DA008091D90080FF26
:104C40009DC080E189BD82E189BD09B400FEFDCF30
:104C500081E080933B0480911E04811109C00E9471
:104C6000D6030E9477048091E20084608093E20082
:104C70008091E10080FF17C08091E20080FF13C0A7
:104C80008091E2008E7F8093E2008091E20080615B
:104C90008093E2008091D80080628093D80019BC94
:104CA00085E080933B048091E10084FF2BC08091DC
:104CB000E20084FF27C080E189BD82E189BD89B51A
:104CC000982F917080FFFBCF8091D8008F7D8093CB
:104CD000D8008091E1008F7E8093E1008091E20016
:104CE0008F7E8093E2008091E20081608093E200F9
:104CF00080913204882309F447C084E080933B0408
:104D000080913B048091E10083FF27C08091E20005
:104D100083FF23C08091E100877F8093E10082E0E0
:104D200080933B04109232048091E1008E7F809347
:104D3000E1008091E2008E7F8093E2008091E200AA
:104D400080618093E20042E060E080E00E944504E0
:104D50008091F00088608093F000FF91EF91BF9107
:104D6000AF919F918F917F916F915F914F913F9103
:104D70002F910F900FBE0F901F90189519BC109295
:104D80003B0410921E0474CF8091E30087FD93E0F2
:104D900090933B04B5CF78941F921FB61F921124B5
:104DA0008F939F93AF93BF9380911A0490911B04AC
:104DB000A0911C04B0911D040196A11DB11D80930A
:104DC0001A0490931B04A0931C04B0931D04BF917C
:104DD000AF919F918F911F901FBE1F9018951F92AA
:104DE0001FB61F9211248F939F93AF93BF9380910F
:104DF0001904811113C080911A0490911B04A09191
:104E00001C04B0911D044196A11DB11D80931A048C
:104E100090931B04A0931C04B0931D04BF91AF9109
:104E20009F918F911F901FBE1F901895CDB7DEB731
:104E300060970FB6F894DEBF0FBECDBF85B7806810
:104E400085BF85B7806885BF84B7877F84BF0FB66D
:104E5000F894A8958091600088618093600010921A
:104E600060000FBE80E890E00FB6F8948093610078
:104E7000909361000FBE8BE597E090939102809331
:104E800090020E94D6030E9477048091E200846021
:104E90008093E200789480913B048823A1F01091E4
:104EA000E9001F709091EC00892F817090FD80E8DF
:104EB000182B1092E9008091E80083FD0E945A109F
:104EC0001F701093E90082E084BD93E095BD9AEFD6
:104ED00097BD80936E001092570310925803109262
:104EE000590310925A030E94110D809328010E94C9
:104EF000110D81110E94DA2B9091280181E09827F1
:104F000090938A03282F291B20935C0390912801FA
:104F100080938B039091280180935B0380912801FB
:104F2000811106C084EF8093340185EF80933301B3
:104F300082E08093320120913401E22FE295EF70FC
:104F4000F0E061A12F7081E090E0AC0101C0440F5E
:104F50002A95EAF7342F3095362331A322A1242B4A
:104F600022A320913301E22FE295EF70F0E031A10E
:104F70002F7001C0880F2A95EAF7982F90959323F8
:104F800091A392A1892B82A38FE891E00197F1F779
:104F900000C0000010918B036CE873E044E351E023
:104FA00083E3E82E81E0F82EFB0128C0DA012D9181
:104FB000AD01822F82958F7090E0DC0190968C91EC
:104FC00090E02F7002C0959587952A95E2F7817041
:104FD000D7019D917D01292F22952F7030E0D901B5
:104FE00090962C9130E09F7002C0359527959A9548
:104FF000E2F790E020FD92E0892B81938E2F861BB3
:105000008117A0F2809128018091280195E08111FB
:1050100090E09093680385E0891B8093670304E721
:1050200012E069E7E62E62E0F62EF80181918F0129
:105030008F3F11F00E945D07E016F106B1F709E716
:1050400012E05FE7E52E52E0F52ED8018D918D013B
:105050008F3F11F00E945D07E016F106B1F78AE07C
:10506000E1E7F3E0DF01282F1D922A95E9F7EDE54E
:10507000F3E0DF011D928A95E9F790E080E00E945D
:10508000A92D873E9E4F09F45EC067EE7EEF90E04B
:1050900080E00E94CD2D60E082E090E00E94AF2D84
:1050A00060E083E090E00E94AF2D10926A031092BE
:1050B000690360E074E184E090E00E94CD2D60E03F
:1050C00086E090E00E94AF2D6FEF87E090E00E94B5
:1050D000AF2D40E050E0BA0188E090E00E94C12D81
:1050E00060E08DE090E00E94AF2D40E050E0BA011A
:1050F00088E190E00E94C12D60E087E190E00E948D
:10510000AF2D40E050E0BA018CE190E00E94C12D4B
:1051100070E060E080E290E00E94CD2D40E050E041
:10512000BA0188E190E00E94C12D40E050E0BA0150
:105130008FE090E00E94C12D40E050E0BA0183E191
:1051400090E00E94C12D82E090E00E94A12D80930A
:105150007B0384E090E00E94A92D90936E038093DE
:105160006D0383E090E00E94A12D90E00E94A10ACF
:105170000E94110D811102C00E94DD2B89E291E095
:10518000909316048093150438E1C32ED12C4BE77D
:10519000A42E43E0B42E26E8822E23E0922E8091A6
:1051A0003B0400E112E1853009F47EC00E94032235
:1051B0000CE713E091E7E92E93E0F92ED701F8010F
:1051C00091918D918E169F0609F478C09817C1F3BE
:1051D0000E94110D282E712CD7016D907D01F801D0
:1051E00031908F01361429F13624512C44244394F4
:1051F000832D8421B1F02220A1F05C867D8691E090
:10520000862D842109F490E09E870E944E058160DE
:10521000782F988B8F874C855D856E8588890E9455
:10522000DF1F5394440CF6E05F12E2CFF801319790
:10523000608273942AE07212CFCF0E9442055EC052
:1052400080913B04843011F110921904E0E40FB610
:10525000F894A895C09260000FBEE093600083B7F9
:10526000817F846083BF83B7816083BF7894889592
:1052700083B78E7F83BF0FB6F894A89580916000A6
:10528000886180936000109260000FBE80912B04B3
:10529000882351F00E940322E1E7F3E0819181111C
:1052A00011C2AE16BF06D1F780913B04853009F4D8
:1052B000C7CF0E9433100E94340D78CF981388CF47
:1052C0000E944E058C0180916F0390917003081726
:1052D0001907A1F08FEF8F83888719860E944E05EA
:1052E0008160782F9B878A874F81588569858B8558
:1052F0000E94DF1F1093700300936F030E94110D33
:105300008823A9F180913502882301F1809111044D
:10531000909112040097D1F00E9433052091A203CE
:105320003091A3032817390788F490910F048091D6
:105330001004981709F415C10E944C1F1092A30382
:105340001092A20310921204109211048091A103F2
:10535000882369F00E944E0520919F033091A0039D
:10536000821B930B8F3F9F4710F40E94A10D612C6D
:10537000512C80918B03681608F4FCC051100E94D8
:10538000630986E0E8E9F3E0DE01119601900D92F1
:105390008A95E1F710929A0310929B0310929C0356
:1053A00010929D038B819C81892B09F44DC08091C3
:1053B0009603909197030E9433059C0190918F036F
:1053C000992309F499C12930310508F43DC09F3F64
:1053D00019F09F5F90938F038B81882361F00E9467
:1053E000C9069B8119160CF455C19FEF899F802D2A
:1053F000112480939A038C81882361F00E94C9064E
:105400009C8119160CF448C19FEF899F802D1124AF
:1054100080939B0330919A033323B1F020919B0337
:10542000222391F045EB3403C0011124992309F4A0
:1054300035C190939A0345EB240390011124332343
:1054400009F430C130939B038D819E81892B09F42F
:105450005AC080919403909195030E943305109156
:105460009203112309F444C1BC0190E080E00E9442
:10547000F62E20913501309136014091370150913F
:1054800038010E94A82F18160CF03DC01F3F19F0DC
:105490001F5F109392038D81882361F00E943A066A
:1054A0009D8119160CF402C19FEF899F802D112454
:1054B00080939C038E81882361F00E943A069E812E
:1054C00019160CF4F5C09FEF899F802D112480934D
:1054D0009D0330919C033323B1F020919D0322233F
:1054E00091F045EB3403C0011124992309F4E2C083
:1054F00090939C0345EB240390011124332309F47A
:10550000DDC030939D0346E050E0BE016F5F7F4FEA
:1055100088E993E00E941A30892B61F480919A0304
:1055200090919B03892B90919C03892B90919D03D3
:10553000892B11F00E94130686E0FE013196A8E93E
:10554000B3E001900D928A95E1F70E94340D90919D
:105550008E03891709F423CE80938E030E9442059F
:105560001ACE0E94E21E10921204109211040E94A0
:10557000EC05ECCE062D10E0F801EC5CFE4F8081CE
:10558000E82FE295EF70F0E0E0A1F0E08F7002C04C
:10559000F595E7958A95E2F7E170D801AD5CBE4FCD
:1055A0002C91A22FA295AF70B0E090968C9190E0D4
:1055B0002F7002C0959587952A95E2F780FD62C00D
:1055C00080E08E2BD801A457BC4FEC919E2F937096
:1055D000891709F455C0EE0FEE0FE82BEC93D801B4
:1055E000AF5CBE4FEC9070908A03760CEF70F0E0E9
:1055F000E158FD4F08571C4F8081D8019C91890FBD
:105600008C93F12C082E000C990B412C8E159F05C4
:1056100084F0E72DF0E0EA57FC4F80818F5F8083B4
:105620000E94110D482E882379F160E0872D0E9499
:10563000710FF8018081082E000C990B2227332767
:105640002E193F092817390784F0E72DF0E0EA57B3
:10565000FC4F8081815080830E94110D482E882349
:10566000B1F061E0872D0E94710FD8018C91082E56
:10567000000C990BB7010E94872DF80180835428F4
:10568000639477CE82E09DCF44244394D2CF4424C8
:105690004394EBCF91E0AACE91E0B7CE81E0809326
:1056A0009A03C9CE81E080939B03CECE91E0FDCEDC
:1056B00091E00ACF81E080939C031CCF81E080932E
:1056C0009D0321CF09BD19BD09B400FEFDCF809116
:1056D000D8008F7D8093D8008091E0008260809315
:1056E000E0008091E00081FDFCCF0E943310DCCD12
:1056F0000B9708F0CDCE07CF232B09F06ACEA4CEAE
:105700008EE14A9B02C08150E1F74A9BFECF08958B
:105710005A9880E28A95F1F75A9A0895FC013BE085
:105720003A95F1F798E020E080E031E040E14A95D9
:10573000F1F7880F4A9B02C08160232742E04A9517
:10574000F1F7000040E14A95F1F7915079F790E1C7
:105750009A95F1F799B132E03A95F1F7000040E1FE
:105760004A95F1F792FB992790F992272081920FA1
:1057700090830895A1E0B0E0E0ECFBE20C94482DAA
:1057800019828C017C01E60EF11C0E151F0541F4F7
:1057900081E09981911180E02196E6E00C94642DDE
:1057A0000E94802BCE0101960E948E2BF8018193DE
:1057B0008F01EBCF529A5A9A089552985A9AEA9AC0
:1057C000E9E6F0E080818F7C808308956150770B5B
:1057D00091E001C0990F6A95EAF720E031E091115C
:1057E00008C0222391F05A9A80E28A95F1F75A98DC
:1057F0000895492F482339F05A9A232740E24A95C1
:10580000F1F79695ECCF5A98F9CF5A98EDCFFF92D1
:105810000F931F93CF93DF93EC018C01060F111DA3
:10582000C017D10729F4CDB7DEB7E5E00C94652D9C
:10583000F9900E94882B68E08F2D0E94E62BF0CF14
:105840001F920F920FB60F9211240F931F932F9355
:105850003F934F935F936F937F938F939F93AF93F8
:10586000BF93EF93FF93CF93DF930F92CDB7DEB744
:1058700019820E94802BCE0101960E948E2B082F48
:10588000069506950695282F22952570902F9570E0
:10589000290F922F937026952695920F982797702F
:1058A0008981982B09F05CC0063008F059C080E16E
:1058B0008A95F1F75A9A529A82E08A95F1F700C0D8
:1058C0005A9888E0089F80011124D801A050BF4F4A
:1058D0001696ED91FC9117973097A9F0609172029E
:1058E0007091730214962D913C911597260F371FD6
:1058F00011968D919C911297680F791F13964C9178
:1059000013978C910995F801E050FF4F638166234E
:1059100051F0209172023091730284819581820F3F
:10592000931F0E94072C0E94882B80E18A95F1F733
:105930005A9852985A9A80E18A95F1F7F801E05006
:10594000FF4F6081662351F0209172023091730203
:1059500081819281820F931F0E94BA2B0E94802B1B
:105960000F90DF91CF91FF91EF91BF91AF919F91F8
:105970008F917F916F915F914F913F912F911F91E7
:105980000F910F900FBE0F901F9018950F931F93BC
:10599000CF93DF93EC0106970CF04CC0F894529A29
:1059A0005A9885E08A95F1F700009C2F969595709E
:1059B0008C2F8570980F892F83709695969523E08C
:1059C000CC0FDD1F2A95E1F7980F8E01092B0E945D
:1059D000882B00C068E0802F0E94E62B80E18A952A
:1059E000F1F752985A9A4A9B1EC087E090E04A9974
:1059F0001CC0FE01E050FF4F63816623F9F0209147
:105A000072023091730284819581820F931F0E94EC
:105A1000BA2B811113C0529A5A9A7894DF91CF9180
:105A20001F910F91089500C0DECF019729F4529A7B
:105A30005A9A789480E0F2CF00C0D9CF0E94802B90
:105A400080E28A95F1F75A98529A80E18A95F1F7A7
:105A5000C050DF4F6881662351F02091720230916F
:105A6000730289819A81820F931F0E94072C0E94E2
:105A7000882B789481E0D2CF2F923F924F925F9201
:105A80006F927F928F929F92AF92BF92CF92DF924E
:105A9000EF92FF920F931F93CF93DF93CDB7DEB7B3
:105AA000CA1BDB0B0FB6F894DEBF0FBECDBF099447
:105AB0002A88398848885F846E847D848C849B849E
:105AC000AA84B984C884DF80EE80FD800C811B81AC
:105AD000AA81B981CE0FD11D0FB6F894DEBF0FBEDB
