:100000000C94C5030C94E2030C94E2030C94702C42
:100010000C94E2030C94E2030C94E2030C94E203CC
:100020000C94E2030C94E2030C9442260C94FE25FB
:100030000C943F270C94E2030C94E2030C94E2032B
:100040000C94E2030C94E2030C94E2030C94E2039C
:100050000C94E2030C941B270C94E2030C94E2032F
:100060000C94E2030C94E2030C94E2030C94E2037C
:100070000C94E2030C94E2030C94E2030C94E2036C
:100080000C94E2030C94E2030C94E2030C94E2035C
:100090000C94E2030C94E2030C94E2030C94E2034C
:1000A0000C94E2030C94E2030C94E203E10031327D
:1000B00000003F00400000003B00420000000F0035
:1000C00018001C0000002A003431313200003B00CF
:1000D00042004300440000007342282100000B004E
:1000E0003600000018001C00000036003700000039
:1000F000120034310000380031320000370038007F
:1001000000001D28070000001B00190000001B0054
:10011000070000000600070000001B0006000000AA
:100120001D281B0000000900130000001A00090030
:1001300000000A0037000000160037000000090028
:10014000370000000400370000001B0037000000EB
:100150001500370000001A003700000014003700B7
:1001600000000700370000001700370000001300F0
:100170003700000008000D00000008000E0000001D
:100180000800100000002222002727003C544147AD
:100190003E3C2F5441473E003C696D6720737263BB
:1001A0003D22696D6167655F736F757263655F6F2F
:1001B000725F6C696E6B5F676F65735F68657265B0
:1001C0002220616C743D226E616D655F69665F63BC
:1001D000616E745F6C6F6164222077696474683D3E
:1001E000226E756D5F706978656C73222068656931
:1001F0006768743D226E756D5F706978656C7322F7
:100200003E003C6120687265663D226C696E6B5FE2
:10021000676F65735F68657265223E6E616D655FCD
:100220006F665F6C696E6B5F676F65735F68657241
:10023000653C2F613E003C666F6F7465723E3C2FDB
:10024000666F6F7465723E003C626F64793E3C2F4E
:10025000626F64793E003C686561643E3C2F68656E
:1002600061643E003C68746D6C206C616E673D2279
:10027000656E223E3C2F68746D6C3E003C73747951
:100280006C653E3C2F7374796C653E003C746974F8
:100290006C653E3C2F7469746C653E003C703E3C5E
:1002A0002F703E003C6469763E3C2F6469763E00C8
:1002B0003131312048696768766965772047617414
:1002C00065205345006163626F75776572734066A0
:1002D000726565646F6D736164766F636174652EBA
:1002E00063610061726963626F7577657273406FF5
:1002F00075746C6F6F6B2E636F6D002829203D3E07
:100300002000636F6E737420796F757246756E632B
:100310005661726961626C65203D2028782C7929CC
:10032000203D3E2078202B20792E6D6574686F6407
:100330003B005B5D007B7D002829003C3E003505CD
:100340003B004200430044004500292F14001A00DE
:100350000900130005002B44044415001600170083
:100360000A00E1001D281B0006000700190000001C
:10037000652428212C427328AE00770040003F00FE
:100380003E003D003C002A0033001C0018000F0016
:100390000D00343112000C00080011001000313241
:1003A0003800370036000B000E0000002B084C43CD
:1003B0002C4235240C7E35053B00420043004400AE
:1003C0004500292F14001A000800150017002B44BF
:1003D00004441600070009000A00E1001D281B0064
:1003E0000600190005000000652428212C4273280E
:1003F000AE00770040003F003E003D003C002A0078
:10040000130012000C0018001C00343133000F00E0
:100410000E000D000B00313238003700360010009E
:10042000110000002B084C432C4235240C7E1B701D
:100430003A003B003C003D003E0035001E02360203
:1004400037022E0023022B0220022F002602270251
:100450003000E100350221022F02300222020000AA
:1004600001000100010001000D7E31004300420047
:10047000410040003F002A003302260025002400EE
:1004800025025700560023002200210024025500B7
:10049000540020001F001E00310200000D0637002E
:1004A00027002C001F021B7000000000000000004D
:1004B00000001C70D300D200CD00D100A8000100C4
:1004C0000100CF00CE00D000A9000100DB00D90060
:1004D000DA00DC00AA0000000100010001000100B8
:1004E0000D7E61520000000053000000D2002A007F
:1004F00033020100D3000D7E010034020100D2005E
:10050000087ED1000B7E31021E0230002F000A7ED1
:10051000097E000009010100D300D10001001B7019
:10052000000000000000440045001C703F00400037
:1005300041004200430001000100E200E100E3004D
:10054000E00001003A003B003C003D003E0000009E
:10055000010001002B040C7EAB00615247004F04E8
:10056000520550044B014C0048004D0052004A0017
:100570004E0139000F7E4F00510050000E7E4900A1
:100580004F044E0051054B0050040000050C0100C3
:1005900001000100010005010902A1018502090114
:1005A000A100050919012908150025019508750103
:1005B00081020501093009311581257F95027508F1
:1005C000810609381581257F950175088106050C7E
:1005D0000A38021581257F950175088106C0C0057E
:1005E000010980A101850319012AB700150126B769
:1005F00000950175108100C0050C0901A101850459
:1006000019012AA002150126A0029501751081008A
:10061000C005010906A101050719E029E715002514
:100620000195087501810295017508810105071979
:100630000029FF150026FF009506750881000508B2
:10064000190129059505750191029501750391011F
:10065000C009023B00020100A0FA090400000103E6
:100660000101000921110100012240000705810359
:100670000800010904010001030000000921110123
:100680000001227B00070582032000011201000205
:1006900000000008134022201300010200010E0395
:1006A0004C00650065006C006F006F0000002603C1
:1006B00043006C00690063006B0065007400790002
:1006C0002000530070006C006900740020004C0092
:1006D000740064000000040309040000000000002E
:1006E000000000000000000000000000000000000A
:1006F00000000000000000000000000000007E0F6D
:1007000000D4FFFFFFC700000078000000000000D9
:1007100000002A2B2800000000000000000000005C
:10072000000000000029000000002C1E34202122BF
:1007300024342627252E362D3738271E1F20212228
:10074000232425263333362E37381F0405060708A1
:10075000090A0B0C0D0E0F10111213141516171891
:10076000191A1B1C1D2F3130232D350405060708CF
:10077000090A0B0C0D0E0F10111213141516171871
:10078000191A1B1C1D2F3130354C11241FBECFEF01
:10079000DAE0DEBFCDBF12E0A0E0B1E0EAEBF1E6C7
:1007A00002C005900D92A238B107D9F724E0A2E863
:1007B000B2E001C01D92AB32B207E1F70E9466279A
:1007C0000C9480300C940000E8EDF0E080818E7F86
:1007D00080831092E2001092DA001092E100A0EE05
:1007E000B0E08C9181608C9380818F77808319BC7D
:1007F000A7EDB0E08C918E7F8C9380818F7E80837B
:1008000010920E0408952091E4003091E50095E6E1
:10081000A9012091EC00822F817020FF06C08091F9
:10082000E80080FF06C080E008952091E80022FDE6
:100830001AC080912104882389F0853089F0809145
:10084000EB0085FD0FC02091E4003091E5004217D8
:100850005307F9F29150E1F684E0089582E008959B
:1008600083E0089581E008958091230487FF13C0F9
:100870008091E80082FF06C08091E8008B7780932A
:10088000E80004C0809121048111F2CF0895809185
:1008900021048823D9F38091E80080FFF8CF80916C
:1008A000E8008E77ECCF982F9093E900242F762FD5
:1008B00050E0891731F07091EC002091ED005091DB
:1008C000F00021FD07C09F5F973071F78093E9002A
:1008D00081E008953091EB003E7F3093EB00309142
:1008E000ED003D7F3093ED003091EB0031603093AF
:1008F000EB007093EC002093ED005093F0002091FA
:10090000EE0027FDE0CF80E00895B0E0A0E0EBE846
:10091000F4E00C94962DC8EDD0E088818F7E88831A
:10092000E7EDF0E080818160808384E082BF81E038
:1009300080930E0488818E7F888302EE10E0F80198
:1009400010821092DA0081EEC82ED12CF6011082AE
:1009500088818F77888388818068888388818F7D6C
:10096000888319BC109221041092220410921A0458
:100970001092190490EEE92EF12CF70180818B7F03
:10098000808388818160888342E060E080E00E940B
:100990005304F60180818E7F8083F801808181601D
:1009A0008083808188608083F70180818E7F80834F
:1009B000888180618883CDB7DEB7E8E00C94B22DE2
:1009C000FC018091290490912A0486179707A0F0D2
:1009D0006115710529F49091E8009E779093E800E5
:1009E00090E06115710551F4911108C08091E80003
:1009F00082FF34C080E00895BC01F2CF80912104D1
:100A00008823C1F18530C1F18091E80083FD30C0B9
:100A10008091E80082FDEACF8091E80080FFE1CF7D
:100A20008091F3002091F200382F6115710519F0C3
:100A30002830310558F091E02830310509F090E078
:100A40002091E8002E772093E800CBCF819180930E
:100A5000F100615071092F5F3F4FE7CF8091210472
:100A6000882341F0853041F08091E80083FFBECFBC
:100A700081E0089582E0089583E008958091100454
:100A800008959C014FB7F89480910A0490910B044B
:100A9000A0910C04B0910D044FBF821B930B0895DD
:100AA0002FB7F89460910A0470910B0480910C04A4
:100AB00090910D042FBF08952FB7F89480910A04E8
:100AC00090910B04A0910C04B0910D042FBF0895D8
:100AD0009C01FC0132969FEF80E04191461751F056
:100AE0009F3F19F4411101C0982F8F5F8630A9F7FD
:100AF0009F3F09F40895290F311D97FD3A95F9019B
:100B000062830895A3E0B0E0E8E8F5E00C949C2D42
:100B1000209107043091080428173907A1F0909319
:100B2000080480930704E0910504F09106043097CF
:100B300051F024E029839B838A830680F781E02D8E
:100B4000CE01019609952396E2E00C94B82DA3E01E
:100B5000B0E0EDEAF5E00C949C2D20910304309177
:100B6000040428173907A1F0909304048093030428
:100B7000E0910504F0910604309751F023E02983B9
:100B80009B838A830680F781E02DCE01019609952B
:100B90002396E2E00C94B82DDC016091FF03809174
:100BA0000004962F891301C00895292F30E0F90120
:100BB000EE0FFF1FE950FC4F408151814A175B0740
:100BC000A1F487E08A9FA0018B9F500D1124475C00
:100BD0005E4F81E0FA0184839613E6CF2F5F3F4F8B
:100BE000237033272093FF0308952F5F3F4F922FE9
:100BF0009370D8CF1092930310929203E9E3F1E03F
:100C00008581811102C014821682379682E0EE320D
:100C1000F807B1F70895FC01680F791F8FEF91E392
:100C20002191822728E030E087FF09C0880F8927BB
:100C300021503109C9F7E617F70791F70895880F92
:100C4000F7CF0E945C059C0190918A0380918B03F1
:100C5000982B21F0309387032093860390918C0387
:100C600080918D03982B21F030938503209384038A
:100C7000E0910504F0910604309749F082E08093FA
:100C800088030480F581E02D88E893E009950895B4
:100C90008F929F92AF92BF92CF92DF92EF92FF928C
:100CA00080918303982F957071F0C12CD12C20E492
:100CB000E22E22E4F22E82FD52C0C12CD12CE12C76
:100CC00091E4F92E4CC0809182038823B1F3E09027
:100CD0008003F0908103E114F10479F320E030E027
:100CE00048EC51E4609135017091360180913701F3
:100CF000909138010E94A02E8823F9F2C7010E942A
:100D0000410562E370E00E94C32D90E080E00E9404
:100D1000462F6B017C0120E030E040E05FE30E9461
:100D2000FD2FA70196010E94FD2F4B015C0120E0E1
:100D300030E040E051E4C701B6010E94342E9B012F
:100D4000AC01C501B4010E94342E6B017C0120E08E
:100D500030E048EC51E40E94F82F18160CF1A7017E
:100D6000960160E070E08AE794E40E94A52E60930B
:100D70003501709336018093370190933801C70194
:100D8000B6010E94172F81E0693008F082E0FF90E1
:100D9000EF90DF90CF90BF90AF909F908F9008958D
:100DA000C12CD12C88ECE82E81E4F82ED8CF8F927C
:100DB0009F92AF92BF92CF92DF92EF92FF9280917B
:100DC0008303982F957081F0C12CD12C38ECE32E41
:100DD00033E4F32E82FF4AC0C12C20E8D22E2BE34D
:100DE000E22E25E4F22E42C080917F03882309F48D
:100DF0005DC08091800390918103009709F456C0F3
:100E00000E94410562E370E00E94C32D90E080E003
:100E10000E94462F6B017C0120E030E040E851E465
:100E20000E94FD2F20E030E048EC52E40E94342E76
:100E30004B015C0120E030E040E051E4C701B60125
:100E40000E94FD2FA70196010E94FD2F9B01AC017E
:100E5000C501B4010E94342E6B017C0120E030E01A
:100E600046E954E40E94F82F18163CF120E030E0E7
:100E70004AEF52E4C701B6010E94A52E0E94172F27
:100E8000662311F18FE767FD08C070E090E080E015
:100E90000E94462F0E94172F862FFF90EF90DF9021
:100EA000CF90BF90AF909F908F900895C12CD12C80
:100EB00098ECE92E92E4F92ED9CFC12CD12C86E9F9
:100EC000E82E84E4F82ED2CF60E070E080E89FE363
:100ED000E1CF80E00895F894E82FE295EF70F0E01C
:100EE00031A1282F2F7081E090E001C0880F2A9552
:100EF000EAF7982F9095932391A392A1892B82A32F
:100F00007894089590915D0392FF06C0282F287170
:100F10002830F9F4877F846093FF06C0282F28715A
:100F20002831F1F4877E846120915E0320FF06C0A2
:100F3000382F38713830D9F4877F816021FF06C09F
:100F4000282F28712831D1F4877E816194FD877E16
:100F50000895282F24712430F9F68B7F8860DCCF28
:100F6000282F2471243101F78B7E8861DDCF382F43
:100F70003171313019F78E7F8860E0CF282F2171D1
:100F8000213121F78E7E8861E1CF972F7A30B8F436
:100F90006630A8F4853098F470E026E0929F600DEA
:100FA000711D1124FB019CE3899FE00DF11D1124AB
:100FB000EE0FFF1FE25CFC4F85919491089580E055
:100FC00090E00895CF93DF93EC0182389105B9F159
:100FD00008F041C08133910509F49FC050F5893272
:100FE000910509F48FC08A9709F49EC0C11520E5C8
:100FF000D20708F0BDC0C11530E4D30708F00AC11C
:10100000C03ED10508F0A5C0CD3CD10508F000C117
:10101000C83AD10508F08FC0C53AD10508F0F0C034
:10102000C130D10539F1209729F1C430D10510F52F
:1010300046C08533910509F460C0C997B9F680911F
:101040005D03837009F044C180915E0383FF12C089
:10105000C9E2D0E00FC0833E9105A1F178F4803E53
:10106000910509F1823E910509F0C0CF80915D03A1
:1010700082FD21C0CE01DF91CF910895863E91057A
:1010800061F1873E910571F1843E910509F0AECF83
:1010900080915E0381FFEECF80915D03C7EED0E0CB
:1010A00084FD0DC0E7CF80915D0380FD33C090913A
:1010B0005E0390FFDFCFC3EED0E084FFDBCFD0E054
:1010C000C0E0D8CF80915D0382FDFFC090915E03A8
:1010D00090FDFEC084FFCECFF2CF80915D0383FDF3
:1010E000DDCFC8CF80915D0383FDF5C090915E0395
:1010F00091FFF0CFC4EED0E0BDCF80915D0385FFBE
:10110000B9CFA6CF80915D0385FDE8C080915E03D5
:1011100083FFB0CFC9E3D0E0ADCF80915D0386FF00
:10112000A9CFCAE2D0E0A6CF80915D0386FFA2CF0F
:10113000C1E3D0E09FCFC13CD10508F6C85AD0E04A
:10114000CC0FDD1FCD5CDD4F0990D881C02DD4645C
:1011500091CFC11540E2D40708F0AAC0C11581E0C3
:10116000D80708F087CFC83ED10508F483CFA7CFB2
:10117000C03622E5D20718F5C03432E5D30708F0AF
:1011800053C0C03242E5D40708F047C0C11582E51C
:10119000D80708F47FC02C2F2695269540E2249F7F
:1011A000900111248C2F8370C1E0D0E002C0CC0FDD
:1011B000DD1F8A95E2F7C22BD32BDD685BCFC03AE7
:1011C00022E5D20760F4C03832E5D30708F441C005
:1011D000CF71D0E0DC2FCC27C46FD06A4BCFC03C9E
:1011E00042E5D40708F44AC0C03E82E5D80708F0BB
:1011F00066CFDC2FCC27CC27DF71C06FD06A3ACF07
:10120000C55AD0E0C05DDD4FC881D0E0D06432CF98
:10121000D06530CFDF70D06A2DCFCF71D0E0DC2F1A
:10122000CC27C16FD06A26CF2C2F26952695277004
:1012300080E2289F900111248C2F8370C1E0D0E0C0
:1012400002C0CC0FDD1F8A95E2F7C22BD32BDC68DE
:1012500011CF2C2F26952695277040E2249F9001D0
:1012600011248C2F8370C1E0D0E002C0CC0FDD1FB1
:101270008A95E2F7C22BD32BDA68FCCE8C2F8F71C4
:101280000E948207C82FD0E0DC2FCC27CC27DF714B
:10129000D062F0CE8C2F8F710E94820735E0D695F8
:1012A000C7953A95E1F7CF709C2FEC01D069E2CE5B
:1012B0008D2F8F710E94820790E0982F88278827B2
:1012C0009F719C012C2BE901E3CFC2EED0E0D2CE7E
:1012D000C0EED0E0CFCEC6EED0E0CCCEC5E3D0E0BD
:1012E000C9CE0E945005089580910B03882331F0E8
:1012F00010920B0310920A03109209030895809133
:10130000910381110FC010928E030E9474090E94F4
:101310005C0588579C4E9093900380938F0381E0E7
:10132000809391030895CF93C82F80915E0382FF2D
:101330000CC080910B038C1741F00E945C059093C8
:101340000A0380930903C0930B03CF9108959091F2
:101350009403892B809394030895809590918E0334
:10136000982390938E0308958091FD029091BC0282
:10137000981301C008958F5F8770FACFB0E0A0E0A6
:10138000E4ECF9E00C94952D7C0100915B03109145
:101390005C038091590390915A03082B192BCFE0DD
:1013A000D0E0CC24C394D12CBC2EC6010C2E02C09C
:1013B000880F991F0A94E2F780239123892B49F41F
:1013C000219790F7B12C8B2DCDB7DEB7E9E00C94C7
:1013D000B12DB7018C2F0E94C5070E94E20701972B
:1013E00079F3F1CFCF93DF93EC010E94BE09BE01E8
:1013F0000E94C5070E94E207DF91CF9108959A30BD
:1014000078F5863068F5E82FF0E086E0989FE00DEB
:10141000F11D11249E2F977083E0F695E7958A952C
:10142000E1F7EE0FFF1FEE0FFF1FEC56FD4F50E0F0
:1014300040E080E0219130E0092E02C036952795EA
:101440000A94E2F721703327042E01C0220F0A9478
:10145000EAF7822B4F5F5F4F4430510559F70895EB
:1014600080E008959A3098F5863088F5E82FF0E00E
:1014700086E0989FE00DF11D11248E2F877041E0CA
:1014800001C0440F8A95EAF783E0F695E7958A95BF
:10149000E1F7EE0FFF1FEE0FFF1FEC56FD4F30E0A0
:1014A00020E070E05191DF011197CB01022E02C0C4
:1014B000969587950A94E2F7817081958527842314
:1014C00085278C932F5F3F4F2430310559F70895BE
:1014D00090935C0380935B03089521E030E002C0A9
:1014E000220F331F8A95E2F72095309580915B0398
:1014F00090915C03822393230E94680A089590913F
:1015000000038095892380930003282F2770B1F46E
:10151000282F082E000C330B9217130679F09091A8
:101520005E0392FF0BC08595859585950E946D0A97
:10153000109200031092FF021092FE02089521E023
:1015400030E002C0220F331F8A95E2F780915B03DF
:1015500090915C03822B932B0E94680A08959093CC
:101560005A03809359030895FC0183819481892B48
:1015700029F08081918189238F3FF1F480E00895E3
:101580000E94E20792959F70963089F058F4925F1E
:101590009F70923098F7803F19F030F4883E70F7D2
:1015A00081E008959A5FF4CF843F41F7F9CF883EF8
:1015B000B8F3813F19F7F4CF86819781009701F73F
:1015C000808191810E94F209DDCFCF93DF93C82FF4
:1015D000662309F469C08091800390918103892B6F
:1015E00031F40E945C059093810380938003CD3C8D
:1015F00051F40E94D706819580938B030E942106A7
:10160000DF91CF910895CE3C19F40E94D706F4CF14
:10161000CF3C31F40E94D706819580938A03EECFA8
:10162000C03D19F40E94D706F8CFC93D29F40E94A5
:10163000480680938C03E2CFCA3D21F40E944806FD
:101640008195F7CFCB3D31F40E9448068195809378
:101650008D03D4CFCC3D19F40E944806F8CF8FE219
:101660008C0F883070F4C15DDD0B21E030E001C0EB
:10167000220FCA95EAF780918903822B8093890310
:10168000BDCF809183038160CD3D59F0809183036C
:101690008260CE3D31F0CF3D09F0B0CF8091830321
:1016A000846080938303AACF40918A038D3C79F4B0
:1016B00080918B0387FF11C010928B0341110FC0E3
:1016C00010927F03109281031092800308C08E3C19
:1016D00081F480918B0318167CF3442381F0809170
:1016E0008C0390918D03892B09F088CF109282038F
:1016F00085CF8F3C49F447FFF0CF10928A03809149
:101700008B038111ECCFDCCF803D19F41416ACF3C0
:10171000E4CF80918C03C93D29F41816F4F6109299
:101720008C03DBCFCA3D19F487FFD7CFF8CF809168
:101730008D03CB3D29F487FFD0CF10928D03CDCF01
:10174000CC3D19F41816CCF3C8CF8FE28C0F88303B
:1017500078F4C15DDD0B81E090E001C0880FCA958F
:10176000EAF7809590918903892380938903B5CF07
:10177000809183038E7FCD3D59F0809183038D7FCF
:10178000CE3D31F0CF3D09F0A8CF809183038B7F10
:1017900080938303A2CFCF92DF92EF92FF92C72E66
:1017A000D82EE92EFF2420E0C114D104E104F10475
:1017B00019F0C701B60128E06B017C0154E0F694F2
:1017C000E794D794C7945A95D1F7C114D104E10492
:1017D000F10419F02C5FC701B6016B017C0142E0F6
:1017E000F694E794D794C7944A95D1F7C114D104DD
:1017F000E104F10419F02E5FC701B60196958795B3
:1018000077956795672B682B692B09F02F5F822FDF
:10181000FF90EF90DF90CF900895A5E0B0E0E3E176
:10182000FCE00C949B2D9C01FC0186819781009724
:10183000E1F485E0DE01119601900D928A95E1F7C1
:10184000F901228189819A81222399F0662389F006
:101850000E94BE09182F682F89819A810E94320A3E
:1018600069817A81812F0E94C5072596E3E00C9457
:10187000B72D0E94FF09182FF3CF9C019A9581156F
:101880009F4150F4832F817031FD826032FD84606E
:1018900033FF03C08860089580E008950F931F937D
:1018A000CF93DF9301E010E0082E02C0000F111F5C
:1018B0000A94E2F7C0911503D09116039E012023EC
:1018C0003123232B21F590910003959595959595BE
:1018D000891306C0109200031092FF021092FE02BC
:1018E0000E949F0A0E945005609311037093120397
:1018F0008093130390931403C027D127D09316032A
:10190000C0931503DF91CF911F910F9108950E940D
:101910006D0AF2CF0F931F93CF93DF938B01EA01F0
:1019200090912104943061F58093E9008FEF9091BC
:10193000E800815095FD06C095ED9A95F1F70000FD
:101940008111F5CF8091E80085FF1AC00E94030441
:10195000811111C08091E80085FD06C08091E800EA
:101960008E778093E800F2CFF80181918F01809308
:10197000F100219779F78091E8008E778093E80055
:10198000DF91CF911F910F91089543E050E0BC018A
:1019900082E00E948A0C089546E050E0BC0182E09B
:1019A0000E948A0C0895CF93DF93EC0148E050E049
:1019B000BC0181E00E948A0C88E0FE01A1E1B4E054
:1019C00001900D928A95E1F7DF91CF910895B0E0F3
:1019D000A0E0EDEEFCE00C94942D7C015B016A012B
:1019E0008091460301E010E08A3010F40AE010E034
:1019F000C1E0D0E0B501C701F6010995811104C02D
:101A000021960C171D072CF4CDB7DEB7EAE00C9435
:101A1000B02DCC9F9001CD9F300D300D112490E062
:101A200080E045E34A95F1F700000196821793079D
:101A3000C1F7E0CF80912803811110C08091D800B8
:101A400080618093D8008AE18A95F1F700C0809187
:101A5000D90080FF0AC081E08093280381E0909143
:101A60002803913009F080E0089582E080932803F4
:101A70000E94E40310922104F1CF0E941A0D8823E2
:101A800059F0E0910504F0910604309729F0019097
:101A9000F081E02D0995089580E0089580918E03EE
:101AA00090919403892B8093840280910B03882367
:101AB00019F10E945C052091090330910A03821BF1
:101AC000930B883E934010F00E9474098091840229
:101AD00090910B03892B8093840220E086E892E0AA
:101AE000FC013191CF0131112F5FF2E08C389F075B
:101AF000B9F721110E94740948E050E061E073E0F9
:101B000084E892E00E946A30892BA9F088E0E4E83A
:101B1000F2E0A1E0B3E001900D928A95E1F7E09147
:101B20000504F0910604309731F00280F381E02D36
:101B300084E892E009950895882341F0809590917A
:101B400094038923809394030E944E0D08958091FD
:101B50009103882329F082E20E949C0D1092910348
:101B60000895882321F00E94A7090E944E0D089530
:101B7000882321F00E94AD090E944E0D089588230C
:101B800039F090918E03982B90938E030E944E0D06
:101B900008958823D1F19CEF980F913A78F4E6E804
:101BA000F2E09191891303C0DF0111971C9292E03A
:101BB000EC38F907B1F70E944E0D089590E2980FA6
:101BC000983050F4877091E001C0990F8A95EAF738
:101BD000892F0E94AD09EFCF9BE5980F933028F431
:101BE00090E080E00E94A705089598E5980F99314C
:101BF00028F490E080E00E948205089593E3980F16
:101C0000933118F460E00E94E50A0895CF93DF93C2
:101C1000EC010E94C90DCE010E943D0CC05ED109AD
:101C2000289728F40E94B80DDF91CF9108950E9463
:101C30009C0DFACFCF93C82F8823B1F08CEF8C0F77
:101C4000813A00F5E6E8F2E08CE892E0DF012D91C0
:101C5000C21761F08A179B07D1F76C2F84E892E0D6
:101C60000E9468050E944E0DCF9108952191C213E4
:101C700003C0DF0111971C928E179F07B9F70E94CE
:101C80004E0DEBCF80E28C0F883068F4C77021E0F6
:101C900030E001C0220FCA95EAF780918E03822BB3
:101CA00080938E03DFCFEBE5EC0FE33040F4F0E000
:101CB000E05DFD4F808190E00E94A705D5CFE8E56B
:101CC000EC0FE93150F4F0E0EE0FFF1FED5CFD4F3B
:101CD000808191810E948205C7CF83E38C0F83317D
:101CE00018F661E08C2F0E94E50ABECF1F93CF93B8
:101CF000DF93182FEB010E941A0E209739F4812FE1
:101D00000E94C90DDF91CF911F9108958FE99FE047
:101D10000197F1F700C000002197EFCF70E060E07D
:101D2000893311F460E570E00E94760E0895B0E00A
:101D3000A0E0EDE9FEE00C94942DEC018AE0A82EE1
:101D4000FE012491222309F497C0213009F03EC0FE
:101D500031968491813031F42296FE0184910E9463
:101D60008E0E07C0823039F42296FE0184910E94C3
:101D70001A0E2196E5CF833031F42296FE0184912C
:101D80000E94C90DF6CF843009F074C02296FE017E
:101D9000249190E080E0FE0131962053330B2A30ED
:101DA000310548F0019728F3EFE9FFE03197F1F7AB
:101DB00000C00000F7CFA89EA001A99E500D1124DD
:101DC000C901840F951F2491EF01E5CFE22FF0E0C8
:101DD000E65FF84FB490822F86958695869590E0C1
:101DE000FC01E650F94FE4902770F12C022E02C05E
:101DF000F594E7940A94E2F731E0E322FF24FC0132
:101E0000E651F94FC490D12C022E02C0D594C7944C
:101E10000A94E2F7E1E0CE22DD24FC01E652F94F1C
:101E2000049110E002C0159507952A95E2F701701C
:101E30001127E114F10419F081EE0E941A0EC11469
:101E4000D10419F086EE0E941A0E8B2D0E948E0E80
:101E5000C114D10419F086EE0E94C90DE114F104F9
:101E600019F081EE0E94C90D0115110509F481CF09
:101E70008CE275CFEF017DCFCDB7DEB7EAE00C94F1
:101E8000B02DCF93DF93EC010E943D0C9E01205EAC
:101E900031092830310540F40E94BF0D8C2F0E947B
:101EA0001A0EDF91CF9108950E94B10DF7CF0F93D5
:101EB0001F93CF93DF938C01D0E0C0E0C99711F45A
:101EC000C0E5D0E0C8010E94410F209741F4C8014D
:101ED0000E94060EDF91CF911F910F9108958FE917
:101EE0009FE00197F1F700C000002197EECFCF935C
:101EF000DF93D82FC62F0E945C0520918C02309171
:101F00008D02821B930BC29708F473C00E945C057C
:101F100090938D0280938C02D1116FC060915B030E
:101F200070915C0390E080E00E94CB0B833031F134
:101F3000843059F1823081F5C11111C089EA90E0F5
:101F40000E94570F89EA90E00E94570F89EA90E0BB
:101F50000E94570F89EA90E00E94570F4AC08AEA10
:101F600090E00E94570F8AEA90E00E94570F8AEA99
:101F700090E00E94570F8AEA90E0EECF8CE191E06A
:101F8000CC2351F38DE191E0E7CF8FE499E0CC23AE
:101F900019F380E599E0E0CFD0911C03C11112C084
:101FA0000E945C0590931B0380931A03D11106C015
:101FB00082EE0E941A0E81E080931C038BE20E9445
:101FC0008E0E17C00E945C0590931B0380931A032A
:101FD000D11106C082EE0E941A0E81E080931C038C
:101FE00081EE0E941A0E8BE20E948E0E81EE0E94FC
:101FF000C90D80E0DF91CF910895D130D1F7609184
:102000005B0370915C0390E080E00E94CB0B833017
:1020100061F0843089F08230B9F480E596E0CC2319
:1020200009F49ACF8FE496E097CFCC2311F08CE39C
:10203000C6CF8CE392E090CF8BED90E0CC2309F4F7
:102040008BCF8CED90E088CF80E593E0CC2309F432
:1020500083CF8FE493E080CF90915E0392FB2227A1
:1020600020F9281779F080FB92F990935E03609134
:102070005D0370915E0384E090E00E941D2E82E07B
:102080000E947F0A0895CF9310928E03C6E0E6E87F
:10209000F2E0DF018C2F1D928A95E9F790E080E055
:1020A0000E94A70590E080E00E94820510929403B0
:1020B0000E944E0DE8E8F3E0DF011D92CA95E9F7B2
:1020C00010927F0310928203109283030E942106D4
:1020D000CF910895AAE2B0E0E0E7F0E10C949B2DE7
:1020E00083E294E02091F100FC012193CF01F4E020
:1020F0008B329F07B9F780912404833009F470C0B4
:10210000B8F4813009F447C0823009F4B1C080913D
:10211000E80083FF39C180912304909124049A3010
:1021200008F032C1E92FF0E0EE57FF4C0C94EB2D94
:102130008A3009F48CC08B3009F46FC0893039F7CC
:1021400080912304813219F780912704909128040B
:102150000297E8F68091E800877F8093E8008091FD
:10216000E80082FF38C09091F3008091F20002975E
:1021700031F48091F100813011F0863021F48091AA
:10218000F100809310048091E8008B778093E80041
:102190000E943404BCCF80912304813A09F0B7CF68
:1021A0008091E800877F8093E800809127049091D8
:1021B0002804892B61F468E081E194E070E00E94DA
:1021C000E0048091E8008B778093E800A0CF60E086
:1021D00090E080E0F3CF809121048111C0CF97CFB0
:1021E00080912304813A09F092CF80912704909145
:1021F0002804892B09F08BCF8091E800877F80939A
:10220000E8008091E80080FFFCCF80912F0280934E
:10221000F1008091E8008E77B9CF8091230481325C
:1022200009F075CF8091270490912804892B09F03B
:102230006ECF8091E800877F8093E8000E9434048D
:102240008091250480932F020E94431060CF8091DB
:102250002304813209F05BCF8091E800877F80936F
:10226000E8000E9434048091260480930F044FCF2D
:1022700080912304813A09F04ACF8091E800877F5A
:102280008093E8008091E80080FFFCCF80910F04EC
:10229000BECF803899F0823809F076C0809127044B
:1022A0008F70873008F070C08093E9008091EB0058
:1022B00085FB882780F91092E90006C080911904F7
:1022C00090911A04911182609091E800977F909309
:1022D000E8008093F1001092F1008091E8008E7781
:1022E000CEC1882309F4BBC1823009F04DC0809172
:1022F00025048111BFC1809127048F702FEF280F13
:10230000263008F041C08093E9002091EB0020FFC7
:10231000B1C1933031F48091EB0080628093EB0087
:10232000A9C19091EB0090619093EB0021E030E027
:1023300001C0220F8A95EAF72093EA001092EA0082
:102340008091EB008860EACF81111EC010912504B6
:102350001F778091E3008078812B8093E300809148
:10236000E800877F8093E8000E9434048091E800B1
:1023700080FFFCCF8091E30080688093E30082E0DF
:10238000111183E0809321048091E80083FF0AC04B
:102390008091E800877F8093E8008091EB00806265
:1023A0008093EB00AA96E3E00C94B72D805882301E
:1023B00058F780912504909126048C3D23E09207E4
:1023C000A1F583E08A838AE289834FB7F894DE011E
:1023D000139620E03EE051E2E32FF0E050935700E7
:1023E000E49120FF03C0E295EF703F5FEF708E2F06
:1023F00090E0EA30C0F0C7968D939D932F5F243113
:1024000059F74FBF8091E800877F8093E8006AE228
:1024100070E0CE0101960E94E0048091E8008B7785
:102420008093E800B1CFC096E7CF40912704509148
:102430002804292F33272330310509F445C078F5C6
:102440002130310509F497C08BE390E0E1E5F6E037
:102450002230310509F098CF2091E800277F2093A2
:10246000E8002091290430912A048217930708F488
:102470009C0140E02115310509F08CC041118AC052
:102480008091E80082FDC9CF80912104882329F240
:10249000853019F28091E80083FFF2CFBECF213260
:1024A000310509F45CC02232310509F06DCF4115C8
:1024B000510509F46AC04130510509F065CF8BE739
:1024C00090E0E6E9F5E0C8CF2091290430912A0494
:1024D00040911B044F5F40931B04309320042093D2
:1024E0001F0422303105B1F420911C042F5F20938A
:1024F0001C0499278130910551F10097E9F002976A
:1025000009F042CFEEE9F6E0E4918E2F90E0EEE99B
:10251000F6E019C02430310531F420911D042F5FFD
:1025200020931D04E6CF2F3F310519F720911E049B
:102530002F5F20931E04DDCFE6EDF6E0E4918E2FB1
:1025400090E0E6EDF6E0009709F41ECF85CFEEEAC5
:10255000F6E0E4918E2F90E0EEEAF6E0F4CF41153C
:10256000510571F04130510509F00ECF89E090E03E
:10257000ECE7F6E071CF82E190E0ECE8F6E06CCFBA
:1025800089E090E0E3E6F6E067CF80E490E0E1E107
:10259000F6E062CF80912104882309F43ECF853094
:1025A00009F43BCF8091E80083FD37CF8091E800AC
:1025B00082FD66CF8091E80080FF5CCF9091F300B0
:1025C0008091F2002115310519F08830910550F005
:1025D00041E0089709F040E08091E8008E77809311
:1025E000E80048CF44914093F100319621503109E1
:1025F0000196E8CF803809F0C7CE8091E800877F48
:102600008093E800809122048093F10066CE8111CE
:10261000BBCE10912504123008F0B6CE8091E800B0
:10262000877F8093E800109322040E9434041123D2
:1026300011F084E005C08091E30087FDFACF81E0CE
:102640008093210442E061EC81E00E94530442E265
:1026500061EC82E00E9453048091210495CE809128
:102660002504813009F090CE81E0933009F080E0BC
:1026700080931A041092E9008091E800877F80938C
:10268000E8000E94340480CE0E9443102FEF84E3C0
:102690009CE0215080409040E1F700C0000087E7B7
:1026A00097E7909301088093000888E19AE00FB6BD
:1026B000F894A895809360000FBE90936000FFCFC0
:1026C000CF93DF93EC018332910548F4FC01E4578A
:1026D000FF4C0C94EB2D83EE92E0611107C0DF916B
:1026E000CF9108956623D9F385EC92E00E94970E6E
:1026F000F6CF80EB92E0662391F3F8CF662379F36F
:1027000084EA92E00E94970EC6E0D0E080E590E077
:102710000E94570F2197D1F7E2CF662301F38CE98E
:1027200092E00E94970E80E590E00E94570F80E5AE
:1027300090E00E94570F80E590E00E94570F80E5DF
:1027400090E00E94570FCBCF662349F28CE892E0CD
:102750000E94970EC8E0D0E080E590E00E94570FFD
:102760002197D1F7BCCF662309F4B9CF8CE792E06B
:102770000E94970EC8E0D0E080E590E00E94570FDD
:102780002197D1F7ACCF662309F4A9CF84E692E074
:102790000E94970EC7E0D0E080E590E00E94570FBE
:1027A0002197D1F79CCF662309F499CF86E592E073
:1027B0000E94970E80E590E00E94570F2197D1F775
:1027C0008ECF662309F48BCF88E492E00E94970EA7
:1027D000C7E0D0E080E590E00E94570F2197D1F745
:1027E0007ECF662309F47BCF86E392E00E94970EAA
:1027F00080E590E00E94570F2197D1F770CF6623B4
:1028000009F46DCF82E092E00E94970E8AE490E096
:102810000E94570F8FE490E00E94570F2197D1F745
:102820005ECF662309F45BCF88E991E00E94970EA2
:102830008AE490E00E94570F8FE490E00E94570FC7
:102840002197D1F74CCF662309F449CF8CE891E06A
:102850000E94970E89E290E00E94570FC9E0D0E0F5
:1028600080E590E00E94570F2197D1F787E091E033
:102870000E94570F87E091E00E94570F8AE290E094
:1028800060CF8DE191E0662309F429CF5ACF8CE126
:1028900091E0662309F423CF54CF8BE191E06623C6
:1028A00009F41DCF4ECF86E091E0662309F417CFDF
:1028B00048CF89E191E0662309F411CF42CF89E145
:1028C00098E0662309F40BCF3CCF89E193E06623BF
:1028D00009F405CF36CF84E091E0662309F4FFCEFA
:1028E00030CF88E392E0662309F4F9CE2ACF8EE157
:1028F00092E0662309F4F3CE24CF84E392E06623CA
:1029000009F4EDCE1ECF8DE292E0662309F4E7CE06
:1029100018CF86E590E0662309F4E1CE12CF662356
:1029200009F4DDCED0918E03C0910B0310928E037B
:102930000E947409CD2BC27289E891E011F486E8F7
:1029400091E00E94970E80E50E948E0ED0938E0338
:10295000C6CE662309F4C3CE80915B0390915C03DD
:1029600024E082270E94680ABACE86EA90E06623B5
:1029700009F4B5CEE6CE662309F4B1CE0E94441325
:1029800083E590E0662309F4AACEDBCE8AE390E0EB
:10299000662309F4A4CED5CE662309F4A0CE81E443
:1029A00090E0CFCE0E947F099ACE0E9443102FEF75
:1029B00084E39CE0215080409040E1F700C000009B
:1029C00088E19AE00FB6F894A895809360000FBE56
:1029D00090936000FFCFB0E0A0E0E1EFF4E10C9451
:1029E000932D7C01FC0183819481892B31F08081BE
:1029F000918189238F3F09F047C7CDB7DEB7EBE060
:102A00000C94AF2D80E074C7C034F2E5DF07C8F541
:102A1000C03222E5D207D0F5CE0190548115904105
:102A200008F44CC0CE018B7F813E910509F49BC018
:102A3000C830FEE7DF0709F079C0F70182818823FB
:102A400009F474C0C0918E0380910B038C2B8272A9
:102A500009F04FC082EE0E941A0E80918E02811101
:102A600006C08FE40E948E0E80E50E948E0E81EEDD
:102A70000E941A0E8FE40E941A0E82E080938E024A
:102A800053C7CE01805C9245809760F681E090E06C
:102A90000C2E02C0880F991F0A94E2F720911503AB
:102AA0003091160382239323892B09F4BBCFF701BE
:102AB0008281882309F438C78C2F34C7F7018581B8
:102AC000807F09F0AFCF82818111ACCF2D2F2F7085
:102AD00081E090E002C0880F991F2A95E2F72091CB
:102AE00015033091160382239323892B09F49ACF7F
:102AF0001BC780918E02811114C010928E030E9418
:102B0000740984E091E00E94410F88E092E00E9405
:102B1000570F84E091E00E94060EC0938E0383E07D
:102B2000ADCF81E50E941A0E84E0A8CF80918E027D
:102B3000823069F030F4813009F441C010928E0285
:102B400012C0833069F08430C9F781E507C08FE493
:102B50000E94C90D81EE0E94C90D82EE0E94C90D2E
:102B600081E080938E02F701A280A11059C00091EC
:102B70008E0310910B03CB30FEE7DF0709F4D7C1BA
:102B800040F5C9303EE7D30709F4AAC108F0BEC139
:102B9000C33792E4D90709F408C2C337FCE7DF075B
:102BA00009F017C2F7018281882309F4BDC680911C
:102BB0009103882309F446C20E94A70DB5C6C93205
:102BC000D10509F0BBCF8FE40E948E0E10928E02C9
:102BD000ABC6CE30EEE7DE0709F4F3C1CF30FEE737
:102BE000DF0709F428C2CC302EE7D207B1F6F7018F
:102BF0008281882309F498C60E945C05909318038B
:102C00008093170380911903811106C080EE0E9402
:102C10001A0E81E0809319038BE20E948E0E84C607
:102C200090908E03892D8D7D09F0A1CF40911F03D7
:102C30005091200360912103709122032FB7F894E3
:102C400080910A0490910B04A0910C04B0910D04A2
:102C50002FBF841B950BA60BB70B6E018E359140D1
:102C6000A105B105E8F4DD2400911D0310911E03B8
:102C70000331110509F4A1C008F050C00730110557
:102C800009F408C170F50530110509F4C9C008F050
:102C90008AC08091910301151105B9F190928E03BC
:102CA00083E1C816D10441F098E1C916D10421F09E
:102CB000E7E0CE16D10409F4A12C90928F02D092B5
:102CC0001E03C0921D030E94500560931F03709362
:102CD00020038093210390932203AA2009F424C6A1
:102CE00046CF0930110509F480C008F485C00D30C5
:102CF000110509F44EC00F30110581F68091910342
:102D00009DE0C916D10409F495C5882319F082E025
:102D10000E94A70980E00E948E0EC0CF0E321105DE
:102D200009F492C0A8F40831110509F49BC00A31D6
:102D3000110509F46BC00631110509F0AFCF809180
:102D40009103F9E1CF16D10401F716E0B12E74C555
:102D50000535110509F47FC060F40435110509F04B
:102D60009DCF8091910327E2C216D10409F469C076
:102D7000CCCF0635110509F45DC00735110509F002
:102D80008DCF80919103F7E2CF16D10409F459C099
:102D9000BCCF80919103EFE0CE16D10409F0B5CFFE
:102DA00008E1B02E49C5809191032BE1C216D104F0
:102DB00009F0ABCFF6E1BF2E3FC53AE1C316D1040F
:102DC00009F43DC58CE2C816D10409F457C599E051
:102DD000C916D10409F446C580919103882319F0DE
:102DE00082E00E94A70983E196CF80919103EAE1F6
:102DF000CE16D104F9F289CF80919103F8E3CF1672
:102E0000D10409F082CFE6E3BE2E16C5809191036E
:102E100023E1C216D10409F078CF75E1B72E0CC5B5
:102E2000809191033AE1C316D10409F06ECF67E0B7
:102E3000B62E02C58091910397E2C916D10409F01C
:102E400064CF5CE2B52EF8C480919103E7E2CE1620
:102E5000D104B9F35ACF8091910337E2C316D1045C
:102E600081F353CF8CE2C816D10409F407C593E36C
:102E7000C916D10409F4F9C4ECE1CE16D10409F461
:102E8000F7C480919103882319F082E00E94A7097A
:102E900088E141CFFDE1CF16D10409F4ECC42CE266
:102EA000C216D10409F4EAC43BE1C316D10409F403
:102EB000E8C480919103882319F082E00E94A70959
:102EC00087E029CF82E00E94A709802F0E948E0E02
:102ED00082E00E94A7098B2D0E948E0EA12CE0CECD
:102EE000F7018281882309F41FC510928E030E9486
:102EF0007409102B12728BE393E011F488E393E0D2
:102F00000E94970E80E50E948E0E3BC0F7018281E1
:102F1000882309F409C510928E030E947409102BAE
:102F2000127285E393E061F782E393E0E9CFF70162
:102F30008281882309F4F8C4812F802B827221F1C9
:102F400082E20E94AD09812F827261F01D7D109393
:102F50000B0390E080E011110E945C0590930A033E
:102F60008093090382E093E00E94970EC9E1D0E0CC
:102F700080E50E948E0E2197D9F780E593E00E94AC
:102F8000570F00938E03D0C48BEF92E00E94970EF0
:102F900080E50E948E0E80E50E948E0E80E50E94E4
:102FA0008E0E80E50E948E0EADCFF7018581807F69
:102FB00081F08281882309F4B7C482E00E949309DA
:102FC000B3C4F7018281882321F080E593E00E9459
:102FD000570F10910B0380918E03182B8091910352
:102FE000882399F10E945C0588579C4E909390032A
:102FF00080938F03F7018281882309F453C01D79E0
:1030000009F0AAC0C034F2E5DF0708F084C0C1159A
:1030100022E5D20708F046C0C11530E4D30708F016
:1030200061C0C11580E2D80708F08BC0C63ED1054B
:10303000C9F1CE0162C0F7018281882351F28FE489
:1030400093E0C5CF0E947F096FC4123211F40E9431
:103050007F09F7018281882329F1C13ED10521F042
:10306000C23AF2E5DF07D9F580919202882371F028
:10307000F701838194812091900230919102821B0B
:10308000930B8F3F9F4710F00E947F0981E0809350
:103090009202F7018381948188539F4F909391020C
:1030A00080939002F7018281882309F42DC1CE011B
:1030B0009057839708F04AC484E090E00E94F92D6D
:1030C00090935E0380935D03FE01E150F047E2328E
:1030D000F10508F05CC0E155FF4C0C94EB2D10920B
:1030E0009202E0CFC11590E5D90708F0A2CFF70111
:1030F0008581807FB9F2CE0199271092940388329E
:103100009105A8F58E319105C0F5049728F182E06C
:103110000E94A70932C0C43BE2E5DE0719F2CE01E6
:10312000C53BF2E5DF0738F48056924580349105BF
:1031300008F07FCFB7CF805C9245809708F079CFB9
:10314000B1CFF7018581807FB1F68D2F8F718231EC
:1031500059F028F4823041F00E94A70DA3CF8431AA
:1031600009F4A0CF8631C1F710929403F5CF8D32C8
:10317000910569F228F48A9779F70E944E0D92CF53
:103180008C349105D1F38D329240B9F3E5CF809123
:103190005D03816080935D0395C080915E038860CC
:1031A00080935E038FC080915D038260F3CF809136
:1031B0005D038460EFCF80915D038860EBCF8091E9
:1031C0005E038160EDCF80915E038260E9CF8091E4
:1031D0005D038061DFCF80915D038062DBCF8091F2
:1031E0005D038064D7CF0E94431080915D038068A7
:1031F000D1CF80915D038C60CDCF80915E038360E1
:10320000CFCF80915D038E7FC5CF80915E03877F96
:10321000C7CF80915D038D7FBDCF80915D038B7F94
:10322000B9CF80915D03877FB5CF80915E038E7F9C
:10323000B7CF80915E038D7FB3CF80915D038F7E8A
:10324000A9CF80915D038F7DA5CF80915D038F7B9A
:10325000A1CF0E94431080915D038F779BCF809117
:103260005D03837F97CF80915E038C7F99CF8091A0
:103270005D0382FB992790F921E0922790FB82F968
:1032800090FB83F987CF80915E03982F9095917082
:103290008E7F892B90FB81F983CF90915D03892FDD
:1032A0008F7B96FF806476CF0E94431090915D03E0
:1032B000892F97FB87F980586DCF61E08EE090E011
:1032C0000E94FF2D60915D0370915E0384E090E0A9
:1032D0000E941D2E0E94431027C360E0EFCF909103
:1032E0005D03892F8F7E94FF806154CF90915D03A1
:1032F000892F8E7F90FF81604DCF90915E03892F43
:10330000877F93FF88604CCFC631DC4729F58091D9
:10331000930281110FC089E2E6E8F2E02CE832E086
:103320009191891303C0DF0111971C922E173F075B
:10333000B9F720C385E3F0CFC3302CE7D20709F4F7
:1033400056C008F044C0C1158CE7D80709F44DC039
:10335000C130DC4709F451C0F7018681978100979D
:1033600009F459C00E94E207D82FC92FF701128132
:10337000D580D2942FE0D222809100038770C1F0D3
:10338000C12E1123B1F0892F807F803421F080E29B
:103390008D0F883068F080915E0382FF09C082E063
:1033A0000E947F0A809100038770CC24C39481110E
:1033B000C12CBC2EB2949FE0B922FBE0FB1508F4AF
:1033C0009BC0EB2DF0E0EF52FF4C0C94EB2DCB3576
:1033D000ECE7DE07F1F0CC35FCE7DF0781F0CA351A
:1033E000DC4709F0B9CF81E011C00E9444136FEFB0
:1033F0007FEF90E080E00E941D2E0E94D514809106
:103400005E0382FB882780F991E089270E942C10B7
:10341000A3CF80E0FBCF8281C081D181882369F076
:10342000CE010E94BE09182F682FCE010E94320AD9
:10343000BE01812F0E94C50795CFCE010E94FF09D2
:10344000182FF6CF0C2F0F70C07F11F00295007F60
:103450001123A9F0002369F080E28D0F883010F06D
:10346000D11109C080918E03082B00938E030E9416
:103470004E0D8D2F3FC0802F0E94A709F8CF8D2FB2
:103480000E94C90D0023C1F180E28D0F883010F039
:10349000D11104C0802F0E94AD0906C00095809113
:1034A00094030823009394030E944E0D25C00C2F13
:1034B0000F70C07FC03211F00295007FDD2351F004
:1034C000D13009F464C0112309F46EC0DD2009F481
:1034D00064C0CFCF80915E0382FD37C0112379F1A4
:1034E000002339F080918E03082B00938E030E94F5
:1034F0004E0D80E00E941A0EEB2DE850FF0B349722
:1035000010F40E943D0DCC20A9F08091000380FDB5
:1035100011C0F70112828595859585950E949F0AB5
:10352000C7010E94EB1480910003859585958595D0
:103530000E946D0A60E0C7010E940D0C5ECA80E027
:103540000E94C90D0023C1F2A5CF112371F0809113
:103550000B03802BD11003C00E94BF0DCDCF21E003
:10356000D212FACF0E949309C7CFD11006C00E9491
:103570007409802F0E94B80DBFCF31E0D31609F433
:10358000BBCF802F0E94B80D0E947409B5CF1123C4
:1035900031F085E08D1508F4AFCF802FDDCF94E0BA
:1035A0009D1508F4A9CFE5CFDD2019F3D93349F4EF
:1035B000EFEFF7EE23E0E150F0402040E1F700C0EC
:1035C00000008D2F0E94C90D97CF8C2F8695869570
:1035D000837069F0813009F08FCF8D2F9C2F93700D
:1035E000111102C080E090E00E94820585CF8D2FEE
:1035F0009C2F9370111102C080E090E00E94A705FB
:103600007BCF612F8D2F0E94E50A76CF8C2F8370A0
:1036100009F03FC0111170CF4D2F4295469547706C
:10362000440F440F2D2F2F7030E0042E02C0220FC4
:10363000331F0A94E2F790E080E0D4FF09C08FE0E6
:1036400090E002C0880F991F4A95E2F78095909507
:10365000C695C695C370C23099F078F4409159036D
:1036600050915A03C13039F0822B932B8423952338
:103670000E94AF0A41CF242B352B822B932BF8CFFE
:10368000822B932B2091590330915A038227932741
:10369000EFCF8695112311F08C2F8170882309F4C8
:1036A0002BCF4D2F429546954770440F440F2D2F39
:1036B0002F7030E0042E02C0220F331F0A94E2F76D
:1036C00090E080E0D4FF09C08FE090E002C0880F56
:1036D000991F4A95E2F780959095C695C695C37057
:1036E000C23099F078F440915B0350915C03C13093
:1036F00039F0822B932B842395230E94680AFCCEF9
:10370000242B352B822B932BF8CF822B932B2091BC
:103710005B0330915C0382279327EFCFCF70112397
:1037200029F08C2F0E949F0A8D2F16CF8D2F0E947B
:10373000B80D8C2F0E946D0ADFCED23F71F160F47C
:10374000D03FB9F0D13F81F0112309F463C0D1100B
:1037500090CE8C2F8F7125C0D33F31F1D43FA1F78C
:1037600080915E0382FD2EC08C2F8F71112311F387
:1037700018C0112369F034E03D1508F4BDCECF71B7
:1037800081E090E002C0880F991FCA95E2F7BFCF91
:1037900085E08D1508F4B0CEF2CF8C2F8F7111110A
:1037A000C9CF0E949F0AA8CE90E080E0112309F4BF
:1037B000A4CFCF7181E090E002C0880F991FCA9515
:1037C000E2F79BCF1123D9F0CF718C2F0E949F0A73
:1037D00080915E0382FF11C0E8E0CE9FC0011124FA
:1037E0008360809300038C2F0E949F0A0E945C05D7
:1037F0009093FF028093FE027FCE8C2FD2CF81E088
:103800000E947F0AF1E0FD1508F076CE82E00E946A
:103810007F0A72CEDD2059F0D93309F0D2CE2FEFD6
:1038200037EE83E0215030408040E1F7C8CE8C2F46
:103830008F7180CF8EE0B82E10E000E002C0B7E0BC
:10384000BB2EA0909103A1103DCB80918F0280935D
:103850008E03802F0E948E0E10928E038B2D0E945D
:103860008E0E1ECAA7E1BA2EECCF4CE1B42EE9CFE2
:1038700038E0B32EE6CF25E0B22EE3CF9CE2B92E9E
:10388000E0CF8AE0B82EDDCF61E0C7010E940D0CC9
:10389000EC010E9450056093110370931203809312
:1038A00013039093140320915B0330915C03809188
:1038B000150390911603A90140955095482359236B
:1038C000452B31F0822393239093160380931503A5
:1038D000CD30FEE7DF0709F097C8F7018281882322
:1038E00019F1832F9927009709F48CC89C0188E06F
:1038F000A90174E0569547957A95E1F74115510570
:1039000011F08C5F9A01A9015695479556954795F8
:103910004115510511F08E5F9A0136952795232B9D
:1039200009F08F5F0E944E0C80910003877009F4AC
:1039300064C8F7018281882309F45FC880915E031F
:1039400082FF5BC882E00E947F0A57C8C631FCE74D
:10395000DF0709F0F1CC80918E038A7A91E009F4B7
:1039600090E09093930269E2811165E384E892E02C
:103970000E9468050E944E0DD7CFCF93DF938091B0
:10398000B902807F09F049C08091B602882309F40A
:1039900044C08091FD02D091BC026091B40270914C
:1039A000B502A091B702B091B802C62FC723D817AD
:1039B000A1F190E0109711F0CF3F19F401968770B4
:1039C000F6CF9C0143E0220F331F4A95E1F7F9013E
:1039D000E354FD4F41814713F1CF40814613EECFB1
:1039E00042814111EBCF438154814A1B5B0B483C20
:1039F000510520F78091B9028F7080618093B902E0
:103A0000F901EE53FD4F80818F708061808384EBDC
:103A100092E00E94EB140E94B409DF91CF910895C7
:103A2000A5E1B0E0E6E1FDE10C94942D8C0185E088
:103A3000F801DE01519601900D928A95E1F7F801A7
:103A4000E28064EBA62E62E0B62E6091B702709120
:103A5000B8026115710509F44BC19091B40240910F
:103A6000B502892F84238F3F09F442C1208131811F
:103A7000C380D480F090B602F601E61BF70BFF205E
:103A800009F411C18091B902582F507FE83CF1052B
:103A900008F0C4C0511175C0FE2C43131EC0921310
:103AA0001CC06091BA027091BB02F8014681578137
:103AB0006417750791F4E11010C08F7080618093D6
:103AC000B902C5010E94EB148091B902F801858307
:103AD0008F2D6596EAE00C94B02DC114D10429F025
:103AE000822F83238F3F09F01EC180E0F82FF170F1
:103AF000DF2E80FF3CC08091FD024091BC02841308
:103B000015C0298B3A8B89899A890E94F209292F3D
:103B100022952F702230F8F0243020F59F70F9F0B4
:103B2000F8019581907FD9F4D12C1FC090E0FC0161
:103B300053E0EE0FFF1F5A95E1F7E354FD4F51811B
:103B4000351306C05081251303C05281E5120FC002
:103B500001968770D4CF9F7011F0882329F3805E7F
:103B6000883010F3C8010E94EB14FD2CB1CFEE2079
:103B700009F4AECF8091B90281608093B902F12C33
:103B8000A7CF43131BC0921319C04091BA025091A2
:103B9000BB02F801268137814217530779F4E110FF
:103BA0000DC08583C8010E94EB1488E0F801A4EBE6
:103BB000B2E001900D928A95E1F78ACFC8010E9488
:103BC000B40A882339F1EE2029F18091B9028032BC
:103BD000A0F02091B4023091B5023A8729871B8664
:103BE000DD86CC868E878091BA029091BB02988B3D
:103BF0008F87CE0109960E94EB1488E0F801A4EBB0
:103C0000B2E001900D928A95E1F70E94BD1CFF245D
:103C1000F3945ECFC8010E94EB14F9CF51110AC092
:103C200084EB92E00E94EB1488E0F50111928A95F2
:103C3000E9F7A5CF431318C0921316C04091BA02FA
:103C40005091BB02F801268137814217530761F476
:103C5000E1100AC08583C8010E94EB1488E0F501D9
:103C600011928A95E9F734CFC8010E94B40A8823DB
:103C700089F2EE2079F28091B902803208F4BDCF4A
:103C80002091B4023091B5023A8329831B82DD82F0
:103C9000CC828E838091BA029091BB0298878F83E9
:103CA000CE010196A8CFE83CF105C0F6FE2CEE202F
:103CB00009F4B0CF43130EC092130CC02091BA0286
:103CC0003091BB02F801868197812817390711F4DA
:103CD00088E06DCFC8010E94B40A81118ECF809117
:103CE000B90281608093B902C8010E94EB14F0CE42
:103CF000EE2009F48FCFC8010E94B40AF82E882361
:103D000009F488CF88E0F801A4EBB2E001900D92AD
:103D10008A95E1F78091B4029091B5020E94F20970
:103D20000E94BD1CD5CE81E08E25E0CEA0E1B0E0A2
:103D3000ECE9FEE10C949C2D29873A874B875C8740
:103D40006D877E878F87988BCE0109960E94101D04
:103D5000811112C088E0FE013996DE0111960190B2
:103D60000D928A95E1F78C859D85892B29F08985AF
:103D70009A8589238F3F81F58091FD029091BC0245
:103D8000891317C06096E2E00C94B82D93E0AA0F57
:103D9000BB1F9A95E1F7A354BD4F98E0FE01319601
:103DA00001900D929A95E1F78093BC020E94B409AC
:103DB000E3CFB8E08B9FC001112483549D4F0E9434
:103DC000101D8823F9F28091FD0290E00196877022
:103DD00099278093FD02D0CFA091BC02B0E0CD0125
:103DE0000196877099272091FD022817190671F610
:103DF0000E9443101092BC021092FD0288E0E4EB96
:103E0000F2E0DF011D928A95E9F7B6CF0F931F9379
:103E1000CF93DF9380919603E09195031CE081118D
:103E20001AC0DF91CF911F910F91089501E00E0FFD
:103E300000939503CE2FD0E0E19FF0011124E956C5
:103E4000FC4F83819481892B29F080819181892382
:103E50008F3FF9F4E02F80919603E81738F3109222
:103E6000960310929503DDCF18968D919C918F3F0C
:103E70009807E1F061E00E9460131C9FF0011D9F14
:103E8000F00D1124E956FC4F148213821092940312
:103E9000E1CF1C9FD0011D9FB00D1124A956BC4F2E
:103EA00016968D919C911797892BF1F22081318183
:103EB0004281538164817581868197810E94961E1B
:103EC000DCCF109202041092010410922E02809115
:103ED00000048093FF030E94FA050E94061F0895C4
:103EE000B0E0A0E0E6E7FFE10C948C2DC091FF0369
:103EF000E7E0FE2E01E010E0FCE02F2EAEEFEA2E10
:103F0000809100048C1309C00E94061F0E94FA05CC
:103F1000CDB7DEB7E2E10C94A82DD0E0FE01EE0FA4
:103F2000FF1FE950FC4F80819181F89EF001F99EBE
:103F3000F00D1124E75CFE4F2481211159C030900F
:103F40009603A7E9B3E030E020E0412C5F012315A0
:103F500008F04CC01A966D907C901B97F5018080FC
:103F600091804FEF5FEF512CC52CD12CF601EE0F55
:103F7000FF1FE80DF91D659174916616770609F427
:103F8000A601672B11F05394EFCF4F3F5407B9F1BF
:103F9000B80102C0660F771F4A95E2F7462AA801CA
:103FA000052C02C0440F551F0A94E2F741505109F5
:103FB0004416150601F5229EF001239EF00D1124F2
:103FC000E956FC4FF89ED001F99EB00D1124A75C74
:103FD000BE4F12962D913C91139737832683E08232
:103FE000E1829187808771E015967C930E94CC05D1
:103FF0002196C37085CF14961C921E9213972F5F43
:104000003F4F1C96A4CFA9E1B0E0E9E0F0E20C94A8
:104010008C2D498B5A8B6B8B7C8B8D8B6111109205
:1040200094031D861E861F86188A85E0FE01719600
:10403000DE01199601900D928A95E1F780915E0359
:1040400082FF1CC00E945C052091FE023091FF029D
:10405000821B930B883E934020F08091000382FFE7
:10406000F2C10E945C052091090330910A03821B72
:10407000930B883E934010F00E9474098C859D85B7
:10408000892B31F089859A8589238F3F09F0C9C131
:1040900029853A854B855C856D857E858F859889D8
:1040A0000E94961EC7C081354CE7940731F48B857A
:1040B000882371F00E94611FEBCF82359C4741F449
:1040C0008B85882329F080912E028111F3CFB7C10F
:1040D00069857A8580E00E94C5074C0109E311E0FB
:1040E000E12CD12CC12CAA24A394B12C9EEF592EE3
:1040F00044244394F8016081718166246A94762C8B
:1041000020E0422F50E0FA01EE0FFF1FE60FF71FED
:10411000859194918816990609F43A01892B11F03A
:104120002F5FEFCFF12CFFEF6F167F0609F444C02D
:10413000F8014481F0902E028F2D411180E0F82F7C
:10414000F170FF2EF801258086819B85992309F463
:10415000F2C0FF2009F4EFC0211014C0A501062C05
:1041600001C0440F0A94EAF7842B8683809192035E
:1041700090919303889730F448E250E05093930372
:1041800040939203C50102C0880F991F2A95E2F758
:104190000197F80126812817190671F4809101040E
:1041A00090910204009709F449C00E944105899743
:1041B00008F444C0F8014482EF28FFEFCF1ADF0A69
:1041C000095F1F4F23E2C216D10409F093CF8B85FC
:1041D000882309F411C1EE2009F40EC10E945C0588
:1041E000909302048093010480919603883010F527
:1041F00091E0980F9093960398E0FE013996DE01C6
:10420000119601900D929A95E1F73CE0839FC001D1
:10421000112489569C4F28E0FE013196DC01019063
:104220000D922A95E1F72FEF3FEFFC0131872087B0
:10423000938682866996E2E10C94A82D8091FF0313
:1042400060900004982FF0E0E0E0861114C0909395
:10425000FF030E171F0709F4AFCF90E0FC01EE0F2C
:10426000FF1FE950FC4FD182C082019683709927CD
:1042700080930004A1CF282E312CF101EE0FFF1FF7
:10428000E950FC4F20813181F7E0F29FD001F39F8C
:10429000B00D1124A75CBE4F2D913C911197398F21
:1042A000288F712C60E070E0E72FF0E0EE0FFF1F29
:1042B000288D398DE20FF31F259134912115310599
:1042C000E1F0F8010190F081E02DFF8BEE8B60E0D2
:1042D00005C02417350709F47F2C6F5FE62FF0E047
:1042E000EE0FFF1F4E895F89E40FF51F4591549132
:1042F0004115510571F77F5FD7CF7720C9F0F801DD
:10430000671708F0FD014482E017F10721F490934C
:10431000FF03F72C51CF891305C0EA17FB0711F4EF
:104320009F5F937091012F5F3F4F822F83708DCFDE
:10433000F0E0E0E0F7CF90E0211020C0B50102C02E
:10434000660F771F2A95E2F79B0121503109281744
:10435000390731F4442309F44DC0C6010E94CC054D
:10436000C501062C01C0880F0A94EAF7982F909592
:10437000F801868189238683F22C1ECF9C01062CAE
:1043800002C0359527950A94E2F7A9014170552797
:10439000BC016150710986239723892B39F5452B80
:1043A00029F1F80182819381892BD9F01B821C822B
:1043B0001D821E8259825A820E945C058160582F9C
:1043C0009D838C83F801828193818F8398872981D3
:1043D0003A814B816D817E810E94961EF801158283
:1043E000BFCF60E0C6010E946013F8CFF22FF170DA
:1043F0002F2EB6CF2F2CB4CF9091FF0380910004C5
:10440000981731F00E94701FEE2009F441CE12CFB0
:104410000E94061F10920204109201040E94FA05E5
:10442000F3CF61E0CE0109960E940D0C8035FCE7C8
:104430009F0709F038CE8B85882309F449CE81E0A7
:1044400080932E0225CE82E00E947F0A0ACEAFE042
:10445000B0E0EDE2F2E20C94912D8E010F5F1F4F60
:104460008AE0D8011D928A95E9F787E6C82E82E096
:10447000D82EF12CE12CAA24A394B12C22E7822E71
:1044800022E0922EF60181916F018F3F09F442C024
:10449000F894E82FE295EF70F0E021A18F70A5016C
:1044A00002C0440F551F8A95E2F7CA01922F982B3C
:1044B00091A392A18095892382A3789400C0ECE611
:1044C000F2E0712C31E021912F3F09F46BC0A22F53
:1044D000A295AF70B0E090968C9190E02F7002C0E2
:1044E000959587952A95E2F780FD5CC0832F782A01
:1044F000330F8E169F0639F7F601319780818F3F73
:1045000011F00E946B0750EA5A95F1F7F801EE0D91
:10451000FF1D70828FEFE81AF80A95E0E916F104A2
:1045200009F0B0CF4AE050E0B8018DE493E00E947A
:104530006A30009741F02AE0F801ADE4B3E0019061
:104540000D922A95E1F700915803892B69F181E0DA
:1045500080930E030E945C0590930D0380930C03DF
:1045600080910C0390910D030E944105059700F185
:1045700010E00F591C4F45E050E06DE473E0C801B6
:104580000E946A30C12C892B51F085E0EDE4F3E004
:10459000D80101900D928A95E1F7CC24C394109232
:1045A0000E0307C080E0A3CF80910E038111D8CF06
:1045B000C12C0E941A0DD82EE0915803DE011B96E3
:1045C0007D01882309F42DC185E01D928A95E9F7C4
:1045D0000E2F10E00F591C4F809146038A3008F0CF
:1045E000A1C042ED55E2B701C8010E94E70C882343
:1045F00009F4BBC049E755E2B701C8010E94E70CC6
:10460000882309F4B2C04BE654E2B701C8010E9406
:10461000E70C882309F4A9C0109246038091570340
:1046200090E045E050E0B7018F599C4F0E946A30FE
:1046300021E020932703892B09F08AC0D12C809197
:10464000150390911603892BC1F1409111035091EC
:10465000120360911303709114032FB7F8948091A3
:104660000A0490910B04A0910C04B0910D042FBF8B
:10467000841B950BA60BB70B813C944DA140B10553
:10468000E0F080911503909116038095909520910C
:104690005B0330915C03822393230E94680A10928B
:1046A0001603109215030E94500560931103709336
:1046B0001203809313039093140340911F035091AE
:1046C000200360912103709122032FB7F894809109
:1046D0000A0490910B04A0910C04B0910D042FBF1B
:1046E000841B950BA60BB70B8E359140A105B10528
:1046F00008F464C080911D0390911E0383319105DD
:1047000009F444C08831910509F482C0079709F083
:1047100047C080919103882319F082E00E94A70985
:1047200087E03CC080910F03909110030E944105E7
:10473000843F914008F055CF80912703882309F4E6
:104740007DCF85E0F70111928A95E9F71092270352
:10475000A0915703B0E0AF59BC4F85E0FE013B96F6
:1047600001900D928A95E1F76ACF809146038F3FC1
:1047700031F08F5F809346038A3008F44FCF0E9458
:104780005C059093100380930F03D6CF8091910323
:10479000882319F082E00E94A70983E10E948E0E0F
:1047A0000E94500560931F037093200380932103A0
:1047B0009093220310921E0310921D0380911C03FC
:1047C000882371F080911A0390911B030E94410588
:1047D0008132934028F082EE0E94C90D10921C0392
:1047E00080911903882371F0809117039091180329
:1047F0000E9441058132934028F080EE0E94C90D4D
:10480000109219038D2D8C292F96EDE00C94AD2D6F
:1048100080919103882319F082E00E94A70988E122
:10482000BDCFF0E0EF59FC4F85E0A7E3B3E0019086
:104830000D928A95E1F765E070E087E393E00E94CE
:104840000B068093360340917B0350E060917A031E
:1048500070E06A587C4FC7010E9477308B85809347
:104860003D0361E070E0C7010E940B0680933C03AA
:1048700080903E0390903F03A0904003B09041038E
:104880008091230390912403A0912503B0912603E6
:1048900088169906AA06BB0611F4D12CB3CF8092D4
:1048A000230390922403A0922503B09226030E9432
:1048B0001A0DD82E8111F1CF0E945005861A970A41
:1048C000A80AB90A8092470390924803A09249032C
:1048D000B0924A0397CFA4E0B0E0E1E7F4E20C9491
:1048E0009A2D40914203509143036091440370918B
:1048F00045032FB7F89480910A0490910B04A0917E
:104900000C04B0910D042FBF841B950BA60BB70BA5
:1049100011E084369105A105B10590F10E941A0DB0
:10492000882399F10E9450056E5F7F4F8F4F9F4FF4
:1049300069837A838B839C838091210190912201EA
:104940008A5C9C4F4091200150E04530510510F0A9
:1049500044E050E0BE016F5F7F4F0E94773084E0FB
:1049600090E00E94162D182F882351F00E945005C8
:1049700060934203709343038093440390934503F1
:10498000812F2496E4E00C94B62D0E9450050091EE
:104990004703109148032091490330914A03600F67
:1049A000711F821F931FC0CF4F925F927F928F9291
:1049B0009F92AF92BF92CF92DF92EF92FF920F93AE
:1049C0001F93CF93DF930F92CDB7DEB7C62E4A0168
:1049D0005901482E880F5508C2010E94162D782EC5
:1049E000882309F480C0C20133E0880F991F3A95EB
:1049F000E1F7FC01E050FF4F438150E041155105C4
:104A000011F041E050E080509F4FFC0164817581BE
:104A10006A5C7C4FCE0101960E947730F4014081A0
:104A20005181628173812FB7F89480910A0490912B
:104A30000B04A0910C04B0910D042FBF841B950BA7
:104A4000A60BB70B84369105A105B10540F4B7015B
:104A5000C8010E940B069981891709F444C00C2CE7
:104A6000000CDD08C6010E94162D782E811113C09E
:104A7000712C872D0F90DF91CF911F910F91FF9097
:104A8000EF90DF90CF90BF90AF909F908F907F90EE
:104A90005F904F900895C60123E0880F991F2A95D3
:104AA000E1F7FC01E050FF4F438150E0E416F506CA
:104AB00008F4A70180509F4FFC01648175816A5CF6
:104AC0007C4FC5010E947730B701C8010E940B06D8
:104AD00099818913CDCF0E945005F40160837183C1
:104AE00082839383C6CFA701B801C5010E947730A6
:104AF000C0CFA1E0B0E0EFE7F5E20C94952DEE24F5
:104B0000E394F12C0DE313E09E012F5F3F4F42E34E
:104B100053E063E082E00E94D424C82E882339F158
:104B200000E080E01DC0D0904C03D00E2D2D30E071
:104B3000A9014A585C4F7A01E1E0F0E0EC0FFD1F5B
:104B4000E00FF11D1081FA019081191BB12E1B1489
:104B50009CF0912F17FD90E0191B111118C00F5FE9
:104B600090914B030917F8F281110E9471098C2D65
:104B70002196E9E00C94B12DBA94F70180818F5F02
:104B8000808360E08D2D0E94770F8C2DE0CF1F5F1A
:104B9000F70180818150808361E08D2D0E94770F25
:104BA0008C2DDBCFA5E0B0E0E8EDF5E20C94962D7E
:104BB0006B0185E0E82EF12C07E313E09E012F5FE7
:104BC0003F4F4EE253E061E080E00E94D42488230E
:104BD00049F095E0FE013196A9E2B3E001900D9213
:104BE0009A95E1F795E0E9E2F3E0D60101900D92A4
:104BF0009A95E1F72596E8E00C94B22D1F920F925A
:104C00000FB60F9211242F933F934F935F936F939F
:104C10007F938F939F93AF93BF93CF93DF93EF9344
:104C2000FF93D091E900DF708091EC00C82FC17034
:104C300080FDC0E81092E9008091F000877F8093AA
:104C4000F00078940E946A101092E9008091F000C0
:104C500088608093F000CD2BCF70C093E900FF9166
:104C6000EF91DF91CF91BF91AF919F918F917F9104
:104C70006F915F914F913F912F910F900FBE0F90C9
:104C80001F9018951F920F920FB60F9211242F9319
:104C90003F934F935F936F937F938F939F93AF93C4
:104CA000BF93EF93FF938091E10082FF09C0809151
:104CB000E20082FF05C08091E1008B7F8093E100DC
:104CC0008091DA0080FF24C08091D80080FF20C04E
:104CD0008091DA008E7F8093DA008091D90080FF86
:104CE0009DC080E189BD82E189BD09B400FEFDCF90
:104CF00081E08093210480910E04811109C00E94FB
:104D0000E4030E9485048091E20084608093E200C5
:104D10008091E10080FF17C08091E20080FF13C006
:104D20008091E2008E7F8093E2008091E2008061BA
:104D30008093E2008091D80080628093D80019BCF3
:104D400085E0809321048091E10084FF2BC0809155
:104D5000E20084FF27C080E189BD82E189BD89B579
:104D6000982F917080FFFBCF8091D8008F7D80932A
:104D7000D8008091E1008F7E8093E1008091E20075
:104D80008F7E8093E2008091E20081608093E20058
:104D900080912204882309F447C084E08093210491
:104DA000809121048091E10083FF27C08091E2007F
:104DB00083FF23C08091E100877F8093E10082E040
:104DC00080932104109222048091E1008E7F8093D1
:104DD000E1008091E2008E7F8093E2008091E2000A
:104DE00080618093E20042E060E080E00E94530432
:104DF0008091F00088608093F000FF91EF91BF9167
:104E0000AF919F918F917F916F915F914F913F9162
:104E10002F910F900FBE0F901F90189519BC1092F4
:104E2000210410920E0474CF8091E30087FD93E07B
:104E300090932104B5CF78941F921FB61F9211242E
:104E40008F939F93AF93BF9380910A0490910B042B
:104E5000A0910C04B0910D040196A11DB11D809389
:104E60000A0490930B04A0930C04B0930D04BF911B
:104E7000AF919F918F911F901FBE1F9018951F9209
:104E80001FB61F9211248F939F93AF93BF9380916E
:104E90000904811113C080910A0490910B04A09120
:104EA0000C04B0910D044196A11DB11D80930A041C
:104EB00090930B04A0930C04B0930D04BF91AF9199
:104EC0009F918F911F901FBE1F901895CDB7DEB791
:104ED00060970FB6F894DEBF0FBECDBF85B7806870
:104EE00085BF85B7806885BF84B7877F84BF0FB6CD
:104EF000F894A8958091600088618093600010927A
:104F000060000FBE80E890E00FB6F89480936100D7
:104F1000909361000FBE89E697E09093830280939F
:104F200082020E94E4030E9485048091E200846072
:104F30008093E2007894809121048823A1F010915D
:104F4000E9001F709091EC00892F817090FD80E83E
:104F5000182B1092E9008091E80083FD0E946A10EE
:104F60001F701093E90082E084BD93E095BD9AEF35
:104F700097BD80936E0010924703109248031092E1
:104F8000490310924A030E941A0D809328010E943F
:104F90001A0D81110E942A2C9091280181E09827F6
:104FA00090937A03282F291B20934C03909128017A
:104FB00080937B039091280180934B03809128017B
:104FC000811106C084EF8093340185EF8093330113
:104FD00082E08093320120913401E22FE295EF705C
:104FE000F0E061A12F7081E090E0AC0101C0440FBE
:104FF0002A95EAF7342F3095362331A322A1242BAA
:1050000022A320913301E22FE295EF70F0E031A16D
:105010002F7001C0880F2A95EAF7982F9095932357
:1050200091A392A1892B82A38FE891E00197F1F7D8
:1050300000C0000010917B036CE773E044E351E093
:1050400083E3E82E81E0F82EFB0128C0DA012D91E0
:10505000AD01822F82958F7090E0DC0190968C914B
:1050600090E02F7002C0959587952A95E2F78170A0
:10507000D7019D917D01292F22952F7030E0D90114
:1050800090962C9130E09F7002C0359527959A95A7
:10509000E2F790E020FD92E0892B81938E2F861B12
:1050A0008117A0F2809128018091280195E081115B
:1050B00090E09093580385E0891B8093570307E69F
:1050C00012E06CE6E62E62E0F62EF80181918F0187
:1050D0008F3F11F00E946B07E016F106B1F70CE666
:1050E00012E052E7E52E52E0F52ED8018D918D01A8
:1050F0008F3F11F00E946B07E016F106B1F78AE0CE
:10510000E1E6F3E0DF01282F1D922A95E9F7EDE4AF
:10511000F3E0DF011D928A95E9F790E080E00E94BC
:10512000F92D873E9E4F09F45EC067EE7EEF90E05A
:1051300080E00E941D2E60E082E090E00E94FF2D42
:1051400060E083E090E00E94FF2D10925A031092DD
:10515000590360E074E184E090E00E941D2E60E05D
:1051600086E090E00E94FF2D6FEF87E090E00E94C4
:10517000FF2D40E050E0BA0188E090E00E94112E3F
:1051800060E08DE090E00E94FF2D40E050E0BA0129
:1051900088E190E00E94112E60E087E190E00E949B
:1051A000FF2D40E050E0BA018CE190E00E94112E0A
:1051B00070E060E080E290E00E941D2E40E050E050
:1051C000BA0188E190E00E94112E40E050E0BA015F
:1051D0008FE090E00E94112E40E050E0BA0183E1A0
:1051E00090E00E94112E82E090E00E94F12D8093C9
:1051F0006B0384E090E00E94F92D90935E0380930E
:105200005D0383E090E00E94F12D90E00E94AF0AE0
:105210000E941A0D811102C00E942D2C89E291E09A
:10522000909306048093050438E1C32ED12C4BE6FD
:10523000A42E43E0B42E26E7822E23E0922E809106
:10524000210400E112E1853009F47EC00E9427228A
:105250000CE613E091E6E92E93E0F92ED701F80170
:1052600091918D918E169F0609F478C09817C1F31D
:105270000E941A0D282E712CD7016D907D01F80126
:1052800031908F01361429F13624512C4424439453
:10529000832D8421B1F02220A1F05C867D8691E0EF
:1052A000862D842109F490E09E870E945C05816030
:1052B000782F988B8F874C855D856E8588890E94B5
:1052C00003205394440CF6E05F12E2CFF8013197CB
:1052D000608273942AE07212CFCF0E9450055EC0A4
:1052E00080912104843011F110920904E0E40FB69A
:1052F000F894A895C09260000FBEE093600083B759
:10530000817F846083BF83B7816083BF78948895F1
:1053100083B78E7F83BF0FB6F894A8958091600005
:10532000886180936000109260000FBE80911A0423
:10533000882351F00E942722E1E6F3E08191811158
:1053400011C2AE16BF06D1F780912104853009F451
:10535000C7CF0E9443100E943D0D78CF981388CF8D
:105360000E945C058C0180915F0390916003081797
:105370001907A1F08FEF8F83888719860E945C053B
:105380008160782F9B878A874F81588569858B85B7
:105390000E9403201093600300935F030E941A0D84
:1053A0008823A9F180912E02882301F180910104C4
:1053B000909102040097D1F00E9441052091920340
:1053C000309193032817390788F49091FF03809157
:1053D0000004981709F415C10E94701F10929303DE
:1053E0001092920310920204109201048091910392
:1053F000882369F00E945C0520918F03309190030F
:10540000821B930B8F3F9F4710F40E94A70D612CC6
:10541000512C80917B03681608F4FCC051100E9447
:10542000710986E0E8E8F3E0DE01119601900D9243
:105430008A95E1F710928A0310928B0310928C03E5
:1054400010928D038B819C81892B09F44DC0809132
:105450008603909187030E9441059C0190917F03F0
:10546000992309F499C12930310508F43DC09F3FC3
:1054700019F09F5F90937F038B81882361F00E94D6
:10548000D7069B8119160CF455C19FEF899F802D7B
:10549000112480938A038C81882361F00E94D706AF
:1054A0009C8119160CF448C19FEF899F802D11240F
:1054B00080938B0330918A033323B1F020918B03C7
:1054C000222391F045EB3403C0011124992309F400
:1054D00035C190938A0345EB2403900111243323B3
:1054E00009F430C130938B038D819E81892B09F49F
:1054F0005AC080918403909185030E9441051091C8
:105500008203112309F444C1BC0190E080E00E94B1
:10551000462F20913501309136014091370150914D
:1055200038010E94F82F18160CF03DC01F3F19F0EB
:105530001F5F109382038D81882361F00E944806CB
:105540009D8119160CF402C19FEF899F802D1124B3
:1055500080938C038E81882361F00E9448069E818F
:1055600019160CF4F5C09FEF899F802D11248093AC
:105570008D0330918C033323B1F020918D032223CE
:1055800091F045EB3403C0011124992309F4E2C0E2
:1055900090938C0345EB240390011124332309F4E9
:1055A000DDC030938D0346E050E0BE016F5F7F4F5A
:1055B00088E893E00E946A30892B61F480918A0325
:1055C00090918B03892B90918C03892B90918D0363
:1055D000892B11F00E94210686E0FE013196A8E891
:1055E000B3E001900D928A95E1F70E943D0D9091F4
:1055F0007E03891709F423CE80937E030E94500511
:105600001ACE0E94061F10920204109201040E94FA
:10561000FA05ECCE062D10E0F801EC5CFE4F80811F
:10562000E82FE295EF70F0E0E0A1F0E08F7002C0AB
:10563000F595E7958A95E2F7E170D801AD5CBE4F2C
:105640002C91A22FA295AF70B0E090968C9190E033
:105650002F7002C0959587952A95E2F780FD62C06C
:1056600080E08E2BD801A458BC4FEC919E2F9370F4
:10567000891709F455C0EE0FEE0FE82BEC93D80113
:10568000AF5CBE4FEC9070907A03760CEF70F0E058
:10569000EE58FD4F08581C4F8081D8019C91890F0E
:1056A0008C93F12C082E000C990B412C8E159F0524
:1056B00084F0E72DF0E0EA58FC4F80818F5F808313
:1056C0000E941A0D482E882379F160E0872D0E94F0
:1056D000770FF8018081082E000C990B22273327C1
:1056E0002E193F092817390784F0E72DF0E0EA5812
:1056F000FC4F8081815080830E941A0D482E8823A0
:10570000B1F061E0872D0E94770FD8018C91082EAF
:10571000000C990BB7010E94D72DF8018083542803
:10572000639477CE82E09DCF44244394D2CF442427
:105730004394EBCF91E0AACE91E0B7CE81E0809385
:105740008A03C9CE81E080938B03CECE91E0FDCE5B
:1057500091E00ACF81E080938C031CCF81E080939D
:105760008D0321CF09BD19BD09B400FEFDCF809185
:10577000D8008F7D8093D8008091E0008260809374
:10578000E0008091E00081FDFCCF0E944310DCCD61
:105790000B9708F0CDCE07CF232B09F06ACEA4CE0D
:1057A0008EE14A9B02C08150E1F74A9BFECF0895EB
:1057B0005A9880E28A95F1F75A9A0895FC013BE0E5
:1057C0003A95F1F798E020E080E031E040E14A9539
:1057D000F1F7880F4A9B02C08160232742E04A9577
:1057E000F1F7000040E14A95F1F7915079F790E127
:1057F0009A95F1F799B132E03A95F1F7000040E15E
:105800004A95F1F792FB992790F992272081920F00
:1058100090830895A1E0B0E0E0E1FCE20C94982DC3
:1058200019828C017C01E60EF11C0E151F0541F456
:1058300081E09981911180E02196E6E00C94B42DED
:105840000E94D02BCE0101960E94DE2BF80181939D
:105850008F01EBCF529A5A9A089552985A9AEA9A1F
:10586000E9E6F0E080818F7C808308956150770BBA
:1058700091E001C0990F6A95EAF720E031E09111BB
:1058800008C0222391F05A9A80E28A95F1F75A983B
:105890000895492F482339F05A9A232740E24A9520
:1058A000F1F79695ECCF5A98F9CF5A98EDCFFF9231
:1058B0000F931F93CF93DF93EC018C01060F111D03
:1058C000C017D10729F4CDB7DEB7E5E00C94B52DAC
:1058D000F9900E94D82B68E08F2D0E94362CF0CFD3
:1058E0001F920F920FB60F9211240F931F932F93B5
:1058F0003F934F935F936F937F938F939F93AF9358
:10590000BF93EF93FF93CF93DF930F92CDB7DEB7A3
:1059100019820E94D02BCE0101960E94DE2B082F07
:10592000069506950695282F22952570902F95703F
:10593000290F922F937026952695920F982797708E
:105940008981982B09F05CC0063008F059C080E1CD
:105950008A95F1F75A9A529A82E08A95F1F700C037
:105960005A9888E0089F80011124D801A050BF4FA9
:105970001696ED91FC9117973097A9F0609165020A
:105980007091660214962D913C911597260F371F42
:1059900011968D919C911297680F791F13964C91D7
:1059A00013978C910995F801E050FF4F63816623AE
:1059B00051F0209165023091660284819581820FB9
:1059C000931F0E94572C0E94D82B80E18A95F1F7F3
:1059D0005A9852985A9A80E18A95F1F7F801E05066
:1059E000FF4F6081662351F020916502309166027D
:1059F00081819281820F931F0E940A2C0E94D02BDA
:105A00000F90DF91CF91FF91EF91BF91AF919F9157
:105A10008F917F916F915F914F913F912F911F9146
:105A20000F910F900FBE0F901F9018950F931F931B
:105A3000CF93DF93EC0106970CF04CC0F894529A88
:105A40005A9885E08A95F1F700009C2F96959570FD
:105A50008C2F8570980F892F83709695969523E0EB
:105A6000CC0FDD1F2A95E1F7980F8E01092B0E94BC
:105A7000D82B00C068E0802F0E94362C80E18A95E8
:105A8000F1F752985A9A4A9B1EC087E090E04A99D3
:105A90001CC0FE01E050FF4F63816623F9F02091A6
:105AA00065023091660284819581820F931F0E9466
:105AB0000A2C811113C0529A5A9A7894DF91CF918F
:105AC0001F910F91089500C0DECF019729F4529ADB
:105AD0005A9A789480E0F2CF00C0D9CF0E94D02BA0
