:100000000C94E7030C9404040C9404040C94B72C93
:100010000C9404040C9404040C9404040C94040440
:100020000C9404040C9404040C9489260C94452626
:100030000C9486270C9404040C9404040C9404047B
:100040000C9404040C9404040C9404040C94040410
:100050000C9404040C9462270C9404040C9404047F
:100060000C9404040C9404040C9404040C940404F0
:100070000C9404040C9404040C9404040C940404E0
:100080000C9404040C9404040C9404040C940404D0
:100090000C9404040C9404040C9404040C940404C0
:1000A0000C9404040C9404040C940404E100313214
:1000B00000001E001F0000000F0018001C000000C0
:1000C0002A00343131320000400041004200430038
:1000D00000002C42282800000B003600000017000A
:1000E0000A00000008000C00000018001C000000BE
:1000F000360037000000120034310000382431325D
:1001000000003700382400001D24070000001B00F9
:10011000190000001B000700000006000700000097
:100120001B00060000001D241B0000000900130036
:1001300000001A00090000000A0037000000160045
:10014000370000000C0037000000090037000000F5
:100150001B00370000001500370000001A003700B0
:1001600000001400370000000700370000001700EF
:10017000370000001300370000000444370000007F
:1001800008000D00000013000D00000005000D0028
:1001900000000E000B0000001000110000000D0018
:1001A0000F000000220027003C5441473E3C2F54E2
:1001B00041473E003C696D67207372633D22696D63
:1001C0006167655F736F757263655F6F725F6C699E
:1001D0006E6B5F676F65735F686572652220616C27
:1001E000743D226E616D655F69665F63616E745F09
:1001F0006C6F6164222077696474683D226E756D4E
:100200005F706978656C7322206865696768743D02
:10021000226E756D5F706978656C73223E003C617B
:1002200020687265663D226C696E6B5F676F6573EF
:100230005F68657265223E6E616D655F6F665F6CBB
:10024000696E6B5F676F65735F686572653C2F6190
:100250003E003C666F6F7465723E3C2F666F6F7434
:1002600065723E003C626F64793E3C2F626F647938
:100270003E003C686561643E3C2F686561643E00F9
:100280003C68746D6C206C616E673D22656E223E29
:100290003C2F68746D6C3E003C7374796C653E3C19
:1002A0002F7374796C653E003C7469746C653E3CD8
:1002B0002F7469746C653E003C703E3C2F703E00AC
:1002C0003C6469763E3C2F6469763E002829203DD7
:1002D0003E207B7D00313131204869676876696551
:1002E0007720476174652053450061726963626FCE
:1002F0007577657273406F75746C6F6F6B2E636F7B
:100300006D0061726963626F7577657273406963CE
:100310006C6F75642E636F6D006172696340686510
:100320006C697869726C6162732E636F6D006172C3
:10033000696340636F6C6C656769756D6275696C44
:10034000742E636F6D0061726963406172696363EB
:10035000622E646576002829203D3E2000636F6E82
:10036000737420796F757246756E63566172696138
:10037000626C65203D2028782C7929203D3E20782C
:10038000202B20792E6D6574686F643B005B5D00E7
:100390007B7D002829003C3E0032001E001F00200B
:1003A0000021002200292F14001A00090013000563
:1003B000002B2104441500160017000A00E1001D5F
:1003C000241B000600070019000000C32428282C65
:1003D000427321AE003501270026002500240023AA
:1003E000002A0033001C0018000F000D00343112E9
:1003F000000C00080011001000313238243700369C
:10040000000B000E00000061524C432C420C7E3564
:100410002432001E001F00200021002200292F147A
:10042000001A000800150017002B210444160007CD
:100430000009000A00E1001D241B00060019000548
:10044000000000C32428282C427321AE0035012768
:100450000026002500240023002A00130012000CAF
:100460000018001C00343133000F000E000D000B8B
:1004700000313238243700360010001100000061CE
:10048000524C432C420C7E352432001E001F0020AB
:10049000002100220035001E02360237022E002302
:1004A000022B0220022F00260227023000E1001F4B
:1004B0000221022F0230022202000001000100018D
:1004C0000001002708615227002600250024002390
:1004D000002A00330226002500240025025700567A
:1004E0000023002200210024023102540020001FBA
:1004F000001E00310200000E7E370027002C003560
:10050000021C701E001F0020002100220001001E9E
:1005100002360237022E002302010020022F00269D
:1005200002270230000100350221022F0230022290
:100530000200000100280801000100AB001B702729
:100540000026002500240023002A000100D200CD4F
:1005500000D100A8000100D300D000CE00CF00A938
:100560000001000B7E097E0A7E087EAA0000000EB4
:100570007E0100D300D100010001003A003B003CA5
:10058000003D003E000100010042004300440045E0
:1005900000010001003E243F2240284121010001CA
:1005A000003A003B003C003D00000001000100015A
:1005B0000001000100010047004F08520C50084B99
:1005C000012A0053004D0052004A004E013900013B
:1005D000004F00510050000D7E49004F084E005161
:1005E0000C4B000C7E00000E7E010001000C7E0D05
:1005F0007E05010906A1018501050719E029E71516
:100600000025019508750181029501750881010594
:1006100007190029FF150026FF00950675088100BF
:1006200005081901290595057501910295017503C4
:100630009101C005010902A10185020901A100057E
:100640000919012908150025019508750181020580
:1006500001093009311581257F9502750881060948
:10066000381581257F950175088106050C0A380229
:100670001581257F950175088106C0C00501098097
:10068000A101850319012AB700150126B7009501BC
:1006900075108100C0050C0901A101850419012A0A
:1006A000A002150126A002950175108100C0090263
:1006B0002200010100A0FA09040000010301010069
:1006C00009211101000122BD00070581032000015D
:1006D0001201000200000008134022201300010252
:1006E00000010E034C00650065006C006F006F0098
:1006F0000000260343006C00690063006B00650086
:10070000740079002000530070006C0069007400D0
:1007100020004C0074006400000004030904000081
:1007200000000000000000000000000000000000C9
:1007300000000000000000000000000000000000B9
:1007400000007E0F00D4FFFFFFC70000007800000C
:100750000000000000002A2B28000000000000001C
:1007600000000000000000000029000000002C1E16
:100770003420212224342627252E362D3738271ED3
:100780001F202122232425263333362E37381F04F9
:1007900005060708090A0B0C0D0E0F101112131491
:1007A00015161718191A1B1C1D2F3130232D35044F
:1007B00005060708090A0B0C0D0E0F101112131471
:1007C00015161718191A1B1C1D2F3130354C112402
:1007D0001FBECFEFDAE0DEBFCDBF12E0A0E0B1E098
:1007E000E2E5F2E602C005900D92AC3AB107D9F706
:1007F00024E0ACEAB2E001C01D92A835B207E1F7EF
:100800000E94AD270C94C7300C940000E8EDF0E096
:1008100080818E7F80831092E2001092DA00109225
:10082000E100A0EEB0E08C9181608C9380818F77A5
:10083000808319BCA7EDB0E08C918E7F8C93808172
:100840008F7E808310923A0408952091E4003091C5
:10085000E50095E6A9012091EC00822F817020FF30
:1008600006C08091E80080FF06C080E008952091D6
:10087000E80022FD1AC080915704882389F0853052
:1008800089F08091EB0085FD0FC02091E40030914C
:10089000E50042175307F9F29150E1F684E008951C
:1008A00082E0089583E0089581E0089580914F04E7
:1008B00087FF13C08091E80082FF06C08091E800A6
:1008C0008B778093E80004C0809157048111F2CFA8
:1008D0000895809157048823D9F38091E80080FF20
:1008E000F8CF8091E8008E77ECCF982F9093E900B5
:1008F000242F762F50E0891731F07091EC00209171
:10090000ED005091F00021FD07C09F5F973071F717
:100910008093E90081E008953091EB003E7F3093B1
:10092000EB003091ED003D7F3093ED003091EB0016
:1009300031603093EB007093EC002093ED00509306
:10094000F0002091EE0027FDE0CF80E00895B0E0B8
:10095000A0E0EDEAF4E00C94DD2DC8EDD0E0888154
:100960008F7E8883E7EDF0E080818160808384E082
:1009700082BF81E080933A0488818E7F888302EE73
:1009800010E0F80110821092DA0081EEC82ED12C0E
:10099000F601108288818F778883888180688883B8
:1009A00088818F7D888319BC1092570410924E0461
:1009B000109247041092460490EEE92EF12CF701B4
:1009C00080818B7F808388818160888342E060E0C2
:1009D00080E00E947504F60180818E7F8083F8019B
:1009E000808181608083808188608083F70180813D
:1009F0008E7F8083888180618883CDB7DEB7E8E011
:100A00000C94F92DFC0180915504909156048617A1
:100A10009707A0F06115710529F49091E8009E7781
:100A20009093E80090E06115710551F4911108C0B0
:100A30008091E80082FF34C080E00895BC01F2CFCD
:100A4000809157048823C1F18530C1F18091E8007D
:100A500083FD30C08091E80082FDEACF8091E800FC
:100A600080FFE1CF8091F3002091F200382F6115D3
:100A7000710519F02830310558F091E02830310522
:100A800009F090E02091E8002E772093E800CBCF8A
:100A900081918093F100615071092F5F3F4FE7CF43
:100AA00080915704882341F0853041F08091E8001F
:100AB00083FFBECF81E0089582E0089583E008952A
:100AC00080913C0408959C014FB7F89480913604BE
:100AD00090913704A0913804B09139044FBF821B24
:100AE000930B08952FB7F8946091360470913704F2
:100AF00080913804909139042FBF08952FB7F8944E
:100B00008091360490913704A0913804B091390453
:100B10002FBF08959C01FC0133969FEF80E0419127
:100B2000461751F09F3F19F4411101C0982F8F5F74
:100B30008630A9F79F3F09F40895290F311D97FDCD
:100B40003A95F90163830895A3E0B0E0EAEAF5E09D
:100B50000C94E32D20913304309134042817390785
:100B6000A1F09093340480933304E0913104F09128
:100B70003204309751F024E029839B838A830680D6
:100B8000F781E02DCE01019609952396E2E00C94C1
:100B9000FF2DA3E0B0E0EFECF5E00C94E32D209105
:100BA0002F043091300428173907A1F090933004B6
:100BB00080932F04E0913104F0913204309751F08A
:100BC00023E029839B838A830680F781E02DCE0171
:100BD000019609952396E2E00C94FF2DDC016091CB
:100BE0002B0480912C04962F891301C00895292F7E
:100BF00030E0F901EE0FFF1FED5DFB4F40815181A9
:100C00004A175B07A1F487E08A9FA0018B9F500DD4
:100C10001124475C5E4F81E0FA0184839613E6CF8E
:100C20002F5F3F4F2370332720932B0408952F5FAE
:100C30003F4F922F9370D8CF1092BF031092BE03F4
:100C4000E9E3F1E08581811102C0148216823796B2
:100C500082E0E135F807B1F70895FC01680F791FCC
:100C60008FEF91E32191822728E030E087FF09C0D0
:100C7000880F892721503109C9F7E617F70791F73F
:100C80000895880FF7CF0E947E059C019091B603CE
:100C90008091B703982B21F03093B3032093B203D4
:100CA0009091B8038091B903982B21F03093B10350
:100CB0002093B003E0913104F0913204309749F071
:100CC00082E08093B4030480F581E02D84EB93E00F
:100CD000099508958F929F92AF92BF92CF92DF9223
:100CE000EF92FF928091AF03982F957071F0C12C15
:100CF000D12C20E4E22E22E4F22E82FD52C0C12C3F
:100D0000D12CE12C91E4F92E4CC08091AE038823C4
:100D1000B1F3E090AC03F090AD03E114F10479F38A
:100D200020E030E048EC51E46091350170913601EB
:100D300080913701909138010E94E72E8823F9F2C3
:100D4000C7010E94630562E370E00E940A2E90E0F2
:100D500080E00E948D2F6B017C0120E030E040E0BC
:100D60005FE30E944430A70196010E9444304B018A
:100D70005C0120E030E040E051E4C701B6010E9490
:100D80007B2E9B01AC01C501B4010E947B2E6B013F
:100D90007C0120E030E048EC51E40E943F3018161E
:100DA0000CF1A701960160E070E08AE794E40E94EC
:100DB000EC2E609335017093360180933701909348
:100DC0003801C701B6010E945E2F81E0693008F04A
:100DD00082E0FF90EF90DF90CF90BF90AF909F9018
:100DE0008F900895C12CD12C88ECE82E81E4F82E48
:100DF000D8CF8F929F92AF92BF92CF92DF92EF9215
:100E0000FF928091AF03982F957081F0C12CD12C67
:100E100038ECE32E33E4F32E82FF4AC0C12C20E8E5
:100E2000D22E2BE3E22E25E4F22E42C08091AB03BA
:100E3000882309F45DC08091AC039091AD030097C5
:100E400009F456C00E94630562E370E00E940A2E16
:100E500090E080E00E948D2F6B017C0120E030E06B
:100E600040E851E40E94443020E030E048EC52E495
:100E70000E947B2E4B015C0120E030E040E051E419
:100E8000C701B6010E944430A70196010E94443078
:100E90009B01AC01C501B4010E947B2E6B017C015A
:100EA00020E030E046E954E40E943F3018163CF15F
:100EB00020E030E04AEF52E4C701B6010E94EC2E78
:100EC0000E945E2F662311F18FE767FD08C070E076
:100ED00090E080E00E948D2F0E945E2F862FFF9071
:100EE000EF90DF90CF90BF90AF909F908F9008953C
:100EF000C12CD12C98ECE92E92E4F92ED9CFC12C3B
:100F0000D12C86E9E82E84E4F82ED2CF60E070E0A0
:100F100080E89FE3E1CF80E00895F894E82FE29520
:100F2000EF70F0E031A1282F2F7081E090E001C038
:100F3000880F2A95EAF7982F9095932391A392A171
:100F4000892B82A3789408959091890392FF06C01B
:100F5000282F28712830F9F4877F846093FF06C01A
:100F6000282F28712831F1F4877E846120918A032B
:100F700020FF06C0382F38713830D9F4877F816060
:100F800021FF06C0282F28712831D1F4877E816186
:100F900094FD877E0895282F24712430F9F68B7FE5
:100FA0008860DCCF282F2471243101F78B7E886183
:100FB000DDCF382F3171313019F78E7F8860E0CF67
:100FC000282F2171213121F78E7E8861E1CF972F63
:100FD0007A30B8F46630A8F4853098F470E026E0F2
:100FE000929F600D711D1124FB019CE3899FE00D10
:100FF000F11D1124EE0FFF1FE756FC4F85919491D0
:10100000089580E090E00895CF93DF93EC0182385B
:101010009105B9F108F041C08133910509F49FC0F1
:1010200050F58932910509F48FC08A9709F49EC062
:10103000C11520E5D20708F0BDC0C11530E4D307C3
:1010400008F00AC1C03ED10508F0A5C0CD3CD105CD
:1010500008F000C1C83AD10508F08FC0C53AD105E3
:1010600008F0F0C0C130D10539F1209729F1C43022
:10107000D10510F546C08533910509F460C0C997C4
:10108000B9F680918903837009F044C180918A0385
:1010900083FF12C0C9E2D0E00FC0833E9105A1F1E9
:1010A00078F4803E910509F1823E910509F0C0CFA8
:1010B0008091890382FD21C0CE01DF91CF910895F7
:1010C000863E910561F1873E910571F1843E91055F
:1010D00009F0AECF80918A0381FFEECF8091890322
:1010E000C7EED0E084FD0DC0E7CF8091890380FD7D
:1010F00033C090918A0390FFDFCFC3EED0E084FF2E
:10110000DBCFD0E0C0E0D8CF8091890382FDFFC063
:1011100090918A0390FDFEC084FFCECFF2CF8091E4
:10112000890383FDDDCFC8CF8091890383FDF5C09E
:1011300090918A0391FFF0CFC4EED0E0BDCF8091B3
:10114000890385FFB9CFA6CF8091890385FDE8C0CB
:1011500080918A0383FFB0CFC9E3D0E0ADCF809107
:10116000890386FFA9CFCAE2D0E0A6CF8091890388
:1011700086FFA2CFC1E3D0E09FCFC43CD10508F6E3
:10118000C85AD0E0CC0FDD1FCA5ADD4F0990D88174
:10119000C02DD46491CFC11540E2D40708F0AAC095
:1011A000C11581E0D80708F087CFC83ED10508F403
:1011B00083CFA7CFC03622E5D20718F5C03432E579
:1011C000D30708F053C0C03242E5D40708F047C047
:1011D000C11582E5D80708F47FC02C2F26952695E7
:1011E00040E2249F900111248C2F8370C1E0D0E055
:1011F00002C0CC0FDD1F8A95E2F7C22BD32BDD682E
:101200005BCFC03A22E5D20760F4C03832E5D3079D
:1012100008F441C0CF71D0E0DC2FCC27C46FD06A76
:101220004BCFC03C42E5D40708F44AC0C03E82E53B
:10123000D80708F066CFDC2FCC27CC27DF71C06F32
:10124000D06A3ACFC55AD0E0CD5ADD4FC881D0E040
:10125000D06432CFD06530CFDF70D06A2DCFCF7160
:10126000D0E0DC2FCC27C16FD06A26CF2C2F26955B
:101270002695277080E2289F900111248C2F83707F
:10128000C1E0D0E002C0CC0FDD1F8A95E2F7C22B8F
:10129000D32BDC6811CF2C2F26952695277040E2A2
:1012A000249F900111248C2F8370C1E0D0E002C0F4
:1012B000CC0FDD1F8A95E2F7C22BD32BDA68FCCE68
:1012C0008C2F8F710E94A407C82FD0E0DC2FCC2771
:1012D000CC27DF71D062F0CE8C2F8F710E94A407D3
:1012E00035E0D695C7953A95E1F7CF709C2FEC0184
:1012F000D069E2CE8D2F8F710E94A40790E0982FC5
:10130000882788279F719C012C2BE901E3CFC2EE2F
:10131000D0E0D2CEC0EED0E0CFCEC6EED0E0CCCE84
:10132000C5E3D0E0C9CE0E947205089580913703CD
:10133000882331F010923703109236031092350350
:1013400008958091BD0381110FC01092BA030E94CD
:1013500096090E947E0588579C4E9093BC0380930B
:10136000BB0381E08093BD030895CF93C82F809184
:101370008A0382FF0CC0809137038C1741F00E94D2
:101380007E059093360380933503C0933703CF9146
:1013900008959091C003892B8093C0030895809590
:1013A0009091BA0398239093BA03089580912803EB
:1013B0009091E702981301C008958F5F8770FACF6C
:1013C000B0E0A0E0E6EEF9E00C94DC2D7C010091A9
:1013D0008703109188038091850390918603082BE1
:1013E000192BCFE0D0E0CC24C394D12CBC2EC60165
:1013F0000C2E02C0880F991F0A94E2F780239123D4
:10140000892B49F4219790F7B12C8B2DCDB7DEB7FE
:10141000E9E00C94F82DB7018C2F0E94E7070E9499
:101420000408019779F3F1CFCF93DF93EC010E9489
:10143000E009BE010E94E7070E940408DF91CF91F6
:1014400008959A3078F5863068F5E82FF0E086E068
:10145000989FE00DF11D11249E2F977083E0F69563
:10146000E7958A95E1F7EE0FFF1FEE0FFF1FE1549E
:10147000FD4F50E040E080E0219130E0092E02C0B5
:10148000369527950A94E2F721703327042E01C080
:10149000220F0A94EAF7822B4F5F5F4F44305105C9
:1014A00059F7089580E008959A3098F5863088F5C8
:1014B000E82FF0E086E0989FE00DF11D11248E2FBB
:1014C000877041E001C0440F8A95EAF783E0F69502
:1014D000E7958A95E1F7EE0FFF1FEE0FFF1FE1542E
:1014E000FD4F30E020E070E05191DF011197CB011A
:1014F000022E02C0969587950A94E2F78170819535
:101500008527842385278C932F5F3F4F2430310517
:1015100059F708959093880380938703089521E0F5
:1015200030E002C0220F331F8A95E2F720953095F4
:101530008091870390918803822393230E948A0AD3
:10154000089590912B038095892380932B03282F56
:101550002770B1F4282F082E000C330B92171306B6
:1015600079F090918A0392FF0BC0859585958595BA
:101570000E948F0A10922B0310922A0310922903C3
:10158000089521E030E002C0220F331F8A95E2F770
:101590008091870390918803822B932B0E948A0A63
:1015A000089590938603809385030895FC018381B9
:1015B0009481892B29F08081918189238F3FF1F4D7
:1015C00080E008950E94040892959F70963089F0FB
:1015D00058F4925F9F70923098F7803F19F030F482
:1015E000883E70F781E008959A5FF4CF843F41F719
:1015F000F9CF883EB8F3813F19F7F4CF8681978100
:10160000009701F7808191810E94140ADDCFCF936A
:10161000DF93C82F662309F469C08091AC039091D1
:10162000AD03892B31F40E947E059093AD03809326
:10163000AC03CD3C51F40E94F90681958093B70329
:101640000E944306DF91CF910895CE3C19F40E9489
:10165000F906F4CFCF3C31F40E94F90681958093CE
:10166000B603EECFC03D19F40E94F906F8CFC93D8C
:1016700029F40E946A068093B803E2CFCA3D21F4A0
:101680000E946A068195F7CFCB3D31F40E946A062D
:1016900081958093B903D4CFCC3D19F40E946A069A
:1016A000F8CF8FE28C0F883070F4C15DDD0B21E044
:1016B00030E001C0220FCA95EAF78091B503822B72
:1016C0008093B503BDCF8091AF038160CD3D59F0CC
:1016D0008091AF038260CE3D31F0CF3D09F0B0CFB5
:1016E0008091AF0384608093AF03AACF4091B6038B
:1016F0008D3C79F48091B70387FF11C01092B70336
:1017000041110FC01092AB031092AD031092AC03C5
:1017100008C08E3C81F48091B70318167CF34423F3
:1017200081F08091B8039091B903892B09F088CF9B
:101730001092AE0385CF8F3C49F447FFF0CF109253
:10174000B6038091B7038111ECCFDCCF803D19F453
:101750001416ACF3E4CF8091B803C93D29F41816F0
:10176000F4F61092B803DBCFCA3D19F487FFD7CF48
:10177000F8CF8091B903CB3D29F487FFD0CF1092E9
:10178000B903CDCFCC3D19F41816CCF3C8CF8FE2F6
:101790008C0F883078F4C15DDD0B81E090E001C0F2
:1017A000880FCA95EAF780959091B50389238093B5
:1017B000B503B5CF8091AF038E7FCD3D59F08091B9
:1017C000AF038D7FCE3D31F0CF3D09F0A8CF8091A2
:1017D000AF038B7F8093AF03A2CFCF92DF92EF92C4
:1017E000FF92C72ED82EE92EFF2420E0C114D10489
:1017F000E104F10419F0C701B60128E06B017C0196
:1018000054E0F694E794D794C7945A95D1F7C1144D
:10181000D104E104F10419F02C5FC701B6016B019A
:101820007C0142E0F694E794D794C7944A95D1F7A7
:10183000C114D104E104F10419F02E5FC701B6010F
:101840009695879577956795672B682B692B09F097
:101850002F5F822FFF90EF90DF90CF900895A5E04B
:10186000B0E0E5E3FCE00C94E22D9C01FC018681F4
:1018700097810097E1F485E0DE01119601900D92C9
:101880008A95E1F7F901228189819A81222399F0D1
:10189000662389F00E94E009182F682F89819A81B8
:1018A0000E94540A69817A81812F0E94E707259658
:1018B000E3E00C94FE2D0E94210A182FF3CF9C0127
:1018C0009A9581159F4150F4832F817031FD82607C
:1018D00032FD846033FF03C08860089580E008957E
:1018E0000F931F93CF93DF9301E010E0082E02C007
:1018F000000F111F0A94E2F7C0914103D0914203F7
:101900009E0120233123232B21F590912B039595C4
:1019100095959595891306C010922B0310922A0372
:10192000109229030E94C10A0E94720560933D0330
:1019300070933E0380933F0390934003C027D127C9
:10194000D0934203C0934103DF91CF911F910F9138
:1019500008950E948F0AF2CF0F931F93CF93DF93C6
:101960008C01EB0180915704843069F581E080930C
:10197000E9008FEF9091E800815095FD06C095ED4C
:101980009A95F1F700008111F5CF8091E80085FF6D
:101990001AC00E942504811111C08091E80085FDC4
:1019A00006C08091E8008E778093E800F2CFF801BE
:1019B00081918F018093F100219779F78091E80060
:1019C0008E778093E800DF91CF911F910F9108955A
:1019D00063E070E00E94AC0C089566E070E00E9445
:1019E000AC0C0895CF93DF93EC01809152028111EA
:1019F00011C068E070E0CE0101960E94AC0C89E055
:101A0000FE01ADE3B4E001900D928A95E1F7DF911C
:101A1000CF91089569E070E0CE01EFCFB0E0A0E093
:101A2000E4E1FDE00C94DB2D7C015B016A01809117
:101A3000720301E010E08A3010F40AE010E0C1E027
:101A4000D0E0B501C701F6010995811104C02196C6
:101A50000C171D072CF4CDB7DEB7EAE00C94F72D78
:101A6000CC9F9001CD9F300D300D112490E080E08F
:101A700045E34A95F1F70000019682179307C1F7F5
:101A8000E0CF80915403811110C08091D800806113
:101A90008093D8008AE18A95F1F700C08091D9003F
:101AA00080FF0AC081E08093540381E09091540349
:101AB000913009F080E0089582E0809354030E9401
:101AC000060410925704F1CF0E94410D882359F06B
:101AD000E0913104F0913204309729F00190F081C7
:101AE000E02D0995089580E008958091BA039091C2
:101AF000C003892B8093AF0280913703882319F1AB
:101B00000E947E052091350330913603821B930B92
:101B1000883E934010F00E9496098091AF02909108
:101B20003703892B8093AF0220E081EB92E0FC0128
:101B30003191CF0131112F5FF2E0873B9F07B9F759
:101B400021110E94960949E050E06CE273E08EEAB0
:101B500092E00E94B130892BC1F089E0EEEAF2E018
:101B6000ACE2B3E001900D928A95E1F7E091310487
:101B7000F0913204309749F081E08093AE02028008
:101B8000F381E02D8EEA92E009950895882341F0D3
:101B900080959091C00389238093C0030E94750DA6
:101BA00008958091BD03882329F082E20E94C60D2A
:101BB0001092BD030895882321F00E94C9090E9454
:101BC000750D0895882321F00E94CF090E94750D9C
:101BD0000895882339F09091BA03982B9093BA0313
:101BE0000E94750D08958823D1F19CEF980F913ACA
:101BF00078F4E1EBF2E09191891303C0DF011197D2
:101C00001C9292E0E73BF907B1F70E94750D089529
:101C100090E2980F983050F4877091E001C0990FCE
:101C20008A95EAF7892F0E94CF09EFCF9BE5980F9D
:101C3000933028F490E080E00E94C905089598E56B
:101C4000980F993128F490E080E00E94A40508954F
:101C500093E3980F933118F460E00E94070B089506
:101C6000CF93DF93EC010E94F30DCE010E945F0C35
:101C7000C05ED109289728F40E94E20DDF91CF9130
:101C800008950E94C60DFACFCF93C82F8823A9F0DC
:101C90008CEF8C0F813A00F5E1EBF2E0DF018D91E2
:101CA000C81769F082E0A73BB807C9F76C2F8EEA26
:101CB00092E00E948A050E94750DCF91089581914E
:101CC000C81303C0DF0111971C9282E0E73BF807BD
:101CD000B1F70E94750DEACF80E28C0F883068F46E
:101CE000C77021E030E001C0220FCA95EAF7809169
:101CF000BA03822B8093BA03DECFEBE5EC0FE3301F
:101D000040F4F0E0ED5AFD4F808190E00E94C9055B
:101D1000D4CFE8E5EC0FE93150F4F0E0EE0FFF1F0F
:101D2000EA5AFD4F808191810E94A405C6CF83E3CA
:101D30008C0F833110F661E08C2F0E94070BBDCF12
:101D40001F93CF93DF93182FEB010E94440E20972F
:101D500039F4812F0E94F30DDF91CF911F910895E7
:101D60008FE99FE00197F1F700C000002197EFCFC6
:101D700070E060E0893311F460E570E00E94A00E2D
:101D80000895B0E0A0E0E7ECFEE00C94DB2DEC0160
:101D90008AE0A82EFE012491222309F497C0213065
:101DA00009F03EC031968491813031F42296FE01D3
:101DB00084910E94B80E07C0823039F42296FE0149
:101DC00084910E94440E2196E5CF833031F422960F
:101DD000FE0184910E94F30DF6CF843009F074C0A7
:101DE0002296FE01249190E080E0FE01319620537E
:101DF000330B2A30310548F0019728F3EFE9FFE073
:101E00003197F1F700C00000F7CFA89EA001A99E6E
:101E1000500D1124C901840F951F2491EF01E5CFC6
:101E2000E22FF0E0E25BF84FB490822F8695869522
:101E3000869590E0FC01E25CF84FE4902770F12C6D
:101E4000022E02C0F594E7940A94E2F731E0E3220F
:101E5000FF24FC01E25DF84FC490D12C022E02C099
:101E6000D594C7940A94E2F7E1E0CE22DD24FC0188
:101E7000E25EF84F049110E002C0159507952A958F
:101E8000E2F701701127E114F10419F081EE0E94CC
:101E9000440EC114D10419F086EE0E94440E8B2D1D
:101EA0000E94B80EC114D10419F086EE0E94F30D01
:101EB000E114F10419F081EE0E94F30D01151105F2
:101EC00009F481CF8CE275CFEF017DCFCDB7DEB7BE
:101ED000EAE00C94F72DCF93DF93EC010E945F0CA6
:101EE0009E01205E31092830310540F40E94E90D41
:101EF0008C2F0E94440EDF91CF9108950E94DB0D3C
:101F0000F7CF0F931F93CF93DF938C01D0E0C0E006
:101F1000C99711F4C0E5D0E0C8010E946B0F20976B
:101F200041F4C8010E94300EDF91CF911F910F91B3
:101F300008958FE99FE00197F1F700C00000219715
:101F4000EECFCF93DF93D82FC62F0E947E0520912E
:101F5000B7023091B802821B930BC29708F45DC0A0
:101F60000E947E059093B8028093B702D1118FC072
:101F7000609187037091880390E080E00E94ED0BF0
:101F80008230B1F0843071F1D0914503C11167C046
:101F90000E947E059093440380934303D11106C0B1
:101FA00080EE0E94440E81E0809345038BE233C0B3
:101FB000D091BA038D2F8272A1F18D2F0E94E20D74
:101FC0002FEF81EE94E0215080409040E1F700C077
:101FD00000008EEBC11101C08DEB0E94B80E8D2F59
:101FE0000E94E90DD0914803C11123C00E947E05D3
:101FF0009093470380934603D1110CC083EE0E9457
:10200000440E8BE20E94440E8BE20E94F30D81E0AD
:10201000809348038FE40E94B80E80E0DF91CF9157
:1020200008958D2F0E94E20D8AEAC111D6CF89EA68
:10203000D4CF0E947E059093470380934603D1112D
:102040000CC083EE0E94440E8BE20E94440E8BE291
:102050000E94F30D81E08093480380E5DCCF0E946D
:102060007E059093440380934303D11106C080EE14
:102070000E94440E81E08093450381EE0E94440E4D
:102080008BE20E94B80E81EE0E94F30DC6CFD130D4
:1020900021F6609187037091880390E080E00E94B0
:1020A000ED0B833069F0843091F08230B9F486E52D
:1020B00098E0CC2311F087E598E00E94810FADCF26
:1020C0008DE198E0CC23C9F38DE19AE0F6CF8BED5A
:1020D00090E0CC2391F38CED90E0EFCF89ED90E090
:1020E000CC2359F38AED90E0E8CF90918A0392FBDC
:1020F000222720F9281779F080FB92F990938A0320
:102100006091890370918A0384E090E00E94642EBC
:1021100082E00E94A10A0895CF931092BA03C6E00C
:10212000E1EBF2E0DF018C2F1D928A95E9F790E058
:1021300080E00E94C90590E080E00E94A405109212
:10214000C0030E94750DE4EBF3E0DF011D92CA9518
:10215000E9F71092AB031092AE031092AF030E9406
:102160004306CF910895AAE2B0E0E9EBF0E10C94C8
:10217000E22D8FE494E02091F100FC012193CF0146
:10218000F4E087359F07B9F780915004833009F454
:1021900070C0B8F4813009F447C0823009F4B1C08E
:1021A0008091E80083FF39C180914F0490915004E1
:1021B0009A3008F032C1E92FF0E0E753FF4C0C945D
:1021C000322E8A3009F48CC08B3009F46FC089300C
:1021D00039F780914F04813219F78091530490911F
:1021E0005404892BE9F68091E800877F8093E8000A
:1021F0008091E80082FF38C09091F3008091F20056
:10220000029731F48091F100813011F0863021F491
:102210008091F10080933C048091E8008B7780935B
:10222000E8000E945604BCCF80914F04813A09F027
:10223000B7CF8091E800877F8093E80080915304B6
:1022400090915404892B61F469E08DE394E070E08F
:102250000E9402058091E8008B778093E800A0CF70
:1022600060E090E080E0F3CF809157048111C0CF0F
:1022700097CF80914F04813A09F092CF8091530417
:1022800090915404892B09F08BCF8091E800877FCF
:102290008093E8008091E80080FFFCCF809152029B
:1022A0008093F1008091E8008E77B9CF80914F0440
:1022B000813209F075CF8091530490915404892B99
:1022C00009F06ECF8091E800877F8093E8000E943C
:1022D000560480915104809352020E948C1060CF6A
:1022E00080914F04813209F05BCF8091E800877FB5
:1022F0008093E8000E9456048091520480933B042E
:102300004FCF80914F04813A09F04ACF8091E80085
:10231000877F8093E8008091E80080FFFCCF809168
:102320003B04BECF803899F0823809F076C08091A6
:1023300053048F70873008F070C08093E90080915B
:10234000EB0085FB882780F91092E90006C0809198
:10235000460490914704911182609091E800977F24
:102360009093E8008093F1001092F1008091E800D2
:102370008E77B6C1882309F4A3C1823009F04DC01D
:10238000809151048111A7C1809153048F702FEF68
:10239000280F263008F041C08093E9002091EB001F
:1023A00020FF99C1933031F48091EB0080628093DB
:1023B000EB0091C19091EB0090619093EB0021E0D4
:1023C00030E001C0220F8A95EAF72093EA001092CC
:1023D000EA008091EB008860EACF81111EC0109165
:1023E00051041F778091E3008078812B8093E30074
:1023F0008091E800877F8093E8000E9456048091D6
:10240000E80080FFFCCF8091E30080688093E300C8
:1024100082E0111183E0809357048091E80083FFEC
:102420000AC08091E800877F8093E8008091EB00EC
:1024300080628093EB00AA96E3E00C94FE2D805816
:10244000823058F780915104909152048C3D23E0E2
:102450009207A1F583E08A838AE289834FB7F894D3
:10246000DE01139620E03EE051E2E32FF0E05093CE
:102470005700E49120FF03C0E295EF703F5FEF70DB
:102480008E2F90E0EA30C0F0C7968D939D932F5F1A
:10249000243159F74FBF8091E800877F8093E8008F
:1024A0006AE270E0CE0101960E9402058091E80088
:1024B0008B778093E800B1CFC096E7CF409153046B
:1024C00050915404292F33272330310509F440C09B
:1024D00078F52130310509F48EC082E290E0EEEA11
:1024E000F6E02230310509F098CF2091E800277FEF
:1024F0002093E800209155043091560482179307E9
:1025000008F49C0140E02115310509F079C0411122
:1025100077C08091E80082FDC9CF8091570488235D
:1025200029F2853019F28091E80083FFF2CFBECF07
:102530002132310509F457C02232310509F06DCF3F
:10254000452B09F06ACF8DEB90E0E1EFF5E0CDCFC0
:102550002091550430915604409148044F5F4093B8
:10256000480430934D0420934C0422303105B1F4DB
:10257000209149042F5F20934904992781309105C8
:1025800051F10097E9F0029709F047CFE2EEF6E04B
:10259000E4918E2F90E0E2EEF6E019C02430310590
:1025A00031F420914A042F5F20934A04E6CF2F3F55
:1025B000310519F720914B042F5F20934B04DDCF99
:1025C000EAE1F7E0E4918E2F90E0EAE1F7E000978E
:1025D00009F08BCF22CFE2EFF6E0E4918E2F90E06E
:1025E000E2EFF6E0F4CF452B09F017CF89E090E059
:1025F000E0ECF6E07ACF82E190E0E0EDF6E075CF36
:1026000080915704882309F451CF853009F44ECFC7
:102610008091E80083FD4ACF8091E80082FD79CF68
:102620008091E80080FF6FCF9091F3008091F200DD
:102630002115310519F08830910550F041E00897D7
:1026400009F040E08091E8008E778093E8005BCF4E
:1026500044914093F1003196215031090196E8CF21
:10266000803809F0DACE8091E800877F8093E80017
:1026700080914E048093F10079CE8111CECE1091DD
:102680005104123008F0C9CE8091E800877F809312
:10269000E80010934E040E945604112311F084E0C8
:1026A00005C08091E30087FDFACF81E08093570455
:1026B00042E261EC81E00E94750480915704ADCE46
:1026C00080915104813009F0A8CE81E0933009F067
:1026D00080E0809347041092E9008091E800877FB2
:1026E0008093E8000E94560498CE0E948C102FEF31
:1026F00084E39CE0215080409040E1F700C000005E
:1027000087E797E7909301088093000888E19AE0B3
:102710000FB6F894A895809360000FBE9093600068
:10272000FFCFCF93DF93EC018832910548F4FC0191
:10273000ED52FF4C0C94322E86E493E0611107C0F9
:10274000DF91CF9108956623D9F38EE293E00E9442
:10275000C10EF6CF89E193E0662391F3F8CF82E0D2
:1027600093E0662369F3F3CF8AEE92E0662341F3A8
:10277000EECF85ED92E0662319F3E9CF662301F3EE
:102780008CEC92E00E94C10EC8E0D0E080E590E0C1
:102790000E94810F2197D1F7D3CF662389F280EC75
:1027A00092E00E94C10EC6E0D0E080E590E00E9479
:1027B000810F2197D1F7C4CF662309F4C1CF88EBED
:1027C00092E00E94C10E80E590E00E94810F80E5BA
:1027D00090E00E94810F80E590E00E94810F80E5EB
:1027E00090E00E94810FACCF662309F4A9CF88EA5C
:1027F00092E00E94C10E80E590E00E94810F219737
:10280000D1F79ECF662309F49BCF88E992E00E941E
:10281000C10EC8E0D0E080E590E00E94810F2197D2
:10282000D1F78ECF662309F48BCF80E892E00E9427
:10283000C10EC7E0D0E080E590E00E94810F2197B3
:10284000D1F77ECF662309F47BCF82E792E00E9426
:10285000C10EC7E0D0E080E590E00E94810F219793
:10286000D1F76ECF662309F46BCF84E692E00E9425
:10287000C10EC7E0D0E080E590E00E94810F219773
:10288000D1F75ECF662309F45BCF82E592E00E9428
:10289000C10EC9E0D0E080E590E00E94810F219751
:1028A000D1F74ECF662309F44BCF8EE192E00E9420
:1028B000C10E8AE490E00E94810FCAE0D0E08FE46C
:1028C00090E00E94810F2197D1F73ACF662309F457
:1028D00037CF84EB91E00E94C10E8AE490E00E9421
:1028E000810FCBE0D0E08FE490E00E94810F219730
:1028F000D1F726CF662309F423CF88EA91E00E941E
:10290000C10E89E290E00E94810FC9E0D0E080E52D
:1029100090E00E94810F2197D1F787E098E00E9414
:10292000810F87E098E00E94810F8AE290E059CF02
:10293000662309F405CF83EE0E94440E8DE10E94C8
:10294000440E83EE0E94F30D8DE10E94F30DF8CE4C
:10295000662309F4F5CE83EE0E94440E81EE0E94B8
:10296000440E8DE10E94440E83EE0E94F30D81EE31
:10297000E9CF662309F4E4CE83EE0E94440E8BE196
:102980000E94440E83EE0E94F30D8BE1DECF66239E
:1029900009F4D6CE83EE0E94440E86E00E94440ED7
:1029A00083EE0E94F30D86E0D0CF662309F4C8CEF3
:1029B00083EE0E94440E89E10E94440E83EE0E9441
:1029C000F30D89E1C2CF662309F4BACE82EE0E94EC
:1029D000440E81EE0E94440E83EE0E94440E8CE26F
:1029E0000E94440E83EE0E94F30D81EE0E94F30DCF
:1029F00083EE0E94F30D8CE2A8CF662309F4A0CEEB
:102A000081EE0E94440E83EE0E94440E89E10E94F2
:102A1000440E81EE0E94F30D83EE0E94F30D89E1D6
:102A20000E94F30D89E193E0DCCE662309F488CEA1
:102A300083EE0E94440E84E00E94440E83EE0E94C6
:102A4000F30D84E082CF88E392E0662309F478CE28
:102A5000C8CE8EE192E0662309F472CEC2CE84E342
:102A600092E0662309F46CCEBCCE8DE292E0662340
:102A700009F466CEB6CE86E590E0662309F460CE12
:102A8000B0CE8EE290E0662309F45ACEAACE8FE152
:102A900092E0662309F454CEA4CE662309F450CE06
:102AA000D091BA03C09137031092BA030E949609DD
:102AB000CD2BC27286EA91E011F484EA91E00E9483
:102AC000C10ED093BA033CCE662309F439CE80916F
:102AD00087039091880324E082270E948A0A30CEDF
:102AE00086EA90E0662309F42BCE7BCE662309F4B8
:102AF00027CE0E94751383E590E0662309F420CE6B
:102B000070CE662309F41CCE85E490E06ACE66237D
:102B100009F416CE0E94A10913CE0E948C102FEF4B
:102B200084E39CE0215080409040E1F700C0000029
:102B300088E19AE00FB6F894A895809360000FBEE4
:102B400090936000FFCFB0E0A0E0E9EAF5E10C94DB
:102B5000DC2D8C01FC0183819481892B31F08081F3
:102B6000918189238F3F09F002C7CDB7DEB7E9E035
:102B70000C94F82D80E02FC7C034F2E5DF07C8F5CC
:102B8000C03222E5D207D0F5CE0190548115904194
:102B900008F44CC0CE018B7F813E910509F4A2C0A0
:102BA000C830FEE7DF0709F080C0F8018281882382
:102BB00009F47BC0C091BA03809137038C2B8272D9
:102BC00009F04FC082EE0E94440E8091B90281113B
:102BD00006C08FE40E94B80E80E50E94B80E81EE18
:102BE0000E94440E8FE40E94440E82E08093B9025A
:102BF0000EC7CE01805C9245809760F681E090E040
:102C00000C2E02C0880F991F0A94E2F7209141030D
:102C10003091420382239323892B09F4BBCFF8011F
:102C20008281882309F4F3C68C2FEFC6F8018581D1
:102C3000807F09F0AFCF82818111ACCF2D2F2F7013
:102C400081E090E002C0880F991F2A95E2F7209159
:102C500041033091420382239323892B09F49ACFB5
:102C6000D6C68091B90281111BC01092BA030E948E
:102C7000960984E091E00E946B0F84E091E00E944D
:102C8000300E8DE492E00E94810F8AE40E94B80E1B
:102C90008DE492E00E94810FC093BA0383E0A6CF37
:102CA00081E50E94440E84E0A1CF8091B902823078
:102CB00069F030F4813009F43FC01092B90212C0BB
:102CC000833069F08430C9F781E507C08FE40E9442
:102CD000F30D81EE0E94F30D82EE0E94F30D81E070
:102CE0008093B902F801C280C11051C0E090BA03CC
:102CF000F0903703CA30FEE7DF0709F496C130F5DC
:102D0000C33731E2D30709F4FDC1C9308EE7D807D4
:102D100009F473C1C337FCE7DF0709F002C2F80109
:102D20008281882309F473C68091BD03882309F446
:102D3000F5C10E94D10D6BC6C932D10509F0BDCFD6
:102D40008FE40E94B80E1092B90261C6CC309EE7A3
:102D5000D90709F4BEC108F47BC1CD30FEE7DF0717
:102D6000C9F6F8018281882309F451C60E947E05C4
:102D70009093470380934603809148038111BEC11D
:102D800083EE0E94440E81E080934803B7C1B09067
:102D9000BA038B2D8D7D09F0A9CF40914B03509143
:102DA0004C0360914D0370914E032FB7F8948091BE
:102DB000360490913704A0913804B09139042FBFA4
:102DC000841B950BA60BB70B7E018E359140A10598
:102DD000B105D8F4FF248091490390914A038331CF
:102DE000910509F4A5C008F04CC08730910509F49D
:102DF000EDC0F8F48530910509F4BCC008F08FC02F
:102E0000892B09F478C0B092BA03B092BA02F0925A
:102E10004A03E09249030E94720560934B0370934A
:102E20004C0380934D0390934E03CC2009F4EFC5DF
:102E30005DCF8930910509F484C008F489C08D30D4
:102E4000910509F463C00F97F1F68091BD033DE051
:102E5000E316F10409F051C02EE0D22EC090BD035C
:102E6000CC2009F4BDC082E00E94C90980E00E9424
:102E7000B80E82E00E94C9098D2D0E94B80EC12CA7
:102E8000C4CF8E32910509F489C0A0F48831910530
:102E900009F492C08A31910509F463C0469709F09C
:102EA000B2CF8091BD03E9E1EE16F10431F586E081
:102EB000D82ED4CF8535910509F477C060F48435D8
:102EC000910509F0A0CF8091BD03E7E2EE16F10471
:102ED00009F461C012C08635910509F455C08735E3
:102EE000910509F090CF8091BD0397E2E916F104B6
:102EF00009F451C002C08091BD03882319F082E01B
:102F00000E94C90980E00E94B80E7DCF8091BD0368
:102F10009FE0E916F10489F798E1D92E9FCF8091BF
:102F2000BD03FBE1EF16F10441F7A6E1DA2E96CFDF
:102F30008091BD0329E0E216F104F9F6B7E1DB2E3A
:102F40008DCF8091BD033AE1E316F10471F3D5CF43
:102F50008091BD0398E3E916F10479F6F6E3DF2EDC
:102F60007DCF8091BD03E3E1EE16F10431F6E5E19A
:102F7000DE2E74CF8091BD03FAE1EF16F10409F063
:102F8000BCCF77E0D72E6ACF8091BD0327E2E2164F
:102F9000F10409F0B2CF6CE2D62E60CF8091BD0370
:102FA00037E2E316F104B9F3A8CF8091BD03F7E24D
:102FB000EF16F10481F3A1CF8091BD032CE1E2165D
:102FC000F10409F09ACF58E0D52E48CF8091BD0387
:102FD0003BE1E316F10409F090CF4AE0D42E3ECF56
:102FE0008091BA028093BA0380E00E94B80E1092DA
:102FF000BA038D2D0E94B80E08CFF8018281882374
:1030000009F405C51092BA030E9496098F2D8E29E6
:10301000827241F086E993E00E94C10E80E50E9431
:10302000B80E40C083E993E0F7CFF801828188238E
:1030300009F4EDC41092BA030E9496098F2D8E29CF
:10304000827219F080E993E0E7CF8DE893E0E4CF56
:10305000F8018281882309F4DAC48F2D8E298272C7
:1030600039F182E20E94CF098F2D827261F08F2D9B
:103070008D7D809337038823C1F00E947E05909355
:103080003603809335038DE593E00E94C10EC9E1BC
:10309000D0E080E50E94B80E2197D9F780E596E050
:1030A0000E94810FE092BA03B2C490E080E0E7CFC3
:1030B00086E593E00E94C10E80E50E94B80E80E58F
:1030C0000E94B80E80E50E94B80E80E50E94B80EFE
:1030D000A5CFF8018281882309F499C40E947E0556
:1030E000909344038093430380914503811106C06C
:1030F00080EE0E94440E81E0809345038BE20E94A3
:10310000B80E85C4F8018581807F59F082818823BB
:1031100009F47DC482E00E94B50979C40E94A10926
:1031200076C4FE288091BD0381114EC0F2E2FF12E9
:1031300002C00E94A109F8018281882329F1C13EC1
:10314000D10521F0C23AF2E5DF07D9F58091BD0241
:10315000882371F0F801838194812091BB02309122
:10316000BC02821B930B8F3F9F4710F00E94A10966
:1031700081E08093BD02F8018381948188539F4F41
:103180009093BC028093BB02F8018281882309F4EA
:1031900053C1CE019057839708F04BC484E090E070
:1031A0000E94402E90938A0380938903FE01E15090
:1031B000F047E232F10508F082C0E550FF4C0C9474
:1031C000322E1092BD02E0CF0E947E0588579C4EA1
:1031D0009093BC038093BB03F80182818823A1F202
:1031E000FF2DFD79FF2E09F04FC0C03422E5D20734
:1031F00058F5C11532E5D30738F6C11580E4D80774
:1032000050F4C11590E2D907A0F5C63ED10509F4E6
:10321000BBCFCE010BC0C115E0E5DE07D0F7F8014A
:103220008581807F09F4B0CFCE0199271092C00329
:1032300088329105A0F58E319105B8F5049720F1FB
:1032400082E00E94C90931C0C43BF2E5DF0709F4FE
:103250009BCFCE01C53B22E5D20730F48056924584
:1032600080349105B0F690CF805C9245809788F6C7
:103270008BCFF8018581807FB9F68D2F8F718231D8
:1032800059F028F4823041F00E94D10D7DCF843175
:1032900009F47ACF8631C1F71092C003F5CF8D3291
:1032A000910571F228F48A9779F70E94750D6CCF19
:1032B0008C349105D1F38D329240B9F3E5CF8091F2
:1032C000890381608093890395C080918A03886017
:1032D00080938A038FC0809189038260F3CF8091AD
:1032E00089038460EFCF809189038860EBCF809160
:1032F0008A038160EDCF80918A038260E9CF80915B
:1033000089038061DFCF809189038062DBCF809168
:1033100089038064D7CF0E948C10809189038068D4
:10332000D1CF809189038C60CDCF80918A03836057
:10333000CFCF809189038E7FC5CF80918A03877F0D
:10334000C7CF809189038D7FBDCF809189038B7F0B
:10335000B9CF80918903877FB5CF80918A038E7F13
:10336000B7CF80918A038D7FB3CF809189038F7E01
:10337000A9CF809189038F7DA5CF809189038F7B11
:10338000A1CF0E948C10809189038F779BCF809171
:103390008903837F97CF80918A038C7F99CF809117
:1033A000890382FB992790F921E0922790FB82F90B
:1033B00090FB83F987CF80918A03982F9095917025
:1033C0008E7F892B90FB81F983CF90918903892F80
:1033D0008F7B96FF806476CF0E948C10909189033A
:1033E000892F97FB87F980586DCF61E08EE090E0E0
:1033F0000E94462E6091890370918A0384E090E0D8
:103400000E94642E0E948C1002C360E0EFCF909166
:103410008903892F8F7E94FF806154CF9091890317
:10342000892F8E7F90FF81604DCF90918A03892FE5
:10343000877F93FF88604CCFC631DC4729F58091A8
:10344000BE0281110FC089E2E1EBF2E027EB32E02E
:103450009191891303C0DF0111971C922E173F072A
:10346000B9F7FBC285E3F0CFC3302CE7D20709F4EC
:1034700056C008F044C0C1158CE7D80709F44DC008
:10348000C130DC4709F451C0F8018681978100976B
:1034900009F459C00E940408D82FC92FF801F280FE
:1034A000D580D2943FE0D32280912B038770C1F066
:1034B000CF2CFF20B1F0892F807F803421F080E273
:1034C0008D0F883068F080918A0382FF09C082E006
:1034D0000E94A10A80912B038770CC24C394811190
:1034E000C12CBC2EB2942FE0B222FBE0FB1508F4F5
:1034F0009FC0EB2DF0E0E35EFE4C0C94322ECB35FA
:10350000ECE7DE07F1F0CC35FCE7DF0781F0CA35E8
:10351000DC4709F0B9CF81E011C00E9475136FEF4D
:103520007FEF90E080E00E94642E0E948D158091D4
:103530008A0382FB882780F991E089270E94751011
:10354000A3CF80E0FBCF8281C081D181882369F045
:10355000CE010E94E009F82E682FCE010E94540A85
:10356000BE018F2D0E94E70795CFCE010E94210A50
:10357000F82EF6CF2C2F2F70E22EC07F19F0E29498
:1035800090EFE922FF20A9F0EE2069F080E28D0F94
:10359000883010F0D11109C08091BA03E82AE09276
:1035A000BA030E94750D8D2F41C08E2D0E94C9094E
:1035B000F8CF8D2F0E94F30DEE20D1F180E28D0F18
:1035C000883010F0D11104C08E2D0E94CF0906C0A2
:1035D000E0948091C003E822E092C0030E94750D40
:1035E00027C03C2F3F70E32EC07FC03219F0E29419
:1035F00080EFE822DD2351F0D13009F465C0FF20CF
:1036000009F46FC0DD2009F465C0CDCF80918A0335
:1036100082FD38C0FF2081F1EE2039F08091BA039D
:10362000E82AE092BA030E94750D80E00E94440EE1
:103630002B2D2850330B2430310510F40E94640DDB
:10364000CC20A9F080912B0380FD11C0F8011282DB
:103650008595859585950E94C10AC8010E94A3158C
:1036600080912B038595859585950E948F0A60E052
:10367000C8010E942F0C79CA80E00E94F30DEE2051
:10368000B9F2A2CFFF2071F0809137038E29D110BB
:1036900003C00E94E90DCCCF91E0D912FACF0E946D
:1036A000B509C6CFD11006C00E9496098E2D0E9482
:1036B000E20DBECFE1E0DE1609F4BACF8E2D0E94F6
:1036C000E20D0E949609B4CFFF2031F0F5E0FD1520
:1036D00008F4AECF8E2DDDCF24E02D1508F4A8CF51
:1036E000E5CFDD2019F3D93349F43FEF87EE93E0BE
:1036F000315080409040E1F700C000008D2F0E94C3
:10370000F30D96CF8C2F86958695837069F0813066
:1037100009F08ECF8D2F9C2F9370F11002C080E0A6
:1037200090E00E94A40584CF8D2F9C2F9370F11000
:1037300002C080E090E00E94C9057ACF6F2D8D2FE6
:103740000E94070B75CF8C2F837009F03FC0F110DA
:103750006FCF4D2F429546954770440F440F2D2F44
:103760002F7030E0042E02C0220F331F0A94E2F7BC
:1037700090E080E0D4FF09C08FE090E002C0880FA5
:10378000991F4A95E2F780959095C695C695C370A6
:10379000C23099F078F44091850350918603C1308E
:1037A00039F0822B932B842395230E94D10A40CF9A
:1037B000242B352B822B932BF8CF822B932B20910C
:1037C00085033091860382279327EFCF8695FF20CC
:1037D00011F08C2F8170882309F42ACF4D2F429548
:1037E00046954770440F440F2D2F2F7030E0042E64
:1037F00002C0220F331F0A94E2F790E080E0D4FF6A
:1038000009C08FE090E002C0880F991F4A95E2F747
:1038100080959095C695C695C370C23099F078F49E
:103820004091870350918803C13039F0822B932B4C
:10383000842395230E948A0AFBCE242B352B822BCE
:10384000932BF8CF822B932B209187033091880301
:1038500082279327EFCFCF70FF2029F08C2F0E9473
:10386000C10A8D2F16CF8D2F0E94E20D8C2F0E9442
:103870008F0ADECED23F71F160F4D03FB9F0D13F74
:1038800081F0FF2009F463C0D1108DCE8C2F8F7191
:1038900025C0D33F31F1D43FA1F780918A0382FD47
:1038A0002EC08C2F8F71FF2011F318C0FF2069F0FC
:1038B000E4E0ED1508F4BCCECF7181E090E002C0E9
:1038C000880F991FCA95E2F7BFCFF5E0FD1508F400
:1038D000AFCEF2CF8C2F8F71F110C9CF0E94C10AE9
:1038E000A7CE90E080E0FF2009F4A4CFCF7181E063
:1038F00090E002C0880F991FCA95E2F79BCFFF2086
:10390000D9F0CF718C2F0E94C10A80918A0382FF67
:1039100011C028E0C29FC0011124836080932B0353
:103920008C2F0E94C10A0E947E0590932A038093E7
:1039300029037ECE8C2FD2CF81E00E94A10A31E0F4
:103940003D1508F075CE82E00E94A10A71CEDD20FF
:1039500059F0D93309F0D2CE8FEF97EEE3E08150E2
:103960009040E040E1F7C8CE8C2F8F7180CF61E0AE
:10397000C8010E942F0CEC010E94720560933D0368
:1039800070933E0380933F039093400320918703FD
:10399000309188038091410390914203A9014095A1
:1039A000509548235923452B31F08223932390933C
:1039B000420380934103CE30FEE7DF0709F0DCC805
:1039C000F8018281882319F1832F9927009709F440
:1039D000D1C89C0188E0A90174E0569547957A9575
:1039E000E1F74115510511F08C5F9A01A901569537
:1039F0004795569547954115510511F08E5F9A01EF
:103A000036952795232B09F08F5F0E94700C8091CB
:103A10002B03877009F4A9C8F8018281882309F46F
:103A2000A4C880918A0382FFA0C882E00E94A10AF4
:103A30009CC8C631FCE7DF0709F016CD8091BA03B8
:103A40008A7A91E009F490E09093BE0269E28111D4
:103A500065E38EEA92E00E948A050E94750DD7CF39
:103A6000CF93DF938091E402807F09F049C0809179
:103A7000E102882309F444C080912803D091E70231
:103A80006091DF027091E002A091E202B091E30246
:103A9000C62FC723D817A1F190E0109711F0CF3FA0
:103AA00019F401968770F6CF9C0143E0220F331F73
:103AB0004A95E1F7F901E851FD4F41814713F1CFF4
:103AC00040814613EECF42814111EBCF43815481B7
:103AD0004A1B5B0B483C510520F78091E4028F7034
:103AE00080618093E402F901E351FD4F80818F7082
:103AF000806180838FED92E00E94A3150E94D60919
:103B0000DF91CF910895A5E1B0E0E9E8FDE10C94E3
:103B1000DB2D8C0185E0F801DE01519601900D92BC
:103B20008A95E1F7F801E2806FEDA62E62E0B62EED
:103B30006091E2027091E3026115710509F44BC1D5
:103B40009091DF024091E002892F84238F3F09F496
:103B500042C120813181C380D480F090E102F6011E
:103B6000E61BF70BFF2009F411C18091E402582FE6
:103B7000507FE83CF10508F0C4C0511175C0FE2C1F
:103B800043131EC092131CC06091E5027091E602BF
:103B9000F801468157816417750791F4E11010C050
:103BA0008F7080618093E402C5010E94A31580910B
:103BB000E402F80185838F2D6596EAE00C94F72DD9
:103BC000C114D10429F0822F83238F3F09F01EC135
:103BD00080E0F82FF170DF2E80FF3CC08091280339
:103BE0004091E702841315C0298B3A8B89899A8901
:103BF0000E94140A292F22952F702230F8F02430C9
:103C000020F59F70F9F0F8019581907FD9F4D12CBF
:103C10001FC090E0FC0153E0EE0FFF1F5A95E1F743
:103C2000E851FD4F5181351306C05081251303C063
:103C30005281E5120FC001968770D4CF9F7011F0AA
:103C4000882329F3805E883010F3C8010E94A315F1
:103C5000FD2CB1CFEE2009F4AECF8091E40281605B
:103C60008093E402F12CA7CF43131BC0921319C019
:103C70004091E5025091E602F80126813781421712
:103C8000530779F4E1100DC08583C8010E94A31584
:103C900088E0F801AFEDB2E001900D928A95E1F76E
:103CA0008ACFC8010E94D60A882339F1EE2029F173
:103CB0008091E4028032A0F02091DF023091E00296
:103CC0003A8729871B86DD86CC868E878091E50220
:103CD0009091E602988B8F87CE0109960E94A315DA
:103CE00088E0F801AFEDB2E001900D928A95E1F71E
:103CF0000E94301DFF24F3945ECFC8010E94A315DB
:103D0000F9CF51110AC08FED92E00E94A31588E00F
:103D1000F50111928A95E9F7A5CF431318C09213C4
:103D200016C04091E5025091E602F80126813781E4
:103D30004217530761F4E1100AC08583C8010E944D
:103D4000A31588E0F50111928A95E9F734CFC801EF
:103D50000E94D60A882389F2EE2079F28091E4024B
:103D6000803208F4BDCF2091DF023091E0023A8327
:103D700029831B82DD82CC828E838091E502909123
:103D8000E60298878F83CE010196A8CFE83CF10523
:103D9000C0F6FE2CEE2009F4B0CF43130EC09213F0
:103DA0000CC02091E5023091E602F80186819781EE
:103DB0002817390711F488E06DCFC8010E94D60A90
:103DC00081118ECF8091E40281608093E402C8016A
:103DD0000E94A315F0CEEE2009F48FCFC8010E94F7
:103DE000D60AF82E882309F488CF88E0F801AFEDD1
:103DF000B2E001900D928A95E1F78091DF029091F7
:103E0000E0020E94140A0E94301DD5CE81E08E256A
:103E1000E0CEA0E1B0E0EFE0FFE10C94E32D2987D4
:103E20003A874B875C876D877E878F87988BCE011B
:103E300009960E94831D811112C088E0FE01399607
:103E4000DE01119601900D928A95E1F78C859D8592
:103E5000892B29F089859A8589238F3F81F5809167
:103E600028039091E702891317C06096E2E00C9452
:103E7000FF2D93E0AA0FBB1F9A95E1F7A851BD4F04
:103E800098E0FE01319601900D929A95E1F78093AA
:103E9000E7020E94D609E3CFB8E08B9FC00111244E
:103EA00088519D4F0E94831D8823F9F28091280339
:103EB00090E001968770992780932803D0CFA09136
:103EC000E702B0E0CD010196877099272091280381
:103ED0002817190671F60E948C101092E7021092B2
:103EE000280388E0EFEDF2E0DF011D928A95E9F703
:103EF000B6CF0F931F93CF93DF938091C203E091CE
:103F0000C1031CE081111AC0DF91CF911F910F9165
:103F1000089501E00E0F0093C103CE2FD0E0E19F82
:103F2000F0011124ED53FC4F83819481892B29F0FA
:103F30008081918189238F3FF9F4E02F8091C20322
:103F4000E81738F31092C2031092C103DDCF189620
:103F50008D919C918F3F9807E1F061E00E94911351
:103F60001C9FF0011D9FF00D1124ED53FC4F148296
:103F700013821092C003E1CF1C9FD0011D9FB00D92
:103F80001124AD53BC4F16968D919C911797892B98
:103F9000F1F2208131814281538164817581868172
:103FA00097810E94091FDCCF10922E0410922D04DD
:103FB0001092510280912C0480932B040E941C06C5
:103FC0000E94791F0895B0E0A0E0E9EEFFE10C94B3
:103FD000D32DC0912B04E7E0FE2E01E010E0FCE0C1
:103FE0002F2EAEEFEA2E80912C048C1309C00E9474
:103FF000791F0E941C06CDB7DEB7E2E10C94EF2DCD
:10400000D0E0FE01EE0FFF1FED5DFB4F808191813F
:10401000F89EF001F99EF00D1124E75CFE4F24811B
:10402000211159C03090C203A3ECB3E030E020E08E
:10403000412C5F01231508F04CC01A966D907C90BE
:104040001B97F501808091804FEF5FEF512CC52CBD
:10405000D12CF601EE0FFF1FE80DF91D659174914B
:104060006616770609F4A601672B11F05394EFCF7B
:104070004F3F5407B9F1B80102C0660F771F4A9548
:10408000E2F7462AA801052C02C0440F551F0A94E6
:10409000E2F7415051094416150601F5229EF00140
:1040A000239EF00D1124ED53FC4FF89ED001F99E94
:1040B000B00D1124A75CBE4F12962D913C91139721
:1040C00037832683E082E1829187808771E01596AD
:1040D0007C930E94EE052196C37085CF14961C92A6
:1040E0001E9213972F5F3F4F1C96A4CFA9E1B0E01B
:1040F000ECE7F0E20C94D32D498B5A8B6B8B7C8BC5
:104100008D8B61111092C0031D861E861F86188A32
:1041100085E0FE017196DE01199601900D928A9557
:10412000E1F780918A0382FF1CC00E947E052091E6
:10413000290330912A03821B930B883E934020F081
:1041400080912B0382FFF2C10E947E0520913503EE
:1041500030913603821B930B883E934010F00E94EF
:1041600096098C859D85892B31F089859A858923CF
:104170008F3F09F0C9C129853A854B855C856D85DE
:104180007E858F8598890E94091FC7C081354CE7BD
:10419000940731F48B85882371F00E94D41FEBCFF4
:1041A00082359C4741F48B85882329F08091510208
:1041B0008111F3CFB7C169857A8580E00E94E70756
:1041C0004C0109E311E0E12CD12CC12CAA24A394C9
:1041D000B12C9EEF592E44244394F80160817181E3
:1041E00066246A94762C20E0422F50E0FA01EE0F0C
:1041F000FF1FE60FF71F859194918816990609F421
:104200003A01892B11F02F5FEFCFF12CFFEF6F16E2
:104210007F0609F444C0F8014481F09051028F2DCB
:10422000411180E0F82FF170FF2EF8012580868182
:104230009B85992309F4F2C0FF2009F4EFC02110F7
:1042400014C0A501062C01C0440F0A94EAF7842B80
:1042500086838091BE039091BF03889730F448E233
:1042600050E05093BF034093BE03C50102C0880FC6
:10427000991F2A95E2F70197F80126812817190658
:1042800071F480912D0490912E04009709F449C097
:104290000E946305899708F444C0F8014482EF281E
:1042A000FFEFCF1ADF0A095F1F4F28E2C216D104C1
:1042B00009F093CF8B85882309F411C1EE2009F40E
:1042C0000EC10E947E0590932E0480932D04809150
:1042D000C203883010F591E0980F9093C20398E0E4
:1042E000FE013996DE01119601900D929A95E1F743
:1042F0003CE0839FC00111248D539C4F28E0FE01B8
:104300003196DC0101900D922A95E1F72FEF3FEFF6
:10431000FC0131872087938682866996E2E10C94BE
:10432000EF2D80912B0460902C04982FF0E0E0E0BA
:10433000861114C090932B040E171F0709F4AFCFFA
:1043400090E0FC01EE0FFF1FED5DFB4FD182C082BC
:1043500001968370992780932C04A1CF282E312CAD
:10436000F101EE0FFF1FED5DFB4F20813181F7E082
:10437000F29FD001F39FB00D1124A75CBE4F2D9189
:104380003C911197398F288F712C60E070E0E72FF6
:10439000F0E0EE0FFF1F288D398DE20FF31F2591FE
:1043A000349121153105E1F0F8010190F081E02D03
:1043B000FF8BEE8B60E005C02417350709F47F2CD6
:1043C0006F5FE62FF0E0EE0FFF1F4E895F89E40F6D
:1043D000F51F459154914115510571F77F5FD7CF76
:1043E0007720C9F0F801671708F0FD014482E01753
:1043F000F10721F490932B04F72C51CF891305C0BA
:10440000EA17FB0711F49F5F937091012F5F3F4FF5
:10441000822F83708DCFF0E0E0E0F7CF90E02110A5
:1044200020C0B50102C0660F771F2A95E2F79B01F5
:10443000215031092817390731F4442309F44DC0BC
:10444000C6010E94EE05C501062C01C0880F0A9422
:10445000EAF7982F9095F801868189238683F22CBC
:104460001ECF9C01062C02C0359527950A94E2F7D1
:10447000A90141705527BC0161507109862397231A
:10448000892B39F5452B29F1F80182819381892BFC
:10449000D9F01B821C821D821E8259825A820E9480
:1044A0007E058160582F9D838C83F80182819381E2
:1044B0008F83988729813A814B816D817E810E940B
:1044C000091FF8011582BFCF60E0C6010E94911359
:1044D000F8CFF22FF1702F2EB6CF2F2CB4CF9091B2
:1044E0002B0480912C04981731F00E94E31FEE20DA
:1044F00009F441CE12CF0E94791F10922E0410921F
:104500002D040E941C06F3CF61E0CE0109960E94A3
:104510002F0C8035FCE79F0709F038CE8B85882368
:1045200009F449CE81E08093510225CE82E00E94B9
:10453000A10A0ACEAFE0B0E0E0EAF2E20C94D82D96
:104540008E010F5F1F4F8AE0D8011D928A95E9F70F
:1045500080E9C82E82E0D82EF12CE12CAA24A39465
:10456000B12C2BE9822E22E0922EF60181916F016F
:104570008F3F09F442C0F894E82FE295EF70F0E025
:1045800021A18F70A50102C0440F551F8A95E2F743
:10459000CA01922F982B91A392A18095892382A37F
:1045A000789400C0E5E9F2E0712C31E021912F3FD1
:1045B00009F46BC0A22FA295AF70B0E090968C91D9
:1045C00090E02F7002C0959587952A95E2F780FDBF
:1045D0005CC0832F782A330F8E169F0639F7F601B9
:1045E000319780818F3F11F00E948D0750EA5A95D4
:1045F000F1F7F801EE0DFF1D70828FEFE81AF80A4F
:1046000095E0E916F10409F0B0CF4AE050E0B801B6
:1046100089E793E00E94B130009741F02AE0F80169
:10462000A9E7B3E001900D922A95E1F70091840388
:10463000892B69F181E080933A030E947E05909373
:1046400039038093380380913803909139030E9495
:104650006305059700F110E003571C4F45E050E05B
:1046600069E773E0C8010E94B130C12C892B51F079
:1046700085E0E9E7F3E0D80101900D928A95E1F732
:10468000CC24C39410923A0307C080E0A3CF80915A
:104690003A038111D8CFC12C0E94410DD82EE09150
:1046A0008403DE011B967D01882309F401C185E0A6
:1046B0001D928A95E9F70E2F10E003571C4F809149
:1046C00072038A3008F0C0C049E156E2B701C80160
:1046D0000E940E0D882309F4DAC040EC55E2B701C0
:1046E000C8010E940E0D882309F4D1C042EB54E2A8
:1046F000B701C8010E940E0D882309F4C8C01092AA
:1047000072038091830390E045E050E0B701835746
:104710009C4F0E94B13021E020935303892B09F074
:10472000A9C0D12C8091410390914203892BC1F102
:1047300040913D0350913E0360913F0370914003CF
:104740002FB7F8948091360490913704A0913804E3
:10475000B09139042FBF841B950BA60BB70B813C7E
:10476000944DA140B105E0F0809141039091420346
:10477000809590952091870330918803822393231D
:104780000E948A0A10924203109241030E9472050D
:1047900060933D0370933E0380933F0390934003E7
:1047A00040914B0350914C0360914D0370914E0327
:1047B0002FB7F8948091360490913704A091380473
:1047C000B09139042FBF841B950BA60BB70B8E3508
:1047D0009140A105B10570F00E94720560934B03F2
:1047E00070934C0380934D0390934E0310924A03B1
:1047F0001092490380914803882371F08091460309
:10480000909147030E9463058132934028F083EE24
:104810000E94F30D1092480380914503882371F0A4
:1048200080914303909144030E9463058132934039
:1048300028F080EE0E94F30D109245038D2D8C29F7
:104840002F96EDE00C94F42D80913B0390913C0366
:104850000E946305843F914008F036CF8091530356
:10486000882309F45ECF85E0F70111928A95E9F774
:1048700010925303A0918303B0E0A357BC4F85E08F
:10488000FE013B9601900D928A95E1F74BCF809106
:1048900072038F3F31F08F5F809372038A3008F488
:1048A00030CF0E947E0590933C0380933B03D6CF8C
:1048B000F0E0E357FC4F85E0A3E6B3E001900D92F2
:1048C0008A95E1F765E070E083E693E00E942D06AB
:1048D000809362034091A70350E06091A60370E0CB
:1048E0006E557C4FC7010E94BE308B858093690353
:1048F00061E070E0C7010E942D06809368038090FC
:104900006A0390906B03A0906C03B0906D0380914C
:104910004F0390915003A0915103B0915203881618
:104920009906AA06BB0611F4D12C88CF80924F03BA
:1049300090925003A0925103B09252030E94410DF5
:10494000D82E8111F1CF0E947205861A970AA80A03
:10495000B90A8092730390927403A0927503B09287
:1049600076036CCFA4E0B0E0E8EBF4E20C94E12D28
:1049700040916E0350916F036091700370917103C9
:104980002FB7F8948091360490913704A0913804A1
:10499000B09139042FBF841B950BA60BB70B11E008
:1049A00084369105A105B10590F10E94410D88233F
:1049B00099F10E9472056E5F7F4F8F4F9F4F698301
:1049C0007A838B839C8380912101909122018E595F
:1049D0009C4F4091200150E04530510510F044E0DB
:1049E00050E0BE016F5F7F4F0E94BE3084E090E0D8
:1049F0000E945D2D182F882351F00E94720560934C
:104A00006E0370936F038093700390937103812FF3
:104A10002496E4E00C94FD2D0E947205009173032E
:104A2000109174032091750330917603600F711F0C
:104A3000821F931FC0CF4F925F927F928F929F925F
:104A4000AF92BF92CF92DF92EF92FF920F931F939C
:104A5000CF93DF930F92CDB7DEB7C62E4A0159012F
:104A6000482E880F5508C2010E945D2D782E88239C
:104A700009F480C0C20133E0880F991F3A95E1F72D
:104A8000FC01E050FF4F438150E04115510511F00A
:104A900041E050E080509F4FFC01648175816E5968
:104AA0007C4FCE0101960E94BE30F40140815181BD
:104AB000628173812FB7F894809136049091370406
:104AC000A0913804B09139042FBF841B950BA60B1D
:104AD000B70B84369105A105B10540F4B701C801B3
:104AE0000E942D069981891709F444C00C2C000CF2
:104AF000DD08C6010E945D2D782E811113C0712C36
:104B0000872D0F90DF91CF911F910F91FF90EF9024
:104B1000DF90CF90BF90AF909F908F907F905F90ED
:104B20004F900895C60123E0880F991F2A95E1F759
:104B3000FC01E050FF4F438150E0E416F50608F415
:104B4000A70180509F4FFC01648175816E597C4F95
:104B5000C5010E94BE30B701C8010E942D0699818F
:104B60008913CDCF0E947205F40160837183828323
:104B70009383C6CFA701B801C5010E94BE30C0CF44
:104B8000A1E0B0E0E6ECF5E20C94DC2DEE24E39439
:104B9000F12C09E613E09E012F5F3F4F4EE553E0F5
:104BA00063E082E00E941B25C82E882339F100E0D3
:104BB00080E01DC0D0907803D00E2D2D30E0A901EB
:104BC0004E555C4F7A01E1E0F0E0EC0FFD1FE00F85
:104BD000F11D1081FA019081191BB12E1B149CF05C
:104BE000912F17FD90E0191B111118C00F5F9091C4
:104BF00077030917F8F281110E9493098C2D2196F1
:104C0000E9E00C94F82DBA94F70180818F5F8083DE
:104C100060E08D2D0E94A10F8C2DE0CF1F5FF7016A
:104C200080818150808361E08D2D0E94A10F8C2DA9
:104C3000DBCFA5E0B0E0EFE1F6E20C94DD2D6B01F7
:104C400085E0E82EF12C03E613E09E012F5F3F4F35
:104C50004AE553E061E080E00E941B25882349F08B
:104C600095E0FE013196A5E5B3E001900D929A958D
:104C7000E1F795E0E5E5F3E0D60101900D929A9514
:104C8000E1F72596E8E00C94F92D1F920F920FB6EC
:104C90000F9211242F933F934F935F936F937F93C2
:104CA0008F939F93AF93BF93CF93DF93EF93FF9334
:104CB000D091E900DF708091EC00C82FC17080FDB9
:104CC000C0E81092E9008091F000877F8093F000A7
:104CD00078940E94B3101092E9008091F0008860EF
:104CE0008093F000CD2BCF70C093E900FF91EF913E
:104CF000DF91CF91BF91AF919F918F917F916F91F4
:104D00005F914F913F912F910F900FBE0F901F9089
:104D100018951F920F920FB60F9211242F933F9365
:104D20004F935F936F937F938F939F93AF93BF93B3
:104D3000EF93FF938091E10082FF09C08091E20030
:104D400082FF05C08091E1008B7F8093E10080911C
:104D5000DA0080FF24C08091D80080FF20C08091BD
:104D6000DA008E7F8093DA008091D90080FF9DC0A9
:104D700080E189BD82E189BD09B400FEFDCF81E0FB
:104D80008093570480913A04811109C00E9406045F
:104D90000E94A7048091E20084608093E2008091E9
:104DA000E10080FF17C08091E20080FF13C0809176
:104DB000E2008E7F8093E2008091E2008061809328
:104DC000E2008091D80080628093D80019BC85E011
:104DD000809357048091E10084FF2BC08091E20012
:104DE00084FF27C080E189BD82E189BD89B5982F04
:104DF000917080FFFBCF8091D8008F7D8093D80089
:104E00008091E1008F7E8093E1008091E2008F7EAF
:104E10008093E2008091E20081608093E2008091C3
:104E20004E04882309F447C084E08093570480919E
:104E300057048091E10083FF27C08091E20083FF47
:104E400023C08091E100877F8093E10082E080931E
:104E5000570410924E048091E1008E7F8093E10010
:104E60008091E2008E7F8093E2008091E200806179
:104E70008093E20042E060E080E00E94750480914F
:104E8000F00088608093F000FF91EF91BF91AF91A7
:104E90009F918F917F916F915F914F913F912F9152
:104EA0000F900FBE0F901F90189519BC10925704C9
:104EB00010923A0474CF8091E30087FD93E09093C1
:104EC0005704B5CF78941F921FB61F9211248F9369
:104ED0009F93AF93BF938091360490913704A09134
:104EE0003804B09139040196A11DB11D8093360498
:104EF00090933704A0933804B0933904BF91AF91D5
:104F00009F918F911F901FBE1F9018951F921FB6E3
:104F10001F9211248F939F93AF93BF938091350479
:104F2000811113C08091360490913704A091380408
:104F3000B09139044196A11DB11D80933604909320
:104F40003704A0933804B0933904BF91AF919F9177
:104F50008F911F901FBE1F901895CDB7DEB7609739
:104F60000FB6F894DEBF0FBECDBF85B7806885BF92
:104F700085B7806885BF84B7877F84BF0FB6F894F4
:104F8000A895809160008861809360001092600015
:104F90000FBE80E890E00FB6F89480936100909384
:104FA00061000FBE8BE897E09093AD028093AC0256
:104FB0000E9406040E94A7048091E200846080930E
:104FC000E2007894809157048823A1F01091E900C1
:104FD0001F709091EC00892F817090FD80E8182B54
:104FE0001092E9008091E80083FD0E94B3101F70C9
:104FF0001093E90082E084BD93E095BD9AEF97BDE0
:1050000080936E00109273031092740310927503D4
:10501000109276030E94410D809328010E94410D59
:1050200081110E94712C9091280181E09827909322
:10503000A603282F291B20937803909128018093A1
:10504000A703909128018093770380912801811113
:1050500006C084EF8093340185EF8093330182E0B2
:105060008093320120913401E22FE295EF70F0E05D
:1050700061A12F7081E090E0AC0101C0440F2A953E
:10508000EAF7342F3095362331A322A1242B22A313
:1050900020913301E22FE295EF70F0E031A12F7003
:1050A00001C0880F2A95EAF7982F9095932391A332
:1050B00092A1892B82A38FE891E00197F1F700C0BC
:1050C00000001091A70368EA73E044E351E083E332
:1050D000E82E81E0F82EFB0128C0DA012D91AD0108
:1050E000822F82958F7090E0DC0190968C9190E0F9
:1050F0002F7002C0959587952A95E2F78170D701A8
:105100009D917D01292F22952F7030E0D901909635
:105110002C9130E09F7002C0359527959A95E2F763
:1051200090E020FD92E0892B81938E2F861B8117C2
:10513000A0F2809128018091280195E0811190E0F2
:105140009093840385E0891B8093830300E912E038
:1051500065E9E62E62E0F62EF80181918F018F3F1E
:1051600011F00E948D07E016F106B1F705E912E093
:105170005BE9E52E52E0F52ED8018D918D018F3F30
:1051800011F00E948D07E016F106B1F78AE0EDE814
:10519000F3E0DF01282F1D922A95E9F7E9E7F3E014
:1051A000DF011D928A95E9F790E080E00E94402E91
:1051B000873E9E4F09F45EC067EE7EEF90E080E090
:1051C0000E94642E60E082E090E00E94462E60E043
:1051D00083E090E00E94462E109286031092850391
:1051E00060E074E184E090E00E94642E60E086E07C
:1051F00090E00E94462E6FEF87E090E00E94462EDE
:1052000040E050E0BA0188E090E00E94582E60E053
:105210008DE090E00E94462E40E050E0BA0188E127
:1052200090E00E94582E60E087E190E00E94462EB8
:1052300040E050E0BA018CE190E00E94582E70E00E
:1052400060E080E290E00E94642E40E050E0BA010D
:1052500088E190E00E94582E40E050E0BA018FE0D3
:1052600090E00E94582E40E050E0BA0183E190E0C7
:105270000E94582E82E090E00E94382E809397037F
:1052800084E090E00E94402E90938A0380938903EB
:1052900083E090E00E94382E90E00E94D10A0E94A4
:1052A000410D811102C00E94742C89E291E090931B
:1052B00032048093310438E1C32ED12C47E9A42E67
:1052C00043E0B42E22EA822E23E0922E80915704EE
:1052D00000E112E1853009F47EC00E949A2208E9BB
:1052E00013E09DE8E92E93E0F92ED701F8019191A2
:1052F0008D918E169F0609F478C09817C1F30E940D
:10530000410D282E712CD7016D907D01F80131904F
:105310008F01361429F13624512C44244394832DD3
:105320008421B1F02220A1F05C867D8691E0862D5B
:10533000842109F490E09E870E947E058160782F89
:10534000988B8F874C855D856E8588890E94762035
:105350005394440CF6E05F12E2CFF801319760827B
:1053600073942AE07212CFCF0E9472055EC08091C2
:105370005704843011F110923504E0E40FB6F8942C
:10538000A895C09260000FBEE093600083B7817F54
:10539000846083BF83B7816083BF7894889583B727
:1053A0008E7F83BF0FB6F894A895809160008861C6
:1053B00080936000109260000FBE809147048823A4
:1053C00051F00E949A22EDE8F3E08191811111C21F
:1053D000AE16BF06D1F780915704853009F4C7CFC8
:1053E0000E948C100E94640D78CF981388CF0E9481
:1053F0007E058C0180918B0390918C03081719070F
:10540000A1F08FEF8F83888719860E947E058160C7
:10541000782F9B878A874F81588569858B850E9465
:10542000762010938C0300938B030E94410D8823F8
:10543000A9F180915102882301F180912D0490916E
:105440002E040097D1F00E9463052091BE03309195
:10545000BF032817390788F490912B0480912C04FE
:10546000981709F415C10E94E31F1092BF03109210
:10547000BE0310922E0410922D048091BD03882348
:1054800069F00E947E052091BB033091BC03821B12
:10549000930B8F3F9F4710F40E94D10D612C512C2C
:1054A0008091A703681608F4FCC051100E9493096C
:1054B00086E0E4EBF3E0DE01119601900D928A950F
:1054C000E1F71092B6031092B7031092B80310924E
:1054D000B9038B819C81892B09F44DC08091B20363
:1054E0009091B3030E9463059C019091AB039923B3
:1054F00009F499C12930310508F43DC09F3F19F0E6
:105500009F5F9093AB038B81882361F00E94F90623
:105510009B8119160CF455C19FEF899F802D112492
:105520008093B6038C81882361F00E94F9069C81E8
:1055300019160CF448C19FEF899F802D1124809388
:10554000B7033091B6033323B1F02091B703222380
:1055500091F045EB3403C0011124992309F435C1BE
:105560009093B60345EB240390011124332309F4EF
:1055700030C13093B7038D819E81892B09F45AC0C5
:105580008091B0039091B1030E9463051091AE0326
:10559000112309F444C1BC0190E080E00E948D2FEA
:1055A00020913501309136014091370150913801F9
:1055B0000E943F3018160CF03DC01F3F19F01F5FCE
:1055C0001093AE038D81882361F00E946A069D814D
:1055D00019160CF402C19FEF899F802D112480932E
:1055E000B8038E81882361F00E946A069E81191695
:1055F0000CF4F5C09FEF899F802D11248093B9038F
:105600003091B8033323B1F02091B903222391F0F4
:1056100045EB3403C0011124992309F4E2C09093AF
:10562000B80345EB240390011124332309F4DDC0B2
:105630003093B90346E050E0BE016F5F7F4F84EBCB
:1056400093E00E94B130892B61F48091B603909170
:10565000B703892B9091B803892B9091B903892BBB
:1056600011F00E94430686E0FE013196A4EBB3E000
:1056700001900D928A95E1F70E94640D9091AA0322
:10568000891709F423CE8093AA030E9472051ACECB
:105690000E94791F10922E0410922D040E941C0665
:1056A000ECCE062D10E0F801EC5CFE4F8081E82F77
:1056B000E295EF70F0E0E0A1F0E08F7002C0F595A8
:1056C000E7958A95E2F7E170D801AD5CBE4F2C9169
:1056D000A22FA295AF70B0E090968C9190E02F70C1
:1056E00002C0959587952A95E2F780FD62C080E01B
:1056F0008E2BD801A855BC4FEC919E2F9370891723
:1057000009F455C0EE0FEE0FE82BEC93D801AF5C17
:10571000BE4FEC907090A603760CEF70F0E0E5566B
:10572000FD4F0C551C4F8081D8019C91890F8C93A3
:10573000F12C082E000C990B412C8E159F0584F03E
:10574000E72DF0E0EE55FC4F80818F5F80830E9453
:10575000410D482E882379F160E0872D0E94A10F2A
:10576000F8018081082E000C990B222733272E196F
:105770003F092817390784F0E72DF0E0EE55FC4F7C
:105780008081815080830E94410D482E8823B1F092
:1057900061E0872D0E94A10FD8018C91082E000C8A
:1057A000990BB7010E941E2EF80180835428639440
:1057B00077CE82E09DCF44244394D2CF44244394B7
:1057C000EBCF91E0AACE91E0B7CE81E08093B60313
:1057D000C9CE81E08093B703CECE91E0FDCE91E0BB
:1057E0000ACF81E08093B8031CCF81E08093B90396
:1057F00021CF09BD19BD09B400FEFDCF8091D800AD
:105800008F7D8093D8008091E00082608093E000DB
:105810008091E00081FDFCCF0E948C10DCCD0B97C5
:1058200008F0CDCE07CF232B09F06ACEA4CE8EE1AF
:105830004A9B02C08150E1F74A9BFECF08955A98D7
:1058400080E28A95F1F75A9A0895FC013BE03A9577
:10585000F1F798E020E080E031E040E14A95F1F78F
:10586000880F4A9B02C08160232742E04A95F1F7E6
:10587000000040E14A95F1F7915079F790E19A954F
:10588000F1F799B132E03A95F1F7000040E14A951D
:10589000F1F792FB992790F992272081920F90833C
:1058A0000895A1E0B0E0E7E5FCE20C94DF2D198259
:1058B0008C017C01E60EF11C0E151F0541F481E000
:1058C0009981911180E02196E6E00C94FB2D0E94D5
:1058D000172CCE0101960E94252CF80181938F018F
:1058E000EBCF529A5A9A089552985A9AEA9AE9E650
:1058F000F0E080818F7C808308956150770B91E088
:1059000001C0990F6A95EAF720E031E0911108C0D3
:10591000222391F05A9A80E28A95F1F75A980895D5
:10592000492F482339F05A9A232740E24A95F1F744
:105930009695ECCF5A98F9CF5A98EDCFFF920F93E6
:105940001F93CF93DF93EC018C01060F111DC0173D
:10595000D10729F4CDB7DEB7E5E00C94FC2DF99022
:105960000E941F2C68E08F2D0E947D2CF0CF1F928B
:105970000F920FB60F9211240F931F932F933F9303
:105980004F935F936F937F938F939F93AF93BF9347
:10599000EF93FF93CF93DF930F92CDB7DEB71982CA
:1059A0000E94172CCE0101960E94252C082F0695E7
:1059B00006950695282F22952570902F9570290F12
:1059C000922F937026952695920F9827977089812C
:1059D000982B09F05CC0063008F059C080E18A9528
:1059E000F1F75A9A529A82E08A95F1F700C05A98D4
:1059F00088E0089F80011124D801A050BF4F16965F
:105A0000ED91FC9117973097A9F060918E027091FB
:105A10008F0214962D913C911597260F371F1196E2
:105A20008D919C911297680F791F13964C91139743
:105A30008C910995F801E050FF4F6381662351F086
:105A400020918E0230918F0284819581820F931F65
:105A50000E949E2C0E941F2C80E18A95F1F75A9893
:105A600052985A9A80E18A95F1F7F801E050FF4F79
:105A70006081662351F020918E0230918F028181E6
:105A80009281820F931F0E94512C0E94172C0F901D
:105A9000DF91CF91FF91EF91BF91AF919F918F9146
:105AA0007F916F915F914F913F912F911F910F9136
:105AB0000F900FBE0F901F9018950F931F93CF93C9
:105AC000DF93EC0106970CF04CC0F894529A5A9868
:105AD00085E08A95F1F700009C2F969595708C2FA4
